:020000040001F9
:10F00000E058002015F401001DF401001FF4010078
:10F0100021F4010023F4010025F4010000000000A8
:10F0200000000000000000000000000027F40100C4
:10F0300029F40100000000002BF401002DF4010070
:10F04000B1F701002FF401009DFB01002FF4010036
:10F050002FF401002FF40100D5F501002FF4010079
:10F060002FF401002FF401002FF401002FF4010010
:10F070002FF401002FF401002FF401002FF4010000
:10F080002FF4010009F801002FF401002FF4010012
:10F09000D9F801002FF40100DDF801002FF4010080
:10F0A0002FF401002FF401002FF401002FF40100D0
:10F0B0002FF401002FF40100000000000000000008
:10F0C0002FF401002FF401002FF401002FF40100B0
:10F0D0002FF401002FF401002FF4010000000000C4
:10F0E0000000000000000000000000000000000020
:10F0F0000000000000000000000000000000000010
:10F1000000000000000000000000000000000000FF
:10F1100000000000000000000000000000000000EF
:10F40000DFF80CD000F08AF800480047B53702005A
:10F41000E05800200648804706480047FEE7FEE720
:10F42000FEE7FEE7FEE7FEE7FEE7FEE7FEE7FEE7B4
:10F4300001F9010001F4010040EA01039B0703D038
:10F4400009E008C9121F08C0042AFAD203E011F823
:10F45000013B00F8013B521EF9D27047D2B201E0E5
:10F4600000F8012B491EFBD270470022F6E710B5C9
:10F4700013460A4604461946FFF7F0FF204610BD22
:10F48000421C10F8011B0029FBD1801A704730B5CF
:10F4900004460020034600E05B1C934203D2E05C7C
:10F4A000CD5C401BF8D030BD034611F8012B00F8AD
:10F4B000012B002AF9D1184670472DE9F05F054667
:10F4C000002092469B4688460646814640241BE023
:10F4D000284641464746224600F041F853465A46E0
:10F4E000C01A914110D311461846224600F028F860
:10F4F0002D1A67EB01084F4622460120002100F03B
:10F500001FF817EB00094E41201EA4F10104DFDCB7
:10F51000484631462A464346BDE8F09F064C074D13
:10F5200006E0E06840F0010394E8070098471034D3
:10F53000AC42F6D3FFF768FFE880020008810200C2
:10F54000202A04DB203A00FA02F1002070479140A3
:10F55000C2F1200320FA03F3194390407047202A98
:10F5600004DB203A21FA02F00021704721FA02F36D
:10F57000D040C2F12002914008431946704770B54F
:10F580008C1810F8015B15F0070301D110F8013B4E
:10F590002A1106D110F8012B03E010F8016B01F8D5
:10F5A000016B5B1EF9D12B0705D40023521E0DD42D
:10F5B00001F8013BFAE710F8013BCB1A921C03E07B
:10F5C00013F8015B01F8015B521EF9D5A142D8D3B3
:10F5D000002070BD2DE9FC5F0025DFF83891A846BA
:10F5E0004FF4807601242F46304604F0D7FF38B11F
:10F5F000D9F80403204203D0304604F0C5FF254368
:10F60000361D64007F1CB6B2082FEDD34FF4BE74D4
:10F61000204604F0C3FF38B1204604F0B5FF3E4851
:10F6200045F00045D0F800803C4E15F0FF0F15D096
:10F63000012700242F420DD009EB8401D1F81005D9
:10F64000D1F81015C0F3042056F82420C1F301416D
:10F6500002B190477F00641C082CEBD3002D56DAD2
:10F6600000200190401E4CE0701910F8501F90F9D6
:10F67000000021F0C004401C38D0012000FA04FA38
:10F680001AEA090F32D04FEA911B204602F0B8F96E
:10F6900056F82000009010B9BBF1030F26D1514657
:10F6A000BBF1030F02D1019808430190A00000F1C3
:10F6B000A040D0F800071AEA080FC0F3014002D0BA
:10F6C000022802D012E0032810D1BBF1030F07D1AA
:10F6D00002281AD00221204604F048FF7F1CFFB206
:10F6E000009818B1009A5946204690476D1C042D89
:10F6F000BAD3002F0BD008480068404507D0804699
:10F700000198002781463D46AEE70321E3E7BDE8C7
:10F71000FC9F00000060004010050050182C0020E5
:10F7200000F01F02012191404009800000F1E0201B
:10F73000C0F88012704700F01F020121914040097B
:10F74000800000F1E020C0F88011704700F01F0237
:10F75000012191404009800000F1E020C0F8001133
:10F76000704700F01F02012191404009800000F124
:10F77000E020C0F80011704700F01F020121914005
:10F780004009800000F1E020C0F8001270474907EE
:10F79000090E002806DA00F00F0000F1E02080F8E2
:10F7A000141D704700F1E02080F80014704700003D
:10F7B0002DE9F0414FF48077384604F075F90124C3
:10F7C000104EA50748B1384604F075F90120C5F878
:10F7D00008037470002002F053F94FF48277384622
:10F7E00004F062F900280BD0384604F064F90220D6
:10F7F000C5F80803B470BDE8F041012002F040B93B
:10F80000BDE8F081042C002007480021C0F8401119
:10F81000C0F84411C0F84811C0F84C11C0F80011EC
:10F82000C0F8041107F080BF001001402DE9F04737
:10F83000114F0446DDF8209038781D46164688465C
:10F8400008B900F0B9F93869A04211D90A4904EBA6
:10F85000440001EBC00134B1C1F81880C1E907656B
:10F860000020886248620020C1F82C90BDE8F08733
:10F870004FF0FF30FAE700006838002070B50E4600
:10F88000144900EB400001EBC0051446E86A183546
:10F8900020B101280FD0022805D113E0284600F03E
:10F8A000BFF9A04201D2002411E022463146284689
:10F8B00000F0EEF90BE0284600F0B2F9A042F4D2D5
:10F8C0000446F2E73146284600F0B5F904462046E2
:10F8D00070BD00006838002007F09EBE074810B5D4
:10F8E000406830B18047002807D0BDE8104000F0E4
:10F8F0005DBEBDE8104003F0F9BB10BD68220020DA
:10F90000F0B598480023021D01780125101D4FF025
:10F910008056062907D11478240704D10478C4F34B
:10F920000314032C02D0062904D00FE08F4F8E4C15
:10F930007C670EE01478240708D10478C4F303141C
:10F94000032C06D0042C04D0052C02D0062907D0A5
:10F950000EE0D6F84442864FC4F342343C6002E0E5
:10F960001478240704D10478C4F30314032C02D0C0
:10F97000062906D011E07F4C276827F080772760A2
:10F980000EE01478240708D10478C4F30314032C80
:10F9900006D0042C04D0052C02D006290AD011E090
:10F9A0004FF08044C4F80C31C4F81031704C241F5F
:10F9B000236002E01478240704D10478C4F303140C
:10F9C000032C02D0062905D00CE0694F03246437CC
:10F9D0003C600AE01478240704D10478C4F30314CB
:10F9E000032C02D006290DD014E0634F05243C609F
:10F9F000614C78342560604C083423603F243F1DFF
:10FA00003C6002E01478240704D10478C4F30314A2
:10FA1000052C02D0062957D068E058490968584A91
:10FA200011605649091D0968121D116053490831BA
:10FA30000968121D116051490C310968121D1160CD
:10FA40004E4910310968121D11604C491431096882
:10FA5000121D1160494918310968494A2032116064
:10FA600046491C310968121D11604449203109685A
:10FA7000121D1160414924310968121D11603F496E
:10FA800028310968121D11603C492C310968121D8A
:10FA900011603A4930310968394A403211603749BA
:10FAA00034310968121D1160344938310968121D5A
:10FAB000116032493C310968121D11602F494031F3
:10FAC0000968121D116002E0117809070ED1007853
:10FAD000C0F30310032803D0042801D0052805D162
:10FAE000D6F85802274900F04F00086021487438C2
:10FAF000016841F470010160BFF34F8FBFF36F8F56
:10FB00004FF01021D1F80002002803DBD1F80402E5
:10FB1000002822DA1C4A15601C480468002CFCD01E
:10FB20001524C1F800420568002DFCD0C1F804423C
:10FB300001680029FCD0136001680029FCD0BFF3E4
:10FB40004F8F0C48F0380168114A01F4E06111430D
:10FB50000160BFF34F8F00BFFDE70F490D480860FC
:10FB6000F0BD0000E00F00F00DF0ADBA00C007409E
:10FB70003C050040FCED00E010560040040400107D
:10FB800020C50040E40E004004E5014000E40140CF
:10FB90000400FA050090D0037C2200200448017F75
:10FBA00004480029024901D007F0CDBE07F03CBE51
:10FBB000702C00200020004010B5124C0220206163
:10FBC000606111A0A061A4F58260E0614FF48060E3
:10FBD00020620020A06260620BA1A164E062A4F137
:10FBE0001001E16410212165A0656065E06509A14F
:10FBF000E01DFFF759FC08A12046FFF755FC202027
:10FC0000A07110BD683800205465726D696E616C1A
:10FC1000000000005254540053454747455200002D
:10FC20000269C1688A4203D88068401A104400E023
:10FC3000501A401E70472DE9F047C46817468946A0
:10FC400006464FF000083069A04201D9051B02E0CA
:10FC5000B168201A0D1AB0686D1E001BA84200D8AA
:10FC60000546BD4200D33D4670682A4620444946B9
:10FC7000FFF7E2FBB0687F1B2C44A844A944A042D4
:10FC800000D10024F460002FDDD14046BDE8F087AC
:10FC90002DE9F041C6680446174688468068851BF2
:10FCA0006068BD4206D93044FFF7C6FBF019E0603A
:10FCB000BDE8F0812A463044FFF7BEFB7E1B08EB0F
:10FCC000050132466068FFF7B7FBE660F0E7000029
:10FCD0000FB4084B10B504A902AA039800F02EF83F
:10FCE000044602A9002000F05AFA204610BC5DF834
:10FCF00014FB00009F01020002E008C8121F08C1A7
:10FD0000002AFAD170477047002001E001C1121F9C
:10FD1000002AFBD1704700000121202803DA81402E
:10FD20000548014003E0402802DA2038814009B14B
:10FD30000120704700207047FC06FFBC2DE9FF4FF3
:10FD40008DB00F460546002606E025280BD0DDE9DC
:10FD50000F1290476D1C761C28780028F5D111B041
:10FD60003046BDE8F08F0024A246A1460122EC49AE
:10FD700000E0044315F8013F203B02FA03F008427B
:10FD8000F7D128782A2810D06FF02F022878A0F118
:10FD90003001092914D80AEB8A0102EB410144F031
:10FDA000020400EB010A6D1CF0E701CF5FEA000AD4
:10FDB00003D544F40054CAF1000A44F002046D1C57
:10FDC00028782E2817D115F8010F44F004042A28AA
:10FDD0000ED06FF02F022878A0F1300109290AD83F
:10FDE00009EB890102EB410100EB01096D1CF2E70F
:10FDF00057F8049B6D1C28786C280FD006DC4C2823
:10FE000017D068280DD06A2814D104E0742810D0C7
:10FE10007A280FD10DE044F400140AE044F4801471
:10FE200001E044F440146978814202D104F5801461
:10FE30006D1C6D1C2A786E2A1FD00CDC632A31D011
:10FE400004DC002A8BD0582A11D1A3E0642A68D0A0
:10FE5000692A0CD165E0732A2ED004DC6F2A73D096
:10FE6000702A04D19BE0752A6FD0782A6ED0104694
:10FE7000DDE90F129047761C50E1C4F302500228CE
:10FE800006D0032809D0042801CF09D0066045E137
:10FE900001CFF117C0E9006140E101CF06803DE1EB
:10FEA00006703BE117F8040B8DF8000000208DF878
:10FEB0000100EB46012003E057F804BB4FF0FF3090
:10FEC00061074FF0000102D40DE008F101018846FE
:10FED00049450FDA8045F8DB1BF808100029F4D1FA
:10FEE00008E008F1010188468142FADB1BF808109E
:10FEF0000029F6D1DDE90F23AAEB0800814621464F
:10FF000000F036F9304400EB080604E0DDE90F129A
:10FF10001BF8010B9047B8F10108F7D2214648467B
:10FF2000F7E00A21C4F302534FF0000B0891022BB3
:10FF300004D001CFC117032B09D00AE0FF1D27F021
:10FF40000707F7E8020108E032E01FE020E000B216
:10FF5000C117042B01D140B2C117031E71F1000378
:10FF600007DA4FF0000CD0EB0C006CEB01012D23F5
:10FF700002E0230504D52B238DF82430012303E070
:10FF8000E30701D02023F7E7984658E00A2110E064
:10FF900010210EE010204FF0000B08900CE0102113
:10FFA0004FF0000B44F004044FF00809089103E0FF
:10FFB00008214FF0000B0891C4F30253022B04D028
:10FFC00001CF0021032B06D006E0FF1D27F0070715
:10FFD000F7E8020103E080B2042B00D1C0B24FF079
:10FFE000000823072BD5702A07D0DDF820C08CF03D
:10FFF000100C5CEA0B0C05D00EE040238DF8243089
:020000040002F8
:10000000012308E050EA010306D030238DF82430A4
:100010008DF8252002239846DDF820C08CF0080CCE
:100020005CEA0B0C0BD150EA010301D1630706D542
:1000300030238DF824304FF00108A9F10109582A26
:1000400004D038A20B9208AA0A920BE03AA2F9E770
:100050005B46089AFFF731FA0B9B9B5C0A9A521E8B
:100060000A92137050EA0102F2D10A98ADEB000037
:1000700000F1200B600702D524F4803401E04FF03A
:100080000109D94502DDA9EB0B0000E0002000EBDF
:100090000B0141440890AAEB010AE00306D4DDE914
:1000A0000F232146504600F063F806444FF0000944
:1000B00008E009A911F80900DDE90F12904709F1DC
:1000C0000109761CC145F4DBE0030CD5DDE90F2303
:1000D0002146504600F04CF8064404E0DDE90F12DA
:1000E00030209047761C0899481E08900029F5DCBE
:1000F00008E00A980A990078491C0A91DDE90F1274
:100100009047761CBBF10001ABF1010BF1DC2146FD
:100110005046DDE90F2300F019F806446D1C1BE67C
:1001200009280100303132333435363738396162CD
:100130006364656600000000303132333435363791
:100140003839414243444546000000002DE9F04162
:10015000044600251E461746880404D405E03946A7
:100160002020B0476D1C641EF9D52846BDE8F081FB
:100170002DE9F041044600251E469046C80301D5EE
:10018000302700E02027880404D505E041463846A2
:10019000B0476D1C641EF9D52846BDE8F0810A6899
:1001A000531C0B601070704710B560B159B10278E4
:1001B0000B785208B2EB530F05D10622401C491CA4
:1001C000FFF765F908B1002010BD012010BD2DE931
:1001D000FC47002517880646158090F82D00144628
:1001E000894630B13A462146484600F07FFE050078
:1001F00009D1B0784FF00C0A18B32088C846001D0A
:10020000B84202D95046BDE8FC87684679DF00282D
:10021000F9D12088032108F8001020881921401CFA
:1002200080B2208008F800102088401C80B2208016
:1002300000EB0801BDF8000007F0FDFB2188084431
:100240002080F0780222C8B1218896F9033001F1AC
:10025000030C4846BC45D5D8425421884FF0010CC8
:10026000491C89B2218000F801C02188491C89B24B
:10027000218009F801302088401C20807068B8B1C6
:10028000218890F9003001F1030C4846BC45B9D8EB
:10029000425421880A22491C89B221804254218873
:1002A000491C89B2218009F801302088401C208037
:1002B000308950B1CDE900474B460622022106F1B4
:1002C000080007F011FC05009DD1308A50B1CDE93E
:1002D00000474B460722032106F1100007F004FCFB
:1002E000050090D1308B50B1CDE900474B46152227
:1002F000142106F1180007F0F7FB050083D1306ADE
:1003000030B13B462246494601F024FC0500DBD1D2
:10031000706A30B13B462246494603F001FB0500B6
:10032000D2D196F82C0038B13B4622464946304699
:1003300006F05CFD0500C7D1307838B13B46224657
:100340004946304603F01EFB0500BDD128465AE75A
:10035000134A0021535C0BB1012203E0491C06291A
:10036000F8D300220F49012806D0022809D003281B
:100370000CD0042812D10DE0487810B10AB1012048
:100380007047887810B10AB102207047C87808B168
:1003900003207047087908B1042070470020704797
:1003A000952100207024002010B501220221002098
:1003B00001F0FAF808B1072810D107220221012024
:1003C00001F0F2F808B1072808D100210A220846F6
:1003D00001F0EAF808B1072800D1002010BD0000A4
:1003E00010B5A6B0382101A8FFF73FF802208DF81C
:1003F000040001248DF8064006208DF807001348FC
:100400000690ADF81440382117A8FFF72EF80F48D2
:10041000ADF86C40001D1C9020210FA8FFF725F8B7
:100420004FF4967013908DF83F40B4201490002044
:1004300001460090064B0FAA01A800F06FFA0028B1
:1004400001D000F0B3F826B010BD00003A21002022
:10045000994B020070B58CB015460E4600236C46D1
:10046000C3F10F01415CE1545B1C102BF8D30D214B
:1004700004F11000FEF7F9FF0020C0F10F02315C1B
:100480002244401C11740328F7D3684643DF002040
:10049000C0F10F01214491F820102954401C032879
:1004A000F6D30CB070BD0000064800684FF4002180
:1004B000044A8143121D1160111D00F400200860E0
:1004C000704700000405005070B50024064D06E09A
:1004D0006868012110F8340003F02CFE641C2878B1
:1004E0008442F5D3002070BD08220020F8B51546DF
:1004F0000C460646052A01D20720F8BD03F000FF8E
:1005000018B903F0CFFE0028F7D1104900204E6043
:100510000C70C1E902500E4D08610DE006EBC400FD
:100520006968009181788DF801100078094A694660
:1005300003F052FE0028E0D1641EE4B2EED2BDE822
:10054000F840054A0021024800F03CB8082200208B
:10055000F07F0200E92A0200151D02000BA1012014
:1005600004F024FA04F07CF904F07EF90028FBD1B1
:1005700000BEBFF34F8F0B4801680B4A01F4E061E6
:1005800011430160BFF34F8F00BFFDE74150505F43
:100590004552524F523A4552524F523A4661746157
:1005A0006C0D0A000CED00E00400FA050EB5002108
:1005B0000091CDE901106A4644F20100FFF7CEFF39
:1005C0000EBD0000074B5B6823B12AB120B1006863
:1005D000037C1BB1082070470720704741744261BB
:1005E000002070472C2200202DE9F047074698464E
:1005F0001446894690074FF0000526D12CB306F02B
:100600006DF8134E06F11000C6F80C8005704570A9
:1006100080F8029044607560357075701420FFF7A3
:100620007FF806211420FFF7B2F81420FFF78EF8A8
:100630000848076006211120FFF7A9F80548001FA8
:100640000068B0600020BDE8F0870720FBE70000ED
:100650001C220020081501402DE9FC47DFF87890A6
:10066000D9F8043073B368B3052902D20720BDE876
:10067000FC87436933B3437C012B25D00027044614
:100680000025884616468DF80050684600F038F878
:1006900001A807F011FAC8B1012101700F494460A7
:1006A0000968C0E90218C0E904769DF8040089F8D9
:1006B00001009DF8000000F047F81420FFF75CF8F7
:1006C0002846D4E70820D2E70F46D8E704259DF84E
:1006D000000000F039F8F3E72C2200200415014057
:1006E0000649496839B130B1416921B1002101742D
:1006F000022106F0F5BF0820704700002C220020E0
:1007000030B5EFF3108172B60D4A9468012324B11D
:100710000370002900D162B630BD93604FF0E02332
:10072000D3F88051074C25401560C3F88041D3F8B9
:10073000844154605A17C3F8842100220270E8E70C
:10074000B02C0020FC06FFBC0B498A68002A11D09F
:1007500000280FD1EFF3108072B60B684FF0E02243
:10076000C2F800314B68C2F8043100228A600028C8
:1007700000D162B670470000B02C00202DE9F04196
:1007800005460878214F012606FA00F00C4638602D
:10079000086803F0E1FE0021606803F0D4FE2879C8
:1007A0001B4901EB4010A169007F00282868C0F8B0
:1007B000241519D0607D217D2A680843C2F86C0594
:1007C00018E00021A06803F0BEFE207B86403E605A
:1007D000E06803F0C1FED4E902122868C0F80825D9
:1007E000C0F81015BDE8F081607D227D29681043B6
:1007F000C1F86C05D4E900122868C0F80C15C0F8DF
:100800001425207D0128DCD0ECE70000080500500D
:10081000702C00202DE9F043044687B0008800F0DA
:1008200001FB8146208802F0D3FB214F8046667A87
:10083000208800223978A56800F042FBB9F1000F4A
:1008400033D06079400711D50721404604F0EAFD16
:10085000A0B108218DF80C1021880590ADF80E107C
:10086000ADF8108003A801F053FB07E02088B978A9
:1008700000F012FB10B1404602F096FB03208DF809
:1008800000002088ADF802006079C0F380008DF888
:100890000400A079C0F380008DF805008DF80650A3
:1008A0008DF80760684601F033FB07B0BDE8F083C0
:1008B000DC210020F0B50C4693B01F210726ADF8CF
:1008C0000010ADF80410002750B1C17849070DD5CC
:1008D0006A4602A9FFF77BFC002808D102AD02E0BE
:1008E0000025ADF800706CB1E07810B1304613B05F
:1008F000F0BD01AA0AA92046FFF769FC0028F6D13D
:100900000AAA02E00022ADF80470BDF80400C3B2E8
:10091000BDF80000C1B2284672DFE8E72DE9F047D4
:100920001F46DDF8208013468946040042D0EBB311
:10093000404D012000262870EE70202219463E48C6
:10094000FEF77AFDC5E904784FF6FF702881AE61A5
:100950003948AE83AE7738212030FEF786FD364821
:10096000217820300170A1788170E178C1706178C0
:1009700041703149D4E90423C1E90C23D4E90223AD
:10098000C1E90A23D4E90623C1E90E23616AE1B172
:1009900000F1380100F1440241628A60636A1B88F9
:1009A0000B80616A436A8988998000E002E0002137
:1009B000436A07E00E20BDE8F087656AAD686D5CAC
:1009C0005554491C9D888D42F7D8A16AD9B11A4A5D
:1009D0009032A2F10C018A608162A36A9B888B80AD
:1009E000A16A836A098819800021836A04E0A56AE4
:1009F000AD686D5C5554491C9D888D42F7D894F8BC
:100A00002C1080F82C10216A49B10A490A31016280
:100A1000226A52884A80216A026A098811806168C4
:100A200001B141604946BDE8F04703482030FFF777
:100A300041BF00007C2100207024002010B50188F7
:100A4000144C102918D011291CD01B2919D1007A57
:100A5000002816D1E0780521401CB0FBF1F201FB23
:100A6000120000BF00F050F800280AD06169002988
:100A700007D0BDE810400847C17B012901D180881B
:100A8000208110BD00216171808821898842F8D1C0
:100A90000120E7E77C21002010B5022801D00328BF
:100AA00010D1094C607800280CD000206070E078EC
:100AB00000F02AF8002805D06169002902D0BDE8BD
:100AC0001040084710BD00007C21002010B574DFE5
:100AD0000B4C01200B4960710020E0710620C870AA
:100AE00000210848FFF7E6FE002807D1E07800F073
:100AF0000BF810B1616901B18847002010BD0000FA
:100B00007C210020902400202DE9F0413D4C8046BE
:100B100086B0207848B184F8038004A801F02AFD4B
:100B20000498012628B1667067E0082006B0BDE889
:100B3000F0810025A561344FA583A577787810B1A1
:100B4000E078012806D0B87858B1E078012801D0C3
:100B5000022806D1216919B126710820884700E0D2
:100B600025714046FFF7F4FBE070216939B1032895
:100B700001D0042803D1387808B1607990B1A5710B
:100B800000950295019503958DF800508DF8085059
:100B90001C48E1781830052925D2DFE801F030083B
:100BA000111D2100E571A67107208847E8E7A670AE
:100BB00001908DF80060ADF80C50ADF80A5014E0CB
:100BC0000221A17001908DF80060B889ADF80C0089
:100BD0003889ADF80A0008E0684606F0A5F902E099
:100BE000684606F0C5F9E07818B1684673DF00285A
:100BF0009CD1216909B1A0788847002096E7A570AB
:100C0000F7E700007C2100207024002070B5054625
:100C100001461C220F48FEF70FFC0F4C00262670E1
:100C2000286830B1016861604068A060201D7ADFEB
:100C300002E00948001D7BDF00280AD14FF6FF7053
:100C400060806670BDE87040044A00210448FFF7E8
:100C5000B9BC70BD2024002068210020417A020028
:100C60003C7F020070B51E4C068800231B49E289B8
:100C7000102E15D01B4D112E1CD0122E29D0502E07
:100C800017D130F8061F914213D14189022910D1A2
:100C90000C3000F057FB88B1BDE8704000F0A0BFF9
:100CA00084884C800469CC60406908614B70002ADC
:100CB000F2D070BD4FF6FF7048804B702868FFF788
:100CC0000FFD0028F5D0A1690029F2D0BDE87040E1
:100CD00008478268CA60C0680861DDE768210020B3
:100CE000202400203C7F020002490A7D091D05F0F6
:100CF00097BE00003C24002002460248C17D001D32
:100D000005F07BBE3C24002002460248017E001D07
:100D100005F073BE3C2400202DE9F047044603880B
:100D20003F4801228CB000F1150A102B09D0112B7D
:100D300055D01A2B71D1217AB2EB111F54D2012355
:100D400053E0027D417D05468A43011D06A805F05A
:100D500067FE142206A901A8FEF76EFBDFF8C0901B
:100D60000026374609F114090DF104080AE000BF16
:100D700008EB46001D2283884946281D009705F090
:100D800001FE761C0198B042F2D8287DA688C043A7
:100D9000C0B205F019FEA0F57F41FF3917D005EB71
:100DA00040000123868032465146281D05F05DFE35
:100DB000012332464946281D05F057FEE07B0228F4
:100DC0000BD000231649A2881631281D20E00CB054
:100DD0000420BDE8F047FFF7E9BB0123F2E7002359
:100DE000A2885146001D13E000230D490546A28844
:100DF0001731001D05F039FE207A0221B1EB101FDA
:100E000001D2012300E000230549A2881831281DE2
:100E10000CB0BDE8F04705F028BE0CB0BDE8F08787
:100E20003C24002070B50A4E05460024317D2A4638
:100E3000301D05F0E2FD40B1B17D2A46301D05F0C0
:100E4000DCFD08B1022400E00124204670BD000052
:100E50003C24002010B50024204606F021FE28B1D5
:100E6000641CE4B2182CF7D3182010BD03480122EB
:100E7000A240016811430160204610BD3C240020BF
:100E800010B5044606F00CFE002802D001482044AC
:100E9000407E10BD3C24002070B505460C46084637
:100EA00006F0FEFD002808D004482A460119001D5E
:100EB000497EBDE8704005F0A0BD70BD3C24002017
:100EC00070B5064615460C46084606F0E9FD0028B2
:100ED00009D005482B4601193246BDE87040001D77
:100EE000193105F0C2BD70BD3C2400207CB505461B
:100EF00008880C460930904201D90C207CBD684618
:100F00006DDF0028FAD121880820685420881B2131
:100F1000401C80B2208029542088401C80B2208050
:100F20002844DDF801100160BDF80510818020889B
:100F3000801D80B220809DF80010490800D001215A
:100F400029542088401C208000207CBD087800287F
:100F500009D0012805D0022801D005A104E00EA186
:100F600002E019A100E024A1032003F01FBD00004E
:100F70004150503A494E464F3A556E6B6E6F776E00
:100F8000206576656E742066726F6D20626C655F99
:100F90006466750D0A0000004150503A494E464FB4
:100FA0003A496E6469636174696F6E20666F72207E
:100FB000424C455F44465520697320646973616201
:100FC0006C65640D0A0000004150503A494E464F8E
:100FD0003A496E6469636174696F6E20666F72204E
:100FE000424C455F44465520697320656E61626CD2
:100FF00065640D0A000000004150503A494E464FCA
:101000003A44657669636520697320656E7465721C
:10101000696E6720626F6F746C6F61646572206DBA
:101020006F6465210D0A000030B51A4B0D460400AF
:101030000FCB85B08DE80F002AD04DB3164821465E
:1010400004604FF6FF70A0802868206100202075A2
:10105000A073684663DF002818D120788DF812004D
:101060000120ADF81000A21C04A9A0DF00280DD1BA
:101070002946204605F0D6FB002807D1012002F0C2
:1010800007FE002802D102F0EFFE002005B030BDBF
:101090000E20FBE7D07F0200F821002038B50028A1
:1010A00024D0002922D00A88102A1DD0112A1ED04F
:1010B000502A33D0512A19D18A8883889A4215D16F
:1010C00011F8062F022A11D14A88C3889A420DD1FD
:1010D0000A7A042A0AD0062A08D0052A06D0BDE8D2
:1010E0003840891C03F00ABE8988818038BD828817
:1010F00089888A42FAD14FF6FF718180007D0028ED
:10110000F4D0BFF34F8F13480168134A01F4E06134
:1011100011430160BFF34F8F00BFFDE7044631F874
:10112000060F62899042E1D148890228DED101F19F
:101130000C0000F007F9A0732269002AD6D008B18C
:10114000012000E002208DF800006946204690470B
:1011500038BD00000CED00E00400FA0510B50446AF
:10116000FFF7DAFD204604F04FFE2046FFF77AFD38
:10117000204600F04BF9204603F032FD2046FFF7F1
:101180005DFC21460448FFF789FF21460248BDE87F
:101190001040183000F098B8682300200878002824
:1011A00009D0012803D0022803D005A104E00FA133
:1011B00002E018A100E021A1032003F0F7BB00002A
:1011C0004150503A494E464F3A556E6B6E6F776EAE
:1011D000206576656E742066726F6D20626C655F47
:1011E0006861707469630D0A000000004150503A54
:1011F000494E464F3A456E61626C6520424C45202F
:1012000048617074696320736572766963650D0A5D
:10121000000000004150503A494E464F3A4469732D
:1012200061626C6520424C4520486170746963209E
:10123000736572766963650D0A0000004150503A8B
:10124000494E464F3A424C452048617074696320CC
:1012500073656E642072756D626C65206D65737365
:101260006167650D0A00000030B5154B0D4604009E
:101270000FCB85B08DE80F001FD0F5B11148214686
:1012800004604FF6FF70A080286820610020A071E4
:10129000684663DF00280ED120788DF81200012007
:1012A000ADF81000A21C04A9A0DF002803D1294634
:1012B000204605F031FA05B030BD0E20FBE70000F6
:1012C000F07E02004421002038B500281BD0002900
:1012D00019D00A88102A0DD0112A0DD0502A12D107
:1012E00004468D1DC888A18988421DD169890229BB
:1012F0000AD019E0898805E0828889888A4202D16B
:101300004FF6FF71818038BD05F10C0000F01AF82E
:10131000A071226942B108B1012000E002208DF8DD
:101320000000694620469047288821898842EAD1F2
:1013300022692046002AE6D000218DF80010694677
:10134000904738BD007800F00100704700B518489C
:1013500089B00023006807905022164907A806F0BC
:101360000FF908B1FFF722F96A460121002006F0C3
:10137000F1F808B1FFF71AF90220ADF800001720C4
:10138000ADF81000684606F077F808B1FFF70EF9DF
:10139000094806F067F808B1FFF708F9074806F0B2
:1013A00027F9002801D0FFF701F909B000BD0000BE
:1013B000EC7E0200182300205D1102000576020079
:1013C0007CB5114E0C004FF00005306015D0694619
:1013D000002000F0B1F8002815D101A9012000F08B
:1013E000ABF800280FD19DF8041009B1022003E0EA
:1013F0009DF8001001B10B202070706810B9FEF745
:10140000D3FF054628467CBD6021002010B51A4C4C
:101410000188606810290ED011292BD1401E606010
:1014200028D1FEF7C1FF002824D02168002921D04F
:10143000BDE810400847D0B900210122084600F05D
:10144000B3F808B107280FD107220221012000F0CC
:10145000ABF808B1072807D104220221002000F0D0
:10146000A3F820B1072802D0216801B1884760683D
:10147000401C606010BD00006021002010B50320FA
:1014800000F024FA08B1062800D1002010BD0000A9
:101490002DE9F04707460024244802E0641C042C90
:1014A00041D250F82420BA42F8D1042C3BD21F4834
:1014B000DFF87C901F4E0C38A9F1140841B30129C4
:1014C0000FD002292FD104EB440030444578002D81
:1014D00029D0D8F81010002925D02846BDE8F047BB
:1014E000084704EB4401755C0E44717861B1D8F88B
:1014F00004100F4A01EB81014900133A8068FFF79D
:10150000ABF808B988F80170B17809F80410DEE783
:101510008068FFF7E5F804EB4401314419F8040052
:101520008D78A842D3D0BDE8F08700000C7F020080
:101530005C210020D423002004280CD2074A126822
:10154000074B13F8203001209840904300D0012031
:101550000870002070470020FAE7000010050050D6
:101560000C7F020001460F4810B50088042907D0FF
:1015700007290ED00A2914D1BDE8104005F01ABD84
:10158000132176DF0BE000280BD0BDE81040FFF7F9
:101590000DB8A0F57F41FF3903D1FFF797FA08286E
:1015A000F1D110BD3821002070B50023042810D2DD
:1015B0000D4D00EB4004012A02D101290CD000227C
:1015C000094E00EB4000304461B1012906D00229E8
:1015D00006D00723184670BD0D30C2B22A55F9E770
:1015E0004270F7E78270F5E7D4230020044A0146F1
:1015F0000020127AD20702D0084600F055B8704792
:101600004821002070B50E462149054600200A6198
:10161000C1E90165A9071BD5002401221146204616
:10162000FFF7C2FF641C042C02D20028F5D00FE0A3
:1016300070B9720804211748FEF758FF40B9FEF749
:1016400043FF28B91348144A00211438FEF7BAFFA3
:10165000E9070AD0114A4FF4F01111600F4B002234
:101660001B1D1A600D4A1032116000280FD1094865
:101670000B4A00211C38FEF7A5FF002807D1BDE862
:10168000704004480121074A1838FEF79BBF70BD1F
:10169000482100201C7F0200951902000805005017
:1016A00019320200A90402002DE9F84F854EDFF837
:1016B00010A24FF4E01CF16807462CEA010C0091DF
:1016C000002071680AF10404251D7F4B4FF400329D
:1016D0004FF4802B01EB810E8146182F16D2DFE8E4
:1016E00007F00C17173A4E607083868F868FEAA03A
:1016F000A0A0A0A0CAD1D8E1EAEA009A4FF4F01164
:1017000091432160C5F8009086F80090BDE8F88FFD
:10171000C4F800C04846C5F80090DAF800C08CF460
:10172000F01C5FEA8C3C09D522602860022F02D1B0
:101730004FF4E16008E04FF47A6005E02A60206031
:10174000022F3CD04FF4C8706422B0FBF2F041434A
:10175000377000225EE0C4F800C04846C5F800902B
:10176000DAF800C08CF4F01C5FEA8C3C04D52260EF
:1017700028604FF44870E7E72A6020601FE0C4F853
:1017800000C04846C5F80090DAF800C08CF4F01CA0
:101790005FEA8C3C02D522602860CCE72A6020609A
:1017A000D0E7C4F800C04846C5F80090DAF800C099
:1017B0008CF4F01C5FEA8C3CDED522602860C820E7
:1017C000C2E7C4F800C04846C5F80090DAF800C087
:1017D0008CF4F01C5FEA8C3C02D52260286001E0AA
:1017E0002A602060377014E0C4F800C04DE0DAF8D9
:1017F00000002BEA0002226000F48020286008E04C
:10180000DAF800002BEA0001216000F48020286053
:10181000714600221868BDE8F84FFEF71DBF216031
:101820002EE098465868FEF75BFFD7F1110100D013
:1018300040B1F16801F4F0112160C5F80090C6F8DC
:101840000C9063E74FF40022F26001290CD9C82004
:1018500011FB00F16420B1FBF0F1706800224143FC
:10186000D8F80400FEF7F8FEF16801F4F0112960E1
:10187000C4F800904AE74FF4F0112160C5F80090D9
:10188000377043E74FF4E01121604946C5F80090F6
:1018900006E04FF4D01121604946C5F800905A4641
:1018A0002A60BCE74FF4C01121604946C5F800909A
:1018B0004FF4C022F4E74FF4F01129604946AEE737
:1018C0000405005048210020007F020070B500216F
:1018D0000C4D012455F82120920002F1A042D2F8CB
:1018E000006704FA01F3034000D0032326F44036D6
:1018F00046EA0343C2F80037491C0429EAD3002012
:1019000070BD00000C7F0200002901DA0020704742
:10191000026811440160012070470000F8B5461CC0
:1019200000208DF8000001256846FEF7E9FE114908
:10193000741CD1E900208F68101A3B1A5B1C9C4272
:101940000FD963B10C480D4B3A4000681B6801EB9E
:10195000820263F39F20D0600868401C0860002565
:1019600001E0901908609DF80000FEF7EDFE2846A2
:10197000F8BD0000403000202C80020064220020CE
:10198000034803C8814201D10120704700207047FD
:101990004030002000780221FFF77ABD05494FF062
:1019A000FF32082841F8202002D3084480F848205C
:1019B00070470000182C0020F0B54FF0FF3512B131
:1019C0000023082601E008230C260C4C05E000BF8C
:1019D00054F823707F1C04D05B1CB342F8D3284614
:1019E000F0BD26185DB286F8305044F82310002A66
:1019F000F5D1E11881F84800F1E70000182C00202B
:101A00000249084490F9300070470000182C00206B
:101A100038B10549814204D80449814201D90120E5
:101A2000704700207047000080220020A022002084
:101A3000044A0168914201D0083101E00149383976
:101A400001607047982D002070B504464FF6FF7571
:101A50000A462846AC4208D14FF48074214610460D
:101A600004F08EF9A04209D070BDFF2CFCD82146AD
:101A7000104604F078F908B1204670BD284670BDC4
:101A800070B5084C050009D010342168002907D032
:101A900008682060496828468847F6E70834F4E774
:101AA00070BD0000042C00202DE9F05F264841683D
:101AB000F1B3DFF898B00E688146DBF80040876824
:101AC0008078E11B21F07F45ED1CB0B9DFF8808004
:101AD0004FF48030C8F84403C8F804031120FDF720
:101AE0001FFE1120FDF732FE4FF0010AC8F800A0DA
:101AF0002F2001F0E9FF89F802A0B54200D2354657
:101B0000124BE8193C3320F07F401860DBF80010DE
:101B10005A46091B21F07F41001B20F07F40C91C61
:101B200081420FD9106818602F2001F0CDFF00E02E
:101B300004E0BDE8F05F1120FDF71EBEBDE8F05FD8
:101B400004F0CCBDBDE8F09F1C220020041501402C
:101B5000001001402DE9F04117880646B81D1446D3
:101B60000D46984202D90C20BDE8F0813188072249
:101B700006290AD34FF4486C4FF6FF73614501D92B
:101B8000994202D17088062801D21046ECE76045E0
:101B900001D99842F9D1994203D0984201D08142AB
:101BA000F3D80520E85520881221401C80B22080FF
:101BB00029542088401C80B220804119308805F0CB
:101BC0003AFF2188084480B220804119708805F0CE
:101BD00032FF2188084420800020C5E7FEF7E6BCDC
:101BE000F8B5134801F0FAFA114D0026114C0C3DDE
:101BF00030B16169B9B101208DF80000684611E08B
:101C0000287820B1616971B18DF80060F6E76878D5
:101C100058B1A168084800220068FEF71DFD10B108
:101C2000A16901B188472E70F8BD6168F2E7000034
:101C300074210020202400203C7F0200F0B54FF0EA
:101C4000FF3622B11268D24300230A4D0DE032461E
:101C5000FAE7C45C62400824D70700D037462F401B
:101C600087EA5202641EF7D15B1C8B42F1D3D0434A
:101C7000F0BD00002083B8ED2DE9FF410C4618B1FE
:101C8000012004B0BDE8F08120790027DFF87C80D6
:101C9000012638B141F61D5501281ED0022829D051
:101CA0000F20EEE702970397E0680190694601A8CC
:101CB00004F04EFC68B102988188E18000882081A0
:101CC000029804F0B9FCBDF8002008EB02118E73F5
:101CD00000E00A2002212171D3E70D4B6A46002162
:101CE000A01D04F0F1FB38B1094908398F60CF60BD
:101CF0000A28C6D12846C4E7019804F09DFC04498F
:101D00008A8808EB02118E73F2E70000A82D0020EC
:101D1000442200202DE9F04100260125144C22E048
:101D20006068226900EBC607387805FA00F11142B5
:101D300017D08A43226102F0ABFA02463878E36892
:101D400005FA00F1194002FA00F3994209D17978B5
:101D5000012901D0012100E0002151407A6802B13F
:101D60009047761CF6B220788642D9D3BDE8F08140
:101D700008220020044A09B9002313705268002A7F
:101D800000D0104770470000FC2100200E4910B51C
:101D90000A784C780023A24212D0521CD2B20A70A8
:101DA000022A00D10B70084A0B78183252F823200F
:101DB00002608868104420F07F408860012010BDD8
:101DC0000360002010BD00001C2200203EB5094D1C
:101DD00038CD8DE83800ADF8041007498DF806209D
:101DE000ADF8020000220978FFF76AF8684600F0B3
:101DF0008FF83EBDC07F0200DC21002010B50378C3
:101E00000022072B06D2DFE803F00504060C1C2590
:101E10002B000A7010BD01220A7002898A81828813
:101E200014E002220A7002898A818288CA81C2680B
:101E30008A60007C062802D00020087410BD0120B2
:101E4000FBE703220A70C2888A810289CA81C068BE
:101E5000886010BD04230B70C0888881CA8110BDC2
:101E60000520087010BD000070B5064D0646002420
:101E700055F8241009B130468847641C082CF7D364
:101E800070BD0000C82C00200EB5002911D011290A
:101E90000FD0002200920292ADF8020001910D29AC
:101EA00008D0042908D009208DF80000684600F009
:101EB0003DF80EBD0B20F7E70A20F5E70149096858
:101EC00008470000A421002070B5054D06460024F7
:101ED000304655F824108847641C022CF8D370BD96
:101EE000587F02002DE9F04107460024064E074DB9
:101EF00005E000BF56F8241038468847641CE8788F
:101F00008442F7DBBDE8F08100290020CC210020CD
:101F100070B5054D06460024304655F82410884714
:101F2000641C022CF8D370BD887F02000149096847
:101F300008470000CC7F02007FB50446406858B1D6
:101F40000020039020780026384D06285DD2DFE877
:101F500000F05C05052641690120F2E7A08900F048
:101F6000B3F918B9E08904F079FB80B3A089A0F532
:101F70004040ADF80200A07B8DF8040020780128D5
:101F8000606806D048B104208DF8000060680390B6
:101F90001AE00028F8D00320F6E70120F4E7A08932
:101FA00000F092F918B9E08904F058FB78B1A089E3
:101FB000A0F54040ADF80200A07B8DF804006068F9
:101FC00030B105208DF80000A06802901AE01CE0F6
:101FD0000220F7E7A08900F077F9B0B1E089A0B955
:101FE000A089FF21A0F5404080B2ADF802008DF835
:101FF0000410616881B107208DF800006E70AE702A
:1020000003F0CEFB684603F0A3FA6878002802D0FC
:102010006E7003F0C5FB7FBD06218DF8001003F044
:102020004DFCEBE708208DF80000EBE7B82100201D
:1020300000B5114987B00978890702D4022007B09A
:1020400000BDA0F57F41FF3911D005218DF80010AA
:1020500001218DF80410ADF80600002211466846F3
:1020600002F0D6FE28B104F009FA0020E7E70420C8
:10207000E5E70820E3E700003C22002000B50E4819
:1020800087B00078800702D4022007B000BD062088
:102090008DF8000000221146684602F0B9FE40B1FA
:1020A0000648017809B10121017304F0E7F9002025
:1020B000EBE70820E9E700003C220020C82D0020C3
:1020C00000B58DB014216846FDF7CFF91E480078A1
:1020D000810703D56846FFF7C7FE33E0C00731D15B
:1020E000012000F015F900F0EDF902F02DFF70B1BC
:1020F00006280FD001218DF814100C281BD2DFE820
:1021000000F01A101A101A181A181A1216120B20A8
:102110000DB000BD022000F0FBF8012000F0DEF859
:10212000D8E7002000E003208DF8180003E002202B
:10213000FAE78DF818100022114605A802F068FE93
:1021400004F09CF90020E3E73C22002038B50400AD
:1021500011D0694604F0FCF988B10A48BDF80010B6
:1021600000EB0110818941B1A27A32B1491E81810F
:102170000020A07238BD052038BD062038BD0A20D9
:1021800038BD0000A82D00201FB501A9684604F045
:102190009BF904B010BD07B513460A4669460020F6
:1021A00004F092F90EBD07B513460A4600216846B1
:1021B00004F08AF90EBD20B119B100680860002052
:1021C000704705207047000038B50D46040015D053
:1021D000A5B1694604F0BCF990B10A49BDF80020E8
:1021E000606801EB02129189491C91812860606846
:1021F0000C3068600120A072002038BD052038BD79
:102200000A2038BDA82D002018B10323002205F0B4
:1022100033BD052070470223002205F02DBD12B109
:10222000022305F029BD052070470000064A5178B9
:10223000082906D0054B43F82100491C51700020A5
:1022400070470C20704700003C220020C82C002062
:1022500038B504460A480D460078800701D40220AC
:1022600038BD54B16946284605F016FE0028F7D15E
:10227000BDF800102180658038BD052038BD000004
:102280003C22002010B504460D480078800701D498
:10229000022010BD84B1218802290FD8094800EB23
:1022A000011042896088121A032A07D405F0EAFD5A
:1022B00000202080608010BD052010BD042010BDCE
:1022C0003C220020A82D002043F6FE71A0F54040DE
:1022D000884201D8012070470020704702490A78DF
:1022E00082430A70704700003C22002010B504466B
:1022F0000078182802D1FEF7ADFD207010BD10B592
:1023000004460078182802D1FEF7A4FD207010BD05
:1023100002490A7802430A70704700003C220020FC
:1023200070B51346002206461546042905D011292A
:1023300001D019B170BD012500E001220D4C73B12F
:102340006179FEF7BDFD2A4621793046FEF7B8FDDA
:10235000002261783046FEF7B3FD002203E0617889
:10236000FEF7AEFD2A4621783046BDE87040FEF704
:10237000A7BD0000E021002010B5080003D0BDE893
:102380001040FEF713B9074807A1826D032002F041
:1023900033FB104C13212068808876DF21680120F0
:1023A000087510BDA82A00203A494E464F3A4F62A0
:1023B0007461696E65642073657474696E67732CEB
:1023C00020656E74657220646675206973202564CB
:1023D0000A000000F8210020F8B506461A481F46FA
:1023E000154600780C46C00708D03046FFF710FBB2
:1023F00030B13CB1200507D00620F8BD0120F8BD62
:102400000220F8BD0320F8BD3068A04204D87168EE
:1024100004EB0530884201D90520F8BD7DB168463E
:1024200003F07AFF68B100980221C0E900670172E9
:10243000210B8181058204F031F80020F8BD0420D1
:10244000F8BD0720F8BD000054220020084603F024
:102450007FBF000070B50E4C06460D00206820F0CE
:10246000010020600FD00BA1032002F09FFA20682A
:1024700040F0020020607268002A07D029463046EA
:10248000BDE87040104720F00200F3E770BD000087
:10249000042200203A494E464F3A47656E65726104
:1024A00074696E67206661696C7572650D0A00005B
:1024B0000348017841F001010170002070470000DD
:1024C000542200202DE9F0472748284C4FF01021D6
:1024D000001B0209496910464B1C03D14FF0805183
:1024E00049690903DFF888A09AF80070FB0702D059
:1024F0000020BDE8F0870023A14607E009EB0314A4
:10250000256815B1646804B1401E5B1C9342F5D385
:10251000002422E0002504F0FF0C2B4613E000BF4E
:1025200009EB0316D6F80080B8F1000F04D0D6F8F6
:102530000480B8F1000F05D1767BAE4202D9354652
:1025400003F0FF0C5B1C9342EAD309EB0C13641CF1
:1025500059601D7BA1EB053119608442DAD347F045
:1025600001018AF80010C3E7A02200208022002089
:102570005422002020B10349496E016000207047B9
:1025800003207047D82D00202DE9F84307461D4849
:10259000DDF820801E46007815460C46C0070CD09A
:1025A0003846FFF735FA50B15DB154B145EA040041
:1025B000800708D00620BDE8F8830120FBE7022051
:1025C000F9E70320F7E73868A04204D8786804EBFD
:1025D0008601884201D20520EDE77EB1684603F00E
:1025E0009BFE68B100980121C0E900780172C0E942
:1025F0000354868203F052FF0020DCE70420DAE770
:102600000720D8E75422002070B5174A174904461E
:10261000106E0B7800EB400002EBC0009D0715D553
:10262000022C02D0032C1BD102E002F0C7FB17E002
:102630004A78521CD2B24A70032A11D900224A7039
:10264000082104F0E7FA03F051FE09E0580707D526
:1026500023F004000870526E12B140F002000870BE
:10266000BDE8704003F0D2BED82D002054220020D7
:1026700070B508B1012070BD184C0025207B08B151
:10268000257301E000F0A2F82078082824D2DFE8C2
:1026900000F02304080C1023141EBDE8704000F065
:1026A0001FB8BDE8704000F07FB8BDE8704000F092
:1026B00061B8BDE8704000F037B80849608820393B
:1026C00001EB00104068BDE8704002F01DBC656081
:1026D000BDE8704002F026BC0F2070BDC82D002060
:1026E0001049F0B48A1C00200346A1F120050C1803
:1026F000A67A3EB1A37205EB0014A68916B9A47B95
:10270000012C0AD0401C80B20228F0D30B704B8001
:102710004B60F0BC41F61D5070471080F0BC00F0DB
:1027200043B80000C82D002010B50F4CA4F12001C3
:10273000608801EB0010818961B1052020700B4891
:102740000221002381800168BDE810400122084871
:10275000FFF742BE4168002301220548FFF73CFE17
:102760000421217010BD0000C82D00204C22002043
:102770009022002038B50A49084803240B684268B3
:10278000898803EB8101538804700020DB1C0090D2
:102790009BB20448FFF7F8FE38BD0000C82D0020AA
:1027A0004C22002090220020074910B54888091DBE
:1027B00003F01CFF18B1BDE81040FFF7DBBFBDE818
:1027C0001040FFF7B1BF0000C82D0020F0B51D4834
:1027D0001D490125067802248B88A0F12002082ECD
:1027E00018D2DFE806F00417171A212C2C160189DD
:1027F000491C01810021418080F80C1002EB01137B
:102800001B7843B100234418491C89B2A3720229E2
:10281000F4D30570F0BD0123F5E742685288D21C5D
:102820001A448A800470F0BD46880D6802EB0612D7
:1028300056680E60556013818C80062100E00721E8
:102840000170F0BDC82D00204C220020F0B50446D8
:102850000088384D8DB050281ED0522802D0542800
:1028600028D103E0A08800F015FF23E006208DF8B2
:102870001400A08800F0ACFBADF81600A188ADF8FC
:10288000181000F05DF9A0880022E978FEF718FB27
:1028900005A8FFF713FB0DE0207B01280AD1A07AE1
:1028A000012807D12089A0F52451023902D1A0883E
:1028B00000F02AFFA878FEF7E3FAC8B108A8FEF7EF
:1028C00013FA142208A96846FCF7B6FD00246E46E8
:1028D0000BE000BF06EB4407A978B888FEF7DCFAE6
:1028E00010B1B88800F0D6FE641C0098A042F1D860
:1028F0006878FEF7C5FAC8B108A8FEF7F5F9142202
:1029000008A96846FCF798FD00246E460BE000BF5E
:1029100006EB44076978B888FEF7BEFA10B1B888AC
:1029200000F0F2FE641C0098A042F1D804F0C6F951
:102930000DB0F0BD9C2100203EB504464088ADF8A6
:1029400002002078A8B101281FD0022810D12079D8
:1029500000280DD0608800F07BFAA0F57F41FF3998
:1029600006D00F490122C978FEF7AAFA04F0A6F9A9
:102970003EBD00208DF800006846FFF79FFA608892
:1029800000F066FA00F086FE3EBD01208DF80000E2
:10299000A088ADF804006846FFF790FA3EBD00003D
:1029A0009C21002010B50446007801280FD16088D2
:1029B00000F070FE608800F089F9002807D0044913
:1029C00060880122C978BDE81040FEF779BA10BDD1
:1029D0009C21002010B5104C00202070FEF73AFA20
:1029E0006070FEF737FAA070FEF734FAE070FEF779
:1029F00031FA2071617818290BD0A178182908D0F4
:102A0000E178182905D0182803D001202070002073
:102A100010BD032010BD00009C2100202DE9F041D5
:102A200086B000F0A5F86846FEF75EF900246D4612
:102A30004FF6FF77DFF834800FE000BF05EB440668
:102A4000B08800F0C5FAB84205D1B088012298F8E4
:102A50000310FEF735FA641CA4B20098A042EDD82A
:102A600004F02CF906B0BDE8F08100009C210020A4
:102A70000178072902D1408800F046BE7047000067
:102A800010B504460A4841782046FEF705FA68B1B9
:102A90000848002101EB410200EB82025288A24269
:102AA00001D1C8B210BD491C0829F3D3FF2010BDC5
:102AB000B42100202025002070B5094D094E0024C6
:102AC00004EB440005EB800071784088FEF7E4F9E0
:102AD00020B1641C082CF3D3FF2070BDE0B270BDA0
:102AE00020250020B42100202DE9F041124E074698
:102AF0000125BD403068FDF7F3FD00280DD10F4CD6
:102B00002069284207D1384601F0C2FB0028E0685E
:102B100005D0284304E0A8432061BDE8F081A84324
:102B2000E060206928432061A1683068BDE8F04179
:102B30000022FDF791BD0000F07F02000822002076
:102B40001CB5054AD2E90212CDE9001200226946FD
:102B500002F0CBFB1CBD0000447F020003484FF68F
:102B6000FF7181800121017000207047A8210020A1
:102B700010B54FF6FF7002F0EFFA03498880BDE808
:102B8000104004F0C7B80000A82100202DE9FC4146
:102B9000804600F01DFA002403250127A0F57F419F
:102BA0002646FF3908D06A46082102F079FB18B999
:102BB0000198841D8688056832462B46214640468A
:102BC000A9DF042804D0082804D00B2808D002E08C
:102BD000112000E00020002F00D10B20BDE8FC8177
:102BE0000027A80701D50125E6E73443F5D00024E6
:102BF00026460325E0E72DE9FC41804600F0E8F990
:102C00000746A0F57F40FF380ED001252A466D1CEF
:102C10000026ADB26B460821384602F06BFB04007B
:102C200006D0072C24D024E043F20200BDE8FC814A
:102C3000019903230A1D0B604046891DAADF040089
:102C400004D00C2C08D0052C08D008E00821384608
:102C500002F0E8FB04460CE0012600E00024082115
:102C6000384602F0CBFB00B10324002ECED100E0A9
:102C70000C242046DAE700001FB50446007801283E
:102C800015D12079012812D1608802AA012102F011
:102C900007FB60B902208DF800006088ADF80200E3
:102CA000094901208DF804000968684688470648EC
:102CB00008388088A0F57F41FF3903D0BDE81F4068
:102CC00004F028B81FBD0000B02100201CB500F0A2
:102CD0007FF96A46012102F0E3FA08B100201CBD29
:102CE000019800781CBD00002DE9F041084C074612
:102CF0004FF6FF7643F20305324661883846A7DF78
:102D0000A84203D16088401C6080F5E7BDE8F081EF
:102D1000A82100208188A1F57F42FF3A03D00088D6
:102D200008B101207047002070473EB502780223A9
:102D30000C46B3EB520F17D1B0F80110ADF80010EC
:102D4000C1788DF802108188ADF8041080798DF873
:102D5000060002AA01A92046FDF77CFB032202A976
:102D60006846FCF794FB08B100203EBD01203EBD43
:102D700010B50C46FFF784FEFF280CD0074900EB86
:102D8000400001EB8000416821600189A180807AC8
:102D9000A071002010BD052010BD000020250020DE
:102DA00070B5018890B010294FD1011D34226846BA
:102DB000FCF742FB9DF804004FF6FF7603213446F2
:102DC0006D46B1EB500F2AD002F02AFC9DF80400AA
:102DD00040080ED001280CD0022820D118E00F990D
:102DE000281D1131FDF7E0F918B100BFBDF83440DE
:102DF00015E00EAA0DA9072002F0EAFB0028EED18B
:102E00000DE00F99281D491CFFF78FFF0028EDD119
:102E10000EAA0DA9072002F0DBFB0028F1D1BDF8B6
:102E20000000291D00F0FCFDB4420ED0BDF80000EA
:102E3000214600F07EF8BDF80000ADF83600012014
:102E40008DF834000DA8FFF73FF810B070BD0000FA
:102E5000094A002101EB410332F82330834205D1B6
:102E600001EB410002EB800040887047491C0829B3
:102E7000F0D34FF6FF7070472025002010B50D4CA1
:102E800018200D4A607000204FF6FF7100EB4003E0
:102E900002EB8303401C59800828F7D3FDF7DAFFC3
:102EA0006070182803D001202070002010BD03207E
:102EB00010BD0000B42100202025002070B504467C
:102EC0000D46401C00F098F900280ED01022691C15
:102ED000601CFCF7DCFA48B15FF0000605F1110157
:102EE00004F11100FDF760F9304370BD0126F5E7EC
:102EF000018811B9421892780AB101207047491C23
:102F00000829F7D30020704710B50C460346FFF799
:102F1000EFFF00280AD018882188884205D10822AE
:102F2000A11C981CFCF7B3FA08B1002010BD0120C9
:102F300010BD02F017BD10B50446007888B0002817
:102F400028D12079072825D1608801AA072102F01D
:102F5000A7F900281ED102F063FB1DE06088BDF8D0
:102F60000010884218D004990298FFF7A7FF98B183
:102F70006088FFF76DFFADF8160000208DF8140093
:102F80006088ADF81800BDF80000ADF81A0005A87B
:102F9000FEF79AFF08B010BD03AA6946072002F0A9
:102FA00017FB0028DAD1F5E770B50446FFF750FFAC
:102FB0000546204602F077F94FF6FF7104468D4230
:102FC00003D014B9284602F0CDFC204670BD0000A5
:102FD00010B5FFF755FDFF2805D0044900EB400070
:102FE00031F8200010BD4FF6FF7010BD20250020E5
:102FF0003EB5044602F014FB0EE00199204646312E
:10300000FFF782FF28B9019920462A31FFF77CFF9C
:1030100010B1BDF808003EBD6A4602A9072002F0C3
:10302000D7FA0028E9D14FF6FF703EBD2DE9F041F7
:103030000F4628B10120FFF751F90120BDE8F081CA
:10304000397961B10026264D01290DD0254C4FF06C
:1030500002080229206822D003293CD128E001F08F
:1030600061FF0121397134E05FF0000005EB0011D0
:10307000097802290CD0401C80B20228F6D3022025
:10308000FFF746F90120FFF729F941F61D50D5E772
:1030900005EB0014606801F037FF267019E0014667
:1030A000002301221048FFF797F9A4F804800FE0ED
:1030B00001F02AFF0A4922682031498805EB0111F5
:1030C0004B6823604A60A2880A81A4F804800E70CD
:1030D0003E710028B2D00120FFF700F90E20ADE7C5
:1030E000A82D00204C22002090220020F8B51C4C76
:1030F0002078002832D0E068002658B1002560789A
:1031000000282BD1684648DF052805D030B1FDF7EF
:103110004DFA0AE00125F2E7012606E0009800F0EA
:10312000D9FF216909B1009888479DB960780028C6
:1031300014D16088ADF800006946A06861DF0528F9
:1031400003D020B1FDF732FA04E0012502E0D4E912
:1031500002018847002ED2D0002DE6D0F8BD000035
:103160006822002070B50E460446007918494FF4D5
:10317000A27501EB4010017F2068A1B14FF4887166
:1031800001F004FD4FF49071206801F0FFFC4FF452
:103190009271206801F0FAFC2946206801F0F6FCE3
:1031A0000C49206809E04FF48E7101F0DEFC2946DD
:1031B000206801F0DAFC08492068C0F80413206890
:1031C00000F0B4FF3146BDE8704000F093BF00004E
:1031D000702C002010030200800002000549408886
:1031E0000A88904204D34988884201D80120704758
:1031F000002070476C2100200021425C0AB10120B0
:103200007047491C1029F8D300207047800701D06F
:1032100000207047012070470348017AC90702D097
:103220000078FEF741BA7047482100202DE9F047A9
:10323000234D81461F46287A0E469046084302D009
:1032400026B1002104E00520BDE8F0871C491031BB
:10325000484604F00BF80446014600224846FFF7B2
:103260005FF81FB121464846FEF70EFE0D2C0DD02B
:1032700005DC5CB1042C17D0082C06D106E0112C1B
:1032800006D0A4F54050023800D003242046DBE7E6
:103290003246E9784846FDF713FE4246A97848468B
:1032A000FDF70EFE0024F1E73246E9784846FDF7C7
:1032B00007FE4246A9784846FDF702FEE6E7000011
:1032C000E02100202DE9FC4117460C00064604D001
:1032D0002078C00705D0012004E000217EDFBDE892
:1032E000FC8102208DF804003046FFF771FE054690
:1032F000A0F57F40FF3808D001A800902B463A4641
:103300002146304600F021F806E020782146C0072B
:10331000304603D000F07DF804460BE07EDF040069
:103320004FF00000009007D00022012329463046CC
:1033300003F036FC14B106E00122F6E79DF8041014
:10334000304603F057FC2046C9E72DE9F04F85B021
:1033500090468946834600259A462E4601AA0721B3
:1033600018460E9F01F09CFF040008D1029D95F8BD
:103370004400183510F0010601D0029D343558EA9A
:1033800004004FF000080FD175B126B905F1120005
:10339000FFF7AEFD40B12A4605F11201584685DF20
:1033A000044687F8008021E00CB1052C1ED199F865
:1033B0000000C0070DD003AB01220721504601F0E9
:1033C00099FF04000AD10721504602F08DF804004D
:1033D00004D1494658467EDF040007D007215046F5
:1033E00002F00CF810B1052800D00324CDF80080BD
:1033F000387808B1012300E0002344B1002251468F
:10340000584603F0CDFB05B02046BDE8F08F012201
:10341000F5E7FEB50F46064601F038FF0546A0F574
:103420007F40FF381ED001AB01220721284601F062
:1034300061FF04000AD10721284602F055F8040074
:1034400004D1394630467EDF040007D007212846E4
:1034500001F0D4FF10B1052800D003240120009012
:103460005CB102E0032400200090002201232946E1
:10347000304603F095FB2046FEBD0122F6E7000032
:103480002DE9F041134D0F46164680462978FDF789
:1034900003FD00281BD04046FFF79AFD0446A0F527
:1034A0007F40FF3813D069784046FDF7F5FC38B10E
:1034B00033463A4621464046BDE8F04101F0C0BDE2
:1034C000324639464046BDE8F041FEF77FBCBDE8D4
:1034D000F0810000DC2100202DE9F04385B0814619
:1034E000FDF7CEFC002820D06846FDF7FDFB002448
:1034F0006E4617E006EB44054946A888FDF7CCFC6C
:1035000078B10B4FA888B978FDF7C6FC8046A8882B
:10351000F978FDF7C1FC0146A88801234246FFF770
:1035200085FE641C0098A042E4D805B0BDE8F08395
:10353000E02100202DE9F043264CA4F11009227867
:10354000D9F8048099F80350404694F801C0D9F89E
:10355000086031E002EB42036168521C01EBC301D9
:10356000A378D2B2934200D100220B78022B02D072
:10357000032B21D11DE003464F68194603E0B942F1
:1035800003D00B46C969B9B1F9E7A9B18B4205D19E
:10359000C06918B9104E0125B56000260F68C969C9
:1035A000D96149B10B683B440B6005E00174C06907
:1035B00000E000210028F9D19445CBD1C9E90106EA
:1035C00089F80350404502D00120BDE8F083002077
:1035D000FBE700002C220020001001402DE9F04103
:1035E0002A4F0446002607F11005D7F804803EE074
:1035F00002D02046E4691DE02878696800EB4002AB
:10360000401CC0B201EBC2012870AA78904200D1E0
:103610002E700A784868012A2BD1027C4ABB8A683E
:103620004260CA6882600A69C26049698161F9784A
:1036300001B146604368BA68DFF854C0991A21F0B6
:103640007F41614502D28268114406E0D11A826846
:1036500021F07F418A4202D9511A016000E00660E0
:103660004660012186600174C66104F01BF8002CDD
:10367000BED1287869788842BED17968414502D0A8
:103680000120BDE8F0810020FBE700001C220020A3
:10369000FFFF7F00FEB504460026A0F57F40FF38FF
:1036A0002FD02046FFF772FA050013D00B2D15D04E
:1036B000112D11D0A5F5405002381CD009208DF8ED
:1036C00000002046FFF784FCADF80200ADF804408E
:1036D00002950DE0022002E001260CE003208DF8A7
:1036E00000002046FFF774FCADF80200ADF804407E
:1036F0006846FEF7E3FB0348324681782046FDF733
:10370000DFFBFEBD9C210020FEB504460026FFF72E
:1037100072FA05460C281AD003DCA5B1042D06D197
:1037200029E0112D11D0A5F5405002381CD00920F8
:103730008DF800002046FFF74BFCADF80200ADF815
:10374000044002950DE0012002E001260CE0072074
:103750008DF80000ADF804402046FFF739FCADF8C5
:1037600002006846FEF7AAFB04483246417820462C
:10377000FDF7A6FBFEBD0820EAE700009C21002023
:10378000F8B5054600780C46002620420FD10020EF
:103790008DF800006846FCF7B3FF2878204202D17C
:1037A0002043287001269DF80000FCF7CDFF30462D
:1037B000F8BD000088B0002001F08AF908B1FCF7DC
:1037C000F5FE0023404A05211846FCF70DFF08B11D
:1037D000FCF7ECFE3D4A40F6CD410320FDF712FF19
:1037E00008B1FCF7E3FE69460020FDF7E9FD08B1EA
:1037F000FCF7DCFE9DF80000022858D05FF00004C2
:10380000FDF7A4FD204602F0BBF81CB130A1032057
:1038100001F0CCF89DF8080034A120F00F00401C06
:1038200020F0F00010308DF808000F2202A87CDF95
:1038300008B1FCF7BBFE002400945020ADF8000056
:10384000A0200194ADF80200ADF804404FF4C87018
:10385000ADF8060068467ADF08B1FCF7A7FEFCF772
:10386000BFFD03F007FB1C216846FBF7FEFD4FF48C
:103870002030CDE900404FF47020029003208DF8F5
:103880000C001E4805901E480690ADF80E408DF8BD
:1038900010406846FDF7BAF908B1FCF787FE19A198
:1038A000032001F083F80320FDF72EF907E001243F
:1038B000A6E700BF00F0D8FF0028FBD13EDF0028BC
:1038C000F8D0FCF773FEF5E7A02200206515020092
:1038D0004150503A494E464F3A426F6E64732065EC
:1038E0007261736564210D0A000000004E6F7264FE
:1038F00069635F54656D706C61746500E14C020032
:10390000DD1B02004150503A494E464F3A54656D16
:10391000706C61746520737461727465640D0A0063
:1039200070B5144682880E4605462088111D014454
:10393000921C994201D8FE2A01D90C2070BD521C5C
:1039400032542088FF21401C80B2208031542088CE
:10395000401C80B220808119288804F06CF82188EE
:10396000084480B22080AA8842B1A96841B130449D
:10397000FBF762FD2088A98808442080002070BDE4
:10398000072070BDF8B50E4601781446054601299A
:1039900001D1687830B12088821C9A422DD8012943
:1039A00002D006E00720F8BD69780144891C9942DD
:1039B00023D8181A801E87B2ADF800702188B01C79
:1039C000084469467DDF0028EDD12878022805D11A
:1039D000BDF80010B94201D809210AE008210128E8
:1039E00005D16878B84202D8ADF8000001E0ADF822
:1039F0000070BDF80000FE2801D90C20F8BD228817
:103A0000401CB0542088401C80B220803154208853
:103A1000401C2080BDF80010084420800020F8BD24
:103A200070B505460C004FF0FF0020D04FF6FF7632
:103A3000B5421CD00E48012241782846FDF740FAD5
:103A40002846FFF71DF8FF2803D1FFF735F8FF28B8
:103A50000DD0084B00EB400203EB82014D8023F8B0
:103A6000226022684A60A2880A81A2798A7270BDA7
:103A7000B42100202025002070B54FF6FF750E46BA
:103A8000A84201D1002000E0401C84B208E0214699
:103A9000304602F090F908B1204670BD641CA4B213
:103AA000FF2CF4D9284670BD00F180400068002842
:103AB00000D00120704708B500F18040002101606E
:103AC0000068009008BD000000283ED01F49204A31
:103AD000096800BF00BF00BF00BF00BF00BF00BF3C
:103AE00000BF91422FD000BF00BF00BF00BF00BF8A
:103AF00000BF00BF00BF00BF00BF00BF00BF00BFCE
:103B000000BF00BF00BF00BF00BF00BF00BF00BFBD
:103B100000BF00BF00BF00BF00BF00BF00BF00BFAD
:103B200000BF00BF00BF00BF00BF00BF00BF00BF9D
:103B300000BF00BF00BF00BF00BF00BF00BF00BF8D
:103B400000BF00BF00BF401EC3D170477C220020D1
:103B50000024F4002DE9FF41054617460E460B46AA
:103B60004FF000082A4628A1032000F073FF2F4CD5
:103B70002068410723D5810707D52DA1032000F038
:103B800015FF0A2004B0BDE8F08140F0010020607C
:103B9000B2B23B4629462F48FEF71EFC5FEA0008FA
:103BA00008D002462CA1032000F026FF206820F058
:103BB000010002E0206840F00100206021E02805BB
:103BC00005D02CA1032000F0F1FE0620DAE7C5F3B2
:103BD0000F34284600F08EFF05F58055761EF8D18B
:103BE0007FB12A480168D0E90220CDE90220CDE961
:103BF0000017280BADF80840ADF80A000021684610
:103C0000B8474046BEE700003A494E464F3A457233
:103C10006173696E673A203078253038782C206ED1
:103C2000756D3A2025640D0A000000000422002072
:103C30003A494E464F3A45726173653A204661698A
:103C40006C7572652073696E6365206C6173740DA9
:103C50000A000000802200203A494E464F3A457241
:103C6000617365206661696C65643A2025640D0A9C
:103C7000000000003A494E464F3A496E76616C6941
:103C80006420616464726573730D0A00E07F020052
:103C900010B501000C4C4FF0000013D00BA1032015
:103CA00000F084FEFEF704FC08B113A104E01B48F9
:103CB00003F09EFC28B11AA1032000F077FE082033
:103CC00010BD0421216010BD042200203A494E4657
:103CD0004F3A2D2D2D2D2D2D2D206E72665F646691
:103CE000755F666C6173685F696E69742D2D2D2D2B
:103CF0002D2D2D0D0A0000003A494E464F3A4E6FC9
:103D00007420696E697469616C697A696E67207480
:103D10006865207468696E670D0A00000926020054
:103D20003A494E464F3A4E6F7420696E6974696124
:103D30006C697A696E6720746865207468696E675B
:103D400020320D0A000000002DE9FF411746264AE7
:103D500006461D4610680024430723D5830707D570
:103D600022A1032000F022FE0A2004B0BDE8F08169
:103D700040F00100106090460A46BBB2314624482C
:103D80000095FEF701FC040005D0024621A10320A6
:103D900000F032FE20E0D8F8001041F00101C8F830
:103DA000001019E031B12EB141EA0600800703D0BE
:103DB0000620DAE70320D8E787B13A46304600F01C
:103DC000B1FE4DB10020CDE90260CDE9000501460C
:103DD000ADF80C706846A8472046C6E714A103203A
:103DE00000F0E4FD0420C0E7042200203A494E46DA
:103DF0004F3A466C6173683A204661696C7572652A
:103E00002073696E6365206C6173740D0A00000095
:103E1000802200203A494E464F3A466C6173683A18
:103E2000206661696C65642025640D0A000000004D
:103E30003A494E464F3A466C6173683A20496E766D
:103E4000616C6C6964206C656E67746820284E56DE
:103E50004D43290D0A000000002258210148FDF7BA
:103E6000EDBE0000AC2A002070B513A1032000F0C5
:103E70009DFD1B4900204FF4AE7508702A46194974
:103E80001948FBF7D9FA184C2068401C04D0FFF7FA
:103E9000E3FF216881420ED01449032000F086FD23
:103EA00029461148FBF7E1FA01206060BDE8704047
:103EB000002000F01DB870BD3A494E464F3A727569
:103EC0006E6E696E67206E72665F6466755F73659D
:103ED0007474696E67735F696E69740D0A0000001F
:103EE000FC21002000F00700A82A002050800200DA
:103EF00070B505461D4A1EA1032000F07DFD264C2D
:103F0000207808B125A125E001202070014600227B
:103F100016486560FFF71EFE002510B125702BA125
:103F200018E0FFF799FF34495722086033A10320B6
:103F300000F062FD30494FF4AE72A1F5AE70FBF7B0
:103F40007BFA364B572236490848FFF7FDFE30B161
:103F5000257034A1032000F029FD112070BD3CA183
:103F6000032000F023FD002070BD000000F00700DA
:103F70003A494E464F3A45726173696E67206F6CDD
:103F8000642073657474696E67732061743A2030BD
:103F900078253038780D0A00FC2100203A494E4639
:103FA0004F3A436F756C64206E6F74207175657540
:103FB000652077726974696E67206F662044465584
:103FC0002053657474696E67730D0A003A494E4652
:103FD0004F3A4661696C656420746F206572617345
:103FE0006520626F6F746C6F6164657220736574B5
:103FF00074696E67730D0A00A82A00203A494E467C
:104000004F3A57726974696E672030782530387876
:1040100020776F7264730D0A00000000751D0200A6
:104020004C2900203A494E464F3A4661696C656416
:1040300020746F20777269746520626F6F746C6F83
:10404000616465722073657474696E67730D0A002C
:104050003A494E464F3A57726974696E67207365E4
:104060007474696E67732E2E2E0D0A0010B50B4CFA
:10407000207808B1852010BD0020A060606020611C
:10408000E060062100F036F803F0ACFA012108B92F
:10409000034801602170002010BD0000042C0020A6
:1040A0001805004038B500208DF800006846FCF780
:1040B00027FB074C207808B9FFF7D8FFE068401CC1
:1040C000E0600120A0709DF80000FCF73DFB38BDCA
:1040D000042C0020002801D1FDF7D2BC704700F06D
:1040E0001F02012191404009800000F1E020C0F84A
:1040F000801170474907090E002806DA00F00F0208
:1041000002F1E02282F8141D03E000F1E02282F8BF
:10411000001400F01F02012191404009800000F1CD
:10412000E020C0F88012C0F800117047000B40B2C8
:10413000704700002DE9F0478846814601F05EFC9B
:104140000124224E0028484618D0FDF759FC30447F
:1041500090F848008009032802D0012806D007E023
:104160001B48006804FA09F4204201D1022100E052
:1041700003214846BDE8F04700F0F8B901F04AFCD9
:10418000002820D04846FDF73BFC0546114F4FF470
:10419000807007EB850100EB8500D1F8102580B217
:1041A00042F00102C1F8102500F0EEF9B8F1000F5D
:1041B00009D04846FDF724FC56F82000002802D01C
:1041C000AC40C7F80443BDE8F0870000182C00207D
:1041D00010050050006000402DE9FC41DFF8A4808C
:1041E000044608EB0400002790F930001346C0177E
:1041F0000E46401C01D0082740E0F27819462046C0
:10420000FDF7DAFB0546401C37D0B07848B1A00076
:1042100000F1A040D0F8001721F00201C0F800170B
:1042200007E000217378204600910A46019100F0D2
:104230005FF9F078C0B11448317800EB8500D0F810
:104240001025124B1A40C0F810254FF4F8524FF4C5
:10425000403302EA042203EA01410A43D0F8101570
:104260000A43C0F8102509E008EB0500327810F881
:10427000481F41EA8211017000E004273846BDE87A
:10428000FC810000182C002000600040FFE0FCFFD3
:1042900003490968C14011F0010000D001207047B6
:1042A0001005005070B5144D95F8540008B1082061
:1042B00070BD0020411E2A18401CC0B282F8301088
:1042C0002028F8D300242046FDF768FB641CE4B2E4
:1042D0000C2CF8D306210846FFF70CFF4FF4BE70F4
:1042E00000F052F905494FF00040C1F804030120E5
:1042F00085F85400002070BD182C0020006000409C
:10430000034890F85400002800D0012070470000B6
:10431000182C00202DE9F04105460079164F9046F3
:1043200007EB40140E46E07E10B10820BDE8F08196
:10433000707F20772846FCF721FA5FEA080060606A
:104340003169216003D0317F2846FEF70BFF2879C1
:1043500007EB4010007F0028286801D0082100E00A
:104360000421C0F800150020E0752076A075012119
:10437000E176A076DAE70000702C00202DE9F04706
:10438000054600793E4C0E4604EB4013187F38B1C9
:104390004FF40050B0EB164F02D01020BDE8F0876C
:1043A000284600F06FF808B11120F7E79A7500274A
:1043B0009E609F8228794FF0010804EB40143E462E
:1043C000207F0028286825D04FF49079494600F0D6
:1043D000DDFB4FF4AC7A5146286800F0D7FB286823
:1043E000A17DA268C0F84425C0F848152868C0F827
:1043F00008806068F0B94946286800F0C2FB804632
:104400005146286800F0BDFB58EA0001F3D058BBC4
:10441000A7750FE04FF48E7A514600F0A6FB28688E
:10442000C0F808802146286803F0D8F961684FF485
:10443000807089B13046B1E75146286800F090FBA2
:1044400010B9A08A4845F7D1A08A484505D0214631
:10445000286803F0C3F900E08146A08AA17D884264
:10446000EAD3A08A484501D10F26D1E751462868F2
:1044700000F076FB0028F9D02868C0F80C80C7E768
:10448000702C00200079044901EB4010807D002849
:1044900000D0012070470000702C002070B5044649
:1044A00000791149002601EB401520682A7FC0F8E9
:1044B0000065686888B1207901EB4010007F002812
:1044C000206801D0094901E008498C39C0F8081377
:1044D0002068FFF72BFEFFF702FE204601F0A6FA48
:1044E000EE766E6070BD0000702C0020100302009C
:1044F00030B541EA4201DDE9034541EA830180002C
:1045000041EA042100F1A04041EA0541C0F800174A
:1045100030BD30B541EA4201DDE9034541EA83019E
:10452000800041EA042100F1A04041EA0541C0F8C1
:10453000001730BD1CB5002100910B4601220191EE
:10454000FFF7E7FF1CBD1CB500220B460092114689
:104550000192FFF7DEFF1CBD1CB5002100910B4648
:10456000012201911146FFF7D4FF1CBD800000F528
:10457000E06000F1A040026822F44032026002686C
:1045800042EA014101607047034908B5084400212F
:1045900001600068009008BD00600040024940587A
:1045A000012800D00020704700600040004870479C
:1045B0004546020070B51D4C05468AB0207828B1EA
:1045C0006078854202D100200AB070BD0126330216
:1045D000174A18A100200096FBF728F908B1082017
:1045E000F2E72022154901A8FAF726FF00208DF8EE
:1045F0001800062001900820029005200490072052
:1046000003904FF0EB7007900848001DFFF746FF3E
:104610000DB1002200E00A4A044801A9001DFFF77D
:1046200079FE0028D0D126706570CCE75822002092
:10463000402E00204E6F726D616C00000C800200F5
:10464000197802002DE9F04FC1B00D00DDF82CB152
:104650004D984FF000011C4690460BEB000A40912C
:1046600001D00A2600E0002602F0FAFA002873D1F1
:104670006F46BCB9409840AA3918284603F096F80E
:10468000002869D04046FAF7FBFEC22800D9C220B4
:10469000054640982A4638444146FAF7CDFE4098F0
:1046A000284440904FF020094098821931320DEB98
:1046B00002016844002202E000F8019B521CB24251
:1046C000FAD30027544508D300F8019B00F8019B5A
:1046D00000F8019B01F8019B26E05C4502D24A9A52
:1046E000125D03E04C9AA4EB0B03D25C84460125D7
:1046F000AB0022FA03F808F00F03092B01D9373376
:1047000000E03033C5F101086D1E0CF80830EFD21F
:104710000CF10200A2F1200300F8019B5E2B00D9EE
:104720002E2201F8012B641C7F1C102FCAD30D22EE
:104730000A700A224A7080F800904098811943312B
:104740006846409102F092FA30B102F089FA18B945
:10475000002040905445A7D341B02046BDE8F08FDB
:104760002DE9F043C5B000251C46904689464C9F74
:10477000449502F075FAB0BB449804AE311844AACF
:10478000484603F013F800282ED0072F22D2DFE886
:1047900007F00412192E384451004046FAF770FE13
:1047A000054644982918FF2914D830442A46414622
:1047B000FAF742FE0EE04498226830444146FBF787
:1047C00087FA06E0D4E90023449841463044FBF7D9
:1047D0007FFA0546294644A8FDF796F818B1449992
:1047E000B1F5807F33D9002045B0BDE8F083A068E3
:1047F0000090D4E90023449841463044FBF768FA1E
:10480000E7E7D4E90201CDE90001D4E900234498A7
:1048100041463044FBF75CFADBE704F1080007C8C7
:104820008DE80700D4E90023449841463044FBF763
:104830004FFACEE704F108000FC88DE80F00D4E965
:104840000023449841463044FBF742FAC1E704A8EC
:1048500002F00CFAC8E70000004870476147020008
:104860000120FFF7A7BE00002DE9F04F87B0FDF74C
:1048700087F818B1002007B0BDE8F08F454ED6E9A3
:10488000014704EA070006EB8000A146641CC568E6
:104890000CE000BFC5F3891000EB9550044404EA16
:1048A000070006EB8000A146C568641CA807F1D08C
:1048B00005F003004FF0000B022805D0AA0A01A85A
:1048C000C5F38313002153E004EA070006EB8000E0
:1048D00004F1010A0AEA0704C268381B80004FEAA3
:1048E0009558001DC5F38913804521D929490C31FC
:1048F00038B106EB840400F0FF0CA8EB00000C3488
:1049000004E00C46002108F0FF0C0846C0B2CDE9D7
:104910000210CDE9004CD6F81444C5F3C200594644
:10492000A047404511D108F103080AEB98042AE09A
:10493000002106EB84000C300090CDE90181039149
:10494000C5F3C200D6F81444EAE760F38F1509EA0C
:10495000070006EB8000C56016E000BF04EA070C04
:1049600006EB8C0C491CDCF80CC040F804CB641C32
:104970009942F3D3C5F3C2000093D6F8105401ABAB
:104980005946A84700B17460FCF7FAFF80F00100B7
:1049900071E7000040300020034AFF2393600023AA
:1049A0001360536000F08CB8403000202DE9F047D0
:1049B000DFF83C800446002689463046D8F8087067
:1049C000D8F80050FCF7AAFF00280ED009480021B3
:1049D0003D40406861F3820064F3C50066F38910CE
:1049E00008EB850169F39F20C860BDE8F0870000EF
:1049F000403000202C8002002DE9F047DFF84C8089
:104A000005460127924689463846D8F80860D8F806
:104A10000040FCF783FF002815D00D48002104EA70
:104A200006028068641C61F3820065F3C50067F3C9
:104A3000891008EB8202344069F39F2008EB84015F
:104A4000D060C1F80CA0BDE8F08700004030002025
:104A50002C8002002DE9F05FDFF85C80064602271B
:104A60009B46924689463846D8F80850D8F8004008
:104A7000FCF754FF00281CD01048002104EA05026E
:104A8000C06808EB820261F3820066F3C50067F339
:104A9000891069F39F20641CD06004EA0502641C3D
:104AA00008EB82022C4008EB8401C2F80CA0C1F88C
:104AB0000CB0BDE8F09F0000403000202C800200C8
:104AC000024A02F5826203C27047000040300020B3
:104AD00070B506460020FFF76DFD040008D1FFF712
:104AE00065FD0546FFF7B8FE32462946FFF754FF3D
:104AF000204670BD094A0221116009490B68002B4C
:104B0000FCD0064B1B1D186008680028FCD0002054
:104B1000106008680028FCD07047000004E50140E0
:104B200000E4014070B50C4D01232B600B4C236851
:104B3000002BFCD0002307E051F8236040F82360ED
:104B40002668002EFCD05B1C9342F5D30020286021
:104B500020680028FCD070BD04E5014000E401405D
:104B60004058002800D00120704708B5002242506C
:104B70004058009008BDD0F80403084000D0012040
:104B800070474058002800D00120704708B5002227
:104B900042504058009008BD10B568B103280FD1AD
:104BA00008A1FFF703FF0220FCF720FD002807D033
:104BB000BDE81040FBF7FABCBDE8104002F0FAB9BE
:104BC00010BD00004150503A494E464F3A4661737D
:104BD00074206164766572746973696E670D0A008A
:104BE00010B50446008888B03B2827D00DDC022889
:104BF0002ED0102813D011281ED12BA10320FFF78F
:104C0000D5FE0020FCF7F2FC1BE0512824D05528EB
:104C100046D0562810D1A088132176DF11E029A1B3
:104C20000320FFF7C3FE0720FCF7E0FC08B1FBF709
:104C3000BDFC2A49A088088008B010BDA0881321B7
:104C400076DF0028F8D008B0BDE81040FBF7AEBC16
:104C5000A088002167DFF4E71022A11D04A8FAF75D
:104C6000EBFB9DF810100029E6D09DF818000428F1
:104C700003D0062801D00528DED102290ED001205C
:104C80008DF800004FF4C170ADF80400A0886946AB
:104C9000A8DF0028D0D0FBF789FCCDE70220EFE7A2
:104CA000A0881721ADDFCCE74150503A494E464F1E
:104CB0003A446973636F6E6E65637465642E0D0AA2
:104CC000000000004150503A494E464F3A436F6E43
:104CD0006E65637465642E0D0A00000038210020A3
:104CE0000078002807D104483B21008876DF00289F
:104CF00001D0FBF75BBC704738210020F0B58DB0C8
:104D000000260446059602200696079608968DF81A
:104D10001400A07B8E46012720B18DF81A70ADF8E3
:104D2000186003E040F2FD10ADF81800A08805A956
:104D3000A8DF1128FAD0BDF81800002836D19EF857
:104D40000C00012834D0022502960321ADF8301062
:104D5000019620218DF82C108DF82D0003960496D5
:104D60008DF82E50E088ADF804000CA803900BA835
:104D70008DF80670ADF808600490A08801A9A6DF40
:104D8000012D13D19EF80C0001280FD12269204675
:104D90001AB18DF800606946904706488765064855
:104DA000FFF7A6F8002801D0FBF700FC0DB0F0BD1E
