:020000040001F9
:10F000008850002015F401001DF401001FF40100D8
:10F0100021F4010023F4010025F4010000000000A8
:10F0200000000000000000000000000027F40100C4
:10F0300029F40100000000002BF401002DF4010070
:10F040001DF801002FF4010049FB01002FF401001D
:10F05000A1F801002FF40100C5F501002FF4010013
:10F060002FF401002FF401002FF401002FF4010010
:10F070002FF401002FF401002FF401002FF4010000
:10F080002FF401006DF801002FF401002FF40100AE
:10F09000B5F801002FF40100BDF801002FF40100C4
:10F0A0002FF401002FF401002FF401002FF40100D0
:10F0B0002FF401002FF40100000000000000000008
:10F0C0002FF401002FF401002FF401002FF40100B0
:10F0D0002FF401002FF401002FF4010000000000C4
:10F0E0000000000000000000000000000000000020
:10F0F0000000000000000000000000000000000010
:10F1000000000000000000000000000000000000FF
:10F1100000000000000000000000000000000000EF
:10F40000DFF80CD000F082F800480047A144020069
:10F41000885000200648804706480047FEE7FEE780
:10F42000FEE7FEE7FEE7FEE7FEE7FEE7FEE7FEE7B4
:10F43000FDF8010001F4010040EA01039B0703D03D
:10F4400009E008C9121F08C0042AFAD203E011F823
:10F45000013B00F8013B521EF9D27047D2B201E0E5
:10F4600000F8012B491EFBD270470022F6E710B5C9
:10F4700013460A4604461946FFF7F0FF204610BD22
:10F48000421C10F8011B0029FBD1801A704730B5CF
:10F4900004460020034600E05B1C934203D2E05C7C
:10F4A000CD5C401BF8D030BD2DE9F05F0546002053
:10F4B00092469B4688460646814640241BE02846E5
:10F4C00041464746224600F042F853465A46C01A83
:10F4D000914110D311461846224600F029F82D1A02
:10F4E00067EB01084F4622460120002100F020F87A
:10F4F00017EB00094E41201EA4F10104DFDC484651
:10F5000031462A464346BDE8F09F0000064C074DB1
:10F5100006E0E06840F0010394E8070098471034E3
:10F52000AC42F6D3FFF770FF14A1020034A1020031
:10F53000202A04DB203A00FA02F1002070479140B3
:10F54000C2F1200320FA03F3194390407047202AA8
:10F5500004DB203A21FA02F00021704721FA02F37D
:10F56000D040C2F12002914008431946704770B55F
:10F570008C1810F8015B15F0070301D110F8013B5E
:10F580002A1106D110F8012B03E010F8016B01F8E5
:10F59000016B5B1EF9D12B0705D40023521E0DD43D
:10F5A00001F8013BFAE710F8013BCB1A921C03E08B
:10F5B00013F8015B01F8015B521EF9D5A142D8D3C3
:10F5C000002070BD2DE9F04F87B00027BA464FF4F8
:10F5D000807006900125002412E0069805F08AFC50
:10F5E00040B100BF61480068284018B1069805F096
:10F5F00073FC2F436D000698001D80B20690641CBA
:10F60000082CEAD34FF4BE7005F074FC48B14FF4F7
:10F61000BE7005F061FC47F0004700BF5448006829
:10F620008246F8B200B3012500241BE005EA07007A
:10F63000B0B100BF4F4850F82400C0F3042080460A
:10F6400000BF4C4850F82400C0F3014081462046DA
:10F6500002F072F9064616B149464046B04700BF6F
:10F660006D00641C082CE1D307F00040002879D01D
:10F670004FF0000B00200590401E049000BF4FF09B
:10F68000000B002457E03C48005D0390039820F0F5
:10F69000C00639480057401C00284BD00120B0401C
:10F6A00004990840002845D003984FEA9019304645
:10F6B00002F04AF9804602F03FF90290029810B930
:10F6C000B9F1030F35D1012000FA06F5B9F1030FA6
:10F6D00002D105982843059000BF284850F826001D
:10F6E000C0F3014800BF05EA0A0010B1B8F1020FEB
:10F6F00005D005EA0A00D8B9B8F1030F18D1B9F15D
:10F70000030F0FD1B8F1020F01D1032000E0022056
:10F7100001903046019905F0BFFB0BF1010000F0AC
:10F72000FF0B00BF029818B149463046029A904735
:10F7300000BF00BF641C042CA5D3BBF1000F0DD08B
:10F7400000BF0B4909680846504503D14FF0000B34
:10F7500003E007E082460599049100BFBBF1000F6A
:10F760008DD100BF07B0BDE8F08F000004630040FA
:10F770001005005010650040B4290020000700501B
:10F7800000F01F0201219140024A430942F8231070
:10F790007047000080E200E000F01F02012191406C
:10F7A000024A430942F823107047000080E100E05C
:10F7B00000F01F02012191404209920002F1E02273
:10F7C000C2F80011704700F01F0201219140420968
:10F7D000920002F1E022C2F80011704700F01F020F
:10F7E00001219140024A430942F82310704700006A
:10F7F00000E200E010B5002807DA4A07140E054AB7
:10F8000000F00F031B1FD45403E04A07130E024AF3
:10F81000135410BD18ED00E000E400E010B54FF403
:10F82000807004F0ABFF60B14FF4807004F0AFFF64
:10F83000012004F0B5FF01200B494870002002F0C0
:10F8400019F94FF4827004F099FF58B14FF48270A7
:10F8500004F09DFF022004F0A3FF012002498870FC
:10F8600002F008F910BD00005029002010B500205A
:10F870000949086000210948C0F84411C0F848113E
:10F88000C0F84C1100200549C1F8000102493C397B
:10F89000086009F065FE10BD4011014000100140F4
:10F8A00010B503494FF0402009F08EFC10BD000058
:10F8B0003829002010B509F069FD10BD70B50A485F
:10F8C000006868B1084800688047044600BF2546C4
:10F8D00025B100BF284600F0A1FD00BF00BF01E038
:10F8E00004F068F970BD00003C2200200148024984
:10F8F000086070470090D0035422002010B502F039
:10F90000D7FA10B182488349486702F0E9FA28B172
:10F9100081480068C0F342308049086002F00AFB69
:10F9200028B17F48006820F080707D49086002F0AF
:10F9300019FB48B100207B4908604FF08041C1F8B5
:10F9400010017649091F086002F036FB18B1032048
:10F9500072496431086002F047FB68B105207249C2
:10F960000860012070497831086000206E49083134
:10F9700008603F20091F086002F04EFB002855D0A8
:10F980006A4800686A4908606848001D0068091DE7
:10F990000860664808300068091D086063480C303C
:10F9A0000068091D0860614810300068091D086082
:10F9B0005E4814300068091D08605C481830006813
:10F9C0005B492031086059481C300068091D0860F7
:10F9D000564820300068091D0860544824300068EB
:10F9E000091D0860514828300068091D08604F480B
:10F9F0002C300068091D08604C48303000684C49C4
:10FA000040310860494834300068091D08604748A3
:10FA100038300068091D086044483C300068091D02
:10FA20000860424840300068091D086002F016FA7C
:10FA300030B139481430006800F04F003D4908608B
:10FA400037487438006840F47000354974390860EC
:10FA500000BF00BF00BFBFF34F8F00BF00BF00BF9C
:10FA600000BF00BF00BFBFF36F8F00BF00BF00BF6C
:10FA70003148006800F0004030B92F48001D006890
:10FA800000F00040002840D001202C49086000BF51
:10FA90002B4800680028FBD015202749086000BFCC
:10FAA000274800680028FBD015212348001D01606D
:10FAB00000BF234800680028FBD000201F490860D1
:10FAC00000BF1F4800680028FBD000BF00BF00BF78
:10FAD00000BF00BFBFF34F8F00BF00BF00BF104883
:10FAE000F038006800F4E06016490843001D0C4936
:10FAF000F039086000BF00BF00BFBFF34F8F00BFE9
:10FB000000BF00BF00BF00BFFDE7FFF7EFFE10BD65
:10FB10000DF0ADBA00C00740440200103C050040A3
:10FB2000FCED00E00C010040105600400404001001
:10FB300020C50040E40E00400012001004E5014022
:10FB400000E401400000FA0510B50648007F20B12E
:10FB50000449054809F073FE03E00249024809F030
:10FB6000CDFD10BDBC290020002000400FB4084B83
:10FB700010B504A902AA039800F03EF8044602A9B1
:10FB8000002000F06AFA204610BC5DF814FB00006B
:10FB90005B00020002E008C8121F08C1002AFAD167
:10FBA00070477047002001E001C1121F002AFBD1FD
:10FBB000704700000146202908DA012088400A4ADF
:10FBC000104008B1012070470020FCE7402909DA05
:10FBD000A1F12000012202FA00F008B10120F2E7B1
:10FBE0000020F0E70120EEE7FC06FFBC00BFEFF3CA
:10FBF0001081084672B670472DE9FF4F8DB00F4651
:10FC00000546002606E025280BD0DDE90F129047B7
:10FC10006D1C761C28780028F5D111B03046BDE85F
:10FC2000F08F0024A246A1460122EC4900E00443E3
:10FC300015F8013F203B02FA03F00842F7D128787B
:10FC40002A2810D06FF02F022878A0F1300109295E
:10FC500014D80AEB8A0102EB410144F0020400EBE4
:10FC6000010A6D1CF0E701CF5FEA000A03D544F4F6
:10FC70000054CAF1000A44F002046D1C28782E28B2
:10FC800017D115F8010F44F004042A280ED06FF0A4
:10FC90002F022878A0F1300109290AD809EB89013F
:10FCA00002EB410100EB01096D1CF2E757F8049BE0
:10FCB0006D1C28786C280FD006DC4C2817D06828DB
:10FCC0000DD06A2814D104E0742810D07A280FD1FE
:10FCD0000DE044F400140AE044F4801401E044F41C
:10FCE00040146978814202D104F580146D1C6D1CAA
:10FCF0002A786E2A1FD00CDC632A31D004DC002A5B
:10FD00008BD0582A11D1A3E0642A68D0692A0CD17B
:10FD100065E0732A2ED004DC6F2A73D0702A04D1D8
:10FD20009BE0752A6FD0782A6ED01046DDE90F125D
:10FD30009047761C50E1C4F30250022806D00328F5
:10FD400009D0042801CF09D0066045E101CFF117A1
:10FD5000C0E9006140E101CF06803DE106703BE172
:10FD600017F8040B8DF8000000208DF80100EB4619
:10FD7000012003E057F804BB4FF0FF3061074FF05C
:10FD8000000102D40DE008F10101884649450FDA6F
:10FD90008045F8DB1BF808100029F4D108E008F1D1
:10FDA000010188468142FADB1BF808100029F6D1D0
:10FDB000DDE90F23AAEB08008146214600F036F961
:10FDC000304400EB080604E0DDE90F121BF8010BDC
:10FDD0009047B8F10108F7D221464846F7E00A21DA
:10FDE000C4F302534FF0000B0891022B04D001CF53
:10FDF000C117032B09D00AE0FF1D27F00707F7E81A
:10FE0000020108E032E01FE020E000B2C117042B3D
:10FE100001D140B2C117031E71F1000307DA4FF0A0
:10FE2000000CD0EB0C006CEB01012D2302E023054C
:10FE300004D52B238DF82430012303E0E30701D000
:10FE40002023F7E7984658E00A2110E010210EE041
:10FE500010204FF0000B08900CE010214FF0000B29
:10FE600044F004044FF00809089103E008214FF022
:10FE7000000B0891C4F30253022B04D001CF0021E0
:10FE8000032B06D006E0FF1D27F00707F7E8020165
:10FE900003E080B2042B00D1C0B24FF0000823076A
:10FEA0002BD5702A07D0DDF820C08CF0100C5CEA4E
:10FEB0000B0C05D00EE040238DF82430012308E020
:10FEC00050EA010306D030238DF824308DF8252028
:10FED00002239846DDF820C08CF0080C5CEA0B0C7D
:10FEE0000BD150EA010301D1630706D530238DF809
:10FEF00024304FF00108A9F10109582A04D038A292
:10FF00000B9208AA0A920BE03AA2F9E75B46089A1C
:10FF1000FFF7CAFA0B9B9B5C0A9A521E0A92137057
:10FF200050EA0102F2D10A98ADEB000000F1200B7B
:10FF3000600702D524F4803401E04FF00109D9456F
:10FF400002DDA9EB0B0000E0002000EB0B014144B7
:10FF50000890AAEB010AE00306D4DDE90F2321464D
:10FF6000504600F063F806444FF0000908E009A984
:10FF700011F80900DDE90F12904709F10109761C1B
:10FF8000C145F4DBE0030CD5DDE90F2321465046E3
:10FF900000F04CF8064404E0DDE90F1230209047F1
:10FFA000761C0899481E08900029F5DC08E00A989C
:10FFB0000A990078491C0A91DDE90F129047761CD6
:10FFC000BBF10001ABF1010BF1DC21465046DDE94C
:10FFD0000F2300F019F806446D1C1BE609280100E8
:10FFE00030313233343536373839616263646566AF
:10FFF0000000000030313233343536373839414271
:020000040002F8
:1000000043444546000000002DE9F0410446002528
:100010001E461746880404D405E039462020B04720
:100020006D1C641EF9D52846BDE8F0812DE9F0412C
:10003000044600251E469046C80301D5302700E03F
:100040002027880404D505E041463846B0476D1C9A
:10005000641EF9D52846BDE8F0810A68531C0B6080
:100060001070704770B505460C4605B10CB90020FC
:1000700070BD287840082178B0EB510F01D00020E6
:10008000F6E70622611C681CFFF701FA08B9012097
:10009000EEE70020ECE70246002104E0505C08B1E6
:1000A00001207047491C0629F8D30020F9E7000019
:1000B00010B504466CB108480068A04209D806484B
:1000C0004068A04205D3204603F08AFE08B1012013
:1000D00010BD0020FCE70000582200202DE9FC4163
:1000E000044688461646002537880020308094F85C
:1000F0002D0058B13A463146404600F0BBFE054659
:1001000000BF15B12846BDE8FC8100BFA07850B102
:100110003A463146404600F05FFA054600BF0DB151
:100120002846F0E700BFE07860B1E17848B23B468E
:100130003246414602F01EFB054600BF0DB128467F
:10014000E1E700BF606868B1616891F900003B4673
:100150003246414609F0AEFA054600BF0DB12846C9
:10016000D1E700BF208900280EDD43460622022188
:1001700004F10800CDE9006709F0A4FC054600BFC2
:100180000DB12846BFE700BF208A00280EDD434698
:100190000722032104F11000CDE9006709F092FC69
:1001A000054600BF0DB12846ADE700BF208B0028F3
:1001B0000EDD43461522142104F11800CDE9006735
:1001C00009F080FC054600BF0DB128469BE700BF43
:1001D000206A58B13B4632464146206A01F0D7FCBE
:1001E000054600BF0DB128468DE700BF606A58B1D3
:1001F0003B4632464146606A04F0D2F9054600BFEC
:100200000DB128467FE700BF94F82C0000280BDDD5
:100210003B4632464146204608F0B6FA054600BF46
:100220000DB128466FE700BF207858B13B463246F3
:100230004146204604F0EFF9054600BF0DB12846BF
:1002400061E700BF28465EE770B504461448FFF733
:1002500022FF0546012C06D0022C0BD0032C10D017
:10026000042C1AD113E00F48407810B10DB10120D1
:1002700070BD00BF0B48807810B10DB10220F7E7C8
:1002800000BF0848C07808B10320F1E700BF054867
:10029000007908B10420EBE700BF0020E8E7000088
:1002A000712100205C2400200146481C052290FB9F
:1002B000F2F302FB1300C0B270470146C87800F0A9
:1002C000040008B9072070470020FCE730B597B05C
:1002D000382109A8FFF7C9F802208DF82400002072
:1002E0008DF8260006208DF82700202101A8FFF7B1
:1002F000BCF801208DF8070040200590B42006903E
:100300000020094B01AA0146009009A800F0DAFA82
:10031000044600BF254625B100BF284600F07EF800
:1003200000BF00BF17B030BD0958020070B50320F0
:1003300000F0C2FB044600BF254625B100BF284699
:1003400000F06CF800BF00BF70BD70B58CB0044603
:100350000D461646002005E0C0F10F01615C0DF866
:100360000010401C1028F7D30D2104A8FFF77DF8DA
:10037000002005E02A5CC0F10F0304A9CA54401C08
:100380000328F7D3684643DF002005E0C0F10F02E1
:1003900008A9895C3154401C0328F7D30CB070BD08
:1003A00016A1012005F0A2F800BF04F047FF00BF2E
:1003B00000BF04F049FF0028FBD100BF00BF00BF11
:1003C00000BF00BF00BF00BFBFF34F8F00BF00BF23
:1003D00000BF1048006800F4E0600F490843001DAA
:1003E0000C49086000BF00BF00BFBFF34F8F00BFC4
:1003F00000BF00BF00BF00BFFDE700004150505FDD
:100400004552524F523A4552524F523A46617461E8
:100410006C0D0A000CED00E00000FA053EB5044644
:10042000002000900190029002946A46002144F25C
:100430000100FFF7B5FF3EBD10B503460C4600BFF7
:100440000B48406808B9082010BD00BF0AB9072052
:10045000FAE70BB90720F7E71868007C08B1082015
:10046000F2E71968002008744C744A6100BFEBE79A
:10047000EC2100202DE9F04107460D4614461E46AA
:10048000204600F0030109B9012100E0002111B963
:100490000720BDE8F0810CB90720FAE707F096FDC8
:1004A00011480660002011490870487008468570A0
:1004B000446000200E4908600E4908700E4908701B
:1004C0001420FFF75DF906211420FFF793F914209B
:1004D000FFF76EF9384607F04FFD07F047FD074973
:1004E00008600020D5E7000008220020EC21002051
:1004F000F42100200422002005220020F821002001
:100500002DE9F04104460E461746254600BF104827
:10051000406810B90820BDE8F08100BF0CB9082080
:10052000F9E7052E01D20720F5E7686908B9082028
:10053000F1E7687C012801D1304600E000208046C8
:100540003B4642463146284608F0BAFFE3E7000042
:10055000EC21002070B50446254600BF08484068DD
:1005600008B9082070BD00BF0CB1686908B908203F
:10057000F8E7002028740221284608F0D0FFF1E7B0
:10058000EC21002010B50446204607F0BFFD10BD49
:1005900070B5044625460E488068B0B1ADB9FFF786
:1005A00025FB06460A4800680A4908600848406872
:1005B0004FF0E021C1F804010020054988601EB910
:1005C00000BF62B600BF00BF00BF00BF70BD00002B
:1005D000DC29002000E100E0F8B505460C4617468E
:1005E0002088001DB84201D90C20F8BD684679DF8B
:1005F000064600BF0EB13046F7E700BF0320218852
:1006000068542088401C2080192021886854208844
:10061000401C208020884119BDF8000009F09BF99A
:100620002188084420800020DFE7000070B50546DF
:100630000C46206804F042FC206804F020FC0021F5
:10064000606804F00FFC2879274901EB4010007F17
:1006500020B32868A169C0F8241500BF617D227D00
:10066000286841EA0203C0F86C3500BFD4E90012E3
:10067000286805F0C2F8207D012833D10021A06848
:1006800004F0F0FBE06804F019FCE06804F0F7FB0C
:10069000D4E90221286805F09CF823E02868A169C4
:1006A000C0F8241500BF617D227D286841EA02035D
:1006B000C0F86C3500BFD4E90012286805F070F866
:1006C000207D01280ED10021A06804F0CBFBE0685A
:1006D00004F0F4FBE06804F0D2FBD4E902212868BE
:1006E00005F047F870BD0000BC29002030B58BB084
:1006F0001348007800F08CFB0546284607F03AFDC9
:10070000D8B101A800F0E4FA142201A906A8FEF766
:1007100093FE00240DE007A931F814000849097878
:1007200000F084FB20B107A931F8140003F0F2FDBA
:10073000641C0698A042EED800BF0BB030BD00008C
:100740009221002010B50446637903F00302217959
:10075000208803F0AFFC10BD10B50446207918B90D
:10076000204600F007F803E02046FFF7EBFF00BF4C
:1007700000BF10BD2DE9F04188B004460025208857
:1007800000F018FB0746208803F054F90646A068DD
:100790000790607A0690208800222349097800F0AB
:1007A00057FB17B908B0BDE8F0816079C0F380004D
:1007B00090B10721304605F0B7FE0546BDB10820CF
:1007C0008DF800002088ADF80200ADF804600295B5
:1007D000684601F0EFFC0AE020881449097800F02F
:1007E00025FB20B1304603F00FF9804600BF0320FF
:1007F0008DF80C002088ADF80E006079C0F3800001
:100800008DF81000A079C0F380018DF811109DF8CB
:100810001C108DF812109DF818108DF8131003A8F5
:1008200001F0C8FC00BFBDE7D2210020D421002088
:100830002DE9F04192B080460D461F201190109096
:10084000B8F1000F17D04046FFF737FD044600BF50
:100850001CB1204612B0BDE8F08100BF11AA08A962
:100860004046FFF73BFC044600BF0CB12046F1E7D1
:1008700000BF08AE02E0002600201190ADB128466E
:1008800008F039FD044600BF0CB12046E2E700BF86
:1008900010AA69462846FFF721FC044600BF0CB1A8
:1008A0002046D7E700BF6F4602E0002700201090E7
:1008B000BDF84000C3B2BDF84400C1B23A4630466C
:1008C00072DFC7E72DE9F04704460F4615461E467E
:1008D000DDF8208004B115B90E20BDE8F0870120B5
:1008E0004849087000204849087020222946474896
:1008F000FEF7A2FD464806604648C0F800804FF665
:10090000FF70454908804548002101608180817160
:1009100038214348FEF7A9FD207841490870A078A6
:100920008870E078C87060784870D4E90402C1E942
:1009300004020846D4E90212C0E90212D4E9061200
:10094000C0E90612606AD8B136483549486236496E
:100950008160606A00883249496A0880606A8088DC
:100960002F49496A8880002005E0616A8968095C2E
:100970002D4A1154401C2A49496A89888142F4D879
:10098000A06A20B329492A488160254988622749FD
:100990002348806A8160A06A80882149896A8880AA
:1009A000A06A00881E49896A0880002005E0A16AC3
:1009B0008968095C1D4A1154401C1949896A898853
:1009C0008142F4D894F82C00154981F82C00206A53
:1009D00058B1184812490862206A4088096A48805C
:1009E000206A00880E49096A0880606810B10C49C5
:1009F0006068486039460A48FFF71AFF8146484652
:100A00006BE700006C2100206F2100205C24002097
:100A100080210020842100207C21002070210020E2
:100A20007C240020B4240020C0240020EC240020DA
:100A3000E02400207821002010B5044620881028EA
:100A400004D0112806D01B280CD107E0204605F061
:100A500027F808E0204605F051F804E0204605F0AC
:100A6000BDF800E000BF00BF10BD000070B5054636
:100A7000022D02D0032D15D100E000BF0B480078F5
:100A800078B10020094908700948007800F014F88E
:100A9000044634B10748006818B120460549096882
:100AA000884700E000BF00BF70BD00006D2100203E
:100AB0006F210020842100207FB505464D48007835
:100AC00010B9082004B070BD4B48057001F0BCFEA1
:100AD00020B10120494908700020F3E7484800216F
:100AE0000160818081714748407818B142480078A0
:100AF00001280DD04348807818B13F48007801287C
:100B000006D04048807888B13B48007802280DD153
:100B10003D48006838B101203C49087008203A4936
:100B20000968884702E00020384908702846FFF726
:100B30008BFB3149087034480068C0B10846007822
:100B4000032803D008460078042810D12D480078E7
:100B500068B12F48007850B900202E490870012054
:100B60002D490870072028490968884702E00020BD
:100B700029490870002000900190029003908DF8A0
:100B800000008DF808001C48007805281CD2DFE81A
:100B900000F01703080D1200684607F063FE0446D4
:100BA00013E0684607F06EFE04460EE0684607F064
:100BB0007FFE044609E0684607F0AAFE044604E00A
:100BC00000201649087000E000BF00BF0A48007806
:100BD00028B1684673DF04460CB1204672E70A4824
:100BE000006820B10D48007807490968884700204F
:100BF00068E700006C2100206F2100206D2100209B
:100C0000702100205C24002080210020772100201A
:100C1000882100208A210020892100206E210020C7
:100C200070B505461C2229461248FEF705FC002037
:100C300011490870286850B1104829680A68026094
:100C4000496841607ADF04463CB1204670BD0B48DC
:100C50007BDF04460CB12046F8E74FF6FF700849E9
:100C60000880002007490870074A00210748FFF75D
:100C7000E3FBEBE7EC2300206A2100205621002053
:100C8000602100205E210020BD990200D49F020057
:100C900010B504462088102806D0112808D0122844
:100CA0000ED0502810D107E0204604F0DDFE0CE005
:100CB000204604F003FF08E0204604F0DFFF04E0D4
:100CC000204604F0C1FE00E000BF00BF10BD0000E0
:100CD00010B504460348027D011D204607F0C3FA03
:100CE00010BD00002824002010B504460348C17D33
:100CF0002246001D07F0A0FA10BD000028240020A5
:100D000010B504460348017E2246001D07F094FA00
:100D100010BD00002824002070B50446208810284B
:100D200004D011281DD01A2840D11EE007F0B8F8D1
:100D3000A08806F02FFF20B900BF0420FFF76EFB4C
:100D40000EE0E07B022801D1012000E000200546F2
:100D5000A2882B461649A1F1120007F0A5FA00BFA0
:100D600024E0A08807F0BEF820E0207A0121B1EB52
:100D7000101F01DA012000E000200346A2880C4980
:100D8000491CA1F1130007F08FFA207A0221B1EB80
:100D9000101F01DA012000E000200346A288044968
:100DA000891CA1F1140007F07FFA00BF00BF70BDDD
:100DB0003E24002070B5044600250B48017D2246E4
:100DC000001D07F039FA60B10748817D2246001DF9
:100DD00007F032FA06460EB1022000E00120054677
:100DE00000BF284670BD00002824002010B5002454
:100DF0000AE0204608F034FE20B9204608F026FE1E
:100E0000204610BD601CC4B2182CF2DB1820F8E795
:100E100010B50446204608F023FE10B10248005DDC
:100E200010BD0020FCE700004124002070B50546FD
:100E30000C46204608F014FE30B10448015D2A46F5
:100E4000153807F0F9F970BD0020FCE741240020B7
:100E500070B505460C461646204608F001FE30B136
:100E60000348011933462A46153807F01DFA70BDAC
:100E7000412400202DE9FC4105460C4617462088F8
:100E80000930B84202D90C20BDE8FC8168466DDF0C
:100E9000064600BF0EB13046F6E700BF08202188A5
:100EA00068542088401C20801B202188685420889A
:100EB000401C208020882844DDF801100160BDF826
:100EC000051081802088801D20809DF8000040084A
:100ED00018B900202188685402E001202188685454
:100EE0002088401C20800020CEE7000010B504467A
:100EF0002046FFF711FF204606F0F4F92146064888
:100F000000F062F82046FFF7C3FE204604F0A6FC7E
:100F10002046FFF791FD10BD6822002070B586B015
:100F200004460E46274B0FCB01AD0FC500BF14B9C9
:100F30000E2006B070BD00BF00BF0EB90E20F8E74E
:100F400000BF4FF6FF70A0803078A07170682062FB
:100F5000B0686062214601A863DF054600BF0DB19D
:100F60002846E6E700BF20788DF816000120ADF88E
:100F70001400A21C05A9A0DF054600BF0DB128463C
:100F8000D7E700BF3146204602F016F9054600BFFC
:100F90000DB12846CDE700BF3146204602F08EF95C
:100FA000054600BF0DB12846C3E700BF31462046C5
:100FB00002F025FA054600BF0DB12846B9E700BF8B
:100FC0000020B6E7889F020070B505460C4605B1C3
:100FD00004B970BD2088102804D0112807D05028EB
:100FE0000FD109E02146284604F03AFD0AE02146E7
:100FF000284604F05FFD05E02146284604F00AFE7D
:1010000000E000BF00BF00BFE3E737B584B004468F
:101010000D4600BF14B90E2007B030BD00BFA08838
:101020004FF6FF71884201D0A07908B90820F3E794
:10103000BDF81800142801DD0720EDE7002000901E
:10104000019002900390208AADF80000039506A855
:10105000029001208DF80200A0886946A6DFDBE738
:1010600070B50446204608F070FC054605F0010006
:1010700070BD000070B588B027480068079000BFB9
:1010800000235022254907A807F090FF054600BF1E
:101090002E4626B100BF3046FFF7C0F900BF00BFA3
:1010A00000BF6A460121002007F060FF044600BF30
:1010B000254625B100BF2846FFF7B0F900BF00BFA5
:1010C0001720ADF81000684607F0DEFE044600BFAA
:1010D000254625B100BF2846FFF7A0F900BF00BF95
:1010E0000F4807F0C5FE044600BF254625B100BFE6
:1010F0002846FFF793F900BF00BF0A4807F0AAFF90
:10110000044600BF254625B100BF2846FFF786F9F3
:1011100000BF00BF08B070BD6C9F020030230020EC
:10112000ED0E02003793020010B5032000F056FBCD
:10113000044600BF1CB1062C01D0204610BD00BFE4
:101140000020FBE72DE9F04105460F464FF000086F
:10115000002400E0641C042C04D22A4850F8240027
:10116000A842F7D1042C41D227B3012F02D0022F7D
:101170003BD133E004EB4400234911F8008004EB39
:1011800044000844407868B12048006800EB8000C3
:1011900041001F4A1F480068FFF7B2F906460EB922
:1011A0001B48057004EB44001749084480781A492D
:1011B00008551AE017480068FFF7CCF91648005D9B
:1011C00004EB4401104A11448978884205D104EBAC
:1011D00044001146084490F8028006E004EB440005
:1011E0000949084490F8018000BF00BFB8F1000F22
:1011F00006D00A48006818B140460849096888477F
:10120000BDE8F081A49F0200C023002040210020FF
:1012100050210020A09F0200512100204C210020DD
:1012200070B5044600250548007800F0010018B1AB
:10123000204600F005F80546284670BD44210020F0
:101240002DE9F041044600260025182C7DD2DFE868
:1012500004F00C1D1E68B4EEEDECEBEAE9E8E7E6FD
:10126000E5E4E3E2E1E0DFDEDDDC00BFFD4801684C
:101270004FF4F010884300F4F010FB4908600020A0
:10128000091D086000BFF948047098E200BF00BF64
:10129000F44801684FF4E010884300F4F010F2497C
:1012A00008600020091D086000BFEF48001F0068AB
:1012B00080F4F01000F4003088B100BF4FF400302B
:1012C000091F08600020091D086000BF022C02D120
:1012D0004FF4E16001E04FF47A60054610E000BF92
:1012E0004FF40030E049091D08600020091F086024
:1012F00000BF022C01D1C82001E04FF4C8700546A0
:10130000DA4804706420B5FBF0F0D949096800FBA5
:1013100001F700223946D7480068FFF7F1F8064682
:101320004DE200BFCF4801684FF4E010884300F45D
:10133000F010CD4908600020091D086000BFCA48B0
:10134000001F006880F4F01000E037E200F4003085
:1013500088B100BF4FF40030091F08600020091D4C
:10136000086000BF032C02D14FF4487001E04FF435
:101370007A60054610E000BF4FF40030BA49091DFD
:1013800008600020091F086000BF032C01D1C8209D
:1013900001E04FF4C8700546B44804706420B5FB02
:1013A000F0F0B349096800FB01F700223946B14863
:1013B0000068FFF7A5F8064601E200BFA9480168EA
:1013C0004FF4E010884300F4F010A74908600020B3
:1013D000091D086000BFA448001F006880F4F010D9
:1013E00000F4003020B300BF4FF40030091F086044
:1013F0000020091D086000BF042C02D14FF47A6060
:1014000001E04FF47A60054624E0CBE1C9E1B3E1A5
:101410009DE187E179E13FE13DE13BE139E137E100
:101420002AE105E1EDE0D3E0BBE0A1E06CE022E0E1
:1014300000BF4FF400308C49091D08600020091FCF
:10144000086000BF042C02D14FF4C87001E04FF4D3
:10145000C8700546854804706420B5FBF0F08449E7
:10146000096800FB01F70022394682480068FFF74F
:1014700047F80646A3E100BF7A4801684FF4E01040
:10148000884300F4F010784908600020091D0860C6
:1014900000BF7548001F006880F4F01000F40030B1
:1014A00080B100BF4FF40030091F08600020091D03
:1014B000086000BF052C01D1C82001E04FF47A601C
:1014C000054610E000BF4FF400306749091D086071
:1014D0000020091F086000BF052C01D1C82001E0D1
:1014E0004FF4C8700546614804706420B5FBF0F005
:1014F0005F49096800FB01F7002239465D48006832
:10150000FEF7FEFF06465AE100BF564801684FF459
:10151000E010884300F4F010534908600020091DD2
:10152000086000BF5048001F006880F4F01000F40D
:10153000003040B100BF4FF40030091F08600020A8
:10154000091D086009E000BF4FF400304649091D3D
:1015500008600020091F086000BF44480470444828
:101560000022016843480068FEF7CAFF064626E1EC
:1015700000BF3C4801684FF4E010884300F4F010CD
:10158000394908600020091D086000BF00BF4FF402
:10159000003008600020091F086000BF3348047055
:1015A0000DE100BF3049091F08684FF480218143D5
:1015B0002D4A116000F48021121D116000BF2C48DB
:1015C000002201682B480068FEF79AFF0646F6E005
:1015D00000BF2549091F08684FF480218143224A32
:1015E000116000F48021121D116000BF20480068C6
:1015F00000EB800100221F480068FEF781FF0646CD
:10160000DDE000BF1849091F08684FF480218143BD
:10161000154A116000F48021121D116000BF1448AA
:101620000022016813480068FEF76AFF0646C6E01C
:1016300000BF0D49091F08684FF4802181430A4A01
:10164000116000F48021121D116000BF084800687D
:1016500000EB8001002207480068FEF751FF0646B4
:10166000ADE0000048210020080500503C2100208A
:1016700040210020989F020000BF4FF4F010524913
:1016800008600020091F086000BF5048047096E001
:1016900000BF00BF00BF00BF4D480068FEF75AFF03
:1016A0000646C4F111050DB306BB4FF400204949AD
:1016B0000860012D0FD9C82068436421B0FBF1F008
:1016C0004549096800FB01F7002239464048006897
:1016D000FEF716FF064600BF3E48006800F4F01013
:1016E000394908600020091F08600DE000BF394833
:1016F000006800F4F0103449091F08600020091D3B
:10170000086000BF3349086059E000BF4FF4F01093
:101710002D49091F08600020091D086000BF2B48E3
:1017200004704CE000BF4FF4E0102749091F086027
:101730000020091D086000BF00BF4FF400300860A2
:101740000020091F086000BF2048047037E000BF78
:101750004FF4D0101C49091F08600020091D0860C3
:1017600000BF00BF4FF4802008600020091F086000
:1017700000BF1648047022E000BF4FF4C0101249A9
:10178000091F08600020091D086000BF00BF4FF45A
:10179000C02008600020091F086000BF0B480470CB
:1017A0000DE000BF00BF4FF4F010074908600020B3
:1017B000091F086000BF0548047000E000BF00BFBB
:1017C0003046BDE8F08100000C0500503C210020AF
:1017D0009C9F0200482100204021002030B5024695
:1017E00000201AE00F4C54F82040A40004F1A0445B
:1017F000D4F800170124844014400CB1032400E005
:101800000024234621F4403141EA0341064C054DB2
:1018100055F8205044F82510401C0428E2D300203D
:1018200030BD0000A49F02000007005002460029BE
:1018300001DA002003E013680B44136001207047B5
:101840002DE9FC410446641C01260127002001907B
:1018500001A8FEF797FE1A48006819494968411A1D
:1018600017488068401C451A04EB0608A8451BD998
:10187000C5B114480068009013480068009960F3EF
:101880009F2100910E48009A00680D490968491C83
:101890000B4B196019468968084003F10C0141F8A7
:1018A000202000BF002704E00548006820440449C8
:1018B00008609DF80400FEF76BFE3846BDE8FC8129
:1018C0006C2C00209CA002003822002004484068B4
:1018D00003490968884201D1012070470020FCE7D4
:1018E0006C2C002030B502460B4602210EE08C0025
:1018F00042FA04F404F00F00092802DD00F1370475
:1019000001E000F13004C1F101055C550C1EA1F1AC
:101910000101ECD130BD01468879012809D108794F
:10192000012806D1488842F60212904201D10120D6
:1019300070470020FCE700000146024850F82100F3
:101940007047000064290020014601484056704756
:10195000942900200146202903DB7E2901DC08466A
:1019600070472E20FCE70000014639B10448884248
:1019700004D80448884201D9012070470020FCE7C0
:10198000582200206822002070B505460E4600242B
:1019900007E055F8340002F023FA08B9002070BDC2
:1019A000641CB442F5D30120F9E700000A49496CF0
:1019B00081B10949096C084A02EBC1010160114675
:1019C00091F84010491C01F0070111641146496C5F
:1019D000491E516470470000802A002006490268B1
:1019E0008A4203D0016808310160704702493839E2
:1019F000016000BFF9E70000B82A00200178022941
:101A000002D0017803290BD106490A6C817D11446B
:101A1000044A116411464A6C817D511A014A51648D
:101A200070470000802A00202DE9F04104460D4651
:101A30004FF6FF76304684420AD14FF48071284633
:101A400005F00AFC0646B6F5807F0FD126460DE06C
:101A5000FF2C0BDC2146284605F0EEFB07460FB1B4
:101A6000204601E04FF6FF70064600BF3046BDE855
:101A7000F081000070B505460DB9094C01E0084C35
:101A8000083409E0204602F0B3F9064606B904E03E
:101A900028467168884700BFF4E700BF70BD0000AA
:101AA000582900202DE9F04782461F480068002889
:101AB00036D01D480068056806F058FA07461B48EE
:101AC00004682146384607F03FFCC61C18480078D9
:101AD00008B906F05DFAAE4201D2284600E0304671
:101AE000044424F07F44204606F03AFA06F03EFA19
:101AF00080463946404607F027FC00F10309394685
:101B0000204607F021FC814509D906F02FFA8146CD
:101B100006F026FA2F2002F049FE07F06DFD01E0E5
:101B200006F054FABDE8F087F4210020F8210020E7
:101B30000C22002001460888062808DB0888B0F53A
:101B4000486F06DD08884FF6FF72904201D00720EB
:101B500070474888062808DB4888B0F5486F06DDDE
:101B600048884FF6FF72904201D00720F0E70888BE
:101B70004FF6FF72904208D04888904205D00888FE
:101B80004A88904201DD0720E2E70020E0E72DE9E6
:101B9000F04106460D46144698462088801D404573
:101BA00002D90C20BDE8F0813046FFF7C3FF07469D
:101BB00000BF0FB13846F5E700BF05202188685403
:101BC0002088401C20801220218868542088401CD6
:101BD000208022885119308807F0BDFE21880844F2
:101BE000208022885119708807F0B5FE21880844AA
:101BF00020800020D6E710B5044600BF2046FEF73F
:101C00000DFC00BF10BD000030B587B01C21684638
:101C1000FDF72BFC002000904FF4203001904FF492
:101C20007020029003208DF80C000D48808AADF8DA
:101C30000E0000208DF810000A4805900A48069012
:101C40006846FEF7EDFF044600BF254625B100BFFC
:101C50002846FEF7E3FB00BF00BF07B030BD000021
:101C6000682200201D5A0200F71B020038B51B48ED
:101C700002F098F820BB1A48007848B1194840692A
:101C8000E8B100200090174841696846884716E08F
:101C90001548007810B91348456801E01148856877
:101CA0000022294611480068FEF72AFC044634B198
:101CB0000C48806918B10B4881692046884709E0C3
:101CC0000848406930B101200090064841696846E3
:101CD000884700BF00200249087038BD62210020FB
:101CE0006A210020EC2300205E210020D49F020006
:101CF0003EB504462088FEF7F7FFD0B12088104992
:101D00000978FFF793F828B9208800220D4909784F
:101D1000FFF79EF82088ADF8020005208DF800003E
:101D20002088FEF7EDFF8DF80400684600F042FAC7
:101D300005E02088012241F2060100F06DF83EBD69
:101D4000D3210020D221002070B506460D460EB1E9
:101D5000012070BD287920B1012809D0022813D1B3
:101D60000FE0284605F080FF0446022028710DE0B0
:101D7000284600F09FFC04460A2C01D141F61D5470
:101D800004E041F61D5401E00F2400BF00BF2046CF
:101D9000DFE770B5044620793D2802D141F23D00CD
:101DA00001E04FF48850054620880022294602F0C1
:101DB00081F970BD014614480078144A12789042A7
:101DC0001DD011480078401C0F4A10701046007852
:101DD000022801D1002010700D480B4A127850F8EB
:101DE000220008600B4A086812681044094A106013
:101DF0001046006820F07F401060012070470020EE
:101E0000086000BFFAE7000004220020052200203D
:101E1000FC210020F8210020FEB504460D461646A0
:101E2000094A07CA8DE80700ADF80240ADF8045032
:101E30008DF806600022054801782046FFF708F873
:101E4000684600F0B7F9FEBD58A00200D22100207C
:101E500010B50446A08928DF10BD000013480078A3
:101E6000062820D11148001D007800F00F00D0B9DD
:101E70000E480830007800F0F000302801D1012031
:101E800070470A480830007800F0F000402801D17F
:101E90000120F5E705480830007800F0F0005028F0
:101EA00001D10120ECE70020EAE70000E00F00F09C
:101EB0000A48007806280ED10848001D007800F076
:101EC0000F0040B905480830007800F0F0003028D5
:101ED00001D1012070470020FCE70000E00F00F076
:101EE00013480078062820D11148001D007800F022
:101EF0000F00D0B90E480830007800F0F00030280C
:101F000001D1012070470A480830007800F0F00045
:101F1000402801D10120F5E705480830007800F09D
:101F2000F000502801D10120ECE70020EAE7000092
:101F3000E00F00F00A48007806280ED10848001D7E
:101F4000007800F00F0040B905480830007800F034
:101F5000F000302801D1012070470020FCE700008C
:101F6000E00F00F013480078062820D11148001D2A
:101F7000007800F00F00D0B90E480830007800F06B
:101F8000F000302801D1012070470A48083000785D
:101F900000F0F000402801D10120F5E705480830A5
:101FA000007800F0F000502801D10120ECE700207B
:101FB000EAE70000E00F00F00A48007806280ED19A
:101FC0000848001D007800F00F0040B905480830AF
:101FD000007800F0F000302801D101207047002087
:101FE000FCE70000E00F00F00A48007806280ED158
:101FF0000848001D007800F00F0040B9054808307F
:10200000007800F0F000302801D101207047002056
:10201000FCE70000E00F00F00A48007806280ED127
:102020000848001D007800F00F0040B9054808304E
:10203000007800F0F000502801D101207047002006
:10204000FCE70000E00F00F00278072A34D2DFE856
:1020500002F0330407102029300000220A702CE01F
:1020600001220A7003898B818388CB81C2688A60D0
:1020700023E002220A7003898B818388CB81C268A6
:102080008A60027C062A01D1012300E000230B7440
:1020900013E003220A70C3888B810389CB81C26855
:1020A0008A600AE004220A70C3888B810023CB81F6
:1020B00003E005220A7000E000BF00BF7047000087
:1020C00070B50546002409E0064850F8240020B108
:1020D000044850F8241028468847641C082CF3D381
:1020E00070BD0000E82900203EB505460C46DCB175
:1020F000112C19D00020009001900290ADF80250F0
:1021000001940D2C03D10B208DF8000008E0042C65
:1021100003D10A208DF8000002E009208DF80000AC
:10212000684600F057F800BF3EBD000070B5054698
:10213000002405E0044850F8241028468847641C11
:10214000002CF7D070BD00008C21002070B5054632
:10215000002405E0044850F8241028468847641CF1
:10216000002CF7D070BD00009821002070B5054606
:10217000002405E0044850F8241028468847641CD1
:10218000022CF7D370BD0000F09F020070B5054629
:10219000002405E0054850F8241028468847641CB0
:1021A000034800788442F5DB70BD0000EC28002075
:1021B000CE21002070B50546002405E0044850F803
:1021C000241028468847641C022CF7D370BD0000F9
:1021D00020A0020070B50546002405E0044850F830
:1021E000241028468847641C002CF7D070BD0000DE
:1021F00064A00200F0B5034600241FE0124E3068D0
:1022000006689E4203D90668F61A06601AE0066858
:102210009B1B06683444002606600B4E35680A4F47
:10222000C6693E60C66846B10E1926F07F46466014
:10223000C66886601668C661156000BF02480068FF
:102240000028DBD100BFF0BDF42100201FB50446FB
:10225000606808B9012000E000200390207806287B
:102260007BD2DFE800F0820304304F7B00BFA089FF
:1022700000F045FA18B9E08905F005FE10B3A08911
:1022800000F038FAADF80200E08905F0F9FD8DF8AC
:1022900004002078012807D1606808B9002000E018
:1022A00003208DF8000006E0606808B9012000E016
:1022B00004208DF8000060680390A06802906846D2
:1022C00004F0F2F952E0A08900F019FA18B9E08997
:1022D00005F0D9FDA8B1A08900F00CFAADF8020014
:1022E000E08905F0CDFD8DF80400606808B9022092
:1022F00000E005208DF80000A0680290684604F018
:10230000D3F933E0A08900F0FAF928B3E08918BBCB
:10231000A08900F0EFF9ADF80200E08905F0B0FD0A
:102320008DF80400FF208DF80400606838B906209D
:102330008DF80000BDF8020004F0CCFB02E007209D
:102340008DF8000000200E4908700E49087004F056
:102350000BFB684604F0A8F908E006E008208DF8B9
:102360000000684604F0A0F900E000BF00BF044888
:10237000007820B100200249087004F0F5FA1FBD72
:10238000A9210020AA21002010B588B0044602200F
:1023900000F0DCF910B9022008B010BD4FF6FF7054
:1023A000844201D10420F7E705208DF804000120C4
:1023B0008DF80800ADF80A400022114601A803F08C
:1023C00083FC18B105F0A4FB0020E5E70820E3E753
:1023D00000B587B0022000F0B9F910B9022007B0AB
:1023E00000BD06208DF8000000221146684603F06B
:1023F0006BFC48B10548007810B10120034908730F
:1024000005F086FB0020EAE70820E8E7E82A00203C
:1024100010B58CB0142107A8FDF727F8022000F0B2
:1024200095F928B107A8FFF74BFE00200CB010BDAE
:10243000012000F08BF908B10020F7E7012000F03F
:1024400091F900F05FFA03F04BFD04460CB90B2044
:10245000ECE7062C0AD1022000F084F9012000F0FC
:102460005BF907A8FFF72CFE0020DFE701208DF8BD
:1024700000000C2C1AD2DFE804F019061907191411
:102480001915190B100C00BF00208DF804000EE088
:1024900000BF03208DF8040009E002208DF804003D
:1024A00005E000BF01208DF8040000E000BF00BF80
:1024B00000221146684603F007FC05F029FB0020C6
:1024C000B4E7000038B504460CB9052038BD6946AC
:1024D000204605F0EDFBE0B10F48BDF8001000EB21
:1024E00001108089002812DDA07A80B10A48BDF869
:1024F000001000EB01108089401E0749BDF8002044
:1025000001EB021188810020A072002502E006255F
:1025100000E00A252846D9E7C82A00207FB51446DE
:102520001D462B46224601A9684605F059FB04B01A
:1025300070BD37B50C4615462B462246694600202D
:1025400005F04EFB3EBD37B50C4615462B462246E0
:102550000021684605F044FB3EBD024602B109B9C0
:1025600005207047106808600020FAE738B5044677
:102570000D4604B10DB9052038BD6946204605F069
:1025800097FBA8B161680B48BDF8002000EB021072
:102590008089401C074ABDF8003002EB031290818D
:1025A000296060680C3068600120A0720020E3E7B9
:1025B0000A20E1E7C82A002070B504460D460CB990
:1025C000052070BD032300222946204607F0A8FB02
:1025D000F7E770B504460D4602230022294620463F
:1025E00007F09EFB70BD70B505460E4614460CB94B
:1025F000052070BD022322463146284607F090FB95
:10260000F7E700000146094A1278082A01D10C2098
:102610000AE0074A054B1B7842F82310034A127858
:10262000521C024B1A70002070470000112200203B
:10263000E8290020F8B504460D46022000F086F88F
:1026400008B90220F8BD0CB90520FBE76946284609
:1026500007F052FC06461EB9BDF8000020806580D8
:102660003046EFE770B50446022000F06FF808B975
:10267000022070BD0CB90520FBE72088022801DD8F
:102680000420F6E720880A4901EB0016718960886A
:10269000C01C081A08D42188608807F01FFC00209D
:1026A00020806080002500E004252846E1E7000046
:1026B000C82A00203EB504460C4B6A460021A01DE6
:1026C00005F08EFA05465DB9019805F05FFB0546F9
:1026D000012006498988064A02EB0111887303E04C
:1026E000024800210160416028463EBD20220020B2
:1026F000C82A00200146A1F5404080B2704701463B
:10270000B1F5404F05DB4FF6FE70814201DC012040
:1027100070470020FCE70000024909788143014A24
:10272000117070471022002010B504462078182838
:1027300002D1FEF75BFB207010BD10B50446207877
:10274000182802D1FEF752FB207010BD0146044844
:102750000078084008B1012070470020FCE7000025
:1027600010220020024909780143014A1170704784
:102770001022002030B504461088C01C984201D9B0
:102780000C2030BD0220158848551088401C108050
:102790000120158848551088401C108015884C551C
:1027A0001088401C10800020EBE700002DE9F0416C
:1027B00006460C4615460027B846042C03D0112CBB
:1027C00001D0002C35D1042C03D14FF00008012793
:1027D00009E0112C03D14FF00108002703E014B9E0
:1027E0004FF000080027C5B13A461348017830463B
:1027F000FEF72EFB4246114801783046FEF728FBD3
:1028000000220F4801783046FEF722FB00220D48D7
:1028100001783046FEF71CFB0BE03A460848017889
:102820003046FEF715FB4246064801783046FEF773
:102830000FFBBDE8F0810000E9210020E821002025
:10284000E5210020E421002008B5684600F0BAF830
:10285000009808B1012008BD0020FCE7F8B5054646
:102860000C4616461F461C48007800F0010008B9C7
:102870000120F8BD2846FFF777F808B90220F8E7ED
:102880000CB90320F5E7C4F30B0008B10620F0E70C
:102890002868A04204D804EB06306968884201D950
:1028A0000520E6E70EB90420E3E7684605F074F872
:1028B00008B90720DDE7009847600098056002200E
:1028C00000990872C4F30F3000998881009806823D
:1028D00005F02AF90020CCE72822002070B5054633
:1028E0000C46204605F08CF870BD4FF01020416971
:1028F000481C08B1084670474FF0805040690003FB
:10290000F9E700002DE9F0412B482C49401A040951
:102910002948401A0509FFF7E8FF064628480078CD
:1029200000F0010010B10020BDE8F081002008E0B7
:10293000224A02EB00110A6812B14A6802B16D1E08
:10294000401CA042F4D300202BE01C4901EB0012F4
:102950004FF0000CC7B2002117E0DFF8608008EBF1
:102960000113D3F80080B8F1000F05D0D3F804802C
:10297000B8F1000F00D007E093F80D80E04502DDCC
:1029800093F80DC0CFB200BF491CA142E5D30B495B
:1029900001EB07125660117BA6EB0131116016683E
:1029A000401CA842D1D30648007840F001000449F9
:1029B00008700020B8E7000068220020582200209C
:1029C00028220020014609B9032070470248406EC2
:1029D00008600020F9E70000042B00202DE9F843EF
:1029E00005460C4616461F46DDF820801F48007835
:1029F00000F0010010B90120BDE8F8832846FEF779
:102A0000B3FF08B90220F7E706B10CB90320F3E7DA
:102A100006F0030010B904F0030008B10620EBE74C
:102A20002868A04204D804EB87016868884201D274
:102A30000520E1E70FB90420DEE7684604F0ACFFAB
:102A400008B90720D8E70098C0F80480009805600E
:102A50000120009908720098C660009804610098EF
:102A6000878205F061F80020C6E7000028220020D8
:102A700070B504461748006E00EB4000154901EBA5
:102A8000C0051548007800F0020068B1022C02D0A1
:102A9000032C08D103E0284603F064F803E028463D
:102AA00003F04AF800BF12E00B48007800F0040081
:102AB00068B10948007820F004000749087005480B
:102AC000406E20B10846007840F00200087004F023
:102AD000E9FF70BD042B0020282200203EB500BF76
:102AE0009DF8000020F00F00401C00909DF80000B1
:102AF00020F0F0001030009000BF062214A16846BC
:102B00007CDF044600BF254625B100BF2846FDF7FF
:102B100085FC00BF00BF0020019002901020ADF89E
:102B200004003C20ADF806000020ADF808004FF48A
:102B3000C870ADF80A0001A87ADF044600BF254638
:102B400025B100BF2846FDF769FC00BF00BF3EBDB0
:102B5000486170746963000070B505460DB10120CD
:102B600070BD1848007B18B100201649087301E0B9
:102B700000F0D4F81348007808281DD2DFE800F0F0
:102B80001C04080C101C141800F03CF8044615E056
:102B900000F0B2F8044611E000F08EF804460DE0B3
:102BA00000F044F8044609E000F01CF9044605E092
:102BB00000F028F9044601E00F2400BF00BF2046C2
:102BC000CEE70000E82A00200C480089401C0B4991
:102BD000088100204880087300BF0CE0084901EB21
:102BE0000011097809B9012200E0002203490A31E5
:102BF0000A54411C88B20228F0DB7047E82A002002
:102C0000C82A002010B5084800F032F840B900206A
:102C10000549891E08704880486041F61D5010BD66
:102C200000F06AF8FBE70000EA2A002070B50D48C2
:102C300045880D4800EB0510808968B90A4800EB0B
:102C400005100023012241680848FFF707FE0446EB
:102C500004200449087002E000F08CF80446204685
:102C600070BD0000E82A0020C82A00205822002059
:102C700010B501460022002015E00D4B1B5C83B10E
:102C800000240B4B1C540B4B03EB00139B8943B9E3
:102C9000084B03EB00139B7B012B02D10880012220
:102CA00003E0431C98B20228E7DB00BF104610BDCA
:102CB000F22A0020C82A0020F8B50C4844680C48C5
:102CC00000680B49898800EB81056088C01C86B2CA
:102CD0000320064908700020009008463346294624
:102CE00042680448FFF77AFEF8BD0000E82A002099
:102CF000182200205822002010B507494888091DD5
:102D000005F014F818B1FFF7D7FF044602E0FFF70B
:102D10008DFF0446204610BDE82A002010B5144857
:102D20000078082820D2DFE800F0041F1F0A1016E0
:102D3000171BFFF749FF01200D49087015E000F04F
:102D40006DF802200A4908700FE000F029F806200B
:102D50000749087009E000BF07200549087004E032
:102D600001200349087000E000BF00BF10BD000053
:102D7000E82A002010B505200649087002200649FF
:102D8000888008460023012201680448FFF766FD99
:102D900010BD0000E82A0020182200205822002040
:102DA0000D4908680D4949880D4A02EB011149682F
:102DB000094A116009494988094A02EB0111486032
:102DC00005498988054A5288054B03EB0212118197
:102DD0000221014A9180704718220020E82A002031
:102DE000C82A002010B50620044908704988044A02
:102DF00002EB0111486803F051F810BDE82A0020E9
:102E0000C82A002010B50720034908700020486038
:102E100003F054F810BD0000E82A0020054A50686D
:102E20004288D21C91B2044A92880A44024B9A808A
:102E300070470000E82A0020182200203EB5044612
:102E40002088502821D0522802D0542825D103E0D0
:102E5000A08801F05FFA20E006208DF80000A0882D
:102E600000F0E8FDADF80200A088ADF80400BDF860
:102E7000020000F041FBA08800220C490978FDF710
:102E8000E7FF6846FFF752F907E0A01DFEF743FD94
:102E900010B1A08801F08EFA00BF00BFFDF726FC3C
:102EA00006F060FD05F0B6FB3EBD0000932100205A
:102EB0003EB504466088ADF80200207820B10128B4
:102EC0000FD002282BD116E000208DF800006846B4
:102ED000FFF72CF9608800F0D7FC054601F01AFADC
:102EE0001DE001208DF80000A088ADF804006846C0
:102EF000FFF71CF913E0207980B1608800F0C4FC72
:102F000005464FF6FF70854207D00122054801783B
:102F10002846FDF79DFF05F07DFB00BF00BF00BF09
:102F20003EBD00009321002010B504462078012802
:102F30000DD1608801F0EEF9608800F0C1FB28B186
:102F40006088012203490978FDF782FF00E000BF95
:102F500000BF10BD9321002010B500F087FEFDF7E3
:102F600045FF12490870FDF741FF11490870FDF750
:102F70003DFF10490870FDF739FF0F4908700B48F5
:102F8000007818280BD00A480078182807D009487C
:102F90000078182803D008460078182801D10320AB
:102FA00010BD0120054908700020F9E7912100209B
:102FB00092210020932100209421002090210020C4
:102FC00010B586B000F0B0FA01A8FDF781FE00242C
:102FD00012E002A931F8140000F02CFD4FF6FF7149
:102FE000884207D102A931F8140001220649097864
:102FF000FDF72EFF601C84B20198A042E9D805F0CD
:1030000009FB06B010BD00009321002010B5044656
:103010002078072803D1608801F0CCF900E000BFD8
:1030200000BF10BD10B504460B4801782046FDF7DF
:10303000FDFE70B100210AE001EB4100074A02EBFE
:1030400080004088A04201D1C8B210BD491C0829A7
:10305000F2D3FF20F9E70000A32100200C25002077
:1030600010B500240DE004EB4401084A02EB810195
:10307000488807490978FDF7D9FE08B9E0B210BDC4
:10308000641C082CEFD3FF20F9E700000C2500207A
:10309000A321002070B506460C46154622782B4623
:1030A00002A1032002F08EFA70BD00004150503A98
:1030B000494E464F3A7265636569766520466C6194
:1030C0006720646174612069732025642C206C651D
:1030D0006E677468203D2025640D0A002DE9F041DB
:1030E00007460C46904614A1032002F0FFF9204643
:1030F000FCF7C6F986B23346224618A1032002F037
:1031000081F919A1032002F0F1F96378227819A15D
:10311000032002F057FA2078617840EA01252A4618
:103120001CA1032002F014FA224821880180A17812
:103130008170BDE8F08100004150503A494E464F41
:103140003A726563656976652052756D626C6520BB
:103150006461746120697320000000004150503A9E
:10316000494E464F3A0D0A004150503A494E464F9B
:103170003A0A00004150503A494E464F3A6C6F7738
:10318000203A2025782C2068696768203A20257825
:10319000200D0A004150503A494E464F3A636F6E37
:1031A000766572742064617461203A2025640D0A8A
:1031B000000000002E21002030B58FB004460D46DF
:1031C0001C2101A8FCF751F99DF8040020F0020031
:1031D000801C8DF804009DF8040020F008000830E1
:1031E0008DF804009DF8040020F00400001D8DF807
:1031F000040000200290049006900790059020782B
:103200008DF83A000420ADF838000020089000BF87
:103210009DF8200020F00F00401C8DF820009DF844
:10322000200020F0F00010308DF8200000BF00BF1B
:103230009DF8210020F00F00401C8DF821009DF822
:10324000210020F0F00010308DF8210000BF9DF823
:10325000220020F00600801C8DF822009DF822003C
:1032600020F001008DF822009DF8220020F00800D7
:103270008DF822009DF8220020F010008DF8220029
:10328000142109A8FCF7F1F80120ADF82C0000206A
:10329000ADF82E000120ADF8300008A80A900EA865
:1032A000099005480D90608804F1080309AA01A956
:1032B000A2DF0FB030BD00003821002030B58FB044
:1032C00004460D460020079000BF9DF81C0020F02A
:1032D0000F00401C8DF81C009DF81C0020F0F00031
:1032E00010308DF81C0000BF00BF9DF81D0020F0BD
:1032F0000F00401C8DF81D009DF81D0020F0F0000F
:1033000010308DF81D0000BF9DF81E0020F0060053
:10331000801C8DF81E001C216846FCF7A6F89DF85D
:10332000000020F0100010308DF800009DF8000023
:1033300020F00200801C8DF8000000200190039016
:10334000049007A805900020069020788DF83A0098
:103350000220ADF838000020089000BF9DF8200042
:1033600020F00F00401C8DF820009DF8200020F078
:10337000F00010308DF8200000BF00BF9DF8210044
:1033800020F00F00401C8DF821009DF8210020F056
:10339000F00010308DF8210000BF9DF8220020F0D1
:1033A0000600801C8DF822009DF8220020F001000C
:1033B0008DF822009DF8220020F008008DF82200F0
:1033C0009DF8220020F010008DF82200142109A899
:1033D000FCF74BF80120ADF82C000020ADF82E00D2
:1033E0001420ADF8300008A80A900EA80990608853
:1033F00004F1100309AA6946A2DF0FB030BD30B551
:103400008FB004460D461C2101A8FCF72EF89DF84C
:10341000040020F00200801C8DF804009DF80400D8
:1034200020F0080008308DF804009DF8040020F01A
:103430000400001D8DF80400002002900490079005
:10344000059020788DF83A000620ADF8380000206D
:10345000089000BF9DF8200020F00F00401C8DF860
:1034600020009DF8200020F0F00010308DF82000A2
:1034700000BF00BF9DF8210020F00F00401C8DF818
:1034800021009DF8210020F0F00010308DF821007F
:1034900000BF9DF8220020F001008DF822009DF869
:1034A000220020F00600801C8DF822009DF82200EA
:1034B00020F008008DF822009DF8220020F0100076
:1034C0008DF82200142109A8FBF7CFFF0120ADF8E9
:1034D0002C000020ADF82E000320ADF8300008A825
:1034E0000A900EA80990608804F1180309AA01A99E
:1034F000A2DF0FB030BD00001CB50446044903C96B
:10350000CDE9000100226946204602F04CFF1CBDB7
:10351000E89F020010B500F0AFFB012001490870E0
:10352000002010BD9C21002010B54FF6FF7002F066
:103530000DFE0249088005F0A3F810BD9E21002071
:103540002DE9FC478146484600F074FA05460026FE
:1035500000274FF003084FF0010A4FF6FF70854235
:103560000CD06A460821284602F0E6FE04462CB933
:103570000198861D8788D0F8008000BF00BF4346B1
:103580003A4631464846A9DF0446042C01D11124AD
:1035900015E0082C01D1002411E00B2C0FD14FF0C5
:1035A000000A08F0020010B14FF0010807E006B968
:1035B00027B1002600274FF0030800E003240B2C5E
:1035C000DDD0BAF1000F00D10B242046BDE8FC8706
:1035D0002DE9FC478046404600F02CFA07464FF69E
:1035E000FF70874203D143F20200BDE8FC874FF031
:1035F00001094FF0000A00BF4FF0000A4A46511C73
:103600001FFA81F96B460821384602F0D7FE0446BE
:1036100004BB019D032028602A1DA91D40462B687C
:10362000AADF04462CB90821384602F07DFF044683
:103630000FE00C2C02D14FF0010A02E0052C00D162
:1036400000240821384602F053FF064606B1032441
:1036500000BF02E0072C00D10C24BAF1000FCBD13F
:1036600000BF2046C1E700007FB50446207801284E
:103670001BD12079012818D1608802AA012102F00B
:103680005BFE054685B902208DF800006088ADF824
:10369000020003A808B1012000E000208DF804001A
:1036A0006846FEF753FD00BF00BF044800884FF690
:1036B000FF71884201D004F0E3FF7FBD9E2100200E
:1036C0007CB50446204600F0B5F906466A4601215D
:1036D000304602F031FE05460DB100207CBD019858
:1036E0000078FBE770B505464FF6FF7600BF4FF652
:1036F000FF720A4801882846A7DF044643F2030008
:10370000844204D105480088401C0449088043F2E3
:1037100003008442EBD0204670BD0000A0210020B1
:10372000014688884FF6FF72904203D0088808B19E
:10373000012070470020FCE73EB504460D46207886
:103740000221B1EB500F01D000203EBDB4F80100C2
:10375000ADF80800E0788DF80A00A188ADF80010F7
:10376000A0798DF8020001AA69462846FCF7EDFD14
:10377000032201A902A8FBF78AFE08B90120E4E7A9
:103780000020E2E770B506460C463046FFF74AFCDB
:103790000546FF2D0CD005EB4500064901EB8000E6
:1037A000416821600189A180807AA071002070BDEC
:1037B0000520FCE70C25002070B590B00446208859
:1037C000102801D010B070BD3422211D03A8FBF7D2
:1037D00033FE4FF6FF759DF810000321B1EB500F3B
:1037E00035D002F0C7FF9DF81000400820B1012835
:1037F00003D0022828D114E000BF09E0019800F1AD
:10380000110104A8FCF72EFC10B1BDF8085006E029
:103810006A4602A9072002F07FFF0028EED100BF10
:1038200013E008E00198411C04A8FFF785FF10B1E0
:10383000BDF8085006E06A4602A9072002F06CFFB6
:103840000028EFD100BF00E000BF00BF00BFBDF8FF
:103850000C0004A900F040FF06464FF6FF708542B9
:103860000FD0BDF80C00294600F088F8BDF80C0018
:10387000ADF8060001208DF8040001A8FEF776FCE3
:1038800000BF00BF9EE70000024600210DE001EBF3
:103890004100084B33F82000904205D101EB410074
:1038A00003EB800040887047491C0829EFD34FF68E
:1038B000FF70F8E70C25002010B500F0E9F9FDF7DE
:1038C00095FA0649087008460078182801D10320A7
:1038D00010BD0120024908700020F9E7A321002053
:1038E000A22100202DE9F04104460D46601C00F0A5
:1038F0006BFA10B90020BDE8F0811022691C601C31
:10390000FBF7C5FD08B9012000E00020074605F1DE
:10391000110104F11100FCF7A5FB064607B90EB131
:103920000120E8E70020E6E70246108808B1012000
:103930007047002105E0901C405C08B10120F7E7CA
:10394000491C0829F7D30020F2E770B505460C465C
:103950002846FFF7E9FF08B9002070BD28882188B4
:10396000884201D00020F8E70822A11CA81CFBF720
:103970008EFD08B90120F0E70020EEE770B504469F
:103980000D462946204603F007F970BD30B587B0D3
:103990000446207810B92079072801D007B030BD3F
:1039A000608804AA072102F0C7FC054605B1F5E7C7
:1039B00002F0E0FE1EE06088BDF81810884200D1D9
:1039C00018E003990598FFF78DFF90B16088FFF725
:1039D0005BFFADF8020000208DF800006088ADF8B4
:1039E0000400BDF81810ADF806106846FEF7BEFBDF
:1039F00007E000BF02AA06A9072002F08DFE0028FA
:103A0000D9D100BF00BFC9E770B506463046FFF701
:103A10003BFF0446304602F09AFC05464FF6FF7025
:103A2000844204D01DB90146204603F0B5F828466B
:103A300070BD000070B505462846FFF7F3FA04464E
:103A4000FF2C05D004EB4400034931F8200070BD81
:103A50004FF6FF70FBE700000C2500203EB5044642
:103A600002F088FE10E0019800F146012046FFF7C1
:103A70006CFF30B9019800F12A012046FFF765FF7D
:103A800010B1BDF808003EBD6A4602A9072002F049
:103A900043FE0028E7D14FF6FF70F4E72DE9F0412F
:103AA00006460C460F272EB10120FEF735FE0120F9
:103AB000BDE8F081207930B101280AD0022833D046
:103AC000032864D13EE002F0F9F907460120207195
:103AD0005EE04FF00008002516E0324800EB0510CC
:103AE000007802280ED12F4901EB0511486802F039
:103AF000D5F9074600202B4901EB051108704FF05E
:103B0000010803E0681C85B2022DE6DB00BFB8F1B6
:103B1000000F08D10220FEF725FE0120FEF7FCFD74
:103B200041F61D50C4E733E01F480023012201681D
:103B30001E48FEF793FE074602201B49888000209E
:103B4000207125E01849086802F0A8F907461848CE
:103B500045881548D0F80080124800EB05104068F1
:103B6000114908600F4800EB0510C0F804800846B2
:103B700080880C4901EB0511088102200A498880E0
:103B80000020084901EB05110870207100E000BF1A
:103B900000BF27B10120FEF7BFFD0E2088E70020FF
:103BA00086E70000C82A00201822002058220020A2
:103BB000E82A0020F8B52748007800B9F8BD0025AC
:103BC0002548006808B9012000E00020064600BF33
:103BD000DDB92248007800B1F0E7684648DF0446C6
:103BE000052C01D101250FE024B100BF2046FCF7D0
:103BF00015FC09E0009800F05FFE1948006818B154
:103C0000174900980968884700BFDEB91348007853
:103C100000B1D3E713480088009069461248006855
:103C200061DF0446052C01D101260AE024B100BF62
:103C30002046FCF7F3FB04E00B48006806490968DE
:103C4000884700BF0DB106B100E0C1E700BF00BF6B
:103C5000B4E70000402200204C2200204122002036
:103C60005022002048220020442200200020014948
:103C700008707047902100200020034908704FF61B
:103C8000FF700249088070479C2100209E2100207F
:103C9000182008490870002008E04FF6FF7100EB7B
:103CA0004002054B03EB82025180401C0828F4D3EC
:103CB00070470000A32100200C25002010B500242F
:103CC00007E004EB8401044A02EB810005F0FDFFEC
:103CD000641C082CF5D310BD8C25002010B50446BB
:103CE00040212046FBF7C1FB10BD00004FF6FF70DE
:103CF000054908800020054908601820044908701B
:103D00000449087070470000CC210020C421002025
:103D1000CF210020D021002070B504460D46207927
:103D20001D4901EB4010007FF8B14FF48871206805
:103D300001F048FD4FF49071206801F043FD4FF40D
:103D40009271206801F03EFD4FF4A271206801F0ED
:103D500039FD1249206801F045FD206800F0F2FDB0
:103D60000646294600F0BEFD14E04FF48E7120682F
:103D700001F0F8FC4FF4A271206801F0F3FC08494F
:103D8000206801F0FEFC206800F0DCFD06462946B4
:103D900000F0A8FD70BD0000BC2900201003020047
:103DA0008000020001464888064A1288904206DBDD
:103DB0004888044A5288904201DC01207047002064
:103DC000FCE70000562100200246002104E0505C80
:103DD00008B101207047491C1029F8D30020F9E7E9
:103DE000014601F0030008B9012070470020FCE7FC
:103DF0000146086808B102680A6070472DE9F04181
:103E000007460D4690461E462DB92948007810B940
:103E10000520BDE8F08135B142460021384604F066
:103E200019FF044605E042462249384604F012FFD5
:103E30000446002221463846FEF7B8FC1EB1214652
:103E40003846FEF751F90D2C29D005DC34B3042C8B
:103E500017D0082C26D124E0112C04D0A4F5405012
:103E60000238F8B91CE02A46134801783846FCF7B6
:103E7000EFFF4246114801783846FCF7E9FF00247D
:103E800012E02A460C4801783846FCF7E1FF42462A
:103E90000A4801783846FCF7DBFF05E000BF00BFA9
:103EA00000BF01E0032400BF00BF2046B1E70000CF
:103EB000DE210020D9210020E7210020E62100207A
:103EC0002DE9FC4107460E46904626B900213846AA
:103ED0007EDFBDE8FC81307800F0010008B10120F0
:103EE00000E0022001903846FFF7A4FD05464FF69A
:103EF000FF70854209D001A82B464246314600900A
:103F0000384600F024F8044619E0307800F001004B
:103F100028B13146384600F08EF804460FE03146AD
:103F200038467EDF0446002000900CB9012000E0F6
:103F30000020024601232946384604F0AFFA24B98E
:103F40009DF80410384604F0F1FA2046C1E72DE947
:103F5000FF4F85B00F4690461E46DDF8489000257D
:103F6000AA4603AA0721304602F0E6F904466CB9D6
:103F7000049800F11805049890F8440000F0010A34
:103F8000BAF1000F02D0049800F13405B8F1000F27
:103F900013D194B98DB1BAF1000F04D105F112001B
:103FA000FFF7C2FC48B12A4605F11201059885DFEA
:103FB0000446002089F8000027E00CB1052C24D12C
:103FC0000024387800F0010060B101AB0122072124
:103FD000304602F0F3F9044624B90721304602F0D6
:103FE00027FB04461CB9394605987EDF044664B1B8
:103FF0000721304602F07CFA8346BBF1000F03D064
:10400000BBF1050F00D0032400BF0020009099F8F9
:10401000000008B1012000E0002003460CB9012097
:1040200000E0002002463146059804F037FA2046A9
:1040300009B0BDE8F08F2DE9FE430746884602F03F
:1040400069F905464FF6FF7085421CD001AB01228D
:104050000721284602F0B2F9044624B90721284670
:1040600002F0E6FA04461CB9414638467EDF0446B3
:1040700054B10721284602F03BFA064616B1052E38
:1040800000D0032400E003244FF6FF70854201D0E6
:10409000012000E0002000900CB9012000E0002089
:1040A000024601232946384604F0F8F92046BDE8C7
:1040B000FE8300002DE9F04107460C4615461148E5
:1040C00001783846FCF7B2FED0B13846FFF7B2FCB3
:1040D00006464FF6FF70864211D00B4801783846ED
:1040E000FCF7A4FE30B12B4622463146384601F09B
:1040F0008FFF04E02A4621463846FDF78DFE00BFBB
:10410000BDE8F081D2210020D32100202DE9F04725
:1041100086B005462846FCF77BFE8046404604F004
:104120002FF858B301A8FCF7D3FD002422E002A920
:1041300031F814002946FCF779FE0646CEB102A9F3
:1041400031F814000F490978FCF770FE814602A986
:1041500031F814000C490978FCF768FE824602A980
:1041600031F8140001234A465146FFF747FE07463F
:1041700000BF641C0198A042D9D800BF06B0BDE8BA
:10418000F0870000E6210020E721002070B50446FA
:104190000D46294620467EDF0646304670BD0000AB
:1041A00070B51C4804781C48066827E01948406828
:1041B00004EB440100EBC105601CC4B215488078D3
:1041C000A04200D100242878022802D0032812D16E
:1041D00003E0686805F03EF90EE007E00E49086864
:1041E000002101740C4AC169116000BF0A480068CF
:1041F0000028F3D100E000BF00BF00BF05484078B1
:10420000A042D3D104480068B04201D0012070BD63
:104210000020FCE7EC210020F42100202DE9F041F2
:104220000546374807685AE015B12C46E56929E08C
:1042300034494968334A127802EB420201EBC2006A
:1042400030490978491C2F4A117011460978927833
:10425000914202D100212B4A117044680178012952
:1042600001D1217C01B13AE081686160C168A1603F
:104270000169E1604169A1612349097809B100211F
:10428000616000BF214960680968401A20F07F40E2
:104290001F49884208D21D496068096805F054F832
:1042A000A168084420600FE018486168006805F0C4
:1042B0004BF80646A068B04203D9A068801B206076
:1042C00001E00020206000BF00206060A0600120AD
:1042D00020740020E061204605F088F800BF002D22
:1042E000A2D1084800780749497888429CD10448FF
:1042F0000068B84202D00120BDE8F0810020FBE751
:10430000F4210020EC2100200D220020F8210020C3
:10431000FFFF7F00FEB5044600264FF6FF70844283
:1043200000D1FEBD2046FFF70BF9054645B10B2D28
:1043300016D0112D12D0A5F540500238F8B91DE065
:1043400002208DF800002046FFF774FBADF8020054
:10435000ADF804406846FDF7E9FE1FE001261DE0C8
:1043600003208DF800002046FFF764FBADF8020043
:10437000ADF804406846FDF7D9FE0FE00EE00920D5
:104380008DF800002046FFF755FBADF80200ADF8B0
:10439000044002956846FDF7C9FE00BF00BF3246E3
:1043A000034801782046FCF753FD00BFB9E7000041
:1043B00092210020FEB5044600262046FFF708F9AA
:1043C00005460C2D1CD003DC4DB1042D34D125E065
:1043D000112D13D0A5F54050023868BB0DE0012027
:1043E0008DF80000ADF804402046FFF723FBADF840
:1043F00002006846FDF79AFE2DE02CE001262AE037
:1044000007208DF80000ADF804402046FFF712FBAE
:10441000ADF802006846FDF789FE1CE008208DF823
:104420000000ADF804402046FFF704FBADF80200A1
:104430006846FDF77BFE0EE009208DF8000020465F
:10444000FFF7F8FAADF80200ADF8044002956846AF
:10445000FDF76CFE00BF00BF3246034801782046DE
:10446000FCF7F6FCFEBD000091210020F8B50446E3
:104470000D4600262078284080B90020009068462C
:10448000FCF780F82078284018B92078284320705D
:1044900001269DF80000FCF77BF800BF3046F8BD10
:1044A000002001F01FF9044600BF264626B100BFD8
:1044B0003046FBF7B3FF00BF00BF05F0A3F800BF15
:1044C00000201AE00121814001F40031A1B100BFB8
:1044D00001210A4600263346374641EA420C4CEA9F
:1044E000860C4CEA032C4CEA0748DFF86CC04CF809
:1044F000208000BF00BF00BF401C2028E2D300BFC7
:1045000000BF4FF40030154908600020091D086005
:1045100000BFFCF7AFFD284602F078FB012D03D168
:104520000FA1032000F0E2FFFEF7D8FAFBF7CEFE62
:1045300004F076F9FDF768FB04F016FE0FA10320E6
:1045400000F0D4FFFBF7F2FE00BF00F07DFE002874
:10455000FBD103F0D5F9F8E700070050080500503B
:104560004150503A494E464F3A426F6E647320654F
:104570007261736564210D0A000000004150503AD9
:10458000494E464F3A476F657274656B20476C6FB2
:10459000766520737461727465640D0A0000000012
:1045A0002DE9F04105460E4614469846A888871C1A
:1045B0002088801C3844404502D90C20BDE8F08199
:1045C000FE2F01D90C20F9E7781C2188705420882F
:1045D000401C2080FF20218870542088401C2080AF
:1045E00022889119288805F0B6F92188084420808E
:1045F000A88800280DDDA86808B90720DEE7AA888A
:1046000023889819A968FAF717FF2088A988084411
:1046100020800020D2E72DE9F84F05460F461446CA
:1046200098462878012804D1687810B90720BDE899
:10463000F88F2088801C404508D82878012807D1A9
:104640002088801C69780844404501D90C20EEE799
:104650002088A8EB0000801E86B200962188891C65
:10466000C81969467DDF814600BFB9F1000F01D04E
:104670004846DCE700BF2878022806D1BDF80000D4
:10468000B04202DC4FF0090A0BE04FF0080A28782C
:10469000012805D16878B04202DC6878009000E01B
:1046A0000096BDF80000FE2801D90C20BFE7BDF838
:1046B0000000401C218878542088401C20802088DD
:1046C00007F800A02088401C20802088BDF800103A
:1046D000084420800020AAE770B505460E46FF2456
:1046E00066B34FF6FF70854228D001221448017846
:1046F0002846FCF7ADFB2846FEF794FC0446FF2C49
:1047000002D1FEF7ADFC0446FF2C17D004EB4400A9
:104710000C4901EB800045804FF6FF7004EB44012B
:10472000084A22F8210004EB4400114601EB800006
:1047300031684160B1880181B1798172204670BDD4
:10474000A32100200C25002070B505460E464FF62B
:10475000FF70854201D1002000E0681C84B208E0AF
:104760002146304602F090FD08B1204670BD601C25
:1047700084B2FF2CF4DD4FF6FF70F7E701464FF0EF
:104780008040405808B1012070470020FCE708B580
:1047900000224FF080410A500958009100BF08BD27
:1047A00001490860704700000803004000B97047E5
:1047B00000BF00BF00BF00BF00BF00BF00BF00BF01
:1047C00000BF1E4909681E4A914200D130E000BF77
:1047D00000BF00BF00BF00BF00BF00BF00BF00BFE1
:1047E00000BF00BF00BF00BF00BF00BF00BF00BFD1
:1047F00000BF00BF00BF00BF00BF00BF00BF00BFC1
:1048000000BF00BF00BF00BF00BF00BF00BF00BFB0
:1048100000BF00BF00BF00BF00BF00BF00BF00BFA0
:1048200000BF00BF00BF00BF00BF00BF00BF00BF90
:10483000401E00D0BDE700BFB9E7000054220020B1
:104840000024F40010B50D48007808B1852010BD93
:1048500000200A49886048600861C860062100F0AD
:1048600041F804F0F1FB20B901200549086000BFC0
:1048700000BF0120014908700020E8E7502900200E
:104880001805004008B5002000906846FBF77AFE46
:104890000848007808B9FFF7D5FF0648C068401CF3
:1048A0000449C860012088709DF80000FBF770FE85
:1048B00008BD00005029002010B5044614B900209E
:1048C000FDF7D8F810BD000000BF00F01F02012165
:1048D0009140034A430942F8231000BF704700008B
:1048E00080E100E070B50B4601461A46002907DA60
:1048F0005407260E104C01F00F052D1F665503E0DE
:104900005407250E0D4C655400BF00BF00F01F0278
:10491000012191400A4A440942F8241000BF00BF17
:1049200000F01F02012191404209920002F1E022B1
:10493000C2F8001100BF70BD18ED00E000E400E017
:1049400080E200E00146C1F3073250B270470146F1
:1049500001F06040B0F1005F01D1012070470020FC
:10496000FCE700002DE9F04780460D4691461E46C3
:10497000DDF820A098F8040000EB40001C4901EB92
:10498000C00400BF16B90E20BDE8F08700BF00BF0D
:104990000DB90E20F8E700BF1DB12846FFF7D7FF7D
:1049A00020B12EB13046FFF7D2FF08B91020EBE757
:1049B000607D30B1012814D0022804D0032812D120
:1049C00000E000BF00BFE5602661C4F80090C4F8B5
:1049D00004A0002701222146D8F8000004F034FC8E
:1049E00003E0082701E0032700BF00BF3846CBE7FC
:1049F000382900202DE9FC4706460C4691463079BF
:104A000000EB40005B4901EBC00A35689AF81400DE
:104A100010B10820BDE8FC87207C032801D90720BD
:104A2000F8E7B9F1000F01D10E20F3E72068FF2865
:104A30000BD00021E07CCDE900010B460A4620683E
:104A400000F0E0F9D4F8008001E04FF0FF38606832
:104A5000FF280AD000200090019000231A46194632
:104A6000606800F0CFF9676801E04FF0FF37002081
:104A700000900190A37C00221146E06800F0C2F98A
:104A800000200090019000231A461946A06800F00B
:104A9000B9F9D4E90201C5F808054FF4A2625751EB
:104AA000C5F80C85121D515100BF00221146284641
:104AB00000F03CFE00221146284600F040FE217C1A
:104AC000627C0AB1012300E00023184631B10129BC
:104AD00006D0022907D0032908D000BF00BF08E094
:104AE00040F0020005E040F0040002E040F0060063
:104AF00000BF00BFC5F8540500BF207DC5F85C05A8
:104B000000BF607DC5F8C00500BF4FF48271284624
:104B100000F005FE4FF49471284600F000FE0420DA
:104B2000D5F800120143C5F8001200BF002031790A
:104B300001EB41010F4A02EBC1014875307900EBEE
:104B40004000114601EBC000C0F8089040F202405E
:104B5000C5F8040300BFA17D96F90500FFF7C2FE6A
:104B600001208AF8140000BF0220C5F8000500BF2C
:104B700000204FE7382900202DE9F04105460E4678
:104B8000174628791A4901EB4014E07E10B108203D
:104B9000BDE8F081707F207731462846FBF746FD5F
:104BA000676030692060606818B1317F2846FFF780
:104BB000B3F800BF28790E4901EB4010007F28B1FF
:104BC00028680821C0F8001500BF05E02868042106
:104BD000C0F8001500BF00BF00BF0020E0752076C0
:104BE000A0750120E0760020A07600BFD0E700008D
:104BF000BC2900202DE9F04104460D4617462079D6
:104C0000134901EB4016207901EB4010007F38B1C9
:104C1000280C0004B0F1005F02D01020BDE8F08144
:104C2000204600F09BF808B11120F7E7B775B56092
:104C30000020B0822079064901EB4010007F18B1B6
:104C4000204600F04DF8E9E7204600F003F8E5E7DC
:104C5000BC29002070B504462079204901EB40159D
:104C600000264FF48E71206800F07CFD082120683A
:104C700000F093FD2946206804F0F8FC686858BBF2
:104C800012E000BF4FF48E71206800F064FD18B987
:104C9000A88AB0F5807FF5D1A88AB0F5807F03D0CF
:104CA0002946206804F0E2FCA88AA97D8842E8DB56
:104CB000A88AB0F5807F01D10F260BE000BF4FF42A
:104CC0008E71206800F047FD0028F8D00C21206884
:104CD00000F063FD0020A875304670BDBC2900209F
:104CE0002DE9F041044620791B4901EB40154FF0B6
:104CF00000084FF49071206800F064FD4FF4AC712F
:104D0000206800F05FFD2068AA7DA968C0F84415FE
:104D10004FF4A9631A5000BF0821206800F06AFD13
:104D20006868A8B900BF4FF49071206800F043FD97
:104D300007464FF4AC71206800F03DFD06460FB900
:104D4000002EF0D00EB14FF00F080020A87500BF64
:104D50004046BDE8F0810000BC29002001460879EA
:104D6000044A02EB4010807D08B10120704700200A
:104D7000FCE70000BC29002070B5044620791F49DB
:104D800001EB401500BF207901EB4010007F28B1F6
:104D900020680021C0F8001500BF05E02068002150
:104DA000C0F8001500BF00BF00BF6868F0B100BFC9
