:020000040001F9
:10F00000D85E002015F401001DF401001FF401007A
:10F0100021F4010023F4010025F4010000000000A8
:10F0200000000000000000000000000027F40100C4
:10F0300029F40100000000002BF401002DF4010070
:10F040005DF701002FF4010049FB01002FF40100DE
:10F050002FF401002FF4010081F501002FF40100CD
:10F060002FF401002FF401002FF401002FF4010010
:10F070002FF401002FF401002FF401002FF4010000
:10F080002FF40100B5F701002FF401002FF4010067
:10F0900085F801002FF4010089F801002FF4010028
:10F0A0002FF401002FF401002FF401002FF40100D0
:10F0B0002FF401002FF40100000000000000000008
:10F0C0002FF401002FF401002FF401002FF40100B0
:10F0D0002FF401002FF401002FF4010000000000C4
:10F0E0000000000000000000000000000000000020
:10F0F0000000000000000000000000000000000010
:10F1000000000000000000000000000000000000FF
:10F1100000000000000000000000000000000000EF
:10F40000DFF80CD000F08AF800480047F915020038
:10F41000D85E00200648804706480047FEE7FEE722
:10F42000FEE7FEE7FEE7FEE7FEE7FEE7FEE7FEE7B4
:10F43000ADF8010001F4010040EA01039B0703D08D
:10F4400009E008C9121F08C0042AFAD203E011F823
:10F45000013B00F8013B521EF9D27047D2B201E0E5
:10F4600000F8012B491EFBD270470022F6E710B5C9
:10F4700013460A4604461946FFF7F0FF204610BD22
:10F48000421C10F8011B0029FBD1801A704730B5CF
:10F4900004460020034600E05B1C934203D2E05C7C
:10F4A000CD5C401BF8D030BD034611F8012B00F8AD
:10F4B000012B002AF9D1184670472DE9F05F054667
:10F4C000002092469B4688460646814640241BE023
:10F4D000284641464746224600F041F853465A46E0
:10F4E000C01A914110D311461846224600F028F860
:10F4F0002D1A67EB01084F4622460120002100F03B
:10F500001FF817EB00094E41201EA4F10104DFDCB7
:10F51000484631462A464346BDE8F09F064C074D13
:10F5200006E0E06840F0010394E8070098471034D3
:10F53000AC42F6D3FFF768FFF43502001436020040
:10F54000202A04DB203A00FA02F1002070479140A3
:10F55000C2F1200320FA03F3194390407047202A98
:10F5600004DB203A21FA02F00021704721FA02F36D
:10F57000D040C2F120029140084319467047000074
:10F580002DE9FC5F0025DFF83891A8464FF480761E
:10F5900001242F46304602F0C1FB38B1D9F80403EC
:10F5A000204203D0304602F0AFFB2543361D6400F5
:10F5B0007F1CB6B2082FEDD34FF4BE74204602F084
:10F5C000ADFB38B1204602F09FFB3E4845F00045B8
:10F5D000D0F800803C4E15F0FF0F15D00127002415
:10F5E0002F420DD009EB8401D1F81005D1F8101588
:10F5F000C0F3042056F82420C1F3014102B1904722
:10F600007F00641C082CEBD3002D56DA00200190FB
:10F61000401E4CE0701910F8501F90F9000021F0C6
:10F62000C004401C38D0012000FA04FA1AEA090F7D
:10F6300032D04FEA911B204601F04AFC56F82000D8
:10F64000009010B9BBF1030F26D15146BBF1030F57
:10F6500002D1019808430190A00000F1A040D0F829
:10F6600000071AEA080FC0F3014002D0022802D0B6
:10F6700012E0032810D1BBF1030F07D102281AD0E2
:10F680000221204602F032FB7F1CFFB2009818B125
:10F69000009A5946204690476D1C042DBAD3002F7E
:10F6A0000BD008480068404507D0804601980027E5
:10F6B00081463D46AEE70321E3E7BDE8FC9F00003D
:10F6C00000600040100500509433002000F01F023D
:10F6D000012191404009800000F1E020C0F8801233
:10F6E000704700F01F02012191404009800000F1A5
:10F6F000E020C0F88011704700F01F020121914006
:10F700004009800000F1E020C0F80011704700F0CF
:10F710001F02012191404009800000F1E020C0F863
:10F720000011704700F01F02012191404009800044
:10F7300000F1E020C0F8001270474907090E0028C8
:10F7400006DA00F00F0000F1E02080F8141D704789
:10F7500000F1E02080F80014704700002DE9F0412E
:10F760004FF48077384601F0C7FF0124104EA507FB
:10F7700048B1384601F0C7FF0120C5F8080374708E
:10F78000002001F0CFFB4FF48277384601F0B4FF40
:10F7900000280BD0384601F0B6FF0220C5F8080358
:10F7A000B470BDE8F041012001F0BCBBBDE8F081C0
:10F7B0008033002007480021C0F84011C0F84411F0
:10F7C000C0F84811C0F84C11C0F80011C0F804117D
:10F7D00003F08ABB001001402DE9F047114F0446A9
:10F7E000DDF8209038781D461646884608B900F0A6
:10F7F000B9F93869A04211D90A4904EB440001EB78
:10F80000C00134B1C1F81880C1E9076500208862E1
:10F8100048620020C1F82C90BDE8F0874FF0FF301F
:10F82000FAE70000603E002070B50E46144900EB78
:10F83000400001EBC0051446E86A183520B10128E4
:10F840000FD0022805D113E0284600F0BFF9A042EE
:10F8500001D2002411E022463146284600F0EEF99C
:10F860000BE0284600F0B2F9A042F4D20446F2E7D9
:10F870003146284600F0B5F90446204670BD000028
:10F88000603E002003F0A8BA074810B5406830B1C8
:10F890008047002807D0BDE8104000F0FDBCBDE85F
:10F8A000104001F0EDBC10BDB8210020F0B5984823
:10F8B0000023021D01780125101D4FF080560629F6
:10F8C00007D11478240704D10478C4F30314032C5B
:10F8D00002D0062904D00FE08F4F8E4C7C670EE0DB
:10F8E0001478240708D10478C4F30314032C06D039
:10F8F000042C04D0052C02D0062907D00EE0D6F83F
:10F900004442864FC4F342343C6002E0147824073A
:10F9100004D10478C4F30314032C02D0062906D0C2
:10F9200011E07F4C276827F0807727600EE014787D
:10F93000240708D10478C4F30314032C06D0042C44
:10F9400004D0052C02D006290AD011E04FF08044E3
:10F95000C4F80C31C4F81031704C241F236002E04D
:10F960001478240704D10478C4F30314032C02D0C0
:10F97000062905D00CE0694F032464373C600AE097
:10F980001478240704D10478C4F30314032C02D0A0
:10F9900006290DD014E0634F05243C60614C783497
:10F9A0002560604C083423603F243F1D3C6002E02A
:10F9B0001478240704D10478C4F30314052C02D06E
:10F9C000062957D068E058490968584A11605649D5
:10F9D000091D0968121D1160534908310968121D7B
:10F9E000116051490C310968121D11604E491031E6
:10F9F0000968121D11604C4914310968121D11600B
:10FA0000494918310968494A2032116046491C3178
:10FA10000968121D1160444920310968121D1160E6
:10FA2000414924310968121D11603F492831096894
:10FA3000121D11603C492C310968121D11603A49B0
:10FA400030310968394A4032116037493431096828
:10FA5000121D1160344938310968121D1160324994
:10FA60003C310968121D11602F4940310968121D8F
:10FA7000116002E0117809070ED10078C0F303107D
:10FA8000032803D0042801D0052805D1D6F8580250
:10FA9000274900F04F00086021487438016841F49C
:10FAA00070010160BFF34F8FBFF36F8F4FF01021D4
:10FAB000D1F80002002803DBD1F80402002822DA82
:10FAC0001C4A15601C480468002CFCD01524C1F8A1
:10FAD00000420568002DFCD0C1F8044201680029ED
:10FAE000FCD0136001680029FCD0BFF34F8F0C4895
:10FAF000F0380168114A01F4E06111430160BFF37D
:10FB00004F8F00BFFDE70F490D480860F0BD0000B2
:10FB1000E00F00F00DF0ADBA00C007403C0500401A
:10FB2000FCED00E0105600400404001020C5004029
:10FB3000E40E004004E5014000E401400400FA0541
:10FB40000090D003CC2100200448017F0448002904
:10FB5000024901D003F021BB03F090BAEC3300203E
:10FB60000020004010B5124C02202061606111A0FD
:10FB7000A061A4F58260E0614FF480602062002003
:10FB8000A06260620BA1A164E062A4F11001E164D3
:10FB900010212165A0656065E06509A1E01DFFF702
:10FBA00083FC08A12046FFF77FFC2020A07110BD38
:10FBB000603E00205465726D696E616C000000004B
:10FBC0005254540053454747455200000269C168EA
:10FBD0008A4203D88068401A104400E0501A401E40
:10FBE00070472DE9F047C4681746894606464FF02E
:10FBF00000083069A04201D9051B02E0B168201A53
:10FC00000D1AB0686D1E001BA84200D80546BD4203
:10FC100000D33D4670682A4620444946FFF70CFC55
:10FC2000B0687F1B2C44A844A944A04200D1002402
:10FC3000F460002FDDD14046BDE8F0872DE9F041AA
:10FC4000C6680446174688468068851B6068BD42C2
:10FC500006D93044FFF7F0FBF019E060BDE8F08111
:10FC60002A463044FFF7E8FB7E1B08EB05013246CD
:10FC70006068FFF7E1FBE660F0E700000FB4084BB7
:10FC800010B504A902AA039800F02EF8044602A9B0
:10FC9000002000F05AFA204610BC5DF814FB00006A
:10FCA0004B01020002E008C8121F08C1002AFAD165
:10FCB00070477047002001E001C1121F002AFBD1EC
:10FCC000704700000121202803DA814005480140E7
:10FCD00003E0402802DA2038814009B10120704752
:10FCE00000207047FC06FFBC2DE9FF4F8DB00F468A
:10FCF0000546002606E025280BD0DDE90F129047C7
:10FD00006D1C761C28780028F5D111B03046BDE86E
:10FD1000F08F0024A246A1460122EC4900E00443F2
:10FD200015F8013F203B02FA03F00842F7D128788A
:10FD30002A2810D06FF02F022878A0F1300109296D
:10FD400014D80AEB8A0102EB410144F0020400EBF3
:10FD5000010A6D1CF0E701CF5FEA000A03D544F405
:10FD60000054CAF1000A44F002046D1C28782E28C1
:10FD700017D115F8010F44F004042A280ED06FF0B3
:10FD80002F022878A0F1300109290AD809EB89014E
:10FD900002EB410100EB01096D1CF2E757F8049BEF
:10FDA0006D1C28786C280FD006DC4C2817D06828EA
:10FDB0000DD06A2814D104E0742810D07A280FD10D
:10FDC0000DE044F400140AE044F4801401E044F42B
:10FDD00040146978814202D104F580146D1C6D1CB9
:10FDE0002A786E2A1FD00CDC632A31D004DC002A6A
:10FDF0008BD0582A11D1A3E0642A68D0692A0CD18B
:10FE000065E0732A2ED004DC6F2A73D0702A04D1E7
:10FE10009BE0752A6FD0782A6ED01046DDE90F126C
:10FE20009047761C50E1C4F30250022806D0032804
:10FE300009D0042801CF09D0066045E101CFF117B0
:10FE4000C0E9006140E101CF06803DE106703BE181
:10FE500017F8040B8DF8000000208DF80100EB4628
:10FE6000012003E057F804BB4FF0FF3061074FF06B
:10FE7000000102D40DE008F10101884649450FDA7E
:10FE80008045F8DB1BF808100029F4D108E008F1E0
:10FE9000010188468142FADB1BF808100029F6D1DF
:10FEA000DDE90F23AAEB08008146214600F036F970
:10FEB000304400EB080604E0DDE90F121BF8010BEB
:10FEC0009047B8F10108F7D221464846F7E00A21E9
:10FED000C4F302534FF0000B0891022B04D001CF62
:10FEE000C117032B09D00AE0FF1D27F00707F7E829
:10FEF000020108E032E01FE020E000B2C117042B4D
:10FF000001D140B2C117031E71F1000307DA4FF0AF
:10FF1000000CD0EB0C006CEB01012D2302E023055B
:10FF200004D52B238DF82430012303E0E30701D00F
:10FF30002023F7E7984658E00A2110E010210EE050
:10FF400010204FF0000B08900CE010214FF0000B38
:10FF500044F004044FF00809089103E008214FF031
:10FF6000000B0891C4F30253022B04D001CF0021EF
:10FF7000032B06D006E0FF1D27F00707F7E8020174
:10FF800003E080B2042B00D1C0B24FF00008230779
:10FF90002BD5702A07D0DDF820C08CF0100C5CEA5D
:10FFA0000B0C05D00EE040238DF82430012308E02F
:10FFB00050EA010306D030238DF824308DF8252037
:10FFC00002239846DDF820C08CF0080C5CEA0B0C8C
:10FFD0000BD150EA010301D1630706D530238DF818
:10FFE00024304FF00108A9F10109582A04D038A2A1
:10FFF0000B9208AA0A920BE03AA2F9E75B46089A2C
:020000040002F8
:10000000FFF75BFA0B9B9B5C0A9A521E0A921370D5
:1000100050EA0102F2D10A98ADEB000000F1200B8A
:10002000600702D524F4803401E04FF00109D9457E
:1000300002DDA9EB0B0000E0002000EB0B014144C6
:100040000890AAEB010AE00306D4DDE90F2321465C
:10005000504600F063F806444FF0000908E009A993
:1000600011F80900DDE90F12904709F10109761C2A
:10007000C145F4DBE0030CD5DDE90F2321465046F2
:1000800000F04CF8064404E0DDE90F123020904700
:10009000761C0899481E08900029F5DC08E00A98AB
:1000A0000A990078491C0A91DDE90F129047761CE5
:1000B000BBF10001ABF1010BF1DC21465046DDE95B
:1000C0000F2300F019F806446D1C1BE609280100F7
:1000D00030313233343536373839616263646566BE
:1000E0000000000030313233343536373839414280
:1000F00043444546000000002DE9F0410446002538
:100100001E461746880404D405E039462020B0472F
:100110006D1C641EF9D52846BDE8F0812DE9F0413B
:10012000044600251E469046C80301D5302700E04E
:100130002027880404D505E041463846B0476D1CA9
:10014000641EF9D52846BDE8F0810A68531C0B608F
:100150001070704770B500230D884C680DE0E618EC
:10016000E15C7678864206D1E018801C491E50601A
:100170001180002070BD0B445B1C9D42EFD8052010
:1001800070BD000070B50024084D05E0686810F8E7
:10019000340001F06BFB641C28788442F6D30448D9
:1001A0000068BDE8704000F011B900007421002023
:1001B0002833020070B50024064D06E0686801216E
:1001C00010F8340001F076FB641C28788442F5D3E3
:1001D000002070BD74210020F8B515460C46064677
:1001E000052A01D20720F8BD01F04AFC18B901F038
:1001F00019FC0028F7D1104900204E600C70C1E9AD
:1002000002500E4D08610DE006EBC40069680091D4
:1002100081788DF801100078094A694601F09CFB4D
:100220000028E0D1641EE4B2EED2BDE8F840054AF1
:100230000021024800F03CB874210020283302005D
:1002400029120200B11002000BA1012001F06EFF83
:1002500001F0C6FE01F0C8FE0028FBD100BEBFF3CE
:100260004F8F0B4801680B4A01F4E06111430160B4
:10027000BFF34F8F00BFFDE74150505F4552524FD3
:10028000523A4552524F523A466174616C0D0A001F
:100290000CED00E00400FA050EB500210091CDE957
:1002A00001106A4644F20100FFF7CEFF0EBD0000C8
:1002B000074B5B6823B12AB120B10068037C1BB1F6
:1002C0000820704707207047417442610020704742
:1002D000982100202DE9F0470746984614468946A4
:1002E00090074FF0000526D12CB302F05DFB134EB2
:1002F00006F11000C6F80C800570457080F8029079
:1003000044607560357075701420FFF7DFF90621C1
:100310001420FFF712FA1420FFF7EEF908480760DF
:1003200006211120FFF709FA0548001F0068B06098
:100330000020BDE8F0870720FBE7000088210020AF
:10034000081501402DE9FC47DFF87890D9F8043012
:1003500073B368B3052902D20720BDE8FC8743695F
:1003600033B3437C012B25D0002704460025884663
:1003700016468DF80050684600F038F801A802F0E3
:1003800085FFC8B1012101700F4944600968C0E9C7
:100390000218C0E904769DF8040089F801009DF870
:1003A000000000F047F81420FFF7BCF92846D4E716
:1003B0000820D2E70F46D8E704259DF8000000F09A
:1003C00039F8F3E7982100200415014006494968EF
:1003D00039B130B1416921B100210174022102F02B
:1003E0005FBD0820704700009821002030B5EFF372
:1003F000108172B60D4A9468012324B1037000295C
:1004000000D162B630BD93604FF0E023D3F8805145
:10041000074C25401560C3F88041D3F884415460EF
:100420005A17C3F8842100220270E8E72C34002018
:10043000FC06FFBC0B498A68002A11D000280FD1A6
:10044000EFF3108072B60B684FF0E022C2F8003173
:100450004B68C2F8043100228A60002800D162B6DD
:10046000704700002C3400202DE9F0410546087843
:10047000214F012606FA00F00C463860086801F0AA
:100480002BFC0021606801F01EFC28791B4901EB60
:100490004010A169007F00282868C0F8241519D0F1
:1004A000607D217D2A680843C2F86C0518E00021B0
:1004B000A06801F008FC207B86403E60E06801F007
:1004C0000BFCD4E902122868C0F80825C0F8101502
:1004D000BDE8F081607D227D29681043C1F86C057C
:1004E000D4E900122868C0F80C15C0F81425207D46
:1004F0000128DCD0ECE7000008050050EC330020B8
:100500000249887D497D084002F05CBBB430002080
:100510002DE9F047044603883F4801228CB000F1E2
:10052000150A102B09D0112B55D01A2B71D1217A15
:10053000B2EB111F54D2012353E0027D417D0546E9
:100540008A43011D06A802F018FB142206A901A87F
:10055000FEF772FFDFF8C0900026374609F1140954
:100560000DF104080AE000BF08EB46001D22838855
:100570004946281D009702F0C5FA761C0198B04242
:10058000F2D8287DA688C043C0B202F0DDFAA0F5FB
:100590007F41FF3917D005EB4000012386803246AA
:1005A0005146281D02F01DFB012332464946281DF5
:1005B00002F017FBE07B02280BD000231649A2882B
:1005C0001631281D20E00CB00420BDE8F047FFF7ED
:1005D00063BE0123F2E70023A2885146001D13E009
:1005E00000230D490546A2881731001D02F0F9FAD3
:1005F000207A0221B1EB101F01D2012300E0002379
:100600000549A2881831281D0CB0BDE8F04702F05A
:10061000E8BA0CB0BDE8F087B430002070B540B146
:100620000C4D297839B1044602F0A2F928B1002016
:1006300070BD0E2070BD082070BDE868062807D286
:100640000549226801EB8001401C0A60E860EEE782
:10065000042070BD5C210020E830002040B1054935
:1006600000220123CA600B70C1E9010210467047E5
:100670000E2070475C21002000281FD000291DD0CB
:100680000F4A1278002A19D00A88112A0ED0302A6F
:1006900006D0322A07D0332A10D1091D01F0FABF43
:1006A000091D02F063B8091D01F066BF8988B0F822
:1006B000AA21914202D1002180F8A71170470000C1
:1006C0005C21002070B50D46040009D0144908785B
:1006D00040B1C86830B194F8A70128B1112070BDAD
:1006E0000E2070BD082070BDA4F8AA5100208860BB
:1006F00084F8A80184F8A6010A482B460A49006834
:1007000020602288032001F065FD22460121284651
:1007100094DF0028E7D1012084F8A701002070BDF4
:100720005C210020E83000202834020070B5054626
:100730008488FFF7EDFE284601F008FE082C10D251
:100740006B200849604301EB80002946FFF794FFC6
:1007500004482946803800EB0410BDE8704000F0E2
:1007600049B870BDE822002058B10388A3F57F4145
:10077000FF3904D041880122184600F049BB082007
:1007800070470E20704740B1018022B11168C0F857
:1007900002109188C180002070470E207047000031
:1007A00030B5134D040085B02DCD8DE82D001DD042
:1007B000E1B10868D0B100206080A080E0804FF6F1
:1007C000FF7020800868A06004F10C01684663DFB8
:1007D000002809D1207B8DF8120041F22350ADF89A
:1007E000100004A8FFF71AFF05B030BD0E20FBE78C
:1007F000183302000EB500281FD000291DD00A882A
:10080000112A23D0382A19D0392A16D102888B8888
:100810009A4212D14A8983889A420ED1CA89012A02
:100820000BD102228DF800200288ADF80220097C4D
:100830008DF804108268694690470EBD008889884B
:100840008842FAD1BDE80E4002F0A8BB0288898830
:100850008A42F2D14FF6FF710180002141808180F0
:10086000C1800EBD70B50D46040028D02088A0F5CB
:100870007F41FF3921D02A4612A1042001F07CFCDF
:100880001B491C4B086800EB8002401C00F007006D
:10089000086003EB8203E08858810120D881191D8C
:1008A000196100219981022119721D712188198015
:1008B000987002F073FB002070BD082070BD0E2000
:1008C00070BD0000424C455F4C42535F433A444583
:1008D0004255473A77726974696E67204C454420E7
:1008E00073746174757320307825780D0A000000E8
:1008F0006C210020E03200203EB504460878002834
:1009000044D18888A0F5A852233A3FD18879227B28
:1009100090423BD101208DF800004888ADF80200DC
:10092000002017E000EB400201EB820232F80E3F9C
:1009300003F6DC23B3F5005305D0012B09D112894E
:10094000ADF8082005E01389ADF806305289ADF8FE
:100950000420401C0A7A8242E4D80DA1042001F050
:10096000E5FB2088A0F57F41FF390BD0E08848B92E
:10097000A08838B9608828B90198C4F80200BDF889
:100980000800E080A2686946204690473EBD00000E
:10099000424C455F4C42535F433A44454255473AC7
:1009A0004C656420427574746F6E2053657276696D
:1009B000636520646973636F766572656420617432
:1009C00020706565722E0D0A0000000000B5154804
:1009D00089B00023006807905022134907A802F04D
:1009E000C3F908B1FFF758FC6A460021082002F05D
:1009F000A5F908B1FFF750FC0A20ADF80000172058
:100A0000ADF81000684602F02BF908B1FFF744FC7E
:100A1000064802F01BF9002801D0FFF73DFC09B0A1
:100A200000BD0000BC320200D02100202D070200D2
:100A30002DE9F04707460024244802E0641C042CFA
:100A400041D250F82420BA42F8D1042C3BD21F489E
:100A5000DFF87C901F4E0C38A9F1140841B301292E
:100A60000FD002292FD104EB440030444578002DEB
:100A700029D0D8F81010002925D02846BDE8F04725
:100A8000084704EB4401755C0E44717861B1D8F8F5
:100A900004100F4A01EB81014900133A8068FFF707
:100AA00051FC08B988F80170B17809F80410DEE744
:100AB0008068FFF78BFC04EB4401314419F8040013
:100AC0008D78A842D3D0BDE8F0870000E83202005C
:100AD0005821002088300020044A01460020127A64
:100AE000D20702D0084600F003B870474421002026
:100AF0002DE9F84F854EDFF810A24FF4E01CF168A5
:100B000007462CEA010C0091002071680AF10404E8
:100B1000251D7F4B4FF400324FF4802B01EB810EEB
:100B20008146182F16D2DFE807F00C17173A4E60EF
:100B30007083868F868FEAA0A0A0A0A0CAD1D8E13A
:100B4000EAEA009A4FF4F01191432160C5F8009051
:100B500086F80090BDE8F88FC4F800C04846C5F894
:100B60000090DAF800C08CF4F01C5FEA8C3C09D5E8
:100B700022602860022F02D14FF4E16008E04FF4B8
:100B80007A6005E02A602060022F3CD04FF4C870E4
:100B90006422B0FBF2F04143377000225EE0C4F8FB
:100BA00000C04846C5F80090DAF800C08CF4F01C8C
:100BB0005FEA8C3C04D5226028604FF44870E7E778
:100BC0002A6020601FE0C4F800C04846C5F80090C5
:100BD000DAF800C08CF4F01C5FEA8C3C02D522608D
:100BE0002860CCE72A602060D0E7C4F800C04846FF
:100BF000C5F80090DAF800C08CF4F01C5FEA8C3C79
:100C0000DED522602860C820C2E7C4F800C048468C
:100C1000C5F80090DAF800C08CF4F01C5FEA8C3C58
:100C200002D52260286001E02A602060377014E05D
:100C3000C4F800C04DE0DAF800002BEA00022260A0
:100C400000F48020286008E0DAF800002BEA0001B8
:100C5000216000F480202860714600221868BDE8F9
:100C6000F84FFFF76FBB21602EE098465868FFF7FA
:100C7000ADFBD7F1110100D040B1F16801F4F011E2
:100C80002160C5F80090C6F80C9063E74FF400228D
:100C9000F26001290CD9C82011FB00F16420B1FBDE
:100CA000F0F1706800224143D8F80400FFF74AFBD6
:100CB000F16801F4F0112960C4F800904AE74FF49C
:100CC000F0112160C5F80090377043E74FF4E01150
:100CD00021604946C5F8009006E04FF4D01121602C
:100CE0004946C5F800905A462A60BCE74FF4C01147
:100CF00021604946C5F800904FF4C022F4E74FF454
:100D0000F01129604946AEE7040500504421002057
:100D1000DC320200002901DA002070470268114429
:100D20000160012070470000F8B5461C00208DF8D6
:100D3000000001256846FFF759FB1149741CD1E9F1
:100D400000208F68101A3B1A5B1C9C420FD963B1BC
:100D50000C480D4B3A4000681B6801EB820263F3BC
:100D60009F20D0600868401C0860002501E09019B1
:100D700008609DF80000FFF75DFB2846F8BD000005
:100D80003836002050330200B4210020034803C845
:100D9000814201D101207047002070473836002081
:100DA0002DE9F0410D460D2803D0BDE8F041FFF7D5
:100DB00073BA0D4E002443F2020700BF06EB041085
:100DC0002946FFF74FFD18B1B84201D0082809D1D4
:100DD000641C082CF2D32A46BDE8F04103A103208D
:100DE00001F0CAB9BDE8F081682200204150503AB4
:100DF000494E464F3A4C4253207772697465204CF5
:100E000045442073746174652025640D0A00000058
:100E100070B514460D46064603460A46104904209E
:100E200001F0D8F90F49104B086800EB8002401C14
:100E300000F00700086003EB820202205581D08198
:100E4000101D106100209081012010721471210A80
:100E500051711680907002F0A1F8002070BD000062
:100E6000503502006C210020E032002005494FF08F
:100E7000FF32082841F8202002D3084480F8482097
:100E80007047000094330020F0B54FF0FF3512B1E9
:100E90000023082601E008230C260C4C05E000BFC7
:100EA00054F823707F1C04D05B1CB342F8D328464F
:100EB000F0BD26185DB286F8305044F82310002AA1
:100EC000F5D1E11881F84800F1E7000094330020E3
:100ED0000249084490F93000704700009433002024
:100EE00008B5024690F8A6010B46C0EBC00000EB27
:100EF000800002EB400092F8A52142B1521ED2B20E
:100F000002EB420100EB8102518A491C00E0C188DA
:100F1000ADF800100089ADF802006946184696DF6A
:100F200008BD000070B5084C050009D010342168D8
:100F3000002907D008682060496828468847F6E7F6
:100F40000834F4E770BD0000803300202DE9F05F25
:100F500026484168F1B3DFF898B00E688146DBF8A7
:100F6000004087688078E11B21F07F45ED1CB0B917
:100F7000DFF880804FF48030C8F84403C8F80403D9
:100F80001120FEF7A3FB1120FEF7B6FB4FF0010A7C
:100F9000C8F800A02F2000F0BFFB89F802A0B542DE
:100FA00000D23546124BE8193C3320F07F401860E0
:100FB000DBF800105A46091B21F07F41001B20F08E
:100FC0007F40C91C81420FD9106818602F2000F0A3
:100FD000A3FB00E004E0BDE8F05F1120FEF7A2BB38
:100FE000BDE8F05F01F0E0BCBDE8F09F8821002083
:100FF000041501400010014010B542880446134614
:101000000649032001F0E6F86088054901EB00106D
:101010002146BDE81040FFF76FBC000074330200AA
:10102000682200202DE9F843054690F8A60195F8BE
:10103000A541C0EBC00000EB800005EB40060F4669
:1010400004EB4400914606EB80013279601C0A31C2
:10105000904226D16B460022284600F089F918B349
:1010600010E0401EA04201D1002004E004EB440047
:1010700006EB80001630804602466B46284600F09C
:1010800077F930B1002038706946484697DFBDE8EF
:10109000F88395F8A5014146401C641C85F8A5011C
:1010A000E4B23079A042DCD8012038700020EEE7AD
:1010B0002DE9F04100260125144C22E060682269E8
:1010C00000EBC607387805FA00F1114217D08A43C1
:1010D000226100F09DFC02463878E36805FA00F1D1
:1010E000194002FA00F3994209D17978012901D017
:1010F000012100E0002151407A6802B19047761C3E
:10110000F6B220788642D9D3BDE8F0817421002060
:101110002DE9F047894690F8A6119046C1EBC10130
:1011200001EB810100EB4107384601F021FC06008C
:1011300039D01E4CA068062835D21D4D00EB80002A
:1011400005EB00104622A0F802803946001DFEF78C
:1011500073F90027B9F1000F06D0A06800EB8000FA
:1011600005EB0010077006E0A168022001EB810189
:1011700005EB01110870A06800EB800105EB01117F
:10118000401CCE64A060E16888420CD1002606E0D5
:1011900006EB860005EB0010C16C8847761CE06802
:1011A0008642F5D3A760BDE8F08700005C210020EF
:1011B0000031002030B50D4690F8A61193B0C1EB78
:1011C000C10101EB8101144600EB410001F0D0FBAD
:1011D000030007D0ADF8024001208DF800006846FA
:1011E0000195984713B030BD0E4910B50A784C7878
:1011F0000023A24212D0521CD2B20A70022A00D19D
:101200000B70084A0B78183252F823200260886865
:10121000104420F07F408860012010BD0360002052
:1012200010BD0000882100202DE9F041124E074634
:101230000125BD403068FFF7C9F800280DD10F4CDB
:101240002069284207D1384600F0E2FB0028E06818
:1012500005D0284304E0A8432061BDE8F081A843FD
:10126000E060206928432061A1683068BDE8F04152
:101270000022FFF767B80000283302007421002025
:10128000F8B51C4C2078002832D0E068002658B110
:101290000025607800282BD1684648DF052805D056
:1012A00030B1FEF7F9FF0AE00125F2E7012606E07A
:1012B000009800F0ABFA216909B1009888479DB900
:1012C0006078002814D16088ADF800006946A068F5
:1012D00061DF052803D020B1FEF7DEFF04E0012521
:1012E00002E0D4E902018847002ED2D0002DE6D0DA
:1012F000F8BD0000B821002070B50E460446007904
:1013000018494FF4A27501EB4010017F2068A1B18C
:101310004FF4887100F0C4FF4FF49071206800F022
:10132000BFFF4FF49271206800F0BAFF2946206891
:1013300000F0B6FF0C49206809E04FF48E7100F010
:101340009EFF2946206800F09AFF08492068C0F8EF
:101350000413206800F086FA3146BDE8704000F0C2
:1013600065BA0000EC330020100302008000020088
:1013700009892AB1D088491C814218D100207047C0
:1013800090F8A621C2EBC20202EB820200EB4202FD
:1013900012899142F2D0491C198090F8A611C1EB34
:1013A000C10101EB810100EB4100008902E01980DD
:1013B000D088401E588001207047000070B5054657
:1013C00008780C46012811D002280ED123796288B2
:1013D00011A1032000F0FEFE1E4B247900204FF4E3
:1013E0000022191FACB11A60086070BD4A881AA1AA
:1013F000032000F0C1FEFEF7DDFE08B1FEF74CFF52
:101400002846FFF7B1F90028EFD0BDE87040FEF79D
:1014100043BF0A60186070BD4150503A494E464F74
:101420003A4C696E6B20307825782C2042757474A4
:101430006F6E207374617465206368616E676564A4
:10144000206F6E207065657220746F20307825786B
:101450000D0A00000C0500504150503A494E464FCD
:101460003A4C454420427574746F6E2073657276F1
:1014700069636520646973636F7665726564206F64
:101480006E20636F6E6E5F68616E646C652030788D
:1014900025780D0A000000002DE9F043264CA4F148
:1014A00010092278D9F8048099F80350404694F83E
:1014B00001C0D9F8086031E002EB42036168521CB8
:1014C00001EBC301A378D2B2934200D100220B7882
:1014D000022B02D0032B21D11DE003464F68194691
:1014E00003E0B94203D00B46C969B9B1F9E7A9B124
:1014F0008B4205D1C06918B9104E0125B560002690
:101500000F68C969D96149B10B683B440B6005E0BC
:101510000174C06900E000210028F9D19445CBD1C5
:10152000C9E9010689F80350404502D00120BDE811
:10153000F0830020FBE7000098210020001001400C
:101540002DE9F0412A4F0446002607F11005D7F88F
:1015500004803EE002D02046E4691DE028786968F6
:1015600000EB4002401CC0B201EBC2012870AA7817
:10157000904200D12E700A784868012A2BD1027C53
:101580004ABB8A684260CA6882600A69C260496967
:101590008161F97801B146604368BA68DFF854C0E8
:1015A000991A21F07F41614502D28268114406E018
:1015B000D11A826821F07F418A4202D9511A016012
:1015C00000E006604660012186600174C66101F09A
:1015D00049FC002CBED1287869788842BED1796850
:1015E000414502D00120BDE8F0810020FBE700006A
:1015F00088210020FFFF7F0008B5002000F028FEB2
:1016000008B1FEF749FE2FA1032000F08FFD002056
:101610000122032102FA00F313F4602F04D08300A7
:1016200003F1A043C3F80017401C2028F2D32D4E2D
:101630004FF4602030600025371D3D602B462A4A5C
:1016400003212846FEF746FE08B1FEF725FE40F2CC
:10165000666201212548FEF7BFFD08B1FEF71CFEBA
:10166000FFF7B4F92248FEF7F9FF08B1FEF714FEC0
:101670001E4C2048241FDFF870800090257008F170
:101680004808217808EB01106946FFF789F808B18E
:10169000FEF702FE2078401CC0B220700828F0D36C
:1016A000257001F0C5F94FF400303860C6F80050DD
:1016B00000F09AFC0028FBD13EDF0028F8D0FEF7AE
:1016C000EBFDF5E74150503A494E464F3A4D756CA7
:1016D00074696C696E6B204578616D706C650D0A7C
:1016E0000000000008050050202200203C210020BE
:1016F000F90F0200BD13020000F1804000680028CD
:1017000000D00120704708B500F180400021016041
:101710000068009008BD000000283ED01F49204A04
:10172000096800BF00BF00BF00BF00BF00BF00BF0F
:1017300000BF91422FD000BF00BF00BF00BF00BF5D
:1017400000BF00BF00BF00BF00BF00BF00BF00BFA1
:1017500000BF00BF00BF00BF00BF00BF00BF00BF91
:1017600000BF00BF00BF00BF00BF00BF00BF00BF81
:1017700000BF00BF00BF00BF00BF00BF00BF00BF71
:1017800000BF00BF00BF00BF00BF00BF00BF00BF61
:1017900000BF00BF00BF401EC3D17047CC21002056
:1017A0000024F40010B50B4C207808B1852010BD42
:1017B0000020A06060602061E060062100F036F843
:1017C00001F004FB012108B90348016021700020E9
:1017D00010BD0000803300201805004038B50020FF
:1017E0008DF800006846FEF701FE074C207808B926
:1017F000FFF7D8FFE068401CE0600120A0709DF872
:101800000000FEF717FE38BD80330020002801D10C
:10181000FFF788BB704700F01F020121914040098B
:10182000800000F1E020C0F8801170474907090EE0
:10183000002806DA00F00F0202F1E02282F8141DFF
:1018400003E000F1E02282F8001400F01F02012101
:1018500091404009800000F1E020C0F88012C0F8FB
:1018600000117047000B40B27047000010B50446ED
:1018700001F034F828B12046BDE81040002100F006
:1018800035BA204601F036F800280FD02046FFF781
:101890001FFB074A02EB8001D1F8103523F001034A
:1018A000C1F8103501218140C2F8081310BD0000B5
:1018B000006000402DE9F0478846814601F00EF8AF
:1018C0000124224E0028484618D0FFF701FB30447F
:1018D00090F848008009032802D0012806D007E0CC
:1018E0001B48006804FA09F4204201D1022100E0FB
:1018F00003214846BDE8F04700F0F8B900F0FAFFD0
:10190000002820D04846FFF7E3FA0546114F4FF470
:10191000807007EB850100EB8500D1F8102580B2BF
:1019200042F00102C1F8102500F0EEF9B8F1000F05
:1019300009D04846FFF7CCFA56F82000002802D01C
:10194000AC40C7F80443BDE8F087000094330020A2
:1019500010050050006000402DE9FC41DFF8A48034
:10196000044608EB0400002790F930001346C01726
:101970000E46401C01D0082740E0F2781946204668
:10198000FFF782FA0546401C37D0B07848B1A00076
:1019900000F1A040D0F8001721F00201C0F80017B4
:1019A00007E000217378204600910A46019100F07B
:1019B0005FF9F078C0B11448317800EB8500D0F8B9
:1019C0001025124B1A40C0F810254FF4F8524FF46E
:1019D000403302EA042203EA01410A43D0F8101519
:1019E0000A43C0F8102509E008EB0500327810F82A
:1019F000481F41EA8211017000E004273846BDE823
:101A0000FC8100009433002000600040FFE0FCFFF8
:101A100003490968C14011F0010000D0012070475E
:101A20001005005070B5144D95F8540008B1082009
:101A300070BD0020411E2A18401CC0B282F8301030
:101A40002028F8D300242046FFF710FA641CE4B2E3
:101A50000C2CF8D306210846FFF7E8FE4FF4BE70C1
:101A600000F052F905494FF00040C1F8040301208D
:101A700085F85400002070BD9433002000600040C1
:101A8000034890F85400002800D00120704700005F
:101A9000943300202DE9F04105460079164F904619
:101AA00007EB40140E46E07E10B10820BDE8F0813F
:101AB000707F20772846FEF7D7FC5FEA0800606059
:101AC0003169216003D0317F2846FFF715FC287962
:101AD00007EB4010007F0028286801D0082100E0B3
:101AE0000421C0F800150020E0752076A0750121C2
:101AF000E176A076DAE70000EC3300202DE9F0472C
:101B0000054600793E4C0E4604EB4013187F38B171
:101B10004FF40050B0EB164F02D01020BDE8F08714
:101B2000284600F06FF808B11120F7E79A750027F2
:101B30009E609F8228794FF0010804EB40143E46D6
:101B4000207F0028286825D04FF49079494600F07E
:101B5000A7FB4FF4AC7A5146286800F0A1FB286837
:101B6000A17DA268C0F84425C0F848152868C0F8CF
:101B700008806068F0B94946286800F08CFB804610
:101B80005146286800F087FB58EA0001F3D058BBA3
:101B9000A7750FE04FF48E7A514600F070FB28686D
:101BA000C0F808802146286801F042FA61684FF4C5
:101BB000807089B13046B1E75146286800F05AFB81
:101BC00010B9A08A4845F7D1A08A484505D02146DA
:101BD000286801F02DFA00E08146A08AA17D8842A4
:101BE000EAD3A08A484501D10F26D1E7514628689B
:101BF00000F040FB0028F9D02868C0F80C80C7E747
:101C0000EC3300200079044901EB4010807D00286E
:101C100000D0012070470000EC33002070B504466E
:101C200000791149002601EB401520682A7FC0F891
:101C30000065686888B1207901EB4010007F0028BA
:101C4000206801D0094901E008498C39C0F808131F
:101C50002068FFF707FEFFF7DEFD204600F056FE86
:101C6000EE766E6070BD0000EC33002010030200C1
:101C700030B541EA4201DDE9034541EA83018000D4
:101C800041EA042100F1A04041EA0541C0F80017F3
:101C900030BD30B541EA4201DDE9034541EA830147
:101CA000800041EA042100F1A04041EA0541C0F86A
:101CB000001730BD1CB5002100910B460122019197
:101CC000FFF7E7FF1CBD1CB500220B460092114632
:101CD0000192FFF7DEFF1CBD1CB5002100910B46F1
:101CE000012201911146FFF7D4FF1CBD800000F5D1
:101CF000E06000F1A040026822F440320260026815
:101D000042EA014101607047034908B508440021D7
:101D100001600068009008BD006000400249405822
:101D2000012800D000207047006000400048704744
:101D3000C51D020070B51D4C05468AB0207828B13B
:101D40006078854202D100200AB070BD01263302BE
:101D5000174A18A100200096FDF73EFD08B10820A3
:101D6000F2E72022154901A8FDF766FB00208DF857
:101D700018000620019008200290052004900720FA
:101D800003904FF0EB7007900848001DFFF746FFE7
:101D90000DB1002200E00A4A044801A9001DFFF726
:101DA00079FE0028D0D126706570CCE7A8210020EC
:101DB000383400204E6F726D616C000030330200C9
:101DC0006D3002002DE9F04FC1B00D00DDF82CB1EF
:101DD0004D984FF000011C4690460BEB000A4091D5
:101DE00001D00A2600E0002600F002FF002873D18F
:101DF0006F46BCB9409840AA3918284601F0B6F899
:101E0000002869D04046FDF73BFBC22800D9C2201C
:101E1000054640982A4638444146FDF70DFB409858
:101E2000284440904FF020094098821931320DEB40
:101E300002016844002202E000F8019B521CB242F9
:101E4000FAD30027544508D300F8019B00F8019B02
:101E500000F8019B01F8019B26E05C4502D24A9AFA
:101E6000125D03E04C9AA4EB0B03D25C844601257F
:101E7000AB0022FA03F808F00F03092B01D937331E
:101E800000E03033C5F101086D1E0CF80830EFD2C8
:101E90000CF10200A2F1200300F8019B5E2B00D997
:101EA0002E2201F8012B641C7F1C102FCAD30D2297
:101EB0000A700A224A7080F80090409881194331D4
:101EC0006846409100F09AFE30B100F091FE18B9DA
:101ED000002040905445A7D341B02046BDE8F08F84
:101EE0002DE9F043C5B000251C46904689464C9F1D
:101EF000449500F07DFEB0BB449804AE311844AA6E
:101F0000484601F033F800282ED0072F22D2DFE810
:101F100007F00412192E384451004046FDF7B0FA7C
:101F2000054644982918FF2914D830442A464146CA
:101F3000FDF782FA0EE04498226830444146FDF7EE
:101F40009DFE06E0D4E90023449841463044FDF765
:101F500095FE0546294644A8FEF7DCFE18B14499D3
:101F6000B1F5807F33D9002045B0BDE8F083A0688B
:101F70000090D4E90023449841463044FDF77EFEAA
:101F8000E7E7D4E90201CDE90001D4E90023449850
:101F900041463044FDF772FEDBE704F1080007C854
:101FA0008DE80700D4E90023449841463044FDF70A
:101FB00065FECEE704F108000FC88DE80F00D4E9F4
:101FC0000023449841463044FDF758FEC1E704A879
:101FD00000F014FEC8E7000000487047E11E020050
:101FE0000120FFF7A7BE00002DE9F04F87B0FEF7F4
:101FF000CDFE18B1002007B0BDE8F08F454ED6E900
:10200000014704EA070006EB8000A146641CC5688E
:102010000CE000BFC5F3891000EB9550044404EABE
:10202000070006EB8000A146C568641CA807F1D034
:1020300005F003004FF0000B022805D0AA0A01A802
:10204000C5F38313002153E004EA070006EB800088
:1020500004F1010A0AEA0704C268381B80004FEA4B
:102060009558001DC5F38913804521D929490C31A4
:1020700038B106EB840400F0FF0CA8EB00000C3430
:1020800004E00C46002108F0FF0C0846C0B2CDE980
:102090000210CDE9004CD6F81444C5F3C2005946ED
:1020A000A047404511D108F103080AEB98042AE043
:1020B000002106EB84000C300090CDE901810391F2
:1020C000C5F3C200D6F81444EAE760F38F1509EAB5
:1020D000070006EB8000C56016E000BF04EA070CAD
:1020E00006EB8C0C491CDCF80CC040F804CB641CDB
:1020F0009942F3D3C5F3C2000093D6F8105401AB54
:102100005946A84700B17460FEF740FE80F0010018
:1021100071E7000038360020034AFF239360002354
:102120001360536000F08CB8383600202DE9F0477A
:10213000DFF83C800446002689463046D8F808700F
:10214000D8F80050FEF7F0FD00280ED00948002115
:102150003D40406861F3820064F3C50066F3891076
:1021600008EB850169F39F20C860BDE8F087000097
:1021700038360020503302002DE9F047DFF84C805C
:1021800005460127924689463846D8F80860D8F8AF
:102190000040FEF7C9FD002815D00D48002104EAD3
:1021A00006028068641C61F3820065F3C50067F372
:1021B000891008EB8202344069F39F2008EB840108
:1021C000D060C1F80CA0BDE8F087000038360020D0
:1021D000503302002DE9F05FDFF85C8006460227ED
:1021E0009B46924689463846D8F80850D8F80040B1
:1021F000FEF79AFD00281CD01048002104EA0502D1
:10220000C06808EB820261F3820066F3C50067F3E1
:10221000891069F39F20641CD06004EA0502641CE5
:1022200008EB82022C4008EB8401C2F80CA0C1F834
:102230000CB0BDE8F09F000038360020503302009B
:10224000024A02F5826203C270470000383600205D
:1022500070B506460020FFF76DFD040008D1FFF7BA
:1022600065FD0546FFF7B8FE32462946FFF754FFE5
:10227000204670BD4058002800D00120704708B5A6
:10228000002242504058009008BDD0F80403084096
:1022900000D0012070474058002800D0012070472E
:1022A00008B5002242504058009008BD10B586B0D5
:1022B00000F1180100F108040491C07D01AAC008D2
:1022C000ADF80C0003A90920FDF744FF30B101AAC5
:1022D00003A90820FDF73EFF002818D10D48FDF79F
:1022E000CFF8002813D0BDF804200A480299FDF762
:1022F000CEF800280BD1074A2046083AA2F108017F
:102300008CDF020003D004A10120FFF735FF06B0E7
:1023100010BD0000D03202004150503A4552524F99
:10232000523A436F6E6E656374696F6E20526571C9
:1023300075657374204661696C65642C20726561F3
:10234000736F6E2025640D0A000000002DE9F04730
:102350000546041D00881F2876D016DCDFF828818A
:102360004FF480294FF400374FF00006A8F1040A1B
:10237000102818D011284BD01B2866D01D2861D1F9
:102380002846BDE8F047FFF791BF3B286AD05528A3
:1023900075D0562856D13DA10420FFF7C7FEA88866
:1023A000132176DF65E0228841A10320FFF7E4FED8
:1023B0002088082802D30020FDF76EFF21884A48B4
:1023C000002200EB0110FEF7DEF908B1FDF764FF13
:1023D0002188454A6B204843803202EB8000FEF79B
:1023E00071F9112802D008B1FDF756FF4446C8F82C
:1023F00000905546CAF80060FEF782F8082805D01C
:1024000027602E60BDE8F04700F012BB2F6018E097
:102410002379228835A10320FFF7DCFEFDF7B2FE09
:1024200008B1FDF739FF00F003FB4446C8F800701F
:102430005546CAF80060FEF763F8002802D1C5F8D7
:1024400000902660BDE8F08708E020790328F9D1E4
:10245000BDE8F04734A10420FFF768BE2088211DA5
:1024600075DF06E03BA10420FFF760FEA88813217A
:1024700076DF0028E6D0BDE8F047FDF70DBFA8885D
:102480001721ADDFF5E700000C0500504150503A30
:1024900044454255473A4741545420536572766546
:1024A000722054696D656F75742E0D0A000000006E
:1024B0004150503A494E464F3A6C696E6B20307825
:1024C00025782065737461626C69736865642C207B
:1024D000737461727420646973636F7665727920B6
:1024E0006F6E2069740D0A00682200204150503A36
:1024F000494E464F3A4C42532063656E7472616C8C
:10250000206C696E6B203078257820646973636F66
:102510006E6E65637465642028726561736F6E3AD0
:10252000202564290D0A00004150503A4445425587
:10253000473A436F6E6E656374696F6E20526571C2
:10254000756573742074696D6564206F75742E0DE4
:102550000A0000004150503A44454255473A47412D
:10256000545420436C69656E742054696D656F75B1
:10257000742E0D0A000000002DE9F84F05460C46A8
:102580000888B5F8AA11884254D195F8A601DFF859
:10259000FCA0C0EBC00000EB800005EB40066088AB
:1025A0004FF003094FF00008F0BBE3883079A11D1C
:1025B000DAB250FA83F3052B01D8024400E0052279
:1025C0003271002216E000BF00EB400302EB8207ED
:1025D00001EB470706EB8303D7F802C0C3F80AC034
:1025E000D7F806C0C3F80EC07F895F82401CA3F8ED
:1025F0001480521C33798342E6D895F8A61100EB7B
:102600004000C1EBC10101EB810106EB800005EB4D
:102610004101C088098988420ED2D8B205280BD062
:1026200085F8A501218800E006E02846FEF758FC61
:1026300001000AD1BDE8F88F85F8A5812288694696
:102640002846FEF7EFFC01000BD085F8A781228811
:102650002846FEF7AFFD8AF800902188AAF80210FC
:10266000E8E79DF800000028E4D023883288084974
:102670000320FFF7AFFD228801212846FEF748FD21
:102680002188284600F0E0F8D4E70000003100205F
:10269000C0330200F8B505460C460888B5F8AA1103
:1026A00088424AD195F8A601A11DC0EBC00000EBFD
:1026B000800005EB400695F8A50100EB400006EB15
:1026C000800260880A32B8B9002042F602170B88EF
:1026D00010E000BF00EB400C01EB4C0CBCF804C058
:1026E000BC4506D100EB400001EB40004088508122
:1026F00002E0401C8342EDD800278DF8007095F869
:10270000A5013179401C884203D101208DF80000D9
:1027100018E085F8A501228869462846FEF782FC64
:1027200001000BD085F8A77122882846FEF742FDEC
:102730000C480321017021884180F8BD9DF80000FC
:102740000028FAD02388328807490320FFF742FD8A
:10275000228801212846FEF7DBFC2188284600F06C
:1027600073F8F8BD003100208434020070B50646CD
:1027700090F8A6010C46C0EBC00000EB800006EB11
:1027800040050888B6F8AA1188422CD160882A88AA
:1027900070B115A10320FFF7EFFC2288002130461D
:1027A000FEF7B6FC21883046BDE8704000F04CB81A
:1027B00019A10320FFF7E0FCA1682960E068C5F8D3
:1027C000060021883046FEF78BFB01000BD000206D
:1027D00086F8A70122883046FEF7ECFC1948032151
:1027E00001702188418070BD424C455F44425F4486
:1027F0004953433A494E464F3A5365727669636589
:1028000020555549442030782578204E6F74206635
:102810006F756E640D0A0000424C455F44425F4490
:102820004953433A494E464F3A466F756E6420739A
:10283000657276696365205555494420307825785E
:102840000D0A0000003100202DE9F047044690F801
:10285000A8010D46401C1E49C0B284F8A801C968F1
:10286000DFF8709000264FF0030888422CD284F8DD
:10287000A56194F8A6012B46401CC0B2C0EBC00174
:1028800001EB810104EB410784F8A601A9F11801CD
:1028900001EB80001049006838603E713A880320DF
:1028A000FFF798FC3A460121284694DF010009D041
:1028B00084F8A7612A462046FEF77CFC89F8008050
:1028C000A9F80250BDE8F08784F8A761F6E7000098
:1028D0005C21002000310020283402000449084413
:1028E00090F93000082801DB012070470020704774
:1028F000943300200449084490F93000082801D29C
:1029000001207047002070479433002070B50246C4
:102910004FF0FF301168D1F80C35D1F81465D1F8BB
:102920000855D1F81045C1F80C05C1F81405116817
:10293000C1F80805C1F810051846FFF7BBF9304685
:10294000FFF7B8F9601C02D02046FFF7B3F9681C06
:1029500004D02846BDE87040FFF7ACB970BD4FF019
:102960008050D0F80C01800200F100507047000048
:1029700070B50C4B00210A4ADC680DE002EB8105C2
:102980008678AD78B54206D132F821500688B54236
:1029900001D1586870BD491CA142EFD3002070BD21
:1029A000E83000205C21002070B5012670044FF053
:1029B000E0210025C1F88001084C4010C4F848030C
:1029C000C4F8080366602F20FEF7A6FEA660044C3C
:1029D0002F20A560FEF7A0FEA57070BD001001407D
:1029E0008821002070B50546C87D0C4600284FF4AC
:1029F000847128460AD0FFF742FCD5F81805627E9C
:102A0000E1688854607E401C607670BDFFF737FC3B
:102A1000D5F8180570BD1FB501238DF800308DF86D
:102A200008100192D0E90012684690471FBD0000CF
:102A300010B58BDF0A4A0BA10320FFF79DFB084866
:102A400010388ADF08B1FDF727FC0120FEF744F8B3
:102A5000002803D0BDE81040FDF71EBC10BD0000EB
:102A6000D03202004150503A494E464F3A73746199
:102A70007274207363616E6E696E6720666F722078
:102A8000646576696365206E616D652025730D0A46
:102A90000000000010B50446FDF714F940B1002C09
:102AA00009DA04F00F0000F1E02090F8140D06E0C0
:102AB00042F2010010BD04F1E02090F80004410949
:102AC000082914D299B1012911D004290FD0052960
:102AD0000DD00B480122816861B1610950F82130A5
:102AE00004F01F04A240134340F8213005E042F2F5
:102AF000020010BD2046FCF70AFE002010BD0000B9
:102B00002C34002070B50028049D18D0002916D060
:102B1000002A14D05FF0000430F814609E420FD1F8
:102B200000200123A34008E001EB000426780DB14A
:102B30001E4300E09E432670401C9042F4D370BDBB
:102B4000641C082CE8D370BD70B5054600242146EE
:102B5000284600F00AF808B1204670BD641CA4B2F3
:102B6000082CF4D34FF6FF7070BD01228A40024258
:102B700001D001207047002070472DE9F04186B058
:102B800080464FF0000017460D00009012D0002440
:102B90006E46A1B23846FFF7E8FF40B1009935F81C
:102BA000140006EB410188800098401C0090641CD2
:102BB000082CEED3142269464046FCF73DFC06B0D3
:102BC000BDE8F08170B5002506462C46A1B230461E
:102BD000FFF7CBFF00B16D1C641C082CF6D3284610
:102BE00070BD08B5009313460122FFF78BFF08BDA7
:102BF0000148FFF707B80000AC2100202DE9F041A3
:102C00000C460A468046014601260E48FCF714FC95
:102C1000E2B20C490C48FEF771FF00B10026002516
:102C20005FF00A0708EB050122460020FCF7FCFDD7
:102C30000544241A08B97F1E01D0002CF2D1304679
:102C4000BDE8F08138350020AC21002018B10349DF
:102C5000C860002070470E2070470000B821002097
:102C60001CB50446114801900246009010A10320B3
:102C7000FFF782FA6946204660DF0446DDE900205E
:102C800082420AD015490220FFF776FAFFF767FE65
:102C90000099421A12A1022003E024B122461DA18C
:102CA0000120FFF769FA20461CBD000038210020F2
:102CB0005344483A494E464F3A73645F626C655FCD
:102CC000656E61626C653A2052414D205354415209
:102CD0005420617420307825780D0A00AC3502004C
:102CE0005344483A5741524E494E473A72616D201B
:102CF00073697A652073686F756C64206265206102
:102D0000646A757374656420746F20307825782048
:102D10000D0A00005344483A4552524F523A7364E8
:102D20005F626C655F656E61626C653A20657272A8
:102D30006F7220307825780D0A00000070B50E46BD
:102D4000054614461C211046FCF78FFB012020800D
:102D50000021A16121752672657205B1A072002063
:102D600070BDFDF771BA00002DE9F041074619B1B9
:102D700088074FF0000402D00720BDE8F081114D14
:102D80004FF0E0200126A9606A806B60D0F8000156
:102D900010F0010F03D034460020FCF7A2FC0A49D2
:102DA000384610DF070005D014B10020FCF7AFFC57
:102DB0003846E2E72E70FEF711FDBDE8F04116201F
:102DC000FFF768BEB8210020632D0200014800789B
:102DD00070470000B82100202DE9F84F204C002555
:102DE0006846D4E901B6FEF7FFF98046FEF754FBCA
:102DF0000746A946B8F1000F25D00023009ACC461B
:102E0000606819E007680146974202D9BA1A026061
:102E100014E0C1F800C0D1F80C80D21BC8693B4453
:102E20008A46B8F1000F07D0F71827F07F47C1E9AD
:102E30000178CAF81C500D460028E3D1606028468E
:102E4000FEF77EFB04E02846FEF77AFB00B917B1D7
:102E50005846FEF77BF884F80390BDE8F88F000031
:102E6000882100200D4B10B5596831B102680C68FB
:102E7000A24204D8A21A0A60C161586010BD0B4674
:102E800003E00B46C969121B21B10C689442F8D3C8
:102E9000A41A0C600260C161D86110BD88210020B5
:102EA0007CB5064600240D468DF800406846FDF7C7
:102EB0009DFA01A800F0EAF970B105700949466071
:102EC0009DF8040048709DF80000FDF7B3FA142047
:102ED000FCF728FC20467CBD04249DF80000FDF78B
:102EE000A9FAF7E7982100202DE9F0411D4D6C6803
:102EF000002C35D01C4800270068A968B846401A45
:102F000020F07F462068B04215D82246361A074482
:102F1000E469107C68B182F81080EB6833B1D2E9C3
:102F20000501984728B1FDF7B7F902E0D2E905108D
:102F30008847002CE6D129786878814206D1401C68
:102F4000C0B26870022801D185F80180054869780F
:102F5000183040F82170BDE8F0411420FCF7E2BBC6
:102F6000BDE8F081882100200415014010B5144609
:102F700002004FF001000AD00846126805A1FCF7D4
:102F80007DFE01462046BDE81040FDF7C3BE00218E
:102F9000216010BD5B253038645D000010B5134C16
:102FA000D4E90010884220D000EB8002104800EBEA
:102FB00082018B7853B130F8220008319CDF58B180
:102FC000BDE810400B490420FFF7B0B830F82200EC
:102FD000898800229ADFF2E707A10420FFF7A6F80C
:102FE0002079401C00F00700606010BD6C210020BB
:102FF000E0320020EC340200424C455F4C42535F0B
:10300000433A44454255473A534420526561642F40
:103010005772697465204150492072657475726EEB
:103020007320537563636573732E2E0D0A000000C1
:1030300070B50C4605464FF48E71FFF720F9A18A52
:10304000A068415CA08A401CA082C5F81C1570BD18
:103050001FB500228DF800208DF8081081680191BD
:103060008275D0E90012684690471FBD007801289C
:1030700001D1014988707047A82100202DE9FF4740
:103080000C4605464FF40071FFF7FFF801274FF497
:103090000178002618B34FF4927949462846FFF785
:1030A000E9F8E0B149462846FFF7E9F8C5F8088392
:1030B000A07E00B96F6002208DF80000D5F8800472
:1030C000C5F880040390E07D8DF80800E068019069
:1030D000E6752676D4E900126846904727E0042179
:1030E0002846FFF7D2F810B34FF484712846FFF753
:1030F000C1F8E0B121462846FFF774FCE07D617E0F
:10310000884214D1207E38B1617EE268E075206982
:10311000E0602676667607E0A07E00B96F60C5F8AD
:103120000883E675617EE2682046FFF774FC4FF481
:103130008E7841462846FFF79DF888B1A08AA17D88
:10314000884204D221462846FFF772FF08E0414634
:103150002846FFF794F8A17D11B12046FFF778FFCC
:103160004FF4A27841462846FFF784F8002812D091
:1031700041462846FFF783F8A07E00B12F60E07D2E
:10318000002808D0E675617EE26804B02046BDE8FC
:10319000F047FFF740BCBDE8FF872DE9FF410C4633
:1031A0004FF4927705463946FFF775F80026C0B10F
:1031B00039462846FFF774F802208DF80000D5F84C
:1031C0008004C5F880040390D5F83C058DF808000C
:1031D000E0680190E6752676D4E9001268469047CB
:1031E00024E04FF4887739462846FFF754F8E8B1D1
:1031F00039462846FFF754F8D5F83C05C1B2E07DC2
:10320000884213D1207E60B1E268D5F8000220F038
:103210002000C5F80002207EE0752069E060267677
:1032200001E0E675E2682046FFF7F5FB4FF4A27770
:1032300039462846FFF72FF868B139462846FFF788
:103240002FF8E07D38B1E675D5F83C05E268C1B2EB
:103250002046FFF7E0FB4FF4907631462846FFF713
:103260001AF800280FD031462846FFF719F8A07D3C
:10327000002808D0D5F84C0504B0C1B22046BDE8FE
:10328000F041FFF7E5BEBDE8FF8100000A4A10B536
:1032900053789478591CC9B28C4200D1002114781B
:1032A0008C4201D1002010BD0170506803EB430136
:1032B00000EBC10010BD00009821002001000007B4
:1032C0000000A0005000000006001800000090015F
:1032D00047544B5F486170746963000048300020B8
:1032E00068300020943000200D0000000E00000027
:1032F0000F000000100000000D000300310A020062
:103300000E000300310A02000F000300310A020020
:1033100010000300310A020023D1BCEA5F782315B4
:10332000DEEF1212000000000C3400200300000049
:10333000FFFFFFFFFFFFFFFFFFFFFFFFFFFFFFFF9D
:1033400000000000000000000000D601060100009F
:103350002900000001000000010000000100000041
:103360000100000001000000010000000100000059
:10337000020000004150503A494E464F3A63616C9A
:103380006C20746F20626C655F6C62735F6F6E5F40
:1033900064625F646973635F65767420666F722030
:1033A000696E7374616E636520256420616E6420AC
:1033B0006C696E6B2030782578210D0A00000000C2
:1033C000424C455F44425F444953433A494E464F5D
:1033D0003A446973636F76657279206F662073650E
:1033E0007276696365207769746820555549442071
:1033F0003078257820636F6D706C65746564207714
:10340000697468207375636365737320666F7220D7
:10341000436F6E6E656374696F6E2068616E646C75
:10342000652025640D0A0000424C455F44425F441C
:103430004953433A494E464F3A5374617274696E28
:103440006720646973636F76657279206F66207395
:1034500065727669636520776974682055554944BB
:10346000203078257820666F7220436F6E6E65631A
:1034700074696F6E2068616E646C652025640D0A46
:1034800000000000424C455F44425F444953433AC8
:10349000494E464F3A446973636F76657279206F7F
:1034A0006620736572766963652077697468205554
:1034B000554944203078257820636F6D706C6574B1
:1034C000656420776974682073756363657373201E
:1034D000666F7220436F6E6E656374696F6E6861AC
:1034E0006E646C652025640D0A000000424C455F47
:1034F0004C42535F433A44454255473A5344205265
:103500006561642F57726974652041504920726566
:103510007475726E73206572726F722E20546869B2
:1035200073206D6573736167652073656E64696E82
:10353000672077696C6C20626520617474656D70BA
:1035400074656420616761696E2E2E0D0A000000AB
:10355000424C455F4C42535F433A44454255473ADB
:10356000436F6E6669677572696E672043434344B3
:103570002E20434343442048616E646C65203D2007
:1035800025642C20436F6E6E656374696F6E2048EE
:10359000616E646C65203D2025640D0A000000000A
:1035A0004F766572666C6F770D0A00005344483A97
:1035B0005741524E494E473A73645F626C655F658E
:1035C0006E61626C653A206170705F72616D5F62FE
:1035D0006173652073686F756C6420626520616437
:1035E0006A757374656420746F20307825780D0ACD
:1035F000000000001436020038210020980000006E
:10360000A4FC0100AC360200D0210020083D0000DF
:10361000B4FC0100000000000D000300A10D020039
:10362000000000000000000000000000000000009A
:10363000000000000000000000000000000000008A
:10364000000000000000000000000000000000007A
:10365000000000000000000000000000000000006A
:10366000000000000000000000000000000000005A
:10367000000000000000000000000000000000004A
:1036800000000000000000000020004000000000DA
:10369000A035020000000000000000000000000053
:0C36A00000000000000000000090D003BB
:040000050001F40101
:00000001FF
