:020000040007F3
:103000003859002049340700513407005334070071
:1030100055340700573407005934070000000000FA
:103020000000000000000000000000005B3407000A
:103030005D340700000000005F34070061340700C2
:103040006334070063340700954B070063340700BF
:1030500063340700633407006334070063340700F8
:1030600063340700633407006334070063340700E8
:1030700063340700633407006334070063340700D8
:1030800063340700AD48070063340700633407006A
:10309000D148070063340700D548070063340700B0
:1030A00063340700633407006334070063340700A8
:1030B00063340700633407000000000000000000D4
:1030C0006334070063340700633407006334070088
:1030D0006334070063340700633407000000000016
:1030E00000000000000000000000000000000000E0
:1030F00000000000000000000000000000000000D0
:1031000000000000000000000000000000000000BF
:1031100000000000000000000000000000000000AF
:10340000DFF80CD000F0AAF800480047696907000F
:1034100038590020056885F308884068FF2464B2A5
:10342000EFF30585002D01D1A64600472546064647
:1034300021273FBAF0B40024002500260027F0B46D
:10344000F92040B200470000064880470648004780
:10345000FEE7FEE7FEE7FEE7FEE7FEE7FEE7FEE744
:10346000FEE7FEE7F948070001340700202A04DBE5
:10347000203A00FA02F1002070479140C2F1200387
:1034800020FA03F319439040704740EA01039B0779
:1034900003D009E008C9121F08C0042AFAD203E0C9
:1034A00011F8013B00F8013B521EF9D27047D2B22D
:1034B00001E000F8012B491EFBD270470022F6E71D
:1034C00010B513460A4604461946FFF7F0FF20469A
:1034D00010BD421C10F8011B0029FBD1801A704757
:1034E00030B504460020034600E05B1C934203D243
:1034F000E05CCD5C401BF8D030BD2DE9F05F0546A7
:10350000002092469B4688460646814640241BE0A2
:10351000284641464746224600F032F853465A466E
:10352000C01A914110D3114618462246FFF79EFF5C
:103530002D1A67EB01084F46224601200021FFF7B4
:1035400095FF17EB00094E41201EA4F10104DFDCBA
:10355000484631462A464346BDE8F09F064C074D93
:1035600006E0E06840F0010394E807009847103453
:10357000AC42F6D3FFF748FF48B9070068B9070027
:10358000202A04DB203A21FA02F00021704721FAB8
:1035900002F3D040C2F1200291400843194670471F
:1035A0002DE9F0438BB01446129D15F9046B00967B
:1035B0001F46804689462B460246214602A800F057
:1035C000BDFC02A9129A084600F0A8FC129B02AAB0
:1035D0004146404600F092FC129B02AA214620463A
:1035E00000F08CFC2B464A4639463846009600F0DF
:1035F000A5FC129A394602A800F090FC02A92B46BD
:1036000042460846009600F099FC02A92B46224645
:103610000846009600F092FC2B4642462146204682
:10362000009600F08BFC129B22464946484600F06B
:1036300065FC2B4602AA41462046009600F07EFC1F
:10364000129B22463946384600F058FC2B464A4623
:1036500039463846009600F071FC324602A92046F1
:1036600000F032FE0BB0BDE8F083F0B5154689B02E
:103670001C4607460E461A462946684600F04EFC90
:1036800023466A463946384600F038FC23462A4627
:103690006946684600F032FC23466A4631463046A9
:1036A00000F02CFC09B0F0BD8B1802448B4204D012
:1036B00013F8010D02F8010DF8E770472DE9F04706
:1036C000B3F9025089460824E91D1F3591FBF4F433
:1036D0002021944295FBF1F54FFA85F828BF144656
:1036E0001F464146064600F071FA22464946FFF75A
:1036F000DBFFB7F90230E4009C4220D9E41A06EB64
:1037000085010023C4F120008E4208D251F8042D17
:1037100022FA04F52B430B6002FA00F3F4E7243796
:1037200042463146384600F05DFA012807D043464C
:103730003A4631463046BDE8F04700F019BFBDE8D3
:10374000F0872DE9F04793F9006092B0044689466E
:10375000104631461546984600F06CFA002840F0B5
:1037600098804246494602A800F0D8FB434602AA88
:1037700021460AA800F0C2FB02A90846424600F012
:10378000CDFB43462A464946484600F0B7FB08F1C0
:10379000040742462946284600F0C0FB3B462A461D
:1037A00021462046009600F0F7FA3B462A46294675
:1037B0002846009600F0F0FA3B462A462146284665
:1037C000009600F0BBFB43462A462146204600F007
:1037D00095FB3B46224621462846009600F0DCFA3F
:1037E0003B4600962A462146204600F0D5FA23683B
:1037F000DB0714D533463A462146204600F0B8F997
:1038000031468246204600F052FD06F18043013BDE
:1038100054F8230040EACA7044F8230003E031461C
:10382000204600F044FD42462146284600F076FB43
:103830003B460AAA29462846009600F07FFB3B46F5
:103840000AAA29462846009600F078FB0AA90846ED
:103850003B462A46009600F071FB43460AAA2146E1
:10386000204600F04BFB02AA3B461046214600963C
:1038700000F064FB32462946204600F025FD324622
:103880004946284600F020FD324602A9484600F08D
:103890001BFD12B0BDE8F0870048704798B80700DC
:1038A0002DE9F04FEDB01F46DDF8D8810590B8F94D
:1038B000026098F9005020231F3696FBF3F676B28B
:1038C00006F1FF3924AB002443F829406CAB03EB2D
:1038D00089034CA88A469346394698F9012043F853
:1038E000804C43F8604CFFF7DFFE98F9012054A8A4
:1038F000B918FFF7D9FE29464CA800F09BF90746F6
:10390000002840F02781294654A800F093F903903D
:10391000002840F0218108F1240332464CA91846C2
:10392000029300F05FF9012840F01881324654A953
:10393000029800F057F90128069040F00F811CAC66
:103940000CAF3346029A54A9204600F03EFA039B7E
:1039500047F829305A46514638464346FFF7AEFEEF
:1039600039463846029B0096224600F0B5FA0DF51E
:10397000B879029B009622464CA914A800F0ACFA34
:1039800048462A46059900F09FFCAB0009EB030A64
:103990000793059BA900591808F1440B50462A4685
:1039A00000F092FC59462A4634A800F08DFCAB008A
:1039B0000BEB03012A463CA800F086FC08F1040347
:1039C000494634AA20460095049300F0B7FA5346BE
:1039D0004A463CA934A8CDF80080FFF7E1FD2B460C
:1039E000049A2146204600F0F0F922465146484606
:1039F0004346FFF73AFE039B08933146059B0A9323
:103A00003846CDF824B0CDF82C9000F032FC314689
:103A1000814614A800F02DFC4845B8BF48461FFA5F
:103A200080F909F1FF3B0FFA8BFB5946384600F04D
:103A3000CFFD5946071C14A818BF012700F0C8FD88
:103A4000002814BF022300231F430DF1200A2A4639
:103A50005AF8277024A8394600F036FC0DF1B00B57
:103A6000AB00F9182A46584600F02EFC294620469D
:103A700000F0ACF8A9F10209069B23600FFA89F95E
:103A80000DF1900AB9F1000F45DB43462246D8F804
:103A9000A47059465046B84749460CA800F098FD16
:103AA0004946071C14A818BF012700F091FD002803
:103AB00014BF022300231F4308AB53F827702FB312
:103AC0002A46394634A800F0FFFB079B2A46F9181E
:103AD0003CA800F0F9FB434622463CA934A8FFF776
:103AE000C4FD049B009534AA514644A800F026FA70
:103AF0005B4652463CA934A8CDF80080FFF750FD44
:103B0000434644AA2146204600F0F8F909F1FF395E
:103B10000FFA89F9B6E72B46049A2146204600F0B1
:103B200054F94346224659465046FFF79EFD324619
:103B30005146029800F056F8012805D03346029A03
:103B40005146504600F014FD2A464CA9504600F05C
:103B50005DF804E0204602E0384600E003986DB0CE
:103B6000BDE8F08F00000000000000000000000031
:103B7000C3F10803DB0070B50133002403A500BFC7
:103B80005B1920C940CAAD1920C0184720C940CAD6
:103B9000754120C020C940CA754120C020C940CA13
:103BA000754120C020C940CA754120C020C940CA03
:103BB000754120C020C940CA754120C020C940CAF3
:103BC000754120C06441204670BD00BF002210B581
:103BD000144653B28B4204DA1BB2013240F8234040
:103BE000F7E710BD10B5013A52B2002A0ADB13B252
:103BF00050F8234051F823309C4205D8F3D24FF0BF
:103C0000FF3010BD002010BD012010BD70B5013A7D
:103C100052B20023002A09DB15B2013A50F82560A0
:103C200051F825407440234352B2F3E7B3FA83F0CE
:103C3000400970BD10B500231A465CB28C4204DA0C
:103C400050F8244001332243F7E7B2FA82F04009EA
:103C500010BD00002DE9F04FA5B01C46039114AB38
:103C60002146804610461746029300F002FB494B5E
:103C7000C0EB841005B22B40002BBEBF03F1FF3315
:103C800063F01F030133202695FBF6F676B20FFA98
:103C900083F904A83146FFF799FFB9F1000F30B25C
:103CA00014DD04AB002203EB8000C9F120061346AB
:103CB000A34212D257F8231001FA09FE4EEA02027B
:103CC00040F8232021FA06F20133F1E704AB224643
:103CD000394603EB800000F0F7FA27B27B0001932E
:103CE00004AB03EB870704F1FF3924AB012603EB98
:103CF0008909002D42DB24AB0022C6F10100964663
:103D000003EB860A03EB8000019B51B299421BDA58
:103D10000FFA81FC5AF8883C53F82CB024AB03EB23
:103D2000810151F8803CC3EB0B03CEEB03039B45B1
:103D300004D034BF4FF0010E4FF0000E50F8881C35
:103D4000013241F82C30DFE7CEEB06035E4221461C
:103D500004A85E4100F0ABFA24AB03EB84032146D8
:103D600053F8802C59F8803C384643EAC273013D31
:103D700049F8803C2DB200F09AFABAE724AB03EB85
:103D80008606224656F8881C404600F09DFA25B06B
:103D9000BDE8F08F1F00008070B59DF910401E46F1
:103DA00023460546FFF7E4FE30B922462946304651
:103DB000FFF718FF012807D0234632462946284638
:103DC000BDE8704000F0D4BB70BDF0B50F46A1B0A7
:103DD00006461946384615461C46FFF72BFF20B10C
:103DE00021463046FFF7F2FE74E022463946684627
:103DF00000F06AFA2246294608A800F065FA214632
:103E000010A8FFF7E3FE0123214618A81093FFF73F
:103E1000DDFE224608A96846FFF7E4FE002854D0DC
:103E2000009BDA0704D42146684600F040FA26E0F9
:103E3000089BDB0704D4214608A800F038FA3EE0CE
:103E4000002823461FDD08AA6946684600F090FB5B
:103E50002146684600F02BFA224618A910A8FFF761
:103E6000C1FE002805DA10A923462A460846FFF7B6
:103E70007FFE10A9234618AA084600F079FB2246C7
:103E8000294610A81EE008A96A46084600F070FB03
:103E9000214608A800F00BFA224610A918A8FFF73F
:103EA000A1FE002805DA18A923462A460846FFF78E
:103EB0005FFE18A9234610AA084600F059FB2246C7
:103EC000294618A800F066FCA3E7224610A9304650
:103ED00000F0FAF921B0F0BD70B590B005469DF93B
:103EE00050401E466846234600F03AF823463246C4
:103EF00069462846FFF7AEFE10B070BD30B51C46CF
:103F000091B0054693F90030684600F029F8D4F8DE
:103F1000AC3069462846984711B030BD30B51446DC
:103F200091B0054692F90020684600F0DAF9D4F81D
:103F3000AC3069462846984711B030BD70B59DF940
:103F400010401E462346054600F012FB38B12346BA
:103F5000324629462846BDE87040FFF709BE70BDCD
:103F60002DE9F04F08B4F8CA04B451F8042BA3FBB0
:103F7000028940F8048B4FF0000AE4FB629A4FF08C
:103F8000000BE5FB62AB4FF0000CE6FB62BC4FF0B0
:103F9000000EE7FB62CE51F8042B4FF00008E3FB64
:103FA000628940F8048BE4FB629AE5FB62ABE6FBB6
:103FB00062BCE7FB62CE51F8042B4FF00008E3FB34
:103FC000628940F8048BE4FB629AE5FB62ABE6FB96
:103FD00062BCE7FB62CE51F8042B4FF00008E3FB14
:103FE000628940F8048BE4FB629AE5FB62ABE6FB76
:103FF00062BCE7FB62CE51F8042B4FF00008E3FBF4
:10400000628940F8048BE4FB629AE5FB62ABE6FB55
:1040100062BCE7FB62CE40F8049B40F804AB40F87A
:1040200004BB40F804CB40F804EB0CBC052B00F0BB
:104030001E810C68A0F11400A1F11401A2F1140278
:1040400052F804EB4FF0000550F8046BE4FB6E5699
:1040500052F804EB50F8047BE4FB6E6752F804EB73
:1040600050F8048BE4FB6E7852F804EB50F8049B94
:10407000E4FB6E8952F804EB50F804ABE4FB6E9A53
:10408000A0F1140052F8044B51F804EB4FF0000C6F
:10409000E4FB6EC540F804CB51F804EBE4FB6E562C
:1040A00040F8045B51F804EBE4FB6E6740F8046BE6
:1040B00051F804EBE4FB6E7840F8047B51F804EB14
:1040C000E4FB6E8940F8048B51F804EBE4FB6E9A34
:1040D000A0E80006062B00F0CA800C68A0F11800CA
:1040E000A1F11801A2F1180252F804EB4FF00005FB
:1040F00050F8046BE4FB6E5652F804EB50F8047B66
:10410000E4FB6E6752F804EB50F8048BE4FB6E7826
:1041100052F804EB50F8049BE4FB6E8952F804EB70
:1041200050F804ABE4FB6E9A52F804EB50F804BB71
:10413000E4FB6EABA0F1180052F8044B51F804EB0D
:104140004FF0000CE4FB6EC540F804CB51F804EBD3
:10415000E4FB6E5640F8045B51F804EBE4FB6E6739
:1041600040F8046B51F804EBE4FB6E7840F8047BF4
:1041700051F804EBE4FB6E8940F8048B51F804EB32
:10418000E4FB6E9A40F8049B51F804EBE4FB6EAB41
:10419000A0E8000C072B6AD008B40C68A0F11C0042
:1041A000A1F11C01A2F11C0252F804EB4FF0000532
:1041B00050F8046BE4FB6E5652F804EB50F8047BA5
:1041C000E4FB6E6752F804EB50F8048BE4FB6E7866
:1041D00052F804EB50F8049BE4FB6E8952F804EBB0
:1041E00050F804ABE4FB6E9A52F804EB50F804BBB1
:1041F000E4FB6EAB52F804EB50F804CBE4FB6EBC6E
:10420000A0F11C0052F8044B51F804EB4FF00003EE
:10421000E4FB6E3540F8043B51F804EBE4FB6E56CA
:1042200040F8045B51F804EBE4FB6E6740F8046B64
:1042300051F804EBE4FB6E7840F8047B51F804EB92
:10424000E4FB6E8940F8048B51F804EBE4FB6E9AB2
:1042500040F8049B51F804EBE4FB6EAB40F804AB70
:1042600051F804EBE4FB6EBCA0E8001808BCBDE804
:10427000F08F013949B2002909DA013149B2A1B1FF
:1042800001F18043013B50F82330002004E050F856
:104290002130002BEDD0F0E713B15B080130FBE7D4
:1042A000013900EB411108B270470846704700EB36
:1042B00081010023884206D251F8042D43EA5203BB
:1042C0000B60D307F6E7704730B5002463B2934222
:1042D00006DA1BB2013451F8235040F82350F5E7B9
:1042E00030BD2DE9F04FB1E8005E06B4AAFB09121B
:1042F0004FF00003EBFB69234FF00004ECFB693443
:104300004FF00005EEFB69454FF00006EBFB6A63DA
:10431000ECFB6A344918524176415B41A9FB0978AC
:104320004FF0000949F1000918EB0108A0E88001ED
:10433000AAFB0A78574158EB0608A0E88001EEFB7B
:104340006A454FF0000A4AF1000A4FF00001ECFB09
:104350006B14EEFB6B454FF00002EEFB6C255FEA41
:1043600059094941644152416D4149F10009EBFB52
:104370006B3A1AEB010AA0E80804ACFB0C6A664130
:104380005AEB020AA0E84004AEFB0E6A6E415AEBFB
:10439000090AA0E8400406BC052A00F0E680A0F166
:1043A0001400A1F11401B1E8E043A5FB0E344FF075
:1043B0000005E6FB6E454FF00006E7FB6E564FF03A
:1043C0000007E8FB6E674FF00008E9FB6E784FF0DE
:1043D0000009DB1864416D4176417F4158EB0808C4
:1043E00059F1000950F804CB13EB0C0350F804CB3F
:1043F00054EB0C0450F804CB55EB0C0550F804CBEF
:1044000056EB0C0650F804CB57EB0C0758F100089C
:1044100059F10009A0F11400EEFB0E89A0E8F803A1
:10442000062A00F0A280A0F11800A1F11801B1E85D
:10443000E047A5FB0E344FF00005E6FB6E454FF05C
:104440000006E7FB6E564FF00007E8FB6E674FF083
:104450000008E9FB6E784FF00009EAFB6E894FF027
:10446000000ADB1864416D4176417F4158EB080832
:1044700059EB09095AF1000A50F804CB13EB0C036D
:1044800050F804CB54EB0C0450F804CB55EB0C055E
:1044900050F804CB56EB0C0650F804CB57EB0C0746
:1044A00050F804CB58EB0C0859F100095AF1000AF6
:1044B000A0F11800EEFB0E9AA0E8F807072A54D0E6
:1044C000A0F11C00A1F11C01B1E8E04FA5FB0E34E6
:1044D0004FF00005E6FB6E454FF00006E7FB6E5619
:1044E0004FF00007E8FB6E674FF00008E9FB6E78BD
:1044F0004FF00009EAFB6E894FF0000AEBFB6E9A61
:104500004FF0000BDB1864416D4176417F4158EB61
:10451000080859EB09095AEB0A0A5BF1000B50F83D
:1045200004CB13EB0C0350F804CB54EB0C0450F801
:1045300004CB55EB0C0550F804CB56EB0C0650F8A9
:1045400004CB57EB0C0750F804CB58EB0C0850F891
:1045500004CB59EB0C095AF1000A5BF1000BA0F1F6
:104560001C00EEFB0EABA0E8F80FBDE8F08F0000DA
:10457000C3F10803DB0070B50133002403A500BFBD
:104580005B1920C940CAAD1B20C0184720C940CACA
:10459000B54120C020C940CAB54120C020C940CA89
:1045A000B54120C020C940CAB54120C020C940CA79
:1045B000B54120C020C940CAB54120C020C940CA69
:1045C000B54120C06441B4FA84F0400970BD00BF19
:1045D0004A11012350F8220001F01F0103FA01F1F2
:1045E00008407047F0B5082289B00C460646FFF730
:1045F0006BFECB6A03930B6B04934B6B05938B6B36
:104600000693CB6B0793002708236A4669466846E2
:10461000029701970097FFF7ABFA082305466A4611
:1046200031463046FFF7A4FA236B0393636B049380
:10463000A36B0593E36B0693054408236A4669461A
:1046400068460797FFF794FA082305446A463146FF
:104650003046FFF78DFA236A0093636A0193A36AD9
:104660000293A36B0693E36B0793054408236A4602
:1046700031463046059704970397FFF779FA636A46
:104680000093A36A0193E36AA26B0293636B0393A3
:1046900004920693E26B236A0592054407936A46E7
:1046A000082331463046FFF763FAE36A0093236B31
:1046B0000193636B0293236A0693A36A07930544ED
:1046C00008236A4631463046059704970397FFF75B
:1046D0004FFF236B0093636B0193A36B0293E36B18
:1046E0000393636A0693E36A07932D1A08236A46C5
:1046F0003146304605970497FFF73AFF636B009306
:10470000A36B0193E36B0293236A0393636A04939D
:10471000A36A0593236B07932D1A08236A46314633
:1047200030460697FFF724FFA36B0093E36B0193DA
:10473000636A0393A36A0493E36A0593636B079325
:104740002D1A08236A463146304602970697FFF72E
:104750000FFF2D1A16D508230D4A31463046FFF7B4
:1047600007FA2D18F7D410E0082231460848FFF761
:1047700039FA012809D00823054A31463046FFF7A7
:10478000F7FE2D1A002DEFD0F5E709B0F0BD00BF00
:104790009CB8070070B5036813F00105064614467F
:1047A00005D013460A460146FFF7E2F905462146C1
:1047B0003046FFF77CFD45B104F18042013A56F8DE
:1047C000223043F0004346F8223070BD2DE9F0411D
:1047D00015468AB0044688462022002102A8FEF72A
:1047E0006FFE2E1D95F9007003232A464146204690
:1047F0000293FFF793FB334602AA21462046009717
:10480000FFF79CFB2B46424621462046FFF776FBEE
:104810000097334605F1840221462046FFF7BCFA93
:104820000AB0BDE8F08100F01F020121914040096B
:10483000800000F1E020C0F88012704700F01F02F5
:10484000012191404009800000F1E020C0F80011F2
:10485000704700F01F02012191404009800000F1E3
:10486000E020C0F8001270474907090E002806DA58
:1048700000F00F0000F1E02080F8141D704700F1F7
:10488000E02080F800147047BFF34F8F054801689F
:10489000054A01F4E06111430160BFF34F8F00BF8F
:1048A000FDE700000CED00E00400FA0507480021D8
:1048B000C0F84011C0F84411C0F84811C0F84C11BC
:1048C000C0F80011C0F8041106F020BA0010014031
:1048D00006F094B9074810B5406830B18047002809
:1048E00007D0BDE8104000F0FBBCBDE8104001F06F
:1048F000E5BE10BD902C0020F0B598480023021DA5
:1049000001780125101D4FF08056062907D1147833
:10491000240704D10478C4F30314032C02D006291D
:1049200004D00FE08F4F8E4C7C670EE01478240784
:1049300008D10478C4F30314032C06D0042C04D04B
:10494000052C02D0062907D00EE0D6F84442864F47
:10495000C4F342343C6002E01478240704D10478A4
:10496000C4F30314032C02D0062906D011E07F4CB7
:10497000276827F0807727600EE01478240708D195
:104980000478C4F30314032C06D0042C04D0052CA3
:1049900002D006290AD011E04FF08044C4F80C314F
:1049A000C4F81031704C241F236002E014782407EF
:1049B00004D10478C4F30314032C02D0062905D0D3
:1049C0000CE0694F032464373C600AE01478240744
:1049D00004D10478C4F30314032C02D006290DD0AB
:1049E00014E0634F05243C60614C78342560604CD2
:1049F000083423603F243F1D3C6002E01478240704
:104A000004D10478C4F30314052C02D0062957D02E
:104A100068E058490968584A11605649091D0968F3
:104A2000121D1160534908310968121D1160514966
:104A30000C310968121D11604E4910310968121DB0
:104A400011604C4914310968121D1160494918312F
:104A50000968494A2032116046491C310968121D13
:104A60001160444920310968121D11604149243107
:104A70000968121D11603F4928310968121D116033
:104A80003C492C310968121D11603A4930310968DE
:104A9000394A40321160374934310968121D1160BA
:104AA000344938310968121D116032493C310968B6
:104AB000121D11602F4940310968121D116002E07A
:104AC000117809070ED10078C0F30310032803D032
:104AD000042801D0052805D1D6F85802274900F04E
:104AE0004F00086021487438016841F4700101608A
:104AF000BFF34F8FBFF36F8F4FF01021D1F800023B
:104B0000002803DBD1F80402002822DA1C4A1560D1
:104B10001C480468002CFCD01524C1F8004205682C
:104B2000002DFCD0C1F8044201680029FCD01360BC
:104B300001680029FCD0BFF34F8F0C48F0380168A2
:104B4000114A01F4E06111430160BFF34F8F00BFD0
:104B5000FDE70F490D480860F0BD0000E00F00F0D0
:104B60000DF0ADBA00C007403C050040FCED00E090
:104B7000105600400404001020C50040E40E004020
:104B800004E5014000E401400400FA050090D00370
:104B9000A42C00200448017F04480029024901D0C8
:104BA00006F0C3B906F032B9843700200020004077
:104BB0000FB4084B10B504A902AA039800F02EF810
:104BC000044602A9002000F05AFA204610BC5DF805
:104BD00014FB00007F50070002E008C8121F08C144
:104BE000002AFAD170477047002001E001C1121F6E
:104BF000002AFBD1704700000121202803DA814000
:104C00000548014003E0402802DA2038814009B11C
:104C10000120704700207047FC06FFBC2DE9FF4FC4
:104C20008DB00F460546002606E025280BD0DDE9AD
:104C30000F1290476D1C761C28780028F5D111B012
:104C40003046BDE8F08F0024A246A1460122EC497F
:104C500000E0044315F8013F203B02FA03F008424C
:104C6000F7D128782A2810D06FF02F022878A0F1E9
:104C70003001092914D80AEB8A0102EB410144F002
:104C8000020400EB010A6D1CF0E701CF5FEA000AA5
:104C900003D544F40054CAF1000A44F002046D1C28
:104CA00028782E2817D115F8010F44F004042A287B
:104CB0000ED06FF02F022878A0F1300109290AD810
:104CC00009EB890102EB410100EB01096D1CF2E7E0
:104CD00057F8049B6D1C28786C280FD006DC4C28F4
:104CE00017D068280DD06A2814D104E0742810D099
:104CF0007A280FD10DE044F400140AE044F4801443
:104D000001E044F440146978814202D104F5801432
:104D10006D1C6D1C2A786E2A1FD00CDC632A31D0E2
:104D200004DC002A8BD0582A11D1A3E0642A68D071
:104D3000692A0CD165E0732A2ED004DC6F2A73D067
:104D4000702A04D19BE0752A6FD0782A6ED0104665
:104D5000DDE90F129047761C50E1C4F3025002289F
:104D600006D0032809D0042801CF09D0066045E108
:104D700001CFF117C0E9006140E101CF06803DE1BC
:104D800006703BE117F8040B8DF8000000208DF849
:104D90000100EB46012003E057F804BB4FF0FF3061
:104DA00061074FF0000102D40DE008F101018846CF
:104DB00049450FDA8045F8DB1BF808100029F4D1CB
:104DC00008E008F1010188468142FADB1BF808106F
:104DD0000029F6D1DDE90F23AAEB08008146214620
:104DE00000F036F9304400EB080604E0DDE90F126C
:104DF0001BF8010B9047B8F10108F7D2214648464D
:104E0000F7E00A21C4F302534FF0000B0891022B84
:104E100004D001CFC117032B09D00AE0FF1D27F0F2
:104E20000707F7E8020108E032E01FE020E000B2E7
:104E3000C117042B01D140B2C117031E71F1000349
:104E400007DA4FF0000CD0EB0C006CEB01012D23C6
:104E500002E0230504D52B238DF82430012303E041
:104E6000E30701D02023F7E7984658E00A2110E035
:104E700010210EE010204FF0000B08900CE01021E4
:104E80004FF0000B44F004044FF00809089103E0D0
:104E900008214FF0000B0891C4F30253022B04D0F9
:104EA00001CF0021032B06D006E0FF1D27F00707E6
:104EB000F7E8020103E080B2042B00D1C0B24FF04A
:104EC000000823072BD5702A07D0DDF820C08CF00E
:104ED000100C5CEA0B0C05D00EE040238DF824305A
:104EE000012308E050EA010306D030238DF8243076
:104EF0008DF8252002239846DDF820C08CF0080CA0
:104F00005CEA0B0C0BD150EA010301D1630706D513
:104F100030238DF824304FF00108A9F10109582AF7
:104F200004D038A20B9208AA0A920BE03AA2F9E741
:104F30005B46089AFEF7E1FA0B9B9B5C0A9A521EAD
:104F40000A92137050EA0102F2D10A98ADEB000008
:104F500000F1200B600702D524F4803401E04FF00B
:104F60000109D94502DDA9EB0B0000E0002000EBB0
:104F70000B0141440890AAEB010AE00306D4DDE9E5
:104F80000F232146504600F063F806444FF0000915
:104F900008E009A911F80900DDE90F12904709F1AD
:104FA0000109761CC145F4DBE0030CD5DDE90F23D4
:104FB0002146504600F04CF8064404E0DDE90F12AB
:104FC00030209047761C0899481E08900029F5DC8F
:104FD00008E00A980A990078491C0A91DDE90F1245
:104FE0009047761CBBF10001ABF1010BF1DC2146CF
:104FF0005046DDE90F2300F019F806446D1C1BE64E
:10500000092801003031323334353637383961629E
:105010006364656600000000303132333435363762
:105020003839414243444546000000002DE9F04133
:10503000044600251E461746880404D405E0394678
:105040002020B0476D1C641EF9D52846BDE8F081CC
:105050002DE9F041044600251E469046C80301D5BF
:10506000302700E02027880404D505E04146384673
:10507000B0476D1C641EF9D52846BDE8F0810A686A
:10508000531C0B60107070472DE9FC4700251788F2
:105090000646158090F82D001446894630B13A46F0
:1050A0002146484600F0A4FB050009D1B0784FF036
:1050B0000C0A18B32088C846001DB84202D95046D1
:1050C000BDE8FC87684679DF0028F9D120880321F4
:1050D00008F8001020881921401C80B2208008F8B0
:1050E00000102088401C80B2208000EB0801BDF831
:1050F000000005F092FF218808442080F078022209
:10510000C8B1218896F9033001F1030C4846BC452B
:10511000D5D8425421884FF0010C491C89B2218016
:1051200000F801C02188491C89B2218009F80130AA
:105130002088401C20807068B8B1218890F9003028
:1051400001F1030C4846BC45B9D8425421880A22D3
:10515000491C89B2218042542188491C89B221808E
:1051600009F801302088401C2080308950B1CDE9F9
:1051700000474B460622022106F1080005F0A4FF75
:1051800005009DD1308A50B1CDE900474B4607223A
:10519000032106F1100005F097FF050090D1308B38
:1051A00050B1CDE900474B461522142106F11800F5
:1051B00005F08AFF050083D1306A30B13B462246B4
:1051C000494600F0FFFC0500DBD1706A30B13B4678
:1051D0002246494601F014FC0500D2D196F82C0075
:1051E00038B13B4622464946304605F08FFA050065
:1051F000C7D1307838B13B4622464946304601F0A7
:1052000031FC0500BDD128465AE70000F0B5214D1C
:1052100093B0287A800702D5002013B0F0BD002497
:1052200001268DF84A604FF65960ADF848000E949B
:105230000F9410940627119438216846FEF73EF922
:1052400002208DF8000012A88DF8024003908DF81E
:105250000370ADF808600021684600F021FA0028CC
:10526000DBD18DF840402820ADF842008DF8384061
:105270000F94ADF844400EA873DF0028CDD1064945
:1052800070040860122003F03BFFA86840F00200A1
:10529000A860C1E7382C00200C0500500B460246E0
:1052A00002A1012004F0AFF8FFF7EEFA3A4552529E
:1052B0004F523A7265636569766564206120666164
:1052C000756C74212069643A203078253038782C48
:1052D0002070633A203078263038780D0A000000BC
:1052E000024603A1012004F087F8FFF7CDFA000081
:1052F0003A4552524F523A72656365697665642049
:10530000616E206572726F723A203078253038787D
:10531000210D0A002DE9F84F254C81469246608800
:105320000E46814241D800274FF6FF788DF8007075
:10533000684600F02BF922786078A188884201DA6B
:10534000401C00E00020C0B2904204D19DF8000053
:1053500000F040F927E065786078884201DA401C67
:1053600000E0002060709DF8000000F033F9454532
:1053700019D0A068B9F1000F40F835A00DD066B182
:105380006188E068324605FB01004946FEF77DF87A
:10539000A06800EBC500868002E000EBC5008780B6
:1053A0000020BDE8F88F0420FBE70920F9E70000A2
:1053B000742C002010B50E4C03E0401C00E00020CF
:1053C000207020786178814210D022786188E0686E
:1053D000A36802FB010003EBC20153F83220898865
:1053E00090472078A1888842E9DAE6E710BD0000FE
:1053F000742C002030B5CB0008339DB293074FF0DA
:10540000000401D0072030BD044B9A602A44DA60C2
:105410005C701C7058809980002030BD742C002076
:10542000074B5B6823B12AB120B10068037C1BB134
:105430000820704707207047417442610020704780
:10544000642C002010B50446082902D00020FFF784
:1054500047FFD4E90010BDE8104008471CB5044AD6
:10546000CDE9000108216846FFF754FF1CBD00008C
:10547000455407002DE9F0470746984614468946EB
:1054800090074FF0000526D12CB305F06BF8134EB2
:1054900006F11000C6F80C800570457080F8029087
:1054A00044607560357075701420FFF7BCF90621F3
:1054B0001420FFF7D9F91420FFF7C0F90848076056
:1054C00006211120FFF7D0F90548001F0068B060E1
:1054D0000020BDE8F0870720FBE70000542C0020E7
:1054E000081501402DE9FC47DFF87890D9F8043021
:1054F00073B368B3052902D20720BDE8FC8743696E
:1055000033B3437C012B25D0002704460025884671
:1055100016468DF80050684600F038F801A805F0EE
:10552000BBFDC8B1012101700F4944600968C0E9A1
:105530000218C0E904769DF8040089F801009DF87E
:10554000000000F047F81420FFF783F92846D4E75D
:105550000820D2E70F46D8E704259DF8000000F0A8
:1055600039F8F3E7642C0020041501400649496826
:1055700039B130B1416921B100210174022105F036
:10558000A1BB082070470000642C002030B5EFF369
:10559000108172B60D4A9468012324B1037000296A
:1055A00000D162B630BD93604FF0E023D3F8805154
:1055B000074C25401560C3F88041D3F884415460FE
:1055C0005A17C3F8842100220270E8E70C38002043
:1055D000FC06FFBC0B498A68002A11D000280FD1B5
:1055E000EFF3108072B60B684FF0E022C2F8003182
:1055F0004B68C2F8043100228A60002800D162B6EC
:10560000704700000C3800202DE9F041054608786D
:10561000214F012606FA00F00C463860086803F0B6
:1056200064FD0021606803F050FD28791B4901EBFF
:105630004010A169007F00282868C0F8241519D0FF
:10564000607D217D2A680843C2F86C0518E00021BE
:10565000A06803F03AFD207B86403E60E06803F0DE
:1056600044FDD4E902122868C0F80825C0F81015D6
:10567000BDE8F081607D227D29681043C1F86C058A
:10568000D4E900122868C0F80C15C0F81425207D54
:105690000128DCD0ECE7000008050050843700202A
:1056A000F0B50C4693B01F210726ADF80010ADF8F9
:1056B0000410002750B1C17849070DD56A4602A9E8
:1056C000FFF7E2FC002808D102AD02E00025ADF8AA
:1056D00000706CB1E07810B1304613B0F0BD01AA93
:1056E0000AA92046FFF7D0FC0028F6D10AAA02E05A
:1056F0000022ADF80470BDF80400C3B2BDF800008C
:10570000C1B2284672DFE8E770B5054601461C22A3
:105710000F48FDF7BAFE0F4C00262670286830B1FE
:10572000016861604068A060201D7ADF02E00948DE
:10573000001D7BDF00280AD14FF6FF706080667085
:10574000BDE87040044A00210448FFF769BE70BDFF
:1057500074320020242C002039B007001CB307004D
:1057600070B51E4C068800231B49E289102E15D007
:105770001B4D112E1CD0122E29D0502E17D130F8CF
:10578000061F914213D14189022910D10C3000F03B
:1057900046F988B1BDE8704000F05ABA84884C8060
:1057A0000469CC60406908614B70002AF2D070BD7A
:1057B0004FF6FF7048804B702868FFF7D7FE00282F
:1057C000F5D0A1690029F2D0BDE870400847826891
:1057D000CA60C0680861DDE7242C00207432002014
:1057E0001CB3070001480068FFF7C0BE1CB30700E8
:1057F0007CB5054608880C460930904201D90C203A
:105800007CBD68466DDF0028FAD1218808206854E5
:1058100020881B21401C80B2208029542088401CF5
:1058200080B220802844DDF801100160BDF8051029
:1058300081802088801D80B220809DF8001049085A
:1058400000D0012129542088401C208000207CBDEC
:1058500030B585B004002AD0164D4FF6FF702246B1
:10586000288001208DF812004FF65960ADF8100025
:1058700004A90120A0DF002817D10F4B0FCB8DE822
:105880000F00A11C684663DF00280ED1204600F0FF
:1058900065FD002809D1204600F0E2FA002804D175
:1058A000A86840F00100A860002005B030BD0E20BF
:1058B000FBE70000382C002024B3070070B5184C1B
:1058C0000025A068410701D5002070BD40F004000C
:1058D000A06014A1032003F08BFD214801F06CFAB5
:1058E00020A1032003F084FD2088A0F57F41FF392B
:1058F00004D0132176DF0500E7D10CE0207A800781
:1059000009D574DF0028E0D1112003F0F9FBA0686D
:1059100040F00200A060FFF765FF284670BD000060
:10592000382C00203A494E464F3A57616974696EE7
:105930006720666F72206275666665727320746F89
:1059400020626520636C6561726564206265666FC4
:10595000726520646973636F6E6E6563740D0A000F
:10596000C0D401003A494E464F3A446973636F6EA2
:105970006E656374696E670D0A00000000B587B03C
:10598000112003F0ABFB122003F0A8FB112003F061
:10599000B7FB122003F0B4FB012000F045F800280B
:1059A0002BD1174805F068F8002826D100F050FEEA
:1059B000002822D11348FFF74BFF00281DD11C21DE
:1059C0006846FDF77BFD40F6CD4001904FF48040E6
:1059D000029003208DF80C000020ADF80E008DF829
:1059E0001000094806906846FFF78EFE002804D193
:1059F00007B05DF804EBFFF709BC07B000BD00007D
:105A00000D5A0700E03200204D5C070010B5044637
:105A1000FFF7A6FE2046BDE8104003F07DBD0078EC
:105A200000F001007047000000B51B4989B009680B
:105A3000079100218DF81C1010218DF81D100221F6
:105A40008DF81E1007218DF81F1018B102F068FDA7
:105A500000281ED1114A12A1032003F0CDFC0F48EB
:105A600013DF002815D1164B5022164907A805F060
:105A7000A1F808B1FFF734FC01216A46084605F099
:105A800073F8002805D11720ADF81000684604F01F
:105A9000FDFF09B000BD000020B307000030070083
:105AA0003A494E464F3A766563746F72207461626C
:105AB0006C653A203078253038780D0A00000000F7
:105AC000A1AB070090320020002901DA00207047C6
:105AD0000268114401600120704710B543689C18AA
:105AE000446021B905E013F8010B01F8010B521EC7
:105AF000F9D2012010BD000038B10549814204D817
:105B00000449814201D901207047002070470000FC
:105B1000A82C0020B82C00202DE9F05F2648416811
:105B2000F1B3DFF898B00E688146DBF80040876873
:105B30008078E11B21F07F45ED1CB0B9DFF8808053
:105B40004FF48030C8F84403C8F804031120FEF76E
:105B50006AFE1120FEF772FE4FF0010AC8F800A09D
:105B60002F2001F06FF989F802A0B54200D2354626
:105B7000124BE8193C3320F07F401860DBF800102E
:105B80005A46091B21F07F41001B20F07F40C91CB1
:105B900081420FD9106818602F2001F053F900E0FE
:105BA00004E0BDE8F05F1120FEF753BEBDE8F05FF2
:105BB00004F0D8BCBDE8F09F542C0020041501402F
:105BC000001001402DE9F04117880646B81D144623
:105BD0000D46984202D90C20BDE8F0813188072299
:105BE00006290AD34FF4486C4FF6FF73614501D97B
:105BF000994202D17088062801D21046ECE7604530
:105C000001D99842F9D1994203D0984201D08142FA
:105C1000F3D80520E85520881221401C80B220804E
:105C200029542088401C80B220804119308805F01A
:105C3000F4F92188084480B220804119708805F069
:105C4000ECF92188084420800020C5E7FFF748BB15
:105C5000F8B5134800F0ACFD114D0026114C0C3D79
:105C600030B16169B9B101208DF80000684611E0DA
:105C7000287820B1616971B18DF80060F6E7687825
:105C800058B1A168084800220068FFF72BFC10B14A
:105C9000A16901B188472E70F8BD6168F2E7000084
:105CA000302C0020743200201CB30700F0B54FF0F8
:105CB000FF3622B11268D24300230A4D0DE032466E
:105CC000FAE7C45C62400824D70700D037462F406B
:105CD00087EA5202641EF7D15B1C8B42F1D3D0439A
:105CE000F0BD00002083B8EDF0B5146906468DB014
:105CF00020681546271DE0B1022920D00A20009017
:105D00006B4609AA304604F029FB00280FD009A9E8
:105D100001A8009A04F0D8F901AE96E80F0005AE8C
:105D200086E80F00236869683A4605A898470DB0D1
:105D3000F0BD0DB03046BDE8F04004F039BA694618
:105D4000304604F0CBF90028F1D0236869683A4660
:105D5000684698470028EAD002980028F5D10198B3
:105D600070600120E3E753685B7813F0C00303D051
:105D7000402B03D00020704700F002B8FFF7B4BFFB
:105D80002DE9FF410B465168064614464878334DCD
:105D900000F00F0210F0300055F8225006D0102805
:105DA00006D0202808D0302856D13EE022694DE0A8
:105DB00061690120087047E0022B28D1042A26D807
:105DC0004FF0010869463046676904F087F90028FA
:105DD0001AD009E00B79226913FB00226846A84714
:105DE00070B13878401C3870029820B161683878FA
:105DF0004A799042EED301987060029860BB02E04D
:105E00004FF00008F7E7404604B0BDE8F081D4E960
:105E100004300F79027817FB023349798A421BD28A
:105E2000521C02701A46616810E008786169072AFE
:105E3000087009D1606801792069FDF73FFB60684F
:105E40002169806804F065F92269616804B0304610
:105E5000AC46BDE8F04160470020D5E7A4B4070098
:105E600010B58EB004461C216846FDF727FB1421AF
:105E700008A8FDF723FB9DF80010002041F0180151
:105E800007908DF80010A1788DF836100121ADF83B
:105E900034109DF81C1004F10C0321F0FF018DF863
:105EA0001C109DF81D1008AA21F00F01491C21F0BB
:105EB000F00110318DF81D109DF81E1021F0060123
:105EC000891C41F011018DF81E100DA9089107A938
:105ED00009911721ADF82C100C9020886946A2DF9B
:105EE0000EB010BD02488168491E816070470000F5
:105EF000002C00201FB5114800F15C01826B684640
:105F000004F0E2F80E489DE80E0080E80E000C490F
:105F10000C480E4AC8600C490020086048600C49D3
:105F2000074803F057FE10B1012004B010BD09A1CD
:105F3000032003F05DFA0020F7E700006034002042
:105F400044320020099F07001C2C0020B82C0020A0
:105F5000F8B207003A494E464F3A48616E646C65A4
:105F6000723A20496E76616C69642070726F746F4A
:105F7000636F6C206275666665722073747265610A
:105F80006D0D0A002DE9F04798465FEA02090546C3
:105F900000F104044FF0000628D0B8F1000F25D01E
:105FA00094F85F007D4F18B194F86000002843D149
:105FB000207AD8B1E068342818D100204FF440523C
:105FC000217C11E004EB8003B2F80CC05B696345EF
:105FD00009D194F8250060B1012813D002280DD012
:105FE00003281DD10AE0401C8142EBDC0A20BDE8F9
:105FF000F08720780028F9D0BE6803E020780028D8
:10600000F4D0FE6866A133460320626803F0FBF912
:1060100094F8250048B102280BD003280CD108E0E1
:1060200069A1032003F0E4F9E0E76068B042DDD342
:1060300002E06068B042D9D995F870000028D5D147
:106040006A48694901602021416069A1032003F089
:10605000CFF9388F514A83B25C326BA1032003F031
:10606000ADF969A1032003F0C3F96AA1032003F08D
:10607000BFF91FFA88F34A4663A1032003F09EF993
:1060800061A1032003F0B4F9584B4246494605206C
:1060900000F00EFE0028A9D1534805F1720195F8D1
:1060A00071200E462030FDF7F0F960A1032003F0C7
:1060B0009FF915F8713F324653A1032003F07EF992
:1060C00051A1032003F094F948484749083820318A
:1060D00001602A7842605AA1032003F08DF9434BF6
:1060E000424A083B5D49042000F008FE08B1052043
:1060F0007DE75BA1032003F07BF93C4D00201C3DB4
:10610000286194F8251041B3012933D05A48022957
:10611000C0F5FC2027D0032982D194F82C10002947
:1061200082D094F826100029FAD0A26A216B531865
:106130002B6132B329B381420DD8202204F13F01F3
:106140002948FDF7A2F92869D8B1284A0021103A58
:1061500001F0F4FDB8B1042049E794F834000028B8
:10616000DED0A06B0BE094F82C100029D8D0216B66
:106170002961E0E794F826000028D1D0A06A2861C0
:10618000DBE7032033E73DA10320EA6803F034F99D
:1061900043A1032003F02CF9012028E760340020FC
:1061A0003A494E464F3A5265712076657273696F6F
:1061B0006E3A2025642C2050726573656E743A2007
:1061C00025640D0A000000003A494E464F3A556ECC
:1061D0006B6E6F776E204657207570646174652012
:1061E000747970650D0A0000E43100201C2C002039
:1061F0003A494E464F3A496E697420636F6D6D613E
:106200006E643A0D0A0000003A494E464F3A0D0AB4
:10621000000000003A494E464F3A705F496E69747B
:1062200020636F6D6D616E643A0D0A003A494E4607
:106230004F3A5369676E61747572650D0A0000000C
:106240003A494E464F3A7369676E617475726520BC
:106250006C656E3A2025640D0A000000D8B1070075
:106260003A494E464F3A496D6167652076657269D5
:10627000666965640D0A0000003007003A494E4621
:106280004F3A577269746520616464726573732054
:1062900073657420746F203078253038780D0A00CB
:1062A0003A494E464F3A4446552070726576616CC5
:1062B0006964617465205355434345535346554CB7
:1062C000210D0A0010B58278012A01D0052010BDE9
:1062D0000C4A0CCAFFF756FE0446012805D00AA155
:1062E000032003F085F8204610BD0EA1032003F023
:1062F0007FF812A1032003F07BF8002002F02EFCAF
:10630000F1E700001C2C00203A494E464F3A5072EB
:106310006576616C6964617465204641494C454409
:10632000210D0A003A494E464F3A50726576616C2B
:106330006964617465204F4B2E0D0A003A494E4640
:106340004F3A536176696E6720696E697420636F96
:106350006D6D616E642E2E2E0D0A000010B58EB08C
:1063600004461C216846FDF7A9F8142108A8FDF78A
:10637000A5F89DF80010002041F0040107908DF869
:106380000010A1788DF836100221ADF834109DF878
:106390001C1008AA21F0FF018DF81C109DF81D109B
:1063A00021F00F01491C21F0F00110318DF81D1072
:1063B0009DF81E1021F00601891C41F001018DF8A5
:1063C0001E100DA9089107A909911421ADF82C10F0
:1063D0000C902088231D6946A2DF0EB010BD00007E
:1063E000044A09B9002313705268002A00D01047EC
:1063F00070470000442C0020F8B51C4617460D4697
:10640000060018D0BDB1B4B100F0E0F9A8B128463B
:1064100000F0DCF988B1204600F0D8F968B1FDF74A
:106420003BFA009023463A4629463046FDF738FAB3
:1064300028B10020F8BD0E20F8BD1020F8BD0B20BB
:10644000F8BD00000E4910B50A784C780023A2422E
:1064500012D0521CD2B20A70022A00D10B70084A24
:106460000B78183252F8232002608868104420F01C
:106470007F408860012010BD0360002010BD000037
:10648000542C0020F8B506461A481F4615460078D9
:106490000C46C00708D03046FFF72EFB30B13CB1A8
:1064A000200507D00620F8BD0120F8BD0220F8BD68
:1064B0000320F8BD3068A04204D8716804EB0530B1
:1064C000884201D90520F8BD7DB1684603F0DCFEA5
:1064D00068B100980221C0E900670172210B818137
:1064E000058203F025FF0020F8BD0420F8BD072039
:1064F000F8BD0000502C002070B50E4C06460D0073
:10650000206820F0010020600FD00BA1032002F0D2
:106510006FFF206840F0020020607268002A07D0F8
:1065200029463046BDE87040104720F00200F3E7EE
:1065300070BD00004C2C00203A494E464F3A47654A
:106540006E65726174696E67206661696C757265EB
:106550000D0A00000348017841F00101017000209C
:1065600070470000502C00202DE9F84307461D48D5
:10657000DDF820801E46007815460C46C0070CD07A
:106580003846FFF7B9FA50B15DB154B145EA04009D
:10659000800708D00620BDE8F8830120FBE7022031
:1065A000F9E70320F7E73868A04204D8786804EBDD
:1065B0008601884201D20520EDE77EB1684603F0EE
:1065C00063FE68B100980121C0E900780172C0E95A
:1065D0000354868203F0ACFE0020DCE70420DAE7F7
:1065E0000720D8E7502C002070B5174A17490446F9
:1065F000106E0B7800EB400002EBC0009D0715D534
:10660000022C02D0032C1BD102E003F03DF917E06D
:106610004A78521CD2B24A70032A11D900224A7019
:10662000082104F01DF803F019FE09E0580707D50A
:1066300023F004000870526E12B140F0020008709E
:10664000BDE8704003F03CBEA4370020502C002071
:1066500010B586B000249DF80000019420F00F00D2
:10666000401C20F0F00010308DF80000029403A8C8
:106670006DDF00281CD19DF80D00401C8DF80D0029
:1066800003A86CDF002813D107220AA168467CDF2B
:1066900000280DD10C20ADF804001820ADF806003C
:1066A000ADF808404FF4C870ADF80A0001A87ADFD1
:1066B00006B010BD4466755461726700F8B51D4C94
:1066C0002078002834D0206928B10026E06820B165
:1066D000002526B113E00126F8E70125F9E76078E7
:1066E000002825D1684648DF052803D020B1FEF7F1
:1066F000F7FD04E0012602E02169009888479DB972
:106700006078002814D16088ADF800006946A06860
:1067100061DF052803D020B1FEF7E2FD04E001258A
:1067200002E0D4E902018847002ED8D0002DD0D055
:10673000F8BD0000902C002070B50E46044600798C
:1067400018494FF4A27501EB4010017F2068A1B1F8
:106750004FF4887102F0DAFE4FF49071206802F075
:10676000D5FE4FF49271206802F0D0FE29462068D1
:1067700002F0CCFE0C49206809E04FF48E7102F063
:10678000B4FE2946206802F0B0FE08492068C0F82F
:106790000413206802F07DFB3146BDE8704002F032
:1067A0005CBB000084370020100302008000020060
:1067B000054940880A88904204D34988884201D814
:1067C0000120704700207047282C0020800701D04E
:1067D000002070470120704770B5054608680C46D8
:1067E0004A6886682846314603F0B4FB6068286131
:1067F00004F10C00686170780221B1EB901F01D1A7
:10680000241D2C6170BD00002DE9F043264CA4F13D
:1068100010092278D9F8048099F80350404694F87A
:1068200001C0D9F8086031E002EB42036168521CF4
:1068300001EBC301A378D2B2934200D100220B78BE
:10684000022B02D0032B21D11DE003464F681946CD
:1068500003E0B94203D00B46C969B9B1F9E7A9B160
:106860008B4205D1C06918B9104E0125B5600026CC
:106870000F68C969D96149B10B683B440B6005E0F9
:106880000174C06900E000210028F9D19445CBD102
:10689000C9E9010689F80350404502D00120BDE84E
:1068A000F0830020FBE70000642C00200010014072
:1068B0002DE9F0412A4F0446002607F11005D7F8CC
:1068C00004803EE002D02046E4691DE02878696833
:1068D00000EB4002401CC0B201EBC2012870AA7854
:1068E000904200D12E700A784868012A2BD1027C90
:1068F0004ABB8A684260CA6882600A69C2604969A4
:106900008161F97801B146604368BA68DFF854C024
:10691000991A21F07F41614502D28268114406E054
:10692000D11A826821F07F418A4202D9511A01604E
:1069300000E006604660012186600174C66104F0D3
:10694000A3F9002CBED1287869788842BED1796835
:10695000414502D00120BDE8F0810020FBE70000A6
:10696000542C0020FFFF7F007CB5002002F070FD5A
:1069700018A1032002F03CFD112414260025012259
:106980002046009500231146019502F073FB641C1C
:10699000B442F4D914494FF4F0100860091D4FF4C3
:1069A000002008600323CDE9005300221020114687
:1069B00002F060FB00F04AF908B1FEF791FC4FF4D9
:1069C0004050806800F09CF808A1032002F010FD00
:1069D00000207CBD3A494E464F3A496E7369646562
:1069E000206D61696E0D0A00080500503A494E4657
:1069F0004F3A4166746572206D61696E0D0A000040
:106A000070B5144682880E4605462088111D014443
:106A1000921C994201D8FE2A01D90C2070BD521C4B
:106A200032542088FF21401C80B2208031542088BD
:106A3000401C80B220808119288804F0EEFA218859
:106A4000084480B22080AA8842B1A96841B130448C
:106A5000FCF71BFD2088A98808442080002070BD19
:106A6000072070BDF8B50E46017814460546012989
:106A700001D1687830B12088821C9A422DD8012932
:106A800002D006E00720F8BD69780144891C9942CC
:106A900023D8181A801E87B2ADF800702188B01C68
:106AA000084469467DDF0028EDD12878022805D109
:106AB000BDF80010B94201D809210AE008210128D7
:106AC00005D16878B84202D8ADF8000001E0ADF811
:106AD0000070BDF80000FE2801D90C20F8BD228806
:106AE000401CB0542088401C80B220803154208843
:106AF000401C2080BDF80010084420800020F8BD14
:106B000010B50446024613A1032002F075FC01F003
:106B100007FD08B11FA112E029A1032002F068FCC3
:106B20004FF0E0214FF0FF30C1F8800122462CA148
:106B3000032002F061FC204613DF28B134A1BDE838
:106B40001040032002F054BC2046BDE81040FCF782
:106B500061BC00003A494E464F3A52756E6E696EFE
:106B600067206E72665F626F6F746C6F61646572CE
:106B70005F6170705F7374617274207769746820EC
:106B8000616464726573733A203078253038780D0B
:106B90000A0000003A494E464F3A4661696C656406
:106BA0002072756E6E696E67206E72665F646675C0
:106BB0005F6D62725F696E69745F73640D0A0000D5
:106BC0003A494E464F3A44697361626C696E672078
:106BD000696E74657272757074730D0A000000003E
:106BE0003A494E464F3A53657474696E6720534470
:106BF00020766563746F72207461626C65206261D7
:106C000073653A203078253038780D0A000000008E
:106C10003A494E464F3A4661696C65642072756E1A
:106C20006E696E672073645F736F667464657669FE
:106C300063655F766563746F725F7461626C655FD4
:106C4000626173655F7365740D0A000010B507A17A
:106C5000032002F0CDFB01F047FB040004D10BA19F
:106C6000032002F0C5FB204610BD00003A494E4605
:106C70004F3A496E206E72665F626F6F746C6F611F
:106C80006465725F696E69740D0A00003A494E4688
:106C90004F3A4166746572206E72665F626F6F7400
:106CA0006C6F616465725F696E69740D0A00000043
:106CB00070B59CB01C4615460E46052802D006202D
:106CC0001CB070BD6068202801D00920F8E7684634
:106CD00003F0E8FD0028F3D12A463146684603F068
:106CE000A1FE0028ECD101226846216803F052FD84
:106CF0000028E5D1202060600020E1E730B40428BE
:106D000002D0062030BC70474868402802D158683D
:106D1000402801D00920F5E71B68D2E90045086842
:106D20002A46214630BCFFF767BB000000283ED052
:106D30001F49204A096800BF00BF00BF00BF00BF55
:106D400000BF00BF00BF91422FD000BF00BF00BFF7
:106D500000BF00BF00BF00BF00BF00BF00BF00BF3B
:106D600000BF00BF00BF00BF00BF00BF00BF00BF2B
:106D700000BF00BF00BF00BF00BF00BF00BF00BF1B
:106D800000BF00BF00BF00BF00BF00BF00BF00BF0B
:106D900000BF00BF00BF00BF00BF00BF00BF00BFFB
:106DA00000BF00BF00BF00BF00BF401EC3D170477F
:106DB000A42C00200024F40000283ED01F49204AC3
:106DC000096800BF00BF00BF00BF00BF00BF00BF19
:106DD00000BF91422FD000BF00BF00BF00BF00BF67
:106DE00000BF00BF00BF00BF00BF00BF00BF00BFAB
:106DF00000BF00BF00BF00BF00BF00BF00BF00BF9B
:106E000000BF00BF00BF00BF00BF00BF00BF00BF8A
:106E100000BF00BF00BF00BF00BF00BF00BF00BF7A
:106E200000BF00BF00BF00BF00BF00BF00BF00BF6A
:106E300000BF00BF00BF401EC3D17047A42C00207C
:106E40000024F40000283ED01F49204A096800BFF2
:106E500000BF00BF00BF00BF00BF00BF00BF914226
:106E60002FD000BF00BF00BF00BF00BF00BF00BFEA
:106E700000BF00BF00BF00BF00BF00BF00BF00BF1A
:106E800000BF00BF00BF00BF00BF00BF00BF00BF0A
:106E900000BF00BF00BF00BF00BF00BF00BF00BFFA
:106EA00000BF00BF00BF00BF00BF00BF00BF00BFEA
:106EB00000BF00BF00BF00BF00BF00BF00BF00BFDA
:106EC00000BF401EC3D17047A42C00200024F40052
:106ED0002DE9F14FDFF8E4804FF4405A4FF480542D
:106EE000D8F83000DAF80810D8F8245001EB000B7D
:106EF0002F1A33A1032002F07BFAA1464C46A74289
:106F000000D83C4600220121584601F06BF80028C9
:106F100052D1002322465846009901F05DF900281D
:106F20004AD122465846009901F0CEFA060006D012
:106F30005A462C490320009B02F065FA3BE00022F0
:106F40000121009801F04EF8060005D026A103208B
:106F5000009A02F051FA2EE0D8F8301000202144B7
:106F6000C8F8301001F0FAFD0098A34420440090C6
:106F70003F1BC3D100222946DAF80800FEF796FE2F
:106F8000D8F8282007464446BA4208D125A1032054
:106F900002F02EFA0120A561C4E9077004E003465F
:106FA0002849032002F02FFA0448243001F080FA27
:106FB000002001F0D3FD3046BDE8F88F603400209A
:106FC0003A494E464F3A456E746572206E72665F5E
:106FD0006466755F6170705F636F6E74696E75650E
:106FE0000D0A00005CB607003A494E464F3A417020
:106FF00070207570646174653A204661696C7572C1
:10700000652065726173696E6720706167652061D4
:107010007420616464723A203078253038780D0A23
:10702000000000003A494E464F3A53657474696E49
:1070300067206170702061732076616C69640D0A4D
:1070400000000000BCB7070010B511A1032002F03A
:10705000CFF9184C206A012801D017A10CE0E06993
:1070600078B14FF44050A16980680022FEF71EFEFF
:10707000E169814205D01AA1032002F0B9F900208C
:1070800010BD1EA1032002F0B3F9012010BD0000C5
:107090003A494E464F3A456E746572206E72665F8D
:1070A0006466755F6170705F69735F76616C696457
:1070B0000D0A0000603400203A494E464F3A5265AE
:1070C0007475726E2066616C736520696E207661DE
:1070D0006C69642061707020636865636B0D0A00E1
:1070E0003A494E464F3A52657475726E2066616C2D
:1070F000736520696E204352430D0A003A494E469B
:107100004F3A52657475726E20747275652E204107
:107110007070207761732076616C69640D0A0000DD
:10712000F8B50F46014619483A68406B4618151ADB
:107130004FF4405000958268334615A1032002F0B9
:107140006AF92A463146224801F0BEF9040011D0FE
:107150002B4632461F49032002F055F92946304696
:1071600001F0C0F9040003D01BA1032002F040F994
:107170002046F8BD21A1032002F03AF9384601F07B
:1071800097F9002001F0EAFCF2E7000060340020EB
:107190003A494E464F3A566572696679696E67207C
:1071A000424C3A20416464723A2030782530387875
:1071B0002C205372633A203078253038782C204CBC
:1071C000656E3A203078253038780D0A00000000CE
:1071D00000300700A0B607003A494E464F3A5265C4
:1071E000717565737420746F20636F707920424CE1
:1071F000206661696C65640D0A0000003A494E46DC
:107200004F3A426F6F746C6F61646572207761737F
:107210002076657269666965640D0A002DE9F0479C
:107220000E4609785C4C0127DFF8709115464FF443
:10723000807A04F15C08072976D2DFE801F0A50422
:10724000264C21A59B0056A1032002F0D1F8B0687E
:1072500020B1504504D90420BDE8F0870320FBE7A6
:1072600058A1032002F0C4F84B48002589F80250C9
:1072700020213830FCF722F92563B068A06388E04C
:1072800058A1032002F0B4F820E05DA1032002F031
:10729000AFF8B268E06BA36B1118994207D9686028
:1072A000206CA8605EA1032002F0A2F8D6E740445B
:1072B0007168FCF7EAF8E06BB168374A0844E063AC
:1072C000D6E901014032FEF7F1FC2064E06B686012
:1072D000206CA8605DE05FA1032002F089F8D4E98A
:1072E0000E01814205D064A1032002F081F808203C
:1072F000B2E76AA1032002F07BF899F802004D463C
:1073000008B10120A8E7208F424683B26BA1032079
:1073100002F054F869A1032002F06AF8FEF7EAFDD2
:10732000012802D0052097E72EE0674890F87410F6
:1073300061B166A1032002F05BF86C49A1F2145020
:10734000FEF7C0FF074601280DD022E0007828B1E3
:1073500067A1032002F04CF80A271AE06DA1032070
:1073600002F046F8DEE777A1032002F041F80120A1
:10737000A8700EE07DA1032002F03AF8206CA8600E
:10738000E06BC5E900A004E084A1032002F030F81E
:107390000227384660E7000060340020002C0020FF
:1073A0003A494E464F3A4265666F7265204F50200B
:1073B00063726561746520636F6D6D616E640D0A43
:1073C000000000003A494E464F3A56616C6964200D
:1073D000436F6D6D616E64204372656174650D0A63
:1073E000000000003A494E464F3A56616C696420ED
:1073F000436F6D6D616E64204352430D0A000000BF
:107400003A494E464F3A4265666F7265204F5020AA
:10741000777269746520636F6D6D616E640D0A002B
:107420003A494E464F3A4572726F722E20496E6944
:107430007420636F6D6D616E64206C61726765723C
:10744000207468616E2065787065637465642E20B1
:107450000D0A00003A494E464F3A4265666F726522
:10746000204F50206578656375746520636F6D6D7E
:10747000616E640D0A0000003A494E464F3A457865
:1074800065637574652077697468206661756C74CE
:1074900079206F66667365740D0A00003A494E469E
:1074A0004F3A56616C696420636F6D6D616E642044
:1074B000657865637574650D0A0000003A494E46AB
:1074C0004F3A0D0A00000000B82C00203A494E4601
:1074D0004F3A48616E646C696E67207369676E65C8
:1074E0006420636F6D6D616E640D0A00443200208C
:1074F0003A494E464F3A48616E646C696E67207532
:107500006E7369676E656420636F6D6D616E640D87
:107510000A0000003A494E464F3A4465636F64657D
:107520006420636F6D6D616E642062757420697490
:1075300020686173206E6F20636F6E74656E7421B6
:10754000210D0A003A494E464F3A53657474696EEC
:10755000672044465520666C616720746F20696E11
:10756000697469616C697A65640D0A003A494E462E
:107570004F3A56616C696420436F6D6D616E643A79
:10758000204E52465F4446555F4F424A4543545F42
:107590004F505F53454C4543540D0A003A494E46FF
:1075A0004F3A496E76616C696420436F6D6D616E10
:1075B00064204F7065726174696F6E0D0A0000007F
:1075C00070B505464FF440500CA18468032001F0CB
:1075D0000FFF124901F118000A69012A08D04A690F
:1075E00032B189690C3001F6FF716FF30B010C4465
:1075F0002A462146BDE8704000F012B83A494E468E
:107600004F3A456E746572206E72665F6466755F90
:10761000636F6E74696E75650D0A0000603400203A
:107620002DE9F04107468068002415468846012868
:107630000DD00126A52817D0AA282CD0AC2833D0ED
:107640001EA1032001F0D4FE2046BDE8F08123A155
:10765000032001F0CDFE264840690128F4D14046C0
:10766000FFF736FC0446EFE722A1032001F0C0FE3D
:107670004046394601F00EF9040004D022A103204F
:1076800001F0B6FE05E0384600F012FF002001F0E0
:1076900065FA2E60D8E726A1032001F0A9FE39463D
:1076A0004046FFF73DFDDDE726A1032001F0A0FEE7
:1076B0003946404601F09EF80446EAE73A494E460C
:1076C0004F3A53696E676C653A20496E76616C6912
:1076D000642062616E6B0D0A000000003A494E465C
:1076E0004F3A56616C6964204170700D0A000000C9
:1076F000603400203A494E464F3A56616C69642026
:1077000053440D0A000000003A494E464F3A534494
:107710002075706461746520636F6E74696E756145
:1077200074696F6E206661696C65640D0A00000003
:107730003A494E464F3A56616C696420424C0D0AF4
:10774000000000003A494E464F3A53696E676C6537
:107750003A2056616C6964205344202B20424C0D22
:107760000A0000002DE9F84F15460C004FF0010B00
:107770001ED02078C54FC64E4FF480594FF00008F8
:1077800007286ED2DFE800F06D0461FEFD6DFC009D
:10779000C0A1032001F02CFEA2684AB110050AD056
:1077A000786D31691044884205D0C149012064E0F8
:1077B0000320BDE8F88F4A4504D9BEA1032001F09B
:1077C00017FE4CE0B07850B17B6D3069991881425A
:1077D0000AD90090C249032001F01DFE42E0C1A178
:1077E000032001F005FE3DE0CEA1032001F000FEE4
:1077F000F86CB864A0687864786D3865386371781F
:10780000491C01F003017170A6F80480B168491C9D
:10781000B160A168F26801F6FF711044090BC84A13
:1078200000F0E0FB40B1B068C6A1401EB06003208C
:1078300001F0DEFD0520BCE7B86C0090C9490320CB
:107840003B6D7A6C01F0E7FD18E1386D6860B86C4B
:10785000A860B07830B1A168B1F5807F04D9042068
:10786000A7E70DE10820A4E7386D7A6D0844801A77
:107870007A6C904204D9BCA1032001F0B9FD97E7CE
:10788000824A60684832FEF711FAB864386DA2681F
:10789000DFF8F4A2104438656860B86CA860B0885E
:1078A000A268B9461118FF2905D8777861680AEBF4
:1078B0000723184445E0C0F5807173788FB20AEB56
:1078C000032210443A466168FBF7DFFDB0889C4B09
:1078D000384480B2B080A168C01CC91BA160616837
:1078E00039446160D9F83010F2684F461144009174
:1078F000B1688208491CB160717800980AEB0121D7
:1079000000F06AFC00285BD0B068A0A1401EB06007
:10791000B2880320009B01F076FDF86CB864786DA6
:1079200038656860F86CA8607078401C00F003004F
:107930007070A6F80480A268002A85D00AEB0020A7
:107940006168FBF7A2FD2089B1880844B08000047B
:10795000000CF2D0D9F85420D9F83010D9F84430BE
:107960008A1A02444C469A4229D3F2688F18B168A9
:10797000491CB1607178C01C82080AEB012102E049
:1079800073E033E03BE06E4B384600F025FC10B36B
:10799000B0683B46401EB060B2887CA1032001F075
:1079A00032FDE06CA064606D20656860E06CA860EA
:1079B0007078401C00F003007070A6F804805DE051
:1079C000B2887FA10320009B01F01DFDB188386BB8
:1079D00008443863A8E73B46B28879A1032001F048
:1079E00012FDB188206B08442063E1E77CA10320ED
:1079F00001F0FEFC386D6860B86CA8603EE07EA1C6
:107A0000032001F0F5FCD7E914017A6C431A934284
:107A100004D080A1032001F0F6FC23E788A1032015
:107A200001F0E6FCC7F84480386D7865B86CF864FE
:107A3000002001F093F8386D316988421ED18749E2
:107A40000320B26801F0D8FC02E000BF01F0F8F9B1
:107A5000B0680028FAD182A1032001F0C9FC4A488D
:107A6000B03800F069FD834608E084A1032001F0EE
:107A7000BFFCB86CA860386DC5E90090584698E620
:107A800086A1032001F0B4FC0220ECE76034002062
:107A9000002C00203A494E464F3A4265666F7265A7
:107AA000204F50206372656174650D0A000000006C
:107AB00014B507003A494E464F3A496E76616C69F3
:107AC000642073697A6520666F72206F626A6563ED
:107AD000742028746F6F206C61726765290D0A002D
:107AE000A4B507003A494E464F3A547279696E6719
:107AF00020746F2063726561746520646174612015
:107B00006F626A65637420776974686F7574207634
:107B1000616C696420696E697420636F6D6D616E5C
:107B2000640D0A003A494E464F3A56616C6964202A
:107B300044617461204372656174650D0A00000040
:107B4000E55E07003A494E464F3A4572617365203B
:107B50006F7065726174696F6E206661696C6564CF
:107B60000D0A000060B507003A494E464F3A577279
:107B7000697465207265717565737420746F6F2008
:107B80006C6F6E670D0A0000E42D00203A494E46E6
:107B90004F3A212121204661696C65642073746F1E
:107BA00072696E67202564204220617420616464DC
:107BB000726573733A203078253038780D0A0000EA
:107BC0003A494E464F3A53746F72696E6720256486
:107BD00020422061743A203078253038780D0A0030
:107BE0003A494E464F3A4265666F7265204F5020C3
:107BF0006372630D0A0000003A494E464F3A4265EF
:107C0000666F7265204F5020657865637574650DE9
:107C10000A0000003A494E464F3A496E76616C6957
:107C200064206461746120686572653A20657870CB
:107C30003A2025642C20676F743A2025640D0A00D1
:107C40003A494E464F3A56616C696420446174610A
:107C500020457865637574650D0A0000C8B4070097
:107C60003A494E464F3A446F696E6720706F73749D
:107C700076616C69646174650D0A00003A494E468C
:107C80004F3A56616C6964204461746120526561A9
:107C90006420696E666F0D0A000000003A494E4686
:107CA0004F3A496E76616C69642044617461204F7B
:107CB0007065726174696F6E0D0A000070B50F48CF
:107CC0000068000C10F0010F15D00D480025816DE3
:107CD00001290AD00B4C22680BA1032001F08CFB78
:107CE0002068012806D0002070BD8565002000F0C6
:107CF00035FF00E02560012070BD00001005005038
:107D0000603400201C0500403A494E464F3A6E72DE
:107D1000665F6466755F656E7465725F63686563F0
:107D20006B2C2047505245475245542076616C7564
:107D3000652069732025640D0A0000002DE9F047D5
:107D400006464FF010208A464FF440594169D9F851
:107D5000080090460F1A36A10320A7F5405701F0FE
:107D600047FBB74201D23BA13EE047A1032001F00F
:107D70003FFB4B4C4BA10320226901F03DFB4FA17F
:107D80000320A369226A01F03EFB56A10320636A27
:107D9000E26A01F038FBD9F80810C8F80010206A30
:107DA00004F118054FF00009012805D0C4F810901F
:107DB00056A1C4F8149020E03A465DA1032001F0DA
:107DC0001BFB2868334600F6FF706FF30B003F1A69
:107DD0003A4662A1032001F016FB0120BE4216D9EB
:107DE000BAF1000F06D066A1032001F001FB0420C8
:107DF000BDE8F087C4E904096BA1032001F0F8FA9B
:107E0000C5F80490C5F8089000202E60F0E7C4E99A
:107E10000490A069D8F8001000F6FF706FF30B0013
:107E20001F4D01442435C8F8001067A10320E5E781
:107E30003A494E464F3A456E746572206E72665FDF
:107E40006466755F66696E645F63616368650D0A89
:107E5000000000003A494E464F3A4E6F2077617954
:107E600020746F2066697420746865206E657720C1
:107E70006669726D77617265206F6E2064657669E0
:107E800063650D0A000000003A494E464F3A4261D0
:107E90006E6B20636F6E74656E740D0A00000000D7
:107EA000603400203A494E464F3A42616E6B20746E
:107EB0007970653A2025640D0A0000003A494E4663
:107EC0004F3A42616E6B203020636F64653A203018
:107ED00078253032783A2053697A653A2025640D46
:107EE0000A0000003A494E464F3A42616E6B20311B
:107EF00020636F64653A203078253032783A205319
:107F0000697A653A2025640D0A0000003A494E4618
:107F10004F3A4E6F2070726576696F75732C2075BD
:107F200073696E672062616E6B20300D0A0000007D
:107F30003A494E464F3A667265655F73697A6520C5
:107F40006265666F72652062616E6B2073656C6539
:107F500063743A2025640D0A000000003A494E4639
:107F60004F3A667265655F73697A653A2025642CBD
:107F70002073697A655F7265713A2025640D0A0085
:107F80003A494E464F3A4661696C7572653A2064CB
:107F900075616C2062616E6B2072657374726963C7
:107FA00074696F6E0D0A00003A494E464F3A456EAD
:107FB000666F7263696E672073696E676C652062B5
:107FC000616E6B0D0A0000003A494E464F3A5573F8
:107FD000696E67207365636F6E642062616E6B0DFE
:107FE0000A0000002DE9FF41054617460E460B46E4
:107FF0004FF000082A4628A1032001F004FA2F4C74
:108000002068410723D5810707D52DA1032001F062
:10801000EFF90A2004B0BDE8F08140F001002060D3
:10802000B2B23B4629462F48FEF72CFA5FEA000819
:1080300008D002462CA1032001F0DEF9206820F0D0
:10804000010002E0206840F00100206021E02805E6
:1080500005D02CA1032001F0CBF90620DAE7C5F307
:108060000F34284601F006FA05F58055761EF8D142
:108070007FB12A480168D0E90220CDE90220CDE98C
:108080000017280BADF80840ADF80A00002168463B
:10809000B8474046BEE700003A494E464F3A45725F
:1080A0006173696E673A203078253038782C206EFD
:1080B000756D3A2025640D0A000000004C2C00204C
:1080C0003A494E464F3A45726173653A20466169B6
:1080D0006C7572652073696E6365206C6173740DD5
:1080E0000A000000A82C00203A494E464F3A45723B
:1080F000617365206661696C65643A2025640D0AC8
:10810000000000003A494E464F3A496E76616C696C
:108110006420616464726573730D0A0074B30700B0
:1081200010B501000C4C4FF0000013D00BA1032040
:1081300001F05EF9FEF70EFA08B113A104E01B4846
:1081400002F052FD28B11AA1032001F051F90820D4
:1081500010BD0421216010BD4C2C00203A494E4630
:108160004F3A2D2D2D2D2D2D2D206E72665F6466BC
:10817000755F666C6173685F696E69742D2D2D2D56
:108180002D2D2D0D0A0000003A494E464F3A4E6FF4
:108190007420696E697469616C697A696E672074AC
:1081A0006865207468696E670D0A0000E96507005C
:1081B0003A494E464F3A4E6F7420696E6974696150
:1081C0006C697A696E6720746865207468696E6787
:1081D00020320D0A000000002DE9FF411746264A13
:1081E00006461D4610680024430723D5830707D59C
:1081F00022A1032001F0FCF80A2004B0BDE8F081C0
:1082000040F00100106090460A46BBB23146244857
:108210000095FEF7A9F9040005D0024621A103202C
:1082200001F0EAF820E0D8F8001041F00101C8F8A8
:10823000001019E031B12EB141EA0600800703D0E9
:108240000620DAE70320D8E787B13A46304601F046
:1082500029F94DB10020CDE90260CDE900050146C4
:10826000ADF80C706846A8472046C6E714A1032065
:1082700001F0BEF80420C0E74C2C00203A494E46DD
:108280004F3A466C6173683A204661696C75726555
:108290002073696E6365206C6173740D0A000000C1
:1082A000A82C00203A494E464F3A466C6173683A12
:1082B000206661696C65642025640D0A0000000079
:1082C0003A494E464F3A466C6173683A20496E7699
:1082D000616C6C6964206C656E67746820284E560A
:1082E0004D43290D0A00000038B5002000902BA155
:1082F000032001F07DF800F0EDFB6846FFF760F920
:10830000012420B12DA1032001F072F80094FFF7A1
:10831000D5FC28B136A1032001F06AF8009417E0DB
:108320000098A8B9FEF790FE90B1FEF78DFE48B117
:108330004FF4405439A10320A26801F05DF8A06811
:10834000FEF7DEFB3CA1032001F052F8002038BD0F
:10835000414B424A05210020FDF78CF808B1FCF79B
:10836000BFFF3E4A142178320820FDF743F808B1D8
:10837000FCF7B6FF00F00AFD040005D038A1032089
:1083800001F036F8204638BD00F0D8F941A10320AD
:1083900001F02EF8FDF70EF8FCE700003A494E46D2
:1083A0004F3A496E207265616C206E72665F64663A
:1083B000755F696E69740D0A000000003A494E4607
:1083C0004F3A436F756C64206E6F7420636F6E74E8
:1083D000696E756520444655206F706572617469D9
:1083E0006F6E3A203078253038780D0A0000000092
:1083F0003A494E464F3A4170706C69636174696FD7
:108400006E2073656E7420626F6F746C6F6164654B
:108410007220726571756573740A00003A494E46A0
:108420004F3A4A756D70696E6720746F3A203078E4
:10843000253038780D0A00003A494E464F3A4166D9
:10844000746572207265616C206E72665F64667519
:108450005F696E69740D0A005D540700BC35002029
:108460003A494E464F3A436F756C64206E6F7420E4
:10847000696E6974616C697A65204446552074722E
:10848000616E73706F72743A203078253038780DD1
:108490000A0000003A494E464F3A57616974696EC6
:1084A0006720666F72206576656E74730D0A000032
:1084B0000021016041608160024801634163016104
:1084C00041617047603400201FB5054B01AC920834
:1084D0001B6A009384E80700684618DF04B010BDEB
:1084E00034B307001FB58908002201AB009283E86E
:1084F0000700684618DF04B010BD00001FB59208E1
:10850000930502D0092004B010BD044B1B680093F2
:108510000392CDE90110684618DFF4E734B3070091
:108520001FB5044B0FCB8DE80F00684618DF04B071
:1085300010BD000044B307002DE9F047054690F850
:108540003D000126DFF8249103280DD00A26484F6C
:108550007869002824D0012829D046A1032000F002
:1085600047FF0A20BDE8F087404C4E481C342346A4
:10857000206020206060D9E903120520FEF798FBF7
:1085800000B10A26202205F13F012068FAF7A8FF72
:108590000028DCD044A1032000F02AFF0526D6E7FE
:1085A00047A1032000F024FF314C183405E04CA112
:1085B000032000F01DFF2E4C24344FF00008012E44
:1085C00005D0C4F808804046C4F8048032E04CA1CD
:1085D000032000F00DFF95F8250070B101280ED0A2
:1085E00002280ED003280FD05FF00A0695F85F002E
:1085F00078B195F8600060B118E0012002E0A52094
:1086000003E0AA20A060F1E7AC20A060A86A78632C
:10861000ECE795F8250020B1022805D0032805D104
:1086200002E06868B86001E06868F860B86C606093
:10863000D9F8100020600E4820213830FAF73EFFAC
:108640000B48FF22B2215C30FAF731FF394CC7F8F2
:10865000308004E02046FEF769FB00F0F1FB36486D
:1086600000F07CFA1128F5D030467BE7002C002082
:10867000603400203A494E464F3A496E7465726E36
:10868000616C206572726F722C20696E76616C6904
:10869000642063757272656E742062616E6B0D0A80
:1086A00000000000E43100203A494E464F3A48614C
:1086B0007368206661696C7572650D0A00000000C0
:1086C0003A494E464F3A43757272656E7420626144
:1086D0006E6B2069732062616E6B20300D0A0000A2
:1086E0003A494E464F3A43757272656E7420626124
:1086F0006E6B2069732062616E6B20310D0A000081
:108700003A494E464F3A5375636365737366756CA9
:108710006C792072756E2074686520706F73747642
:10872000616C69646174696F6E20636865636B2155
:108730000D0A0000A08601003D98070070B50120D9
:10874000FFF7EEFC00281BD10E4D0F4CA860A06B6C
:10875000A8B1FDF7CFFB90B1206A50B9A06940B134
:10876000084A00210C322861FFF7E8FA0120A870BE
:1087700005E0E06A18B9A06908B1606AF0E7002076
:1087800070BD0000002C00206034002010B50C7873
:108790000F4B012C01D0062C07D10C79012C03D0F2
:1087A000022C01D0072010BD1C701B78012B07D0B4
:1087B000022B09D007A1032000F01AFE052010BDEE
:1087C000BDE81040FEF72ABDBDE81040FEF7CABF65
:1087D000002C00203A494E464F3A496E76616C694A
:1087E00064207265717565737420747970650D0A03
:1087F0000000000070B50D4606460CA1032000F0F5
:10880000F7FD2946304600F045F8040001D011A1DB
:1088100006E029463046FEF783FC040004D015A18B
:10882000032000F0E5FD204670BD00003A494E46A9
:108830004F3A456E746572206E72665F6466755F4E
:1088400073645F626C5F636F6E74696E75650D0A49
:10885000000000003A494E464F3A53442B424C3AEE
:1088600020534420636F7079206661696C65640DE4
:108870000A0000003A494E464F3A53442B424C3AC4
:1088800020424C20636F7079206661696C65640DCD
:108890000A0000002DE9FE4FDFF8FCB080465F467D
:1088A000DBF83000DBF8341000F58054081A00F6CD
:1088B000FF70060B360340F6FF7000EB9600050BC9
:1088C0002D0336A1032000F093FD386B796B00EB8C
:1088D000080A41B1884206D13CA1032000F088FD7E
:1088E0000020BDE8FE8F4FF440503FA18289032055
:1088F00000F082FD04EB0509CDE900490AEB050310
:108900009846524642A10320029500F08DFD2A466A
:1089100051462046FFF7F2FD070004D05346224699
:108920004B49009513E0CDE9004943465246494979
:108930000320029500F078FD2A4651462046FFF7B5
:10894000C3FD070007D04449534622460095032043
:1089500000F061FD1DE0CDE90049434652463FA1CC
:108960000320029500F060FD4C46C246B54201D995
:10897000002600E0761B49A1032000F039FDDBF85A
:1089800034100020891BCBF8301000F0E7F8002EDF
:10899000B0D13846A5E70000603400203A494E4681
:1089A0004F3A456E746572206E72665F626F6F74C7
:1089B0006C6F616465725F6466755F73645F636F3B
:1089C0006E74696E75650D0A000000003A494E46E6
:1089D0004F3A534420616C726561647920636F7013
:1089E0006965640D0A0000003A494E464F3A5570D9
:1089F000646174696E672053442E204F6C64205369
:108A000044207665723A203078253034780D0A009B
:108A10003A494E464F3A436F7079696E67205B3032
:108A200078253038782D3078253038785D20746F8F
:108A3000205B3078253038782D3078253038785DD7
:108A40003A204C656E3A203078253038780D0A008F
:108A500078B70700E4B6070030B707003A494E463A
:108A60004F3A56616C6964617465642030782530D2
:108A700038782D30782530387820746F203078257C
:108A80003038782D3078253038783A2053697A6537
:108A90003A203078253038780D0A00003A494E46A1
:108AA0004F3A46696E697368656420776974682017
:108AB000746865205344207570646174652E0D0AD6
:108AC00000000000002258210148FDF7EFB8000027
:108AD0006434002070B513A1032000F089FC1B4909
:108AE00000204FF4AE7508702A4619491948FAF764
:108AF000CCFC184C2068401C04D0FFF7E3FF216831
:108B000081420ED01449032000F072FC294611481E
:108B1000FAF7D4FC01206060BDE87040002000F04E
:108B20001DB870BD3A494E464F3A72756E6E696E09
:108B300067206E72665F6466755F73657474696ED4
:108B400067735F696E69740D0A000000442C002091
:108B500000F00700603400200CB8070070B505462F
:108B60001D4A1EA1032000F047FC264C207808B1C6
:108B700025A125E0012020700146002216486560ED
:108B8000FFF730FA002510B125702BA118E0FFF790
:108B900099FF34495722086033A1032000F02CFCD0
:108BA00030494FF4AE72A1F5AE70FAF76EFC364B59
:108BB000572236490848FFF70FFB30B1257034A122
:108BC000032000F015FC112070BD3CA1032000F033
:108BD0000FFC002070BD000000F007003A494E462F
:108BE0004F3A45726173696E67206F6C64207365DC
:108BF0007474696E67732061743A20307825303858
:108C0000780D0A00442C00203A494E464F3A436FF3
:108C1000756C64206E6F7420717565756520777250
:108C20006974696E67206F662044465520536574E9
:108C300074696E67730D0A003A494E464F3A4661B1
:108C4000696C656420746F20657261736520626F62
:108C50006F746C6F616465722073657474696E679C
:108C6000730D0A00603400203A494E464F3A57725D
:108C70006974696E672030782530387820776F7294
:108C800064730D0A00000000E16307000433002054
:108C90003A494E464F3A4661696C656420746F20CC
:108CA000777269746520626F6F746C6F616465724E
:108CB0002073657474696E67730D0A003A494E46F5
:108CC0004F3A57726974696E672073657474696E80
:108CD00067732E2E2E0D0A002DE9F0410F48104F1C
:108CE0000025C01BC6080FA1032000F081FB3246FF
:108CF00015A1032000F080FB002406E007EBC40070
:108D000040688047050002D1641CB442F6D315A127
:108D1000032000F06DFB2846BDE8F08170B9070024
:108D200068B907003A494E464F3A496E206E72665E
:108D30005F6466755F7472616E73706F7274735F77
:108D4000636C6F73650D0A003A494E464F3A6E7573
:108D50006D207472616E73706F7274733A20256443
:108D60000D0A00003A494E464F3A4166746572203A
:108D70006E72665F6466755F7472616E73706F7237
:108D800074735F696E69740D0A0000002DE9F0418B
:108D90000F48104F0025C01BC6080FA1032000F08C
:108DA00027FB324615A1032000F026FB002405E036
:108DB00057F834008047050002D1641CB442F7D351
