:020000040001F9
:10F00000284C002015F401001DF401001FF401003C
:10F0100021F4010023F4010025F4010000000000A8
:10F0200000000000000000000000000027F40100C4
:10F0300029F40100000000002BF401002DF4010070
:10F040002FF40100F1F5010041F901002FF4010056
:10F050002FF401002FF401002FF401002FF4010020
:10F060002FF401002FF401002FF401002FF4010010
:10F070002FF401002FF401002FF401002FF4010000
:10F080002FF401002FF401002FF401002FF40100F0
:10F090004DF601002FF401002FF401002FF40100C0
:10F0A0002FF401002FF401002FF401002FF40100D0
:10F0B0002FF401002FF40100000000000000000008
:10F0C0002FF401002FF401002FF401002FF40100B0
:10F0D0002FF401002FF401002FF4010000000000C4
:10F0E0000000000000000000000000000000000020
:10F0F0000000000000000000000000000000000010
:10F1000000000000000000000000000000000000FF
:10F1100000000000000000000000000000000000EF
:10F40000DFF80CD000F074F8004800473503020024
:10F41000284C00200648804706480047FEE7FEE7E4
:10F42000FEE7FEE7FEE7FEE7FEE7FEE7FEE7FEE7B4
:10F43000A5F6010001F4010040EA01039B0703D097
:10F4400009E008C9121F08C0042AFAD203E011F823
:10F45000013B00F8013B521EF9D27047D2B201E0E5
:10F4600000F8012B491EFBD270470022F6E710B5C9
:10F4700013460A4604461946FFF7F0FF204610BD22
:10F48000421C10F8011B0029FBD1801A70472DE99E
:10F49000F05F0546002092469B4688460646814618
:10F4A00040241BE0284641464746224600F041F8EA
:10F4B00053465A46C01A914110D311461846224667
:10F4C00000F028F82D1A67EB01084F46224601206C
:10F4D000002100F01FF817EB00094E41201EA4F197
:10F4E0000104DFDC484631462A464346BDE8F09F2A
:10F4F000064C074D06E0E06840F0010394E8070081
:10F5000098471034AC42F6D3FFF77EFF101F02007D
:10F51000301F0200202A04DB203A00FA02F100200A
:10F5200070479140C2F1200320FA03F31943904041
:10F530007047202A04DB203A21FA02F000217047AC
:10F5400021FA02F3D040C2F120029140084319464B
:10F55000704700F01F02012191404009800000F136
:10F56000E020C0F88012704700F01F020121914096
:10F570004009800000F1E020C0F88011704700F0E1
:10F580001F02012191404009800000F1E020C0F8F5
:10F590000011704700F01F020121914040098000D6
:10F5A00000F1E020C0F8001270474907090E00285A
:10F5B00006DA00F00F0000F1E02080F8141D70471B
:10F5C00000F1E02080F8001470470000BFF34F8F77
:10F5D00005480168054A01F4E06111430160BFF389
:10F5E0004F8F00BFFDE700000CED00E00400FA05BE
:10F5F00070B5144CD4F80001002628B1D4F80403E7
:10F60000C00701D0C4F80061D4F80C010E4D40B120
:10F61000D4F80403000704D5C4F80C61E86800B10D
:10F620008047D4F8100100280BD0D4F80403C0069A
:10F6300007D5C4F81061A868002802D0BDE8704062
:10F64000004770BD00100040842100207CB5144CA0
:10F65000206A01902078002821D00120FFF784FF44
:10F660006568002666600120FFF789FFA16900290F
:10F6700015D0E80703D08DF8006068468847A807D2
:10F6800005D501208DF80000A16968468847680704
:10F6900005D502208DF80000A169684688477CBD29
:10F6A00084210020F0B598480023021D017801252F
:10F6B000101D4FF08056062907D11478240704D175
:10F6C0000478C4F30314032C02D0062904D00FE0FD
:10F6D0008F4F8E4C7C670EE01478240708D1047895
:10F6E000C4F30314032C06D0042C04D0052C02D040
:10F6F000062907D00EE0D6F84442864FC4F34234C0
:10F700003C6002E01478240704D10478C4F30314A5
:10F71000032C02D0062906D011E07F4C276827F081
:10F72000807727600EE01478240708D10478C4F3AA
:10F730000314032C06D0042C04D0052C02D0062977
:10F740000AD011E04FF08044C4F80C31C4F81031F5
:10F75000704C241F236002E01478240704D104783D
:10F76000C4F30314032C02D0062905D00CE0694F22
:10F77000032464373C600AE01478240704D1047839
:10F78000C4F30314032C02D006290DD014E0634FF8
:10F7900005243C60614C78342560604C083423605B
:10F7A0003F243F1D3C6002E01478240704D1047814
:10F7B000C4F30314052C02D0062957D068E0584939
:10F7C0000968584A11605649091D0968121D1160DF
:10F7D000534908310968121D116051490C310968FB
:10F7E000121D11604E4910310968121D11604C49FB
:10F7F00014310968121D1160494918310968494AD4
:10F800002032116046491C310968121D11604449BB
:10F8100020310968121D1160414924310968121D07
:10F8200011603F4928310968121D11603C492C3193
:10F830000968121D11603A4930310968394A40326D
:10F840001160374934310968121D1160344938316B
:10F850000968121D116032493C310968121D11609E
:10F860002F4940310968121D116002E01178090723
:10F870000ED10078C0F30310032803D0042801D070
:10F88000052805D1D6F85802274900F04F00086036
:10F8900021487438016841F470010160BFF34F8F53
:10F8A000BFF36F8F4FF01021D1F80002002803DB67
:10F8B000D1F80402002822DA1C4A15601C480468AA
:10F8C000002CFCD01524C1F800420568002DFCD0A6
:10F8D000C1F8044201680029FCD0136001680029C6
:10F8E000FCD0BFF34F8F0C48F0380168114A01F487
:10F8F000E06111430160BFF34F8F00BFFDE70F4987
:10F900000D480860F0BD0000E00F00F00DF0ADBA4A
:10F9100000C007403C050040FCED00E010560040F0
:10F920000404001020C50040E40E004004E501403E
:10F9300000E401400400FA050090D003C02100203B
:10F940000448017F04480029024901D002F08FB920
:10F9500002F0FEB8B8230020002000400FB4084B8E
:10F9600010B504A902AA039800F01CF8044602A9E5
:10F97000002000F048FA204610BC5DF814FB00009F
:10F9800007FE010002E008C8121F08C1002AFAD1D0
:10F9900070477047002001E001C1121F002AFBD10F
:10F9A000704700002DE9FF4F8DB00F460546002639
:10F9B00006E025280BD0DDE90F1290476D1C761C60
:10F9C00028780028F5D111B03046BDE8F08F00242A
:10F9D000A246A1460122EC4900E0044315F8013F8C
:10F9E000203B02FA03F00842F7D128782A2810D0E9
:10F9F0006FF02F022878A0F13001092914D80AEB02
:10FA00008A0102EB410144F0020400EB010A6D1C83
:10FA1000F0E701CF5FEA000A03D544F40054CAF1CD
:10FA2000000A44F002046D1C28782E2817D115F81E
:10FA3000010F44F004042A280ED06FF02F0228781A
:10FA4000A0F1300109290AD809EB890102EB410133
:10FA500000EB01096D1CF2E757F8049B6D1C287838
:10FA60006C280FD006DC4C2817D068280DD06A28E7
:10FA700014D104E0742810D07A280FD10DE044F49A
:10FA800000140AE044F4801401E044F4401469785E
:10FA9000814202D104F580146D1C6D1C2A786E2AF7
:10FAA0001FD00CDC632A31D004DC002A8BD0582A0A
:10FAB00011D1A3E0642A68D0692A0CD165E0732AC9
:10FAC0002ED004DC6F2A73D0702A04D19BE0752AF3
:10FAD0006FD0782A6ED01046DDE90F129047761C61
:10FAE00050E1C4F30250022806D0032809D00428AC
:10FAF00001CF09D0066045E101CFF117C0E90061EF
:10FB000040E101CF06803DE106703BE117F8040BB0
:10FB10008DF8000000208DF80100EB46012003E085
:10FB200057F804BB4FF0FF3061074FF0000102D4DB
:10FB30000DE008F10101884649450FDA8045F8DB00
:10FB40001BF808100029F4D108E008F101018846EB
:10FB50008142FADB1BF808100029F6D1DDE90F23FA
:10FB6000AAEB08008146214600F036F9304400EB4C
:10FB7000080604E0DDE90F121BF8010B9047B8F10D
:10FB80000108F7D221464846F7E00A21C4F30253A0
:10FB90004FF0000B0891022B04D001CFC117032BAB
:10FBA00009D00AE0FF1D27F00707F7E8020108E087
:10FBB00032E01FE020E000B2C117042B01D140B2B7
:10FBC000C117031E71F1000307DA4FF0000CD0EBF0
:10FBD0000C006CEB01012D2302E0230504D52B233F
:10FBE0008DF82430012303E0E30701D02023F7E759
:10FBF000984658E00A2110E010210EE010204FF046
:10FC0000000B08900CE010214FF0000B44F00404AE
:10FC10004FF00809089103E008214FF0000B08910C
:10FC2000C4F30253022B04D001CF0021032B06D0D2
:10FC300006E0FF1D27F00707F7E8020103E080B2A6
:10FC4000042B00D1C0B24FF0000823072BD5702A37
:10FC500007D0DDF820C08CF0100C5CEA0B0C05D04E
:10FC60000EE040238DF82430012308E050EA010320
:10FC700006D030238DF824308DF8252002239846B5
:10FC8000DDF820C08CF0080C5CEA0B0C0BD150EABC
:10FC9000010301D1630706D530238DF824304FF0DE
:10FCA0000108A9F10109582A04D038A20B9208AA28
:10FCB0000A920BE03AA2F9E75B46089AFFF7E7FBE6
:10FCC0000B9B9B5C0A9A521E0A92137050EA010227
:10FCD000F2D10A98ADEB000000F1200B600702D5CD
:10FCE00024F4803401E04FF00109D94502DDA9EB8D
:10FCF0000B0000E0002000EB0B0141440890AAEB50
:10FD0000010AE00306D4DDE90F232146504600F046
:10FD100063F806444FF0000908E009A911F809004A
:10FD2000DDE90F12904709F10109761CC145F4DBAA
:10FD3000E0030CD5DDE90F232146504600F04CF8D6
:10FD4000064404E0DDE90F1230209047761C089944
:10FD5000481E08900029F5DC08E00A980A99007806
:10FD6000491C0A91DDE90F129047761CBBF1000196
:10FD7000ABF1010BF1DC21465046DDE90F2300F029
:10FD800019F806446D1C1BE6092801003031323396
:10FD900034353637383961626364656600000000C7
:10FDA00030313233343536373839414243444546B1
:10FDB000000000002DE9F041044600251E461746CC
:10FDC000880404D405E039462020B0476D1C641E29
:10FDD000F9D52846BDE8F0812DE9F041044600251B
:10FDE0001E469046C80301D5302700E0202788042E
:10FDF00004D505E041463846B0476D1C641EF9D570
:10FE00002846BDE8F0810A68531C0B6010707047EB
:10FE1000006890FAA0F000BA00BA70470BA1012068
:10FE200001F05AFA01F0B2F901F0B4F90028FBD15F
:10FE3000BFF34F8F0B4801680B4A01F4E061114397
:10FE40000160BFF34F8F00BFFDE700004150505FDE
:10FE50004552524F523A4552524F523A466174619E
:10FE60006C0D0A000CED00E00400FA050EB500214F
:10FE70000091CDE901106A4644F20100FFF7CEFF80
:10FE80000EBD00F003B800F009B8000072B60248D9
:10FE90000168491C0160704770210020034908680F
:10FEA000401E086000D162B670470000702100203B
:10FEB0002DE9F04105460878214F012606FA00F0A9
:10FEC0000C463860086801F00DF80021606800F009
:10FED000F9FF28791B4901EB4010A169007F002838
:10FEE0002868C0F8241519D0607D217D2A68084350
:10FEF000C2F86C0518E00021A06800F0E3FF207B49
:10FF000086403E60E06800F0EDFFD4E90212286808
:10FF1000C0F80825C0F81015BDE8F081607D227D8D
:10FF200029681043C1F86C05D4E900122868C0F8AC
:10FF30000C15C0F81425207D0128DCD0ECE700006A
:10FF400008050050B8230020002901DA002070477E
:10FF50000268114401600120704700002DE9F04162
:10FF6000461C01250020FFF78CFF1149741CD1E9C4
:10FF700000208F68101A3B1A5B1C9C420FD963B19A
:10FF80000C480D4B3A4000681B6801EB820263F39A
:10FF90009F20D0600868401C0860002501E090198F
:10FFA00008600020FFF76FFF2846BDE8F0810000E1
:10FFB000D8240020E01E020080210020034803C84E
:10FFC000814201D10120704700207047D8240020D1
:10FFD000006890FAA0F000BA704700004FF080402F
:10FFE0000021C0F800110121C0F80010D0F8001164
:10FFF0000029FBD0704700002DE9F0410125904613
:020000040002F8
:100000000E46074600240DE0335D3A5D08A103204B
:1000100001F0B6F9385D315D884201D0002503E07A
:10002000641CE4B24445EFD32846BDE8F0810000EB
:100030004150503A494E464F3A636F6D7061726558
:1000400020737263203A2025642C20646573203A63
:100050002025640D0A00000070B531A08AB0006848
:10006000089030A030A100680990D1E90001304C1F
:10007000CDE9060121782F48002519B1617831B109
:10008000217C02E0E17811B12179417000E04570F6
:1000900020260670182228496846FFF7CDF901206E
:1000A0008DF800004FF41671ADF80C10ADF80E008D
:1000B0008DF808002148019002208DF801508DF83C
:1000C00009008DF814508DF81360684600F038FD73
:1000D000002822D108A800F0FFFD00281DD109A8A2
:1000E00000F00CFE002818D1082106A800F018FE28
:1000F000002812D1042000F047FE00280DD12078FE
:1001000040B1607830B1E27B0DA1032001F00AF923
:10011000E07B00E0632000F027FE0AB070BD000025
:10012000E7E7E7E7C2C2C2C2E7C2C3C4C5C6C7C8E1
:1001300038210020C4210020A81E0200150802005A
:100140004150503A494E464F3A45534220686173F8
:10015000206265656E207061697265642C206E6531
:1001600077206368616E6E656C2069732025640D6D
:100170000A00000070B5134C2021601DFFF775F9CF
:10018000114901F11406C86A44F8050F91F83000CE
:1001900020710520E07700200246B51C32542A5415
:1001A000FF240923401C0228F8DB4C734FF08050D9
:1001B0008B7302694A624069401E42430A62886248
:1001C00070BD0000C421002038210020094A02210E
:1001D000116009490B68002BFCD0064B1B1D1860F1
:1001E00008680028FCD00020106008680028FCD0B7
:1001F0007047000004E5014000E40140084B10B5E1
:1002000001221A60074A1468002CFCD001601068B3
:100210000028FCD00020186010680028FCD010BD19
:1002200004E5014000E4014070B508240F25204694
:1002300000F051FE641CAC42F9D900245FF00105C6
:1002400005FA04F010F4F01F02D0204600F043FE3F
:10025000641C202CF4D370BD70B50E4604460079A2
:1002600018494FF4A27501EB4010017F2068A1B13D
:100270004FF4887101F0EAF84FF49071206801F0B2
:10028000E5F84FF49271206801F0E0F82946206803
:1002900001F0DCF80C49206809E04FF48E7101F0A0
:1002A000C4F82946206801F0C0F808492068C0F861
:1002B0000413206800F073F93146BDE8704000F087
:1002C00052B90000B8230020100302008000020091
:1002D00070B50A4C01250AA1206A10F8082D627336
:1002E0000379A373032001F04BF8607BFF2802D051
:1002F000A07B092800D10025284670BD38210020A8
:100300004150503A494E464F3A6973455342506105
:1003100069726564206368616E6E656C2069732024
:1003200025642C20706970652069732025640D0A8E
:1003300000000000FFF778FF002001F05FF808B12F
:10034000FFF794FDFFF74AFE2E4C207820B1FFF70F
:1003500011FFFFF7BDFF6070E07830B9FFF77CFE5A
:1003600018B140F2862100F02FFA274903202073AC
:100370000870012005460D54401C3728FBDB257210
:100380000220E0713820A07120A1042000F0A4FF19
:100390004FF4C876E069B04203D12C480560FFF7FE
:1003A00015F92078002824D0227829A1032000F014
:1003B000B9FFA07858B1A2782CA1032000F0B2FFB9
:1003C00001F03CFB44F6206000F07CF80CE0314882
:1003D0000021C170437990F824202FA1032000F060
:1003E000CFFF2C4800F0F8FC00F0D4FE0028FBD131
:1003F000D0E701F023FBE069401CE06141F2883066
:10040000E2E7000038210020802300204150503ACC
:1004100044454255473A456E68616E6365642053B2
:10042000686F636B4275727374205472616E736D82
:100430006974746572204578616D706C65207275A1
:100440006E6E696E672E0D0A000000001C050040EC
:100450004150503A494E464F3A70616972206D6F73
:1004600064652069732025640D0A00004150503AEC
:10047000494E464F3A7768696C6520657362207013
:100480006169722066696E697368203A2025640D7F
:100490000A000000C42100204150503A494E464F06
:1004A0003A73656E64206C656E677468203A202527
:1004B000642C2074782064617461203A2025640DD6
:1004C0000A00000000283ED01F49204A096800BFEA
:1004D00000BF00BF00BF00BF00BF00BF00BF914210
:1004E0002FD000BF00BF00BF00BF00BF00BF00BFD4
:1004F00000BF00BF00BF00BF00BF00BF00BF00BF04
:1005000000BF00BF00BF00BF00BF00BF00BF00BFF3
:1005100000BF00BF00BF00BF00BF00BF00BF00BFE3
:1005200000BF00BF00BF00BF00BF00BF00BF00BFD3
:1005300000BF00BF00BF00BF00BF00BF00BF00BFC3
:1005400000BF401EC3D17047C02100200024F4002A
:1005500000F01F02012191404009800000F1E020DD
:10056000C0F8801170474907090E002806DA00F02C
:100570000F0202F1E02282F8141D03E000F1E022F4
:1005800082F8001400F01F02012191404009800010
:1005900000F1E020C0F88012C0F800117047000B95
:1005A00040B270472DE9F04105460079164F90465C
:1005B00007EB40140E46E07E10B10820BDE8F08144
:1005C000707F20772846FFF773FC5FEA08006060C1
:1005D0003169216003D0317F2846FFF73DFE28793D
:1005E00007EB4010007F0028286801D0082100E0B8
:1005F0000421C0F800150020E0752076A0750121C7
:10060000E176A076DAE70000B82300202DE9F04774
:10061000054600793E4C0E4604EB4013187F38B176
:100620004FF40050B0EB164F02D01020BDE8F08719
:10063000284600F06FF808B11120F7E79A750027F7
:100640009E609F8228794FF0010804EB40143E46DB
:10065000207F0028286825D04FF49079494600F083
:10066000F5FE4FF4AC7A5146286800F0EFFE28689A
:10067000A17DA268C0F84425C0F848152868C0F8D4
:1006800008806068F0B94946286800F0DAFE8046C4
:100690005146286800F0D5FE58EA0001F3D058BB57
:1006A000A7750FE04FF48E7A514600F0BEFE286821
:1006B000C0F808802146286801F00AFA61684FF402
:1006C000807089B13046B1E75146286800F0A8FE35
:1006D00010B9A08A4845F7D1A08A484505D02146DF
:1006E000286801F0F5F900E08146A08AA17D8842E2
:1006F000EAD3A08A484501D10F26D1E751462868A0
:1007000000F08EFE0028F9D02868C0F80C80C7E7FA
:10071000B82300200079044901EB4010807D0028B7
:1007200000D0012070470000B823002070B50446B7
:1007300000791149002601EB401520682A7FC0F896
:100740000065686888B1207901EB4010007F0028BF
:10075000206801D0094901E008498C39C0F8081324
:100760002068FFF71CFFFFF7F3FE204600F06AFF4A
:10077000EE766E6070BD0000B8230020100302000A
:100780000D4910B54FF4705008600C4900204870B6
:1007900000F082FF24210A48FEF767FE084809217D
:1007A0000A38FEF762FE1420FEF7DEFE054903203C
:1007B000C1F80002002010BD08F50140842100208E
:1007C000FE2B00200010004003460A4602A1012033
:1007D00000F0D6FDFEF7FAFE4150503A4552524F16
:1007E000523A417070206661696C656420617420C2
:1007F0006C696E6520256420776974682065727263
:100800006F7220636F64653A203078253038780D38
:100810000A0000002DE9F04707460078DFF8D8818C
:10082000764C4FF0020A20B101283ED002286DD14B
:1008300045E0607898B3A07888BB98F80500617BA4
:100840004546884210D1A879A17B88420CD120214D
:10085000681DFEF70AFE6948183001786971407812
:10086000A87185F824A01AE0644902221831681D95
:10087000FFF7C2FB98B12021681DFEF7F6FDE06A84
:1008800045F8050F94F8300028710520E877607B63
:10089000E073A07B2074FFF773FFFFF7DDFBE07AC6
:1008A000002833D000F08CFF30E0E27A54A104201D
:1008B00000F038FD00F02CF900F07AFAEFE74E482E
:1008C000253000F0CDF908BB4B4D25352878E8B12F
:1008D00053A1042000F000FD207868B195F8246051
:1008E0006378324657A1032000F04AFD4FF001091A
:1008F000022E16D0052E5ED03F482022691DAE3054
:10090000FEF79AFD2021681DFEF7AFFD57494FF411
:100910007040086038790007000C091F0860BDE8C6
:10092000F087364E6A79163651A13270AB79737002
:10093000032000F025FD607848B10222B11C681D3B
:10094000FFF75AFB0028E1D084F80290DEE7FFF7BA
:10095000BFFC28B1D4E9090148432062FFF736FC07
:10096000206AFFF733FC3178206AFFF747FC206AE2
:10097000001D20627178FFF741FC206A001D206293
:10098000FFF7A6FC80B145462021681DFEF76DFDEE
:1009900085F824A0607B6871A07BA8712A7843A1A8
:1009A000032000F0BFFCB1E7D4E90901484320620D
:1009B000FFF70CFCAAE747A1032000F08DFC0026FE
:1009C000A8194DA14279032000F0ACFC761C052E3D
:1009D000F6DB4CA1032000F07FFC084905223231F0
:1009E000681DFFF709FB002890D03AA1032000F012
:1009F00073FC84F8019089E7C4210020382100208D
:100A00004150503A44454255473A45534220545884
:100A1000204641494C4544204556454E540D0A0058
:100A20004150503A44454255473A52582052454366
:100A30004549564544205041594C4F4144200D0AE8
:100A4000000000004150503A494E464F3A6C656EE6
:100A50006774683A2025642C206573625F70616951
:100A6000726564203D2025640D0A00000C050050CD
:100A70004150503A494E464F3A7374617274207433
:100A80006F207772697465206E6577206368616E88
:100A90006E656C203A20256420616E642070697058
:100AA00065203A202564200D0A0000004150503A8C
:100AB000494E464F3A4553422061636B207061793D
:100AC0006C6F6164206C656E677468203A25640DF4
:100AD0000A0000004150503A494E464F3A72656351
:100AE00065697665206170706C792066726F6D2023
:100AF0006E524632340D0A004150503A494E464F2C
:100B00003A2564004150503A494E464F3A0D0A008A
:100B1000094810B5007860B10120FEF725FD0748AF
:100B200000218162016241620120FEF728FD002060
:100B300010BD082010BD000084210020302A0020B4
:100B400070B5050076D03C4C207818B1FFF718FE40
:100B500000286DD16868A061182229463748FEF741
:100B60006BFC0025656024213548FEF77EFC344887
:100B700009210A38FEF779FC01F01AF900F08CFD22
:100B80002E490020183101F5947200BF00EB80035C
:100B900003EB40130B4442F82030401C0828F5DBDF
:100BA0002849002001F5947200EB800303EB401309
:100BB0000B4442F82030401C0828F5DB2249042071
:100BC0000860214808380560204840F20221C0F83A
:100BD0000012204A1E491160111D08601C48001DAA
:100BE000091D08601948001D091D0860091D1A48E3
:100BF00008601748F038091D08601748001D091DD6
:100C00000860091D154808600C4E707C00F0030157
:100C10000120FEF7CAFCB07C00F003011420FEF7AF
:100C2000C4FC1420FEF7ABFC65700120207000208E
:100C300070BDFFE70E20FBE784210020F028002094
:100C4000FE2B00205C2A002010A5004000A00040E0
:100C50000011004060F5014040A10040001000403C
:100C600070B505461A48007860B36DB3194CA06A98
:100C700060B30120FEF778FC606A54F820100A780F
:100C80002A7054F820104978697054F82010897837
:100C9000A97054F820100979297154F82010681DA2
:100CA000491DFEF7C9FB606A401C6062082801D339
:100CB00000206062A06A401EA0620120FEF75FFC77
:100CC000002070BD082070BD0E2070BD052070BDD5
:100CD00084210020842B0020074910B54A780AB1EE
:100CE000112010BD30B100688862012001F038F891
:100CF000002010BD0E2010BD84210020074910B532
:100D00004A780AB1112010BD30B10068C8620220D3
:100D100001F026F8002010BD0E2010BD8421002017
:100D200010B50C460F49497809B1112010BD18B112
:100D3000092C03D3072010BD0E2010BD0146094821
:100D400022463030FEF778FB0648C4F1080228300E
:100D5000FF210474D1408174042001F001F80020C7
:100D600010BD0000842100200649497809B11120F6
:100D700070477D2801D90720704702492831C8747F
:100D80000020704784210020074910B5497809B137
:100D9000112010BD05498A7A824202D0887201F082
:100DA0004DF8002010BD000084210020F028002014
:100DB000074810B5407808B1112010BD0548806A79
:100DC00018B100F0B1FD002010BD4FF4807010BDCF
:100DD00084210020302A00202DE9F041284F0646CA
:100DE000387840B156B1307868B120280BD8254DFD
:100DF000297829B109E00820BDE8F0810E20FBE741
:100E0000E97C884201D90920F6E71F4CA06A08282E
:100E100001D30420F0E7687818B9F07808B1287D8C
:100E200018B30120FEF7A0FB206A2522314654F8B2
:100E30002000FEF701FB72781448815C491C01F028
:100E400003018154206A54F82020401C08281171A5
:100E5000206201D300202062A06A401CA062012011
:100E6000FEF78DFB687810B107E00620C4E7287C08
:100E700018B9787808B900F057FD0020BCE70000E9
:100E800084210020F0280020302A0020F42B0020AC
:100E900030B541EA4201DDE9034541EA83018000C2
:100EA00041EA042100F1A04041EA0541C0F80017E1
:100EB00030BD1CB5002100910B4601220191FFF7C6
:100EC000E7FF1CBD1CB500220B46009211460192A3
:100ED000FFF7DEFF1CBD0321800000F1A040C0F839
:100EE000001770471CB5002100910B4601220191AB
:100EF0001146FFF7CDFF1CBD00487047710F02007F
:100F000030B5184C054689B0207828B16078854204
:100F100002D1002009B030BD202213496846FEF7F7
:100F20008BFA00208DF81400062000900820019014
:100F300005200390072002904FF0EB7006900948BF
:100F4000001DFFF7F3FB0DB1002200E0074A054842
:100F50006946001DFFF726FB0028DBD10120207029
:100F60006570D6E774210020C01E0200411B0200FC
:100F70002DE9F04FC1B00D00DDF82CB14D984FF0C8
:100F800000011C4690460BEB000A409101D00A2656
:100F900000E0002600F0F8FB002873D16F46BCB9D2
:100FA000409840AA3918284600F07AFD002869D0F8
:100FB0004046FEF765FAC22800D9C220054640988F
:100FC0002A4638444146FEF737FA40982844409074
:100FD0004FF020094098821931320DEB020168442C
:100FE000002202E000F8019B521CB242FAD3002713
:100FF000544508D300F8019B00F8019B00F8019BC1
:1010000001F8019B26E05C4502D24A9A125D03E09A
:101010004C9AA4EB0B03D25C84460125AB0022FA68
:1010200003F808F00F03092B01D9373300E0303300
:10103000C5F101086D1E0CF80830EFD20CF102006A
:10104000A2F1200300F8019B5E2B00D92E2201F8AB
:10105000012B641C7F1C102FCAD30D220A700A2298
:101060004A7080F800904098811943316846409159
:1010700000F090FB30B100F087FB18B900204090E1
:101080005445A7D341B02046BDE8F08F2DE9F04389
:10109000C5B000251C46904689464C9F449500F0FB
:1010A00073FBB0BB449804AE311844AA484600F024
:1010B000F7FC00282ED0072F22D2DFE807F0041219
:1010C000192E384451004046FEF7DAF90546449897
:1010D0002918FF2914D830442A464146FEF7ACF9B6
:1010E0000EE04498226830444146FEF737FC06E0A3
:1010F000D4E90023449841463044FEF72FFC0546CE
:10110000294644A8FEF720FF18B14499B1F5807F25
:1011100033D9002045B0BDE8F083A0680090D4E941
:101120000023449841463044FEF718FCE7E7D4E931
:101130000201CDE90001D4E900234498414630443E
:10114000FEF70CFCDBE704F1080007C88DE8070098
:10115000D4E90023449841463044FEF7FFFBCEE734
:1011600004F108000FC88DE80F00D4E9002344986B
:1011700041463044FEF7F2FBC1E704A800F00AFB49
:10118000C8E70000004870478D1002000120FFF7FB
:10119000B7BE00002DE9F04F87B0FEF70FFF18B182
:1011A000002007B0BDE8F08F454ED6E9014704EABC
:1011B000070006EB8000A146641CC5680CE000BF78
:1011C000C5F3891000EB9550044404EA070006EBD0
:1011D0008000A146C568641CA807F1D005F0030093
:1011E0004FF0000B022805D0AA0A01A8C5F383130B
:1011F000002153E004EA070006EB800004F1010A35
:101200000AEA0704C268381B80004FEA9558001D9F
:10121000C5F38913804521D929490C3138B106EB32
:10122000840400F0FF0CA8EB00000C3404E00C4632
:10123000002108F0FF0C0846C0B2CDE90210CDE94C
:10124000004CD6F81444C5F3C2005946A0474045A7
:1012500011D108F103080AEB98042AE0002106EBFB
:1012600084000C300090CDE901810391C5F3C200E8
:10127000D6F81444EAE760F38F1509EA070006EB95
:101280008000C56016E000BF04EA070C06EB8C0C7A
:10129000491CDCF80CC040F804CB641C9942F3D321
:1012A000C5F3C2000093D6F8105401AB5946A847C5
:1012B00000B17460FEF782FE80F0010071E700006B
:1012C000D8240020034AFF23936000231360536057
:1012D00000F08CB8D82400202DE9F047DFF83C80DE
:1012E0000446002689463046D8F80870D8F80050E1
:1012F000FEF734FE00280ED0094800213D4040682A
:1013000061F3820064F3C50066F3891008EB850180
:1013100069F39F20C860BDE8F0870000D824002052
:10132000E01E02002DE9F047DFF84C80054601275A
:10133000924689463846D8F80860D8F80040FEF74B
:101340000DFE002815D00D48002104EA0602806831
:10135000641C61F3820065F3C50067F3891008EB34
:101360008202344069F39F2008EB8401D060C1F809
:101370000CA0BDE8F0870000D8240020E01E020089
:101380002DE9F05FDFF85C80064602279B46924617
:1013900089463846D8F80850D8F80040FEF7DEFDF8
:1013A00000281CD01048002104EA0502C06808EBA0
:1013B000820261F3820066F3C50067F3891069F366
:1013C0009F20641CD06004EA0502641C08EB8202C2
:1013D0002C4008EB8401C2F80CA0C1F80CB0BDE8A9
:1013E000F09F0000D8240020E01E0200024A02F50F
:1013F000826203C270470000D824002070B5064600
:101400000020FFF77DFD040008D1FFF775FD0546BC
:10141000FFF7B8FE32462946FFF754FF204670BD5D
:101420004058002800D00120704708B500224250E3
:101430004058009008BDD0F80403084000D00120B7
:1014400070474058002800D00120704708B500229E
:1014500042504058009008BD70B5164A40F2131033
:10146000C2F80002144C606A14490860144B091D4C
:101470009889823808601348012140F80C1F002128
:10148000C0F83411C0F838110F4D4FF4E050286007
:1014900050142D1D2860C2F80C11187810B921695C
:1014A000002088470A49094808600A48A0600320CC
:1014B000607070BD001000408421002040A50040F5
:1014C000F028002000A0004004F50140D22B0020AD
:1014D000041500401515020010B50C4C606840F072
:1014E0000100606000F012FB0948806A30B11420EE
:1014F000FEF750F8BDE8104000F016BA002060700A
:10150000BDE810401420FEF745B8000084210020FB
:10151000302A00202DE9F04740494FF4E0500860A0
:101520003F4AD2F80C31DFF8FC9000273E4CB9F866
:101530000E004E14DFF8F4800125DBB33C4B1B6832
:10154000C3B365600E60D8F8041041F00101C8F81B
:101550000410D8F81C10401A401CC8F8200000F0F5
:10156000D5FA99F8000080B109F2E220007860B164
:10157000304800680021C0B200F0C2F828B1D8F8A5
:10158000040040F00400C8F804002B48806A50B101
:1015900099F81000012806D01420FDF7FBFFBDE8E4
:1015A000F04700F0C1B988F80170BDE8F047142099
:1015B000FDF7F0BFD8F81CC0BCF1010CC8F81CC086
:1015C0000BD265600E60401CC8F82000D8F80400FB
:1015D00040F00200C8F80400E5E740F21B1117468E
:1015E000C2F80012D8F81400D8F810100078884714
:1015F00010491248283908601148C8F8080002202C
:1016000088F8010025600548001F0660D4F84401F1
:10161000002800D03D60BDE8F087000008F50140DB
:1016200000100040F028002000A00040842100208D
:10163000001400402C150040302A0020B02B002060
:101640005914020070B502464FF0FF301168D1F80E
:101650000C35D1F81465D1F80855D1F81045C1F80A
:101660000C05C1F814051168C1F80805C1F810058A
:101670001846FFF71EFC3046FFF71BFC601C02D02B
:101680002046FFF716FC681C04D02846BDE87040D1
:10169000FFF70FBC70BD00000549002008624862DA
:1016A000886201F5AA71086248628862704700008A
:1016B000302A002070B50546C87D0C4600284FF43E
:1016C000847128460AD0FFF7B0FED5F81805627E6F
:1016D000E1688854607E401C607670BDFFF7A5FE0F
:1016E000D5F8180570BD1FB501238DF800308DF8B1
:1016F00008100192D0E90012684690471FBD000013
:101700002DE9F0411E4C07460E46A06A082835D246
:10171000A4F52572204613780025006A02F2E22122
:10172000012B03D0537843B1D27C02E00A78202AFF
:1017300024D854F820301A7002E054F82020157094
:1017400054F82000891C10F8052BFDF775FE206A5F
:1017500054F820104F700B49096854F820209170FC
:1017600054F82010401C08280E71206200D3256216
:10177000A06A401CA0620120BDE8F0810020FBE7C8
:10178000842B0020481500400148FEF7C3BF00002D
:101790007821002070B50D460A460146012406480E
:1017A000FDF74AFEEAB204490448FEF72FFF00B1F4
:1017B0000024204670BD0000D8230020782100209E
:1017C00070B5104C104DE07901280CD000F01EF8D7
:1017D0000020E8700C48FFF7FFFA207AE179884290
:1017E0000DD2401C0CE00849A2794A31681DFDF772
:1017F00023FE054864214A30FDF737FEE8E7012063
:10180000207270BD38210020C42100202DE9F04154
:1018100088B020216846FDF728FE334CA6798DF864
:101820000060257A8DF80150207B8DF80200012D93
:101830001AD0C5EB051040001F38C1B2E078DFF8C0
:10184000AC806F46F8B120213846FDF70EFE681EC9
:10185000C0EB00104006010E8DF8006000208DF8EE
:1018600001504246731A0BE00020E6E70E1807EB22
:10187000000C401C965DC0B28CF802601E2812D28B
:101880008342F3DC0FE000204246731A09E00E1891
:1018900007EB000C401C965DC0B28CF803601D285D
:1018A00001D28342F3DCE079854203D012E0642068
:1018B000FEF708FE607A0028F9D10120A072608A44
:1018C000A179401A0104090C61824FF00000A07256
:1018D00000D1E072054820226946B738FDF7ACFD1B
:1018E00008B0BDE8F08100003821002080220020EF
:1018F000F0B50B498A794B8AC2F5807098420DD3B6
:10190000084C0020A4F5807503E0275C1E18401CDD
:10191000AF5516469042F8DB98194882F0BD00009A
:1019200038210020802300202DE9F05F3D4C4FF04E
:101930000109C4F820903C48DFF8F0B0A0F5A0768B
:10194000416A3B4D4FF0110A50F821106161307827
:1019500006F5307810B1012841D110E008782169EE
:101960008847616908F102000A7988F8002000229E
:1019700088F8012011F8052BFDF75EFD15E0C87809
:1019800000B3307DF0B100270A7888F800200A798A
:1019900087F0010343EA420288F8012011F8052B81
:1019A00008F10200FDF748FD77B140F21B10C5F8C1
:1019B0000002C5F804A3F089E0610220C4F808B071
:1019C00060700CE00127DFE740F21310C5F8000259
:1019D0001020C5F804031748A06084F801906069DE
:1019E000154A4178116040784C4609FA00F0111D03
:1019F00008600C48104928302439C07C0860091F51
:101A0000C1F800800120FDF7A4FD0120FDF7B7FD1E
:101A10000020C5F80401C5F80801C5F810012C60C4
:101A2000BDE8F09F84210020302A002059140200D4
:101A300000100040D91402002C15004070B5164863
:101A40000025017880F837100121425C521C425475
:101A500090F83730491C5340C9B280F837303729E5
:101A6000F3D30E4CE078012638B1607928B9207B99
:101A70002071FEF7F1FA00B966716672FFF738FF60
:101A80006572E07A002805D12672E672BDE87040E2
:101A9000FFF796BE70BD0000802300203821002093
:101AA00010B5144602004FF001000AD00846126833
:101AB00005A1FDF753FF01462046BDE81040FEF7A3
:101AC00043BA0021216010BD5B253038645D000001
:101AD00070B50C4605464FF48E71FFF7A6FCA18A3F
:101AE000A068415CA08A401CA082C5F81C1570BD8E
:101AF0001FB500228DF800208DF808108168019133
:101B00008275D0E90012684690471FBD10B50B4C96
:101B1000A06A002811D00120FDF726FDA06A401E12
:101B2000A062606A401C6062082801D300206062E5
:101B3000BDE810400120FDF722BD10BD302A002075
:101B40000078012801D10149887070477421002074
:101B50002DE9FF470C4605464FF40071FFF76BFC7B
:101B600001274FF40178002618B34FF492794946C3
:101B70002846FFF755FCE0B149462846FFF755FCDB
:101B8000C5F80883A07E00B96F6002208DF80000C0
:101B9000D5F88004C5F880040390E07D8DF8080036
:101BA000E0680190E6752676D4E900126846904711
:101BB00027E004212846FFF73EFC10B34FF4847160
:101BC0002846FFF72DFCE0B121462846FFF772FDBD
:101BD000E07D617E884214D1207E38B1617EE2686A
:101BE000E0752069E0602676667607E0A07E00B9A1
:101BF0006F60C5F80883E675617EE2682046FFF7EE
:101C000072FD4FF48E7841462846FFF709FC88B1F3
:101C1000A08AA17D884204D221462846FFF758FFBA
:101C200008E041462846FFF700FCA17D11B120469F
:101C3000FFF75EFF4FF4A27841462846FFF7F0FB1E
:101C4000002812D041462846FFF7EFFBA07E00B1E6
:101C50002F60E07D002808D0E675617EE26804B060
:101C60002046BDE8F047FFF73EBDBDE8FF872DE900
:101C7000FF410C464FF4927705463946FFF7E1FBEA
:101C80000026C0B139462846FFF7E0FB02208DF858
:101C90000000D5F88004C5F880040390D5F83C0511
:101CA0008DF80800E0680190E6752676D4E9001208
:101CB0006846904724E04FF4887739462846FFF776
:101CC000C0FBE8B139462846FFF7C0FBD5F83C0514
:101CD000C1B2E07D884213D1207E60B1E268D5F8C0
:101CE000000220F02000C5F80002207EE075206987
:101CF000E060267601E0E675E2682046FFF7F3FC37
:101D00004FF4A27739462846FFF79BFB68B1394666
:101D10002846FFF79BFBE07D38B1E675D5F83C051A
:101D2000E268C1B22046FFF7DEFC4FF49076314600
:101D30002846FFF786FB00280FD031462846FFF7DC
:101D400085FBA07D002808D0D5F84C0504B0C1B2B1
:101D50002046BDE8F041FFF7CBBEBDE8FF810000A3
:101D600010B50446C00704D00F48FEF751F80F49DC
:101D70000860A00706D50C48001DFEF749F80B497E
:101D8000091D086060070DD507480830FEF720F9E7
:101D900006490831086004480C30FEF719F9034978
:101DA0000C31086010BD0000AC2100201C15004063
:101DB00010B500F043F81B481B49027A0A601B4922
:101DC00040235AB1012A04D0022A04D0032A06D1A2
:101DD00004E0302200E0FA224A6200E04B6202781E
:101DE0001AB1012A03D1124A00E0124A0A610E4BCD
:101DF000427A24331A600C4B2C331C1F022A02D067
:101E0000012A05D009E04FF6FF721A600A4A03E082
:101E1000FF221A6040F207122260C07C0969BDE807
:101E200010400847F02800201015004084210020B1
:101E30007D1E0200511E02002110010002480349CC
:101E4000807A086070470000F02800200C150040E0
:101E5000084A074911600849497C491E090441EABA
:101E60000021014341F08070111D0860704700009F
:101E70000001010014150040AC210020074906486C
:101E8000086007480749407C401E41EA004003497A
:101E9000091D08607047000006000300141500408B
:101EA000AC21002020000001010000000000000023
:101EB00001020000FA0003000001022000000000FF
:101EC000FFFFFFFFFFFFFFFFFFFFFFFFFFFFFFFF22
:101ED00000000000000000000000D6010601000024
:101EE00029000000010000000100000001000000C6
:101EF00001000000010000000100000001000000DE
:101F0000020000004F766572666C6F770D0A000064
:101F1000301F0200382100208C00000084F90100ED
:101F2000BC1F0200C4210020642A000094F90100B3
:101F300000000001000000000000000000000000A0
:101F400000000000000000004F4B000000000000F7
:101F50000000000000000000000000005245414465
:101F600059004150504C5900000000000000000092
:101F70000020004000000000041F020000000000DC
:101F80000000000000000000000000000000000051
:101F90000000000000000000000000000000000041
:101FA00000000000E7E7E7E7C2C2C2C2E7C2C3C45D
:0C1FB000C5C6C7C80805FF020090D0039A
:040000050001F40101
:00000001FF
