:100000000208BF0205080B0E0004FFFFFFFFFFFF01
:100010000001003FFFFFFFFFFFFFFFFFFFFF003F6B
:0A00200000030001FFFFFFFF222292
:10002B000229E0000406080A32536601172D391A1B
:10003B00440C400D490D3E1A2D0C4D7F60021706E6
:10004B00023000120E50122B1DEF6003122FEB2209
:10005B00023E337F080214FE023AD20203AEE8647A
:10006B0080F8E933E83360110460F0ED33EC337062
:10007B0009E8FCE9FDEAFEEBFF220460DED3EB9F0F
:10008B00EA9EE99DE8C2E78CF0C2F795F0400CE8D8
:10009B00CCF8E9CDF9EACEFAEBCFFB12037985D098
:1000AB00F05804700320D5B3E80470075002B2D5A2
:1000BB000203B892D5EC0460F7E4CCC0E0C398F827
:1000CB00603B94186008400DD0E0FB020390E4FB0A
:1000DB00FAC9FC8028E830E406E4C9FBE4CAFCE872
:1000EB0030E305E4C9CACBFCE854076010F8C3E958
:1000FB0013F9EA13FAEB13FBEC13FCD8F130F52FE1
:10010B00C3E49CFCEF9BFFEE9AFEED99FDD0E0FB68
:10011B00EF4E4D4C701222DB030203B5EC2CFCEFBF
:10012B0033FFEE33FEED33FDED30E7EB020390EFE3
:10013B002BFFEE3AFEED39FDD0E0FB50130BBB006D
:10014B00030203B8ED13FDEE13FEEF13FFEC13FCEC
:10015B00020390EC4D6011E8497017ED33EC33045A
:10016B00600DE4FCFFFEFD22E933E8330470F80276
:10017B0003AE12037958046009E4CC24815006289D
:10018B0050090203B82840030203B5C0E0EB4A70E4
:10019B0044B98006D0E0FB0203A4EF4E701CBD8077
:1001AB0008EBFFEAFEE9FD80EBE98DF0A4FEE5F03C
:1001BB00020247E9CDF9EAFEEBFFEF89F0A4FCE57B
:1001CB00F0CE89F0A42EFFE435F0CD89F0A42DFEFE
:1001DB00E435F08067EF4E7005BD80D780C3EF8BA1
:1001EB00F0A4ACF0EE8BF0A42CFCE435F0F8EF8A25
:1001FB00F0A42CE5F038FCE433CB8DF0A42CFCE51B
:10020B00F03BF8EE8AF0A42CFCE5F038F8E433CFA1
:10021B0089F0A42CFCE5F038CF3400CE89F0A42F64
:10022B00FFE5F03EFEE433C98DF0A42EFEE5F03978
:10023B00CD8AF0A42FFFE5F03EFEE43DFD33D0E088
:10024B00FB50070BBB000F0203B8EC2CFCEF33FF8A
:10025B00EE33FEED33FD0203900203B8EC5D046058
:10026B0005E8590470030203AE120379580460F6D3
:10027B00EC4860F2EC7004FDFEFF22C860DB2481C9
:10028B00C85009C398600250060203B59850CAF5CE
:10029B0082E9294B4A7005AB820203A475F0007CFE
:1002AB001A7880C3EF9BEE9AED99400DC3EF9BFF3D
:1002BB00EE9AFEED99FDE842F0DC23ACF0D0E0FFC6
:1002CB00D0E0FED0E0FDAB8220E7101BEB60BAEC78
:1002DB002CFCEF33FFEE33FEED33FD020390E8030E
:1002EB00F830E705C0F075F000EF2FFFEE33FEEDB1
:1002FB0033FD40B830E7C280AA75F020800E75F050
:10030B0010800575F0087D007E007F003392D5309C
:10031B00D503120503EC334010EF33FFEE33FEED44
:10032B0033FDEC33FCD5F0ED22E5F0247EA2D513A2
:10033B00CC92E7CDCEFF22EDD2E7CD33EC3392D585
:10034B0024814006E4FFFEFDFC22FCE4CFCECDCCA5
:10035B0024E0501174FF80EDC3CC13CCCD13CDCE64
:10036B0013CECF13CF0470F030D5DE020503E9D2E4
:10037B00E7C933E833F892D5EDD2E7CD33EC33FC54
:10038B005002B2D522EC30E7100FBF000C0EBE00AE
:10039B00080DBD00040BEB6014A2D5EB13FCED9222
:1003AB00E7FD2274FFFCFDFEFF22E480F8A2D5746A
:1003BB00FF13FC7D80E480EFBB010689828A83E01A
:1003CB00225002E722BBFE02E32289828A83E49356
:1003DB0022BB010CE58229F582E5833AF583E02205
:1003EB005006E92582F8E622BBFE06E92582F8E2F3
:1003FB0022E58229F582E5833AF583E49322BB015A
:10040B000FF8E58229F582E5833AF583E028F0229F
:10041B005009C58229F8E58226F622BBFE09C58262
:10042B0029F8E22582F222F8EA2583F583E993285D
:10043B0022BB010689828A83F0225002F722BBFE7F
:10044B0001F322F8BB010DE58229F582E5833AF52C
:10045B0083E8F0225006E92582C8F622BBFE05E9A7
:10046B002582C8F222EF8DF0A4A8F0CF8CF0A4283F
:10047B00CE8DF0A42EFE22BC000BBE0029EF8DF01A
:10048B0084FFADF022E4CCF875F008EF2FFFEE33CC
:10049B00FEEC33FCEE9DEC984005FCEE9DFE0FD57B
:1004AB00F0E9E4CEFD22EDF8F5F0EE8420D21CFE4F
:1004BB00ADF075F008EF2FFFED33FD4007985006B8
:1004CB00D5F0F222C398FD0FD5F0EA22C5F0F8A3C0
:1004DB00E028F0C5F0F8E582158270021583E0384C
:1004EB00F022A3F8E0C5F025F0F0E582158270024A
:1004FB001583E0C838F0E822C3E49FFFE49EFEE4D6
:10050B009DFDE49CFC22BB011A89828A83D0F0D02A
:10051B00E0F8D0E0F9D0E0FAD0E0FBE8C0E0C0F0C2
:10052B000208985016E9F8D083D082D0E0F9D0E0D9
:10053B00FAD0E0FBC082C083020886BBFE16E9F846
:10054B00D083D082D0E0F9D0E0FAD0E0FBC082C0FB
:10055B00830208AA22BB010DE58229F582E5833AC5
:10056B00F58302088F5007E92582F802087DBBFE50
:10057B0007E92582F80208A1E58229F582E5833A8D
:10058B00F5830208B3D083D082F8E4937012740120
:10059B0093700DA3A393F8740193F5828883E4738E
:1005AB007402936860EFA3A3A380DF8A838982E43C
:1005BB0073E5092582F582E5083583F583B50804D3
:1005CB008582092210AF06858209F50822858209EA
:1005DB00F508D2AF22E5092582F582E5083583F5CA
:1005EB008322EF4E6012EF60010EEDBB010B89828F
:1005FB008A83F0A3DFFCDEFA2289F05007F709DFCC
:10060B00FCA9F022BBFEFCF309DFFCA9F022E3F509
:10061B00F009E208B5F06BDFF58067E3F5F009E66A
:10062B0008B5F05EDFF5805A87F009E608B5F052A1
:10063B00DFF6804E87F009E208B5F046DFF6804220
:10064B0088828C8387F009E0A3B5F036DFF6803221
:10065B0088828C8387F009E493A3B5F025DFF580BE
:10066B002188828C83E3F5F009E0A3B5F014DFF564
:10067B00801088828C83E3F5F009E493A3B5F00234
:10068B00DFF4020734808780E9809080D480348047
:10069B001580648074809D80B7808D80A380478097
:1006AB006A803202074088848C8589828A83E4932E
:1006BB00F5F0A30592E493A31592B5F06CDFEFDE92
:1006CB00ED806689828A83E493F5F0A3E208B5F0A6
:1006DB0058DFF4805489828A83E0F5F0A3E608B5ED
:1006EB00F047DFF5804389828A83E0F5F0A3E208C7
:1006FB00B5F036DFF5803289828A83E493F5F0A377
:10070B00E608B5F024DFF480208002804388848CD7
:10071B008589828A83E493F5F0A30592E0A3159271
:10072B00B5F006DFF0DEEE80007FFFB5F0020F22A2
:10073B0040027F012288848C8589828A83E0F5F0D0
:10074B00A30592E0A31592B5F0DFDFF1DEEF80D9C0
:10075B0088848C8589828A83E0F5F0A30592E493E3
:10076B00A31592B5F0C3DFF0DEEE80BD88F0EF602D
:10077B00010E4E60BFED2402B4040050ACF582EBC9
:10078B002402B4040050A2232345822390069073C5
:10079B00E709F608DFFA8046E709F208DFFA803E40
:1007AB0088828C83E709F0A3DFFA8032E309F6082D
:1007BB00DFFA806EE309F208DFFA806688828C83A9
:1007CB00E309F0A3DFFA805A89828A83E0A3F60853
:1007DB00DFFA804E89828A83E0A3F208DFFA804237
:1007EB0080D280FA80C680D4805580F28029801018
:1007FB0080A680EA809A80A880DA80E280CA80296D
:10080B0088848C8589828A83E493A30592F0A3154F
:10081B0092DFF5DEF3800B89828A83E493A3F608DB
:10082B00DFF9ECFAA9F0EDFB2288848C8589828AAA
:10083B0083E0A30592F0A31592DFF6DEF480E38943
:10084B00828A83E493A3F208DFF980D688F0EF6005
:10085B00010E4E60CD88F0ED2402B4040050C3F5B8
:10086B0082EB2402B4040050B92323458223900762
:10087B00EB73E6FB08E6FA08E6F922EBF608EAF674
:10088B0008E9F622E0FBA3E0FAA3E0F922EBF0A3E0
:10089B00EAF0A3E9F022E2FB08E2FA08E2F922EB24
:1008AB00F208EAF208E9F222E493FB740193FA747A
:1008BB000293F922787FE4F6D8FD750A0075088853
:1008CB00750900750B00758121020912020BF2E408
:1008DB0093A3F8E493A34003F68001F208DFF480BE
:1008EB0029E493A3F85407240CC8C333C4540F440E
:1008FB0020C8834004F456800146F6DFE4800B01E8
:10090B0002040810204080900957E47E019360BCDC
:10091B00A3FF543F30E509541FFEE493A360010E7F
:10092B00CF54C025E060A840B8E493A3FAE493A3A6
:10093B00F8E493A3C8C582C8CAC583CAF0A3C8C5C7
:10094B0082C8CAC583CADFE9DEE780BE41812500C4
:10095B004180030041800200418177004181080002
:10096B004180010041817A00418107004181061ECF
:10097B0041800402418178004180001E4181790051
:10098B0041804500418109005081F004192A3F4DF7
:10099B00000000000000000000000045822A010456
:1009AB00070A0D4181EBFF41823200418235004243
:1009BB008236000042820000004282D20000001208
:1009CB000100020000002015197B0000010102004C
:1009DB00010600FF0900A101150025FF75089540D0
:1009EB000900810209009102C0FF0A0DFF09DC1802
:1009FB0009022900010100803209040000020300F2
:100A0B000000092110010001221800070581034095
:100A1B000001070502032000012A034E006F00723C
:100A2B00006400690063002000530065006D0069DD
:100A3B000063006F006E0064007500630074006F4C
:100A4B0000720048034E006F00720064006900637F
:100A5B00002000530065006D00690063006F006E9D
:100A6B000064007500630074006F00720020005575
:100A7B000053004200200052004600200041006459
:100A8B000061007000740065007200FF0A24FF0A09
:100A9B004E71CBEF64047056908125E06401704E6B
:100AAB00908003E060217B017A8079C67D4051FA0A
:100ABB00E4908003F0FE7F40FD7B017A8079C612C3
:100ACB0005EDE4908125F0908002E060217B017AB6
:100ADB008079057D4051FAE4908002F0FE7F40FD65
:100AEB007B017A8079051205EDE4908125F0229047
:100AFB00817BEBF0A3EAF0A3E9F0A3EDF071DC90BE
:100B0B0081097401F090817EE0FF7E0078467C8045
:100B1B007D0190817BE0FBA3E0FAA3E0F911577B09
:100B2B00017A8079469081837440F07F01908180B7
:100B3B00EBF0A3EAF0A3E9F090817FEFF0547F751F
:100B4B00F080A4FFC374009FF974C795F0AF0190B8
:100B5B008185F0A3EFF090817FE0547F75F002A4C4
:100B6B0024B5F974C735F0AF01908187F0A3EFF08E
:100B7B00E4908184F0908183E0FFA3E0FEC39F505B
:100B8B002C908180E0FBA3E0FAA3E0F98E827583C1
:100B9B00001203DCFF908185E0FCA3E02EF582E4DC
:100BAB003CF583EFF0908184E004F080C890818362
:100BBB00E0FF908187E0FCA3E0F5828C83EFF022CD
:100BCB00D310AF01C3C0D090826CE0FFD0D092AFF6
:100BDB00227F507EC3EF1FAC0670011E4C60079046
:100BEB008109E070F022221218CA908045E0601D46
:100BFB007B017A8079861218007E007F407D007B16
:100C0B00017A8079861205EDE4908045F09081772A
:100C1B00E0C39402500312004E519C9133EFC394E6
:100C2B000240C712107E80C2F18830041F908231BF
:100C3B00E0FFD39400400E74032FF582E43482F569
:100C4B0083E0FE80091217C2AE0780027EFF915E21
:100C5B00AF0622D2B9D2ADC20BA20C929222D12CEA
:100C6B00AC06EF4401FD7F05AE07F188EEC394108F
:100C7B00504AEE25E0240AF582E43482F583ECF049
:100C8B00A3EDF0EE24FB603224FD602524FC6025EF
:100C9B00146012240D7025ED4C6006ED64014C7050
:100CAB001BC2038017ED64014C7011FF1229C28027
:100CBB000BD20A80071231898002D2028095908173
:100CCB0097EBF0A3EAF0A3E9F0E4908295F0F160E2
:100CDB007F05D12C90819AEFF07F04D12C90819BD2
:100CEB00EFF0F1F2EF7002A1A7E4FDFC7F05917329
:100CFB00E4FDFC7F0491737D967C007F069173F17C
:100D0B009BB1BCF15AEF70FB90819C7408F07B0196
:100D1B007A81799D7D041225AB7B017A81799CE4E4
:100D2B009081ADF07D05F1A97D5E7C017F0691730D
:100D3B007D017C007F059173B1BCF15AEF603C9053
:100D4B0081A4E4F0A3F0A3F0F9A3C9F0A3F0A3E905
:100D5B00F0908197E0FBA3E0FAA3E0F9121434EFD3
:100D6B0060D8908197E0FBA3E0FAA3E0F91203C3EC
:100D7B00B401C79082957401F080BFF1EBF19BE455
:100D8B00FDFC7F06917390819AE0FD7C007F0591BD
:100D9B007390819BE0FD7C007F04801390819AE02F
:100DAB0054FEFD7C007F0591737DF47C017F0691E1
:100DBB0073F160300251F188C202D201121AED7F39
:100DCB00FF12171EE49081A9F09081A9E0FFC39454
:100DDB0006502F74017E00A807088005C333CE335D
:100DEB00CED8F9FF908214E05EFEA3E05F4E600A5E
:100DFB009081A9E0FF7D011230E49081A9E004F01D
:100E0B0080C77F0112304A7F011229C2E49081ED25
:100E1B00F0A3F09082387402F0D292D290D20C816F
:100E2B005EAE07F188EEC394105014915EEE25E090
:100E3B00240AF582E43482F583E0FEA3E0FF2291DD
:100E4B005EE4FEFF22E4908295F09133EF600A643A
:100E5B0001707A908280E070749081A47401F0A389
:100E6B007481F0A3747BF0A3E4F0A3F0A3F07B01F7
:100E7B007A81797C12143490817CE024FE601A1400
:100E8B00602214602A14602C1460342406703E7B9C
:100E9B00017A81797C91C980347B017A81797C12CA
:100EAB002AA080297B017A81797C122D26801E1243
:100EBB002DF780197B017A81797C122E97800E7B1E
:100ECB00017A81797C90817BE0FD122B28F15AEF1E
:100EDB007012FDFC7F069173908281E060047F05A8
:100EEB009169B1BCE4FF74822FF582E43482F583FF
:100EFB00E004F074822FF582E43482F583E0700510
:100F0B000FEFB405E12290817BEFF0F15A90817CD9
:100F1B00EFF090817BE0FF908281E06F6030F160B9
:100F2B0090817BE07F05600491698011D12CAC0628
:100F3B00EF54FEFD7F059173E4908294F090817BDA
:100F4B00E0908281F090817CE0B40202B1BC2290EF
:100F5B008238E0FF22908238E0B4010AD2099082F5
:100F6B0038E0601080F8908238E0B40207F1881204
:100F7B001C32915E22EBF0A3EAF0A3E9F0A2AFE4FE
:100F8B0033C2AFC2B9C2ADD20BD29224FF92AF2201
:100F9B00F1881217F4E4908231F0C204815E9081E3
:100FAB00A9EBF0A3EAF0A3E9F0A3EDF0F188E0FFE1
:100FBB00600BD3940A50061231EFEF6005915E7F00
:100FCB0000229081ADE0FF9081A9E0FBA3E0FAA3A2
:100FDB00E0F9A3E09081B2F0123259915E7F0122C9
:0D0FEB00F188121FAE815EA205E433FF22E3
:1010000090817CEFF0E4FEEF640270317F40FD7B65
:10101000017A8079C61205EDE4FE745C2EF582E457
:101020003481F583E0FF74C62EF582E43480F583C5
:10103000EFF00EEEB41BE39080037401F090817C1E
:10104000E064037032FE7F40FD7B017A80790512F7
:1010500005EDE4FE74262EF582E43481F583E0FF8D
:1010600074052EF582E43480F583EFF00EEEB41BA8
:10107000E39080027401F09081257401F022E490E5
:101080008177F07F02719DEF6041908177E004F0FD
:1010900090817B7402F09081A4E4F0A3F0A3F07B34
:1010A00001A304F0A37481F0A3747BF07A81795CCE
:1010B0009134EF601690815CE0FF64026009EF14E8
:1010C000FD7F02311280047F0211007F03719DEFCA
:1010D000603F908177E004F090817B7403F0908111
:1010E000A4E4F0A3F0A3F07B01A304F0A37481F0C7
:1010F000A3747BF07A8179269134EF601490812675
:10110000E0FF64036007EF14FD7F0380057F031198
:10111000002290817CEFF0908108E060036D600414
:10112000AF0591C890817CE0640260024124908008
:1011300001E004F090815DE0FF90817DF0908001FE
:10114000E0FEEF6E600221D9E0FF14FE908000E027
:10115000FDEE8DF0A4908178F0908107E0FEEF6EB7
:10116000601A9081817401F0A37481F0A3745CF023
:10117000908178E0908184F0A3ED410C908181749E
:1011800001F0A37481F0A3745CF0908178E0908109
:1011900084F0908179E090818571317B017A80794A
:1011A000C6908179E0245EF582E4348171ECBF0160
:1011B000147B017A8079C671BE9081257401F0900C
:1011C0008003F0805AE4908003F0FE7F40FD7B01B5
:1011D0007A8079C61205ED8046E4908003F0908114
:1011E0007DE0B4012B9080017401F0908000E0FE5E
:1011F000E48EF0A4FF908178F09081817401F0A3D7
:101200007481F0A3745CF0A3EFF0A3EE713180144D
:101210007E007F407D007B017A8079C61205EDE477
:10122000908001F090817CE06403600261309081E5
:101230007AE004F0908127E0FF90817DF090817A40
:10124000E0FEEF6E600241E0E0FF14FE908000E0FF
:10125000FDEE8DF0A4908178F0908107E0FEEF6EB6
:10126000601A9081817401F0A37481F0A37426F058
:10127000908178E0908184F0A3ED61139081817476
:1012800001F0A37481F0A37426F0908178E090813E
:1012900084F0908179E0908185F07B017A807905F6
:1012A00071387B017A807905908179E02428F58274
:1012B000E4348171ECBF01147B017A80790571BE41
:1012C0009081257401F0908002F0805FE4908002AC
:1012D000F0FE7F40FD7B017A8079051205ED804BA1
:1012E000E4908002F090817DE0B4013090817A74C6
:1012F00001F0908000E0FEE48EF0A4FF908178F091
:101300009081817401F0A37481F0A37426F0A3EF9F
:10131000F0A3EEF07B017A807905801C7E007F408F
:101320007D007B017A8079C61205EDE490817AF028
:1013300022F07B017A8079C690817EEBF0A3EAF0FF
:10134000A3E9F0E4908186F0F0908185E0FFA3E0CE
:10135000FEC39F5047EEFF908004E02FFFE433FE72
:10136000908181E0FBA3E0FAA3E0F98F828E8312E3
:1013700003DCFF908186E0FD908184E02DFDE43365
:10138000FC90817EE0FBA3E0FAA3E0F98D828C83E0
:10139000EF12044E908186E004F080AD2290817CB3
:1013A000EFF0120C33EFD39405501090817CE0FEE7
:1013B000F46004EEB507047F0180027F0022908173
:1013C0007EEBF0A3EAF0A3E9F0908108E0FFEFC321
:1013D0009440501790817EE0FBA3E0FAA3E0F98FE0
:1013E00082758300E412044E0F80E322F583E0FD52
:1013F00090817EEBF0A3EAF0A3E9F0A3EDF0E4FF27
:10140000FE908108E0FDEEC39D501890817EE0FBC8
:10141000A3E0FAA3E0F98E827583001203DC6FFF6C
:101420000E80DE908181E0FEB50706EE60037F014D
:10143000227F00229081A1120F8020040281C2121B
:1014400000469081ABEFF0D3942050739081A1E0DF
:10145000FBA3E0FAA3E0F912005E908231E0D3949E
:10146000004010E014F0E02404F582E43482F583B7
:10147000E08001EE9081AAF0D1F9EF6002C2049001
:1014800081A7E0FBA3E0FAA3E04A4B600EA3E0FFD4
:101490009081A7A3A3E0F9EF12043C9081A4E0FBA4
:1014A000A3E0FAA3E04A4B60109081ABE0FF90818B
:1014B000A4A3A3E0F9EF12043C120C5E7F012212F8
:1014C0000F9B120C5E7F0022908108EFF090810646
:1014D000E0FEEF8EF084A3F0EF8EF084E5F0600381
:1014E000E004F0908107E014FF908000E0FEEF8EB2
:1014F000F0A4FF908108E0C39F908179F022908250
:10150000BCEBF0A3EAF0A3E9F09082BBEFF090828D
:10151000C37401F09082BCE09082C1F0EF14600CC3
:1015200024FB600824FE601824087032D1F09082F9
:10153000BFEFF0A3F0C2919082BBE0240AFF801AB3
:10154000F1C29082BBEFF0C3940750121200469094
:1015500082BFEFF0A3F0C2917F61F1D88009E490DF
:1015600082C0F09082BFF09082C1E0FF704A90820A
:10157000BCA3A3E09082C4F0E4F5E5C2C09082C3AE
:10158000E070119082C2E0FE9082C4E0F8A606E00E
:1015900004F08005E49082C3F030C0FD9082C2E583
:1015A000E5F09082BFE014F070CE9082C2E0FE9031
:1015B00082C4E0F8A606C1E1EF640170689082BCC5
:1015C000A3E0FAA3E0FF9082C4EAF0A3EFF0E4F511
:1015D000E5C2C09082C3E070229082C2E0FF908298
:1015E000C4E0FCA3E0F5828C83EFF09082C5E004B8
:1015F000F070069082C4E004F08005E49082C3F0AD
:1016000030C0FD9082C2E5E5F09082BFE014F0703A
:10161000BD9082C2E0FF9082C4E0FCA3E0F5828C22
:1016200083EFF0C1E19082C1E064FE704A9082BC19
:10163000A3A3E09082C4F0E4F5E5C2C09082C3E0C9
:1016400070119082C2E0FF9082C4E0F8EFF2E004F3
:10165000F08005E49082C3F030C0FD9082C2E5E5E1
:10166000F09082BFE014F070CE9082C2E0FF9082D2
:10167000C4E0F8EFF2806A9082BCE0F9A3E0FAA33C
:10168000E09082C4C9F0A3EAF0A3E9F0E4F5E5C272
:10169000C09082C3E070209082C2E0FF9082C4E0DC
:1016A000FBA3E0FAA3E0F9EF12043C9082C5E475D5
:1016B000F0011204D78005E49082C3F030C0FD90A1
:1016C00082C2E5E5F09082BFE014F070BF9082C264
:1016D000E0FF9082C4E0FBA3E0FAA3E0F9EF12047C
:1016E0003CD2919082BBE0FE9082C0E0FDEDFF22F3
:1016F0007F03F106EF2402FF227F17F106EF54016A
:10170000FF22EFF07F06C2918FE5C2C030C0FDAF6F
:10171000E5E4F5E5C2C030C0FDAFE5D2912290818D
:10172000AAEFF07F02F1069081ABEFF07F01F106A6
:101730009081ACEFF09081AAE0FF24FA50062407D4
:10174000601B80207401A807088002C333D8FCF412
:10175000FD9081ABE05DF0A3E05DF08007E4908157
:10176000ABF0A3F09081ABF1729081ACE0FD7F0112
:101770008004E0FD7F02C291EF2420F5E5C2C03075
:10178000C0FDAFE5AE058EE5C2C030C0FD9082D889
:10179000E5E5F0D291229082D4EFF0E4FFF10690DB
:1017A00082D5EFF09082D4E0B40107A3E04402F0C8
:1017B00080079082D5E054FDF09082D5E0FDE4FFF3
:1017C00080B4F1CFEF540EFFE4C313EF13FF22C236
:1017D000917FFFF1D8D291228FE5C2C030C0FDAF1A
:1017E000E5227F08F106EF540FFF227F09F106EF93
:0D17F0005401FF22C2917FE2F1D8D2912274
:1018000090817BEBF0A3EAF0A3E9F09000011203D2
:10181000DC90817FF06402705490817EF090817B37
:10182000E0FBA3E0FAA3E0F9A3E0FFF582758300F3
:101830001203DCFE74412FF582E43481F583EEF06F
:1018400090817EE004F0E0B41BD3120FEB7B017AB1
:101850008179419081AD7402F07D1B120FA97E0049
:101860007F1B7D007B017A8179411205ED90817F9C
:10187000E06403705490817EF090817BE0FBA3E0F4
:10188000FAA3E0F9A3E0FFF5827583001203DCFE02
:10189000740A2FF582E43481F583EEF090817EE0C6
:1018A00004F0E0B41BD3120FEB7B017A81790A902C
:1018B00081AD7403F07D1B120FA97E007F1B7D009C
:1018C0007B017A81790A1205ED227E007F1B7D0063
:1018D0007B017A81795C1205ED7E007F1B7D007BA8
:1018E000017A8179261205ED7E007F407D007B0123
:1018F0007A8079C61205ED7E007F407D007B017AFB
:101900008079051205ED7E007F1B7D007B017A81C9
:1019100079411205ED7E007F1B7D007B017A817984
:101920000A1205ED90817F74FFF0A37400F0A37498
:1019300029F0A374FFF0A37400F0A37428F0A3743B
:10194000FFF0A37423F0A374E5F07BFF7A20790005
:101950007F011235687A2379FE7D407F8171457B56
:10196000FF7A2479197D407F027145F1CF319F12B2
:1019700025717F01120F117F05120E2CAC06EF446A
:1019800004FD7F05120C737F05120E2CAC06EF448C
:1019900008FD7F05120C73E4F594D2AF020DBC78FC
:1019A0007B7C817D017BFF7A0079037E007F0512BD
:1019B0000857120F88C290A20B9292C20C7F01129C
:1019C000322B7F011231FB7FFFF1DCE49081EFF0DD
:1019D0009082077405F0C209C20AE49081ECF0C25B
:1019E00008D201D202C206D200908208F0A3F0C24F
:1019F00003C204C205908231F07B017A82792AFF0A
:101A000051F57B017A81797B7F0151F590817B745F
:101A100003F07B017A81797B7F0251F590817B74A1
:101A200004F07B017A81797B7F0351F590817B748F
:101A300005F07B017A81797B7F0451F590817B747D
:101A400006F07B017A81797B7F0551F59081EFE08B
:101A500024F0F582E43481F583E0FFF162E49082C2
:101A60000AF0A3F0A304F0A374F4F0A3E4F0A374C9
:101A700002F0A3E4F0A37423F0E4A3F0A3F0A3F036
:101A8000A3743FF0E4908220F0A3F0908216F0A3BC
:101A9000F0A3F0A37464F0A37403F0A374F0F0A3B4
:101AA0007401F0A37468F0A3E4F0A37402F09082D0
:101AB00022E4F0A37403F0E4A3F0A3F0A3F0A37472
:101AC00096F0A3E4F0A37432F01231897F01123151
:101AD000B07F021230787F05123172F1C31217F411
:101AE000F1AE7FF07E03F1779132020C5E7B017ADA
:101AF00082792AE4FF9081ABEBF0A3EAF0A3E9F04E
:101B00009081AAEFF014600A24FB5021600424069F
:101B100070321216F09081B7EFF09081AAE0242A7B
:101B2000FFA3E0FBA3E0FAA3E0F90232659081AAEB
:101B3000E0240AFFA3E0FBA3E0FAA3E0F91203C349
:101B4000FD1217762290817BEBF0A3EAF0A3E9F077
:101B5000AC07EC547FFF14FE7401A807088002C391
:101B600033D8FC90817EF0EC30E75990817BE0FB2C
:101B7000A3E0FAA3E0F9EE75F003A4243EF582E4B5
:101B80003482F583EBF0A3EAF0A3E9F090817BE0E7
:101B9000FBA3E0FAA3E04A4B90C7AC6014E0FF90CF
:101BA000817EE0FEEF4E90C7ACF090C7DEE04EF0D5
:101BB00022E0FF90817EE0F4FEEF5E90C7ACF090F3
:101BC000C7DE806A90817BE0FBA3E0FAA3E0F9EE38
:101BD00075F003A4244DF582E43482F583EBF0A381
:101BE000EAF0A3E9F090817BE0FBA3E0FAA3E04AEE
:101BF0004B90C7AD6027E0FF90817EE0FEEF4E90F6
:101C0000C7ADF090C7DFE04EF0EC75F002A424C53C
:101C1000F974C735F08982F58374FFF022E0FF90F4
:101C2000817EE0F4FEEF5E90C7ADF090C7DFE05E2E
:101C3000F022C290A20B9292C20C908238E0B402C1
:101C4000057F0F1226FC908224E07004A3E064015B
:101C50007003FF80027F011229C2C206C209E4900C
:101C60008238F022C2B9C2ADD20BD2921230C090EB
:101C700081DDEFF030E634D2041217EBEF24FF924F
:101C800005D168908238E0B401219081ECE0FF90AA
:101C90008231E0FE2404F582E43482F583EFF0EE35
:101CA000C394025006908231E004F09081DDE0FFA1
:101CB00020E40330E51F1217E2EF04FF9081DAF011
:101CC000FD908203E0C39DF0908234E02FF090827B
:101CD00033E03400F09081DDE0FD20E502A1839047
:101CE0008238E064016002A183D20A908202E0247B
:101CF0001275F004A4FF90821DE02FFF90821CE07B
:101D000035F0FEC390821BE09FFF90821AE09EFE9A
:101D1000ED30E60874D82FFF74FF3EFEF177F1EA4C
:101D2000D16890820AE0FEA3E0FF9081DBEEF0A391
:101D3000EFF0908226E0FDA3E0908208CDF0A3EDC5
:101D4000F0EF64024E60139081DBE0FEA3E0FF64DD
:101D5000034E6006EF64044E7002D203F1B8EF60E8
:101D600006D2009132801CF150E49081EDF0A3F096
:101D7000908233F0A3F0D292D290D20C7F0AFED19F
:101D800033C2909081DDE020E402C11EC290A20B1C
:101D90009292C20C9081DAE0FF9081EEE02FF090F9
:101DA00081EDE03400F090820CE0FEA3E0FF908132
:101DB000DBEEF0A3EFF04E60159081DBE0FEA3E0D8
:101DC000FFC39081EEE09F9081EDE09E50033009CB
:101DD0000491328049908203E0703D908228E0FEB9
:101DE000A3E0FFD3908230E09F90822FE09E400DD1
:101DF000E4908208F0A3F0C2037F01801730031241
:101E00001227C3D3EF9401EE94004002C2067F0272
:101E100080027F03D1808006F112D129C290C20BCB
:101E2000A20C9292D2B9D2AD22D292D290D20C7F91
:101E30000A7E000000000000EF1F70011E144E70AB
:101E4000F222AD07AC067FFA7E00D1337FFA7E0026
:101E5000D1337FFA7E00D1337FFA7E00D133ED1D7E
:101E600070011C144C70DF2290821EE0FFA3E090F2
:101E70008236CFF0A3EFF09081EFE0908235F02230
:101E80009082D0EFF0F150F1129082D0E014601205
:101E900014602014602780009081EFE09082D1F0E0
:101EA0008035908207E0FDE4FF1226C39082D1EFD7
:101EB000F0802412279C9082D1EFF0801A9081EF5D
:101EC000E0049082D1F0E0FF908207E0FEEF8EF018
:101ED000849082D1E5F0F09081EFE0FF9082D1E034
:101EE000FE6F60219081EFEEF0E024F0F582E434A3
:101EF00081F583E0FFF162908230E004F07006909B
:101F0000822FE004F0300303D20822D206D129C286
:101F10009022908203E0D3940F40087DFA7C007FEA
:101F20000F800C908203E0C39401FF7DFA7C00AB2C
:101F300007EC540FC454F0FF9082D6E0540F4FF0DA
:101F4000EB540FFFE054F04FF0E0FD7F04021776F2
:101F500030030590820E8003908210A3E0908203EC
:101F6000F022E49082D7F0EF547FFFE054804FF0EE
:101F7000E0FD7F05021776AD07AC06E4120309E425
:101F8000FBFA7980784012015EE4FBFA79407840F0
:101F9000120267E4FBFAF9783F12006D120342C3A4
:101FA000E49FFFE49EF5CB8FCAF5CD8FCC22C29182
:101FB0007FE11217D8D291227F17121706EFC4546F
:101FC00001FF227D707F07121776EF5470FF22D237
:101FD000B9C29075E61075C810D2C822EF543F9070
:101FE0008180F0E0FD7F1C0217769081EFE0908207
:0E1FF00032F0E4908200F0A3F02243E80122D8
:1020000090FFFD1205BCEBF0A3EAF0A3E9F090FF0E
:10201000FF1205BC7B01850883850982A982AA83FA
:1020200090FFFD1205BCEBF0A3EAF0A3E9F09000ED
:102030000A1205E0E0FBA3E0FAA3E0F990FFFD122D
:1020400005BCEBF0A3EAF0A3E9F090000A1205E06A
:10205000E0FBA3E0FAA3E0F990FFFD1205BCEBF072
:10206000A3EAF0A3E9F090000A1205E0E0FBA3E088
:10207000FAA3E0F9118BBF010A850883850982E084
:10208000FF80027F0090000A0205BC90FFFD120550
:10209000BCEBF0A3EAF0A3E9F090FFFF1205BC85CA
:1020A0000883850982E4F090000A1205E0E0FBA3B2
:1020B000E0FAA3E0F9E412043C850883850982A3D1
:1020C000E0FBA3E0FAA3E0F99000011203DC640650
:1020D000600221EE9000021203DC24DF7002216D09
:1020E00014600261D78508838509827401F0A3E03A
:1020F000FBA3E0FAA3E0F99000041203DC75F007FB
:10210000A424F7F582E5F03409F583E493FB740128
:1021100093FA740293F9C003C002C0019000041244
:1021200005E0E0FBA3E0FAA3E0F9120511850883BE
:10213000850982A3E0FBA3E0FAA3E0F99000041272
:1021400003DC75F007A424FAF582E5F03409F58381
:10215000E493FF7E009000051203DCFD7C00C3EFDA
:102160009DEE9C50028076AE04AF0580708508839A
:102170008509827401F0A3E0FBA3E0FAA3E0F990E3
:1021800000041203DC75F007A424F4F582E5F034B2
:1021900009F583E493FB740193FA740293F9C00385
:1021A000C002C0019000041205E0E0FBA3E0FAA326
:1021B000E0F9120511850883850982A3E0FBA3E0FD
:1021C000FAA3E0F99000051203DCFF7E00C3740956
:1021D0009FE49E50087C007D097F098000900007E5
:1021E0001205E0E0FBA3E0FAA3E0F9EF6107850840
:1021F00083850982A3E0FBA3E0FAA3E0F91203C3FD
:1022000020E50261D79000011203DC24FE605A141D
:102210007002419E24FA700261801460661470029C
:10222000611C240A600261D78508838509827401D4
:10223000F0E49082C8F09082C7F07B017A8279C77F
:10224000C003C002C0019000041205E0E0FBA3E05F
:10225000FAA3E0F91205119000071205E0E0FBA3D4
:10226000E0FAA3E0F97403610785088385098274A5
:1022700001F090000A1205E0E0FBA3E0FAA3E0F908
:10228000E461B28508838509827401F090000A1226
:1022900005E0E0FBA3E0FAA3E0F9740461B285086D
:1022A000838509827401F0A3E0FBA3E0FAA3E0F9BF
:1022B0009000041203DCFF74017E00A8070880056B
:1022C000C333CE33CED8F9FF9082CFE0FDEF5D7FF0
:1022D0000060027F019082C7EFF07B017A8279C7AC
:1022E000C003C002C0019000041205E0E0FBA3E0BF
:1022F000FAA3E0F91205119000071205E0E0FBA334
:10230000E0FAA3E0F9740112043C90000A1205E01F
:10231000E0FBA3E0FAA3E0F9740461B285088385C9
:1023200009827401F0A3E0FBA3E0FAA3E0F99000B6
:10233000031203DCB4011A9082CFE0FF9000041274
:1023400003DCFE7401A806088002C333D8FC4F806A
:10235000199082CFE0FF9000041203DCFE7401A804
:1023600006088002C333D8FCF45F9082CFF090005F
:102370000A1205E0E0FBA3E0FAA3E0F9740580325D
:10238000850883850982A3E0FBA3E0FAA3E0F99026
:1023900000021203DCFFB4031E85088385098274E2
:1023A00001F090000A1205E0E0FBA3E0FAA3E0F9D7
:1023B000740512043C8020EFB4021C90000A120540
:1023C000E0E0FBA3E0FAA3E0F9740512043C850801
:1023D000838509827401F0850883850982E0FF9076
:1023E000000D0205BC90FFFF1205BCEFF075D9018E
:1023F000850883850982E4F09000010205BC90FF06
:10240000FD1205BCEBF0A3EAF0A3E9F0E49081092A
:10241000F07F609000060205BC90FFFD1205BCEB4A
:10242000F0A3EAF0A3E9F09000031205E0E0FBA3BB
:10243000E0FAA3E0F91203C3FF7E00850883850953
:1024400082E0FBA3E0FAA3E0F978867C807D0112AC
:1024500008579080457401F07FFF9000060205BC8C
:10246000908207E0FF2290817FEBF0A3EAF0A3E9DE
:10247000F07BFF7A00792EE4FFB13490817FE0FB9E
:10248000A3E0FAA3E04A4B6055E4A3F090817FE01B
:10249000FBA3E0FAA3E0F9A3E0FFF5827583001245
:1024A00003DCFE74942FF582E43481F583EEF09022
:1024B0008182E004F0E0B404D39081827401F09052
:1024C0008182E0FFC394065015908193EFF07B0169
:1024D0007A817993B134908182E004F080E1916057
:1024E00090819EEFF090819B7401F0A37481F0A322
:1024F0007494F07B017A817983B1FB9160AD077BA5
:10250000017A817983120F88E49081EFF09082073D
:10251000EDF0E0FF7E0078F07C817D01120857909D
:1025200081EFE024F0F582E43481F583E0FF121FAF
:1025300062020C5E908198EFF0A3120F80D201D25C
:1025400002908198E07016782A7C827D01A3E0FBDE
:10255000A3E0FAA3E0F97E007F0512085790819866
:10256000E0FFA3E0FBA3E0FAA3E0F9121AF5020CE6
:102570005E7B017A81797B7D04B1AB7B017A8179C5
:102580007B91667F05120E2CAC06EF4402FD7F05A1
:10259000120C73E4908281F0908295F0908294F016
:1025A000908280F0FDFC7F06020C739081A1EBF01D
:1025B000A3EAF0A3E9F0A3EDF07F0B7E00A2FBE419
:1025C00033A3F0D2FBE4FD9081A4E0FCEDC39C506A
:1025D00021EF2DF582E43EF583E0FC9081A1E0FB44
:1025E000A3E0FAA3E0F98D82758300EC12044E0D8E
:1025F00080D59081A5E024FF92FB22908198EBF09A
:10260000A3EAF0A3E9F090819EE0FF744E8FF0847E
:10261000FF740212043C90819EE024FFFDE434FF2D
:10262000FC908198E0FBA3E0FAA3E0F98D828C8313
:10263000744F12044E7E0190819EE014FDEEC39D06
:10264000503890819BE0FBA3E0FAA3E0F9EE54033D
:10265000F5827583001203DC8FF084ADF0EF8EF00D
:10266000A42DFD908198E0FBA3E0FAA3E0F98E820F
:10267000758300ED12044E0E80BD7E0190819EE0B8
:10268000FFEEC39F503CEE24FFFDE434FFFC90813D
:1026900098E0FBA3E0FAA3E0F98D828C831203DCBF
:1026A000FF8E827583001203DCC39FFFC394055025
:1026B0000EC374059FFF8E82758300EF1204090E0E
:1026C00080BA22EFD3940040059081EBEFF0908127
:1026D000EBE0FFC43333335480FEEFC43333548014
:1026E0006EFEE0FFC43354806EFEEF54806EFEE059
:1026F000C3134EF0AE058EF084AFF022AE071FEE8E
:10270000D3940040157C007D2DED1DAA0470011CA2
:10271000D39400EA940040E480EF22D3908237E023
:102720009400908236E094004006908235E0FF22CB
:10273000908232E0FF22D3908237E094009082367C
:10274000E09400400CA3E024FFF0908236E034FFD8
:10275000F0908201E02401FF908200E03400FE90BE
:102760008218E0FCA3E0FD120482908200ECF0A34A
:10277000EDF0908212E07002A3E0600A908200E027
:102780007002A3E07015908232E004FF908207E0AF
:10279000FEEF8EF084908232E5F0F022D390823703
:1027A000E09401908236E094004006908235E0FF8C
:1027B00022908232E004FF908207E0FEEF8EF084E8
:1027C000AFF022908212E07002A3E0600FD39082FB
:1027D00037E09400908236E094004004E4FEFF224B
:1027E000908200E0FCA3E0FD4C7003FEFF22C3904A
:0C27F0008219E09DFF908218E09CFE2200
:10280000C2B9C2AD122736300A0D90821AE0FEA37B
:10281000E0FF121F77C20A908238E0640260020172
:10282000D312271B7E009081D8EEF0A3EFF0D20BDD
:10283000D2929081EFE06F7001E4602CC290A20B05
:102840009292C20C9081D8E0FEA3E024F0F582744D
:10285000813EF583E0FF121F62D292D290D20C909B
:1028600081D8A3E09081EFF031339081D8EEF0A3CE
:10287000EFF03133EF4E700E7F0131C2D206D292AB
:10288000D290D20C800EC290A20B9292C20CC206C1
:10289000E4FF31C29081EEE004F070069081EDE03B
:1028A00004F0908216E0FEA3E0FF9081D8EEF0A342
:1028B000EFF0D39400EE9400404F9081D8E0FEA357
:1028C000E0FF9081EEE09F9081EDE09E403B121C86
:1028D000328036908238E06401702E30082B122747
:1028E000C39081D8EEF0A3EFF03003149081D8E0CC
:1028F0007002A3E0701312271B9081EFE0B5070967
:10290000121E29C290D206C208D3908209E0940018
:10291000908208E09400400EA3E024FFF09082082B
:10292000E034FFF08002C203C20BA20C9292D2B933
:10293000D2AD22908212E07002A3E0600FD39082A9
:1029400037E09400908236E094004004E4FEFF22D9
:10295000908200E07002A3E07003FEFF22908210DC
:10296000E0FEA3E0FF7C017DDC12047090821AE09F
:10297000FCA3E0FD120482AB07AA06908207E0FFE9
:102980007E00AD03AC02120470D3908201E09F90F0
:102990008200E09E5016E0FEA3E0FF120482C3EB2B
:1029A0009DFFEA9CCF24FFCF34FFFE22908200E0FF
:1029B000FEA3E0FFC3908219E09FFF908218E09E83
:1029C000FE22EF60132007177F011217967F03AED8
:1029D000071FEE70FAD20722E4FF121796C20722F1
:1029E000C0E0C0F0C083C082C085C084C092539252
:1029F000FEC0D075D000C000C001C002C003C0043A
:102A0000C005C006C007C2C611009082D3E004F022
:102A100070069082D2E004F0D007D006D005D00432
:102A2000D003D002D001D000D0D0D092D084D085B5
:102A3000D082D083D0F0D0E0329081CBEBF0A3EA0B
:102A4000F0A3E9F0E4FF9081D4E0FEEFC39E504F85
:102A50009081D1E0FBA3E0FAA3E0F91203C3FE905A
:102A600081CEE0FBA3E0FAA3E0F91203C36EFE906F
:102A700081CBE0FBA3E0FAA3E0F9EE12043C9081E5
:102A8000CCE475F0011204D79081CFE475F0011207
:102A900004D79081D2E475F0011204D70F80A722E9
:102AA000908197EBF0A3EAF0A3E9F0908281E060D7
:102AB0006B711DEF7018908197E0FBA3E0FAA3E023
:102AC0002401F9E43AFAD1229082947401F07B0156
:102AD0007A81799AB1DFEF70437A81799AD12F9018
:102AE00081CE7401F0A37481F0A3749AF090819761
:102AF000E0FBA3E0FAA3E02401F9E43AFA9081D1E3
:102B0000EBF0A3EAF0A3E9F0A37405F07B017A816E
:102B1000799A51397B017A81799AF1A9229082942C
:102B2000E07F0060027F0122908197EBF0A3EAF042
:102B3000A3E9F0A3EDF0711DEF6004E4FF80027FD4
:102B400002D1F7908197E0FBA3E0FAA3E02401F91A
:102B5000E43AFAC003C002C001908197A3E0FAA34F
:102B6000E02401F9E43AFA9081A7EBF0A3EAF0A39C
:102B7000E9F090819AE0149081AAF0D001D002D0BF
:102B800003D156EF602690819AE024FCFF9082806A
:102B9000F07E00908197E0FBA3E0FAA3E02404F923
:102BA000E43AFA78877C827D0112085790819B7401
:102BB0000BF07B017A8179A1F1779081A77401F004
:102BC000A37481F0A374A1F0A37403F07B017A8154
:102BD00079A191257B017A81799CD12F711DEF70AC
:102BE000087B017A81799CD1227B017A81799B9043
:102BF00081A87401F07D099081A4EBF0A3EAF0A311
:102C0000E9F0A3EDF0120F60120FEB9081A4E0FB4E
:102C1000A3E0FAA3E0F9A3E0FDA3E09081ADF012F8
:102C20000FA9020DBC9081A4EBF0A3EAF0A3E9F098
:102C30009082A8E01460191460332402705578ABB8
:102C40007C817D017BFF7A0079367E007F10804099
:102C500078AB7C817D017BFF7A0079367E007F1026
:102C60001208577B017A8179ABB1DF802678AB7C83
:102C7000817D017BFF7A0079367E007F1012085734
:102C800078AB7C817D017B017A8279967E007F0D15
:102C9000120857E4FFEFC39405501A74A32FF5826E
:102CA000E43482F583E0FE74BB2FF582E43481F5D1
:102CB00083EEF0800C74BB2FF582E43481F583E45D
:102CC000F00FEFB410CF9081D0E4F0A3F0A3F07B2D
:102CD000017A8179AB7D04FFD1FD9081CE7401F042
:102CE000A37481F0A374BBF07B017A81F9123427BD
:102CF0009081A7E0F9A3E0FAA3E09081CEC9F0A308
:102D0000EAF0A3E9F0A37401F0A37481F0A374BB0B
:102D1000F09081AAE09081D4F09081A4E0FBA3E040
:102D2000FAA3E0F94139908197EBF0A3EAF0A3E927
:102D3000F0711DEF7002A1DEE4FFD1F7908197E002
:102D4000FBA3E0FAA3E02401F9E43AFAC003C002CD
:102D5000C001908197A3E0FAA3E02401F9E43AFAD4
:102D60009081A7EBF0A3EAF0A3E9F0A37403F0D0FD
:102D700001D002D003D156EF6064908294E024FD2C
:102D8000601204701C90819E7401F0FB7A81799F1F
:102D9000B1DF800690819E7402F0E4908294F0800E
:102DA00005E490819EF090819A7409F07B017A810C
:102DB000799BF1779081A77401F0A37481F0A374DB
:102DC0009BF0A37409F07B017A81799B91257B01AB
:102DD0007A81799A9081A87401F07D0A71F722F1C5
:102DE0009EEF70109081D0F0A37405F07F01123433
:102DF000027F01227F0022908197740AF07B017A82
:102E0000817998D12F711DEF70087B017A817998B3
:102E1000D1227B017A8179979081A87401F07D0697
:102E200061F778A37C827D017E007F0502085790C0
:102E300081A4EBF0A3EAF0A3E9F09081A4E0FBA366
:102E4000E0FAA3E0F8AC02AD037B017A8279827EDE
:102E5000007F050208579125908197E0FBA3E0FAD7
:102E6000A3E02401F9E43AFA9081A4EBF0A3EAF09C
:102E7000A3E9F09081A4E0FBA3E0FAA3E0F8AC02A0
:102E8000AD037BFF7A0079337E007F03120777EF73
:102E90007F0070027F0122908197EBF0A3EAF0A3FC
:102EA000E9F07F01D1F7908197E0FBA3E0FAA3E07E
:102EB0002401F9E43AFAC003C002C001908197A34B
:102EC000E0FAA3E02401F9E43AFA9081A7EBF0A339
:102ED000EAF0A3E9F0A37410F0D001D002D003D13E
:102EE00056EF6012908197E0FBA3E0FAA3E0240480
:102EF000F9E43AFAF1DE229082A8EFF0229081CB39
:102F0000EFF0A3EDF0A3EBF0A3EAF0A3E9F09081DA
:102F1000CDE0FBA3E0FAA3E04A4B60129081CDA381
:102F2000A3E0F99081D77410F0E4FD1234E79081AA
:102F3000D0E0FBA3E0FAA3E0F9EA494B60139081EB
:102F4000D77410F0E4FD12352B7F04F169E4FFF132
:102F5000699081CBE0600AE5E854FD4402F5E88021
:102F60000353E8FD9081CCE0FFEF25E025E0FFE58D
:102F7000E854E34FF5E8229081A4EBF0A3EAF0A334
:102F8000E9F09081A4E0FBA3E0FAA3E0F8AC02AD85
:102F9000037BFF7A0079337E007F030208577F00AE
:102FA0007E3E8F828E83E0FF2290819FEBF0A3EA2A
:102FB000F0A3E9F0F19EBFFF22E4FDFF12336C9015
:102FC000819FE0FBA3E0FAA3E0F99081A7E4F0A3DE
:102FD0007405F07F011233937F01227F00227896DF
:102FE0007C827D017E007F0D020857711DEF600617
:072FF0009082947402F022AC
:10300000C0E0C0F0C083C082C085C084C09253922B
:10301000FEC0D075D000C000C001C002C003C00413
:10302000C005C006C007121C64D007D006D005D06A
:1030300004D003D002D001D000D0D0D092D084D020
:1030400085D082D083D0F0D0E0329081AAEFF0E436
:10305000FF1217069081ABEFF09081AAE0B4010750
:10306000A3E04401F080079081ABE054FEF0908132
:10307000ABE0FDE4FF021776908180EFF0E4FF12F1
:103080001706908181EFF0908180E0146010146049
:103090001A24027021908181E054F7F08018908109
:1030A00081E04408F0E054FBF0800B908181E04423
:1030B00008F0E04404F0908181E0FDE4FF0217761F
:1030C0007D707F07121776EF54709081DEF0E0FF7D
:1030D000C0077F07121706EF540FFED0E04EFF9097
:1030E00081DEF0229081AAEFF0A3EDF07F021217AB
:1030F000069081ACEFF07F011217069081ADEFF0E2
:103100009081AAE0FF24FA50062407603C805374A3
:1031100001A807088002C333D8FCFD9081ACE04DC4
:10312000F09081ABE060089081ADE04DF08033908D
:1031300081AAE0FF7401A807088002C333D8FCF419
:10314000FF9081ADE05FF080199081AC743FF0900A
:1031500081ABE060089081AD743FF08005E4908120
:10316000ADF09081AC1217729081ADE0FD7F01024D
:103170001776E4908180F0EF24FE5403FFE054FCC6
:103180004FF0E0FD7F03021776908222A3E0FF90CC
:1031900081A11217029081A2EFF09081A1E0540367
:1031A00025E0FFA3E054F94FF0E0FD7F060217761B
:1031B000908180121702908181EFF0908180E06011
:1031C0000C24FE7015908181E0442080069081815E
:1031D000E054DFF0E054F7F0800B908181E054DFA1
:1031E000F0E04408F0908181E0FD7F060217767FD1
:1031F00017121706EFC4135401FF22908180EFF0DD
:103200007F1D121706908181EFF0908180E07F0092
:1032100060027F01EF540125E025E0FF908181E00D
:1032200054FB4FF0E0FD7F1D021776908180EFF098
:103230007F1D121706908181EFF0908180E07F0062
:1032400060027F01EF540125E0FF908181E054FD91
:103250004FF0E0FD7F1D021776EF44A8FF9081B28A
:10326000E09081B7F09081B4EBF0A3EAF0A3E9F02D
:103270009081B4E0FDC2918FE5C2C0ED7028A3A398
:10328000E09081B9F09081B9E0F8E6FEE004F0301A
:10329000C0FD9081B8E5E5F08EE5C2C09081B7E051
:1032A00014F070E16160ED640170429081B4A3E0BC
:1032B000FBA3E09081B9CBF0A3EBF09081B9E0FEE5
:1032C000A3E0F5828E83E0FE9081BAE004F0700600
:1032D0009081B9E004F030C0FD9081B8E5E5F08E52
:1032E000E5C2C09081B7E014F070D08073ED64FE49
:1032F000702B9081B4A3A3E09081B9F09081B9E0E4
:10330000F8E2FEE004F030C0FD9081B8E5E5F08E13
:10331000E5C2C09081B7E014F070E180439081B4C1
:10332000E0F9A3E0FAA3E09081B9C9F0A3EAF0A321
:10333000E9F09081B9E0FBA3E0FAA3E0F91203C33E
:10334000FE9081BAE475F0011204D730C0FD90817F
:10335000B8E5E5F08EE5C2C09081B7E014F070D218
:1033600030C0FD9081B8E5E5F0D29122A98E758E2E
:1033700001A2AF92D5C2AF75FAAA75FA55D2FD8FE8
:10338000828E83EDF020FCFDC2FDA2D592AFAF018D
:103390008F8E229081A4EBF0A3EAF0A3E9F0908154
:1033A000ABE58EF0758E01A2AF92D5C2AF75FAAAC9
:1033B00075FA55D2FD9081A9EEF0A3EFF09081A7A8
:1033C00074FFF5F01204ED45F0602A9081A4E0FB53
:1033D000A3E475F0011204EDA9F0FA1203C3FF9003
:1033E00081A9E475F0011204ED85F082F583EFF018
:1033F00030FCCA80FBC2FDA2D592AF9081ABE0F554
:103400008E229081D074FFF5F01204ED45F0601625
:103410008F828E83E012043C0FBF00010E740129DD
:10342000F9E43AFA80DC229081CBEBF0A3EAF0A336
:10343000E9F0A3E0FBA3E0FAA3E0F99081D57410D2
:10344000F0E4FD91A3121FFA919DEF70FB9081CBE8
:10345000E0FBA3E0FAA3E0F99081D57410F0E4FD5D
:103460009081D1EBF0A3EAF0A3E9F0E5F654F04D3A
:10347000F5F69081D5E014FFC3EF64809480401C82
:103480009081D1E0FBA3E0FAA3E0F9EFFD3395E0F2
:103490008D82F583E5F312044E1F80DC22E5E854AB
:1034A00001FF229081D1EBF0A3EAF0A3E9F0AF0590
:1034B000EFC454F0FFE5F6540F4FF5F69081D5E0D8
:1034C00014FFC3EF64809480401C9081D1E0FBA383
:1034D000E0FAA3E0F9EFFD3395E08D82F583120366
:1034E000DCF5F31F80DC229081D3EBF0A3EAF0A39C
:1034F000E9F0AF05EFC454F0FFE5F5540F4FF5F5D3
:103500009081D7E014FFC3EF64809480401C9081C9
:10351000D3E0FBA3E0FAA3E0F9EFFD3395E08D8261
:10352000F5831203DCF5F11F80DC229081D3EBF0F0
:10353000A3EAF0A3E9F0E5F554F04DF5F59081D755
:10354000E014FFC3EF64809480401C9081D3E0FBC3
:10355000A3E0FAA3E0F9EFFD3395E08D82F5831245
:1035600003DCF5F21F80DC2290817CEBF0A3EAF013
:10357000A3E9F090825C74FFF0A37409F0A374CA0D
:10358000F090825F74FFF0A37409F0A374FBF090D5
:10359000826274FFF0A3740AF0A37496F0908265BF
:1035A0007404F0A314F0A37409F0A37404F09082DF
:1035B0006C7402F0E4908269F090827FF090826AED
:1035C000F0A3F090817CE0F9A3E0FAA3E090826D93
:1035D000C9F0A3EAF0A3E9F090817FE0F9A3E0FA53
:1035E000A3E0908270C9F0A3EAF0A3E9F090818291
:1035F000E0F9A3E0FAA3E0908273C9F0A3EAF0A394
:10360000E9F0908185E0F9A3E0FAA3E0908276C921
:10361000F0A3EAF0A3E9F0EF601290C7D6E0440807
:10362000F07F327E00121E42E054F7F0D2BBD2BCD3
:1036300090C7AE741DF090C7AC7401F090C7A97428
:103640001FF090C7AD7401F090C7AA741FF090C727
:10365000817410F0A37420F0A37430F0A37440F0D0
:10366000A37450F090C78874C0F0A37410F0A374D2
:1036700020F0A37430F0A37440F0A37450F090C70E
:10368000DE7401F0A3F0E4A3F0A3F022EF547F1462
:1036900025E0FEEF30E70BEE7E0024B6F9EE34C7EE
:1036A000800BAF067E0074C62FF9EE34C7AF0190D1
:1036B00081E7F0A3EFF0ED9081E7B4010CE0FEA309
:1036C000E0F5828E837401F022E0FEA3E0F5828EA5
:1036D00083E4F022908239EBF0A3EAF0A3E9F0A3AF
:1036E000EDF090825CE0FBA3E0FAA3E0F990000724
:1036F0001203DC90823DF0227B017A8179EA90FF0F
:10370000FD1205BCEBF0A3EAF0A3E9F07B017A819E
:1037100079E790FFFD1205BCEBF0A3EAF0A3E9F016
:103720007B017A827979C00290826DA3E0FAA3E0EE
:10373000F5828A83D0021205BAEF14602D1460312D
:1037400014603B24FE602304702E9081E7E0FBA30D
:10375000E0FAA3E0F9A3E0FF90827EE0FEC39FAD14
:10376000075002AD06D1D402380090C7B47402F0FD
:103770002290C7C574FFF02290C7B47411F0229054
:10378000826C7402F0E490826AF0A3F0908269F097
:10379000908270E0FBA3E0FAA3E04A4B600C9082B9
:1037A00070A3E0FAA3E0F91205B622A9078B828A7A
:1037B00083E9B4FF0474FFF022E930E7088D828CBE
:1037C000837401F022E95460FFBF60088D828C830E
:0C37D0007402F022E97002F022E9F022FD
:1038000090823CE0FD702190827FE0B4010890C777
:10381000B4E04410F02290827F7401F0E490C7B5C8
:10382000F090C7B47402F02290823DE0FFEDC39F98
:10383000500790823CE0FF8000E4FEEEC39F5023DF
:10384000908239E0FBA3E0FAA3E0F98E8275830051
:103850001203DCFD74002EF582E434C7F583EDF02D
:103860000E80D890823DE0FEEFC39E500690827F8E
:103870007401F090C7B5EFF0FD90823AE48DF0123C
:1038800004D790823CE0C39FF02290827BE024FE2C
:10389000602A14604224FA40022173240860022145
:1038A0007A90825CE0FBA3E0FAA3E0F990827EE0EC
:1038B000FFC394127D125002AD07216E90825FE02B
:1038C000FBA3E0FAA3E0F990827EE0FFC394297D98
:1038D000295002AD07216E90827CE0FC70167B01BE
:1038E0007A82796590827EE0FFC394047D04500261
:1038F000AD07807AEC14C394025078908262E0FBAA
:10390000A3E0FAA3E0F990827CE0FF75F003A42421
:10391000FDF582E5F034FFF583120560C003C002B7
:10392000C001908262E0FBA3E0FAA3E0F9EF14FF8C
:1039300075F003A4F58285F0831205601203C3FEBF
:1039400090827EE0FDC39E5002801D908262E0FB6B
:10395000A3E0FAA3E0F975F003EFA4F58285F08304
:103960001205601203C3FFFDD001D002D00312364E
:10397000D4010090C7B47411F0220236F890C7E861
:10398000E0908279F090C7E9E090827AF090C7EAFF
:10399000E090827CF090C7EBE090827BF090C7ECE7
:1039A000E090827DF090C7EEE090827EF090C7EFCD
:1039B000E0D39400400690827E74FFF0908279E01C
:1039C0005460600241ACA3E0B40B00400241AA90F5
:1039D00039D525E07321ED21EF41AA21EF41AA411C
:1039E0003D21EB41AA41494166419B018AA11F90BB
:1039F0008279E024FE60232402704090827CE0B44F
:103A0000011690827AE0908269B40106E054FDF0DC
:103A10008069E04402F0806341CB90827CE07019C1
:103A200090827AE090827DB40106E0FFE4FD80049C
:103A3000E0FF7D0112368C804241CB41CB90826CFD
:103A40007403F0E490826AF02290826CE024FC60BF
:103A50000E047010E490C700F090C7B504F02290F7
:103A6000826A803A806590827CE014601504702937
:103A700090826C7403F0E490826AF090C7B4740290
:103A8000F02290826C7404F0908269E04401F0A30B
:103A90007401F090C7B404F022803090826BE09003
:103AA000C700F090C7B57401F022801F908279E0C2
:103AB000FF5460FEBE201490827EE0600BEF20E792
:103AC0000790C7C574FFF0220236F890C7B474118E
:103AD000F022C0E0C0F0C083C082C085C084C09224
:103AE0005392FEC0D075D000C000C001C002C00318
:103AF000C004C005C006C00790C7A8E01205903BEF
:103B000036003B40043B48083B610C3B6B103B7666
:103B1000183B801C3B90203C37243B90283C372CA2
:103B20003B90303C37343B90383C373C3B90403CFA
:103B3000374400003CFE90C7AB7401F0317D81FE3C
:103B400090C7AB7402F081FE90C7AB7404F0908212
:103B500039E4F0A3F0A3F0A3F0A3F090827FF0810A
:103B6000FE90C7AB7408F0B1F581FE90C7AB74103E
:103B7000F012377F81FE90C7A97401F0110081FE19
:103B800090C7AA7401F090823CE4F01236F881FEEE
:103B900090C7A8E024E8131313541F9081DFF0E0CE
:103BA000FF7401A807088002C333D8FC90C7A9F0AE
:103BB000EF547F75F002A424B4F974C735F0AF0157
:103BC0009081E1F0A3EFF09081DFE0547F75F08009
:103BD000A4FFC374009FF974C795F0AF019081E30F
:103BE000F0A3EFF09081DFE0547F75F002A424B5DC
:103BF000F974C735F0AF019081E5F0A3EFF0908143
:103C0000E5E0FEA3E0AA06F97B0190FFFD1205BCEA
:103C1000EBF0A3EAF0A3E9F09081E3E0FEA3E0AAD1
:103C200006F97B01C0029081DFE075F003A4243B1C
:103C3000F582E4348281D890C7A8E024E4131313FA
:103C4000541F9081DFF0E0FF7401A807088002C3D1
:103C500033D8FC90C7AAF0EF547F75F002A424C4B7
:103C6000F974C735F0AF019081E1F0A3EFF09081D6
:103C7000DFE075F080A4FFC374C09FF974C695F0AF
:103C8000AF019081E3F0A3EFF09081DFE075F002E7
:103C9000A424C5F974C735F0AF019081E5F0A3EF16
:103CA000F09081E5E0FEA3E0AA06F97B0190FFFD1C
:103CB0001205BCEBF0A3EAF0A3E9F09081E3E0FE8B
:103CC000A3E0AA06F97B01C0029081DFE075F00352
:103CD000A4244AF582E43482F583A3E0FAA3E0F554
:103CE000828A83D0021205BA9081E0EFF0A3E0FC53
:103CF000A3E0FD9081E5E0FAA3E0FB1237ABD0072B
:103D0000D006D005D004D003D002D001D000D0D04E
:103D1000D092D084D085D082D083D0F0D0E03290C1
:103D2000826CE06403702690827DE06002A1EE90D8
:103D3000825FE0FBA3E0FAA3E0F99000071203DC46
:103D40005440C41313540390C701F0A1E190826C56
:103D5000E064046002A1EE90C701F0908279E02453
:103D60007F603F14603F24026002A1EC908269E012
:103D700030E10890C7007402F08005E490C700F0BD
:103D800090C700E0FF90825FE0FBA3E0FAA3E0F9B8
:103D90009000071203DC5440C413135403FEEF4E8B
:103DA000803FE4803C90827DE030E70D547F75F0E9
:103DB00002A424B4F974C7800F90827DE0547F750B
:103DC000F002A424C4F974C735F0AF019081E7F084
:103DD000A3EFF09081E7E0FEA3E0F5828E83E0544C
:103DE0000190C700F090C7B57402F022800090C720
:103DF000B47411F022E4FD908269E054FBF09082EB
:103E00006CE0B40408908269E030E1010D90826CAE
:103E10007405F0908276E0FBA3E0FAA3E04A4B60E1
:103E200011AF05908276A3E0FAA3E0F5828A8312AF
:103E300005BA22C0E0C0F0C083C082C085C084C083
:103E4000925392FEC0D075D000C000C001C002C025
:103E500003C004C005C006C00790C7D6E030E726FF
:103E60007480F0908269E030E12390C7D6E044028C
:103E7000F00000E054FD4401F07F077E00121E4276
:103E8000E054FEF08007908269E04404F09082697B
:103E9000E090826C30E0057404F080037402F090CE
:103EA0008273A3E0FAA3E0F91205B6D007D006D0DA
:103EB00005D004D003D002D001D000D0D0D092D011
:0C3EC00084D085D082D083D0F0D0E032D6
:00000001FF
