:020000040007F3
:10300000905D002049340700513407005334070015
:1030100055340700573407005934070000000000FA
:103020000000000000000000000000005B3407000A
:103030005D340700000000005F34070061340700C2
:103040006334070063340700633407006334070008
:1030500063340700633407006334070063340700F8
:1030600063340700633407006334070063340700E8
:1030700063340700633407006334070063340700D8
:1030800063340700BD48070063340700633407005A
:103090008D49070063340700914907006334070036
:1030A00063340700633407006334070063340700A8
:1030B00063340700633407000000000000000000D4
:1030C0006334070063340700633407006334070088
:1030D0006334070063340700633407000000000016
:1030E00000000000000000000000000000000000E0
:1030F00000000000000000000000000000000000D0
:1031000000000000000000000000000000000000BF
:1031100000000000000000000000000000000000AF
:10340000DFF80CD000F0B4F800480047F969070075
:10341000905D0020056885F308884068FF2464B249
:10342000EFF30585002D01D1A64600472546064647
:1034300021273FBAF0B40024002500260027F0B46D
:10344000F92040B200470000064880470648004780
:10345000FEE7FEE7FEE7FEE7FEE7FEE7FEE7FEE744
:10346000FEE7FEE7B549070001340700202A04DB28
:10347000203A00FA02F1002070479140C2F1200387
:1034800020FA03F319439040704740EA01039B0779
:1034900003D009E008C9121F08C0042AFAD203E0C9
:1034A00011F8013B00F8013B521EF9D27047D2B22D
:1034B00001E000F8012B491EFBD270470022F6E71D
:1034C00010B513460A4604461946FFF7F0FF20469A
:1034D00010BD421C10F8011B0029FBD1801A704757
:1034E00030B504460020034600E05B1C934203D243
:1034F000E05CCD5C401BF8D030BD034611F8012BD9
:1035000000F8012B002AF9D1184670472DE9F05F29
:103510000546002092469B46884606468146402442
:103520001BE0284641464746224600F033F8534602
:103530005A46C01A914110D3114618462246FFF749
:1035400095FF2D1A67EB01084F4622460120002106
:10355000FFF78CFF17EB00094E41201EA4F1010478
:10356000DFDC484631462A464346BDE8F09F00006E
:10357000064C074D06E0E06840F0010394E80700C0
:1035800098471034AC42F6D3FFF73EFF5CB3070018
:103590007CB30700202A04DB203A21FA02F0002144
:1035A000704721FA02F3D040C2F120029140084353
:1035B000194670472DE9F0438BB01446129D15F95A
:1035C000046B00961F46804689462B4602462146DC
:1035D00002A800F0BBFC02A9129A084600F0A6FC63
:1035E000129B02AA4146404600F090FC129B02AAA0
:1035F0002146204600F08AFC2B464A46394638468A
:10360000009600F0A3FC129A394602A800F08EFC46
:1036100002A92B4642460846009600F097FC02A9F4
:103620002B4622460846009600F090FC2B46424668
:1036300021462046009600F089FC129B224649460E
:10364000484600F063FC2B4602AA414620460096FD
:1036500000F07CFC129B22463946384600F056FCAE
:103660002B464A4639463846009600F06FFC3246F3
:1036700002A9204600F030FE0BB0BDE8F083F0B5A3
:10368000154689B01C4607460E461A462946684626
:1036900000F04CFC23466A463946384600F036FCBA
:1036A00023462A466946684600F030FC23466A46AF
:1036B0003146304600F02AFC09B0F0BD8B180244B8
:1036C0008B4204D013F8010D02F8010DF8E77047A2
:1036D0002DE9F047B3F9025089460824E91D1F354A
:1036E00091FBF4F42021944295FBF1F54FFA85F813
:1036F00028BF14461F464146064600F06FFA224690
:103700004946FFF7DBFFB7F90230E4009C4220D9BD
:10371000E41A06EB85010023C4F120008E4208D292
:1037200051F8042D22FA04F52B430B6002FA00F342
:10373000F4E7243742463146384600F05BFA012868
:1037400007D043463A4631463046BDE8F04700F0E0
:1037500017BFBDE8F0872DE9F04793F9006092B0FC
:1037600004468946104631461546984600F06AFAE6
:10377000002840F098804246494602A800F0D6FB57
:10378000434602AA21460AA800F0C0FB02A9084647
:10379000424600F0CBFB43462A464946484600F0E5
:1037A000B5FB08F1040742462946284600F0BEFB57
:1037B0003B462A4621462046009600F0F5FA3B4655
:1037C0002A4629462846009600F0EEFA3B462A464D
:1037D00021462846009600F0B9FB43462A4621467A
:1037E000204600F093FB3B462246214628460096A1
:1037F00000F0DAFA3B4600962A462146204600F0C1
:10380000D3FA2368DB0714D533463A4621462046CF
:1038100000F0B6F931468246204600F050FD06F130
:103820008043013B54F8230040EACA7044F8230067
:1038300003E03146204600F042FD4246214628463C
:1038400000F074FB3B460AAA29462846009600F081
:103850007DFB3B460AAA29462846009600F076FBE7
:103860000AA908463B462A46009600F06FFB4346ED
:103870000AAA2146204600F049FB02AA3B46104610
:103880002146009600F062FB32462946204600F0B1
:1038900023FD32464946284600F01EFD324602A965
:1038A000484600F019FD12B0BDE8F08700487047A7
:1038B000ACB207002DE9F04FEDB01F46DDF8D8811E
:1038C0000590B8F9026098F9005020231F3696FB46
:1038D000F3F676B206F1FF3924AB002443F8294011
:1038E0006CAB03EB89034CA88A469346394698F99A
:1038F000012043F8804C43F8604CFFF7DFFE98F955
:10390000012054A8B918FFF7D9FE29464CA800F0A9
:1039100099F90746002840F02781294654A800F06D
:1039200091F90390002840F0218108F124033246E8
:103930004CA91846029300F05DF9012840F0188167
:10394000324654A9029800F055F90128069040F03B
:103950000F811CAC0CAF3346029A54A9204600F0EC
:103960003CFA039B47F829305A46514638464346AD
:10397000FFF7AEFE39463846029B0096224600F01D
:10398000B3FA0DF5B879029B009622464CA914A80B
:1039900000F0AAFA48462A46059900F09DFCAB00C3
:1039A00009EB030A0793059BA900591808F1440B7A
:1039B00050462A4600F090FC59462A4634A800F0AA
:1039C0008BFCAB000BEB03012A463CA800F084FC07
:1039D00008F10403494634AA20460095049300F0F8
:1039E000B5FA53464A463CA934A8CDF80080FFF703
:1039F000E1FD2B46049A2146204600F0EEF92246CE
:103A0000514648464346FFF73AFE039B089331462A
:103A1000059B0A933846CDF824B0CDF82C9000F0E1
:103A200030FC3146814614A800F02BFC4845B8BF55
:103A300048461FFA80F909F1FF3B0FFA8BFB594604
:103A4000384600F0CDFD5946071C14A818BF0127C1
:103A500000F0C6FD002814BF022300231F430DF110
:103A6000200A2A465AF8277024A8394600F034FC68
:103A70000DF1B00BAB00F9182A46584600F02CFCAB
:103A80002946204600F0AAF8A9F10209069B236006
:103A90000FFA89F90DF1900AB9F1000F45DB4346A1
:103AA0002246D8F8A47059465046B84749460CA853
:103AB00000F096FD4946071C14A818BF012700F026
:103AC0008FFD002814BF022300231F4308AB53F8C7
:103AD00027702FB32A46394634A800F0FDFB079B18
:103AE0002A46F9183CA800F0F7FB434622463CA9B9
:103AF00034A8FFF7C4FD049B009534AA514644A89E
:103B000000F024FA5B4652463CA934A8CDF8008068
:103B1000FFF750FD434644AA2146204600F0F6F93F
:103B200009F1FF390FFA89F9B6E72B46049A2146C5
:103B3000204600F052F94346224659465046FFF7C8
:103B40009EFD32465146029800F054F8012805D0F7
:103B50003346029A5146504600F012FD2A464CA9BF
:103B6000504600F05BF804E0204602E0384600E0F2
:103B700003986DB0BDE8F08F000000000000000069
:103B8000C3F10803DB0070B50133002403A500BFB7
:103B90005B1920C940CAAD1920C0184720C940CAC6
:103BA000754120C020C940CA754120C020C940CA03
:103BB000754120C020C940CA754120C020C940CAF3
:103BC000754120C020C940CA754120C020C940CAE3
:103BD000754120C06441204670BD00BF002210B571
:103BE000144653B28B4204DA1BB2013240F8234030
:103BF000F7E710BD10B5013A52B2002A0ADB13B242
:103C000050F8234051F823309C4205D8F3D24FF0AE
:103C1000FF3010BD002010BD012010BD70B5013A6D
:103C200052B20023002A09DB15B2013A50F8256090
:103C300051F825407440234352B2F3E7B3FA83F0BE
:103C4000400970BD10B500231A465CB28C4204DAFC
:103C500050F8244001332243F7E7B2FA82F04009DA
:103C600010BD00002DE9F04FA5B01C46039114AB28
:103C70002146804610461746029300F002FB494B4E
:103C8000C0EB841005B22B40002BBEBF03F1FF3305
:103C900063F01F030133202695FBF6F676B20FFA88
:103CA00083F904A83146FFF799FFB9F1000F30B24C
:103CB00014DD04AB002203EB8000C9F1200613469B
:103CC000A34212D257F8231001FA09FE4EEA02026B
:103CD00040F8232021FA06F20133F1E704AB224633
:103CE000394603EB800000F0F7FA27B27B0001931E
:103CF00004AB03EB870704F1FF3924AB012603EB88
:103D00008909002D42DB24AB0022C6F10100964652
:103D100003EB860A03EB8000019B51B299421BDA48
:103D20000FFA81FC5AF8883C53F82CB024AB03EB13
:103D3000810151F8803CC3EB0B03CEEB03039B45A1
:103D400004D034BF4FF0010E4FF0000E50F8881C25
:103D5000013241F82C30DFE7CEEB06035E4221460C
:103D600004A85E4100F0ABFA24AB03EB84032146C8
:103D700053F8802C59F8803C384643EAC273013D21
:103D800049F8803C2DB200F09AFABAE724AB03EB75
:103D90008606224656F8881C404600F09DFA25B05B
:103DA000BDE8F08F1F00008070B59DF910401E46E1
:103DB00023460546FFF7E4FE30B922462946304641
:103DC000FFF718FF012807D0234632462946284628
:103DD000BDE8704000F0D4BB70BDF0B50F46A1B097
:103DE00006461946384615461C46FFF72BFF20B1FC
:103DF00021463046FFF7F2FE74E022463946684617
:103E000000F06AFA2246294608A800F065FA214621
:103E100010A8FFF7E3FE0123214618A81093FFF72F
:103E2000DDFE224608A96846FFF7E4FE002854D0CC
:103E3000009BDA0704D42146684600F040FA26E0E9
:103E4000089BDB0704D4214608A800F038FA3EE0BE
:103E5000002823461FDD08AA6946684600F090FB4B
:103E60002146684600F02BFA224618A910A8FFF751
:103E7000C1FE002805DA10A923462A460846FFF7A6
:103E80007FFE10A9234618AA084600F079FB2246B7
:103E9000294610A81EE008A96A46084600F070FBF3
:103EA000214608A800F00BFA224610A918A8FFF72F
:103EB000A1FE002805DA18A923462A460846FFF77E
:103EC0005FFE18A9234610AA084600F059FB2246B7
:103ED000294618A800F066FCA3E7224610A9304640
:103EE00000F0FAF921B0F0BD70B590B005469DF92B
:103EF00050401E466846234600F03AF823463246B4
:103F000069462846FFF7AEFE10B070BD30B51C46BE
:103F100091B0054693F90030684600F029F8D4F8CE
:103F2000AC3069462846984711B030BD30B51446CC
:103F300091B0054692F90020684600F0DAF9D4F80D
:103F4000AC3069462846984711B030BD70B59DF930
:103F500010401E462346054600F012FB38B12346AA
:103F6000324629462846BDE87040FFF709BE70BDBD
:103F70002DE9F04F08B4F8CA04B451F8042BA3FBA0
:103F8000028940F8048B4FF0000AE4FB629A4FF07C
:103F9000000BE5FB62AB4FF0000CE6FB62BC4FF0A0
:103FA000000EE7FB62CE51F8042B4FF00008E3FB54
:103FB000628940F8048BE4FB629AE5FB62ABE6FBA6
:103FC00062BCE7FB62CE51F8042B4FF00008E3FB24
:103FD000628940F8048BE4FB629AE5FB62ABE6FB86
:103FE00062BCE7FB62CE51F8042B4FF00008E3FB04
:103FF000628940F8048BE4FB629AE5FB62ABE6FB66
:1040000062BCE7FB62CE51F8042B4FF00008E3FBE3
:10401000628940F8048BE4FB629AE5FB62ABE6FB45
:1040200062BCE7FB62CE40F8049B40F804AB40F86A
:1040300004BB40F804CB40F804EB0CBC052B00F0AB
:104040001E810C68A0F11400A1F11401A2F1140268
:1040500052F804EB4FF0000550F8046BE4FB6E5689
:1040600052F804EB50F8047BE4FB6E6752F804EB63
:1040700050F8048BE4FB6E7852F804EB50F8049B84
:10408000E4FB6E8952F804EB50F804ABE4FB6E9A43
:10409000A0F1140052F8044B51F804EB4FF0000C5F
:1040A000E4FB6EC540F804CB51F804EBE4FB6E561C
:1040B00040F8045B51F804EBE4FB6E6740F8046BD6
:1040C00051F804EBE4FB6E7840F8047B51F804EB04
:1040D000E4FB6E8940F8048B51F804EBE4FB6E9A24
:1040E000A0E80006062B00F0CA800C68A0F11800BA
:1040F000A1F11801A2F1180252F804EB4FF00005EB
:1041000050F8046BE4FB6E5652F804EB50F8047B55
:10411000E4FB6E6752F804EB50F8048BE4FB6E7816
:1041200052F804EB50F8049BE4FB6E8952F804EB60
:1041300050F804ABE4FB6E9A52F804EB50F804BB61
:10414000E4FB6EABA0F1180052F8044B51F804EBFD
:104150004FF0000CE4FB6EC540F804CB51F804EBC3
:10416000E4FB6E5640F8045B51F804EBE4FB6E6729
:1041700040F8046B51F804EBE4FB6E7840F8047BE4
:1041800051F804EBE4FB6E8940F8048B51F804EB22
:10419000E4FB6E9A40F8049B51F804EBE4FB6EAB31
:1041A000A0E8000C072B6AD008B40C68A0F11C0032
:1041B000A1F11C01A2F11C0252F804EB4FF0000522
:1041C00050F8046BE4FB6E5652F804EB50F8047B95
:1041D000E4FB6E6752F804EB50F8048BE4FB6E7856
:1041E00052F804EB50F8049BE4FB6E8952F804EBA0
:1041F00050F804ABE4FB6E9A52F804EB50F804BBA1
:10420000E4FB6EAB52F804EB50F804CBE4FB6EBC5D
:10421000A0F11C0052F8044B51F804EB4FF00003DE
:10422000E4FB6E3540F8043B51F804EBE4FB6E56BA
:1042300040F8045B51F804EBE4FB6E6740F8046B54
:1042400051F804EBE4FB6E7840F8047B51F804EB82
:10425000E4FB6E8940F8048B51F804EBE4FB6E9AA2
:1042600040F8049B51F804EBE4FB6EAB40F804AB60
:1042700051F804EBE4FB6EBCA0E8001808BCBDE8F4
:10428000F08F013949B2002909DA013149B2A1B1EF
:1042900001F18043013B50F82330002004E050F846
:1042A0002130002BEDD0F0E713B15B080130FBE7C4
:1042B000013900EB411108B270470846704700EB26
:1042C00081010023884206D251F8042D43EA5203AB
:1042D0000B60D307F6E7704730B5002463B2934212
:1042E00006DA1BB2013451F8235040F82350F5E7A9
:1042F00030BD2DE9F04FB1E8005E06B4AAFB09120B
:104300004FF00003EBFB69234FF00004ECFB693432
:104310004FF00005EEFB69454FF00006EBFB6A63CA
:10432000ECFB6A344918524176415B41A9FB09789C
:104330004FF0000949F1000918EB0108A0E88001DD
:10434000AAFB0A78574158EB0608A0E88001EEFB6B
:104350006A454FF0000A4AF1000A4FF00001ECFBF9
:104360006B14EEFB6B454FF00002EEFB6C255FEA31
:1043700059094941644152416D4149F10009EBFB42
:104380006B3A1AEB010AA0E80804ACFB0C6A664120
:104390005AEB020AA0E84004AEFB0E6A6E415AEBEB
:1043A000090AA0E8400406BC052A00F0E680A0F156
:1043B0001400A1F11401B1E8E043A5FB0E344FF065
:1043C0000005E6FB6E454FF00006E7FB6E564FF02A
:1043D0000007E8FB6E674FF00008E9FB6E784FF0CE
:1043E0000009DB1864416D4176417F4158EB0808B4
:1043F00059F1000950F804CB13EB0C0350F804CB2F
:1044000054EB0C0450F804CB55EB0C0550F804CBDE
:1044100056EB0C0650F804CB57EB0C0758F100088C
:1044200059F10009A0F11400EEFB0E89A0E8F80391
:10443000062A00F0A280A0F11800A1F11801B1E84D
:10444000E047A5FB0E344FF00005E6FB6E454FF04C
:104450000006E7FB6E564FF00007E8FB6E674FF073
:104460000008E9FB6E784FF00009EAFB6E894FF017
:10447000000ADB1864416D4176417F4158EB080822
:1044800059EB09095AF1000A50F804CB13EB0C035D
:1044900050F804CB54EB0C0450F804CB55EB0C054E
:1044A00050F804CB56EB0C0650F804CB57EB0C0736
:1044B00050F804CB58EB0C0859F100095AF1000AE6
:1044C000A0F11800EEFB0E9AA0E8F807072A54D0D6
:1044D000A0F11C00A1F11C01B1E8E04FA5FB0E34D6
:1044E0004FF00005E6FB6E454FF00006E7FB6E5609
:1044F0004FF00007E8FB6E674FF00008E9FB6E78AD
:104500004FF00009EAFB6E894FF0000AEBFB6E9A50
:104510004FF0000BDB1864416D4176417F4158EB51
:10452000080859EB09095AEB0A0A5BF1000B50F82D
:1045300004CB13EB0C0350F804CB54EB0C0450F8F1
:1045400004CB55EB0C0550F804CB56EB0C0650F899
:1045500004CB57EB0C0750F804CB58EB0C0850F881
:1045600004CB59EB0C095AF1000A5BF1000BA0F1E6
:104570001C00EEFB0EABA0E8F80FBDE8F08F0000CA
:10458000C3F10803DB0070B50133002403A500BFAD
:104590005B1920C940CAAD1B20C0184720C940CABA
:1045A000B54120C020C940CAB54120C020C940CA79
:1045B000B54120C020C940CAB54120C020C940CA69
:1045C000B54120C020C940CAB54120C020C940CA59
:1045D000B54120C06441B4FA84F0400970BD00BF09
:1045E0004A11012350F8220001F01F0103FA01F1E2
:1045F00008407047F0B5082289B00C460646FFF720
:104600006BFECB6A03930B6B04934B6B05938B6B25
:104610000693CB6B0793002708236A4669466846D2
:10462000029701970097FFF7ABFA082305466A4601
:1046300031463046FFF7A4FA236B0393636B049370
:10464000A36B0593E36B0693054408236A4669460A
:1046500068460797FFF794FA082305446A463146EF
:104660003046FFF78DFA236A0093636A0193A36AC9
:104670000293A36B0693E36B0793054408236A46F2
:1046800031463046059704970397FFF779FA636A36
:104690000093A36A0193E36AA26B0293636B039393
:1046A00004920693E26B236A0592054407936A46D7
:1046B000082331463046FFF763FAE36A0093236B21
:1046C0000193636B0293236A0693A36A07930544DD
:1046D00008236A4631463046059704970397FFF74B
:1046E0004FFF236B0093636B0193A36B0293E36B08
:1046F0000393636A0693E36A07932D1A08236A46B5
:104700003146304605970497FFF73AFF636B0093F5
:10471000A36B0193E36B0293236A0393636A04938D
:10472000A36A0593236B07932D1A08236A46314623
:1047300030460697FFF724FFA36B0093E36B0193CA
:10474000636A0393A36A0493E36A0593636B079315
:104750002D1A08236A463146304602970697FFF71E
:104760000FFF2D1A16D508230D4A31463046FFF7A4
:1047700007FA2D18F7D410E0082231460848FFF751
:1047800039FA012809D00823054A31463046FFF797
:10479000F7FE2D1A002DEFD0F5E709B0F0BD00BFF0
:1047A000B0B2070070B5036813F001050646144661
:1047B00005D013460A460146FFF7E2F905462146B1
:1047C0003046FFF77CFD45B104F18042013A56F8CE
:1047D000223043F0004346F8223070BD2DE9F0410D
:1047E00015468AB0044688462022002102A8FEF71A
:1047F00067FE2E1D95F9007003232A464146204688
:104800000293FFF793FB334602AA21462046009706
:10481000FFF79CFB2B46424621462046FFF776FBDE
:104820000097334605F1840221462046FFF7BCFA83
:104830000AB0BDE8F08100F01F020121914040095B
:10484000800000F1E020C0F88012704700F01F02E5
:10485000012191404009800000F1E020C0F80011E2
:10486000704700F01F02012191404009800000F1D3
:10487000E020C0F8001270474907090E002806DA48
:1048800000F00F0000F1E02080F8141D704700F1E7
:10489000E02080F800147047BFF34F8F054801688F
:1048A000054A01F4E06111430160BFF34F8F00BF7F
:1048B000FDE700000CED00E00400FA0507480021C8
:1048C000C0F84011C0F84411C0F84811C0F84C11AC
:1048D000C0F80011C0F8041106F060B800100140E3
:1048E0002DE9F047114F0446DDF8209038781D4639
:1048F0001646884608B900F0ABF93869A04211D9CC
:104900000A4904EB440001EBC00134B1C1F818803E
:10491000C1E907650020886248620020C1F82C9038
:10492000BDE8F0874FF0FF30FAE70000183D0020A7
:1049300070B50E46144900EB400001EBC00514466B
:10494000E86A183520B101280FD0022805D113E0FC
:10495000284600F0B1F9A04201D2002411E022461D
:104960003146284600F0E0F90BE0284600F0A4F9B3
:10497000A042F4D20446F2E73146284600F0A7F9F7
:104980000446204670BD0000183D002005F07EBFA3
:10499000074810B5406830B18047002807D0BDE80F
:1049A000104000F079BDBDE8104001F00BBF10BD14
:1049B000842C0020F0B598480023021D01780125C1
:1049C000101D4FF08056062907D11478240704D112
:1049D0000478C4F30314032C02D0062904D00FE09A
:1049E0008F4F8E4C7C670EE01478240708D1047832
:1049F000C4F30314032C06D0042C04D0052C02D0DD
:104A0000062907D00EE0D6F84442864FC4F342345C
:104A10003C6002E01478240704D10478C4F3031442
:104A2000032C02D0062906D011E07F4C276827F01E
:104A3000807727600EE01478240708D10478C4F347
:104A40000314032C06D0042C04D0052C02D0062914
:104A50000AD011E04FF08044C4F80C31C4F8103192
:104A6000704C241F236002E01478240704D10478DA
:104A7000C4F30314032C02D0062905D00CE0694FBF
:104A8000032464373C600AE01478240704D10478D6
:104A9000C4F30314032C02D006290DD014E0634F95
:104AA00005243C60614C78342560604C08342360F8
:104AB0003F243F1D3C6002E01478240704D10478B1
:104AC000C4F30314052C02D0062957D068E05849D6
:104AD0000968584A11605649091D0968121D11607C
:104AE000534908310968121D116051490C31096898
:104AF000121D11604E4910310968121D11604C4998
:104B000014310968121D1160494918310968494A70
:104B10002032116046491C310968121D1160444958
:104B200020310968121D1160414924310968121DA4
:104B300011603F4928310968121D11603C492C3130
:104B40000968121D11603A4930310968394A40320A
:104B50001160374934310968121D11603449383108
:104B60000968121D116032493C310968121D11603B
:104B70002F4940310968121D116002E011780907C0
:104B80000ED10078C0F30310032803D0042801D00D
:104B9000052805D1D6F85802274900F04F000860D3
:104BA00021487438016841F470010160BFF34F8FF0
:104BB000BFF36F8F4FF01021D1F80002002803DB04
:104BC000D1F80402002822DA1C4A15601C48046847
:104BD000002CFCD01524C1F800420568002DFCD043
:104BE000C1F8044201680029FCD013600168002963
:104BF000FCD0BFF34F8F0C48F0380168114A01F424
:104C0000E06111430160BFF34F8F00BFFDE70F4923
:104C10000D480860F0BD0000E00F00F00DF0ADBAE7
:104C200000C007403C050040FCED00E0105600408D
:104C30000404001020C50040E40E004004E50140DB
:104C400000E401400400FA050090D003982C0020F5
:104C500010B5124C02202061606111A0A061A4F582
:104C60008260E0614FF4806020620020A062606298
:104C70000BA1A164E062A4F11001E164102121659F
:104C8000A0656065E06509A1E01DFEF736FC08A19E
:104C90002046FEF732FC2020A07110BD183D0020F8
:104CA0005465726D696E616C0000000052545400CE
:104CB00053454747455200000269C1688A4203D8FC
:104CC0008068401A104400E0501A401E70472DE9D9
:104CD000F047C4681746894606464FF00008306919
:104CE000A04201D9051B02E0B168201A0D1AB06874
:104CF0006D1E001BA84200D80546BD4200D33D46AC
:104D000070682A4620444946FEF7BFFBB0687F1B07
:104D10002C44A844A944A04200D10024F460002FF0
:104D2000DDD14046BDE8F0872DE9F041C668044674
:104D3000174688468068851B6068BD4206D93044A6
:104D4000FEF7A3FBF019E060BDE8F0812A4630448D
:104D5000FEF79BFB7E1B08EB050132466068FEF701
:104D600094FBE660F0E700000FB4084B10B504A90F
:104D700002AA039800F02EF8044602A9002000F0D1
:104D80005AFA204610BC5DF814FB000037520700A9
:104D900002E008C8121F08C1002AFAD17047704704
:104DA000002001E001C1121F002AFBD17047000062
:104DB0000121202803DA81400548014003E0402812
:104DC00002DA2038814009B1012070470020704785
:104DD000FC06FFBC2DE9FF4F8DB00F4605460026AF
:104DE00006E025280BD0DDE90F1290476D1C761CDC
:104DF00028780028F5D111B03046BDE8F08F0024A6
:104E0000A246A1460122EC4900E0044315F8013F07
:104E1000203B02FA03F00842F7D128782A2810D064
:104E20006FF02F022878A0F13001092914D80AEB7D
:104E30008A0102EB410144F0020400EB010A6D1CFF
:104E4000F0E701CF5FEA000A03D544F40054CAF149
:104E5000000A44F002046D1C28782E2817D115F89A
:104E6000010F44F004042A280ED06FF02F02287896
:104E7000A0F1300109290AD809EB890102EB4101AF
:104E800000EB01096D1CF2E757F8049B6D1C2878B4
:104E90006C280FD006DC4C2817D068280DD06A2863
:104EA00014D104E0742810D07A280FD10DE044F416
:104EB00000140AE044F4801401E044F440146978DA
:104EC000814202D104F580146D1C6D1C2A786E2A73
:104ED0001FD00CDC632A31D004DC002A8BD0582A86
:104EE00011D1A3E0642A68D0692A0CD165E0732A45
:104EF0002ED004DC6F2A73D0702A04D19BE0752A6F
:104F00006FD0782A6ED01046DDE90F129047761CDC
:104F100050E1C4F30250022806D0032809D0042827
:104F200001CF09D0066045E101CFF117C0E900616A
:104F300040E101CF06803DE106703BE117F8040B2C
:104F40008DF8000000208DF80100EB46012003E001
:104F500057F804BB4FF0FF3061074FF0000102D457
:104F60000DE008F10101884649450FDA8045F8DB7C
:104F70001BF808100029F4D108E008F10101884667
:104F80008142FADB1BF808100029F6D1DDE90F2376
:104F9000AAEB08008146214600F036F9304400EBC8
:104FA000080604E0DDE90F121BF8010B9047B8F189
:104FB0000108F7D221464846F7E00A21C4F302531C
:104FC0004FF0000B0891022B04D001CFC117032B27
:104FD00009D00AE0FF1D27F00707F7E8020108E003
:104FE00032E01FE020E000B2C117042B01D140B233
:104FF000C117031E71F1000307DA4FF0000CD0EB6C
:105000000C006CEB01012D2302E0230504D52B23BA
:105010008DF82430012303E0E30701D02023F7E7D4
:10502000984658E00A2110E010210EE010204FF0C1
:10503000000B08900CE010214FF0000B44F004042A
:105040004FF00809089103E008214FF0000B089188
:10505000C4F30253022B04D001CF0021032B06D04E
:1050600006E0FF1D27F00707F7E8020103E080B222
:10507000042B00D1C0B24FF0000823072BD5702AB3
:1050800007D0DDF820C08CF0100C5CEA0B0C05D0CA
:105090000EE040238DF82430012308E050EA01039C
:1050A00006D030238DF824308DF825200223984631
:1050B000DDF820C08CF0080C5CEA0B0C0BD150EA38
:1050C000010301D1630706D530238DF824304FF05A
:1050D0000108A9F10109582A04D038A20B9208AAA4
:1050E0000A920BE03AA2F9E75B46089AFEF70EFA3D
:1050F0000B9B9B5C0A9A521E0A92137050EA0102A3
:10510000F2D10A98ADEB000000F1200B600702D548
:1051100024F4803401E04FF00109D94502DDA9EB08
:105120000B0000E0002000EB0B0141440890AAEBCB
:10513000010AE00306D4DDE90F232146504600F0C2
:1051400063F806444FF0000908E009A911F80900C6
:10515000DDE90F12904709F10109761CC145F4DB26
:10516000E0030CD5DDE90F232146504600F04CF852
:10517000064404E0DDE90F1230209047761C0899C0
:10518000481E08900029F5DC08E00A980A99007882
:10519000491C0A91DDE90F129047761CBBF1000112
:1051A000ABF1010BF1DC21465046DDE90F2300F0A5
:1051B00019F806446D1C1BE6092801003031323312
:1051C0003435363738396162636465660000000043
:1051D000303132333435363738394142434445462D
:1051E000000000002DE9F041044600251E46174648
:1051F000880404D405E039462020B0476D1C641EA5
:10520000F9D52846BDE8F0812DE9F0410446002596
:105210001E469046C80301D5302700E020278804A9
:1052200004D505E041463846B0476D1C641EF9D5EB
:105230002846BDE8F0810A68531C0B601070704767
:105240002DE9FC47002517880646158090F82D00AB
:105250001446894630B13A462146484600F058FB8C
:10526000050009D1B0784FF00C0A18B32088C84661
:10527000001DB84202D95046BDE8FC87684679DF78
:105280000028F9D12088032108F80010208819216E
:10529000401C80B2208008F800102088401C80B29A
:1052A000208000EB0801BDF8000005F0D1FB21884B
:1052B00008442080F0780222C8B1218896F9033092
:1052C00001F1030C4846BC45D5D8425421884FF023
:1052D000010C491C89B2218000F801C02188491CB9
:1052E00089B2218009F801302088401C2080706834
:1052F000B8B1218890F9003001F1030C4846BC4553
:10530000B9D8425421880A22491C89B221804254CA
:105310002188491C89B2218009F801302088401C6D
:105320002080308950B1CDE900474B46062202214A
:1053300006F1080005F0E2FB05009DD1308A50B16E
:10534000CDE900474B460722032106F1100005F086
:10535000D5FB050090D1308B50B1CDE900474B46CD
:105360001522142106F1180005F0C8FB050083D1B1
:10537000306A30B13B462246494600F0A7FC0500A2
:10538000DBD1706A30B13B462246494601F080FBD2
:105390000500D2D196F82C0038B13B46224649464A
:1053A000304604F0FBFF0500C7D1307838B13B46EA
:1053B00022464946304601F09DFB0500BDD12846F6
:1053C0005AE70000F0B5214D93B0287A800702D546
:1053D000002013B0F0BD002401268DF84A604FF67E
:1053E0005960ADF848000E940F941094062711945C
:1053F00038216846FEF762F802208DF8000012A8F6
:105400008DF8024003908DF80370ADF8086000211C
:10541000684600F0D5F90028DBD18DF840402820FF
:10542000ADF842008DF838400F94ADF844400EA816
:1054300073DF0028CDD1064970040860122003F004
:105440003BFDA86840F00200A860C1E7382C0020AE
:105450000C0500500B46024602A1012003F089FE14
:10546000FFF71AFA3A4552524F523A72656365692C
:105470007665642061206661756C74212069643AE8
:10548000203078253038782C2070633A2030782608
:105490003038780D0A000000024603A1012003F015
:1054A00061FEFFF7F9F900003A4552524F523A7245
:1054B0006563656976656420616E206572726F72DE
:1054C0003A20307825303878210D0A002DE9F84F40
:1054D000254C8146924660880E46814241D800277D
:1054E0004FF6FF788DF80070684600F02BF92278AF
:1054F0006078A188884201DA401C00E00020C0B238
:10550000904204D19DF8000000F040F927E0657852
:105510006078884201DA401C00E0002060709DF84D
:10552000000000F033F9454519D0A068B9F1000F2B
:1055300040F835A00DD066B16188E068324605FBC1
:1055400001004946FDF7A1FFA06800EBC500868079
:1055500002E000EBC50087800020BDE8F88F042042
:10556000FBE70920F9E70000502C002010B50E4C95
:1055700003E0401C00E00020207020786178814228
:1055800010D022786188E068A36802FB010003EB79
:10559000C20153F83220898890472078A188884238
:1055A000E9DAE6E710BD0000502C002030B5CB0052
:1055B00008339DB293074FF0000401D0072030BD9F
:1055C000044B9A602A44DA605C701C7058809980A1
:1055D000002030BD502C0020074B5B6823B12AB15E
:1055E00020B10068037C1BB108207047072070477A
:1055F0004174426100207047702C002010B50446B1
:10560000082902D00020FFF747FFD4E90010BDE8C9
:10561000104008471CB5044ACDE90001082168463E
:10562000FFF754FF1CBD0000FD5507002DE9F047B2
:10563000074698461446894690074FF0000526D144
:105640002CB304F001FE134E06F11000C6F80C80D6
:105650000570457080F80290446075603570757013
:105660001420FFF7E8F806211420FFF705F91420AD
:10567000FFF7ECF80848076006211120FFF7FCF857
:105680000548001F0068B0600020BDE8F0870720D3
:10569000FBE70000602C0020081501402DE9FC47C5
:1056A000DFF87890D9F8043073B368B3052902D2D3
:1056B0000720BDE8FC87436933B3437C012B25D029
:1056C000002704460025884616468DF80050684697
:1056D00000F038F801A805F0F9F9C8B1012101700E
:1056E0000F4944600968C0E90218C0E904769DF8D2
:1056F000040089F801009DF8000000F047F814202C
:10570000FFF7AFF82846D4E70820D2E70F46D8E7DE
:1057100004259DF8000000F039F8F3E7702C002014
:10572000041501400649496839B130B1416921B1D8
:1057300000210174022105F00DB908207047000016
:10574000702C002030B5EFF3108172B60D4A9468CA
:10575000012324B10370002900D162B630BD9360EB
:105760004FF0E023D3F88051074C25401560C3F873
:105770008041D3F8844154605A17C3F88421002231
:105780000270E8E778370020FC06FFBC0B498A6806
:10579000002A11D000280FD1EFF3108072B60B68E9
:1057A0004FF0E022C2F800314B68C2F80431002209
:1057B0008A60002800D162B6704700007837002068
:1057C000F0B50C4693B01F210726ADF80010ADF8D8
:1057D0000410002750B1C17849070DD56A4602A9C7
:1057E000FFF72EFD002808D102AD02E00025ADF83C
:1057F00000706CB1E07810B1304613B0F0BD01AA72
:105800000AA92046FFF71CFD0028F6D10AAA02E0EB
:105810000022ADF80470BDF80400C3B2BDF800006A
:10582000C1B2284672DFE8E770B5054601461C2282
:105830000F48FDF72AFE0F4C00262670286830B16D
:10584000016861604068A060201D7ADF02E00948BD
:10585000001D7BDF00280AD14FF6FF706080667064
:10586000BDE87040044A00210448FFF7B5BE70BD92
:1058700068320020242C00206DAA070050AD0700DC
:1058800070B51E4C068800231B49E289102E15D0E6
:105890001B4D112E1CD0122E29D0502E17D130F8AE
:1058A000061F914213D14189022910D10C3000F01A
:1058B00046F988B1BDE8704000F04EBA84884C804B
:1058C0000469CC60406908614B70002AF2D070BD59
:1058D0004FF6FF7048804B702868FFF723FF0028C1
:1058E000F5D0A1690029F2D0BDE870400847826870
:1058F000CA60C0680861DDE7242C002068320020FF
:1059000050AD070001480068FFF70CBF50AD07001D
:105910007CB5054608880C460930904201D90C2018
:105920007CBD68466DDF0028FAD1218808206854C4
:1059300020881B21401C80B2208029542088401CD4
:1059400080B220802844DDF801100160BDF8051008
:1059500081802088801D80B220809DF80010490839
:1059600000D0012129542088401C208000207CBDCB
:1059700030B585B004002AD0164D4FF6FF70224690
:10598000288001208DF812004FF65960ADF8100004
:1059900004A90120A0DF002817D10F4B0FCB8DE801
:1059A0000F00A11C684663DF00280ED1204600F0DE
:1059B00059FD002809D1204600F0D6FA002804D16C
:1059C000A86840F00100A860002005B030BD0E209E
:1059D000FBE70000382C002058AD070070B5184CCC
:1059E0000025A068410701D5002070BD40F00400EB
:1059F000A06014A1032003F0B1FB214801F024FAB8
:105A000020A1032003F0AAFB2088A0F57F41FF39E5
:105A100004D0132176DF0500E7D10CE0207A80075F
:105A200009D574DF0028E0D1112003F045FAA06801
:105A300040F00200A060FFF765FF284670BD00003F
:105A4000382C00203A494E464F3A57616974696EC6
:105A50006720666F72206275666665727320746F68
:105A600020626520636C6561726564206265666FA3
:105A7000726520646973636F6E6E6563740D0A00EE
:105A8000C0D401003A494E464F3A446973636F6E81
:105A90006E656374696E670D0A00000000B587B01B
:105AA000112003F002FA122003F0FFF9112003F095
:105AB00003FA122003F000FA012000F045F8002854
:105AC0002BD1174804F020FE002826D100F044FE18
:105AD000002822D11348FFF74BFF00281DD11C21BD
:105AE0006846FDF7EBFC40F6CD4001904FF4804056
:105AF000029003208DF80C000020ADF80E008DF808
:105B00001000094806906846FFF78EFE002804D171
:105B100007B05DF804EBFFF755BC07B000BD00000F
:105B20002D5B0700D4320020555D070010B50446F8
:105B3000FFF7A6FE2046BDE8104003F087BB0078C3
:105B400000F001007047000000B5154989B00968F0
:105B5000079118B102F006FD00281ED1114A12A1CA
:105B6000032003F0FFFA0F4813DF002815D1164B6E
:105B70005022164907A804F065FE08B1FFF78CFC17
:105B800001216A46084604F037FE002805D1172097
:105B9000ADF81000684604F0C1FD09B000BD00007A
:105BA00054AD0700003007003A494E464F3A76653B
:105BB00063746F72207461626C653A2030782530AE
:105BC00038780D0A0000000031A807008432002058
:105BD000002901DA002070470268114401600120A9
:105BE000704710B543689C18446021B905E013F86C
:105BF000010B01F8010B521EF9D2012010BD00006B
:105C000038B10549814204D80449814201D90120B3
:105C100070470020704700009C2C0020AC2C002016
:105C20002DE9F05F26484168F1B3DFF898B00E68BF
:105C30008146DBF8004087688078E11B21F07F45D2
:105C4000ED1CB0B9DFF880804FF48030C8F8440311
:105C5000C8F804031120FEF7EEFD1120FEF7F6FD53
:105C60004FF0010AC8F800A02F2001F033F989F89D
:105C700002A0B54200D23546124BE8193C3320F061
:105C80007F401860DBF800105A46091B21F07F4165
:105C9000001B20F07F40C91C81420FD9106818609A
:105CA0002F2001F017F900E004E0BDE8F05F1120BB
:105CB000FEF7D7BDBDE8F05F04F0C6BABDE8F09FBF
:105CC000602C002004150140001001402DE9F04136
:105CD00017880646B81D14460D46984202D90C2076
:105CE000BDE8F0813188072206290AD34FF4486CB9
:105CF0004FF6FF73614501D9994202D17088062899
:105D000001D21046ECE7604501D99842F9D1994299
:105D100003D0984201D08142F3D80520E85520886D
:105D20001221401C80B2208029542088401C80B25F
:105D300020804119308804F08BFE2188084480B20D
:105D400020804119708804F083FE21880844208057
:105D50000020C5E7FFF7A0BBF8B5134800F070FDC1
:105D6000114D0026114C0C3D30B16169B9B10120D3
:105D70008DF80000684611E0287820B1616971B1A2
:105D80008DF80060F6E7687858B1A16808480022ED
:105D90000068FFF783FC10B1A16901B188472E703C
:105DA000F8BD6168F2E70000302C00206832002066
:105DB00050AD0700F0B54FF0FF3622B11268D24364
:105DC00000230A4D0DE03246FAE7C45C6240082425
:105DD000D70700D037462F4087EA5202641EF7D11A
:105DE0005B1C8B42F1D3D043F0BD00002083B8EDA3
:105DF000F0B5146906468DB020681546271DE0B140
:105E0000022920D00A2000906B4609AA304604F0EF
:105E100017F900280FD009A901A8009A03F0EEFF96
:105E200001AE96E80F0005AE86E80F0023686968AA
:105E30003A4605A898470DB0F0BD0DB03046BDE814
:105E4000F04004F04FB86946304603F0E1FF002807
:105E5000F1D0236869683A46684698470028EAD036
:105E600002980028F5D1019870600120E3E753689B
:105E70005B7813F0C00303D0402B03D000207047A1
:105E800000F002B8FFF7B4BF2DE9FF410B4651689F
:105E9000064614464878334D00F00F0210F03000EB
:105EA00055F8225006D0102806D0202808D03028D7
:105EB00056D13EE022694DE061690120087047E05B
:105EC000022B28D1042A26D84FF001086946304613
:105ED000676903F09DFF00281AD009E00B79226959
:105EE00013FB00226846A84770B13878401C387010
:105EF000029820B1616838784A799042EED30198CF
:105F00007060029860BB02E04FF00008F7E740467F
:105F100004B0BDE8F081D4E904300F79027817FBB2
:105F2000023349798A421BD2521C02701A466168B8
:105F300010E008786169072A087009D16068017962
:105F40002069FDF7BBFA60682169806803F07BFF78
:105F50002269616804B03046AC46BDE8F041604754
:105F60000020D5E7B8AE070010B58EB004461C215E
:105F70006846FDF7A3FA142108A8FDF79FFA9DF8DB
:105F80000010002041F0180107908DF80010A17852
:105F90008DF836100121ADF834109DF81C1004F175
:105FA0000C0321F0FF018DF81C109DF81D1008AAAC
:105FB00021F00F01491C21F0F00110318DF81D1066
:105FC0009DF81E1021F00601891C41F011018DF889
:105FD0001E100DA9089107A909911721ADF82C10E1
:105FE0000C9020886946A2DF0EB010BD024881687F
:105FF000491E816070470000002C00201FB5114829
:1060000000F15C01826B684603F0F8FE0E489DE8E3
:106010000E0080E80E000C490C480E4AC8600C497E
:106020000020086048600C49074803F06DFC10B17F
:10603000012004B010BD09A1032003F08FF8002057
:10604000F7E700001C360020383200203D9C070096
:106050001C2C0020AC2C00202CAD07003A494E46E9
:106060004F3A48616E646C65723A20496E76616C95
:1060700069642070726F746F636F6C2062756666FE
:1060800065722073747265616D0D0A002DE9F04729
:1060900098465FEA0209054600F104044FF0000645
:1060A00028D0B8F1000F25D094F85F007D4F18B1CB
:1060B00094F86000002843D1207AD8B1E0683428F1
:1060C00018D100204FF44052217C11E004EB8003F2
:1060D000B2F80CC05B69634509D194F8250060B142
:1060E000012813D002280DD003281DD10AE0401C3E
:1060F0008142EBDC0A20BDE8F08720780028F9D047
:10610000BE6803E020780028F4D0FE6866A133461C
:106110000320626803F02DF894F8250048B10228A6
:106120000BD003280CD108E069A1032003F016F876
:10613000E0E76068B042DDD302E06068B042D9D9E0
:1061400095F870000028D5D16A486949016020217E
:10615000416069A1032003F001F8388F514A83B2EE
:106160005C326BA1032002F0DFFF69A1032002F083
:10617000F5FF6AA1032002F0F1FF1FFA88F34A46F7
:1061800063A1032002F0D0FF61A1032002F0E6FF2B
:10619000584B42464946052000F0D2FD0028A9D1BF
:1061A000534805F1720195F871200E462030FDF735
:1061B0006CF960A1032002F0D1FF15F8713F32465F
:1061C00053A1032002F0B0FF51A1032002F0C6FF4B
:1061D000484847490838203101602A7842605AA16E
:1061E000032002F0BFFF434B424A083B5D490420B5
:1061F00000F0CCFD08B105207DE75BA1032002F093
:10620000ADFF3C4D00201C3D286194F8251041B3A2
:10621000012933D05A480229C0F5FC2027D0032990
:1062200082D194F82C10002982D094F826100029ED
:10623000FAD0A26A216B53182B6132B329B3814281
:106240000DD8202204F13F012948FDF71EF92869E5
:10625000D8B1284A0021103A01F092FDB8B10420CB
:1062600049E794F834000028DED0A06B0BE094F8E6
:106270002C100029D8D0216B2961E0E794F8260082
:106280000028D1D0A06A2861DBE7032033E73DA1D5
:106290000320EA6802F066FF43A1032002F05EFFDC
:1062A000012028E71C3600203A494E464F3A5265F5
:1062B000712076657273696F6E3A2025642C2050C8
:1062C000726573656E743A2025640D0A0000000043
:1062D0003A494E464F3A556E6B6E6F776E20465771
:1062E0002075706461746520747970650D0A000012
:1062F000D83100201C2C00203A494E464F3A496EB6
:10630000697420636F6D6D616E643A0D0A00000060
:106310003A494E464F3A0D0A000000003A494E46AF
:106320004F3A705F496E697420636F6D6D616E6482
:106330003A0D0A003A494E464F3A5369676E617406
:106340007572650D0A0000003A494E464F3A73696E
:10635000676E6174757265206C656E3A2025640DF8
:106360000A0000000CAC07003A494E464F3A496D0E
:106370006167652076657269666965640D0A00006B
:10638000003007003A494E464F3A5772697465200B
:10639000616464726573732073657420746F203058
:1063A00078253038780D0A003A494E464F3A44462F
:1063B000552070726576616C69646174652053550F
:1063C000434345535346554C210D0A0010B582787E
:1063D000012A01D0052010BD0C4A0CCAFFF756FE59
:1063E0000446012805D00AA1032002F0B7FE20468A
:1063F00010BD0EA1032002F0B1FE12A1032002F095
:10640000ADFE002002F0CCFBF1E700001C2C0020C8
:106410003A494E464F3A50726576616C69646174D0
:1064200065204641494C4544210D0A003A494E46F3
:106430004F3A50726576616C6964617465204F4BA8
:106440002E0D0A003A494E464F3A536176696E67FF
:1064500020696E697420636F6D6D616E642E2E2EDF
:106460000D0A000010B58EB004461C216846FDF7E9
:1064700025F8142108A8FDF721F89DF80010002048
:1064800041F0040107908DF80010A1788DF83610C6
:106490000221ADF834109DF81C1008AA21F0FF016C
:1064A0008DF81C109DF81D1021F00F01491C21F0E2
:1064B000F00110318DF81D109DF81E1021F006011D
:1064C000891C41F001018DF81E100DA9089107A942
:1064D00009911421ADF82C100C902088231D6946D9
:1064E000A2DF0EB010BD0000044A09B900231370EA
:1064F0005268002A00D0104770470000482C002046
:10650000F8B51C4617460D46060018D0BDB1B4B10B
:1065100000F0A4F9A8B1284600F0A0F988B12046FF
:1065200000F09CF968B1FDF7C1F9009023463A46A6
:1065300029463046FDF7BEF928B10020F8BD0E20EF
:10654000F8BD1020F8BD0B20F8BD00000E4910B5B5
:106550000A784C780023A24212D0521CD2B20A70A0
:10656000022A00D10B70084A0B78183252F8232007
:1065700002608868104420F07F408860012010BDD0
:106580000360002010BD0000602C0020F8B5064616
:106590001A481F46154600780C46C00708D03046FA
:1065A000FFF72EFB30B13CB1200507D00620F8BD27
:1065B0000120F8BD0220F8BD0320F8BD3068A042DC
:1065C00004D8716804EB0530884201D90520F8BD74
:1065D0007DB1684603F0CAFC68B100980221C0E9A9
:1065E00000670172210B8181058203F013FD0020F9
:1065F000F8BD0420F8BD0720F8BD0000802C002065
:1066000070B50E4C06460D00206820F00100206099
:106610000FD00BA1032002F0A1FD206840F0020082
:1066200020607268002A07D029463046BDE87040D5
:10663000104720F00200F3E770BD0000442C00205A
:106640003A494E464F3A47656E65726174696E67A6
:10665000206661696C7572650D0A00000348017857
:1066600041F001010170002070470000802C0020E3
:106670002DE9F84307461D48DDF820801E460078C6
:1066800015460C46C0070CD03846FFF7B9FA50B192
:106690005DB154B145EA0400800708D00620BDE88A
:1066A000F8830120FBE70220F9E70320F7E73868C9
:1066B000A04204D8786804EB8601884201D2052004
:1066C000EDE77EB1684603F051FC68B10098012106
:1066D000C0E900780172C0E90354868203F09AFC95
:1066E0000020DCE70420DAE70720D8E7802C002030
:1066F00070B5174A17490446106E0B7800EB40003E
:1067000002EBC0009D0715D5022C02D0032C1BD133
:1067100002E002F053FF17E04A78521CD2B24A70EE
:10672000032A11D900224A70082103F0E5FD03F085
:1067300007FC09E0580707D523F004000870526EE3
:1067400012B140F002000870BDE8704003F02ABCAE
:1067500084370020802C002010B586B000249DF8DE
:106760000000019420F00F00401C20F0F0001030D9
:106770008DF80000029403A86DDF00281CD19DF85D
:106780000D00401C8DF80D0003A86CDF002813D10C
:1067900007220AA168467CDF00280DD10C20ADF845
:1067A00004001820ADF80600ADF808404FF4C8709A
:1067B000ADF80A0001A87ADF06B010BD4466755432
:1067C00061726700F8B51D4C2078002834D020692C
:1067D00028B10026E06820B1002526B113E001268B
:1067E000F8E70125F9E76078002825D1684648DFF9
:1067F000052803D020B1FEF74FFE04E0012602E099
:106800002169009888479DB96078002814D1608874
:10681000ADF800006946A06861DF052803D020B10B
:10682000FEF73AFE04E0012502E0D4E902018847C0
:10683000002ED8D0002DD0D0F8BD0000842C002030
:10684000054940880A88904204D34988884201D883
:106850000120704700207047282C0020800701D0BD
:10686000002070470120704770B5054608680C4647
:106870004A6886682846314603F006FA606828614F
:1068800004F10C00686170780221B1EB901F01D116
:10689000241D2C6170BD00002DE9F043264CA4F1AD
:1068A00010092278D9F8048099F80350404694F8EA
:1068B00001C0D9F8086031E002EB42036168521C64
:1068C00001EBC301A378D2B2934200D100220B782E
:1068D000022B02D0032B21D11DE003464F6819463D
:1068E00003E0B94203D00B46C969B9B1F9E7A9B1D0
:1068F0008B4205D1C06918B9104E0125B56000263C
:106900000F68C969D96149B10B683B440B6005E068
:106910000174C06900E000210028F9D19445CBD171
:10692000C9E9010689F80350404502D00120BDE8BD
:10693000F0830020FBE70000702C002000100140D5
:106940002DE9F0412A4F0446002607F11005D7F83B
:1069500004803EE002D02046E4691DE028786968A2
:1069600000EB4002401CC0B201EBC2012870AA78C3
:10697000904200D12E700A784868012A2BD1027CFF
:106980004ABB8A684260CA6882600A69C260496913
:106990008161F97801B146604368BA68DFF854C094
:1069A000991A21F07F41614502D28268114406E0C4
:1069B000D11A826821F07F418A4202D9511A0160BE
:1069C00000E006604660012186600174C66103F044
:1069D000A3FF002CBED1287869788842BED179689F
:1069E000414502D00120BDE8F0810020FBE7000016
:1069F000602C0020FFFF7F007CB5002002F0DEFB52
:106A000018A1032002F0AAFB11241426002501225C
:106A10002046009500231146019502F035FA641CCA
:106A2000B442F4D914494FF4F0100860091D4FF432
:106A3000002008600323CDE90053002210201146F6
:106A400002F022FA00F04AF908B1FEF725FD4FF4F2
:106A50004050806800F09CF808A1032002F07EFB03
:106A600000207CBD3A494E464F3A496E73696465D1
:106A7000206D61696E0D0A00080500503A494E46C6
:106A80004F3A4166746572206D61696E0D0A0000AF
:106A900070B5144682880E4605462088111D0144B3
:106AA000921C994201D8FE2A01D90C2070BD521CBB
:106AB00032542088FF21401C80B22080315420882D
:106AC000401C80B220808119288803F0C1FF2188F2
:106AD000084480B22080AA8842B1A96841B13044FC
:106AE000FCF7D3FC2088A98808442080002070BDD2
:106AF000072070BDF8B50E460178144605460129F9
:106B000001D1687830B12088821C9A422DD80129A1
:106B100002D006E00720F8BD69780144891C99423B
:106B200023D8181A801E87B2ADF800702188B01CD7
:106B3000084469467DDF0028EDD12878022805D178
:106B4000BDF80010B94201D809210AE00821012846
:106B500005D16878B84202D8ADF8000001E0ADF880
:106B60000070BDF80000FE2801D90C20F8BD228875
:106B7000401CB0542088401C80B2208031542088B2
:106B8000401C2080BDF80010084420800020F8BD83
:106B900010B50446024613A1032002F0E3FA01F007
:106BA000E1FC08B11FA112E029A1032002F0D6FAEE
:106BB0004FF0E0214FF0FF30C1F8800122462CA1B8
:106BC000032002F0CFFA204613DF28B134A1BDE83C
:106BD0001040032002F0C2BA2046BDE81040FCF786
:106BE00019BC00003A494E464F3A52756E6E696EB6
:106BF00067206E72665F626F6F746C6F616465723E
:106C00005F6170705F73746172742077697468205B
:106C1000616464726573733A203078253038780D7A
:106C20000A0000003A494E464F3A4661696C656475
:106C30002072756E6E696E67206E72665F6466752F
:106C40005F6D62725F696E69745F73640D0A000044
:106C50003A494E464F3A44697361626C696E6720E7
:106C6000696E74657272757074730D0A00000000AD
:106C70003A494E464F3A53657474696E67205344DF
:106C800020766563746F72207461626C6520626146
:106C900073653A203078253038780D0A00000000FE
:106CA0003A494E464F3A4661696C65642072756E8A
:106CB0006E696E672073645F736F6674646576696E
:106CC00063655F766563746F725F7461626C655F44
:106CD000626173655F7365740D0A000010B507A1EA
:106CE000032002F03BFA01F021FB040004D10BA1C8
:106CF000032002F033FA204610BD00003A494E4608
:106D00004F3A496E206E72665F626F6F746C6F618E
:106D10006465725F696E69740D0A00003A494E46F7
:106D20004F3A4166746572206E72665F626F6F746F
:106D30006C6F616465725F696E69740D0A000000B2
:106D400070B59CB01C4615460E46052802D006209C
:106D50001CB070BD6068202801D00920F8E76846A3
:106D600003F0E8FB0028F3D12A463146684603F0D9
:106D7000A1FC0028ECD101226846216803F052FBF7
:106D80000028E5D1202060600020E1E730B404282D
:106D900002D0062030BC70474868402802D15868AD
:106DA000402801D00920F5E71B68D2E900450868B2
:106DB0002A46214630BCFFF7A3BB000000283ED086
:106DC0001F49204A096800BF00BF00BF00BF00BFC5
:106DD00000BF00BF00BF91422FD000BF00BF00BF67
:106DE00000BF00BF00BF00BF00BF00BF00BF00BFAB
:106DF00000BF00BF00BF00BF00BF00BF00BF00BF9B
:106E000000BF00BF00BF00BF00BF00BF00BF00BF8A
:106E100000BF00BF00BF00BF00BF00BF00BF00BF7A
:106E200000BF00BF00BF00BF00BF00BF00BF00BF6A
:106E300000BF00BF00BF00BF00BF401EC3D17047EE
:106E4000982C00200024F40000283ED01F49204A3E
:106E5000096800BF00BF00BF00BF00BF00BF00BF88
:106E600000BF91422FD000BF00BF00BF00BF00BFD6
:106E700000BF00BF00BF00BF00BF00BF00BF00BF1A
:106E800000BF00BF00BF00BF00BF00BF00BF00BF0A
:106E900000BF00BF00BF00BF00BF00BF00BF00BFFA
:106EA00000BF00BF00BF00BF00BF00BF00BF00BFEA
:106EB00000BF00BF00BF00BF00BF00BF00BF00BFDA
:106EC00000BF00BF00BF401EC3D17047982C0020F8
:106ED0000024F40000283ED01F49204A096800BF62
:106EE00000BF00BF00BF00BF00BF00BF00BF914296
:106EF0002FD000BF00BF00BF00BF00BF00BF00BF5A
:106F000000BF00BF00BF00BF00BF00BF00BF00BF89
:106F100000BF00BF00BF00BF00BF00BF00BF00BF79
:106F200000BF00BF00BF00BF00BF00BF00BF00BF69
:106F300000BF00BF00BF00BF00BF00BF00BF00BF59
:106F400000BF00BF00BF00BF00BF00BF00BF00BF49
:106F500000BF401EC3D17047982C00200024F400CD
:106F60002DE9F14FDFF8E4804FF4405A4FF480549C
:106F7000D8F83000DAF80810D8F8245001EB000BEC
:106F80002F1A33A1032002F0E9F8A1464C46A7428C
:106F900000D83C4600220121584601F045F800285F
:106FA00052D1002322465846009901F037F90028B3
:106FB0004AD122465846009901F0A8FA060006D0A8
:106FC0005A462C490320009B02F0D3F83BE00022F4
:106FD0000121009801F028F8060005D026A1032021
:106FE000009A02F0BFF82EE0D8F8301000202144BB
:106FF000C8F8301001F0D4FD0098A344204400905C
:107000003F1BC3D100222946DAF80800FEF7D2FE62
:10701000D8F8282007464446BA4208D125A10320C3
:1070200002F09CF80120A561C4E9077004E0034662
:107030002849032002F09DF80448243001F05AFA50
:10704000002001F0ADFD3046BDE8F88F1C36002071
:107050003A494E464F3A456E746572206E72665FCD
:107060006466755F6170705F636F6E74696E75657D
:107070000D0A0000B4B007003A494E464F3A41703D
:1070800070207570646174653A204661696C757230
:10709000652065726173696E672070616765206144
:1070A0007420616464723A203078253038780D0A93
:1070B000000000003A494E464F3A53657474696EB9
:1070C00067206170702061732076616C69640D0ABD
:1070D0000000000014B2070010B511A1032002F057
:1070E0003DF8184C206A012801D017A10CE0E06996
:1070F00078B14FF44050A16980680022FEF75AFE33
:10710000E169814205D01AA1032002F027F800208E
:1071100010BD1EA1032002F021F8012010BD0000C7
:107120003A494E464F3A456E746572206E72665FFC
:107130006466755F6170705F69735F76616C6964C6
:107140000D0A00001C3600203A494E464F3A52655F
:107150007475726E2066616C736520696E2076614D
:107160006C69642061707020636865636B0D0A0050
:107170003A494E464F3A52657475726E2066616C9C
:10718000736520696E204352430D0A003A494E460A
:107190004F3A52657475726E20747275652E204177
:1071A0007070207761732076616C69640D0A00004D
:1071B000F8B50F46014619483A68406B4618151A4B
:1071C0004FF4405000958268334615A1032001F02A
:1071D000D8FF2A463146224801F098F9040011D020
:1071E0002B4632461F49032001F0C3FF2946304693
:1071F00001F09AF9040003D01BA1032001F0AEFFB7
:107200002046F8BD21A1032001F0A8FF384601F077
:1072100071F9002001F0C4FCF2E700001C360020E8
:107220003A494E464F3A566572696679696E6720EB
:10723000424C3A20416464723A20307825303878E4
:107240002C205372633A203078253038782C204C2B
:10725000656E3A203078253038780D0A000000003D
:1072600000300700F8B007003A494E464F3A5265E1
:10727000717565737420746F20636F707920424C50
:10728000206661696C65640D0A0000003A494E464B
:107290004F3A426F6F746C6F6164657220776173EF
:1072A0002076657269666965640D0A002DE9F0470C
:1072B0000E4609785C4C0127DFF8709115464FF4B3
:1072C000807A04F15C08072976D2DFE801F0A50492
:1072D000264C21A59B0056A1032001F03FFFB0687A
:1072E00020B1504504D90420BDE8F0870320FBE716
:1072F00058A1032001F032FF4B48002589F80250C5
:1073000020213830FCF7DAF82563B068A06388E004
:1073100058A1032001F022FF20E05DA1032001F02D
:107320001DFFB268E06BA36B1118994207D9686022
:10733000206CA8605EA1032001F010FFD6E7404456
:107340007168FCF7A2F8E06BB168374A0844E06363
:10735000D6E901014032FEF72DFD2064E06B686044
:10736000206CA8605DE05FA1032001F0F7FED4E986
:107370000E01814205D064A1032001F0EFFE082038
:10738000B2E76AA1032001F0E9FE99F802004D4638
:1073900008B10120A8E7208F424683B26BA10320E9
:1073A00001F0C2FE69A1032001F0D8FEFEF726FE1F
:1073B000012802D0052097E72EE0674890F8741066
:1073C00061B166A1032001F0C9FE6C49A1F214501D
:1073D000FEF7FCFF074601280DD022E0007828B117
:1073E00067A1032001F0BAFE0A271AE06DA103206D
:1073F00001F0B4FEDEE777A1032001F0AFFE01202B
:10740000A8700EE07DA1032001F0A8FE206CA8600A
:10741000E06BC5E900A004E084A1032001F09EFE1A
:107420000227384660E700001C360020002C0020B0
:107430003A494E464F3A4265666F7265204F50207A
:1074400063726561746520636F6D6D616E640D0AB2
:10745000000000003A494E464F3A56616C6964207C
:10746000436F6D6D616E64204372656174650D0AD2
:10747000000000003A494E464F3A56616C6964205C
:10748000436F6D6D616E64204352430D0A0000002E
:107490003A494E464F3A4265666F7265204F50201A
:1074A000777269746520636F6D6D616E640D0A009B
:1074B0003A494E464F3A4572726F722E20496E69B4
:1074C0007420636F6D6D616E64206C6172676572AC
:1074D000207468616E2065787065637465642E2021
:1074E0000D0A00003A494E464F3A4265666F726592
:1074F000204F50206578656375746520636F6D6DEE
:10750000616E640D0A0000003A494E464F3A4578D4
:1075100065637574652077697468206661756C743D
:1075200079206F66667365740D0A00003A494E460D
:107530004F3A56616C696420636F6D6D616E6420B3
:10754000657865637574650D0A0000003A494E461A
:107550004F3A0D0A00000000AC2C00203A494E467C
:107560004F3A48616E646C696E67207369676E6537
:107570006420636F6D6D616E640D0A003832002007
:107580003A494E464F3A48616E646C696E672075A1
:107590006E7369676E656420636F6D6D616E640DF7
:1075A0000A0000003A494E464F3A4465636F6465ED
:1075B0006420636F6D6D616E642062757420697400
:1075C00020686173206E6F20636F6E74656E742126
:1075D000210D0A003A494E464F3A53657474696E5C
:1075E000672044465520666C616720746F20696E81
:1075F000697469616C697A65640D0A003A494E469E
:107600004F3A56616C696420436F6D6D616E643AE8
:10761000204E52465F4446555F4F424A4543545FB1
:107620004F505F53454C4543540D0A003A494E466E
:107630004F3A496E76616C696420436F6D6D616E7F
:1076400064204F7065726174696F6E0D0A000000EE
:1076500070B505464FF440500CA18468032001F03A
:107660007DFD124901F118000A69012A08D04A6912
:1076700032B189690C3001F6FF716FF30B010C44D4
:107680002A462146BDE8704000F012B83A494E46FD
:107690004F3A456E746572206E72665F6466755F00
:1076A000636F6E74696E75650D0A00001C360020EC
:1076B0002DE9F041074680680024154688460128D8
:1076C0000DD00126A52817D0AA282CD0AC2833D05D
:1076D0001EA1032001F042FD2046BDE8F08123A158
:1076E000032001F03BFD264840690128F4D14046C3
:1076F000FFF736FC0446EFE722A1032001F02EFD40
:107700004046394601F0E8F8040004D022A10320E5
:1077100001F024FD05E0384600F0ECFE002001F009
:107720003FFA2E60D8E726A1032001F017FD394665
:107730004046FFF73DFDDDE726A1032001F00EFDE9
:107740003946404601F078F80446EAE73A494E46A1
:107750004F3A53696E676C653A20496E76616C6981
:10776000642062616E6B0D0A000000003A494E46CB
:107770004F3A56616C6964204170700D0A00000038
:107780001C3600203A494E464F3A56616C696420D7
:1077900053440D0A000000003A494E464F3A534404
:1077A0002075706461746520636F6E74696E7561B5
:1077B00074696F6E206661696C65640D0A00000073
:1077C0003A494E464F3A56616C696420424C0D0A64
:1077D000000000003A494E464F3A53696E676C65A7
:1077E0003A2056616C6964205344202B20424C0D92
:1077F0000A0000002DE9F84F15460C004FF0010B70
:107800001ED02078C54FC64E4FF480594FF0000867
:1078100007286ED2DFE800F06D0461FEFD6DFC000C
:10782000C0A1032001F09AFCA2684AB110050AD059
:10783000786D31691044884205D0C149012064E067
:107840000320BDE8F88F4A4504D9BEA1032001F00A
:1078500085FC4CE0B07850B17B6D3069991881425D
:107860000AD90090C249032001F08BFC42E0C1A17B
:10787000032001F073FC3DE0CEA1032001F06EFC7B
:10788000F86CB864A0687864786D3865386371788E
:10789000491C01F003017170A6F80480B168491C0D
:1078A000B160A168F26801F6FF711044090BC84A83
:1078B00000F0BAFB40B1B068C6A1401EB060032022
:1078C00001F04CFC0520BCE7B86C0090C9490320CE
:1078D0003B6D7A6C01F055FC18E1386D6860B86C4E
:1078E000A860B07830B1A168B1F5807F04D90420D8
:1078F000A7E70DE10820A4E7386D7A6D0844801AE7
:107900007A6C904204D9BCA1032001F027FC97E7D0
:10791000824A60684832FEF74DFAB864386DA26852
:10792000DFF8F4A2104438656860B86CA860B088CD
:10793000A268B9461118FF2905D8777861680AEB63
:107940000723184445E0C0F5807173788FB20AEBC5
:10795000032210443A466168FBF797FDB0889C4BC0
:10796000384480B2B080A168C01CC91BA1606168A6
:1079700039446160D9F83010F2684F4611440091E3
:10798000B1688208491CB160717800980AEB012146
:1079900000F044FC00285BD0B068A0A1401EB0609D
:1079A000B2880320009B01F0E4FBF86CB864786DAA
:1079B00038656860F86CA8607078401C00F00300BF
:1079C0007070A6F80480A268002A85D00AEB002017
:1079D0006168FBF75AFD2089B1880844B080000433
:1079E000000CF2D0D9F85420D9F83010D9F844302E
:1079F0008A1A02444C469A4229D3F2688F18B16819
:107A0000491CB1607178C01C82080AEB012102E0B8
:107A100073E033E03BE06E4B384600F0FFFB10B301
:107A2000B0683B46401EB060B2887CA1032001F0E4
:107A3000A0FBE06CA064606D20656860E06CA860ED
:107A40007078401C00F003007070A6F804805DE0C0
:107A5000B2887FA10320009B01F08BFBB188386BBB
:107A600008443863A8E73B46B28879A1032001F0B7
:107A700080FBB188206B08442063E1E77CA10320F0
:107A800001F06CFB386D6860B86CA8603EE07EA1C8
:107A9000032001F063FBD7E914017A6C431A934287
:107AA00004D080A1032001F064FB23E788A1032018
:107AB00001F054FBC7F84480386D7865B86CF86401
:107AC000002001F06DF8386D316988421ED1874978
:107AD0000320B26801F046FB02E000BF01F0D2F9DA
:107AE000B0680028FAD182A1032001F037FB4A4890
:107AF000B03800F043FD834608E084A1032001F084
:107B00002DFBB86CA860386DC5E90090584698E622
:107B100086A1032001F022FB0220ECE71C360020A6
:107B2000002C00203A494E464F3A4265666F726516
:107B3000204F50206372656174650D0A00000000DB
:107B400028AF07003A494E464F3A496E76616C6954
:107B5000642073697A6520666F72206F626A65635C
:107B6000742028746F6F206C61726765290D0A009C
:107B7000B8AF07003A494E464F3A547279696E677A
:107B800020746F2063726561746520646174612084
:107B90006F626A65637420776974686F75742076A4
:107BA000616C696420696E697420636F6D6D616ECC
:107BB000640D0A003A494E464F3A56616C6964209A
:107BC00044617461204372656174650D0A000000B0
:107BD000ED5F07003A494E464F3A457261736520A2
:107BE0006F7065726174696F6E206661696C65643F
:107BF0000D0A000074AF07003A494E464F3A5772DB
:107C0000697465207265717565737420746F6F2077
:107C10006C6F6E670D0A0000D82D00203A494E4661
:107C20004F3A212121204661696C65642073746F8D
:107C300072696E672025642042206174206164644B
:107C4000726573733A203078253038780D0A000059
:107C50003A494E464F3A53746F72696E67202564F5
:107C600020422061743A203078253038780D0A009F
:107C70003A494E464F3A4265666F7265204F502032
:107C80006372630D0A0000003A494E464F3A42655E
:107C9000666F7265204F5020657865637574650D59
:107CA0000A0000003A494E464F3A496E76616C69C7
:107CB00064206461746120686572653A206578703B
:107CC0003A2025642C20676F743A2025640D0A0041
:107CD0003A494E464F3A56616C696420446174617A
:107CE00020457865637574650D0A0000DCAE0700F9
:107CF0003A494E464F3A446F696E6720706F73740D
:107D000076616C69646174650D0A00003A494E46FB
:107D10004F3A56616C696420446174612052656118
:107D20006420696E666F0D0A000000003A494E46F5
:107D30004F3A496E76616C69642044617461204FEA
:107D40007065726174696F6E0D0A00000A4810B5A3
:107D50000068000C10F0010F05D00848816D012962
:107D600003D0002010BD012010BD00218165084610
:107D700000F016FFF7E70000100500501C36002049
:107D80002DE9F04706464FF010208A464FF440593F
:107D90004169D9F8080090460F1A36A10320A7F5CB
:107DA000405701F0DBF9B74201D23BA13EE047A1C9
:107DB000032001F0D3F94B4C4BA10320226901F0C1
:107DC000D1F94FA10320A369226A01F0D2F956A18B
:107DD0000320636AE26A01F0CCF9D9F80810C8F808
:107DE0000010206A04F118054FF00009012805D0A1
:107DF000C4F8109056A1C4F8149020E03A465DA152
:107E0000032001F0AFF92868334600F6FF706FF3E6
:107E10000B003F1A3A4662A1032001F0AAF90120A3
:107E2000BE4216D9BAF1000F06D066A1032001F0B8
:107E300095F90420BDE8F087C4E904096BA103208B
:107E400001F08CF9C5F80490C5F8089000202E6068
:107E5000F0E7C4E90490A069D8F8001000F6FF70BC
:107E60006FF30B001F4D01442435C8F8001067A1C3
:107E70000320E5E73A494E464F3A456E7465722055
:107E80006E72665F6466755F66696E645F63616388
:107E900068650D0A000000003A494E464F3A4E6FA1
:107EA0002077617920746F2066697420746865207A
:107EB0006E6577206669726D77617265206F6E20DE
:107EC0006465766963650D0A000000003A494E4614
:107ED0004F3A42616E6B20636F6E74656E740D0A6B
:107EE000000000001C3600203A494E464F3A4261DD
:107EF0006E6B20747970653A2025640D0A000000CD
:107F00003A494E464F3A42616E6B203020636F64AF
:107F1000653A203078253032783A2053697A653ACC
:107F20002025640D0A0000003A494E464F3A42614E
:107F30006E6B203120636F64653A203078253032D3
:107F4000783A2053697A653A2025640D0A000000CA
:107F50003A494E464F3A4E6F2070726576696F759A
:107F6000732C207573696E672062616E6B20300D13
:107F70000A0000003A494E464F3A667265655F73E3
:107F8000697A65206265666F72652062616E6B203A
:107F900073656C6563743A2025640D0A0000000067
:107FA0003A494E464F3A667265655F73697A653A3B
:107FB0002025642C2073697A655F7265713A2025EB
:107FC000640D0A003A494E464F3A4661696C757233
:107FD000653A206475616C2062616E6B2072657316
:107FE0007472696374696F6E0D0A00003A494E46F7
:107FF0004F3A456E666F7263696E672073696E678C
:108000006C652062616E6B0D0A0000003A494E46B5
:108010004F3A5573696E67207365636F6E642062B3
:10802000616E6B0D0A0000002DE9FF410546174601
:108030000E460B464FF000082A4628A1032001F007
:1080400098F82F4C2068410723D5810707D52DA12B
:10805000032001F083F80A2004B0BDE8F08140F06D
:1080600001002060B2B23B4629462F48FEF78EFA47
:108070005FEA000808D002462CA1032001F072F844
:10808000206820F0010002E0206840F0010020603C
:1080900021E0280505D02CA1032001F05FF806207F
:1080A000DAE7C5F30F34284601F09AF805F5805554
:1080B000761EF8D17FB12A480168D0E90220CDE9C7
:1080C0000220CDE90017280BADF80840ADF80A00F2
:1080D00000216846B8474046BEE700003A494E4690
:1080E0004F3A45726173696E673A203078253038AF
:1080F000782C206E756D3A2025640D0A0000000072
:10810000442C00203A494E464F3A45726173653A15
:10811000204661696C7572652073696E6365206CB9
:108120006173740D0A0000009C2C00203A494E46F1
:108130004F3A4572617365206661696C65643A20E7
:1081400025640D0A000000003A494E464F3A496E38
:1081500076616C696420616464726573730D0A00F2
:1081600068AD070010B501000C4C4FF0000013D0B3
:108170000BA1032000F0F2FFFEF770FA08B113A183
:1081800004E01B4802F078FB28B11AA1032000F09C
:10819000E5FF082010BD0421216010BD442C002003
:1081A0003A494E464F3A2D2D2D2D2D2D2D206E72F4
:1081B000665F6466755F666C6173685F696E69743B
:1081C0002D2D2D2D2D2D2D0D0A0000003A494E4646
:1081D0004F3A4E6F7420696E697469616C697A698F
:1081E0006E6720746865207468696E670D0A000008
:1081F000F16607003A494E464F3A4E6F7420696E59
:10820000697469616C697A696E6720746865207445
:1082100068696E6720320D0A000000002DE9FF41F9
:108220001746264A06461D4610680024430723D5F4
:10823000830707D522A1032000F090FF0A2004B095
:10824000BDE8F08140F00100106090460A46BBB2E4
:10825000314624480095FEF70BFA040005D002468B
:1082600021A1032000F07EFF20E0D8F8001041F0AB
:108270000101C8F8001019E031B12EB141EA060041
:10828000800703D00620DAE70320D8E787B13A4613
:10829000304600F0BDFF4DB10020CDE90260CDE9D0
:1082A00000050146ADF80C706846A8472046C6E7B1
:1082B00014A1032000F052FF0420C0E7442C00204A
:1082C0003A494E464F3A466C6173683A20466169B6
:1082D0006C7572652073696E6365206C6173740DD3
:1082E0000A0000009C2C00203A494E464F3A466C4A
:1082F0006173683A206661696C65642025640D0AC3
:10830000000000003A494E464F3A466C6173683AA5
:1083100020496E76616C6C6964206C656E67746868
:1083200020284E564D43290D0A00000038B5002084
:1083300000902BA1032000F011FF00F0EDFB684638
:10834000FFF786F9012420B12DA1032000F006FFDC
:108350000094FFF7FBFC28B136A1032000F0FEFEDD
:10836000009417E00098A8B9FEF7B6FE90B1FEF7AA
:10837000B3FE48B14FF4405439A10320A26800F085
:10838000F1FEA068FEF704FC3CA1032000F0E6FE2D
:10839000002038BD414B424A05210020FDF746F937
:1083A00008B1FDF779F83E4A142178320820FDF72C
:1083B000FDF808B1FDF770F800F00AFD040005D0E3
:1083C00038A1032000F0CAFE204638BD00F0D8F9DD
:1083D00041A1032000F0C2FEFDF7C8F8FCE7000051
:1083E0003A494E464F3A496E207265616C206E7272
:1083F000665F6466755F696E69740D0A000000004F
:108400003A494E464F3A436F756C64206E6F742044
:10841000636F6E74696E756520444655206F706594
:10842000726174696F6E3A203078253038780D0AA1
:10843000000000003A494E464F3A4170706C696343
:108440006174696F6E2073656E7420626F6F746CF7
:108450006F6164657220726571756573740A0000DE
:108460003A494E464F3A4A756D70696E6720746F8F
:108470003A203078253038780D0A00003A494E46C7
:108480004F3A4166746572207265616C206E726647
:108490005F6466755F696E69740D0A0015560700A2
:1084A000F83200203A494E464F3A436F756C6420CB
:1084B0006E6F7420696E6974616C697A65204446D8
:1084C00055207472616E73706F72743A2030782523
:1084D0003038780D0A0000003A494E464F3A57614D
:1084E0006974696E6720666F72206576656E747355
:1084F0000D0A0000002101604160816002480163B3
:1085000041630161416170471C3600201FB5054B76
:1085100001AC92081B6A009384E80700684618DFE4
:1085200004B010BD78AD07001FB58908002201AB6B
:10853000009283E80700684618DF04B010BD000011
:108540001FB59208930502D0092004B010BD044B5A
:108550001B6800930392CDE90110684618DFF4E729
:1085600078AD07001FB5044B0FCB8DE80F006846B0
:1085700018DF04B010BD000088AD07002DE9F047FA
:10858000054690F83D000126DFF8249103280DD020
:108590000A26484F7869002824D0012829D046A10E
:1085A000032000F0DBFD0A20BDE8F087404C4E4878
:1085B0001C342346206020206060D9E90312052086
:1085C000FEF7BEFB00B10A26202205F13F0120681C
:1085D000FAF786FF0028DCD044A1032000F0BEFD9E
:1085E0000526D6E747A1032000F0B8FD314C18342A
:1085F00005E04CA1032000F0B1FD2E4C24344FF0D7
:108600000008012E05D0C4F808804046C4F8048054
:1086100032E04CA1032000F0A1FD95F8250070B1D7
:1086200001280ED002280ED003280FD05FF00A06D2
:1086300095F85F0078B195F8600060B118E001200E
:1086400002E0A52003E0AA20A060F1E7AC20A06032
:10865000A86A7863ECE795F8250020B1022805D0D8
:10866000032805D102E06868B86001E06868F86036
:10867000B86C6060D9F8100020600E4820213830B6
:10868000FAF71CFF0B48FF22B2215C30FAF70FFF0C
:10869000394CC7F8308004E02046FEF78FFB00F02D
:1086A000F1FB364800F07CFA1128F5D030467BE724
:1086B000002C00201C3600203A494E464F3A496EA5
:1086C0007465726E616C206572726F722C20696EB7
:1086D00076616C69642063757272656E7420626184
:1086E0006E6B0D0A00000000D83100203A494E465A
:1086F0004F3A48617368206661696C7572650D0A4E
:10870000000000003A494E464F3A43757272656E5A
:10871000742062616E6B2069732062616E6B203021
:108720000D0A00003A494E464F3A43757272656E23
:10873000742062616E6B2069732062616E6B203100
:108740000D0A00003A494E464F3A5375636365730C
:108750007366756C6C792072756E20746865207014
:108760006F737476616C69646174696F6E2063689D
:1087700065636B210D0A0000A0860100719507005A
:1087800070B50120FFF7EEFC00281BD10E4D0F4CF9
:10879000A860A06BA8B1FDF731FC90B1206A50B978
:1087A000A06940B1084A00210C322861FFF7E8FABD
:1087B0000120A87005E0E06A18B9A06908B1606AF4
:1087C000F0E7002070BD0000002C00201C360020C7
:1087D00010B50C780F4B012C01D0062C07D10C7969
:1087E000012C03D0022C01D0072010BD1C701B7877
:1087F000012B07D0022B09D007A1032000F0AEFC0B
:10880000052010BDBDE81040FEF750BDBDE810408A
:10881000FEF7F0BF002C00203A494E464F3A496E11
:1088200076616C6964207265717565737420747902
:1088300070650D0A0000000070B50D4606460CA1DB
:10884000032000F08BFC2946304600F045F8040078
:1088500001D011A106E029463046FEF7A9FC04002C
:1088600004D015A1032000F079FC204670BD000063
:108870003A494E464F3A456E746572206E72665F95
:108880006466755F73645F626C5F636F6E74696E5C
:1088900075650D0A000000003A494E464F3A5344B0
:1088A0002B424C3A20534420636F707920666169F3
:1088B0006C65640D0A0000003A494E464F3A534435
:1088C0002B424C3A20424C20636F707920666169DC
:1088D0006C65640D0A0000002DE9FE4FDFF8FCB066
:1088E00080465F46DBF83000DBF8341000F580543A
:1088F000081A00F6FF70060B360340F6FF7000EB17
:108900009600050B2D0336A1032000F027FC386BE1
:10891000796B00EB080A41B1884206D13CA10320E3
:1089200000F01CFC0020BDE8FE8F4FF440503FA13A
:108930008289032000F016FC04EB0509CDE900490B
:108940000AEB05039846524642A10320029500F027
:1089500021FC2A4651462046FFF7F2FD070004D0CD
:10896000534622464B49009513E0CDE90049434662
:10897000524649490320029500F00CFC2A46514614
:108980002046FFF7C3FD070007D04449534622465F
:108990000095032000F0F5FB1DE0CDE900494346BA
:1089A00052463FA10320029500F0F4FB4C46C2461C
:1089B000B54201D9002600E0761B49A1032000F052
:1089C000CDFBDBF834100020891BCBF8301000F011
:1089D000E7F8002EB0D13846A5E700001C3600208D
:1089E0003A494E464F3A456E746572206E72665F24
:1089F000626F6F746C6F616465725F6466755F73DC
:108A0000645F636F6E74696E75650D0A0000000027
:108A10003A494E464F3A534420616C72656164791D
:108A200020636F706965640D0A0000003A494E4684
:108A30004F3A5570646174696E672053442E204F1D
:108A40006C64205344207665723A203078253034A7
:108A5000780D0A003A494E464F3A436F7079696E75
:108A600067205B3078253038782D3078253038789D
:108A70005D20746F205B3078253038782D30782574
:108A80003038785D3A204C656E3A203078253038A1
:108A9000780D0A00D0B107003CB1070088B107008B
:108AA0003A494E464F3A56616C6964617465642078
:108AB0003078253038782D30782530387820746F2C
:108AC000203078253038782D3078253038783A20A5
:108AD00053697A653A203078253038780D0A0000DD
:108AE0003A494E464F3A46696E6973686564207725
:108AF00069746820746865205344207570646174DB
:108B0000652E0D0A00000000002258210148FDF7E3
:108B100051B900002036002070B513A1032000F0E9
:108B20001DFB1B4900204FF4AE7508702A461949F9
:108B30001948FAF7AAFC184C2068401C04D0FFF72B
:108B4000E3FF216881420ED01449032000F006FBA8
:108B500029461148FAF7B2FC01206060BDE8704078
:108B6000002000F01DB870BD3A494E464F3A72756C
:108B70006E6E696E67206E72665F6466755F7365A0
:108B80007474696E67735F696E69740D0A00000022
:108B9000482C002000F007001C36002070B00700B1
:108BA00070B505461D4A1EA1032000F0DBFA264CD5
:108BB000207808B125A125E001202070014600227F
:108BC00016486560FFF730FA002510B125702BA11B
:108BD00018E0FFF799FF34495722086033A10320BA
:108BE00000F0C0FA30494FF4AE72A1F5AE70FAF75A
:108BF0004CFC364B572236490848FFF70FFB30B183
:108C0000257034A1032000F0A9FA112070BD3CA109
:108C1000032000F0A3FA002070BD000000F0070060
:108C20003A494E464F3A45726173696E67206F6CE0
:108C3000642073657474696E67732061743A2030C0
:108C400078253038780D0A00482C00203A494E46E5
:108C50004F3A436F756C64206E6F74207175657543
:108C6000652077726974696E67206F662044465587
:108C70002053657474696E67730D0A003A494E4655
:108C80004F3A4661696C656420746F206572617348
:108C90006520626F6F746C6F6164657220736574B8
:108CA00074696E67730D0A001C3600203A494E46FF
:108CB0004F3A57726974696E67203078253038787A
:108CC00020776F7264730D0A00000000E9640700EA
:108CD000C03400203A494E464F3A4661696C65649B
:108CE00020746F20777269746520626F6F746C6F87
:108CF000616465722073657474696E67730D0A0030
:108D00003A494E464F3A57726974696E67207365E7
:108D10007474696E67732E2E2E0D0A002DE9F041D2
:108D20000F48104F0025C01BC6080FA1032000F0FC
:108D300015FA324615A1032000F014FA002406E0CB
:108D400007EBC40040688047050002D1641CB442B0
:108D5000F6D315A1032000F001FA2846BDE8F08102
:108D600084B307007CB307003A494E464F3A496E38
:108D7000206E72665F6466755F7472616E73706F89
:108D80007274735F636C6F73650D0A003A494E46E7
:108D90004F3A6E756D207472616E73706F7274737A
:108DA0003A2025640D0A00003A494E464F3A416682
:108DB000746572206E72665F6466755F7472616E50
