:020000040000FA
:10000000982A0020150400001D0400001F040000B1
:10001000210400002304000025040000000000006B
:1000200000000000000000000000000027040000A5
:1000300029040000000000002B0400002D04000033
:100040002F0400003D0800004D0E00002F040000AA
:100050002F0400002F040000790500002F04000089
:10006000E90D00002F0400002F0400002F04000001
:100070002F0400002F0400002F0400002F040000B4
:100080002F040000450A00002F0400002F04000088
:10009000690A00006D0A00002F0400002F04000010
:1000A0002F0400002F0400002F0400002F04000084
:1000B0002F0400002F0400000000000000000000DA
:1000C0002F0400002F0400002F0400002F04000064
:1000D0002F0400002F0400002F0400000000000087
:1000E0000000000000000000000000000000000010
:1000F0000000000000000000000000000000000000
:1001000000000000000000000000000000000000EF
:1001100000000000000000000000000000000000DF
:10040000DFF80CD000F086F800480047F53800000F
:10041000982A00200648804706480047FEE7FEE786
:10042000FEE7FEE7FEE7FEE7FEE7FEE7FEE7FEE7A4
:100430004D0B0000010400000048704744730000A9
:1004400040EA01039B0703D009E008C9121F08C056
:10045000042AFAD203E011F8013B00F8013B521ED6
:10046000F9D27047D2B201E000F8012B491EFBD24D
:1004700070470022F6E710B513460A4604461946AF
:10048000FFF7F0FF204610BD421C10F8011B0029A9
:10049000FBD1801A704730B504460020034600E0C7
:1004A0005B1C934203D2E05CCD5C401BF8D030BDB6
:1004B0002DE9F05F0546002092469B468846064699
:1004C000814640241BE0284641464746224600F02C
:1004D00042F853465A46C01A914110D31146184665
:1004E000224600F029F82D1A67EB01084F462246F4
:1004F0000120002100F020F817EB00094E41201EDA
:10050000A4F10104DFDC484631462A464346BDE8F3
:10051000F09F0000064C074D06E0E06840F0010344
:1005200094E8070098471034AC42F6D3FFF76CFF0D
:100530005473000074730000202A04DB203A00FA90
:1005400002F1002070479140C2F1200320FA03F32A
:10055000194390407047202A04DB203A21FA02F028
:100560000021704721FA02F3D040C2F120029140ED
:1005700008431946704700002DE9F04700268CB06B
:10058000DFF86091B0464FF4807501243746069637
:10059000284604F06BF938B1D9F80403204203D09F
:1005A000284604F059F926432D1D64007F1CADB286
:1005B000082FEDD34FF4BE74204604F057F948B12C
:1005C000204604F049F946F0004606AA0121002021
:1005D00004F02EF9444D16F0FF0F15D0012700242A
:1005E00037420DD009EB8401D1F81005D1F8101570
:1005F000C0F3042055F82420C1F3014102B1904713
:100600007F00641C082CEBD3002E67DA4FF0FF301C
:10061000CDE9088000263446281910F8507F90F95B
:10062000000027F0C008401C44D009A9404603F050
:100630007DFB58B34FEA9719404600F0D9FC55F8B6
:1006400020701FB1B9F1030F03D00FE0B9F1030F10
:1006500030D108A84FEAD80208F00703815C4FF0B8
:10066000010C0CFA03FC41EA0C0181544FF0A0414B
:1006700001EB8800D0F8000706A9C0F3014A404604
:1006800003F054FB18B1BAF1020F03D012E0BAF133
:10069000030F0FD1B9F1030F08D1BAF1020F1BD02C
:1006A0000221404604F0B2F8761CF6B217B1494672
:1006B0004046B847641C042CAED3002E0ED06A46C8
:1006C0000121002004F0B4F806990098884205D072
:1006D0000690089809909DE70321E2E70CB0BDE879
:1006E000F0870000006000400401002003F016BB0A
:1006F0002DE9F74F354D4FF48039174680460024D9
:10070000C5F80893324EB07800281CBF3148FFF777
:10071000EDFFB8F1000F04BF2F48FFF7E7FF706847
:1007200000281CBF2D48FFF7E1FFC6F80480DFF862
:10073000B0B038004FF0000A4FF00107ABF10408E9
:100740002FD0012808BFD8F8004006D0022813BFD8
:10075000244825480468FFF7C9FFB770C5F840A1D1
:100760000198204480B2C8F80000D8F800806F6477
:10077000DBF80060D5F8400100281CBF1B48FFF7DC
:10078000B5FF444514D8A64228BFB04598BF1848C5
:1007900002D800BFFFF7AAFFC5F8049303B0BDE875
:1007A000F08F6F64DBF800402F64C5F840A1D4E7F8
:1007B00046452CBF00200120B44294BF01210021F6
:1007C000884208BF0B48E7D1E4E700000080004002
:1007D000A0000020730004007500040076000400EF
:1007E0004485004089000400488500409B000400C7
:1007F000B0000400C900040000F01F020121914074
:100800004009800000F1E020C0F88012704700F03D
:100810001F02012191404009800000F1E020C0F852
:100820000011704700F01F02012191404009800033
:1008300000F1E020C0F80012704700002DE9F05FE1
:10084000734C20696778401C2061607D00281CBFC4
:100850007048FFF74BFF2046217800256E4C6F4E05
:100860004FF003094FF002084FF0FF3A4FF0010B31
:10087000032946D1D4F80C11002942D0012F06D00B
:10088000022F37D0BDE8F05F6548FFF72FBF07465E
:10089000006903281CBF6348FFF728FF87F8008022
:1008A000B869401CB861C4F80052C4F808A34FF0FE
:1008B000E020C0F88082C4F80C51C4F80051C4F89C
:1008C0001051C4F8045187F801907D603D7530687F
:1008D000017D51B154490968B975C4F81C51C4F877
:1008E00018B0524A4FF480611160C068002842D1AC
:1008F000BDE8F09F006901281CBF4D48FFF7F6FED8
:1009000076E0032F7FD00821012F37D0022F6FD040
:100910004278484B002703EB0212137B002B1EBFCB
:10092000D4F80C31002B0127927A0270C4F80052DF
:10093000032A61D0C4F808A34FF0E021C1F88082F7
:10094000C4F80C5180F80190C4F80051C4F810515B
:10095000C4F804514560057530680069002818BF67
:100960008047002F08BFBDE8F09F306880680028EE
:1009700008BFBDE8F09FBDE8F05F00470269012AAB
:1009800020D0022A18BFBDE8F09FC4F80C51C4F86B
:100990001051C4F80051C4F800526FF00102C4F8BD
:1009A0000823C4F8041380F800904560057530688A
:1009B0000069002818BF8047306880680028DAD1B5
:1009C000BDE8F09FC4F80051C4F80451C4F808A36E
:1009D000C4F804B33168097D19B1174A4FF4806136
:1009E00011601649C0680860BDE8F09F0BE0FFE7A2
:1009F000BDE8F05F05F096B96FF00802C4F808236F
:100A0000C4F80413A0E7BDE8F05F0D48FFF76EBE21
:100A10008007002090010A0000100040A80000207C
:100A2000A9010A009F010A004815004008F501408D
:100A3000A4010A009072000004F501400415004072
:100A4000D6010A0007480021C0F84011C0F844113F
:100A5000C0F84811C0F84C11C0F80011C0F80411DA
:100A600006F0CAB90010014006F062B92DE9F04164
:100A7000012080F31088344DD5F884000027002829
:100A80005DD0D5F8800000EB400005EB80000179D7
:100A900061F30704417961F30F24817961F317440D
:100AA000C17961F31F6481688289C08962F30F068E
:100AB00060F31F46D5F88400401EC5F88400D5F8C1
:100AC0008000401CC5F88000D5F880000A2833D289
:100AD000002080F310882B6832462046984701207A
:100AE00080F31088D5F8840048B3D5F8800000EB77
:100AF000400005EB8000017961F30704417961F35F
:100B00000F24817961F31744C17961F31F6481680F
:100B10008289C08962F30F0660F31F46D5F884000E
:100B2000401EC5F88400D5F88000401CC5F8800040
:100B3000D5F880000A28CBD3C5F88070C8E700201C
:100B400080F31088BDE8F081A4070020F0B5984834
:100B50000023021D01780125101D4FF08056062943
:100B600007D11478240704D10478C4F30314032CA8
:100B700002D0062904D00FE08F4F8E4C7C670EE028
:100B80001478240708D10478C4F30314032C06D086
:100B9000042C04D0052C02D0062907D00EE0D6F88C
:100BA0004442864FC4F342343C6002E01478240788
:100BB00004D10478C4F30314032C02D0062906D010
:100BC00011E07F4C276827F0807727600EE01478CB
:100BD000240708D10478C4F30314032C06D0042C92
:100BE00004D0052C02D006290AD011E04FF0804431
:100BF000C4F80C31C4F81031704C241F236002E09B
:100C00001478240704D10478C4F30314032C02D00D
:100C1000062905D00CE0694F032464373C600AE0E4
:100C20001478240704D10478C4F30314032C02D0ED
:100C300006290DD014E0634F05243C60614C7834E4
:100C40002560604C083423603F243F1D3C6002E077
:100C50001478240704D10478C4F30314052C02D0BB
:100C6000062957D068E058490968584A1160564922
:100C7000091D0968121D1160534908310968121DC8
:100C8000116051490C310968121D11604E49103133
:100C90000968121D11604C4914310968121D116058
:100CA000494918310968494A2032116046491C31C6
:100CB0000968121D1160444920310968121D116034
:100CC000414924310968121D11603F4928310968E2
:100CD000121D11603C492C310968121D11603A49FE
:100CE00030310968394A4032116037493431096876
:100CF000121D1160344938310968121D11603249E2
:100D00003C310968121D11602F4940310968121DDC
:100D1000116002E0117809070ED10078C0F30310CA
:100D2000032803D0042801D0052805D1D6F858029D
:100D3000274900F04F00086021487438016841F4E9
:100D400070010160BFF34F8FBFF36F8F4FF0102121
:100D5000D1F80002002803DBD1F80402002822DACF
:100D60001C4A15601C480468002CFCD01524C1F8EE
:100D700000420568002DFCD0C1F80442016800293A
:100D8000FCD0136001680029FCD0BFF34F8F0C48E2
:100D9000F0380168114A01F4E06111430160BFF3CA
:100DA0004F8F00BFFDE70F490D480860F0BD000000
:100DB000E00F00F00DF0ADBA00C007403C05004068
:100DC000FCED00E0105600400404001020C5004077
:100DD000E40E004004E5014000E401400400FA058F
:100DE0000090D0036800002070B5144E4FF480309E
:100DF000C6F808030025C6F84051114C6068002869
:100E000004BF1048FFF772FCA5706268012365609B
:100E100073640D480168001F00681430B1F5804FFD
:100E200004D2B0F5404F88BF637004D881422CBF14
:100E3000012000206070BDE8704010470080004035
:100E4000A0000020EC000400448500400448017F1D
:100E500004480029024901D006F0DFB806F04EB878
:100E60005C010020002000400FB41CB502460020A9
:100E700007AC00290BD0491ECDE90021054B6A467D
:100E80002146069801F0BCF8009A002111701CBCA4
:100E90005DF814FB090F000002E008C8121F08C12A
:100EA000002AFAD170477047002001E001C1121FEB
:100EB000002AFBD170472DE9F041044600251E466B
:100EC0001746880404D405E039462020B0476D1C3D
:100ED000641EF9D52846BDE8F0812DE9F0410446AD
:100EE00000251E469046C80301D5302700E0202784
:100EF000880404D505E041463846B0476D1C641EA1
:100F0000F9D52846BDE8F0814A68002A06D00A686B
:100F1000531C0B6010704868401E4860704700000A
:100F20000DA1012005F0A0FA05F0F8F905F0FAF995
:100F30000028FBD10CA1032005F096FABFF34F8FD8
:100F400010480168104A01F4E06111430160BFF3E9
:100F50004F8F00BFFDE700003A4552524F523A46CC
:100F60006174616C0D0A00003A494E464F3A486977
:100F700074207765616B2068616E646C65720D0A20
:100F8000000000000CED00E00400FA050EB50021A1
:100F90000091CDE901106A4644F20100FFF7C0FF5D
:100FA0000EBD00F003B800F009B8000072B60248A8
:100FB0000168491C01607047380000200349086837
:100FC000401E086000D162B6704700003800002063
:100FD00002490520087001F03BBB00008C00002096
:100FE00010B50024800701D501F082FB204610BD1A
:100FF0000249084490F930007047000004010020C5
:10100000FFFFFFFFFFFFFFFFFFFFFFFFFFFFFFFFF0
:10101000FFFFFFFFFFFFFFFFFFFFFFFFFFFFFFFFE0
:10102000FFFFFFFFFFFFFFFFFFFFFFFFFFFFFFFFD0
:10103000FFFFFFFFFFFFFFFFFFFFFFFFFFFFFFFFC0
:102000002DE9FF4F8DB00F460546002606E0252836
:102010000BD0DDE90F1290476D1C761C2878002844
:10202000F5D111B03046BDE8F08F0024A246A1469C
:102030000122EC4900E0044315F8013F203B02FA7D
:1020400003F00842F7D128782A2810D06FF02F0229
:102050002878A0F13001092914D80AEB8A0102EB93
:10206000410144F0020400EB010A6D1CF0E701CFCE
:102070005FEA000A03D544F40054CAF1000A44F0B0
:1020800002046D1C28782E2817D115F8010F44F092
:1020900004042A280ED06FF02F022878A0F1300116
:1020A00009290AD809EB890102EB410100EB01097A
:1020B0006D1CF2E757F8049B6D1C28786C280FD034
:1020C00006DC4C2817D068280DD06A2814D104E00B
:1020D000742810D07A280FD10DE044F400140AE0DF
:1020E00044F4801401E044F440146978814202D140
:1020F00004F580146D1C6D1C2A786E2A1FD00CDC30
:10210000632A31D004DC002A8BD0582A11D1A3E0F5
:10211000642A68D0692A0CD165E0732A2ED004DCC9
:102120006F2A73D0702A04D19BE0752A6FD0782A69
:102130006ED01046DDE90F129047761C50E1C4F3D3
:102140000250022806D0032809D0042801CF09D064
:10215000066045E101CFF117C0E9006140E101CF20
:1021600006803DE106703BE117F8040B8DF8000096
:1021700000208DF80100EB46012003E057F804BB76
:102180004FF0FF3061074FF0000102D40DE008F17D
:102190000101884649450FDA8045F8DB1BF8081035
:1021A0000029F4D108E008F1010188468142FADBF8
:1021B0001BF808100029F6D1DDE90F23AAEB08006F
:1021C00081462146FEF789FE304400EB080604E014
:1021D000DDE90F121BF8010B9047B8F10108F7D2A7
:1021E00021464846F7E00A21C4F302534FF0000BA2
:1021F0000891022B04D001CFC117032B09D00AE0AC
:10220000FF1D27F00707F7E8020108E032E01FE0B2
:1022100020E000B2C117042B01D140B2C117031E48
:1022200071F1000307DA4FF0000CD0EB0C006CEBFF
:1022300001012D2302E0230504D52B238DF8243042
:10224000012303E0E30701D02023F7E7984658E095
:102250000A2110E010210EE010204FF0000B089032
:102260000CE010214FF0000B44F004044FF008097B
:10227000089103E008214FF0000B0891C4F30253CA
:10228000022B04D001CF0021032B06D006E0FF1D56
:1022900027F00707F7E8020103E080B2042B00D122
:1022A000C0B24FF0000823072BD5702A07D0DDF805
:1022B00020C08CF0100C5CEA0B0C05D00EE0402323
:1022C0008DF82430012308E050EA010306D03023C2
:1022D0008DF824308DF8252002239846DDF820C0A3
:1022E0008CF0080C5CEA0B0C0BD150EA010301D115
:1022F000630706D530238DF824304FF00108A9F18B
:102300000109582A04D038A20B9208AA0A920BE0BD
:102310003AA2F9E75B46089AFEF7CAF80B9B9B5C6A
:102320000A9A521E0A92137050EA0102F2D10A98D8
:10233000ADEB000000F1200B600702D524F48034DF
:1023400001E04FF00109D94502DDA9EB0B0000E0E7
:10235000002000EB0B0141440890AAEB010AE003C6
:1023600006D4DDE90F2321465046FEF7B6FD0644AC
:102370004FF0000908E009A911F80900DDE90F1282
:10238000904709F10109761CC145F4DBE0030CD547
:10239000DDE90F2321465046FEF79FFD064404E089
:1023A000DDE90F1230209047761C0899481E0890EE
:1023B0000029F5DC08E00A980A990078491C0A917E
:1023C000DDE90F129047761CBBF10001ABF1010B68
:1023D000F1DC21465046DDE90F23FEF76CFD064493
:1023E0006D1C1BE609280100303132333435363795
:1023F0003839616263646566000000003031323351
:1024000034353637383941424344454600000000F0
:102410002DE9F041064608680C46411C4FF0A047E4
:102420004FF0010506D005FA00F1C7F8081520683D
:1024300002F0E2F96068411C02D0002102F0D3F9F9
:102440003079204901EB4010A169007F00283068F5
:10245000C0F8241525D0607D227D31681043C1F875
:102460006C05D4E900123068C0F80C15C0F81425CA
:1024700024E0A068411C02D0002102F0B4F9E06819
:10248000411C05D08540C7F80855E06802F0B4F952
:10249000D4E902123068C0F80825C0F81015BDE86C
:1024A000F081607D217D32680843C2F86C05D4E973
:1024B00000123068C0F81425C0F80C15207D0128E2
:1024C000D7D0ECE75C0100202DE9F04151488CB0F9
:1024D0000068514C012802D05048006828B9606853
:1024E0000078202898BF012000D900204C4F0321FC
:1024F000002639702660002876D04A4805680068B2
:102500004949086003A8CDE900044848026801234E
:102510002946184604F0BAF8002839D0012813D00B
:10252000022839D0032818BF414801D0FEF7DEF851
:102530002068002865D0012060753E482061042095
:1025400038700CB0BDE8F081039800281CBF3A48F1
:10255000FEF7CCF8284604F0FDF9002804BF374800
:10256000FEF7C4F84FF0020878680023807D8DF8EC
:1025700000808DF801508DF80200ADF8083001930D
:10258000ADF80A308DF80330684603F0D9FFCFE785
:102590002B48FEF7ABF8CBE70398002804BF294887
:1025A000FEF7A4F8284604F0D5F9002804BF264811
:1025B000FEF79CF84FF0020C78680022039B807DA8
:1025C0008DF800C08DF801508DF802004FF0010821
:1025D000ADF808200193ADF80A208DF80380684615
:1025E00003F0AEFFA4E7FFE7002300961A46194662
:1025F0001846019604F04AF8042818BF134895D1EC
:1026000096E703F09DFA6675266100F021F80CB09C
:10261000BDE8F081001400405C0700203415004044
:102620008C000020081400402C1500400C140040C1
:10263000C8050900D10F0000B8050900B905090057
:10264000BD050900C0050900C1050900CF05090045
:1026500070B503F075FA1E4C1E4E00250120256151
:102660003070A4F150001C490069086004F076F94C
:1026700008B304F073F9032818BF184802D000BF4C
:10268000FEF734F8022003F00DFC002003F08AFC72
:1026900004F064F903281CBF1148FEF727F83078CE
:1026A00001281CBF0F48FEF721F8022030700E48A9
:1026B000C4E9030570BD03F081FF0228E2D304F0F2
:1026C000D3F96060002808BF0848DBD1D8E70000D4
:1026D0005C0700208C0000203015004080050900B8
:1026E0008805090092050900C92400007B0509003E
:1026F0007CB50024064E25460022305D032300955C
:102700001146019502F042F8641C042CF4D37CBD00
:1027100030720000002901DA00207047026811447D
:10272000016001207047000070B5461C0D46012471
:102730000020FEF736FC114A10682860D2E900102C
:102740009568081A2B1A701C5B1C98420FD963B14C
:102750000B480C4B294000681B6802EB810163F3B6
:102760009F20C8601068401C1060002401E0881998
:1027700010600020FEF717FC204670BDAC02002060
:102780005872000048000020034803C8814201D16C
:102790000120704700207047AC0200202DE9F05F57
:1027A00026484168F1B3DFF898B00E688146DBF83F
:1027B000004087688078E11B21F07F45ED1CB0B9AF
:1027C000DFF880804FF48030C8F84403C8F8040371
:1027D0001120FEF711F81120FEF719F84FF0010A49
:1027E000C8F800A02F2001F05FFB89F802A0B542D5
:1027F00000D23546124BE8193C3320F07F40186078
:10280000DBF800105A46091B21F07F41001B20F025
:102810007F40C91C81420FD9106818602F2001F039
:1028200043FB00E004E0BDE8F05F1120FDF7FABFD4
:10283000BDE8F05F04F01CBABDE8F09F180000206E
:1028400004150140001001402DE9F043484883B0D1
:102850000068012802D04748006830B946484068FF
:102860000078202898BF012600D90026434C012576
:10287000606920B901F084FF002808BF656104F099
:102880006DF801281CBF3E48FDF730FF3D4D6868DC
:10289000007D00281CBF3C48FDF728FF03F050F9DD
:1028A000002E04BF03B0BDE8F0830121084603F009
:1028B000B3FF052845D2DFE800F003412241410083
:1028C0004FF0000904F03AF80646B4F80C80E789A6
:1028D00004F03AF8014668680023827D8DF8009084
:1028E0008DF80110ADF808808DF802200196ADF842
:1028F0000A708DF80330684603F022FE21E04FF0A5
:10290000000904F01BF80646B4F80C80E78904F0CF
:102910001BF8014668680123827D8DF800908DF8D0
:102920000110ADF808808DF802200196ADF80A700C
:102930008DF80330684603F003FE02E01348FDF70C
:10294000D5FE01F025FA2061114800F168024169C5
:1029500061602378022B03D0002908BF806800D073
:10296000C068106003B00020BDE8F04301F042BA37
:1029700000140040341500405C0700204007002090
:10298000A80609008C000020A9060900C806090055
:102990000C0700200E4910B50A784C780023A2429B
:1029A00012D0521CD2B20A70022A00D10B70084A0F
:1029B0000B78183252F8232002608868104420F007
:1029C0007F408860012010BD0360002010BD000022
:1029D0001800002030B52A4D83B0687E002804BF5F
:1029E00003B030BD01F074FE002401280BD001F0CB
:1029F000B3FE2448007F10B9012081074860002001
:102A000004F0D0F86C6003F09BF8AC706C76052095
:102A10008DF800008DF80140ADF808408DF80240B7
:102A20000194ADF80A408DF80340684603F088FD34
:102A30001548164904704FF44070086003F08EFF8B
:102A4000012818BF022815D003281CBF03B030BDD1
:102A5000009400231A4619461846019403F016FE06
:102A6000042804BF03B030BD094803B0BDE83040BE
:102A7000FDF73CBE0021084603F0CEFEF0E7000063
:102A8000400700200C0700208C00002008F50140C2
:102A9000E801090002490A8802808978817070473C
:102AA0007C7200002DE9F0418AB0202700260997AA
:102AB00001F0E6FF054602F007F8804602F072F9E1
:102AC000C82002F017F9052002F044F9002001F0B7
:102AD000A5FF01F055FF00208DF8200004460022DC
:102AE000012108A800F07AFB30B1002002F068F95B
:102AF000641CE4B2642CF2D3C82000F017F9012062
:102B00008DF820000146002208A800F067FB08B3FA
:102B10001E480078F0B1002001F0B4FF00281DDD50
:102B200009AA69460020099701F038FFB0B19DF865
:102B30000000082812D11548DDF801100C38C0F843
:102B400003100DF1010000F0ABFB002000F052FA81
:102B5000012603E04FF4967000F0E8F84FF4AF70F0
:102B600000F0E4F802F01EF9002001F057FF002009
:102B700001F064FF284602F0BDF8404602F0EAF892
:102B800001F0FEFE0AB03046BDE8F0815E00002094
:102B9000002207E010F8013BFF2B01D00020704716
:102BA000521CD2B28A42F5D301207047F0B50746D5
:102BB000204889B0154600780E4698B1012814D0F7
:102BC000022834D110221C4904A8FDF739FC1B4906
:102BD0000D2204A8FDF734FC0024164A6846521C56
:102BE00021460DE010221449F3E71022124904A8EF
:102BF000FDF726FC04A800F0D9F8EDE7052C02D279
:102C0000135D035500E00155641CE4B2102CF5D3AC
:102C100001F022FB04A801F031FB6946084601F0EF
:102C2000F1FA2B466A463146384600F099FB09B066
:102C3000F0BD00004C0000207F720000E406002080
:102C400070B50C4605460D2910D800F02BF808B1D8
:102C5000012070BD0648007840B900F089F928B11C
:102C600021462846BDE8704000F01CB8002070BD29
:102C70005200002001490870704700004C000020FD
:102C800001460D220148FDF7DBBB0000E4060020F1
:102C900003490268C1F801200079487170470000BB
:102CA0004C000020F0B50746081D89B0C6B20620CA
:102CB0008DF8100004AC0D46601CFFF7EBFE2A46B1
:102CC0003946201DFDF7BCFB174D287808B10020C0
:102CD00000E00220FFF7CEFF701EC2B2611C601C34
:102CE000FFF764FF01200090002301AA314604A8E9
:102CF00000F08AFA18B99DF804000B2802D00020D1
:102D000009B0F0BD01AC0322A01DA11DFFF74EFFCD
:102D1000A01D00F019FB0028F2D0287810B9601C23
:102D2000FFF7B6FF0120EBE75200002010B5044684
:102D300001F0BCFE6043BDE81040400001F0FAB86D
:102D4000014803F05FBC000000100000F0B54E2306
:102D5000B3FBF2F5022303704F23841804F8013CFF
:102D600081B10123541E0BE003F003068E5DB6FB18
:102D7000F5F705FB176605FB0366C6545B1CDBB263
:102D8000A342F1DB01210DE04318445C13F8013C40
:102D9000E31ADBB2052B03D2C3F1050323444354EA
:102DA000491CC9B29142EFD3F0BD00000349D1F8EC
:102DB00007200260C97A01717047000052000020AC
:102DC00010B588B000216FF0010002AAFF23535410
:102DD000491C09B20529FADB40F6817241F27E01F5
:102DE000895CFF2917D00F20B0EB111F01D00C090F
:102DF00001E001F00F04214604A800F0F0F80522DC
:102E000002A905A8FDF747FB10B1204608B010BD88
:102E10004FF0FF30FAE7521E12B2002ADEDAF5E771
:102E2000F0B52F4D87B000262878012701ACB0B14E
:102E300003208DF80400601CFFF72CFE0020FFF734
:102E400019FF0322611C601CFFF7B0FE002303AAD8
:102E5000042101A8009700F0D7F9A0B117E00220E3
:102E60008DF804000521601C00F086F9012206217E
:102E700001A800F0B3F950B1601CFFF709FF2F70F3
:102E8000002007B0F0BD9DF80C00092802D02E707C
:102E90000320F6E703AC0922601C611CFFF786FEE5
:102EA000601C00F051FAC0B19DF8100020B101285B
:102EB00005D0022800D12E709DF81000E1E7601DBA
:102EC00000F076F90D21074800F056F90548FFF7A4
:102ED000D7FE012000F08EF8EDE72E700220D0E73B
:102EE00052000020F106002041F6FF700078FF2814
:102EF00001D0012070470020704740F6817041F2F8
:102F00007E01095CFF2905D00F20B0EB111F07D00F
:102F100008097047401E00B20028F0DA0E20704702
:102F200001F00F00704700003EB5104C00202070EB
:102F3000FFF7DAFF98B94FF4805090F87E00FF2831
:102F40000DD0FFF7DAFF01460E2808D2684600F0E0
:102F500046F80098C4F8030001A800F029F9BDE87C
:102F60003E400248C01C00F09BB900005200002007
:102F700010B58AB004208DF80400012001460090AD
:102F8000002306AA01A800F03FF930BB9DF8180005
:102F90000A2822D10DF11900FFF77AFE05208DF8DD
:102FA000040001AC601CFFF775FD0D21201D00F031
:102FB000E3F8201DFFF764FE0120FFF75BFE1022FF
:102FC000611C601CFFF7F2FD0122112101A800F035
:102FD00005F910B101200AB010BD0020FBE701EB9C
:102FE000C10101F580510A6802604A684260097AAD
:102FF000017270472DE9FE4300265E4FB04634460D
:1030000000285ED00025E94629466846FFF7E7FF1D
:1030100058490422C91C6846FDF73DFA38B955499C
:103020000522C91D09F10400FDF735FA80B16D1CB8
:10303000EDB20E2DE8D3002529466846FFF7CFFFF5
:103040004C490422C91C6846FDF725FA10B10CE072
:103050002C4632E0052109F10400FFF799FD20B16B
:10306000D7F807000190F87A13E06D1CEDB20E2D31
:10307000E2D3002529466846FFF7B1FF09216846DB
:10308000FFF786FD48B157F8030F0090786801906C
:10309000387A8DF808002C4631E06D1CEDB20E2D0B
:1030A000E8D3B8F1000F07D004EBC4006946092249
:1030B00000F5805003F0DCFA3EB3FFF715FF28B3AC
:1030C00056E0002421466846FFF789FF294904227B
:1030D000C91C6846FDF7DFF90028EED0641CE4B295
:1030E0000E2CEFD3002421466846FFF778FF042119
:1030F0006846FFF74DFD20B1D7F803000090012688
:10310000D2E7641CE4B20E2CEDD331E0FFF7F5FEFC
:10311000A0422DD00E2C2BD04FF48051002040F631
:1031200081720F2591F87E10531C04E041F27E015C
:103130009042095C0DD0CE43360706D0B5EB111F87
:103140000AD164F31F11C9B20AE001F0F001214372
:1031500006E044F0E00103E0401C00B29842E5DBE9
:1031600041F27E02104403F065FA0120BDE8FE83BF
:103170000020FBE752000020F0B50B4B0025C3F800
:10318000005101241C602A46084E09E0D3F8007162
:10319000002FFBD037688754C3F80051521CD2B2BD
:1031A0008A42F3D35C60F0BD00D0004008D50040F7
:1031B00003490268C1F807200079C872704700000F
:1031C0005200002010B5044601F0B2FB00E030BF11
:1031D00001F066FCB0EB440FF9D310BD10B5094CFB
:1031E000134600226270A2700A460146184601F09A
:1031F00045FB08B910BD30BF60780028FBD0A0782F
:1032000010BD0000520000202DE9FC4780460A2036
:103210000A9D009016460F46284601F0D1FD012474
:1032200001F0A0FB01F002FD0028FBD101F036FC0B
:1032300081461E2001F06EFD01F0A2FB2A463946B0
:103240004046FFF7CBFFE0B10224284601F0B8FD6D
:1032500007208DF804000A20FFF7B4FF2A46012159
:1032600001A8FFF7BBFF60B1284601F00BFC40B19D
:10327000202000906A463146284601F08FFB00B1BD
:10328000002401F06FFB00BF01F0D0FC0028FBD14F
:10329000484601F03FFD01F073FB2046BDE8FC8786
:1032A0002DE9FF41054601F0C1FC264C0646EDB371
:1032B00028786978EA7800EB0120A978090401EB05
:1032C0000261471801F06EFD204601F0CDFC50B1BF
:1032D0000021084601F0B2FC28B1384601F0D4FCC8
:1032E00008B1012402E0012407E037B12146084675
:1032F00001F0A4FC08B1012700E00027641CE4B23F
:10330000082CF2D301F0B0FB0446C2B2294668464D
:10331000FFF71CFD87B12146684601F0C5FC58B196
:103320000120002E05D001F02BFB00E007E030B1BA
:10333000012004B0BDE8F0810020002EF9D000206B
:10334000F7E700000406080A10B503220349FDF759
:10335000A2F808B1002010BD012010BD7C72000051
:1033600070B5002409E000BF11F8015B12F8016B91
:103370007540641C00F8015BE4B29C42F4D370BD5C
:1033800070B50E460446007918494FF4A27501EB5A
:103390004010017F2068A1B14FF4887103F026FC32
:1033A0004FF49071206803F021FC4FF49271206873
:1033B00003F01CFC2946206803F018FC0C49206827
:1033C00009E04FF48E7103F000FC2946206803F0F9
:1033D000FCFB08492068C0F80413206800F017FEC1
:1033E0003146BDE8704000F0F6BD00005C010020F1
:1033F00010030200800002002DE9F043264CA4F1E6
:1034000010092278D9F8048099F80350404694F8BE
:1034100001C0D9F8086031E002EB42036168521C38
:1034200001EBC301A378D2B2934200D100220B7802
:10343000022B02D0032B21D11DE003464F68194611
:1034400003E0B94203D00B46C969B9B1F9E7A9B1A4
:103450008B4205D1C06918B9104E0125B560002610
:103460000F68C969D96149B10B683B440B6005E03D
:103470000174C06900E000210028F9D19445CBD146
:10348000C9E9010689F80350404502D00120BDE892
:10349000F0830020FBE7000028000020001001401E
:1034A0002DE9F0412A4F0446002607F11005D7F810
:1034B00004803EE002D02046E4691DE02878696877
:1034C00000EB4002401CC0B201EBC2012870AA7898
:1034D000904200D12E700A784868012A2BD1027CD4
:1034E0004ABB8A684260CA6882600A69C2604969E8
:1034F0008161F97801B146604368BA68DFF854C069
:10350000991A21F07F41614502D28268114406E098
:10351000D11A826821F07F418A4202D9511A016092
:1035200000E006604660012186600174C66103F018
:1035300045FC002CBED1287869788842BED17968D4
:10354000414502D00120BDE8F0810020FBE70000EA
:1035500018000020FFFF7F002DE9F05FC74800261C
:103560000660C7484FF440750560C64806604FF0D6
:103570000108C0F80080C448016821F4807101602E
:10358000016821F00F0141F006010160016821F49A
:10359000702141F440310160041D206820F000706A
:1035A0002060206840F080702060206820F0FF00DC
:1035B00040F020002060206820F47F4020604FF021
:1035C000E0204FF00209C0F8809201F079F8AF498D
:1035D0000860091FAE480860AE480560AE4802F0BA
:1035E00037FCAE49AE4D4860687F216821F4E02188
:1035F00041EA004020600023D5F820C01946182277
:10360000C8002CFA00F0C0B2002400F0010744EA20
:10361000C714C0F3400744EA8714C0F3800744EAA4
:103620004714C0F3C00744EA0714C0F3001744EA84
:10363000C704C0F3401744EA8704C0F3801744EA84
:10364000470444EAD0104C4202EBC404A0400343B8
:10365000481CC1B20429D3D3924803600023D5F893
:1036600024C01946C8002CFA00F0C0B2002400F0B3
:10367000010744EAC714C0F3400744EA8714C0F3C3
:10368000800744EA4714C0F3C00744EA0714C0F3B4
:10369000001744EAC704C0F3401744EA8704C0F3A4
:1036A000801744EA470444EAD0104C4202EBC404B9
:1036B000A0400343481CC1B20429D3D37A48036015
:1036C0000024071D4FF0FF0B07F1040A2819082CEE
:1036D00090F8280058D2A107C90E0BFA01F2D24384
:1036E000042C26D23B681A403A60002200F0010305
:1036F00042EAC312C0F3400342EA8312C0F38003DC
:1037000042EA4312C0F3C00342EA0312C0F30013BB
:1037100042EAC302C0F3401342EA8302C0F38013BB
:1037200042EA430242EAD0108840396808433860D0
:103730002DE0DAF800301A40CAF80020002200F02C
:10374000010342EAC312C0F3400342EA8312C0F30A
:10375000800342EA4312C0F3C00342EA0312C0F3FB
:10376000001342EAC302C0F3401342EA8302C0F3EB
:10377000801342EA430242EAD0108840DAF800108F
:103780000843CAF8000002E04848FCF7AFFF641C99
:10379000082C9BDB464995F830000860454895F8B1
:1037A0003110026822F0FF020260002904BF0168A4
:1037B00001600AD0404A131F012929D0022930D0C4
:1037C000032938D03D48FCF791FF3F4B95F8320074
:1037D00003F1040C0CF1040439493A4ADFF8ECA077
:1037E000251DDFF8ECB02F1D70B3012838D002285A
:1037F00018BFBDE8F09FC1F800901A603548CCF8BA
:1038000000A0206034482860C7F800B0BDE8F09FF1
:10381000016841F001010160C2F800B040F20710F8
:1038200007E0016841F0020101604FF6FF7010608F
:103830002A481860C9E7016841F0030101606FF090
:103840007F4010601E60C0E70E601A602448CCF80C
:1038500000A0206023482860C7F800B0BDE8F09FB2
:10386000C1F800801A602048CCF800A020601F48F2
:1038700028601F483860BDE8F09F000054F5014003
:1038800008F50140FC1F0040141500405CF50140A4
:103890000411004004F501405C0700208C0000206A
:1038A0000C0700201C1500402015004039030900BA
:1038B0000C150040341500403C150040C2030900BF
:1038C0001015004000500078241700404E000054AE
:1038D0003E420F8208800C60886472002110010053
:1038E00003800C602264720002800C601164660028
:1038F000DEC08F82002211460220FDF771FB08B165
:10390000FDF744FB002002F009FE08B1FDF73EFB85
:1039100049A1032002F0A8FD02F004FD0028FBD11C
:1039200001F0F2F828B901F0A5F800F50340FDF721
:103930002DFB4B2001F0DEF928B901F09BF800F5D2
:103940000340FDF723FB4FF4167001F0F3F928B99B
:1039500001F090F800F50340FDF718FBFFF7F0F9D0
:10396000FFF7E2FA01F00CF828B901F083F800F54E
:103970000340FDF70BFB3E4C02213E4A2171002023
:103980001054401CC0B22028FAD311705FF000051B
:1039900094F9032038A1032002F08CFD6570A07813
:1039A000002894F903000BD000281FDB207901F0D8
:1039B0007FF803280EDA0D212E48FFF741F908E0C1
:1039C000002813DB207901F073F8032802DA00F0F5
:1039D000D1F86070607848B1207901F053F8002880
:1039E00001DD00F07DF82078E8B11FE028A101207A
:1039F00002F03AFD02F096FC0028FBD1FFF7E0F957
:103A0000E0700028EFDAFFF74DF818B1FFF708FA79
:103A10002070E8E729A1012002F026FD02F082FCD7
:103A20000028FBD1DFE7FFF7FBF920704FF47A7035
:103A300000F0F4F9ACE700004150503A494E464FCF
:103A40003A47617A656C6C2064796E616D696320B8
:103A500070616972696E67206578616D706C652E42
:103A600020446576696365206D6F64652E0D0A00DC
:103A700000000020C40000204150503A494E464FFB
:103A80003A7061697265642069732025640D0A00CB
:103A90004150503A4552524F523A47617A656C6CE8
:103AA000653A207472616E736D697373696F6E200D
:103AB0006661696C65640D0A000000004150503A6F
:103AC0004552524F523A6164647265737320726555
:103AD000712073656E64206661696C0D0A000000D8
:103AE00010B5114A1149A2F10804207900F056FFDF
:103AF00068B10E48A16808440DA110F8012C0320FC
:103B000002F0D8FC02F00EFC0028FBD110BD00F042
:103B1000B1FF02460EA1032002F0CCFC02F002FC31
:103B20000028FBD110BD000008000020E4000020A8
:103B30004150503A494E464F3A41434B20726563DB
:103B40006569766564203A2025640D0A000000004E
:103B50004150503A494E464F3A41434B20726563BB
:103B60006569766564206572726F722069732025BD
:103B7000640D0A0070B5012401F03AF901F03EF934
:103B8000134D20221149287900F078FE08B912E07F
:103B900030BF01F039F90028FAD001F03BF90446B2
:103BA0006A780CA1032002F085FC00BF02F0BAFB8A
:103BB0000028FBD108E00EA1012002F055FC00BF57
:103BC00002F0B0FB0028FBD1204670BDC4000020ED
:103BD000000000204150503A494E464F3A74782038
:103BE00073756363657373203A2025640D0A0000C2
:103BF0004150503A4552524F523A545820666966E5
:103C00006F206572726F72200D0A00002DE9F04777
:103C10000E46C0F30729C3B2010E40F3074000244B
:103C2000170C40421FFA82F8062B67D2DFE803F038
:103C30000319314B475E002918BF0121254667F360
:103C40000F0461F3070560F31F4468F31F45304616
:103C500001F0B4F9224629464846BDE8F04700F095
:103C600077BE29488068407E002804BF2748FCF7BB
:103C70003DFD304601F0A2F9214664F3070167F3E8
:103C80000F0468F31F4122464846BDE8F04700F0A4
:103C900055BE002918BF012161F3070460F31F44DA
:103CA00039B1002E04BF1A48FCF720FD304601F060
:103CB00085F921464846BDE8F04700F024BF00F0F2
:103CC000BBFFBDE8F08713484168491C416001789B
:103CD000002908BFBDE8F087816800291EBF491E82
:103CE0008160BDE8F08701F081FA18B1BDE8F047C6
:103CF00000F044BEBDE8F04701F092B8BDE8F047DF
:103D00000548FCF7F3BC00006C000020B50305007B
:103D1000C303050000070020E303050002490F224A
:103D20000A70C860704700006C000020C20800F0F4
:103D300007030120895C98400840704709484168A2
:103D40004A1C011F426009680B689A4238BF7047DD
:103D50000022426003685B1C036049688B4228BFF5
:103D6000026070479800002070B5074C251F20683E
:103D700029684968884224BF0448FCF7B7FC2868D2
:103D800021688068405C70BD98000020B20001008E
:103D90000148006870470000980000200148406812
:103DA000704700009800002010B5040004BF0548CB
:103DB000FCF79CFC044800210460001D0160416088
:103DC00010BD00002A0001009400002010B5044638
:103DD000054800684068A0429CBF0448FCF786FC88
:103DE0000348046010BD000094000020B9000100E9
:103DF0009800002010B50446054800680068A042FD
:103E00009CBF0448FCF772FC0348446010BD0000EE
:103E100094000020C50001009800002000283ED03A
:103E20001F49204A096800BF00BF00BF00BF00BF94
:103E300000BF00BF00BF91422FD000BF00BF00BF36
:103E400000BF00BF00BF00BF00BF00BF00BF00BF7A
:103E500000BF00BF00BF00BF00BF00BF00BF00BF6A
:103E600000BF00BF00BF00BF00BF00BF00BF00BF5A
:103E700000BF00BF00BF00BF00BF00BF00BF00BF4A
:103E800000BF00BF00BF00BF00BF00BF00BF00BF3A
:103E900000BF00BF00BF00BF00BF401EC3D17047BE
:103EA000680000200024F40000283ED01F49204A6A
:103EB000096800BF00BF00BF00BF00BF00BF00BF58
:103EC00000BF91422FD000BF00BF00BF00BF00BFA6
:103ED00000BF00BF00BF00BF00BF00BF00BF00BFEA
:103EE00000BF00BF00BF00BF00BF00BF00BF00BFDA
:103EF00000BF00BF00BF00BF00BF00BF00BF00BFCA
:103F000000BF00BF00BF00BF00BF00BF00BF00BFB9
:103F100000BF00BF00BF00BF00BF00BF00BF00BFA9
:103F200000BF00BF00BF401EC3D170476800002023
:103F30000024F40000283ED01F49204A096800BF31
:103F400000BF00BF00BF00BF00BF00BF00BF914265
:103F50002FD000BF00BF00BF00BF00BF00BF00BF29
:103F600000BF00BF00BF00BF00BF00BF00BF00BF59
:103F700000BF00BF00BF00BF00BF00BF00BF00BF49
:103F800000BF00BF00BF00BF00BF00BF00BF00BF39
:103F900000BF00BF00BF00BF00BF00BF00BF00BF29
:103FA00000BF00BF00BF00BF00BF00BF00BF00BF19
:103FB00000BF401EC3D17047680000200024F400F9
:103FC00000F01F02012191404009800000F1E02033
:103FD000C0F8801170474907090E002806DA00F082
:103FE0000F0202F1E02282F8141D03E000F1E0224A
:103FF00082F8001400F01F02012191404009800066
:1040000000F1E020C0F88012C0F800117047000BEA
:1040100040B270470121B1EB507F01D101207047C0
:10402000002070472DE9F04105460079164F904673
:1040300007EB40140E46E07E10B10820BDE8F08189
:10404000707F20772846FEF7E3F95FEA080060609A
:104050003169216003D0317F2846FFF791F9287933
:1040600007EB4010007F0028286801D0082100E0FD
:104070000421C0F800150020E0752076A07501210C
:10408000E176A076DAE700005C0100202DE9F04738
:10409000054600793F4E904606EB40140F46207FC0
:1040A00018B10846FFF7B6FF30B1284600F074F8A3
:1040B00020B11120BDE8F0871020FBE784F81680BE
:1040C000A7600027A78228794FF0010806EB40146B
:1040D0003E46207F0028286825D04FF49079494635
:1040E00002F084FD4FF4AC7A5146286802F07EFD60
:1040F0002868A17DA268C0F84425C0F84815286842
:10410000C0F808806068F0B94946286802F069FD87
:1041100080465146286802F064FD58EA0001F3D059
:1041200058BBA7750FE04FF48E7A514602F04DFD53
:104130002868C0F808802146286802F0B9FE616846
:104140004FF4807089B13046B4E75146286802F0D8
:1041500037FD10B9A08A4845F7D1A08A484505D057
:104160002146286802F0A4FE00E08146A08AA17DD5
:104170008842EAD3A08A484501D10F26D1E75146AB
:10418000286802F01DFD0028F9D02868C0F80C80CE
:10419000C7E700005C0100200079044901EB4010F2
:1041A000807D002800D00120704700005C010020C5
:1041B00070B5044600791149002601EB40152068CE
:1041C0002A7FC0F80065686888B1207901EB40104B
:1041D000007F0028206801D0094901E008498C3996
:1041E000C0F808132068FFF712FFFFF7E9FE20462A
:1041F00002F002FDEE766E6070BD00005C010020F2
:104200001003020070B5124D06464FF080746868C6
:10421000814202D01022FCF713F90E490020C1F8A8
:10422000000101220A6001E0641E0ED0D1F80021D5
:10423000002AF9D0C1F80001A9688E4203D01022EB
:104240003046FCF7FDF8012070BD002070BD000075
:104250000C00002000E000400549064801F1100272
:10426000C0E90012103282600348016001207047EB
:104270007C0100200C00002004E5004001460248BB
:1042800010220068FCF7DCB80C0000202DE9F05F7C
:104290008046102824BF4348FCF728FAB8F1100FD5
:1042A00024BF4148FCF722FA08EB48063F49885DE5
:1042B000002808BFBDE8F09F3D4A701802EB860B4E
:1042C000054610F8022F5BF822400278521C02705B
:1042D00090F800C00022BCF1030F28BF0270885D77
:1042E000401E8855002C08BFBDE8F09FDFF8C4A031
:1042F000314FDFF8C890544504BF3148FCF7F6F958
:104300003868062824BF2F48FCF7F0F900203968E8
:1043100000290BD959F82030A34203D12A48FCF7D1
:10432000E5F90FE0401CC0B28842F3D327490020D2
:1043300000EB001201EB4202A24206D0401CC0B2C8
:104340000628F5D32248FCF7D1F9386859F820003F
:1043500050451CBF1F48FCF7C9F9386849F8204090
:10436000401C3860B8F1100F24BF0F48FCF7BEF9AD
:104370000E48815D002908BFBDE8F09FA978AB78A1
:104380005BF82140A91C5B1CAB70AB78032B24BFEE
:1043900000220A70815D491E8155002CABD1BDE819
:1043A000F09F0000D7000300A6000300C008002013
:1043B000F0080020ADDEADDEC0000020B009002016
:1043C000DB00030085000300F6000300C80900209D
:1043D000860003008800030070B51B4E0446306859
:1043E000062824BF1948FCF781F900213268184DCE
:1043F000002A0BD955F82130A34203D11548FCF708
:1044000075F90FE0481CC1B29142F3D3124A002162
:1044100001EB011002EB4003A34206D0481CC1B2DD
:104420000629F5D30D48FCF761F930680C4955F8B9
:10443000200088421CBF0B48FCF758F9306845F84B
:104440002040401C306070BDC0000020850003008B
:10445000B0090020F6000300C80900208600030010
:10446000ADDEADDE88000300014800687047000043
:10447000C000002010B50446102824BF0348FCF7F4
:1044800035F904EB44000249085C10BDC800030084
:10449000C008002030B40020144A014600EB40035D
:1044A00003EB020C8CF801108CF80210D154401C64
:1044B0001028F3D30E4C002104F1180C5FF0DE023B
:1044C00001EB01100CEB400344F8213000201D18D3
:1044D0001A54801C6A702228F9D3491C0629EFD38C
:1044E00004490620086030BC70470000C008002066
:1044F000B0090020C000002070B500240546102837
:1045000024BF1148FCF7F2F805EB45030F4AD05CD5
:10451000C0B1991802F1300011F802CF00EB83000E
:1045200050F82C4091F800C00CF1010C81F800C04B
:1045300091F800C0BCF1030F24BF00200870D05CCC
:10454000401ED054204670BDA6000300C0080020C5
:1045500070B50D460446102924BF2348FCF7C6F861
:104560000022224816460068002888BF20490BD93F
:1045700051F822C0A44503D11E48FCF7B7F80FE05C
:10458000521CD2B28242F3D31B48002202EB02112A
:1045900000EB4103A34206D0511CCAB2062AF5D350
:1045A0001648FCF7A3F8164B05EB4502985C032868
:1045B00024BF002070BD1348D11800EB820011F811
:1045C00001CF40F82C4091F800C00CF1010C81F8AB
:1045D00000C091F800C0BCF1030F28BF0E70985CBA
:1045E000401C9854012070BD8F000300C0000020C3
:1045F000B0090020F6000300C80900209000030065
:10460000C0080020F008002010B50446102824BF80
:104610000948FCF76BF804EB440008490A5C002ADF
:1046200004BF002010BD064A02EB800208448078D7
:1046300052F8200010BD0000B7000300C0080020A1
:10464000F0080020184B10B51968002449B3174A28
:10465000DFF85CC002EB810050F8044C40F804CC59
:10466000481E4FF0000118600CD000BF52F821C066
:10467000A44503D10F48FCF739F80FE0491CC9B233
:104680008142F3D30C48002101EB011200EB4203FD
:10469000A34206D0491CC9B20629F5D30748FCF746
:1046A00025F8204610BD0000C0000020B009002001
:1046B000ADDEADDEF6000300C80900207D0003007A
:1046C00000487047488000400048704740810040E3
:1046D0000148007870470000A000002070B5124E1D
:1046E00001247460F460114800250560746410486A
:1046F000006800281CBF0F48FBF7F8FF4FF0FF30A1
:10470000C6F80803C6F840510B49042008600B485E
:10471000456004704570857088154FF0E021C1F840
:104720008002C1F8000170BD008000400885004093
:10473000448500403500040010850040A0000020A2
:1047400003490120086003490020087070470000F9
:1047500000800040A0000020074801214160C160A6
:10476000064800224FF0E02C426042700B02CCF869
:10477000803282700170704700800040A0000020ED
:104780000148407870470000A000002070B541EA61
:104790004201DDE904564FF0A04441EA830141EAB9
:1047A000052104EB800041EA0641C0F8001770BD06
:1047B00070B541EA4201DDE904564FF0A04441EAF8
:1047C000830141EA052104EB800041EA0641C0F87B
:1047D000001770BD1CB5002100910B46012201910C
:1047E000FFF7E6FF1CBD1CB500220B4600921146E8
:1047F0000192FFF7DDFF1CBD1CB5002100910B46A7
:10480000012201911146FFF7D3FF1CBD4FF0A042DA
:1048100002EB8000D0F8002722F44032C0F80027D5
:10482000D0F8002742EA0141C0F8001770470000A5
:1048300018B5084B6C4601441B68009306E000BFA6
:1048400054F82030D3F81035401C08C28142F7D804
:1048500018BD000034720000034908B50844002167
:1048600001600068009008BD0060004002494058A7
:10487000012800D000207047006000402DE9F04181
:10488000294C164688460746082804D30420207081
:104890000020BDE8F081B8F1000F06D0202E09D924
:1048A000062020700020BDE8F08103202070002049
:1048B000BDE8F08100F0A2FB032804D3092020709A
:1048C0000020BDE8F081384600F08AFB032804D3BD
:1048D0000A2020700020BDE8F08100F079FB02285A
:1048E00004D2082020700020BDE8F08100F0DAFC3E
:1048F000054606704078324640F001006870414637
:10490000A81CFBF79DFDF8B2294600F083FC0028A7
:104910001CBF0120BDE8F0810448FBF7E7FE0F2033
:1049200020700020BDE8F0816C000020DD00050053
:104930000149002048607047000700200348C1601B
:1049400002610121417000218170704752000020F6
:104950000348C1600261012141708170704700000D
:104960005200002010B500F041FC18B1BDE8104025
:1049700000F004B8BDE8104000F052BA70470000E3
:104980000548816819B9022101700020704710B5EF
:1049900000F084FA012010BD6C0000202DE9F041E8
:1049A00016460F46044600F01BFB1A4D60B187B156
:1049B000204600F075FC0078316881420ED2062056
:1049C00028700020BDE8F0810B2028700020BDE891
:1049D000F081032028700020BDE8F081204600F01F
:1049E0000FFC040018BF14F102000BD0227801461E
:1049F00038463260FBF724FD204600F0DFFA012044
:104A0000BDE8F0810448FBF771FE0F2028700020FC
:104A1000BDE8F0816C0000200501050010B50828F4
:104A200004D3054904200870002010BDC0B200F076
:104A3000A1FA012010BD00006C000020094910B54A
:104A40008A68527E1AB10C200870002010BD082818
:104A500003D304200870002010BDC0B200F094FA07
:104A6000012010BD6C000020014840687047000024
:104A70006C00002001480078704700006C000020A6
:104A800000F0A8BA082804D3034904200870401F86
:104A9000704700F0A5BA00006C00002000F0A2BA38
:104AA00001484068704700000007002000F0A0BAED
:104AB000082804D30349042008700020704700F040
:104AC0009DBA00006C00002010B5012400F098FA97
:104AD000F02808BF052414D008DC90B1042808BFD2
:104AE00000240ED0EC2808BF06240AE0F42808BFF2
:104AF000042406D0F82808BF032402D0FC2808BFED
:104B00000224204610BD70472DE9F047434C8046F3
:104B1000002543482570E560056045608560414893
:104B200000F074FA0127A060002872D0407E0226AF
:104B3000626804F11001012808BF26701FD0102AF6
:104B40001BD8100019D03848FBF77AFC364861684A
:104B500000F0C6FB4FF00109B8F1000F12D0B8F118
:104B6000010F08BF022011D0B8F1020F1CBF0520B1
:104B700020704FF0000009D00BE0072020704FF0AC
:104B80000009E9E7012000F027FC01E000F024FC27
:104B9000012000EA0908042000F08EFBA168002033
:104BA000497E00291CBF2670284602D100F092FBE6
:104BB0003846A16800EA08080020497E00291CBF89
:104BC0002670284602D100F019FD384600EA080890
:104BD000A068407E00281CBF2670284603D1012013
:104BE00000F098FB3846A16800EA08080020497EDA
:104BF000002918BF267002D100F00AFD3D4605EAE3
:104C00000805012000F0A4F9002D1CBF0120BDE81B
:104C1000F08727700020BDE8F08700006C000020BE
:104C2000000700200D3C00007C0000200148806847
:104C3000407E70476C00002070470000094A10B5A4
:104C400093685B7E1BB102201070002010BD082805
:104C500003D304201070002010BD00F077FC012069
:104C600010BD00006C000020064910B58A68527E15
:104C70001AB102200870002010BD00F0EFFB0120E7
:104C800010BD00006C000020064910B58A68527EF5
:104C90001AB102200870002010BD00F01BFC01209A
:104CA00010BD00006C00002010B5114CA268527EAF
:104CB000012A11D0102913D891B1A8B10A46616018
:104CC000014604F11000FBF7BBFB04F11000616822
:104CD00000F006FB012010BD02202070002010BD56
:104CE00007202070002010BD03202070002010BD80
:104CF0006C000020064910B58A68527E1AB1022065
:104D00000870002010BD00F061FB012010BD000004
:104D10006C000020064910B58A68527E1AB1022044
:104D20000870002010BD00F05DFC012010BD0000E7
:104D30006C000020064910B58A68527E1AB1022024
:104D40000870002010BD00F053FC012010BD0000D1
:104D50006C000020124910B58B68024600205B7E73
:104D60001BB102200870002010BD072A14D2DFE812
:104D700002F0040F06080A0C0E00042008E0FC20D4
:104D800006E0F82004E0F42002E0F02000E0EC204F
:104D900000F034FC012010BD0E200870002010BD72
:104DA0006C00002010B5FFF741FF002806D0FFF788
:104DB000D9FD30BFFFF73AFF0028FBD110BD00003E
:104DC00038B50446012181F31088202505E06A46A4
:104DD000064920460095FFF7E1FD2046FFF752FE09
:104DE0000028F4DC002080F3108838BDC4060020C1
:104DF00001490020487070475200002001490020FE
:104E000088707047520000200148407870470000C9
:104E100052000020014880787047000052000020B6
:104E200010B5012080F310881748417E002927D053
:104E3000817829BB01248470FFF74AFC01281FD127
:104E400001F0A2FE00281CBF1048FBF74FFC002217
:104E500064210F48FBF74CFC0E48007F70B90E48E8
:104E6000046000210007C0F80011046000BF00BF0B
:104E700000BF00BFD0F800110029FBD0FFF760FC95
:104E8000002080F3108810BD400700202C06090088
:104E9000656B00000C0700201405004070B5234D21
:104EA000687E002818BF70BDFEF756FB204CA06836
:104EB000002804BF1F48FBF719FC6068002804BFE6
:104EC0001D48FBF713FC01F059FE00281CBF1B48CE
:104ED000FBF70CFC002001F065FE01246C76FFF767
:104EE000F7FB012818BF70BD01F04EFE00281CBF63
:104EF0001348FBF7FBFB002264211248FBF7F8FB89
:104F00001148007F70B91148046000210007C0F803
:104F10000011046000BF00BF00BF00BFD0F8001147
:104F20000029FBD0BDE87040FFF70ABC4007002015
:104F3000740700205E0209005F0209006602090092
:104F40002C060900656B00000C07002014050040CA
:104F500010B5044604484068002804BF0348FBF726
:104F6000C5FB0348047510BD8C000020F603090042
:104F70005C07002010B5012181F3108801F0B6FC18
:104F8000002080F3108810BD10B50446012181F384
:104F9000108808490A78002A1FBF487E0028064862
:104FA000FBF7A4FB204601F0A5FC002080F310884D
:104FB00010BD000040070020FA02090010B50121D1
:104FC00081F3108801F0B0FC002080F3108810BD40
:104FD00001F0ACBC0148408B704700000C0700207A
:104FE00001F0B8BC01484069704700000C07002080
:104FF00001484068704700000C07002001F0B4BC75
:10500000014890F8300070470C0700202DE9F04768
:105010000446012080F310886B4D4FF003090026F1
:10502000687085F80090AE706E60AE60AE81EE8103
:105030002E6107466E612E7605F11C006E760660C5
:1050400046608660C660066100F118080675C8F8FB
:105050000860C8F80460FFF741FB204601F0B8FA89
:1050600001F084FC002001F095FD05F13400FEF70D
:105070009BFE564880F80064C01F80F800645449C5
:10508000202081F80004012087F310882978A5F1F9
:105090003404012928D06870687E20B1FFF718FB1E
:1050A000012803D020E002F031F81DE001F06CFD92
:1050B00000281CBF4748FBF719FB00226421464823
:1050C000FBF716FB207F68B9444807600007C0F86B
:1050D0000061076000BF00BF00BF00BFD0F8001133
:1050E0000029FBD0FFF72CFB002080F31088FF2065
:1050F0002061042161773A4820623A48606284F86E
:105100002870022084F8290084F82A9084F82B1053
:10511000052184F82C10062184F82D10072184F82D
:105120002E10082184F82F1084F8306084F83100A4
:1051300084F832701E2161614FF416716160E06085
:105140002A78022A06D06968002904BFA168C8F835
:10515000001001D0C8F800000F21A160022A05D07C
:105160006A68002A08BFC8F8001001D0C8F800001B
:10517000002060830120207660760020207701F0F7
:105180006DFC69202060687801281CBF1648FBF779
:10519000ADFA2F70AE706E60AE60AE81EE812E61A2
:1051A0006E612E766E76FEF7D7F94FF0E0204FF461
:1051B0008071C0F880124903C0F8801286F310880D
:1051C0000148BDE8F08700004007002008E000E04B
:1051D00015E000E02C060900656B00001405004096
:1051E00004070A0D05080B0E3C0209000348407E27
:1051F00000280CBF0120002070470000400700205D
:1052000010B5012181F3108801F0E6FB002181F344
:10521000108810BD10B5012282F3108801F0DFFB69
:1052200000282ED01948817831BB407E20B3FFF78B
:105230004FFA012820D101F0A7FC00281CBF144818
:10524000FBF754FA002264211248FBF751FA124886
:10525000007F78B911480121016000220007C0F8E1
:105260000021016000BF00BF00BF00BFD0F80011E7
:105270000029FBD0FFF764FA002080F3108801209A
:1052800010BD002080F3108810BD000040070020F2
:105290002C060900656B00000C0700201405004077
:1052A00001F0AEBB10B5012080F3108801F0ABFB1C
:1052B000002181F3108810BD0449487704490A6829
:1052C00022F4E02242EA0040086070470C07002008
:1052D0001815004001490876704700000C070020AF
:1052E00070B50C00054604BF0748FBF7FFF9002D19
:1052F00004BF0648FBF7FAF90548C0E90145BDE8D7
:1053000070400020FEF762BD480309004903090010
:10531000740700202DE9F0011F49224B204A1C1D73
:1053200081F83200251D1D49DFF87CC02E1DDFF8F5
:105330007C80371DA0B1012820D002281CBFBDE809
:10534000F0017047022008601A601948C4F800C0D4
:10535000286018483060C7F80080BDE8F001704749
:10536000002008601A601448C4F800C02860134880
:105370003060C7F80080BDE8F00170470120086088
:105380001A600F48C4F800C028600E4830600E480C
:105390003860BDE8F00170470C0700201015004090
:1053A00000500078241700404E0000543E420F8207
:1053B00008800C608864720003800C6022647200B4
:1053C00002800C6011646600DEC08F820149488350
:1053D000704700000C07002010B5012181F31088F0
:1053E00019490A7882422BD04870487E20B1FFF7D5
:1053F0006FF9012803D023E001F088FE20E001F0DE
:10540000C3FB00281CBF1148FBF770F90022642180
:105410000F48FBF76DF90F48007F78B90E4801215E
:10542000016000220007C0F80021016000BF00BF3A
:1054300000BF00BFD0F800110029FBD0FFF780F9B2
:10544000002080F3108810BD400700202C060900C2
:10545000656B00000C070020140500401B4930B4A8
:1054600000231A464FF0180C0862D10020FA01F10F
:10547000C9B2002401F0010544EAC514C1F3400596
:1054800044EA8514C1F3800544EA4514C1F3C0051C
:1054900044EA0514C1F3001544EAC504C1F34015FC
:1054A00044EA8504C1F3801544EA450444EAD11175
:1054B00054420CEBC404A1400B43511CCAB2042A51
:1054C000D3D30348036030BC704700000C070020B2
:1054D0001C1500401B4930B400231A464FF0180C2D
:1054E0004862D10020FA01F1C9B2002401F001059F
:1054F00044EAC514C1F3400544EA8514C1F38005AC
:1055000044EA4514C1F3C00544EA0514C1F300158B
:1055100044EAC504C1F3401544EA8504C1F380158B
:1055200044EA450444EAD11154420CEBC404A140BE
:105530000B43511CCAB2042AD3D30348036030BCC6
:10554000704700000C0700202015004008283ED2BC
:10555000204AFF2302444FF0000C82F828108207F3
:10556000D20E03FA02F201F001034CEAC313C1F3B5
:10557000400C43EA8C13C1F3800C43EA4C1CC1F38A
:10558000C0034CEA031CC1F300134CEAC30CC1F383
:1055900040134CEA830CC1F380134CEA430343EA03
:1055A000D1118307DB0ED2439940042807D20A4861
:1055B00003681A400260026811430160704707489F
:1055C00003681A4002600268114301607047044892
:1055D000FBF78CB80C07002024150040281500406C
:1055E0003903090001494861704700000C07002099
:1055F00001494860704700000C070020024981F80B
:1056000030000249086070470C0700200C1500406C
:1056100001490877704700000C07002070B5114859
:10562000114C4068407D28B1012000F0BBFCA089EE
:10563000401CA0810D49002630460E600C494A6886
:105640000968551A01F0AEFA6069A84224BF0948FA
:10565000FBF74CF860690122291A0748FBF748F864
:10566000666170BD8C0000204007002054F50140A9
:105670000C0700204D060900656B00002DE9F04F76
:10568000F84CDFF8E483F94F606983B004F1340A21
:105690004FF001090025A4F1340610B9FFF770F8A6
:1056A000D0B1606800281CBF401E606020780228CE
:1056B00004D06168002908BFB16800D0F168CAF859
:1056C0000010A178002900F0EF81FEF737FB03B04E
:1056D000BDE8F04FFDF77EB92078012802D00228FE
:1056E00006D00CE000F054FC002840F0198206E0DF
:1056F00098F80000042818BF032800F01182FEF774
:105700001DFB606800281CBF401E606020780228D6
:1057100004D06068002808BFB06800D0F068CAF8FC
:105720000000A078E8B1FDF755F900BF00F046FF92
:105730000228C0F0B38100204FF0030C8DF800C0A8
:105740008DF80100ADF808000190ADF80A008DF861
:1057500002508DF80350684600F0F2FE03B0BDE839
:10576000F08F01F0D3FC88B10020766801F01AFABE
:105770006069B04224BFBE48FAF7B8FF60690122F1
:10578000311ABC48FAF7B4FF6561CFE720780028EA
:1057900000F0348101281AD0022800F01381B648A5
:1057A000FAF7A4FF707E0128C0D120780228BDD06E
:1057B00061680029BAD14FF08047002800F042818B
:1057C000012800F02781AD48FAF790FFAEE700F01E
:1057D000B7F901F0C3F8DFF8A8A20AF1040B28B367
:1057E000708B00287ED0A18981427BD301210020CB
:1057F00001F012F84FF0010801F0A0F80746B4F8E4
:105800000CA0B4F80EB001F09FF88DF800808DF870
:105810000100ADF808A08DF802500197ADF80AB06C
:105820008DF80350684600F08BFE9CE000F0C6FE49
:10583000022876D32078022801D0606818B1FEF7DC
:10584000ADFA60B38FE02069FEF7C0FA0020FEF7E2
:10585000D1FA01F02BF9002863D0A581E58101F090
:1058600073F88849086001F06FF809FA00F186487A
:10587000016001F063F88549086001F059F8834937
:1058800048608348C860FEF76FFA386001F066F838
:10589000012870D001F062F8022857D053E0307E22
:1058A00030B301F003F9E0B3A581E58101F04CF8D4
:1058B0007449086001F048F809FA00F17248016083
:1058C00001F03CF87149086001F032F86F49486016
:1058D0006F48C860FEF748FA386001F03FF80128C9
:1058E00066D000E048E001F039F802285ED02AE0F6
:1058F000FEF74EFA2169884235D101F0D7F880B120
:10590000A581E58101F020F85E49086001F01CF8EE
:1059100009FA00F15C48016001F010F85B49086089
:1059200000E020E001F004F8584948605848C86099
:10593000FEF71AFA386001F011F8012838D001F0AA
:105940000DF8022832D05348FAF7D0FE2EE000BFFF
:1059500000F0A8FAFEF7B8FECAF80000D8F8040074
:105960004068CBF800000120376801F01BF960693E
:10597000B8421FD349E01BE0FEF702FF00281CBF1E
:105980004548FAF7B3FEFEF7EFF93968884202D0CE
:10599000E089401CE081FEF7E7F9386000F0DEFFA7
:1059A000012805D000F0DAFF0228CCD10020CFE793
:1059B0000120CDE760690122391A2E48FAF798FED6
:1059C0006561EFE64FF0000AFEF7CEF939688842CC
:1059D00004D0FEF7C9F938604FF0010A98F80010BA
:1059E000AAF10100084208BFFCF732FE00207768E8
:1059F00001F0D8F86069B842DCD306E0002077688F
:105A000001F0D0F86069B842D4D31948FAF76EFEB5
:105A1000D0E700BF00F0A2FF00287FF487AE01F0BE
:105A20009BF800287FF482AEFEF752FE01283FF477
:105A30007DAEFEF791FE307F70B900BFC7F80490CD
:105A40000AE000BFFEF744FE01283FF46FAEFEF708
:105A500083FE307F0028F1D0002001F0A3F86560BC
:105A600064E60000400700208C000020081500407C
:105A70004D060900656B0000580409007204090016
:105A800050F501402C150040301500405C07002007
:105A9000492800001E0609000A05090003B0254830
:105AA000BDE8F04FFAF722BE022809D0FEF746F90A
:105AB0000020766801F076F86069B04223D225E0D4
:105AC00098F80000042818BF032829D0FEF736F9FB
:105AD0004FF00009FEF748F93968884204D0FEF714
:105AE00043F938604FF0010998F80010A9F101005E
:105AF000084208BFFCF7ACFD0020766801F052F8C0
:105B00006069B04202D30C48FAF7F0FD60690122E7
:105B1000311A0A48FAF7ECFD656103B0BDE8F08F71
:105B200070684108616103B00122BDE8F04F03488D
:105B3000FAF7DEBD8C0409004D060900656B000014
:105B400030B44FF0E02401204FF0020C0021C4F8E3
:105B500080C1724A851EC2F80853C4F880C2C2F8D8
:105B60000012C2F81011106190616D4B1878012875
:105B700008BF06205AD0022816BF032802200120A1
:105B80007ED0401E00BF00BF00BF00BF00BF00BFEF
:105B900000BF00BF00BF00BF00BF00BF00BF00BF0D
:105BA00000BF00BF00BF00BF00BF00BF00BF00BFFD
:105BB00000BF00BF00BF00BF00BF00BF00BF00BFED
:105BC00000BF00BF00BF00BF00BF00BF00BF00BFDD
:105BD00000BF00BF00BF00BF00BF00BF00BF00BFCD
:105BE00000BF00BF00BF00BF00BF00BF00BF00BFBD
:105BF00000BF00BFC5D100BFC2F810111970C2F8B4
:105C00000012C2F80853C4F880C2C2F80C11032075
:105C10005870C2F80011C2F81011C2F8041159608E
:105C200019755975C4F800C130BC7047401E00BFDB
:105C300000BF00BF00BF00BF00BF00BF00BF00BF6C
:105C400000BF00BF00BF00BF00BF00BF00BF00BF5C
:105C500000BF00BF00BF00BF00BF00BF00BF00BF4C
:105C600000BF00BF00BF00BF00BF00BF00BF00BF3C
:105C700000BF00BF00BF00BF00BF00BF00BF00E00B
:105C800011E000BF00BF00BF00BF00BF00BF00BFEA
:105C900000BF00BF00BF00BF00BF00BF00BF00BF0C
:105CA00000BFC3D1A8E7401E00BF00BF00BF00BFB8
:105CB00000BF00BF00BF00BF00BF00BF00BF00BFEC
:105CC00000BF00BF00BF00BF00BF00BF00BF00BFDC
:105CD00000BF00BF00BF00BF00BF00BF00BF00BFCC
:105CE00000BF00BF00BF00BF00BF00BF00BF00BFBC
:105CF00000BF00BF00BF00BF00BF00BF00BF00BFAC
:105D000000BF00BF00BF00BF00BF00BF00BF00BF9B
:105D100000BF00BF00BF00BFC5D16DE7001000404D
:105D2000800700202DE9F0413D483F4E03220369E2
:105D300000253C4C3168012B06D0022B56D0BDE823
:105D4000F0413A48FAF7D2BC0423037083695B1C24
:105D50008361C4F8002201274FF0E0280222C8F82E
:105D60008022C4F80C51C4F80051C4F81051C4F892
:105D700004510822C4F80423097D89B12C4909681B
:105D800081752C48006810F4806F04BF2A48FAF728
:105D9000ADFCC4F81C51A76128494FF4806008602D
:105DA000D4F8000100281CBF2548FAF79FFCD4F85E
:105DB0000C0100281CBF2348FAF798FCD8F8000211
:105DC00010F0020F1CBF2048FAF790FC3068C06842
:105DD000002818BF80473068417D002908BFBDE812
:105DE000F081006819490860BDE8F081C4F80C51E1
:105DF000C4F81051C4F80051C4F80451C4F800525A
:105E000005704FF0FF33C4F80833427045600575E4
:105E10000869002808BFBDE8F081BDE8F0410047EF
:105E20008007002000100040A8000020E7020A00C0
:105E30004815004000F50140AD020A0008F5014098
:105E4000B6020A00B7020A00B8020A0004150040B0
:105E500070B50F4902254FF0E02608600024C6F80F
:105E600080510D490B480860091F0C48086006F571
:105E7000C076FFF765FE0A48032104704170446054
:105E8000046104754475847546F8805C70BD00003B
:105E9000A80000201410004064F5014004110040E7
:105EA000800700202DE9F04705462E482E4C00EBD8
:105EB0000517207D00281CBF2C48FAF717FC002688
:105EC0004FF0010A002D1CBF012D022D2DD02848B6
:105ED000FAF70CFC2748FAF709FCDFF89C80667596
:105EE0004FF0FF30C8F808034FF0E0210220C1F85E
:105EF0008002DFF888906570032DD9F800000168F2
:105F0000A1604268C4E90326A661386860601BD2BC
:105F1000387AC8F80002FB7A194853B10260006869
:105F2000002808BF17480AD00BE020780028D1D1FC
:105F3000D3E701600068002808BF134801D1FAF7D1
:105F4000D5FB787AC8F80403D9F80000007D28B1A1
:105F5000022D03D10D49A6756802086084F815A0CA
:105F6000BDE8F0879072000080070020DB000A0087
:105F7000F9020A00DD000A0000100040A80000201D
:105F80000415004005010A0000010A0004F5014063
:105F90000348D0F80401012818BF00207047000012
:105FA000001000402DE9F041214C0746214865785A
:105FB00000EB0516607D01281CBF1F48FAF796FB11
:105FC000207D00281CBF1D48FAF790FB012000210E
:105FD00020756175032D09D2002F04BF3168086058
:105FE000022D12BF012DB07A207002E01448FAF79A
:105FF0007DFB14480068007D002808BFBDE8F081E3
:10600000022D18BFBDE8F0810F48006810F4806FC2
:1060100004BF0E48FAF76AFB0D480068002818BF55
:10602000BDE8F0810B48BDE8F041FAF75FBB000026
:10603000800700209072000021010A0022010A005E
:106040003A010A00A800002004F5014040010A00BE
:106050000415004041010A0000487047D16000006B
:1060600030B5184C054689B0207828B16078854253
:1060700002D1002009B030BD202213496846FAF74A
:10608000DFF900208DF81400062000900820019010
:1060900005200390072002904FF0EB70069009480E
:1060A000001DFEF785F80DB1002200E0074A054803
:1060B0006946001DFDF7B6FF0028DBD101202070E6
:1060C0006570D6E73C00002038720000ED6E0000DD
:1060D0002DE9F04FC1B00D004FF0000140914D98F7
:1060E0004B991C46174601EB000B01D00A2000E03B
:1060F0000020804600F000FE00287CD16E46BCB92E
:10610000409840AA3118284600F0B8FE002872D006
:106110003846FAF7B9F9C22800D9C2200546409896
:106120002A4630443946FAF78BF940982844409083
:106130004FF0200A409901EB080231320DEB0105C6
:106140000DEB0206002002E005F801AB401C4045C3
:10615000FAD300275C4508D305F801AB05F801AB7D
:1061600005F801AB06F801AB2DE04B98844202D252
:106170004A98005D02E0211A4C98405C2B4681460B
:1061800002460121880022FA00F000F00F000928E1
:1061900001D9373000E03030C1F1010C491E03F85D
:1061A0000C00EFD29D1C05F801ABFAF745F9016828
:1061B00011F8090010F03E0F01D0484600E02E20F3
:1061C00006F8010B641C7F1C102FC3D30D20307008
:1061D0000A20707085F800A0409968464144433118
:1061E000409100F08FFD30B100F086FD18B900201D
:1061F00040905C459ED341B02046BDE8F08F2DE92C
:10620000F043C7B000251C46904689464E9F4595F1
:1062100000F072FD00287AD1459805AE311845AAE4
:10622000484600F02BFE002835D0072F27D2DFE8A4
:1062300007F004121B35424F5D004046FAF724F97F
:10624000054645982918FF2919D830442A46414661
:10625000FAF7F6F813E045982368C0F580713044EA
:106260004246FAF701FE09E060680090459823680D
:10627000C0F5807130444246FAF7F6FD05462946DE
:1062800045A8FCF747FA459978B3B1F5807F3ED829
:1062900005A800F037FD47B0BDE8F083D4E901015F
:1062A000CDE9000145982368C0F58071304442462D
:1062B000FAF7DAFDE2E7201D07C88DE807004598E8
:1062C0002368C0F5807130444246FAF7CDFDD5E72A
:1062D000201D0FC88DE80F0045982368C0F5807118
:1062E00030444246FAF7C0FDC8E710E004F1080068
:1062F00001AD0FC885E80F006068009045982368DD
:10630000C0F5807130444246FAF7AEFDB6E7002092
:10631000C1E7000000487047FF6100000120FFF75F
:106320009FBE00002DE9F04F87B0FCF72DFA18B1A1
:10633000002007B0BDE8F08F454ED6E9014704EADA
:10634000070006EB8000A146641CC5680CE000BF96
:10635000C5F3891000EB9550044404EA070006EBEE
:106360008000A146C568641CA807F1D005F00300B1
:106370004FF0000B022805D0AA0A01A8C5F3831329
:10638000002153E004EA070006EB800004F1010A53
:106390000AEA0704C268381B80004FEA9558001DBE
:1063A000C5F38913804521D929490C3138B106EB51
:1063B000840400F0FF0CA8EB00000C3404E00C4651
:1063C000002108F0FF0C0846C0B2CDE90210CDE96B
:1063D000004CD6F81444C5F3C2005946A0474045C6
:1063E00011D108F103080AEB98042AE0002106EB1A
:1063F00084000C300090CDE901810391C5F3C20007
:10640000D6F81444EAE760F38F1509EA070006EBB3
:106410008000C56016E000BF04EA070C06EB8C0C98
:10642000491CDCF80CC040F804CB641C9942F3D33F
:10643000C5F3C2000093D6F8105401AB5946A847E3
:1064400000B17460FCF7A0F980F0010071E7000072
:10645000AC020020034AFF239360002313605360C3
:1064600000F054B8AC0200202DE9F8430F4F8846E5
:106470000446002569462846BE68FCF755F9002801
:1064800012D00B480021406861F38200009964F348
:10649000C50001EA060265F3891007EB820268F382
:1064A0009F20491CD0600091BDE8F883AC02002019
:1064B000587200002DE9F843124D88460446012722
:1064C000914669463846AE68FCF72EF9002817D089
:1064D0000D480021806861F38200009964F3C500D3
:1064E00001EA060267F3891005EB820268F39F2038
:1064F000491CD0600091314005EB8101C1F80C903E
:10650000BDE8F883AC02002058720000024A02F590
:10651000826203C270470000AC02002070B50646DC
:106520000020FFF79DFD040008D1FFF795FD05460B
:10653000FFF7F0FE32462946FFF78CFF204670BD7C
:1065400070B51B4C05462068002804BF1948FAF7AF
:10655000CDF8D4F884000A2824BF1748FAF7C6F803
:10656000E06F00EB400004EB800128780871687848
:106570004871A8788871E878C87168688860288947
:1065800088816889C881D4F88400401CC4F88400DC
:10659000E06F401CE067E16F00200A2928BFE06738
:1065A0004FF400104FF0E021C1F8000270BD000070
:1065B000A407002034000B0035000B000348D0F87E
:1065C0008400C0F10A00C0B270470000A407002098
:1065D00010B5040004BF0948FAF788F808490C60B0
:1065E0000020C867C1F88000C1F884004FF0E021A6
:1065F0004FF40010C1F8000110BD000029000B008D
:10660000A4070020094A0221116009490B68002BE8
:10661000FCD0064B1B1D186008680028FCD0002029
:10662000106008680028FCD07047000004E50140B5
:1066300000E4014010B500F003029043D200FF24B3
:10664000944003689140A343CA18074B0121196085
:1066500006490C68002CFCD0026008680028FCD0B9
:106660000020186010BD000004E5014000E4014076
:10667000F0B515460E460746002404E0315D381992
:10668000FFF7D8FF641CAC42F8D3F0BD2DE9FF4FF3
:10669000584D83B00327DDE910B9E86F4FF00008CB
:1066A0000C464646002804BF5348FAF71FF82878DE
:1066B00003281CBF5148FAF719F8E86F417811F028
:1066C000010F69D195F89200002818BF4FF0000A19
:1066D00062D00398002808BF042767D0059A304687
:1066E00062F31700C1F3410161F31F6005EB840100
:1066F000896BCBF80060C9F800600190884257D0E0
:10670000E86F002804BF3E48F9F7F0FF04F10801E4
:10671000E86F0091FDF71CFF00281ABF4FF0010839
:10672000EE674FF000080AEA080AB8F1000F3FD000
:10673000009805EB800101988861069918EA010F1D
:1067400035D03048005D80B32046FDF793FE002829
:1067500004BF2D48F9F7CAFF2046FDF7CDFE009093
:1067600068B195F89000274620B12869B84208BF63
:1067700000F04CF9E81980F880602248C65500986E
:10678000CBF80000BBF1000F08BF204807D000285D
:1067900008BF1F4803D004E04FF0010A99E7F9F75A
:1067A000A5FF18480227065502E000E017E0012780
:1067B000BAF1000F08BFC9F800600DD02046FDF700
:1067C00023FFC9F80000002807BF1248C9F80000DD
:1067D00001210C4818BF0155B8F1000F03D1E86F33
:1067E000FDF7FAFDEE672E7000F010F907B038469D
:1067F000BDE8F08F2C0800205B010C005C010C0050
:106800006F020C00AC00002091010C009A010C00FA
:1068100096010C00840800202DE9F0412B4C054620
:106820000F46207801281EBF02282948F9F75EFF8D
:106830000026002D08BF4FF0040826D0207801283C
:106840001CBF2448F9F752FFE068002804BF224823
:10685000F9F74CFFE0680078002808BF4FF0000807
:1068600013D0E06F6568002804BF1C48F9F73EFFAD
:1068700005F10801E06FFDF76BFE00280ABF18481C
:10688000E667F9F733FF4FF00208C7B1656828469D
:10689000FDF732FE07000CD094F8900020B120697B
:1068A000A84208BF00F0B2F8601980F880600D4877
:1068B0004655A068B8421CBF0B48F9F717FF267071
:1068C00000F0A4F84046BDE8F08100002C0800204C
:1068D000FC000C0002010C0003010C006F020C0014
:1068E0000E010C00AC0000201E010C000830FDF76A
:1068F000CDBC000070B50A4D044695F8900020B15B
:106900002969A14208BF00F081F800202919054A31
:1069100081F8800010552046BDE87040FDF7B6BCF8
:106920002C080020AC000020FDF756BDFDF79CBDF3
:106930000148C068704700002C08002001488068AA
:10694000704700002C080020014840687047000094
:106950002C0800200830FDF78DBD000001480078AC
:10696000704700002C080020FDF784BD70B5FDF7CE
:1069700091FD0021164BDFF85CC00846024603EB90
:10698000810460F31F62A26101F10802044603EB77
:10699000820560F31F64AC615C181A4484F88000BF
:1069A00082F880000CF80100491C0829E6D3187011
:1069B00058609860D8601861586183F8900083F837
:1069C000910083F85800D867012083F8920070BDC9
:1069D0002C080020AC0000200830FDF78DBD70B5FC
:1069E0000E4604460025FDF73FFD38B121463046EE
:1069F000FDF7AEFD10B100F009F80125284670BD85
:106A00000830FDF701BEFDF71DBE00002DE9F04185
:106A1000114C2078002806BF94F890000028BDE8AB
:106A2000F0810825012600276069FDF723FD18B1D4
:106A300084F89060606920616069401C606108288A
:106A400008BF676194F89000002818BFBDE8F08186
:106A50006D1EE9D1BDE8F0812C080020014981F8C4
:106A6000920070472C08002070B50E4D2878002841
:106A70001CBF0D48F9F73AFEE86F10B9FDF7E2FDCB
:106A8000E86704000CD0FF2020706078FF2240F0FF
:106A9000060060702021A01CF9F7E4FC0320287098
:106AA000204670BD2C0800203B010C0070B5264C20
:106AB000207800281CBF2548F9F718FE94F89000AC
:106AC000002538B320696060FDF79EFDA0600028B6
:106AD00004BF1F48F9F70AFEA068407810F0010FC4
:106AE00008D194F8920000281CBF0220E56001D074
:106AF000207013E060680830FDF7BCFC032809D261
:106B0000E06F10B9FDF79EFDE067E060002818BF58
:106B10000120EDD12078002808BF70BDA0680028B2
:106B200004BF0C48F9F7E2FD2069606004EB8001C6
:106B3000C87E401CC876A1684A7860F342024A7059
:106B400084F89050012070BD2C080020C3000C0078
:106B5000C9000C00E7000C00014890F89000704755
:106B60002C08002004480178817041780170001DD4
:106B700050F8210000470000B400002001480078D0
:106B800070470000B40000200148407870470000C2
:106B9000B4000020024988704870087070470000F7
:106BA000B400002010B50446022824BF0248F9F7BB
:106BB0009DFD0248447010BD2A000D00B400002065
:106BC0004058002800D00120704708B500224250EC
:106BD0004058009008BDD0F80403084000D00120C0
:106BE00070474058002800D00120704708B50022A7
:106BF00042504058009008BD70B5034600791B49CB
:106C000001EB40101968027F4FF0FF30002AD1F8E5
:106C10000C25D1F81465D1F80855D1F8104504D0E9
:106C2000C1F80C05C1F8140503E0C1F81405C1F85A
:106C30000C051968C1F80805C1F81005501C02D0F0
:106C40001046FDF7C7FD701C02D03046FDF7C2FDAF
:106C5000601C02D02046FDF7BDFD681C04D028460C
:106C6000BDE87040FDF7B6BD70BD00005C010020BE
:106C700070B5012670044FF0E0210025C1F88001B5
:106C8000084C4010C4F84803C4F8080366602F207D
:106C9000FDF70AF9A660044C2F20A560FDF704F962
:106CA000A57070BD001001401800002070B50546A9
:106CB000C87D0C4600284FF4847128460AD0FFF79F
:106CC00084FFD5F81805627EE1688854607E401C18
:106CD000607670BDFFF779FFD5F8180570BD1FB558
:106CE00001238DF800308DF808100192D0E90012D0
:106CF000684690471FBD00000148FDF74DBA0000EF
:106D00004000002070B50D460A46014601240648A1
:106D1000F9F796FBEAB204490448FDF7B7F900B168
:106D20000024204670BD0000AC010020400000207F
:106D30002DE9F84F204C00256846D4E901B6FBF751
:106D400029FE8046FCF758FB0746A946B8F1000F1C
:106D500025D00023009ACC46606819E007680146F8
:106D6000974202D9BA1A026014E0C1F800C0D1F803
:106D70000C80D21BC8693B448A46B8F1000F07D08B
