:020000040000FA
:10000000382C0020150400001D0400001F0400000F
:10001000210400002304000025040000000000006B
:1000200000000000000000000000000027040000A5
:1000300029040000000000002B0400002D04000033
:100040002F0400005D0800006D0E00002F0400006A
:100050002F0400002F040000790500002F04000089
:10006000090E00002F0400002F0400002F040000E0
:100070002F0400002F0400002F0400002F040000B4
:100080002F040000650A00002F0400002F04000068
:10009000890A00008D0A00002F0400002F040000D0
:1000A0002F0400002F0400002F0400002F04000084
:1000B0002F0400002F0400000000000000000000DA
:1000C0002F0400002F0400002F0400002F04000064
:1000D0002F0400002F0400002F0400000000000087
:1000E0000000000000000000000000000000000010
:1000F0000000000000000000000000000000000000
:1001000000000000000000000000000000000000EF
:1001100000000000000000000000000000000000DF
:10040000DFF80CD000F086F800480047F92D000016
:10041000382C00200648804706480047FEE7FEE7E4
:10042000FEE7FEE7FEE7FEE7FEE7FEE7FEE7FEE7A4
:100430006D0B00000104000000487047CC6A00000A
:1004400040EA01039B0703D009E008C9121F08C056
:10045000042AFAD203E011F8013B00F8013B521ED6
:10046000F9D27047D2B201E000F8012B491EFBD24D
:1004700070470022F6E710B513460A4604461946AF
:10048000FFF7F0FF204610BD421C10F8011B0029A9
:10049000FBD1801A704730B504460020034600E0C7
:1004A0005B1C934203D2E05CCD5C401BF8D030BDB6
:1004B0002DE9F05F0546002092469B468846064699
:1004C000814640241BE0284641464746224600F02C
:1004D00042F853465A46C01A914110D31146184665
:1004E000224600F029F82D1A67EB01084F462246F4
:1004F0000120002100F020F817EB00094E41201EDA
:10050000A4F10104DFDC484631462A464346BDE8F3
:10051000F09F0000064C074D06E0E06840F0010344
:1005200094E8070098471034AC42F6D3FFF76CFF0D
:10053000DC6A0000FC6A0000202A04DB203A00FA92
:1005400002F1002070479140C2F1200320FA03F32A
:10055000194390407047202A04DB203A21FA02F028
:100560000021704721FA02F3D040C2F120029140ED
:1005700008431946704700002DE9F04700268CB06B
:10058000DFF86091B0464FF4807501243746069637
:10059000284603F0FFFC38B1D9F80403204203D009
:1005A000284603F0EDFC26432D1D64007F1CADB2F0
:1005B000082FEDD34FF4BE74204603F0EBFC48B196
:1005C000204603F0DDFC46F0004606AA012100208B
:1005D00003F0C2FC444D16F0FF0F15D00127002494
:1005E00037420DD009EB8401D1F81005D1F8101570
:1005F000C0F3042055F82420C1F3014102B1904713
:100600007F00641C082CEBD3002E67DA4FF0FF301C
:10061000CDE9088000263446281910F8507F90F95B
:10062000000027F0C008401C44D009A9404602F051
:1006300091FE58B34FEA9719404601F099FB55F8DF
:1006400020701FB1B9F1030F03D00FE0B9F1030F10
:1006500030D108A84FEAD80208F00703815C4FF0B8
:10066000010C0CFA03FC41EA0C0181544FF0A0414B
:1006700001EB8800D0F8000706A9C0F3014A404604
:1006800002F068FE18B1BAF1020F03D012E0BAF11D
:10069000030F0FD1B9F1030F08D1BAF1020F1BD02C
:1006A0000221404603F03CFC761CF6B217B14946E5
:1006B0004046B847641C042CAED3002E0ED06A46C8
:1006C0000121002003F048FC06990098884205D0DB
:1006D0000690089809909DE70321E2E70CB0BDE879
:1006E000F0870000006000408802002002F02ABE6F
:1006F0002DE9F74F354D4FF48039174680460024D9
:10070000C5F80893324EB07800281CBF3148FFF777
:10071000EDFFB8F1000F04BF2F48FFF7E7FF706847
:1007200000281CBF2D48FFF7E1FFC6F80480DFF862
:10073000B0B038004FF0000A4FF00107ABF10408E9
:100740002FD0012808BFD8F8004006D0022813BFD8
:10075000244825480468FFF7C9FFB770C5F840A1D1
:100760000198204480B2C8F80000D8F800806F6477
:10077000DBF80060D5F8400100281CBF1B48FFF7DC
:10078000B5FF444514D8A64228BFB04598BF1848C5
:1007900002D800BFFFF7AAFFC5F8049303B0BDE875
:1007A000F08F6F64DBF800402F64C5F840A1D4E7F8
:1007B00046452CBF00200120B44294BF01210021F6
:1007C000884208BF0B48E7D1E4E700000080004002
:1007D000C0000020730004007500040076000400CF
:1007E0004485004089000400488500409B000400C7
:1007F000B0000400C900040000F01F020121914074
:100800004009800000F1E020C0F88012704700F03D
:100810001F02012191404009800000F1E020C0F852
:100820000011704700F01F02012191404009800033
:1008300000F1E020C0F8001270474907090E0028B7
:1008400006DA00F00F0000F1E02080F8141D704778
:1008500000F1E02080F80014704700002DE9F05FFF
:10086000734C20696778401C2061607D00281CBFA4
:100870007048FFF73BFF2046217800256E4C6F4EF5
:100880004FF003094FF002084FF0FF3A4FF0010B11
:10089000032946D1D4F80C11002942D0012F06D0EB
:1008A000022F37D0BDE8F05F6548FFF71FBF07464E
:1008B000006903281CBF6348FFF718FF87F8008012
:1008C000B869401CB861C4F80052C4F808A34FF0DE
:1008D000E020C0F88082C4F80C51C4F80051C4F87C
:1008E0001051C4F8045187F801907D603D7530685F
:1008F000017D51B154490968B975C4F81C51C4F857
:1009000018B0524A4FF480611160C068002842D18B
:10091000BDE8F09F006901281CBF4D48FFF7E6FEC7
:1009200076E0032F7FD00821012F37D0022F6FD020
:100930004278484B002703EB0212137B002B1EBFAB
:10094000D4F80C31002B0127927A0270C4F80052BF
:10095000032A61D0C4F808A34FF0E021C1F88082D7
:10096000C4F80C5180F80190C4F80051C4F810513B
:10097000C4F804514560057530680069002818BF47
:100980008047002F08BFBDE8F09F306880680028CE
:1009900008BFBDE8F09FBDE8F05F00470269012A8B
:1009A00020D0022A18BFBDE8F09FC4F80C51C4F84B
:1009B0001051C4F80051C4F800526FF00102C4F89D
:1009C0000823C4F8041380F800904560057530686A
:1009D0000069002818BF8047306880680028DAD195
:1009E000BDE8F09FC4F80051C4F80451C4F808A34E
:1009F000C4F804B33168097D19B1174A4FF4806116
:100A000011601649C0680860BDE8F09F0BE0FFE781
:100A1000BDE8F05F04F0A2BC6FF00802C4F8082340
:100A2000C4F80413A0E7BDE8F05F0D48FFF75EBE11
:100A30002409002090010A0000100040C800002096
:100A4000A9010A009F010A004815004008F501406D
:100A5000A4010A00186A000004F5014004150040D2
:100A6000D6010A0007480021C0F84011C0F844111F
:100A7000C0F84811C0F84C11C0F80011C0F80411BA
:100A800005F008BD0010014005F080BC2DE9F041E3
:100A9000012080F31088344DD5F884000027002809
:100AA0005DD0D5F8800000EB400005EB80000179B7
:100AB00061F30704417961F30F24817961F31744ED
:100AC000C17961F31F6481688289C08962F30F066E
:100AD00060F31F46D5F88400401EC5F88400D5F8A1
:100AE0008000401CC5F88000D5F880000A2833D269
:100AF000002080F310882B6832462046984701205A
:100B000080F31088D5F8840048B3D5F8800000EB56
:100B1000400005EB8000017961F30704417961F33E
:100B20000F24817961F31744C17961F31F648168EF
:100B30008289C08962F30F0660F31F46D5F88400EE
:100B4000401EC5F88400D5F88000401CC5F8800020
:100B5000D5F880000A28CBD3C5F88070C8E70020FC
:100B600080F31088BDE8F08148090020F0B598486E
:100B70000023021D01780125101D4FF08056062923
:100B800007D11478240704D10478C4F30314032C88
:100B900002D0062904D00FE08F4F8E4C7C670EE008
:100BA0001478240708D10478C4F30314032C06D066
:100BB000042C04D0052C02D0062907D00EE0D6F86C
:100BC0004442864FC4F342343C6002E01478240768
:100BD00004D10478C4F30314032C02D0062906D0F0
:100BE00011E07F4C276827F0807727600EE01478AB
:100BF000240708D10478C4F30314032C06D0042C72
:100C000004D0052C02D006290AD011E04FF0804410
:100C1000C4F80C31C4F81031704C241F236002E07A
:100C20001478240704D10478C4F30314032C02D0ED
:100C3000062905D00CE0694F032464373C600AE0C4
:100C40001478240704D10478C4F30314032C02D0CD
:100C500006290DD014E0634F05243C60614C7834C4
:100C60002560604C083423603F243F1D3C6002E057
:100C70001478240704D10478C4F30314052C02D09B
:100C8000062957D068E058490968584A1160564902
:100C9000091D0968121D1160534908310968121DA8
:100CA000116051490C310968121D11604E49103113
:100CB0000968121D11604C4914310968121D116038
:100CC000494918310968494A2032116046491C31A6
:100CD0000968121D1160444920310968121D116014
:100CE000414924310968121D11603F4928310968C2
:100CF000121D11603C492C310968121D11603A49DE
:100D000030310968394A4032116037493431096855
:100D1000121D1160344938310968121D11603249C1
:100D20003C310968121D11602F4940310968121DBC
:100D3000116002E0117809070ED10078C0F30310AA
:100D4000032803D0042801D0052805D1D6F858027D
:100D5000274900F04F00086021487438016841F4C9
:100D600070010160BFF34F8FBFF36F8F4FF0102101
:100D7000D1F80002002803DBD1F80402002822DAAF
:100D80001C4A15601C480468002CFCD01524C1F8CE
:100D900000420568002DFCD0C1F80442016800291A
:100DA000FCD0136001680029FCD0BFF34F8F0C48C2
:100DB000F0380168114A01F4E06111430160BFF3AA
:100DC0004F8F00BFFDE70F490D480860F0BD0000E0
:100DD000E00F00F00DF0ADBA00C007403C05004048
:100DE000FCED00E0105600400404001020C5004057
:100DF000E40E004004E5014000E401400400FA056F
:100E00000090D0038800002070B5144E4FF480305D
:100E1000C6F808030025C6F84051114C6068002848
:100E200004BF1048FFF762FCA5706268012365608B
:100E300073640D480168001F00681430B1F5804FDD
:100E400004D2B0F5404F88BF637004D881422CBFF4
:100E5000012000206070BDE8704010470080004015
:100E6000C0000020EC000400448500400448017FDD
:100E700004480029024901D005F01DBC05F08CBBD7
:100E8000E0020020002000400FB41CB50246002004
:100E900007AC00290BD0491ECDE90021054B6A465D
:100EA0002146069800F018F8009A002111701CBC29
:100EB0005DF814FB3B13000002E008C8121F08C1D4
:100EC000002AFAD170477047002001E001C1121FCB
:100ED000002AFBD1704700002DE9FF4F8DB00F466F
:100EE0000546002606E025280BD0DDE90F129047C5
:100EF0006D1C761C28780028F5D111B03046BDE86D
:100F0000F08F0024A246A1460122EC4900E00443F0
:100F100015F8013F203B02FA03F00842F7D1287888
:100F20002A2810D06FF02F022878A0F1300109296B
:100F300014D80AEB8A0102EB410144F0020400EBF1
:100F4000010A6D1CF0E701CF5FEA000A03D544F403
:100F50000054CAF1000A44F002046D1C28782E28BF
:100F600017D115F8010F44F004042A280ED06FF0B1
:100F70002F022878A0F1300109290AD809EB89014C
:100F800002EB410100EB01096D1CF2E757F8049BED
:100F90006D1C28786C280FD006DC4C2817D06828E8
:100FA0000DD06A2814D104E0742810D07A280FD10B
:100FB0000DE044F400140AE044F4801401E044F429
:100FC00040146978814202D104F580146D1C6D1CB7
:100FD0002A786E2A1FD00CDC632A31D004DC002A68
:100FE0008BD0582A11D1A3E0642A68D0692A0CD189
:100FF00065E0732A2ED004DC6F2A73D0702A04D1E6
:101000009BE0752A6FD0782A6ED01046DDE90F126A
:101010009047761C50E1C4F30250022806D0032802
:1010200009D0042801CF09D0066045E101CFF117AE
:10103000C0E9006140E101CF06803DE106703BE17F
:1010400017F8040B8DF8000000208DF80100EB4626
:10105000012003E057F804BB4FF0FF3061074FF069
:10106000000102D40DE008F10101884649450FDA7C
:101070008045F8DB1BF808100029F4D108E008F1DE
:10108000010188468142FADB1BF808100029F6D1DD
:10109000DDE90F23AAEB08008146214600F036F96E
:1010A000304400EB080604E0DDE90F121BF8010BE9
:1010B0009047B8F10108F7D221464846F7E00A21E7
:1010C000C4F302534FF0000B0891022B04D001CF60
:1010D000C117032B09D00AE0FF1D27F00707F7E827
:1010E000020108E032E01FE020E000B2C117042B4B
:1010F00001D140B2C117031E71F1000307DA4FF0AE
:10110000000CD0EB0C006CEB01012D2302E0230559
:1011100004D52B238DF82430012303E0E30701D00D
:101120002023F7E7984658E00A2110E010210EE04E
:1011300010204FF0000B08900CE010214FF0000B36
:1011400044F004044FF00809089103E008214FF02F
:10115000000B0891C4F30253022B04D001CF0021ED
:10116000032B06D006E0FF1D27F00707F7E8020172
:1011700003E080B2042B00D1C0B24FF00008230777
:101180002BD5702A07D0DDF820C08CF0100C5CEA5B
:101190000B0C05D00EE040238DF82430012308E02D
:1011A00050EA010306D030238DF824308DF8252035
:1011B00002239846DDF820C08CF0080C5CEA0B0C8A
:1011C0000BD150EA010301D1630706D530238DF816
:1011D00024304FF00108A9F10109582A04D038A29F
:1011E0000B9208AA0A920BE03AA2F9E75B46089A2A
:1011F000FFF75EF90B9B9B5C0A9A521E0A921370D2
:1012000050EA0102F2D10A98ADEB000000F1200B88
:10121000600702D524F4803401E04FF00109D9457C
:1012200002DDA9EB0B0000E0002000EB0B014144C4
:101230000890AAEB010AE00306D4DDE90F2321465A
:10124000504600F063F806444FF0000908E009A991
:1012500011F80900DDE90F12904709F10109761C28
:10126000C145F4DBE0030CD5DDE90F2321465046F0
:1012700000F04CF8064404E0DDE90F1230209047FE
:10128000761C0899481E08900029F5DC08E00A98A9
:101290000A990078491C0A91DDE90F129047761CE3
:1012A000BBF10001ABF1010BF1DC21465046DDE959
:1012B0000F2300F019F806446D1C1BE609280100F5
:1012C00030313233343536373839616263646566BC
:1012D000000000003031323334353637383941427E
:1012E00043444546000000002DE9F0410446002536
:1012F0001E461746880404D405E039462020B0472E
:101300006D1C641EF9D52846BDE8F0812DE9F04139
:10131000044600251E469046C80301D5302700E04C
:101320002027880404D505E041463846B0476D1CA7
:10133000641EF9D52846BDE8F0814A68002A06D027
:101340000A68531C0B6010704868401E4860704764
:10135000022000F0B5BA000070B50024064D06E08A
:101360006868012110F8340002F0DCF8641C287869
:101370008442F5D3002070BD2C000020F8B515463E
:101380000C460646052A01D20720F8BD02F0B0F946
:1013900018B902F07FF90028F7D1104900204E60FB
:1013A0000C70C1E902500E4D08610DE006EBC4005F
:1013B0006968009181788DF801100078094A6946C2
:1013C00002F002F90028E0D1641EE4B2EED2BDE8DA
:1013D000F840054A0021024800F04AB82C000020DD
:1013E000B8690000D92000002D1E00000DA10120C9
:1013F00004F056FB04F0AEFA04F0B0FA0028FBD17A
:101400000CA1032004F04CFBBFF34F8F1048016880
:10141000104A01F4E06111430160BFF34F8F00BF38
:10142000FDE700003A4552524F523A466174616CF2
:101430000D0A00003A494E464F3A486974207765D4
:10144000616B2068616E646C65720D0A00000000BB
:101450000CED00E00400FA050EB500210091CDE985
:1014600001106A4644F20100FFF7C0FF0EBD000004
:10147000074B5B6823B12AB120B10068037C1BB124
:101480000820704707207047417442610020704770
:10149000540000202DE9F047074698461446894637
:1014A00090074FF0000526D12CB304F00FFF134E28
:1014B00006F11000C6F80C800570457080F80290A7
:1014C00044607560357075701420FFF795F9072139
:1014D0001420FFF7B2F91420FFF799F908480760C4
:1014E00007211120FFF7A9F90548001F0068B06027
:1014F0000020BDE8F0870720FBE700004400002043
:10150000081501402DE9F843DFF87090D9F8043050
:101510005BB350B3052902D20720BDE8F8834369C5
:101520001BB3437C012B22D00027044600258846AC
:101530001646284600F036F8684605F009FAC0B1AC
:10154000012101700E4944600968C0E90218C0E930
:1015500004769DF8000089F80100002000F024F8CE
:101560001420FFF75FF92846D7E70820D5E70F4694
:10157000DBE70425002000F017F8F4E75400002012
:10158000041501400649496839B130B1416921B1BA
:1015900000210174022104F05DBF082070470000A3
:1015A0005400002000F002B800F008B872B60248FB
:1015B0000168491C01607047400000200349086829
:1015C000401E086000D162B6704700004000002055
:1015D0002DE9F041064608680C46411C4FF0A04733
:1015E0004FF0010506D005FA00F1C7F8081520688C
:1015F00002F08CFC6068411C02D0002102F07DFCEE
:101600003079204901EB4010A169007F0028306843
:10161000C0F8241525D0607D227D31681043C1F8C3
:101620006C05D4E900123068C0F80C15C0F8142518
:1016300024E0A068411C02D0002102F05EFCE068BA
:10164000411C05D08540C7F80855E06802F05EFCF3
:10165000D4E902123068C0F80825C0F81015BDE8BA
:10166000F081607D217D32680843C2F86C05D4E9C1
:1016700000123068C0F81425C0F80C15207D012830
:10168000D7D0ECE7E00200202DE9F04151488CB0C2
:101690000068514C012802D05048006828B96068A1
:1016A0000078202898BF012000D900204C4F03214A
:1016B000002639702660002876D04A480568006800
:1016C0004949086003A8CDE900044848026801239D
:1016D0002946184604F0DEFA002839D0012813D034
:1016E000022839D0032818BF414801D0FEF7FEFF79
:1016F0002068002865D0012060753E4820610420E4
:1017000038700CB0BDE8F081039800281CBF3A483F
:10171000FEF7ECFF284604F021FC002804BF374800
:10172000FEF7E4FF4FF0020878680023807D8DF813
:1017300000808DF801508DF80200ADF8083001935B
:10174000ADF80A308DF80330684604F015FACFE79B
:101750002B48FEF7CBFFCBE70398002804BF2948AE
:10176000FEF7C4FF284604F0F9FB002804BF264812
:10177000FEF7BCFF4FF0020C78680022039B807DCF
:101780008DF800C08DF801508DF802004FF001086F
:10179000ADF808200193ADF80A208DF80380684663
:1017A00004F0EAF9A4E7FFE7002300961A46194679
:1017B0001846019604F06EFA042818BF134895D114
:1017C00096E703F0D9FC6675266100F021F80CB0AD
:1017D000BDE8F081001400400009002034150040ED
:1017E000AC000020081400402C1500400C140040F0
:1017F000C8050900B1180000B8050900B9050900BD
:10180000BD050900C0050900C1050900CF05090093
:1018100070B503F0B1FC1E4C1E4E00250120256161
:101820003070A4F150001C490069086004F09AFB74
:1018300008B304F097FB032818BF184802D000BF74
:10184000FEF754FF022003F049FE002003F0C6FE1D
:1018500004F088FB03281CBF1148FEF747FF3078CF
:1018600001281CBF0F48FEF741FF022030700E48D0
:10187000C4E9030570BD04F0BDF90228E2D304F009
:10188000F7FB6060002808BF0848DBD1D8E70000FC
:1018900000090020AC000020301500408005090040
:1018A0008805090092050900891600007B050900DA
:1018B000024905200870FFF7ABBF0000AC00002014
:1018C00007490B5C4FF0A041D1F804250120984056
:1018D00020EA0203C1F808351040C1F80C05704732
:1018E000806900000249085C012102F02ABB000067
:1018F000806900000249085C002102F022BB000060
:10190000806900000649095C4FF0A040D0F804054A
:10191000C84010F0010000D0012080F001007047A5
:10192000806900007CB50024084E25460122305D08
:10193000009500231146019502F0A0FA641C042CC6
:10194000F4D3BDE87C4000F003B8000080690000DB
:1019500010B500242046FFF7C5FF641C042CF9D302
:1019600010BD10B500242046FFF7C4FF641C042CF2
:10197000F9D310BD10B50246064B4FF0FF300021E1
:101980005C5C944201D1084610BD491C0429F7D380
:1019900010BD0000846900002DE9F0470D46814626
:1019A000FFF7E8FF0446042838D2DFF878801C48A7
:1019B0001D4EA8F1100735B3012D0ED0022D2DD1EB
:1019C00004EB440030444578002D27D0F968002905
:1019D00024D02846BDE8F047084704EB4401755C75
:1019E0000E44717859B179680E4A01EB81014900C2
:1019F0000E3A8068FFF786FD08B987F80290B17843
:101A000008F80410E0E78068FFF7BCFD04EB440130
:101A1000314418F804008D78A842D5D0BDE8F0878D
:101A2000886900001C0000205C02002070B50023C3
:101A3000042810D20D4D00EB4004012A02D10129E7
:101A40000CD00022094E00EB4000304461B1012966
:101A500006D0022906D00723184670BD0E30C2B248
:101A60002A55F9E74270F7E78270F5E75C0200203B
:101A70002DE9F04106461F4800240F464160C0E9A9
:101A80000262B0071FD50025012211462846FFF744
:101A9000CDFF6D1C0446042D02D2002CF4D012E0C0
:101AA0008CB97A0804211448FFF768FC04000AD1B5
:101AB000FFF752FC040006D10F48104A0021001F16
:101AC000FFF7D6FC0446F00701D0FFF72BFF74B9EF
:101AD00009480B4A00210C38FFF7CAFC040006D164
:101AE0000548084A01210838FFF7C2FC0446204691
:101AF000BDE8F0810C00002094690000051D000085
:101B0000E9280000511300002DE9F047594C054623
:101B10000026607818B100206070FFF719FF0120DF
:101B2000554F4FF47A694FF4C87A4FF06408182D76
:101B30002CD2DFE805F0890C0C2C3A4751565A613B
:101B40005A619B6969696969898C8F929B9B0020A6
:101B5000FFF7D8FE00284FF0000008D0FFF7C2FEC4
:101B6000022D02D14FF4E16006E0484604E0FFF7A1
:101B7000C1FE022D2ED05046B0FBF8F125706068F2
:101B8000414300223868FFF7BDFC064659E00020BB
:101B9000FFF7B8FE28B10020FFF7A4FE4FF448700D
:101BA000EAE70020FFF7A6FE14E00020FFF7AAFEF8
:101BB00000284FF0000002D0FFF794FED5E7FFF7B2
:101BC00099FED8E70020FFF79DFE0028E9D000200D
:101BD000FFF788FEC820CFE70020FFF771FE2570D1
:101BE00007E000203FE025702BE060700120FFF748
:101BF00067FE00226168C5E760700120FFF760FEA4
:101C0000606800EB8001BCE77868FFF7BBFC064624
:101C1000D5F1110000D01EB10220FFF763FE10E0E5
:101C200001280BD9C82110FB01F1B1FBF8F1606864
:101C3000002241437868FFF765FC06460220FFF763
:101C400059FE3046BDE8F087FFF782FECBE7FFF78D
:101C50007FFEC6E7FFF77CFE04E0FFF779FE002079
:101C6000FFF748FE0120FFF745FEBCE7FFF779FECE
:101C7000B9E700000C00002088690000002901DAA3
:101C80000020704702681144016001207047000085
:101C900070B5461C0D4601240020FFF783FC114A55
:101CA00010682860D2E900109568081A2B1A701C79
:101CB0005B1C98420FD963B10B480C4B294000685C
:101CC0001B6802EB810163F39F20C8601068401C11
:101CD0001060002401E0881910600020FFF764FC08
:101CE000204670BD50040020E06900007000002014
:101CF000034803C8814201D101207047002070478A
:101D00005004002000780221FFF746BE05494FF03D
:101D1000FF32082841F8202002D3084480F84820E8
:101D20007047000088020020F0B54FF0FF3512B177
:101D30000023082601E008230C260C4C05E000BF18
:101D400054F823707F1C04D05B1CB342F8D32846A0
:101D5000F0BD26185DB286F8305044F82310002AF2
:101D6000F5D1E11881F84800F1E700008802002071
:101D70000249084490F930007047000088020020B2
:101D80002DE9F05F26484168F1B3DFF898B00E689E
:101D90008146DBF8004087688078E11B21F07F45B1
:101DA000ED1CB0B9DFF880804FF48030C8F84403F0
:101DB000C8F804031120FEF71FFD1120FEF727FDD0
:101DC0004FF0010AC8F800A02F2001F03BFB89F872
:101DD00002A0B54200D23546124BE8193C3320F040
:101DE0007F401860DBF800105A46091B21F07F4144
:101DF000001B20F07F40C91C81420FD91068186079
:101E00002F2001F01FFB00E004E0BDE8F05F11208F
:101E1000FEF708BDBDE8F05F04F058BABDE8F09FDA
:101E20004400002004150140001001402DE9F0415C
:101E300000260125144C22E06068226900EBC607E9
:101E4000387805FA00F1114217D08A43226101F077
:101E500017FC02463878E36805FA00F1194002FAE7
:101E600000F3994209D17978012901D0012100E0DC
:101E7000002151407A6802B19047761CF6B2207872
:101E80008642D9D3BDE8F0812C0000202DE9F04333
:101E9000484883B00068012802D04748006830B93C
:101EA000464840680078202898BF012600D90026BF
:101EB000434C0125606920B901F0DAFF002808BF12
:101EC000656104F04FF801281CBF3E48FEF70EFC88
:101ED0003D4D6868007D00281CBF3C48FEF706FCAD
:101EE00003F04AF9002E04BF03B0BDE8F0830121DE
:101EF000084603F095FF052845D2DFE800F00341CE
:101F0000224141004FF0000904F01CF80646B4F8E5
:101F10000C80E78904F01CF8014668680023827D84
:101F20008DF800908DF80110ADF808808DF8022032
:101F30000196ADF80A708DF80330684603F01CFE78
:101F400021E04FF0000903F0FDFF0646B4F80C80D5
:101F5000E78903F0FDFF014668680123827D8DF863
:101F600000908DF80110ADF808808DF802200196E0
:101F7000ADF80A708DF80330684603F0FDFD02E00D
:101F80001348FEF7B3FB01F017FA2061114800F186
:101F90006802416961602378022B03D0002908BFE1
:101FA000806800D0C068106003B00020BDE8F04336
:101FB00001F034BA0014004034150040000900203C
:101FC000E4080020A8060900AC000020A9060900CA
:101FD000C8060900B00800200E4910B50A784C78F0
:101FE0000023A24212D0521CD2B20A70022A00D19F
:101FF0000B70084A0B78183252F823200260886868
:10200000104420F07F408860012010BD0360002054
:1020100010BD00004400002030B52A4D83B0687E1A
:10202000002804BF03B030BD01F0CAFE002401281F
:102030000BD001F009FF2448007F10B9012081076F
:102040004860002004F0B2F86C6003F095F8AC70C2
:102050006C7605208DF800008DF80140ADF8084041
:102060008DF802400194ADF80A408DF803406846AF
:1020700003F082FD1548164904704FF44070086063
:1020800003F070FF012818BF022815D003281CBFD9
:1020900003B030BD009400231A4619461846019437
:1020A00003F0F8FD042804BF03B030BD094803B0B5
:1020B000BDE83040FEF71ABB0021084603F0B0FE31
:1020C000F0E70000E4080020B0080020AC00002089
:1020D00008F50140E80109002DE9F041124E0746DC
:1020E0000125BD403068FFF74DFA00280DD10F4C97
:1020F0002069284207D1384601F0C2FA0028E0687A
:1021000005D0284304E0A8432061BDE8F081A8433E
:10211000E060206928432061A1683068BDE8F04193
:102120000022FFF7EFB90000B86900002C00002082
:1021300010B501F093FF00BF02F0E8F80028FBD1D2
:1021400010BD10B50024204601F0E4FF641C082CEB
:10215000F9DB10BD10B502F00FF8012804D0FFF72D
:10216000E7FF012002F042F902F0D0F8002803D185
:10217000BDE8104001F080BF10BD400002F0E4B89F
:1021800010B50024204601F0D5FF641C082CF9DBB3
:1021900010BD000002490A8802808978817070476A
:1021A000046A0000F0B50746204889B0154600785B
:1021B0000E4698B1012814D0022834D110221C49AF
:1021C00004A8FEF73DF91B490D2204A8FEF738F9D3
:1021D0000024164A6846521C21460DE0102214497C
:1021E000F3E71022124904A8FEF72AF904A800F028
:1021F00088F8EDE7052C02D2135D035500E0015588
:10220000641CE4B2102CF5D301F09EFB04A801F08D
:10221000ADFB6946084601F06DFB2B466A46314628
:10222000384600F015FB09B0F0BD00007400002036
:10223000076A000088080020014908707047000004
:102240007400002001460D220148FEF7F9B8000095
:102250008808002003490268C1F80120007948710C
:10226000704700007400002070B5084C0D46E278FD
:102270004AB10749FEF7E4F80DB1E0782870002074
:10228000E070012070BD002070BD00007A000020C9
:10229000950800200248C078002800D0012070472F
:1022A0007A000020F0B54E23B3FBF2F50223037051
:1022B0004F23841804F8013C81B10123541E0BE024
:1022C00003F003068E5DB6FBF5F705FB176605FB0D
:1022D0000366C6545B1CDBB2A342F1DB01210DE0B7
:1022E0004318445C13F8013CE31ADBB2052B03D21C
:1022F000C3F1050323444354491CC9B29142EFD3AF
:10230000F0BD41F201010A6802600979017170476C
:1023100002498A680260097B017170477A000020D7
:10232000F8B505464FF480500E468079FF2815D148
:10233000002141F2060003F081FC002441F207076E
:102340000AE00121684600F007FA9DF80010E01944
:1023500003F074FC641CE4B2B442F2D3002206E041
:1023600041F20700805C521C05F8010BD2B2B24268
:10237000F6D3F8BD30B58BB020203E4D0024089038
:10238000AC70204601F00EFF002805DD08AA694662
:10239000002001F07FFE0446E87820430AD10120A6
:1023A00001F000FF002805DD08AA6946012001F0C0
:1023B00071FE04463CB39DF8000007283AD2DFE8DE
:1023C00000F00439080C10233400684600F0B4F81B
:1023D00030E0684600F08CF92CE0684600F04AF9DD
:1023E00028E00A208DF8240009AC601CFFF790FF5C
:1023F00000F04EF810B9601CFFF72CFF01220621F7
:1024000009A800F087F815E06C460120FFF714FFDB
:102410001022611C601CFFF7C5FE601C00F00CFA66
:1024200040B1201DFFF70EFF04E00898C1B26846D6
:1024300000F0E4F801F06AFF60B90020FFF79DFEAC
:10244000687828B101F0BAFE40F0010001F0E8FF21
:10245000FFF780FE0749002008310A5C521C12F089
:10246000FF020A5403D1401CC0B20528F5D30BB0BB
:1024700030BD00007A00002000B500F009F8002807
:1024800002D002490220087000BD00007A0000203E
:1024900002480078002800D0012070477A00002010
:1024A00008B504216846FFF73BFF684600F070F965
:1024B00001F084FE40F0020001F0B2FF0449002068
:1024C000487088700870C870FFF757FE08BD00009C
:1024D0007A00002070B50E4D04466878A04216D0F0
:1024E000FFF726FE34B101F069FE40F0010001F073
:1024F00097FF07E001F062FE20F0010001F090FF7D
:10250000002028706C70BDE87040FFF723BE70BDDE
:102510007A00002070B516460C460546FFF708FE07
:10252000FFF72EFE22462946304601F03BFDBDE86E
:102530007040FFF70FBE0000FEB5054620202E4E6E
:1025400002900020B070FFF7F3FD01F037FEC4B237
:10255000301DB0F9020010F1400F44DB002001F003
:102560005FFF9620FFF709FEFFF7EBFDFFF7F2FD97
:1025700001F0CCFE0028FBD108208DF800000421DA
:102580000DF10100FFF7CCFE05226946002001F0A5
:1025900009FD4FF4AF70FFF7F0FD012001F040FF9F
:1025A000FFF7D8FD01270CE0002001F0FBFD40B152
:1025B00002AA2946002001F06DFD2878012800D1EB
:1025C000B77001F0A3FE0028EED1FFF7D9FDFFF7A9
:1025D000B8FD0020FFF7D1FD204601F021FF00BF2C
:1025E000FFF7B8FDFEBD24F0010001F019FF4FF424
:1025F000FA70FFF7C2FDF3E77A0000203EB50D4602
:102600000446FFF745FF08B1002000E00220FFF775
:1026100013FE681EC2B2611C601CFFF7C3FD601C84
:1026200000F00AF938B111482D1FEAB2C270211D1D
:102630000F48FDF705FF0B208DF800006C46A01D2C
:10264000FFF7A8FD0322A11DA01DFFF7ABFD601C35
:10265000FFF75EFEFFF71CFF10B9601CFFF7FAFDE5
:10266000012209216846FFF755FF3EBD7A00002090
:10267000950800203EB50446FFF70AFF002827D042
:102680000020FFF7D9FD0322611C601CFFF78AFDC3
:10269000601C00F0D1F800281AD0144B00246D46BD
:1026A0001878022815D003281AD08DF80440092084
:1026B0008DF800002C46681CFFF76CFD0922611C98
:1026C000601CFFF76FFD01220A216846FFF722FF19
:1026D0003EBD01208DF80400681DFFF712FE02E0E8
:1026E00002208DF804001C70E1E700007A00002051
:1026F0007CB5184D0446687800282AD0FFF7C8FE3C
:1027000020B9601CFFF7A6FD012028706846FFF77E
:10271000F8FD00216846425CFF2A02D1491C0529C8
:10272000F9DB052915D1FFF7F3FD69460523621C86
:10273000084600F08DF84FF4805469462078FF2851
:1027400007D10522601C03F097FA0021204603F010
:1027500075FA7CBD7A000020F0B50B4B0025C3F85C
:10276000005101241C602A46084E09E0D3F800718C
:10277000002FFBD037688754C3F80051521CD2B2E7
:102780008A42F3D35C60F0BD00D0004008D5004021
:102790002DE9FF41054601F0B9FD264C0646EDB393
:1027A00028786978EA7800EB0120A978090401EB20
:1027B0000261471801F054FE204601F0D1FD50B1EE
:1027C0000021084601F0AAFD28B1384601F0D8FDE5
:1027D00008B1012402E0012407E037B12146084690
:1027E00001F09CFD08B1012700E00027641CE4B261
:1027F000082CF2D301F0B4FC0446C2B22946684664
:10280000FFF750FD87B12146684601F0C9FD58B178
:102810000120002E05D001F02FFC00E007E030B1D0
:10282000012004B0BDE8F0810020002EF9D0002086
:10283000F7E700000406080A10B503220349FDF774
:102840002AFE08B1002010BD012010BD046A00005E
:1028500070B5002409E000BF11F8015B12F8016BAC
:102860007540641C00F8015BE4B29C42F4D370BD77
:1028700070B50E460446007918494FF4A27501EB75
:102880004010017F2068A1B14FF4887103F0B2FCC1
:102890004FF49071206803F0ADFC4FF49271206802
:1028A00003F0A8FC2946206803F0A4FC0C4920682A
:1028B00009E04FF48E7103F08CFC2946206803F088
:1028C00088FC08492068C0F80413206800F027FE3F
:1028D0003146BDE8704000F006BE0000E002002076
:1028E00010030200800002000348017AC90702D0E9
:1028F0000078FFF709B970470C0000202DE9F0437C
:10290000264CA4F110092278D9F8048099F80350D4
:10291000404694F801C0D9F8086031E002EB420368
:102920006168521C01EBC301A378D2B2934200D17B
:1029300000220B78022B02D0032B21D11DE003468D
:102940004F68194603E0B94203D00B46C969B9B1D3
:10295000F9E7A9B18B4205D1C06918B9104E01251C
:10296000B56000260F68C969D96149B10B683B445D
:102970000B6005E00174C06900E000210028F9D176
:102980009445CBD1C9E9010689F80350404502D0EE
:102990000120BDE8F0830020FBE700005400002088
:1029A000001001402DE9F0412A4F0446002607F1AE
:1029B0001005D7F804803EE002D02046E4691DE00F
:1029C0002878696800EB4002401CC0B201EBC201EC
:1029D0002870AA78904200D12E700A784868012A9F
:1029E0002BD1027C4ABB8A684260CA6882600A694D
:1029F000C26049698161F97801B146604368BA688B
:102A0000DFF854C0991A21F07F41614502D28268F3
:102A1000114406E0D11A826821F07F418A4202D92E
:102A2000511A016000E00660466001218660017471
:102A3000C66103F0F1FC002CBED128786978884289
:102A4000BED17968414502D00120BDE8F081002067
:102A5000FBE7000044000020FFFF7F002DE9F05F4E
:102A6000C74800260660C7484FF440750560C64851
:102A700006604FF00108C0F80080C448016821F4E6
:102A800080710160016821F00F0141F006010160D1
:102A9000016821F4702141F440310160041D206877
:102AA00020F000702060206840F080702060206876
:102AB00020F0FF0040F020002060206820F47F40DC
:102AC00020604FF0E0204FF00209C0F8809201F042
:102AD0006FF9AF490860091FAE480860AE4805604D
:102AE000AE4802F0D1FCAE49AE4D4860687F216827
:102AF00021F4E02141EA004020600023D5F820C005
:102B000019461822C8002CFA00F0C0B2002400F0C8
:102B1000010744EAC714C0F3400744EA8714C0F32E
:102B2000800744EA4714C0F3C00744EA0714C0F31F
:102B3000001744EAC704C0F3401744EA8704C0F30F
:102B4000801744EA470444EAD0104C4202EBC40424
:102B5000A0400343481CC1B20429D3D39248036068
:102B60000023D5F824C01946C8002CFA00F0C0B2E2
:102B7000002400F0010744EAC714C0F3400744EA08
:102B80008714C0F3800744EA4714C0F3C00744EA3F
:102B90000714C0F3001744EAC704C0F3401744EA1F
:102BA0008704C0F3801744EA470444EAD0104C423B
:102BB00002EBC404A0400343481CC1B20429D3D390
:102BC0007A4803600024071D4FF0FF0B07F1040A49
:102BD0002819082C90F8280058D2A107C90E0BFA22
:102BE00001F2D243042C26D23B681A403A600022FC
:102BF00000F0010342EAC312C0F3400342EA831229
:102C0000C0F3800342EA4312C0F3C00342EA031256
:102C1000C0F3001342EAC302C0F3401342EA830246
:102C2000C0F3801342EA430242EAD0108840396878
:102C3000084338602DE0DAF800301A40CAF8002066
:102C4000002200F0010342EAC312C0F3400342EA4B
:102C50008312C0F3800342EA4312C0F3C00342EA86
:102C60000312C0F3001342EAC302C0F3401342EA66
:102C70008302C0F3801342EA430242EAD010884044
:102C8000DAF800100843CAF8000002E04848FDF7EF
:102C90002DFD641C082C9BDB464995F8300008602C
:102CA000454895F83110026822F0FF0202600029C1
:102CB00004BF016801600AD0404A131F012929D0CE
:102CC000022930D0032938D03D48FDF70FFD3F4B96
:102CD00095F8320003F1040C0CF1040439493A4A26
:102CE000DFF8ECA0251DDFF8ECB02F1D70B3012834
:102CF00038D0022818BFBDE8F09FC1F800901A60D4
:102D00003548CCF800A0206034482860C7F800B0EF
:102D1000BDE8F09F016841F001010160C2F800B018
:102D200040F2071007E0016841F0020101604FF630
:102D3000FF7010602A481860C9E7016841F003017C
:102D400001606FF07F4010601E60C0E70E601A6087
:102D50002448CCF800A0206023482860C7F800B0C1
:102D6000BDE8F09FC1F800801A602048CCF800A0B0
:102D700020601F4828601F483860BDE8F09F0000B1
:102D800054F5014008F50140FC1F004014150040B7
:102D90005CF501400411004004F5014000090020E9
:102DA000AC000020B00800201C1500402015004099
:102DB000390309000C150040341500403C15004053
:102DC000C20309001015004000500078241700408D
:102DD0004E0000543E420F8208800C6088647200EE
:102DE0002110010003800C602264720002800C60DC
:102DF00011646600DEC08F8203F0D6FC012001F072
:102E0000F3F928B901F0B2F900F50340FEF724FB0D
:102E10004FF4167001F014FB28B901F0A7F900F582
:102E20000340FEF719FBFFF73BFB01F0C7F940F049
:102E3000040001F0F5FA28B901F098F900F5034013
:102E4000FEF70AFB0120FFF745FB01F015F928B951
:102E500001F08CF900F50340FEF7FEFA00F0C2F92C
:102E600000F0D4F90B4C20260F252078022809D039
:102E7000FFF780FAFFF70CFB08B1FFF7FDFAA66039
:102E8000E570257100F0AEF900F0C0F900F0F6F839
:102E9000EBE700000000002010B501F0DFF800BFF4
:102EA00001F034FA0028FBD110BD10B500242046F3
:102EB00001F040F9641CE4B2082CF8D310BD000006
:102EC00070B5022001F07CF9C5B22A461AA1032090
:102ED00002F00CFE02F042FD0028FBD1234C60788A
:102EE000002828D0032D26D2FFF7D6FFFFF7DDFFFD
:102EF000E2781F49022001F055F848B100206070C7
:102F000020211B48FDF7B5FABDE87040FFF722B954
:102F100001F02CF90446022001F00CF9022001F026
:102F2000F9F8224613A1012002F0E0FD02F016FD9F
:102F30000028FBD1E8E770BD4150503A494E464F5A
:102F40003A4C4546542050495045207478206669D3
:102F5000666F207061636B6574206E756D6265725B
:102F60002069732025640D0A000000000000002085
:102F7000BC0100204150503A4552524F523A4C4504
:102F800046542041434B205458206669666F2065A3
:102F900072726F72203A2025640D0A0070B503200A
:102FA00001F00EF9C5B22A461AA1032002F09EFDD7
:102FB00002F0D4FC0028FBD1234CA078002828D0B4
:102FC000032D26D2FFF768FFFFF76FFF22791F4915
:102FD000032000F0E7FF48B10020A07020211B482B
:102FE000FDF747FABDE87040FFF7B4B801F0BEF84E
:102FF0000446032001F09EF8032001F08BF82246DE
:1030000013A1012002F072FD02F0A8FC0028FBD100
:10301000E8E770BD4150503A494E464F3A52494751
:1030200048542050495045207478206669666F20C6
:103030007061636B6574206E756D62657220697373
:103040002025640D0A00000000000020DC010020A3
:103050004150503A4552524F523A524947485420F3
:1030600041434B205458206669666F206572726F29
:1030700072203A2025640D0A0000000070B5364C1D
:1030800000202070022001F08DF8344D20B903207B
:1030900001F088F800283BD031A1032002F000FDA8
:1030A00002F05CFC0028FBD12B4A2C49083202209C
:1030B00000F0F0FF80B12078401C2070287803F0E9
:1030C0009FF82A782DA1032002F010FD02F046FCA3
:1030D0000028FBD1FFF7F4FE1F4A204908320320E5
:1030E00000F0D8FF002835D02078401C20702878C8
:1030F00003F086F82A7821A1032002F0F7FC00BF34
:1031000002F02CFC0028FBD1BDE87040FFF746BF61
:10311000FFF7C0F800281DD020A1032002F0C0FC5A
:1031200002F01CFC0028FBD10B490C480831FFF7CA
:103130009BF800280ED02078401C2070287803F0DF
:103140005FF82A781EA1032002F0D0FC02F006FCF2
:103150000028FBD170BD000000000020FC01002011
:103160004150503A494E464F3A7278206669666F30
:103170002072656365697665640D0A004150503AB6
:10318000494E464F3A72656365697665206461749D
:1031900061203A2025640D0A000000004150503A99
:1031A000494E464F3A63727970742072782066698E
:1031B000666F2072656365697665640D0A000000BC
:1031C0004150503A494E464F3A63727970742072BA
:1031D0006563656976652064617461203A202564C1
:1031E0000D0A000010B5074A00200223D178064CD2
:1031F00002E02354401CC0B28842FAD30120507030
:1032000010BD000000000020BC01002010B5074ADE
:10321000002003231179064C02E02354401CC0B265
:103220008842FAD30120907010BD000000000020F9
:10323000DC0100202DE9F0470E46C0F30729C3B298
:10324000010E40F307400024170C40421FFA82F899
:10325000062B67D2DFE803F00319314B475E0029E4
:1032600018BF0121254667F30F0461F3070560F3DA
:103270001F4468F31F45304601F0CEF92246294627
:103280004846BDE8F04700F0E8BE29488068407E27
:10329000002804BF2748FDF729FA304601F0BCF9A1
:1032A000214664F3070167F30F0468F31F412246C8
:1032B0004846BDE8F04700F0CFBE002918BF012105
:1032C00061F3070460F31F4439B1002E04BF1A48AC
:1032D000FDF70CFA304601F09FF921464846BDE85B
:1032E000F04700F079BF01F017F8BDE8F087134808
:1032F0004168491C41600178002908BFBDE8F0879A
:10330000816800291EBF491E8160BDE8F08701F079
:103310008FFA18B1BDE8F04700F0ACBEBDE8F04749
:1033200001F0ACB8BDE8F0470548FDF7DFB9000093
:103330008C000020B5030500C3030500A40800208D
:10334000E303050002490F220A70C86070470000BD
:103350008C000020C20800F007030120895C98401F
:1033600008407047094841684A1C011F42600968CB
:103370000B689A4238BF70470022426003685B1CAA
:10338000036049688B4228BF02607047B800002084
:1033900070B5074C251F206829684968884224BFFA
:1033A0000448FDF7A3F9286821688068405C70BD77
:1033B000B8000020B200010001480068704700001A
:1033C000B80000200148406870470000B8000020A5
:1033D00010B5040004BF0548FDF788F90448002132
:1033E0000460001D0160416010BD00002A00010062
:1033F000B400002010B50446054800684068A042AB
:103400009CBF0448FDF772F90348046010BD00003A
:10341000B4000020B9000100B800002010B5044637
:10342000054800680068A0429CBF0448FDF75EF9AB
:103430000348446010BD0000B4000020C500010036
:10344000B800002000283ED01F49204A096800BF6C
:1034500000BF00BF00BF00BF00BF00BF00BF914260
:103460002FD000BF00BF00BF00BF00BF00BF00BF24
:1034700000BF00BF00BF00BF00BF00BF00BF00BF54
:1034800000BF00BF00BF00BF00BF00BF00BF00BF44
:1034900000BF00BF00BF00BF00BF00BF00BF00BF34
:1034A00000BF00BF00BF00BF00BF00BF00BF00BF24
:1034B00000BF00BF00BF00BF00BF00BF00BF00BF14
:1034C00000BF401EC3D17047880000200024F400D4
:1034D00000F01F02012191404009800000F1E0202E
:1034E000C0F8801170474907090E002806DA00F07D
:1034F0000F0202F1E02282F8141D03E000F1E02245
:1035000082F8001400F01F02012191404009800060
:1035100000F1E020C0F88012C0F800117047000BE5
:1035200040B270472DE9F0418846054602F07AFE28
:10353000234E002828461AD0FEF71AFC304490F893
:1035400048008009032802D001280ED007E04FF080
:10355000A040D0F81005E84010F0010F05D003217D
:103560002846BDE8F04100F0DBBC0221F8E702F09C
:1035700065FE002822D02846FEF7FAFB04464FF4E9
:10358000807000EB84000F4F81B207EB8400D0F80D
:10359000102542F00102C0F81025084600F0F0FCAA
:1035A000B8F1000F0AD02846FEF7E2FB56F82000DB
:1035B000002803D00120A040C7F80403BDE8F08133
:1035C00088020020006000402DE9FC41DFF8A48063
:1035D000044608EB0400002790F930001346C0179A
:1035E0000E46401C01D0082741E0F27819462046DB
:1035F000FEF79AFB0546401C38D0B07850B14FF02A
:10360000A04000EB8400D0F8001721F00201C0F8C0
:10361000001707E000217378204600910A460191C7
:1036200000F03EFCF078C0B11348317800EB850023
:10363000D0F81025114B1A40C0F810254FF4F8525D
:103640004FF4403302EA042203EA01410A43D0F86E
:1036500010150A43C0F8102509E008EB0500327880
:1036600010F8481F41EA8211017000E00427384633
:10367000BDE8FC818802002000600040FFE0FCFF04
:103680004FF0A041D1F81015C14011F0010000D059
:103690000120704770B5144D95F8540008B108200A
:1036A00070BD0020411E2A18401CC0B282F83010A4
:1036B0002028F8D300242046FEF728FB641CE4B23F
:1036C0000C2CF8D307210620FFF70DFF4FF4BE7036
:1036D00000F056FC05494FF00040C1F804030120FA
:1036E00085F85400002070BD880200200060004072
:1036F000034890F85400002800D0012070470000D3
:10370000880200200121B1EB507F01D101207047D8
:10371000002070472DE9F04105460079164F90468C
:1037200007EB40140E46E07E10B10820BDE8F081A2
:10373000707F20772846FDF74BFF5FEA0800606046
:103740003169216003D0317F2846FFF791F828794D
:1037500007EB4010007F0028286801D0082100E016
:103760000421C0F800150020E0752076A075012125
:10377000E176A076DAE70000E00200202DE9F047CC
:10378000054600793F4E904606EB40140F46207FD9
:1037900018B10846FFF7B6FF30B1284600F074F8BC
:1037A00020B11120BDE8F0871020FBE784F81680D7
:1037B000A7600027A78228794FF0010806EB401484
:1037C0003E46207F0028286825D04FF4907949464E
:1037D00002F010FD4FF4AC7A5146286802F00AFD61
:1037E0002868A17DA268C0F84425C0F8481528685B
:1037F000C0F808806068F0B94946286802F0F5FC16
:1038000080465146286802F0F0FC58EA0001F3D0E7
:1038100058BBA7750FE04FF48E7A514602F0D9FCE1
:103820002868C0F808802146286802F08FFE616889
:103830004FF4807089B13046B4E75146286802F0F1
:10384000C3FC10B9A08A4845F7D1A08A484505D0E5
:103850002146286802F07AFE00E08146A08AA17D18
:103860008842EAD3A08A484501D10F26D1E75146C4
:10387000286802F0A9FC0028F9D02868C0F80C805C
:10388000C7E70000E00200200079044901EB401086
:10389000807D002800D0012070470000E002002059
:1038A00070B5044600791149002601EB40152068E7
:1038B0002A7FC0F80065686888B1207901EB401064
:1038C000007F0028206801D0094901E008498C39AF
:1038D000C0F808132068FFF722FEFFF7F9FD204625
:1038E00002F0B8FCEE766E6070BD0000E0020020D1
:1038F0001003020070B5124D06464FF080746868E0
:10390000814202D01022FCF79BFD0E490020C1F835
:10391000000101220A6001E0641E0ED0D1F80021EE
:10392000002AF9D0C1F80001A9688E4203D0102204
:103930003046FCF785FD012070BD002070BD000001
:103940002000002000E000400549064801F1100277
:10395000C0E9001210328260034801600120704704
:10396000000300202000002004E50040014602483A
:1039700010220068FCF764BD200000202DE9F05FF4
:103980008046102824BF4348FCF7B0FEB8F1100F62
:1039900024BF4148FCF7AAFE08EB48063F49885D72
:1039A000002808BFBDE8F09F3D4A701802EB860B67
:1039B000054610F8022F5BF822400278521C027074
:1039C00090F800C00022BCF1030F28BF0270885D90
:1039D000401E8855002C08BFBDE8F09FDFF8C4A04A
:1039E000314FDFF8C890544504BF3148FCF77EFEE4
:1039F0003868062824BF2F48FCF778FE0020396875
:103A000000290BD959F82030A34203D12A48FCF7EA
:103A10006DFE0FE0401CC0B28842F3D3274900205E
:103A200000EB001201EB4202A24206D0401CC0B2E1
:103A30000628F5D32248FCF759FE386859F82000CB
:103A400050451CBF1F48FCF751FE386849F820401C
:103A5000401C3860B8F1100F24BF0F48FCF746FE39
:103A60000E48815D002908BFBDE8F09FA978AB78BA
:103A70005BF82140A91C5B1CAB70AB78032B24BF07
:103A800000220A70815D491E8155002CABD1BDE832
:103A9000F09F0000D7000300A6000300640A002086
:103AA000940A0020ADDEADDEE0000020540B0020C3
:103AB000DB00030085000300F60003006C0B002010
:103AC000860003008800030070B51B4E0446306872
:103AD000062824BF1948FCF709FE00213268184D5A
:103AE000002A0BD955F82130A34203D11548FCF721
:103AF000FDFD0FE0481CC1B29142F3D3124A0021F0
:103B000001EB011002EB4003A34206D0481CC1B2F6
:103B10000629F5D30D48FCF7E9FD30680C4955F846
:103B2000200088421CBF0B48FCF7E0FD306845F8D8
:103B30002040401C306070BDE00000208500030084
:103B4000540B0020F60003006C0B002086000300DD
:103B5000ADDEADDE8800030001480068704700005C
:103B6000E000002010B50446102824BF0348FCF7ED
:103B7000BDFD04EB44000249085C10BDC800030011
:103B8000640A002030B40020144A014600EB4003D0
:103B900003EB020C8CF801108CF80210D154401C7D
:103BA0001028F3D30E4C002104F1180C5FF0DE0254
:103BB00001EB01100CEB400344F8213000201D18EC
:103BC0001A54801C6A702228F9D3491C0629EFD3A5
:103BD00004490620086030BC70470000640A0020D9
:103BE000540B0020E000002070B50024054610288A
:103BF00024BF1148FCF77AFD05EB45030F4AD05C62
:103C0000C0B1991802F1300011F802CF00EB830027
:103C100050F82C4091F800C00CF1010C81F800C064
:103C200091F800C0BCF1030F24BF00200870D05CE5
:103C3000401ED054204670BDA6000300640A002038
:103C400070B50D460446102924BF2348FCF74EFDED
:103C50000022224816460068002888BF20490BD958
:103C600051F822C0A44503D11E48FCF73FFD0FE0E8
:103C7000521CD2B28242F3D31B48002202EB021143
:103C800000EB4103A34206D0511CCAB2062AF5D369
:103C90001648FCF72BFD164B05EB4502985C0328F4
:103CA00024BF002070BD1348D11800EB820011F82A
:103CB00001CF40F82C4091F800C00CF1010C81F8C4
:103CC00000C091F800C0BCF1030F28BF0E70985CD3
:103CD000401C9854012070BD8F000300E0000020BC
:103CE000540B0020F60003006C0B00209000030032
:103CF000640A0020940A002010B50446102824BF4E
:103D00000948FCF7F3FC04EB440008490A5C002A6C
:103D100004BF002010BD064A02EB800208448078F0
:103D200052F8200010BD0000B7000300640A002014
:103D3000940A0020184B10B51968002449B3174A9B
:103D4000DFF85CC002EB810050F8044C40F804CC72
:103D5000481E4FF0000118600CD000BF52F821C07F
:103D6000A44503D10F48FCF7C1FC0FE0491CC9B2C0
:103D70008142F3D30C48002101EB011200EB420316
:103D8000A34206D0491CC9B20629F5D30748FCF75F
:103D9000ADFC204610BD0000E0000020540B0020C8
:103DA000ADDEADDEF60003006C0B00207D000300ED
:103DB00000487047488000400048704740810040FC
:103DC0000148007870470000C000002070B5124E16
:103DD00001247460F4601148002505607464104883
:103DE000006800281CBF0F48FCF780FC4FF0FF3034
:103DF000C6F80803C6F840510B49042008600B4878
:103E0000456004704570857088154FF0E021C1F859
:103E10008002C1F8000170BD0080004008850040AC
:103E2000448500403500040010850040C00000209B
:103E30000349012008600349002008707047000012
:103E400000800040C0000020074801214160C1609F
:103E5000064800224FF0E02C426042700B02CCF882
:103E6000803282700170704700800040C0000020E6
:103E70000148407870470000C000002070B541EA5A
:103E80004201DDE904564FF0A04441EA830141EAD2
:103E9000052104EB800041EA0641C0F8001770BD1F
:103EA00070B541EA4201DDE904564FF0A04441EA11
:103EB000830141EA052104EB800041EA0641C0F894
:103EC000001770BD70B541EA4201DDE904564FF0BC
:103ED000A04441EA830141EA052104EB800041EA64
:103EE0000641C0F8001770BD1CB5002100910B46BB
:103EF00001220191FFF7E6FF1CBD1CB500220B4615
:103F0000009211460192FFF7DDFF1CBD1CB5002198
:103F100000910B46012201911146FFF7D3FF1CBD12
:103F20004FF0A04202EB8000D0F8002722F440328C
:103F3000C0F80027D0F8002742EA0141C0F8001776
:103F4000704701224FF0A043824011B1C3F8082509
:103F50007047C3F80C25704718B5084B6C460144F0
:103F60001B68009306E000BF54F82030D3F81035EA
:103F7000401C08C28142F7D818BD0000B469000097
:103F8000034908B50844002101600068009008BD9D
:103F90000060004002494058012800D000207047CE
:103FA000006000402DE9F041294C1646884607463E
:103FB000082804D3042020700020BDE8F081B8F167
:103FC000000F06D0202E09D9062020700020BDE861
:103FD000F081032020700020BDE8F08100F036FB66
:103FE000032804D3092020700020BDE8F081384662
:103FF00000F024FB032804D30A2020700020BDE831
:10400000F08100F013FB022804D208202070002069
:10401000BDE8F08100F068FC054606704078324645
:1040200040F0010068704146A81CFCF709FAF8B29C
:10403000294600F011FC00281CBF0120BDE8F081DA
:104040000448FCF753FB0F2020700020BDE8F081EE
:104050008C000020DD0005007047704710B500F0AF
:10406000E7FB18B1BDE8104000F004B8BDE810400F
:1040700000F004BA704700000548816819B90221B0
:1040800001700020704710B500F036FA012010BD15
:104090008C0000202DE9F04116460F46044600F042
:1040A000CDFA1A4D60B187B1204600F01BFC0078B4
:1040B000316881420ED2062028700020BDE8F081D0
:1040C0000B2028700020BDE8F0810320287000201C
:1040D000BDE8F081204600F0B5FB040018BF14F1E4
:1040E00002000BD02278014638463260FCF7A8F96E
:1040F000204600F091FA0120BDE8F0810448FCF769
:10410000F5FA0F2028700020BDE8F0818C00002017
:104110000501050010B5082804D3054904200870DE
:10412000002010BDC0B200F053FA012010BD000005
:104130008C000020094910B58A68527E1AB10C2003
:104140000870002010BD082803D304200870002048
:1041500010BDC0B200F046FA012010BD8C00002056
:1041600001484068704700008C000020014800783A
:10417000704700008C00002010B500F059FA0028AC
:1041800004BF022010BD012804BF002010BD02287A
:1041900004BF012010BD0248FCF7A8FA022010BDA0
:1041A00070010500082804D3034904200870401F4B
:1041B000704700F043BA00008C00002000F040BAC5
:1041C000082804D30349042008700020704700F039
:1041D0003DBA00008C000020002801D10148416058
:1041E000704700007A0000202DE9F047434C8046DC
:1041F000002543482570E5600560456085604148BD
:1042000000F026FA0127A060002872D0407E022626
:10421000626804F11001012808BF26701FD0102A1F
:104220001BD8100019D03848FCF70AF936486168E5
:1042300000F078FB4FF00109B8F1000F12D0B8F18F
:10424000010F08BF022011D0B8F1020F1CBF0520DA
:1042500020704FF0000009D00BE0072020704FF0D5
:104260000009E9E7012000F0D3FB01E000F0D0FBFA
:10427000012000EA0908042000F040FBA1680020AA
:10428000497E00291CBF2670284602D100F044FB5D
:104290003846A16800EA08080020497E00291CBFB2
:1042A0002670284602D100F0C5FC384600EA08080E
:1042B000A068407E00281CBF2670284603D101203C
:1042C00000F04AFB3846A16800EA08080020497E51
:1042D000002918BF267002D100F0B6FC3D4605EA61
:1042E0000805012000F062F9002D1CBF0120BDE887
:1042F000F08727700020BDE8F08700008C000020C8
:10430000A4080020353200009C000020014880688D
:10431000407E70478C00002070470000094A10B5AD
:1043200093685B7E1BB102201070002010BD08282E
:1043300003D304201070002010BD00F023FC0120E6
:1043400010BD00008C0000200449002200280A70E3
:1043500008BF70478860012008707047A4080020DB
:10436000064910B58A68527E1AB1022008700020F2
:1043700010BD00F08FFB012010BD00008C0000205C
:10438000064910B58A68527E1AB1022008700020D2
:1043900010BD00F0BBFB012010BD00008C00002010
:1043A00010B5114CA268527E012A11D0102913D8E1
:1043B00091B1A8B10A466160014604F11000FCF712
:1043C0003FF804F11000616800F0ACFA012010BD64
:1043D00002202070002010BD07202070002010BD9A
:1043E00003202070002010BD8C00002010B560B1AB
:1043F000012808BF02200CD0022808BF002008D0E6
:10440000064905200870002010BD012000F000FBC7
:1044100001E000F0FDFA012010BD00008C0000203A
:10442000064910B58A68527E1AB102200870002031
:1044300010BD00F0F3FB012010BD00008C00002037
:10444000064910B58A68527E1AB102200870002011
:1044500010BD00F0E9FB012010BD00008C00002021
:1044600010B5FFF753FF002806D0FFF7F7FD30BF68
:10447000FFF74CFF0028FBD110BD000010B5012054
:1044800080F310881748417E002927D0817829BB06
:1044900001248470FFF794FC01281FD101F078FEFD
:1044A00000281CBF1048FCF721F9002264210F48A6
:1044B000FCF71EF90E48007F70B90E480460002119
:1044C0000007C0F80011046000BF00BF00BF00BFBC
:1044D000D0F800110029FBD0FFF7AAFC002080F3E0
:1044E000108810BDE40800202C0609006D61000052
:1044F000B00800201405004070B5234D687E0028E8
:1045000018BF70BDFEF7AAFA204CA068002804BFAF
:104510001F48FCF7EBF86068002804BF1D48FCF753
:10452000E5F801F02FFE00281CBF1B48FCF7DEF861
:10453000002001F03BFE01246C76FFF741FC0128CE
:1045400018BF70BD01F024FE00281CBF1348FCF703
:10455000CDF8002264211248FCF7CAF81148007F08
:1045600070B91148046000210007C0F80011046010
:1045700000BF00BF00BF00BFD0F800110029FBD072
:10458000BDE87040FFF754BCE40800201809002083
:104590005E0209005F020900660209002C0609009C
:1045A0006D610000B00800201405004010B50446FD
:1045B00004484068002804BF0348FCF797F8034804
:1045C000047510BDAC000020F603090000090020AE
:1045D00010B5012181F3108801F08CFC002080F3DC
:1045E000108810BD10B50446012181F310880849D8
:1045F0000A78002A1FBF487E00280648FCF776F894
:10460000204601F07BFC002080F3108810BD0000E4
:10461000E4080020FA02090010B5012181F3108896
:1046200001F086FC002080F3108810BD01F082BCF0
:104630000148007870470000E408002001F08EBCBB
:104640000148006970470000B008002001F090BCEC
:104650002DE9F0470446012080F310886B4D4FF0A0
:1046600003090026687085F80090AE706E60AE6039
:10467000AE81EE812E6107466E612E7605F11C003B
:104680006E76066046608660C660066100F11808B6
:104690000675C8F80860C8F80460FFF797FB204665
:1046A00001F0B2FA01F066FC002001F077FD05F19F
:1046B0003400FEF78DFE564880F80064C01F80F875
:1046C00000645449202081F80004012087F31088F9
:1046D0002978A5F13404012928D06870687E20B1BA
:1046E000FFF76EFB012803D020E002F0A1F81DE0E7
:1046F00001F04EFD00281CBF4748FBF7F7FF0022E2
:1047000064214648FBF7F4FF207F68B944480760FE
:104710000007C0F80061076000BF00BF00BF00BF16
:10472000D0F800110029FBD0FFF782FB002080F3B6
:104730001088FF202061042161773A4820623A48BE
:10474000606284F82870022084F8290084F82A9096
:1047500084F82B10052184F82C10062184F82D10E4
:10476000072184F82E10082184F82F1084F8306077
:1047700084F8310084F832701E2161614FF41671A3
:104780006160E0602A78022A06D06968002904BFC7
:10479000A168C8F8001001D0C8F800000F21A1607E
:1047A000022A05D06A68002A08BFC8F8001001D0A4
:1047B000C8F8000000206083012020766076002089
:1047C000207701F04FFC69202060687801281CBF29
:1047D0001648FBF78BFF2F70AE706E60AE60AE8137
:1047E000EE812E616E612E766E76FEF737F94FF010
:1047F000E0204FF48071C0F880124903C0F88012A5
:1048000086F310880148BDE8F0870000E408002026
:1048100008E000E015E000E02C0609006D610000F2
:104820001405004004070A0D05080B0E3C020900A0
:104830000348407E00280CBF012000207047000084
:10484000E408002010B5012181F3108801F0C8FBB5
:10485000002181F3108810BD10B5012282F3108869
:1048600001F0C1FB00282ED01948817831BB407E71
:1048700020B3FFF7A5FA012820D101F089FC002818
:104880001CBF1448FBF732FF002264211248FBF7DB
:104890002FFF1248007F78B91148012101600022E2
:1048A0000007C0F80021016000BF00BF00BF00BFCB
:1048B000D0F800110029FBD0FFF7BAFA002080F3EE
:1048C0001088012010BD002080F3108810BD00006A
:1048D000E40800202C0609006D610000B0080020EB
:1048E0001405004001F090BB10B5012080F3108842
:1048F00001F08DFB002181F3108810BD0449487739
:1049000004490A6822F4E02242EA00400860704745
:10491000B0080020181500400149087670470000D3
:10492000B008002070B50C00054604BF0748FBF72F
:10493000DDFE002D04BF0648FBF7D8FE0548C0E9A0
:104940000145BDE870400020FEF754BD4803090052
:1049500049030900180900202DE9F0011F49224BE5
:10496000204A1C1D81F83200251D1D49DFF87CC03E
:104970002E1DDFF87C80371DA0B1012820D0022831
:104980001CBFBDE8F0017047022008601A6019489A
:10499000C4F800C0286018483060C7F80080BDE83F
:1049A000F0017047002008601A601448C4F800C085
:1049B000286013483060C7F80080BDE8F0017047F8
:1049C000012008601A600F48C4F800C028600E4833
:1049D00030600E483860BDE8F0017047B008002034
:1049E0001015004000500078241700404E0000547D
:1049F0003E420F8208800C608864720003800C6065
:104A00002264720002800C6011646600DEC08F8236
:104A100010B5012181F3108819490A7882422BD000
:104A20004870487E20B1FFF7CBF9012803D023E07E
:104A300001F0FEFE20E001F0ABFB00281CBF114896
:104A4000FBF754FE002264210F48FBF751FE0F488C
:104A5000007F78B90E480121016000220007C0F8EC
:104A60000021016000BF00BF00BF00BFD0F80011EF
:104A70000029FBD0FFF7DCF9002080F3108810BD7F
:104A8000E40800202C0609006D610000B008002039
:104A9000140500401B4930B400231A464FF0180C8F
:104AA0000862D10020FA01F1C9B2002401F0010529
:104AB00044EAC514C1F3400544EA8514C1F38005F6
:104AC00044EA4514C1F3C00544EA0514C1F30015D6
:104AD00044EAC504C1F3401544EA8504C1F38015D6
:104AE00044EA450444EAD11154420CEBC404A14009
:104AF0000B43511CCAB2042AD3D30348036030BC11
:104B000070470000B00800201C1500401B4930B45D
:104B100000231A464FF0180C4862D10020FA01F128
:104B2000C9B2002401F0010544EAC514C1F34005EF
:104B300044EA8514C1F3800544EA4514C1F3C00575
:104B400044EA0514C1F3001544EAC504C1F3401555
:104B500044EA8504C1F3801544EA450444EAD111CE
:104B600054420CEBC404A1400B43511CCAB2042AAA
:104B7000D3D30348036030BC70470000B008002066
:104B80002015004008283ED2204AFF2302444FF05F
:104B9000000C82F828108207D20E03FA02F201F00C
:104BA00001034CEAC313C1F3400C43EA8C13C1F375
:104BB000800C43EA4C1CC1F3C0034CEA031CC1F354
:104BC00000134CEAC30CC1F340134CEA830CC1F34D
:104BD00080134CEA430343EAD1118307DB0ED2432F
:104BE0009940042807D20A4803681A400260026804
:104BF000114301607047074803681A400260026869
:104C00001143016070470448FBF770BDB0080020F5
:104C100024150040281500403903090001490861A6
:104C200070470000B008002001494860704700004C
:104C3000B0080020024981F830000249086070473E
:104C4000B00800200C1500400149087770470000AB
:104C5000B008002070B51148114C4068407D28B163
:104C6000012000F0BBFCA089401CA0810D4900265A
:104C700030460E600C494A680968551A01F096FAE8
:104C80006069A84224BF0948FBF730FD6069012232
:104C9000291A0748FBF72CFD666170BDAC000020A7
:104CA000E408002054F50140B00800204D0609003A
:104CB0006D6100002DE9F04FF84CDFF8E483F94F07
:104CC000606983B004F1340A4FF001090025A4F1B2
:104CD000340610B9FFF7CCF8D0B1606800281CBFCB
:104CE000401E60602078022804D06168002908BF57
:104CF000B16800D0F168CAF80010A178002900F06E
:104D0000EF81FEF72FFB03B0BDE8F04FFDF784B94C
:104D10002078012802D0022806D00CE000F054FCD4
:104D2000002840F0198206E098F80000042818BF17
:104D3000032800F01182FEF715FB606800281CBFF5
:104D4000401E60602078022804D06068002808BFF8
:104D5000B06800D0F068CAF80000A078E8B1FDF7AC
:104D60005BF900BF00F046FF0228C0F0B3810020CD
:104D70004FF0030C8DF800C08DF80100ADF808006D
:104D80000190ADF80A008DF802508DF80350684686
:104D900000F0F2FE03B0BDE8F08F01F049FD88B1EC
:104DA0000020766801F002FA6069B04224BFBE4874
:104DB000FBF79CFC60690122311ABC48FBF798FCA8
:104DC0006561CFE72078002800F0348101281AD0EF
:104DD000022800F01381B648FBF788FC707E01289A
:104DE000C0D120780228BDD061680029BAD14FF027
:104DF0008047002800F04281012800F02781AD485B
:104E0000FBF774FCAEE700F0B7F901F0ABF8DFF8A0
:104E1000A8A20AF1040B28B3708B00287ED0A189C8
:104E200081427BD30121002000F0FAFF4FF00108FE
:104E300001F088F80746B4F80CA0B4F80EB001F001
:104E400087F88DF800808DF80100ADF808A08DF886
:104E500002500197ADF80AB08DF80350684600F093
:104E60008BFE9CE000F0C6FE022876D32078022854
:104E700001D0606818B1FEF7A5FA60B38FE0206931
:104E8000FEF7B8FA0020FEF7C9FA01F013F900287E
:104E900063D0A581E58101F05BF88849086001F0E5
:104EA00057F809FA00F18648016001F04BF885498E
:104EB000086001F041F8834948608348C860FEF704
:104EC00067FA386001F04EF8012870D001F04AF816
:104ED000022857D053E0307E30B301F0EBF8E0B356
:104EE000A581E58101F034F87449086001F030F8DB
:104EF00009FA00F17248016001F024F87149086074
:104F000001F01AF86F4948606F48C860FEF740FA30
:104F1000386001F027F8012866D000E048E001F091
:104F200021F802285ED02AE0FEF746FA216988427D
:104F300035D101F0BFF880B1A581E58101F008F815
:104F40005E49086001F004F809FA00F15C4801606C
:104F500000F0F8FF5B49086000E020E000F0ECFFA3
:104F6000584948605848C860FEF712FA386000F0A7
:104F7000F9FF012838D000F0F5FF022832D053485D
:104F8000FBF7B4FB2EE000BF00F0A8FAFEF714FF19
:104F9000CAF80000D8F804004068CBF800000120EF
:104FA000376801F003F96069B8421FD349E01BE09C
:104FB000FEF75EFF00281CBF4548FBF797FBFEF796
:104FC000E7F93968884202D0E089401CE081FEF7A9
:104FD000DFF9386000F0C6FF012805D000F0C2FFFD
:104FE0000228CCD10020CFE70120CDE76069012263
:104FF000391A2E48FBF77CFB6561EFE64FF0000A9B
:10500000FEF7C6F93968884204D0FEF7C1F9386066
:105010004FF0010A98F80010AAF10100084208BFF9
:10502000FCF7F6FB0020776801F0C0F86069B84231
:10503000DCD306E00020776801F0B8F86069B84278
:10504000D4D31948FBF752FBD0E700BF00F08AFF2A
:1050500000287FF487AE01F083F800287FF482AE49
:10506000FEF7AEFE01283FF47DAEFEF7EDFE307F89
:1050700070B900BFC7F804900AE000BFFEF7A0FEB9
:1050800001283FF46FAEFEF7DFFE307F0028F1D03D
:10509000002001F08BF8656064E60000E408002061
:1050A000AC000020081500404D0609006D610000AD
:1050B000580409007204090050F501402C15004005
:1050C00030150040000900208D1E00001E0609005A
:1050D0000A05090003B02548BDE8F04FFBF706BB01
:1050E000022809D0FEF73EF90020766801F05EF84C
:1050F0006069B04223D225E098F80000042818BF68
:10510000032829D0FEF72EF94FF00009FEF740F9E9
:105110003968884204D0FEF73BF938604FF0010946
:1051200098F80010A9F10100084208BFFCF770FBD5
:105130000020766801F03AF86069B04202D30C486A
:10514000FBF7D4FA60690122311A0A48FBF7D0FA5A
:10515000656103B0BDE8F08F70684108616103B01C
:105160000122BDE8F04F0348FBF7C2BA8C040900E6
:105170004D0609006D61000030B44FF0E0240120BD
:105180004FF0020C0021C4F880C1724A851EC2F89B
:105190000853C4F880C2C2F80012C2F8101110619E
:1051A00090616D4B1878012808BF06205AD002285C
:1051B00016BF0328022001207ED0401E00BF00BF82
:1051C00000BF00BF00BF00BF00BF00BF00BF00BFE7
:1051D00000BF00BF00BF00BF00BF00BF00BF00BFD7
:1051E00000BF00BF00BF00BF00BF00BF00BF00BFC7
:1051F00000BF00BF00BF00BF00BF00BF00BF00BFB7
:1052000000BF00BF00BF00BF00BF00BF00BF00BFA6
:1052100000BF00BF00BF00BF00BF00BF00BF00BF96
:1052200000BF00BF00BF00BF00BF00BFC5D100BFAF
:10523000C2F810111970C2F80012C2F80853C4F86D
:1052400080C2C2F80C1103205870C2F80011C2F8D5
:105250001011C2F80411596019755975C4F800C1CC
:1052600030BC7047401E00BF00BF00BF00BF00BF82
:1052700000BF00BF00BF00BF00BF00BF00BF00BF36
:1052800000BF00BF00BF00BF00BF00BF00BF00BF26
:1052900000BF00BF00BF00BF00BF00BF00BF00BF16
:1052A00000BF00BF00BF00BF00BF00BF00BF00BF06
:1052B00000BF00BF00BF00E011E000BF00BF00BFA3
:1052C00000BF00BF00BF00BF00BF00BF00BF00BFE6
:1052D00000BF00BF00BF00BF00BFC3D1A8E7401E92
:1052E00000BF00BF00BF00BF00BF00BF00BF00BFC6
:1052F00000BF00BF00BF00BF00BF00BF00BF00BFB6
:1053000000BF00BF00BF00BF00BF00BF00BF00BFA5
:1053100000BF00BF00BF00BF00BF00BF00BF00BF95
:1053200000BF00BF00BF00BF00BF00BF00BF00BF85
:1053300000BF00BF00BF00BF00BF00BF00BF00BF75
:1053400000BF00BF00BF00BF00BF00BF00BF00BF65
:10535000C5D16DE700100040240900202DE9F0417F
:105360003D483F4E0322036900253C4C3168012B28
:1053700006D0022B56D0BDE8F0413A48FBF7B6B94B
:105380000423037083695B1C8361C4F80022012736
:105390004FF0E0280222C8F88022C4F80C51C4F86B
:1053A0000051C4F81051C4F804510822C4F8042371
:1053B000097D89B12C49096881752C48006810F471
:1053C000806F04BF2A48FBF791F9C4F81C51A7610C
:1053D00028494FF480600860D4F8000100281CBF01
:1053E0002548FBF783F9D4F80C0100281CBF23489B
:1053F000FBF77CF9D8F8000210F0020F1CBF204820
:10540000FBF774F93068C068002818BF804730681F
:10541000417D002908BFBDE8F08100681949086096
:10542000BDE8F081C4F80C51C4F81051C4F8005123
:10543000C4F80451C4F8005205704FF0FF33C4F8AB
:1054400008334270456005750869002808BFBDE84B
:10545000F081BDE8F0410047240900200010004021
:10546000C8000020E7020A004815004000F501408E
:10547000AD020A0008F50140B6020A00B7020A00B0
:10548000B8020A000415004070B50F4902254FF01C
:10549000E02608600024C6F880510D490B480860DA
:1054A000091F0C48086006F5C076FFF765FE0A483C
:1054B000032104704170446004610475447584756F
:1054C00046F8805C70BD0000C80000201410004049
:1054D00064F5014004110040240900202DE9F04743
:1054E00005462E482E4C00EB0517207D00281CBFDA
:1054F0002C48FBF7FBF800264FF0010A002D1CBFDB
:10550000012D022D2DD02848FBF7F0F82748FBF796
:10551000EDF8DFF89C8066754FF0FF30C8F808039F
:105520004FF0E0210220C1F88002DFF8889065701A
:10553000032DD9F800000168A1604268C4E9032680
:10554000A661386860601BD2387AC8F80002FB7A1E
:10555000194853B102600068002808BF17480AD0F4
:105560000BE020780028D1D1D3E701600068002843
:1055700008BF134801D1FBF7B9F8787AC8F80403DB
:10558000D9F80000007D28B1022D03D10D49A67580
:105590006802086084F815A0BDE8F087186A00006A
:1055A00024090020DB000A00F9020A00DD000A00DD
:1055B00000100040C80000200415004005010A004A
:1055C00000010A0004F501400348D0F80401012855
:1055D00018BF002070470000001000402DE9F04186
:1055E000214C07462148657800EB0516607D0128AF
:1055F0001CBF1F48FBF77AF8207D00281CBF1D4800
:10560000FBF774F80120002120756175032D09D284
:10561000002F04BF31680860022D12BF012DB07A3F
:10562000207002E01448FBF761F814480068007D20
:10563000002808BFBDE8F081022D18BFBDE8F08149
:105640000F48006810F4806F04BF0E48FBF74EF857
:105650000D480068002818BFBDE8F0810B48BDE880
:10566000F041FBF743B8000024090020186A00004D
:1056700021010A0022010A003A010A00C8000020A4
:1056800004F5014040010A000415004041010A00F0
:10569000004870470957000030B5184C054689B0DE
:1056A000207828B16078854202D1002009B030BD51
:1056B000202213496846FAF7C3FE00208DF8140033
:1056C00006200090082001900520039007200290FA
:1056D0004FF0EB7006900948001DFEF7E1F80DB1A0
:1056E000002200E0074A05486946001DFEF712F84F
:1056F0000028DBD1012020706570D6E7640000200F
:10570000C0690000896500002DE9F04FC1B00D00AF
:105710004FF0000140914D984B991C46174601EB04
:10572000000B01D00A2000E00020804600F012FEAD
:1057300000287CD16E46BCB9409840AA3118284652
:1057400000F0EAFE002872D03846FAF79DFEC22823
:1057500000D9C220054640982A4630443946FAF717
:105760006FFE4098284440904FF0200A409901EB8A
:10577000080231320DEB01050DEB0206002002E0BC
:1057800005F801AB401C4045FAD300275C4508D31F
:1057900005F801AB05F801AB05F801AB06F801AB64
:1057A0002DE04B98844202D24A98005D02E0211A13
:1057B0004C98405C2B46814602460121880022FA23
:1057C00000F000F00F00092801D9373000E0303038
:1057D000C1F1010C491E03F80C00EFD29D1C05F825
:1057E00001ABFAF729FE016811F8090010F03E0F2D
:1057F00001D0484600E02E2006F8010B641C7F1CF7
:10580000102FC3D30D2030700A20707085F800A0CF
:105810004099684641444331409100F0A1FD30B1C8
:1058200000F098FD18B9002040905C459ED341B02F
:105830002046BDE8F08F2DE9F043C7B000251C4697
:10584000904689464E9F459500F084FD00287AD108
:10585000459805AE311845AA484600F05DFE00287F
:1058600035D0072F27D2DFE807F004121B35424F4F
:105870005D004046FAF708FE054645982918FF29BD
:1058800019D830442A464146FAF7DAFD13E0459824
:105890002368C0F5807130444246FBF7F5FA09E011
:1058A0006068009045982368C0F580713044424696
:1058B000FBF7EAFA0546294645A8FCF7DFF94599C2
:1058C00078B3B1F5807F3ED805A800F049FD47B018
:1058D000BDE8F083D4E90101CDE9000145982368D2
:1058E000C0F5807130444246FBF7CEFAE2E7201D56
:1058F00007C88DE8070045982368C0F580713044DB
:105900004246FBF7C1FAD5E7201D0FC88DE80F000E
:1059100045982368C0F5807130444246FBF7B4FADD
:10592000C8E710E004F1080001AD0FC885E80F00DA
:105930006068009045982368C0F580713044424605
:10594000FBF7A2FAB6E70020C1E700000048704765
:10595000375800000120FFF79FBE00002DE9F04FEF
:1059600087B0FCF7C5F918B1002007B0BDE8F08F8B
:10597000454ED6E9014704EA070006EB8000A14640
:10598000641CC5680CE000BFC5F3891000EB95509E
:10599000044404EA070006EB8000A146C568641CC5
:1059A000A807F1D005F003004FF0000B022805D046
:1059B000AA0A01A8C5F38313002153E004EA0700F3
:1059C00006EB800004F1010A0AEA0704C268381BEA
:1059D00080004FEA9558001DC5F38913804521D9F1
:1059E00029490C3138B106EB840400F0FF0CA8EB18
:1059F00000000C3404E00C46002108F0FF0C0846BF
:105A0000C0B2CDE90210CDE9004CD6F81444C5F37C
:105A1000C2005946A047404511D108F103080AEBDE
:105A200098042AE0002106EB84000C300090CDE9B8
:105A300001810391C5F3C200D6F81444EAE760F38C
:105A40008F1509EA070006EB8000C56016E000BF6D
:105A500004EA070C06EB8C0C491CDCF80CC040F87F
:105A600004CB641C9942F3D3C5F3C2000093D6F86B
:105A7000105401AB5946A84700B17460FCF738F9DF
:105A800080F0010071E7000050040020034AFF236A
:105A9000936000231360536000F054B8500400205A
:105AA0002DE9F8430F4F88460446002569462846ED
:105AB000BE68FCF7EDF8002812D00B4800214068C2
:105AC00061F38200009964F3C50001EA060265F300
:105AD000891007EB820268F39F20491CD060009177
:105AE000BDE8F88350040020E06900002DE9F84388
:105AF000124D884604460127914669463846AE68ED
:105B0000FCF7C6F8002817D00D480021806861F323
:105B10008200009964F3C50001EA060267F3891068
:105B200005EB820268F39F20491CD0600091314050
:105B300005EB8101C1F80C90BDE8F883500400200A
:105B4000E0690000024A02F5826203C27047000069
:105B50005004002070B506460020FFF79DFD0400AC
:105B600008D1FFF795FD0546FFF7F0FE32462946BE
:105B7000FFF78CFF204670BD70B51B4C05462068B2
:105B8000002804BF1948FAF7B1FDD4F884000A28A8
:105B900024BF1748FAF7AAFDE06F00EB400004EBC2
:105BA00080012878087168784871A8788871E87849
:105BB000C87168688860288988816889C881D4F834
:105BC0008400401CC4F88400E06F401CE067E16F73
:105BD00000200A2928BFE0674FF400104FF0E021B1
:105BE000C1F8000270BD00004809002034000B001D
:105BF00035000B000348D0F88400C0F10A00C0B2A1
:105C0000704700004809002010B5040004BF09488F
:105C1000FAF76CFD08490C600020C867C1F88000E5
:105C2000C1F884004FF0E0214FF40010C1F80001EA
:105C300010BD000029000B004809002010B500F03D
:105C400003029043D200FF24944003689140A34391
:105C5000CA18074B0121196006490C68002CFCD0BA
:105C6000026008680028FCD00020186010BD000009
:105C700004E5014000E40140F0B515460E46074634
:105C8000002404E0315D3819FFF7D8FF641CAC42F2
:105C9000F8D3F0BD2DE9FF4F584D83B00327DDE960
:105CA00010B9E86F4FF000080C464646002804BFC4
:105CB0005348FAF71BFD287803281CBF5148FAF710
:105CC00015FDE86F417811F0010F69D195F8920048
:105CD000002818BF4FF0000A62D00398002808BFC0
:105CE000042767D0059A304662F31700C1F34101DB
:105CF00061F31F6005EB8401896BCBF80060C9F884
:105D000000600190884257D0E86F002804BF3E48E9
:105D1000FAF7ECFC04F10801E86F0091FDF790FF41
:105D200000281ABF4FF00108EE674FF000080AEA9A
:105D3000080AB8F1000F3FD0009805EB80010198E8
:105D40008861069918EA010F35D03048005D80B3AC
:105D50002046FDF707FF002804BF2D48FAF7C6FCD0
:105D60002046FDF741FF009068B195F89000274666
:105D700020B12869B84208BF00F04CF9E81980F852
:105D800080602248C6550098CBF80000BBF1000F98
:105D900008BF204807D0002808BF1F4803D004E0F0
:105DA0004FF0010A99E7FAF7A1FC184802270655B7
:105DB00002E000E017E00127BAF1000F08BFC9F8C0
