:020000040001F9
:10F00000C855002015F401001DF401001FF4010093
:10F0100021F4010023F4010025F4010000000000A8
:10F0200000000000000000000000000027F40100C4
:10F0300029F40100000000002BF401002DF4010070
:10F04000B1F701002FF401009DFB01002FF4010036
:10F050002FF401002FF40100D5F501002FF4010079
:10F060002FF401002FF401002FF401002FF4010010
:10F070002FF401002FF401002FF401002FF4010000
:10F080002FF4010009F801002FF401002FF4010012
:10F09000D9F801002FF40100DDF801002FF4010080
:10F0A0002FF401002FF401002FF401002FF40100D0
:10F0B0002FF401002FF40100000000000000000008
:10F0C0002FF401002FF401002FF401002FF40100B0
:10F0D0002FF401002FF401002FF4010000000000C4
:10F0E0000000000000000000000000000000000020
:10F0F0000000000000000000000000000000000010
:10F1000000000000000000000000000000000000FF
:10F1100000000000000000000000000000000000EF
:10F40000DFF80CD000F08AF80048004745320200CF
:10F41000C85500200648804706480047FEE7FEE73B
:10F42000FEE7FEE7FEE7FEE7FEE7FEE7FEE7FEE7B4
:10F4300001F9010001F4010040EA01039B0703D038
:10F4400009E008C9121F08C0042AFAD203E011F823
:10F45000013B00F8013B521EF9D27047D2B201E0E5
:10F4600000F8012B491EFBD270470022F6E710B5C9
:10F4700013460A4604461946FFF7F0FF204610BD22
:10F48000421C10F8011B0029FBD1801A704730B5CF
:10F4900004460020034600E05B1C934203D2E05C7C
:10F4A000CD5C401BF8D030BD034611F8012B00F8AD
:10F4B000012B002AF9D1184670472DE9F05F054667
:10F4C000002092469B4688460646814640241BE023
:10F4D000284641464746224600F041F853465A46E0
:10F4E000C01A914110D311461846224600F028F860
:10F4F0002D1A67EB01084F4622460120002100F03B
:10F500001FF817EB00094E41201EA4F10104DFDCB7
:10F51000484631462A464346BDE8F09F064C074D13
:10F5200006E0E06840F0010394E8070098471034D3
:10F53000AC42F6D3FFF768FF3C7202005C72020037
:10F54000202A04DB203A00FA02F1002070479140A3
:10F55000C2F1200320FA03F3194390407047202A98
:10F5600004DB203A21FA02F00021704721FA02F36D
:10F57000D040C2F12002914008431946704770B54F
:10F580008C1810F8015B15F0070301D110F8013B4E
:10F590002A1106D110F8012B03E010F8016B01F8D5
:10F5A000016B5B1EF9D12B0705D40023521E0DD42D
:10F5B00001F8013BFAE710F8013BCB1A921C03E07B
:10F5C00013F8015B01F8015B521EF9D5A142D8D3B3
:10F5D000002070BD2DE9FC5F0025DFF83891A846BA
:10F5E0004FF4807601242F46304604F0B9FA38B142
:10F5F000D9F80403204203D0304604F0A7FA25438B
:10F60000361D64007F1CB6B2082FEDD34FF4BE74D4
:10F61000204604F0A5FA38B1204604F097FA3E4897
:10F6200045F00045D0F800803C4E15F0FF0F15D096
:10F63000012700242F420DD009EB8401D1F81005D9
:10F64000D1F81015C0F3042056F82420C1F301416D
:10F6500002B190477F00641C082CEBD3002D56DAD2
:10F6600000200190401E4CE0701910F8501F90F9D6
:10F67000000021F0C004401C38D0012000FA04FA38
:10F680001AEA090F32D04FEA911B204601F092FF8F
:10F6900056F82000009010B9BBF1030F26D1514657
:10F6A000BBF1030F02D1019808430190A00000F1C3
:10F6B000A040D0F800071AEA080FC0F3014002D0BA
:10F6C000022802D012E0032810D1BBF1030F07D1AA
:10F6D00002281AD00221204604F02AFA7F1CFFB229
:10F6E000009818B1009A5946204690476D1C042D89
:10F6F000BAD3002F0BD008480068404507D0804699
:10F700000198002781463D46AEE70321E3E7BDE8C7
:10F71000FC9F00000060004010050050FC28002005
:10F7200000F01F02012191404009800000F1E0201B
:10F73000C0F88012704700F01F020121914040097B
:10F74000800000F1E020C0F88011704700F01F0237
:10F75000012191404009800000F1E020C0F8001133
:10F76000704700F01F02012191404009800000F124
:10F77000E020C0F80011704700F01F020121914005
:10F780004009800000F1E020C0F8001270474907EE
:10F79000090E002806DA00F00F0000F1E02080F8E2
:10F7A000141D704700F1E02080F80014704700003D
:10F7B0002DE9F0414FF48077384603F0E3FE012451
:10F7C000104EA50748B1384603F0E3FE0120C5F806
:10F7D00008037470002001F02DFF4FF48277384643
:10F7E00003F0D0FE00280BD0384603F0D2FE0220F2
:10F7F000C5F80803B470BDE8F041012001F01ABF5C
:10F80000BDE8F081E828002007480021C0F8401139
:10F81000C0F84411C0F84811C0F84C11C0F80011EC
:10F82000C0F8041107F064B8001001402DE9F0475A
:10F83000114F0446DDF8209038781D46164688465C
:10F8400008B900F0B9F93869A04211D90A4904EBA6
:10F85000440001EBC00134B1C1F81880C1E907656B
:10F860000020886248620020C1F82C90BDE8F08733
:10F870004FF0FF30FAE700004C35002070B50E461F
:10F88000144900EB400001EBC0051446E86A183546
:10F8900020B101280FD0022805D113E0284600F03E
:10F8A000BFF9A04201D2002411E022463146284689
:10F8B00000F0EEF90BE0284600F0B2F9A042F4D2D5
:10F8C0000446F2E73146284600F0B5F904462046E2
:10F8D00070BD00004C35002006F082BF074810B50F
:10F8E000406830B18047002807D0BDE8104000F0E4
:10F8F00021BEBDE8104003F041B910BD40220020F8
:10F90000F0B598480023021D01780125101D4FF025
:10F910008056062907D11478240704D10478C4F34B
:10F920000314032C02D0062904D00FE08F4F8E4C15
:10F930007C670EE01478240708D10478C4F303141C
:10F94000032C06D0042C04D0052C02D0062907D0A5
:10F950000EE0D6F84442864FC4F342343C6002E0E5
:10F960001478240704D10478C4F30314032C02D0C0
:10F97000062906D011E07F4C276827F080772760A2
:10F980000EE01478240708D10478C4F30314032C80
:10F9900006D0042C04D0052C02D006290AD011E090
:10F9A0004FF08044C4F80C31C4F81031704C241F5F
:10F9B000236002E01478240704D10478C4F303140C
:10F9C000032C02D0062905D00CE0694F03246437CC
:10F9D0003C600AE01478240704D10478C4F30314CB
:10F9E000032C02D006290DD014E0634F05243C609F
:10F9F000614C78342560604C083423603F243F1DFF
:10FA00003C6002E01478240704D10478C4F30314A2
:10FA1000052C02D0062957D068E058490968584A91
:10FA200011605649091D0968121D116053490831BA
:10FA30000968121D116051490C310968121D1160CD
:10FA40004E4910310968121D11604C491431096882
:10FA5000121D1160494918310968494A2032116064
:10FA600046491C310968121D11604449203109685A
:10FA7000121D1160414924310968121D11603F496E
:10FA800028310968121D11603C492C310968121D8A
:10FA900011603A4930310968394A403211603749BA
:10FAA00034310968121D1160344938310968121D5A
:10FAB000116032493C310968121D11602F494031F3
:10FAC0000968121D116002E0117809070ED1007853
:10FAD000C0F30310032803D0042801D0052805D162
:10FAE000D6F85802274900F04F00086021487438C2
:10FAF000016841F470010160BFF34F8FBFF36F8F56
:10FB00004FF01021D1F80002002803DBD1F80402E5
:10FB1000002822DA1C4A15601C480468002CFCD01E
:10FB20001524C1F800420568002DFCD0C1F804423C
:10FB300001680029FCD0136001680029FCD0BFF3E4
:10FB40004F8F0C48F0380168114A01F4E06111430D
:10FB50000160BFF34F8F00BFFDE70F490D480860FC
:10FB6000F0BD0000E00F00F00DF0ADBA00C007409E
:10FB70003C050040FCED00E010560040040400107D
:10FB800020C50040E40E004004E5014000E40140CF
:10FB90000400FA050090D003542200200448017F9D
:10FBA00004480029024901D006F0B1BF06F020BF89
:10FBB000542900200020004010B5124C0220206182
:10FBC000606111A0A061A4F58260E0614FF48060E3
:10FBD00020620020A06260620BA1A164E062A4F137
:10FBE0001001E16410212165A0656065E06509A14F
:10FBF000E01DFFF759FC08A12046FFF755FC202027
:10FC0000A07110BD4C3500205465726D696E616C39
:10FC1000000000005254540053454747455200002D
:10FC20000269C1688A4203D88068401A104400E023
:10FC3000501A401E70472DE9F047C46817468946A0
:10FC400006464FF000083069A04201D9051B02E0CA
:10FC5000B168201A0D1AB0686D1E001BA84200D8AA
:10FC60000546BD4200D33D4670682A4620444946B9
:10FC7000FFF7E2FBB0687F1B2C44A844A944A042D4
:10FC800000D10024F460002FDDD14046BDE8F087AC
:10FC90002DE9F041C6680446174688468068851BF2
:10FCA0006068BD4206D93044FFF7C6FBF019E0603A
:10FCB000BDE8F0812A463044FFF7BEFB7E1B08EB0F
:10FCC000050132466068FFF7B7FBE660F0E7000029
:10FCD0000FB4084B10B504A902AA039800F02EF83F
:10FCE000044602A9002000F05AFA204610BC5DF834
:10FCF00014FB00009F01020002E008C8121F08C1A7
:10FD0000002AFAD170477047002001E001C1121F9C
:10FD1000002AFBD1704700000121202803DA81402E
:10FD20000548014003E0402802DA2038814009B14B
:10FD30000120704700207047FC06FFBC2DE9FF4FF3
:10FD40008DB00F460546002606E025280BD0DDE9DC
:10FD50000F1290476D1C761C28780028F5D111B041
:10FD60003046BDE8F08F0024A246A1460122EC49AE
:10FD700000E0044315F8013F203B02FA03F008427B
:10FD8000F7D128782A2810D06FF02F022878A0F118
:10FD90003001092914D80AEB8A0102EB410144F031
:10FDA000020400EB010A6D1CF0E701CF5FEA000AD4
:10FDB00003D544F40054CAF1000A44F002046D1C57
:10FDC00028782E2817D115F8010F44F004042A28AA
:10FDD0000ED06FF02F022878A0F1300109290AD83F
:10FDE00009EB890102EB410100EB01096D1CF2E70F
:10FDF00057F8049B6D1C28786C280FD006DC4C2823
:10FE000017D068280DD06A2814D104E0742810D0C7
:10FE10007A280FD10DE044F400140AE044F4801471
:10FE200001E044F440146978814202D104F5801461
:10FE30006D1C6D1C2A786E2A1FD00CDC632A31D011
:10FE400004DC002A8BD0582A11D1A3E0642A68D0A0
:10FE5000692A0CD165E0732A2ED004DC6F2A73D096
:10FE6000702A04D19BE0752A6FD0782A6ED0104694
:10FE7000DDE90F129047761C50E1C4F302500228CE
:10FE800006D0032809D0042801CF09D0066045E137
:10FE900001CFF117C0E9006140E101CF06803DE1EB
:10FEA00006703BE117F8040B8DF8000000208DF878
:10FEB0000100EB46012003E057F804BB4FF0FF3090
:10FEC00061074FF0000102D40DE008F101018846FE
:10FED00049450FDA8045F8DB1BF808100029F4D1FA
:10FEE00008E008F1010188468142FADB1BF808109E
:10FEF0000029F6D1DDE90F23AAEB0800814621464F
:10FF000000F036F9304400EB080604E0DDE90F129A
:10FF10001BF8010B9047B8F10108F7D2214648467B
:10FF2000F7E00A21C4F302534FF0000B0891022BB3
:10FF300004D001CFC117032B09D00AE0FF1D27F021
:10FF40000707F7E8020108E032E01FE020E000B216
:10FF5000C117042B01D140B2C117031E71F1000378
:10FF600007DA4FF0000CD0EB0C006CEB01012D23F5
:10FF700002E0230504D52B238DF82430012303E070
:10FF8000E30701D02023F7E7984658E00A2110E064
:10FF900010210EE010204FF0000B08900CE0102113
:10FFA0004FF0000B44F004044FF00809089103E0FF
:10FFB00008214FF0000B0891C4F30253022B04D028
:10FFC00001CF0021032B06D006E0FF1D27F0070715
:10FFD000F7E8020103E080B2042B00D1C0B24FF079
:10FFE000000823072BD5702A07D0DDF820C08CF03D
:10FFF000100C5CEA0B0C05D00EE040238DF8243089
:020000040002F8
:10000000012308E050EA010306D030238DF82430A4
:100010008DF8252002239846DDF820C08CF0080CCE
:100020005CEA0B0C0BD150EA010301D1630706D542
:1000300030238DF824304FF00108A9F10109582A26
:1000400004D038A20B9208AA0A920BE03AA2F9E770
:100050005B46089AFFF731FA0B9B9B5C0A9A521E8B
:100060000A92137050EA0102F2D10A98ADEB000037
:1000700000F1200B600702D524F4803401E04FF03A
:100080000109D94502DDA9EB0B0000E0002000EBDF
:100090000B0141440890AAEB010AE00306D4DDE914
:1000A0000F232146504600F063F806444FF0000944
:1000B00008E009A911F80900DDE90F12904709F1DC
:1000C0000109761CC145F4DBE0030CD5DDE90F2303
:1000D0002146504600F04CF8064404E0DDE90F12DA
:1000E00030209047761C0899481E08900029F5DCBE
:1000F00008E00A980A990078491C0A91DDE90F1274
:100100009047761CBBF10001ABF1010BF1DC2146FD
:100110005046DDE90F2300F019F806446D1C1BE67C
:1001200009280100303132333435363738396162CD
:100130006364656600000000303132333435363791
:100140003839414243444546000000002DE9F04162
:10015000044600251E461746880404D405E03946A7
:100160002020B0476D1C641EF9D52846BDE8F081FB
:100170002DE9F041044600251E469046C80301D5EE
:10018000302700E02027880404D505E041463846A2
:10019000B0476D1C641EF9D52846BDE8F0810A6899
:1001A000531C0B601070704710B560B159B10278E4
:1001B0000B785208B2EB530F05D10622401C491CA4
:1001C000FFF765F908B1002010BD012010BD2DE931
:1001D000FC47002517880646158090F82D00144628
:1001E000894630B13A462146484600F043FE0500B4
:1001F00009D1B0784FF00C0A18B32088C846001D0A
:10020000B84202D95046BDE8FC87684679DF00282D
:10021000F9D12088032108F8001020881921401CFA
:1002200080B2208008F800102088401C80B2208016
:1002300000EB0801BDF8000006F0E1FC218808444D
:100240002080F0780222C8B1218896F9033001F1AC
:10025000030C4846BC45D5D8425421884FF0010CC8
:10026000491C89B2218000F801C02188491C89B24B
:10027000218009F801302088401C20807068B8B1C6
:10028000218890F9003001F1030C4846BC45B9D8EB
:10029000425421880A22491C89B221804254218873
:1002A000491C89B2218009F801302088401C208037
:1002B000308950B1CDE900474B460622022106F1B4
:1002C000080006F0F5FC05009DD1308A50B1CDE95B
:1002D00000474B460722032106F1100006F0E8FC18
:1002E000050090D1308B50B1CDE900474B46152227
:1002F000142106F1180006F0DBFC050083D1306AFA
:1003000030B13B462246494601F0FEF90500DBD1FB
:10031000706A30B13B462246494603F06FF805004B
:10032000D2D196F82C0038B13B4622464946304699
:1003300005F09AFE0500C7D1307838B13B46224619
:100340004946304603F08CF80500BDD128465AE7EF
:10035000134A0021535C0BB1012203E0491C06291A
:10036000F8D300220F49012806D0022809D003281B
:100370000CD0042812D10DE0487810B10AB1012048
:100380007047887810B10AB102207047C87808B168
:1003900003207047087908B1042070470020704797
:1003A0007D2100200C24002010B501220221002014
:1003B00000F0D4FE08B1072810D107220221012045
:1003C00000F0CCFE08B1072808D100210A22084617
:1003D00000F0C4FE08B1072800D1002010BD70B5A0
:1003E0008CB015460E4600236C46C3F10F01415CEC
:1003F000E1545B1C102BF8D30D2104F11000FFF722
:1004000034F80020C0F10F02315C2244401C11740A
:100410000328F7D3684643DF0020C0F10F012144D1
:1004200091F820102954401C0328F6D30CB070BD5D
:10043000064800684FF40021044A8143121D1160F0
:10044000111D00F4002008607047000004050050F2
:1004500070B50024064D06E06868012110F83400EC
:1004600003F04AF9641C28788442F5D3002070BD5B
:10047000E0210020F8B515460C460646052A01D2B3
:100480000720F8BD03F01EFA18B903F0EDF90028B3
:10049000F7D1104900204E600C70C1E902500E4D9A
:1004A00008610DE006EBC4006968009181788DF861
:1004B00001100078094A694603F070F90028E0D17C
:1004C000641EE4B2EED2BDE8F840054A00210248BD
:1004D00000F03CB8E021002088710200792502007C
:1004E0008D1802000BA1012003F042FD03F09AFCDD
:1004F00003F09CFC0028FBD100BEBFF34F8F0B48DC
:1005000001680B4A01F4E06111430160BFF34F8FB2
:1005100000BFFDE74150505F4552524F523A45529D
:10052000524F523A466174616C0D0A000CED00E0C6
:100530000400FA050EB500210091CDE901106A46CC
:1005400044F20100FFF7CEFF0EBD0000074B5B68D1
:1005500023B12AB120B10068037C1BB10820704789
:100560000720704741744261002070470422002038
:100570002DE9F047074698461446894690074FF004
:10058000000526D12CB305F0BFFA134E06F110007A
:10059000C6F80C800570457080F802904460756064
:1005A000357075701420FFF7BBF806211420FFF793
:1005B000EEF81420FFF7CAF808480760062111205A
:1005C000FFF7E5F80548001F0068B0600020BDE8AF
:1005D000F0870720FBE70000F42100200815014008
:1005E0002DE9FC47DFF87890D9F8043073B368B38D
:1005F000052902D20720BDE8FC87436933B3437C59
:10060000012B25D0002704460025884616468DF884
:100610000050684600F038F801A806F031FBC8B178
:10062000012101700F4944600968C0E90218C0E95E
:1006300004769DF8040089F801009DF8000000F0A0
:1006400047F81420FFF798F82846D4E70820D2E7A7
:100650000F46D8E704259DF8000000F039F8F3E7CD
:1006600004220020041501400649496839B130B11F
:10067000416921B100210174022106F015B9082059
:10068000704700000422002030B5EFF3108172B6ED
:100690000D4A9468012324B10370002900D162B689
:1006A00030BD93604FF0E023D3F88051074C2540D4
:1006B0001560C3F88041D3F8844154605A17C3F8D9
:1006C000842100220270E8E794290020FC06FFBC88
:1006D0000B498A68002A11D000280FD1EFF310804F
:1006E00072B60B684FF0E022C2F800314B68C2F8D6
:1006F000043100228A60002800D162B670470000F1
:10070000942900202DE9F04105460878214F012663
:1007100006FA00F00C463860086803F0FFF9002183
:10072000606803F0F2F928791B4901EB4010A169D8
:10073000007F00282868C0F8241519D0607D217D2D
:100740002A680843C2F86C0518E00021A06803F08D
:10075000DCF9207B86403E60E06803F0DFF9D4E9F5
:1007600002122868C0F80825C0F81015BDE8F0810D
:10077000607D227D29681043C1F86C05D4E9001220
:100780002868C0F80C15C0F81425207D0128DCD09D
:10079000ECE7000008050050542900202DE9F04343
:1007A000044687B0008800F001FB8146208802F0F3
:1007B00057F9214F8046667A208800223978A5684B
:1007C00000F042FBB9F1000F33D06079400711D53A
:1007D0000721404604F03CF8A0B108218DF80C1028
:1007E00021880590ADF80E10ADF8108003A801F037
:1007F0003FF907E02088B97800F012FB10B14046BD
:1008000002F01AF903208DF800002088ADF80200EC
:100810006079C0F380008DF80400A079C0F38000F7
:100820008DF805008DF806508DF80760684601F0D8
:100830001FF907B0BDE8F083C4210020F0B50C46D5
:1008400093B01F210726ADF80010ADF80410002763
:1008500050B1C17849070DD56A4602A9FFF7B7FC28
:10086000002808D102AD02E00025ADF800706CB19F
:10087000E07810B1304613B0F0BD01AA0AA92046B5
:10088000FFF7A5FC0028F6D10AAA02E00022ADF885
:100890000470BDF80400C3B2BDF80000C1B2284620
:1008A00072DFE8E72DE9F0471F46DDF820801346A8
:1008B0008946040042D0EBB3404D01200026287049
:1008C000EE70202219463E48FEF7B6FDC5E90478D1
:1008D0004FF6FF702881AE613948AE83AE7738217C
:1008E0002030FEF7C2FD3648217820300170A17813
:1008F0008170E178C170617841703149D4E9042395
:10090000C1E90C23D4E90223C1E90A23D4E906236F
:10091000C1E90E23616AE1B100F1380100F144023E
:1009200041628A60636A1B880B80616A436A8988B6
:10093000998000E002E00021436A07E00E20BDE854
:10094000F087656AAD686D5C5554491C9D888D4281
:10095000F7D8A16AD9B11A4A9032A2F10C018A6083
:100960008162A36A9B888B80A16A836A0988198047
:100970000021836A04E0A56AAD686D5C5554491C8A
:100980009D888D42F7D894F82C1080F82C10216A9D
:1009900049B10A490A310162226A52884A80216AB1
:1009A000026A09881180616801B141604946BDE869
:1009B000F04703482030FFF741BF000064210020CA
:1009C0000C24002010B50188144C102918D01129CE
:1009D0001CD01B2919D1007A002816D1E0780521F6
:1009E000401CB0FBF1F201FB120000BF00F050F818
:1009F00000280AD06169002907D0BDE810400847E7
:100A0000C17B012901D18088208110BD0021617145
:100A1000808821898842F8D10120E7E764210020FD
:100A200010B5022801D0032810D1094C60780028A5
:100A30000CD000206070E07800F02AF8002805D083
:100A40006169002902D0BDE81040084710BD0000D0
:100A50006421002010B574DF0B4C01200B4960713C
:100A60000020E0710620C87000210848FFF7E6FE6C
:100A7000002807D1E07800F00BF810B1616901B1EE
:100A80008847002010BD0000642100202C24002095
:100A90002DE9F0413D4C804686B0207848B184F87D
:100AA000038004A801F0AEFA0498012628B166700C
:100AB00067E0082006B0BDE8F0810025A561344F4D
:100AC000A583A577787810B1E078012806D0B878AA
:100AD00058B1E078012801D0022806D1216919B166
:100AE00026710820884700E025714046FFF730FC5A
:100AF000E070216939B1032801D0042803D1387886
:100B000008B1607990B1A5710095029501950395A2
:100B10008DF800508DF808501C48E17818300529F0
:100B200025D2DFE801F03008111D2100E571A67122
:100B300007208847E8E7A67001908DF80060ADF8BF
:100B40000C50ADF80A5014E00221A17001908DF80C
:100B50000060B889ADF80C003889ADF80A0008E0EB
:100B6000684605F0C5FA02E0684605F0E5FAE07867
:100B700018B1684673DF00289CD1216909B1A078BB
:100B80008847002096E7A570F7E700006421002061
:100B90000C24002070B5054601461C220F48FEF7C4
:100BA0004BFC0F4C00262670286830B1016861604C
:100BB0004068A060201D7ADF02E00948001D7BDF4D
:100BC00000280AD14FF6FF7060806670BDE8704063
:100BD000044A00210448FFF7B9BC70BDBC230020C3
:100BE00050210020096C0200F470020070B51E4C08
:100BF000068800231B49E289102E15D01B4D112EAB
:100C00001CD0122E29D0502E17D130F8061F914239
:100C100013D14189022910D10C3000F070F988B14C
:100C2000BDE8704000F0B6BD84884C800469CC609B
:100C3000406908614B70002AF2D070BD4FF6FF701A
:100C400048804B702868FFF70FFD0028F5D0A16998
:100C50000029F2D0BDE8704008478268CA60C068C9
:100C60000861DDE750210020BC230020F470020061
:100C700002490A7D091D05F011B80000D8230020A3
:100C800002460248C17D001D04F0F5BFD8230020B4
:100C900002460248017E001D04F0EDBFD82300206B
:100CA0002DE9F047044603883F4801228CB000F14B
:100CB000150A102B09D0112B55D01A2B71D1217A7E
:100CC000B2EB111F54D2012353E0027D417D054652
:100CD0008A43011D06A804F0E1FF142206A901A819
:100CE000FEF7AAFBDFF8C0900026374609F1140989
:100CF0000DF104080AE000BF08EB46001D228388BE
:100D00004946281D009704F07BFF761C0198B042ED
:100D1000F2D8287DA688C043C0B204F093FFA0F5A6
:100D20007F41FF3917D005EB400001238680324612
:100D30005146281D04F0D7FF012332464946281D9D
:100D400004F0D1FFE07B02280BD000231649A288D3
:100D50001631281D20E00CB00420BDE8F047FFF755
:100D6000E9BB0123F2E70023A2885146001D13E0EE
:100D700000230D490546A2881731001D04F0B3FF7A
:100D8000207A0221B1EB101F01D2012300E00023E1
:100D90000549A2881831281D0CB0BDE8F04704F0C1
:100DA000A2BF0CB0BDE8F087D823002070B50A4E72
:100DB00005460024317D2A46301D04F05CFF40B119
:100DC000B17D2A46301D04F056FF08B1022400E030
:100DD0000124204670BD0000D823002010B5002457
:100DE000204605F041FF28B1641CE4B2182CF7D36B
:100DF000182010BD03480122A24001681143016080
:100E0000204610BDD823002010B5044605F02CFF65
:100E1000002802D001482044407E10BDD823002085
:100E200070B505460C46084605F01EFF002808D0A0
:100E300004482A460119001D497EBDE8704004F0AF
:100E40001ABF70BDD823002070B5064615460C4663
:100E5000084605F009FF002809D005482B4601196E
:100E60003246BDE87040001D193104F03CBF70BD32
:100E7000D82300207CB5054608880C4609309042EE
:100E800001D90C207CBD68466DDF0028FAD121888D
:100E90000820685420881B21401C80B220802954DF
:100EA0002088401C80B220802844DDF801100160B9
:100EB000BDF8051081802088801D80B220809DF8BB
:100EC0000010490800D0012129542088401C2080AE
:100ED00000207CBD10B50446FFF7E2FE204604F07A
:100EE000A9F92046FFF782FE204600F069F8204667
:100EF00003F0ECF82046BDE81040FFF763BD007832
:100F000000F001007047000000B5164889B00023CA
:100F1000006807905022144907A805F015FC08B195
:100F2000FFF708FB6A460121002005F0F7FB08B136
:100F3000FFF700FB1720ADF81000684605F080FBB6
:100F400008B1FFF7F7FA094805F070FB08B1FFF7A1
:100F5000F1FA074805F030FC002801D0FFF7EAFA63
:100F600009B000BDB4700200E0220020D50E0200DE
:100F7000CD6702007CB5114E0C004FF000053060CB
:100F800015D06946002000F0B1F8002815D101A95C
:100F9000012000F0ABF800280FD19DF8041009B132
:100FA000022003E09DF8001001B10B202070706852
:100FB00010B9FFF7F9F9054628467CBD4821002005
:100FC00010B51A4C0188606810290ED011292BD158
:100FD000401E606028D1FFF7E7F9002824D021687F
:100FE000002921D0BDE810400847D0B900210122D6
:100FF000084600F0B3F808B107280FD107220221F4
:10100000012000F0ABF808B1072807D10422022123
:10101000002000F0A3F820B1072802D0216801B118
:1010200088476068401C606010BD000048210020B7
:1010300010B5032000F024FA08B1062800D10020E2
:1010400010BD00002DE9F04707460024244802E0C7
:10105000641C042C41D250F82420BA42F8D1042C4C
:101060003BD21F48DFF87C901F4E0C38A9F11408C2
:1010700041B301290FD002292FD104EB44003044A1
:101080004578002D29D0D8F81010002925D0284601
:10109000BDE8F047084704EB4401755C0E447178E5
:1010A00061B1D8F804100F4A01EB81014900133AED
:1010B0008068FFF795FA08B988F80170B17809F8E7
:1010C0000410DEE78068FFF7CFFA04EB44013144F7
:1010D00019F804008D78A842D3D0BDE8F08700004D
:1010E000C4700200442100207023002004280CD288
:1010F000074A1268074B13F82030012098409043AC
:1011000000D001200870002070470020FAE700009E
:1011100010050050C470020001460F4810B5008849
:10112000042907D007290ED00A2914D1BDE81040A0
:1011300005F024B8132176DF0BE000280BD0BDE8C2
:101140001040FFF7F7B9A0F57F41FF3903D1FFF752
:1011500081FC0828F1D110BD2821002070B50023A2
:10116000042810D20D4D00EB4004012A02D10129C0
:101170000CD00022094E00EB4000304461B101293F
:1011800006D0022906D00723184670BD0D30C2B222
:101190002A55F9E74270F7E78270F5E770230020DF
:1011A000044A01460020127AD20702D0084600F015
:1011B00055B870473021002070B50E4621490546CC
:1011C00000200A61C1E90165A9071BD5002401229D
:1011D00011462046FFF7C2FF641C042C02D20028EF
:1011E000F5D00FE070B9720804211748FFF742F9F3
:1011F00040B9FFF72DF928B91348144A00211438D3
:10120000FFF7A4F9E9070AD0114A4FF4F011116071
:101210000F4B00221B1D1A600D4A1032116000286E
:101220000FD109480B4A00211C38FFF78FF900281D
:1012300007D1BDE8704004480121074A1838FFF77C
:1012400085B970BD30210020D4700200491502001C
:1012500008050050A92C0200310402002DE9F84FC6
:10126000854EDFF810A24FF4E01CF16807462CEA27
:10127000010C0091002071680AF10404251D7F4BC8
:101280004FF400324FF4802B01EB810E8146182F72
:1012900016D2DFE807F00C17173A4E607083868F7E
:1012A000868FEAA0A0A0A0A0CAD1D8E1EAEA009A5D
:1012B0004FF4F01191432160C5F8009086F800903A
:1012C000BDE8F88FC4F800C04846C5F80090DAF8C9
:1012D00000C08CF4F01C5FEA8C3C09D522602860C9
:1012E000022F02D14FF4E16008E04FF47A6005E08C
:1012F0002A602060022F3CD04FF4C8706422B0FBFB
:10130000F2F04143377000225EE0C4F800C0484666
:10131000C5F80090DAF800C08CF4F01C5FEA8C3C51
:1013200004D5226028604FF44870E7E72A60206007
:101330001FE0C4F800C04846C5F80090DAF800C0C5
:101340008CF4F01C5FEA8C3C02D522602860CCE76C
:101350002A602060D0E7C4F800C04846C5F8009075
:10136000DAF800C08CF4F01C5FEA8C3CDED5226019
:101370002860C820C2E7C4F800C04846C5F80090FD
:10138000DAF800C08CF4F01C5FEA8C3C02D52260D5
:10139000286001E02A602060377014E0C4F800C0C3
:1013A0004DE0DAF800002BEA0002226000F4802011
:1013B000286008E0DAF800002BEA0001216000F460
:1013C00080202860714600221868BDE8F84FFFF7BA
:1013D00007B921602EE098465868FFF745F9D7F124
:1013E000110100D040B1F16801F4F0112160C5F89D
:1013F0000090C6F80C9063E74FF40022F2600129D8
:101400000CD9C82011FB00F16420B1FBF0F1706829
:1014100000224143D8F80400FFF7E2F8F16801F434
:10142000F0112960C4F800904AE74FF4F0112160F0
:10143000C5F80090377043E74FF4E011216049464A
:10144000C5F8009006E04FF4D01121604946C5F878
:1014500000905A462A60BCE74FF4C011216049460B
:10146000C5F800904FF4C022F4E74FF4F011296062
:101470004946AEE70405005030210020B870020054
:1014800070B500210C4D012455F82120920002F185
:10149000A042D2F8006704FA01F3034000D003230E
:1014A00026F4403646EA0343C2F80037491C0429B3
:1014B000EAD3002070BD0000C4700200002901DAE8
:1014C000002070470268114401600120704700004D
:1014D000F8B5461C00208DF8000001256846FFF78E
:1014E000D3F81149741CD1E900208F68101A3B1AF7
:1014F0005B1C9C420FD963B10C480D4B3A4000680D
:101500001B6801EB820263F39F20D0600868401CD7
:101510000860002501E0901908609DF80000FFF7C1
:10152000D7F82846F8BD0000242D0020C471020021
:101530003C220020034803C8814201D101207047AA
:1015400000207047242D002000780221FFF77ABD8B
:1015500005494FF0FF32082841F8202002D3084403
:1015600080F8482070470000FC280020F0B54FF0BC
:10157000FF3512B10023082601E008230C260C4C8D
:1015800005E000BF54F823707F1C04D05B1CB342FD
:10159000F8D32846F0BD26185DB286F8305044F8DE
:1015A0002310002AF5D1E11881F84800F1E7000086
:1015B000FC2800200249084490F9300070470000E0
:1015C000FC28002038B10549814204D804498142F1
:1015D00001D90120704700207047000058220020E8
:1015E00068220020044A0168914201D0083101E0DC
:1015F00001493839016070477C2A002070B50446E3
:101600004FF6FF750A462846AC4208D14FF4807465
:101610002146104603F0CAFDA04209D070BDFF2C40
:10162000FCD82146104603F0B4FD08B1204670BD39
:10163000284670BD70B5084C050009D010342168EB
:10164000002907D008682060496828468847F6E7DF
:101650000834F4E770BD0000E82800202DE9F05FB1
:1016600026484168F1B3DFF898B00E688146DBF890
:10167000004087688078E11B21F07F45ED1CB0B900
:10168000DFF880804FF48030C8F84403C8F80403C2
:101690001120FEF745F81120FEF758F84FF0010A27
:1016A000C8F800A02F2001F07DFF89F802A0B54204
:1016B00000D23546124BE8193C3320F07F401860C9
:1016C000DBF800105A46091B21F07F41001B20F077
:1016D0007F40C91C81420FD9106818602F2001F08B
:1016E00061FF00E004E0BDE8F05F1120FEF744B8C0
:1016F000BDE8F05F04F008BABDE8F09FF4210020D7
:1017000004150140001001402DE9F04117880646FC
:10171000B81D14460D46984202D90C20BDE8F08150
:101720003188072206290AD34FF4486C4FF6FF731D
:10173000614501D9994202D17088062801D210462C
:10174000ECE7604501D99842F9D1994203D098421B
:1017500001D08142F3D80520E85520881221401C91
:1017600080B2208029542088401C80B220804119FA
:10177000308805F044FA2188084480B2208041195D
:10178000708805F03CFA2188084420800020C5E7D5
:10179000FEF7D0BEF8B5134801F068FA114D0026E7
:1017A000114C0C3D30B16169B9B101208DF80000D8
:1017B000684611E0287820B1616971B18DF8006048
:1017C000F6E7687858B1A168084800220068FEF77B
:1017D00007FF10B1A16901B188472E70F8BD61689B
:1017E000F2E700005C210020BC230020F47002001E
:1017F0002DE9FF410C4618B1012004B0BDE8F0818D
:1018000020790027DFF87C80012638B141F61D558C
:1018100001281ED0022829D00F20EEE70297039757
:10182000E0680190694601A804F0A8F868B1029840
:101830008188E18000882081029804F013F9BDF8C6
:10184000002008EB02118E7300E00A2002212171B2
:10185000D3E70D4B6A460021A01D04F04BF838B1C8
:10186000094908398F60CF600A28C6D12846C4E7E5
:10187000019804F0F7F804498A8808EB02118E7386
:10188000F2E700008C2A00201C2200202DE9F04104
:1018900000260125144C22E06068226900EBC6078F
:1018A000387805FA00F1114217D08A43226101F01D
:1018B000D1FF02463878E36805FA00F1194002FAD0
:1018C00000F3994209D17978012901D0012100E082
:1018D000002151407A6802B19047761CF6B2207818
:1018E0008642D9D3BDE8F081E02100200E4910B531
:1018F0000A784C780023A24212D0521CD2B20A704D
:10190000022A00D10B70084A0B78183252F82320B3
:1019100002608868104420F07F408860012010BD7C
:101920000360002010BD0000F42100203EB5094DE9
:1019300038CD8DE83800ADF8041007498DF8062041
:10194000ADF8020000220978FFF77EFA684600F041
:101950008FF83EBD78710200C421002010B50378D5
:101960000022072B06D2DFE803F00504060C1C2535
:101970002B000A7010BD01220A7002898A818288B8
:1019800014E002220A7002898A818288CA81C268B0
:101990008A60007C062802D00020087410BD012057
:1019A000FBE703220A70C2888A810289CA81C06863
:1019B000886010BD04230B70C0888881CA8110BD67
:1019C0000520087010BD000070B5064D06460024C5
:1019D00055F8241009B130468847641C082CF7D309
:1019E00070BD0000AC2900200EB5002911D01129CE
:1019F0000FD0002200920292ADF8020001910D2951
:101A000008D0042908D009208DF80000684600F0AD
:101A10003DF80EBD0B20F7E70A20F5E701490968FC
:101A2000084700008C21002070B5054D06460024B3
:101A3000304655F824108847641C022CF8D370BD3A
:101A4000107102002DE9F04107460024064E074DB3
:101A500005E000BF56F8241038468847641CE87833
:101A60008442F7DBBDE8F0819C280020B4210020EF
:101A700070B5054D06460024304655F824108847B9
:101A8000641C022CF8D370BD407102000149096842
:101A900008470000847102007FB50446406858B1D1
:101AA0000020039020780026384D06285DD2DFE81C
:101AB00000F05C05052641690120F2E7A08900F0ED
:101AC000B3F918B9E08903F0DFFF80B3A089A0F56E
:101AD0004040ADF80200A07B8DF80400207801287A
:101AE000606806D048B104208DF80000606803905B
:101AF0001AE00028F8D00320F6E70120F4E7A089D7
:101B000000F092F918B9E08903F0BEFF78B1A0891E
:101B1000A0F54040ADF80200A07B8DF8040060689D
:101B200030B105208DF80000A06802901AE01CE09A
:101B30000220F7E7A08900F077F9B0B1E089A0B9F9
:101B4000A089FF21A0F5404080B2ADF802008DF8D9
:101B50000410616881B107208DF800006E70AE70CE
:101B600003F034F8684602F009FF6878002802D0D4
:101B70006E7003F02BF87FBD06218DF8001003F086
:101B8000B3F8EBE708208DF80000EBE7A021002078
:101B900000B5114987B00978890702D4022007B03F
:101BA00000BDA0F57F41FF3911D005218DF800104F
:101BB00001218DF80410ADF8060000221146684698
:101BC00002F03CFB28B103F06FFE0020E7E70420A1
:101BD000E5E70820E3E700001422002000B50E48E6
:101BE00087B00078800702D4022007B000BD06202D
:101BF0008DF8000000221146684602F01FFB40B13C
:101C00000648017809B10121017303F04DFE00205F
:101C1000EBE70820E9E7000014220020AC2A0020AE
:101C200000B58DB014216846FDF71FFC1E480078F2
:101C3000810703D56846FFF7C7FE33E0C00731D1FF
:101C4000012000F015F900F085F902F093FB70B166
:101C500006280FD001218DF814100C281BD2DFE8C4
:101C600000F01A101A101A181A181A1216120B204D
:101C70000DB000BD022000F0FBF8012000F0DEF8FE
:101C8000D8E7002000E003208DF8180003E00220D0
:101C9000FAE78DF818100022114605A802F0CEFAD6
:101CA00003F002FE0020E3E71422002038B5040010
:101CB00011D0694603F062FE88B10A48BDF80010F1
:101CC00000EB0110818941B1A27A32B1491E8181B4
:101CD0000020A07238BD052038BD062038BD0A207E
:101CE00038BD00008C2A00201FB501A9684603F00A
:101CF00001FE04B010BD07B513460A466946002030
:101D000003F0F8FD0EBD07B513460A4600216846EC
:101D100003F0F0FD0EBD20B119B10068086000208D
:101D2000704705207047000038B50D46040015D0F7
:101D3000A5B1694603F022FE90B10A49BDF8002022
:101D4000606801EB02129189491C918128606068EA
:101D50000C3068600120A072002038BD052038BD1D
:101D60000A2038BD8C2A002018B10323002205F078
:101D700067B8052070470223002205F061B812B150
:101D8000022305F05DB8052070470000064A51782F
:101D9000082906D0054B43F82100491C517000204A
:101DA00070470C207047000014220020AC2900204E
:101DB00038B504460A480D460078800701D4022051
:101DC00038BD54B16946284605F04AF90028F7D1D4
:101DD000BDF800102180658038BD052038BD0000A9
:101DE0001422002010B504460D480078800701D465
:101DF000022010BD84B1218802290FD8094800EBC8
:101E0000011042896088121A032A07D405F01EF9CE
:101E100000202080608010BD052010BD042010BD72
:101E2000142200208C2A002043F6FE71A0F54040C9
:101E3000884201D8012070470020704702490A7883
:101E400082430A70704700001422002010B5044637
:101E50000078182802D1FEF7C1FF207010BD10B520
:101E600004460078182802D1FEF7B8FF207010BD94
:101E700002490A7802430A707047000014220020C9
:101E800070B51346002206461546042905D01129CF
:101E900001D019B170BD012500E001220D4C73B1D4
:101EA0006179FEF7D1FF2A4621793046FEF7CCFF53
:101EB000002261783046FEF7C7FF002203E0617818
:101EC000FEF7C2FF2A4621783046BDE87040FEF793
:101ED000BBBF0000C8210020F8B506461A481F46BF
:101EE000154600780C46C00708D03046FFF76AFB5D
:101EF00030B13CB1200507D00620F8BD0120F8BD67
:101F00000220F8BD0320F8BD3068A04204D87168F3
:101F100004EB0530884201D90520F8BD7DB1684643
:101F200003F010FC68B100980221C0E9006701725B
:101F3000210B8181058203F0C7FC0020F8BD04203D
:101F4000F8BD0720F8BD00002C220020084603F051
:101F500015BC00002DE9F0472748284C4FF0102110
:101F6000001B0209496910464B1C03D14FF08051F8
:101F700049690903DFF888A09AF80070FB0702D0CE
:101F80000020BDE8F0870023A14607E009EB031419
:101F9000256815B1646804B1401E5B1C9342F5D3FB
:101FA000002422E0002504F0FF0C2B4613E000BFC4
:101FB00009EB0316D6F80080B8F1000F04D0D6F86C
:101FC0000480B8F1000F05D1767BAE4202D93546C8
:101FD00003F0FF0C5B1C9342EAD309EB0C13641C67
:101FE00059601D7BA1EB053119608442DAD347F0BB
:101FF00001018AF80010C3E768220020582200205F
:102000002C22002020B10349496E01600020704756
:1020100003207047BC2A00202DE9F84307461D48DD
:10202000DDF820801E46007815460C46C0070CD00F
:102030003846FFF7C7FA50B15DB154B145EA040024
:10204000800708D00620BDE8F8830120FBE70220C6
:10205000F9E70320F7E73868A04204D8786804EB72
:102060008601884201D20520EDE77EB1684603F083
:1020700069FB68B100980121C0E900780172C0E9EC
:102080000354868203F020FC0020DCE70420DAE71A
:102090000720D8E72C22002070B5174A17490446BC
:1020A000106E0B7800EB400002EBC0009D0715D5C9
:1020B000022C02D0032C1BD102E002F095F817E0AD
:1020C0004A78521CD2B24A70032A11D900224A70AF
:1020D000082103F0DDFE03F01FFB09E0580707D5D8
:1020E00023F004000870526E12B140F00200087034
:1020F000BDE8704003F0A0BBBC2A00202C220020C9
:1021000070B508B1012070BD184C0025207B08B1C6
:10211000257301E000F0A2F82078082824D2DFE837
:1021200000F02304080C1023141EBDE8704000F0DA
:102130001FB8BDE8704000F07FB8BDE8704000F007
:1021400061B8BDE8704000F037B8084960882039B0
:1021500001EB00104068BDE8704002F0EBB865602C
:10216000BDE8704002F0F4B80F2070BDAC2A00202A
:102170001049F0B48A1C00200346A1F120050C1878
:10218000A67A3EB1A37205EB0014A68916B9A47B0A
:10219000012C0AD0401C80B20228F0D30B704B8077
:1021A0004B60F0BC41F61D5070471080F0BC00F051
:1021B00043B80000AC2A002010B50F4CA4F1200158
:1021C000608801EB0010818961B1052020700B4807
:1021D0000221002381800168BDE8104001220848E7
:1021E000FFF77ABE4168002301220548FFF774FE1D
:1021F0000421217010BD0000AC2A00202422002000
:102200005822002038B50A49084803240B68426860
:10221000898803EB8101538804700020DB1C009047
:102220009BB20448FFF7F8FE38BD0000AC2A00203E
:102230002422002058220020074910B54888091D93
:1022400003F0EAFB18B1BDE81040FFF7DBBFBDE8C3
:102250001040FFF7B1BF0000AC2A0020F0B51D48C8
:102260001D490125067802248B88A0F12002082E42
:1022700018D2DFE806F00417171A212C2C16018952
:10228000491C01810021418080F80C1002EB0113F0
:102290001B7843B100234418491C89B2A372022958
:1022A000F4D30570F0BD0123F5E742685288D21CD3
:1022B0001A448A800470F0BD46880D6802EB06124D
:1022C00056680E60556013818C80062100E007215E
:1022D0000170F0BDAC2A002024220020F0B5044695
:1022E0000088384D8DB050281ED0522802D0542876
:1022F00028D103E0A08800F015FF23E006208DF828
:102300001400A08800F0ACFBADF81600A188ADF871
:10231000181000F05DF9A0880022E978FEF794FD1E
:1023200005A8FFF77BFB0DE0207B01280AD1A07AEE
:10233000012807D12089A0F52451023902D1A088B3
:1023400000F02AFFA878FEF75FFDC8B108A8FEF7E5
:102350008FFC142208A96846FDF76EF800246E462B
:102360000BE000BF06EB4407A978B888FEF758FDDC
:1023700010B1B88800F0D6FE641C0098A042F1D8D5
:102380006878FEF741FDC8B108A8FEF771FC142279
:1023900008A96846FDF750F800246E460BE000BF20
:1023A00006EB44076978B888FEF73AFD10B1B888A3
:1023B00000F0F2FE641C0098A042F1D803F0BCFDCE
:1023C0000DB0F0BD842100203EB504464088ADF834
:1023D00002002078A8B101281FD0022810D120794E
:1023E00000280DD0608800F07BFAA0F57F41FF390E
:1023F00006D00F490122C978FEF726FD03F09CFDA7
:102400003EBD00208DF800006846FFF707FB60889E
:1024100000F066FA00F086FE3EBD01208DF8000057
:10242000A088ADF804006846FFF7F8FA3EBD00004A
:102430008421002010B50446007801280FD160885F
:1024400000F070FE608800F089F9002807D0044988
:1024500060880122C978BDE81040FEF7F5BC10BDC8
:102460008421002010B5104C00202070FEF7B6FC2F
:102470006070FEF7B3FCA070FEF7B0FCE070FEF7F2
:10248000ADFC2071617818290BD0A178182908D0EB
:10249000E178182905D0182803D0012020700020E9
:1024A00010BD032010BD0000842100202DE9F04163
:1024B00086B000F0A5F86846FEF7DAFB00246D460A
:1024C0004FF6FF77DFF834800FE000BF05EB4406DE
:1024D000B08800F0C5FAB84205D1B088012298F85A
:1024E0000310FEF7B1FC641CA4B20098A042EDD822
:1024F00003F022FD06B0BDE8F08100008421002039
:102500000178072902D1408800F046BE70470000DC
:1025100010B504460A4841782046FEF781FC68B1B0
:102520000848002101EB410200EB82025288A242DE
:1025300001D1C8B210BD491C0829F3D3FF2010BD3A
:102540009C210020BC24002070B5094D094E0024B8
:1025500004EB440005EB800071784088FEF760FCD6
:1025600020B1641C082CF3D3FF2070BDE0B270BD15
:10257000BC2400209C2100202DE9F041124E07468A
:102580000125BD403068FEF76FF800280DD10F4CD3
:102590002069284207D1384601F05CF90028E0683C
:1025A00005D0284304E0A8432061BDE8F081A8439A
:1025B000E060206928432061A1683068BDE8F041EF
:1025C0000022FEF70DB8000088710200E021002013
:1025D0001CB5054AD2E90212CDE900120022694673
:1025E00002F099F81CBD0000FC70020003484FF691
:1025F000FF7181800121017000207047902100202F
:1026000010B54FF6FF7001F0BDFF03498880BDE8AB
:10261000104003F0BDBC0000902100202DE9FC41DA
:10262000804600F01DFA002403250127A0F57F4114
:102630002646FF3908D06A46082102F047F818B943
:102640000198841D8688056832462B4621464046FF
:10265000A9DF042804D0082804D00B2808D002E001
:10266000112000E00020002F00D10B20BDE8FC81EC
:102670000027A80701D50125E6E73443F5D000245B
:1026800026460325E0E72DE9FC41804600F0E8F905
:102690000746A0F57F40FF380ED001252A466D1C65
:1026A0000026ADB26B460821384602F039F8040026
:1026B00006D0072C24D024E043F20200BDE8FC81C0
:1026C000019903230A1D0B604046891DAADF0400FF
:1026D00004D00C2C08D0052C08D008E0082138467E
:1026E00002F0B6F804460CE0012600E000240821C0
:1026F000384602F099F800B10324002ECED100E054
:102700000C242046DAE700001FB5044600780128B3
:1027100015D12079012812D1608802AA012101F087
:10272000D5FF60B902208DF800006088ADF8020086
:10273000094901208DF80400096868468847064861
:1027400008388088A0F57F41FF3903D0BDE81F40DD
:1027500003F01EBC1FBD0000982100201CB500F036
:102760007FF96A46012101F0B1FF08B100201CBDCC
:10277000019800781CBD00002DE9F041084C074687
:102780004FF6FF7643F20305324661883846A7DFED
:10279000A84203D16088401C6080F5E7BDE8F08165
:1027A000902100208188A1F57F42FF3A03D0008864
:1027B00008B101207047002070473EB5027802231F
:1027C0000C46B3EB520F17D1B0F80110ADF8001062
:1027D000C1788DF802108188ADF8041080798DF8E9
:1027E000060002AA01A92046FDF7F9FD032202A96D
:1027F0006846FCF74CFE08B100203EBD01203EBDFE
:1028000010B50C46FFF784FEFF280CD0074900EBFB
:10281000400001EB8000416821600189A180807A3D
:10282000A071002010BD052010BD0000BC240020B8
:1028300070B5018890B010294FD1011D342268462F
:10284000FCF7FAFD9DF804004FF6FF7603213446AD
:102850006D46B1EB500F2AD002F0F8F89DF8040055
:1028600040080ED001280CD0022820D118E00F9982
:10287000281D1131FDF798FC18B100BFBDF8344098
:1028800015E00EAA0DA9072002F0B8F80028EED135
:102890000DE00F99281D491CFFF78FFF0028EDD18F
:1028A0000EAA0DA9072002F0A9F80028F1D1BDF861
:1028B0000000291D00F022FEB4420ED0BDF8000039
:1028C000214600F07EF8BDF80000ADF8360001208A
:1028D0008DF834000DA8FFF7A7F810B070BD000008
:1028E000094A002101EB410332F82330834205D12C
:1028F00001EB410002EB800040887047491C082929
:10290000F0D34FF6FF707047BC24002010B50D4C7B
:1029100018200D4A607000204FF6FF7100EB400355
:1029200002EB8303401C59800828F7D3FEF756FAC0
:102930006070182803D001202070002010BD0320F3
:1029400010BD00009C210020BC24002070B504466E
:102950000D46401C00F098F900280ED01022691C8A
:10296000601CFCF794FD48B15FF0000605F1110111
:1029700004F11100FDF718FC304370BD0126F5E7A6
:10298000018811B9421892780AB101207047491C98
:102990000829F7D30020704710B50C460346FFF70F
:1029A000EFFF00280AD018882188884205D1082224
:1029B000A11C981CFCF76BFD08B1002010BD012084
:1029C00010BD02F0E5B910B50446007888B00028C3
:1029D00028D12079072825D1608801AA072101F094
:1029E00075FE00281ED102F031F81DE06088BDF8A8
:1029F0000010884218D004990298FFF7A7FF98B1F9
:102A00006088FFF76DFFADF8160000208DF8140008
:102A10006088ADF81800BDF80000ADF81A0005A8F0
:102A2000FFF702F808B010BD03AA6946072001F0BD
:102A3000E5FF0028DAD1F5E770B50446FFF750FF4F
:102A40000546204601F045FE4FF6FF7104468D42D3
:102A500003D014B9284602F09BF9204670BD00004F
:102A600010B5FFF755FDFF2805D0044900EB4000E5
:102A700031F8200010BD4FF6FF7010BDBC240020BF
:102A80003EB5044601F0E2FF0EE0019920464631D2
:102A9000FFF782FF28B9019920462A31FFF77CFF12
:102AA00010B1BDF808003EBD6A4602A9072001F03A
:102AB000A5FF0028E9D14FF6FF703EBD2DE9F0419A
:102AC0000F4628B10120FFF7B9F90120BDE8F081D8
:102AD000397961B10026264D01290DD0254C4FF0E2
:102AE00002080229206822D003293CD128E001F005
:102AF0002FFC0121397134E05FF0000005EB00117B
:102B0000097802290CD0401C80B20228F6D302209A
:102B1000FFF7AEF90120FFF791F941F61D50D5E717
:102B200005EB0014606801F005FC267019E0014611
:102B3000002301221048FFF7CFF9A4F804800FE02A
:102B400001F0F8FB0A4922682031498805EB0111A0
:102B50004B6823604A60A2880A81A4F804800E7042
:102B60003E710028B2D00120FFF768F90E20ADE7D2
:102B70008C2A00202422002058220020F8B51C4C6A
:102B80002078002832D0E068002658B1002560780F
:102B900000282BD1684648DF052805D030B1FDF765
:102BA000C9FC0AE00125F2E7012606E0009800F0E2
:102BB00073FD216909B1009888479DB960780028A4
:102BC00014D16088ADF800006946A06861DF05286F
:102BD00003D020B1FDF7AEFC04E0012502E0D4E90A
:102BE00002018847002ED2D0002DE6D0F8BD0000AB
:102BF0004022002070B50E460446007918494FF473
:102C0000A27501EB4010017F2068A1B14FF48871DB
:102C100001F032FA4FF49071206801F02DFA4FF470
:102C20009271206801F028FA2946206801F024FA00
:102C30000C49206809E04FF48E7101F00CFA294626
:102C4000206801F008FA08492068C0F804132068D9
:102C500000F04EFD3146BDE8704000F02DBD000093
:102C6000542900201003020080000200054940881A
:102C70000A88904204D34988884201D801207047CD
:102C800000207047542100200021425C0AB101203D
:102C90007047491C1029F8D300207047800701D0E5
:102CA00000207047012070470348017AC90702D00D
:102CB0000078FEF7D3BA7047302100202DE9F047A5
:102CC000234D81461F46287A0E469046084302D07F
:102CD00026B1002104E00520BDE8F0871C49103131
:102CE000484603F0A7FB0446014600224846FFF78A
:102CF000C7F81FB121464846FEF776FE0D2C0DD0D1
:102D000005DC5CB1042C17D0082C06D106E0112C90
:102D100006D0A4F54050023800D003242046DBE75B
:102D20003246E9784846FEF78FF84246A978484689
:102D3000FEF78AF80024F1E73246E9784846FEF7C4
:102D400083F84246A9784846FEF77EF8E6E7000099
:102D5000C82100202DE9FC4117460C00064604D08E
:102D60002078C00705D0012004E000217EDFBDE807
:102D7000FC8102208DF804003046FFF771FE054605
:102D8000A0F57F40FF3808D001A800902B463A46B6
:102D90002146304600F021F806E020782146C007A1
:102DA000304603D000F07DF804460BE07EDF0400DF
:102DB0004FF00000009007D0002201232946304642
:102DC00003F02CF814B106E00122F6E79DF8041098
:102DD000304603F04DF82046C9E72DE9F04F85B0A5
:102DE00090468946834600259A462E4601AA072129
:102DF00018460E9F01F06AFC040008D1029D95F868
:102E00004400183510F0010601D0029D343558EA0F
:102E100004004FF000080FD175B126B905F112007A
:102E2000FFF7AEFD40B12A4605F11201584685DF95
:102E3000044687F8008021E00CB1052C1ED199F8DA
:102E40000000C0070DD003AB01220721504601F05E
:102E500067FC04000AD10721504601F05BFD040025
:102E600004D1494658467EDF040007D0072150466A
:102E700001F0DAFC10B1052800D00324CDF8008061
:102E8000387808B1012300E0002344B10022514604
:102E9000584602F0C3FF05B02046BDE8F08F01227E
:102EA000F5E7FEB50F46064601F006FC0546A0F51F
:102EB0007F40FF381ED001AB01220721284601F0D8
:102EC0002FFC04000AD10721284601F023FD04004D
:102ED00004D1394630467EDF040007D0072128465A
:102EE00001F0A2FC10B1052800D0032401200090BD
:102EF0005CB102E003240020009000220123294657
:102F0000304602F08BFF2046FEBD0122F6E70000AE
:102F10002DE9F041134D0F46164680462978FDF7FE
:102F20007FFF00281BD04046FFF79AFD0446A0F51E
:102F30007F40FF3813D069784046FDF771FF38B104
:102F400033463A4621464046BDE8F04101F08EBA8C
:102F5000324639464046BDE8F041FEF7E7BCBDE8E1
:102F6000F0810000C42100202DE9F04385B08146A6
:102F7000FDF74AFF002820D06846FDF779FE0024BF
:102F80006E4617E006EB44054946A888FDF748FF62
:102F900078B10B4FA888B978FDF742FF8046A88822
:102FA000F978FDF73DFF0146A88801234246FFF767
:102FB00085FE641C0098A042E4D805B0BDE8F0830B
:102FC000C82100202DE9F043264CA4F110092278F5
:102FD000D9F8048099F80350404694F801C0D9F814
:102FE000086031E002EB42036168521C01EBC3014F
:102FF000A378D2B2934200D100220B78022B02D0E8
:10300000032B21D11DE003464F68194603E0B94266
:1030100003D00B46C969B9B1F9E7A9B18B4205D113
:10302000C06918B9104E0125B56000260F68C9693E
:10303000D96149B10B683B440B6005E00174C0697C
:1030400000E000210028F9D19445CBD1C9E901065F
:1030500089F80350404502D00120BDE8F0830020EC
:10306000FBE7000004220020001001402DE9F041A0
:103070002A4F0446002607F11005D7F804803EE0E9
:1030800002D02046E4691DE02878696800EB400220
:10309000401CC0B201EBC2012870AA78904200D156
:1030A0002E700A784868012A2BD1027C4ABB8A68B4
:1030B0004260CA6882600A69C26049698161F978C0
:1030C00001B146604368BA68DFF854C0991A21F02C
:1030D0007F41614502D28268114406E0D11A8268BC
:1030E00021F07F418A4202D9511A016000E0066056
:1030F0004660012186600174C66103F0B7FB002CB5
:10310000BED1287869788842BED17968414502D01D
:103110000120BDE8F0810020FBE70000F421002041
:10312000FFFF7F00FEB504460026A0F57F40FF3874
:103130002FD02046FFF772FA050013D00B2D15D0C3
:10314000112D11D0A5F5405002381CD009208DF862
:1031500000002046FFF784FCADF80200ADF8044003
:1031600002950DE0022002E001260CE003208DF81C
:1031700000002046FFF774FCADF80200ADF80440F3
:103180006846FEF74BFC0348324681782046FDF73F
:103190005BFEFEBD84210020FEB504460026FFF73D
:1031A00072FA05460C281AD003DCA5B1042D06D10D
:1031B00029E0112D11D0A5F5405002381CD009206E
:1031C0008DF800002046FFF74BFCADF80200ADF88B
:1031D000044002950DE0012002E001260CE00720EA
:1031E0008DF80000ADF804402046FFF739FCADF83B
:1031F00002006846FEF712FC044832464178204639
:10320000FDF722FEFEBD0820EAE700008421002031
:10321000F8B5054600780C46002620420FD1002064
:103220008DF800006846FDF72FFA2878204202D179
:103230002043287001269DF80000FDF749FA30462A
:10324000F8BD000098B0002000F0EEFE08B1FDF7D8
:1032500071F90023514A05211846FDF789F908B193
:10326000FDF768F94E4A40F6CD410320FDF7A4FF73
:1032700008B1FDF75FF969460020FDF77BFE08B154
:10328000FDF758F99DF8000002287BD05FF000049C
:10329000FDF73AFE204601F089FD1CB141A1032053
:1032A00000F066FE9DF8080045A120F00F00401CCC
:1032B00020F0F00010308DF808000F2202A87CDF0B
:1032C00008B1FDF737F9002400945020ADF8000054
:1032D000A0200194ADF80200ADF804404FF4C8708E
:1032E000ADF8060068467ADF08B1FDF723F938210A
:1032F00001A8FCF7BAF802208DF8040001258DF82A
:10330000065006208DF8070031480690ADF814509D
:1033100020210FA8FCF7A9F84FF496708DF83F50C4
:103320001390B420009414902A4B0FAA002101A8F6
:10333000FDF7B8FA08B1FDF7FDF81C216846FCF767
:1033400094F84FF42030CDE900404FF47020029003
:1033500003208DF80C002048059020480690ADF819
:103360000E408DF810406846FDF714FC08B1FDF7DB
:10337000E1F81BA1032000F0FBFD0320FDF788FB13
:1033800007E0FFE7012483E700F050FD0028FBD1B0
:103390003EDF0028F8D0FDF7CDF8F5E768220020E1
:1033A000191102004150503A494E464F3A426F6E51
:1033B000647320657261736564210D0A000000006A
:1033C0004E6F726469635F54656D706C6174650003
:1033D0002A21002085400200CD4102009117020001
:1033E0004150503A494E464F3A54656D706C617485
:1033F0006520737461727465640D0A0070B51446BB
:1034000082880E4605462088111D0144921C99426F
:1034100001D8FE2A01D90C2070BD521C32542088DC
:10342000FF21401C80B2208031542088401C80B293
:1034300020808119288803F0E2FB2188084480B2AB
:103440002080AA8842B1A96841B13044FBF7F4FF5B
:103450002088A98808442080002070BD072070BD06
:10346000F8B50E46017814460546012901D1687861
:1034700030B12088821C9A422DD8012902D006E062
:103480000720F8BD69780144891C994223D8181A8D
:10349000801E87B2ADF800702188B01C08446946D0
:1034A0007DDF0028EDD12878022805D1BDF8001075
:1034B000B94201D809210AE00821012805D168781C
:1034C000B84202D8ADF8000001E0ADF80070BDF8D8
:1034D0000000FE2801D90C20F8BD2288401CB05401
:1034E0002088401C80B2208031542088401C2080DD
:1034F000BDF80010084420800020F8BD70B50546D6
:103500000C004FF0FF0020D04FF6FF76B5421CD0E4
:103510000E48012241782846FDF796FC2846FEF722
:10352000F7FFFF2803D1FFF70FF8FF280DD0084B56
:1035300000EB400203EB82014D8023F822602268F9
:103540004A60A2880A81A2798A7270BD9C210020FB
:10355000BC24002070B54FF6FF750E46A84201D17D
:10356000002000E0401C84B208E02146304601F013
:1035700038FE08B1204670BD641CA4B2FF2CF4D9FB
:10358000284670BD00F180400068002800D001206E
:10359000704708B500F1804000210160006800908C
:1035A00008BD000000283ED01F49204A096800BF1E
:1035B00000BF00BF00BF00BF00BF00BF00BF9142FF
:1035C0002FD000BF00BF00BF00BF00BF00BF00BFC3
:1035D00000BF00BF00BF00BF00BF00BF00BF00BFF3
:1035E00000BF00BF00BF00BF00BF00BF00BF00BFE3
:1035F00000BF00BF00BF00BF00BF00BF00BF00BFD3
:1036000000BF00BF00BF00BF00BF00BF00BF00BFC2
:1036100000BF00BF00BF00BF00BF00BF00BF00BFB2
:1036200000BF401EC3D17047542200200024F40084
:1036300010B50B4C207808B1852010BD0020A0608B
:1036400060602061E060062100F036F803F0AEF81B
:10365000012108B9034801602170002010BD00005D
:10366000E82800201805004038B500208DF800003B
:103670006846FDF709F8074C207808B9FFF7D8FF2E
:10368000E068401CE0600120A0709DF80000FDF79C
:103690001FF838BDE8280020002801D1FDF7CABF77
:1036A000704700F01F02012191404009800000F1A5
:1036B000E020C0F8801170474907090E002806DA9B
:1036C00000F00F0202F1E02282F8141D03E000F185
:1036D000E02282F8001400F01F020121914040090D
:1036E000800000F1E020C0F88012C0F8001170479F
:1036F000000B40B2704700002DE9F0478846814634
:1037000001F092FB0124224E0028484618D0FDF714
:1037100051FF304490F848008009032802D0012866
:1037200006D007E01B48006804FA09F4204201D1E2
:10373000022100E003214846BDE8F04700F0F8B957
:1037400001F07EFB002820D04846FDF733FF0546F8
:10375000114F4FF4807007EB850100EB8500D1F825
:10376000102580B242F00102C1F8102500F0EEF9F8
:10377000B8F1000F09D04846FDF71CFF56F82000AD
:10378000002802D0AC40C7F80443BDE8F087000031
:10379000FC28002010050050006000402DE9FC418D
:1037A000DFF8A480044608EB0400002790F93000FD
:1037B0001346C0170E46401C01D0082740E0F2789F
:1037C00019462046FDF7D2FE0546401C37D0B0789A
:1037D00048B1A00000F1A040D0F8001721F002018C
:1037E000C0F8001707E000217378204600910A46D0
:1037F000019100F05FF9F078C0B11448317800EB26
:103800008500D0F81025124B1A40C0F810254FF44F
:10381000F8524FF4403302EA042203EA01410A431A
:10382000D0F810150A43C0F8102509E008EB050090
:10383000327810F8481F41EA8211017000E0042735
:103840003846BDE8FC810000FC28002000600040F4
:10385000FFE0FCFF03490968C14011F0010000D0FE
:10386000012070471005005070B5144D95F85400B4
:1038700008B1082070BD0020411E2A18401CC0B2AB
:1038800082F830102028F8D300242046FDF760FE8F
:10389000641CE4B20C2CF8D306210846FFF70CFF99
:1038A0004FF4BE7000F052F905494FF00040C1F8E6
:1038B0000403012085F85400002070BDFC2800207E
:1038C00000600040034890F85400002800D0012018
:1038D00070470000FC2800202DE9F04105460079E2
:1038E000164F904607EB40140E46E07E10B10820BC
:1038F000BDE8F081707F20772846FCF703FF5FEA80
:10390000080060603169216003D0317F2846FFF7ED
:1039100071F9287907EB4010007F0028286801D052
:10392000082100E00421C0F800150020E075207691
:10393000A0750121E176A076DAE700005429002085
:103940002DE9F047054600793E4C0E4604EB401346
:10395000187F38B14FF40050B0EB164F02D0102052
:10396000BDE8F087284600F06FF808B11120F7E7AE
:103970009A7500279E609F8228794FF0010804EB1A
:1039800040143E46207F0028286825D04FF49079C7
:10399000494600F071FB4FF4AC7A5146286800F0BC
:1039A0006BFB2868A17DA268C0F84425C0F84815C3
:1039B0002868C0F808806068F0B94946286800F0B7
:1039C00056FB80465146286800F051FB58EA00013A
:1039D000F3D058BBA7750FE04FF48E7A514600F034
:1039E0003AFB2868C0F808802146286802F0DAFF10
:1039F00061684FF4807089B13046B1E7514628685C
:103A000000F024FB10B9A08A4845F7D1A08A4845A8
:103A100005D02146286802F0C5FF00E08146A08A53
:103A2000A17D8842EAD3A08A484501D10F26D1E77B
:103A30005146286800F00AFB0028F9D02868C0F831
:103A40000C80C7E7542900200079044901EB40109D
:103A5000807D002800D001207047000054290020FC
:103A600070B5044600791149002601EB4015206825
:103A70002A7FC0F80065686888B1207901EB4010A2
:103A8000007F0028206801D0094901E008498C39ED
:103A9000C0F808132068FFF72BFEFFF702FE204650
:103AA00001F0DAF9EE766E6070BD00005429002056
:103AB0001003020030B541EA4201DDE9034541EA65
:103AC0008301800041EA042100F1A04041EA054160
:103AD000C0F8001730BD30B541EA4201DDE90345C9
:103AE00041EA8301800041EA042100F1A04041EA5B
:103AF0000541C0F8001730BD1CB5002100910B46F0
:103B000001220191FFF7E7FF1CBD1CB500220B4607
:103B1000009211460192FFF7DEFF1CBD1CB500218B
:103B200000910B46012201911146FFF7D4FF1CBD05
:103B3000800000F5E06000F1A040026822F440320D
:103B40000260026842EA014101607047034908B51A
:103B50000844002101600068009008BD006000403A
:103B600002494058012800D0002070470060004002
:103B700000487047093C020070B51D4C05468AB0EC
:103B8000207828B16078854202D100200AB070BD4B
:103B900001263302174A18A100200096FBF746FEC3
:103BA00008B10820F2E72022154901A8FBF744FCE0
:103BB00000208DF8180006200190082002900520B2
:103BC0000490072003904FF0EB7007900848001D09
:103BD000FFF746FF0DB1002200E00A4A044801A9A0
:103BE000001DFFF779FE0028D0D126706570CCE764
:103BF00030220020242B00204E6F726D616C00007B
:103C0000A4710200E16902002DE9F04FC1B00D007E
:103C1000DDF82CB14D984FF000011C4690460BEB9F
:103C2000000A409101D00A2600E0002602F056F971
:103C3000002873D16F46BCB9409840AA391828466D
:103C400002F098FE002869D04046FBF719FCC22814
:103C500000D9C220054640982A4638444146FBF721
:103C6000EBFB4098284440904FF02009409882197F
:103C700031320DEB02016844002202E000F8019BA2
:103C8000521CB242FAD30027544508D300F8019BD6
:103C900000F8019B00F8019B01F8019B26E05C45C0
:103CA00002D24A9A125D03E04C9AA4EB0B03D25C59
:103CB00084460125AB0022FA03F808F00F03092B14
:103CC00001D9373300E03033C5F101086D1E0CF81F
:103CD0000830EFD20CF10200A2F1200300F8019BA2
:103CE0005E2B00D92E2201F8012B641C7F1C102FA3
:103CF000CAD30D220A700A224A7080F800904098B8
:103D0000811943316846409102F0EEF830B102F07B
:103D1000E5F818B9002040905445A7D341B020469B
:103D2000BDE8F08F2DE9F043C5B000251C46904654
:103D300089464C9F449502F0D1F8B0BB449804AE3C
:103D4000311844AA484602F015FE00282ED0072F4D
:103D500022D2DFE807F00412192E38445100404601
:103D6000FBF78EFB054644982918FF2914D83044E8
:103D70002A464146FBF760FB0EE044982268304437
:103D80004146FBF7A5FF06E0D4E9002344984146ED
:103D90003044FBF79DFF0546294644A8FDF78EFBFE
:103DA00018B14499B1F5807F33D9002045B0BDE802
:103DB000F083A0680090D4E9002344984146304441
:103DC000FBF786FFE7E7D4E90201CDE90001D4E97A
:103DD0000023449841463044FBF77AFFDBE704F1C7
:103DE000080007C88DE80700D4E90023449841463D
:103DF0003044FBF76DFFCEE704F108000FC88DE8F3
:103E00000F00D4E90023449841463044FBF760FF9B
:103E1000C1E704A802F068F8C8E70000004870474E
:103E2000253D02000120FFF7A7BE00002DE9F04F5D
:103E300087B0FDF77FFB18B1002007B0BDE8F08F19
:103E4000454ED6E9014704EA070006EB8000A1468B
:103E5000641CC5680CE000BFC5F3891000EB9550E9
:103E6000044404EA070006EB8000A146C568641C10
:103E7000A807F1D005F003004FF0000B022805D091
:103E8000AA0A01A8C5F38313002153E004EA07003E
:103E900006EB800004F1010A0AEA0704C268381B35
:103EA00080004FEA9558001DC5F38913804521D93C
:103EB00029490C3138B106EB840400F0FF0CA8EB63
:103EC00000000C3404E00C46002108F0FF0C08460A
:103ED000C0B2CDE90210CDE9004CD6F81444C5F3C8
:103EE000C2005946A047404511D108F103080AEB2A
:103EF00098042AE0002106EB84000C300090CDE904
:103F000001810391C5F3C200D6F81444EAE760F3D7
:103F10008F1509EA070006EB8000C56016E000BFB8
:103F200004EA070C06EB8C0C491CDCF80CC040F8CA
:103F300004CB641C9942F3D3C5F3C2000093D6F8B6
:103F4000105401AB5946A84700B17460FDF7F2FA6E
:103F500080F0010071E70000242D0020034AFF23B8
:103F6000936000231360536000F056B8242D0020A6
:103F70002DE9F047DFF83C800446002689463046AC
:103F8000D8F80870D8F80050FDF7A2FA00280ED033
:103F9000094800213D40406861F3820064F3C50098
:103FA00066F3891008EB850169F39F20C860BDE8BE
:103FB000F0870000242D0020C47102002DE9F04795
:103FC000DFF84C8005460127924689463846D8F8E6
:103FD0000860D8F80040FDF77BFA002815D00D489E
:103FE000002104EA06028068641C61F3820065F324
:103FF000C50067F3891008EB8202344069F39F2003
:1040000008EB8401D060C1F80CA0BDE8F087000087
:10401000242D0020C4710200024A02F5826203C20C
:1040200070470000242D002070B506460020FFF7E1
:10403000A3FD040008D1FFF79BFD0546FFF7EEFE48
:1040400032462946FFF78AFF204670BD40580028B7
:1040500000D00120704708B500224250405800901F
:1040600008BDD0F80403084000D001207047405834
:10407000002800D00120704708B500224250405867
:10408000009008BD10B568B103280FD108A1FFF753
:104090006FFF0220FDF784F8002807D0BDE810402C
:1040A000FCF748BABDE8104002F068B810BD000047
:1040B0004150503A494E464F3A466173742061640C
:1040C000766572746973696E670D0A0010B50446EF
:1040D000008888B03B2827D00DDC02282ED010287D
:1040E00013D011281ED12BA10320FFF741FF002080
:1040F000FDF756F81BE0512824D0552846D0562805
:1041000010D1A088132176DF11E029A10320FFF749
:104110002FFF0720FDF744F808B1FCF70BFA2A49F6
:10412000A088088008B010BDA088132176DF002881
:10413000F8D008B0BDE81040FCF7FCB9A088002119
:1041400067DFF4E71022A11D04A8FBF775F99DF8BD
:1041500010100029E6D09DF81800042803D0062886
:1041600001D00528DED102290ED001208DF80000F3
:104170004FF4C170ADF80400A0886946A8DF00289C
:10418000D0D0FCF7D7F9CDE70220EFE7A0881721C0
:10419000ADDFCCE74150503A494E464F3A4469733F
:1041A000636F6E6E65637465642E0D0A0000000017
:1041B0004150503A494E464F3A436F6E6E656374B4
:1041C00065642E0D0A0000002821002000780028D8
:1041D00007D104483B21008876DF002801D0FCF796
:1041E000A9B9704728210020134A10B50021517049
:1041F000017A012912D002291DD18189491C8181AE
:10420000C189491C89B2C181028A914213D100211E
:1042100001F03EFEBDE8104001F07EBA838AC28AFA
:104220004FF480619C1A8C4200DAA1B2114489B229
:10423000C1829942EBD010BD2C220020F8B51E4D52
:1042400017460E4601466A6F0020032A33D805F14F
:104250007804C6F1080C636C63452CD895F870009F
:10426000104400F00300C0EBC00005EB80001C22EE
:10427000FBF7E2F8686F401C6867DEB194F8440011
:1042800094F840100023084400F0070004EBC0003D
:1042900000900AE007EBC3020098D2E90012C0E9DF
:1042A00000126846FDF79EF95B1CB342F2D3606CC6
:1042B000304460640120F8BDCC2900200389CA1C69
:1042C0001A4402814289511AC91E41817047000077
:1042D0002DE9F04700F58055002700F10804022081
:1042E00090460E460880DFF8489012E02046FEF720
:1042F00059FAD0B1A068D9F80420904201D9C9F880
:1043000004006088318804EB80040844C01C3080BD
:104310000C34AC4202D22068401CE7D1B8F1000F47
:1043200001D088F80070BDE8F0870127E9E70000B8
:104330001422002008B50021009101460223024A00
:104340000248FDF769FE08BD9C710200582200205A
:1043500008B50020009004480223044A016804487C
:10436000FDF75AFE08BD00002422002094710200CF
:10437000582200202DE9F05F0025374FDFF8DC8060
:10438000DFF8DC90DFF8DCB02C46AA462E46386811
:1043900000EB06300268424505D1334A416889186E
:1043A00030D001290DD000214FF4806250F8213027
:1043B0005B1C33D009EB041103200870641CA4B209
:1043C00019E0BAF1000F09D0022209EB0411641CB4
:1043D0000A70DBF800304B600A81A4B200220BF1B6
:1043E0000401CBF80000FFF773FFBBF804000228BC
:1043F00030D008200543761CB6B2032EC7D3E8B2EE
:10440000BDE8F09F09EB0411002201F8042B01C163
:104410008A1DFFF75DFF45F00205CFE7491C914279
:10442000C4D3DBF8002059465AB109EB041102222B
:104430000A7048600A480A8120304480641CA4B293
:1044400005E008600220ABF804004FF0010A45F0D7
:104450000105D0E70420CDE758220020DEC0ADDE04
:104460008C2A00202422002002FEE10E70B5184D97
:104470000E46044623CD86B08DE82300154DADF8D9
:104480000420ADF802408DF80630A9782046FCF7EC
:10449000C7FC18B13046FEF7CFFA0FE007213046CF
:1044A00000F0C2F950B1052808D109218DF80C108F
:1044B0000490ADF80E4003A8FDF7DAFA002229783F
:1044C0002046FCF7C1FC6846FDF7D2FA06B070BD85
:1044D0006C710200C4210020F0B585B00746FCF7DE
:1044E00093FC002814D06846FCF7C2FB00246D46FC
:1044F0000BE000BF05EB44063946B088FCF790FCA2
:1045000010B1B08802F034F8641C0098A042F1D8D1
:1045100005B0F0BD70B5054D06460024304655F88F
:1045200024108847641C052CF8D370BD1C71020050
:104530003EB5104D002400BF04EB840005EB800065
:1045400002F058FC641C082CF6D3012450200821EA
:104550000094CDE901100949C200074B01F5207014
:1045600000F0D1FC08B103203EBD03484470002098
:104570003EBD0000BC270020AC2100202C250020DF
:1045800000F038BA00F038BA2DE9FF4100260446A1
:1045900000960196029603964088ADF802002079B5
:1045A0008DF8040037462179608802F0FAFB217803
:1045B0003F4D0A2947D2DFE801F0050533191935C7
:1045C00037393F4468B1417CC9070AD002F022FC68
:1045D0008DF800702078012800D000208DF80800A8
:1045E0001AE001208DF80000A06823E078B181680E
:1045F000A26891420BD1417CCA0708D06A6821F0B9
:104600000101521C41F004016A6041741BE0022068
:104610008DF80000E06803906846FFF77BFF12E02A
:1046200003200BE0042002E0052007E006208DF8BF
:104630000000E0680290EFE7012607208DF80000F7
:10464000EAE7E06802906868002826D0194C002547
:1046500005EB850704EB8700417C4A0703D4C1F3CF
:10466000400131421FD0817834F8270000F0F0F883
:10467000C8B105EB8501042834F82110ADF802100B
:1046800004EB870189788DF8041008D009218DF892
:10469000001002906846FFF73DFFBDE8FF8108204B
:1046A0008DF80000F6E76D1C082DD1D3F5E700006A
:1046B000AC210020BC27002000F054BA08B51388B4
:1046C0009B0000936B4600F0C9F908BD002300F081
:1046D000C5B938B505460024204609E0817828464A
:1046E00000F0A2F810B1052800D003240098401C67
:1046F00000906946284602F067FB0028EED134B9E5
:10470000284600F033FA10B1072802D003242046CF
:1047100038BD0724FBE71346002200F0D3B90000A0
:104720002DE9F0475FEA030815460E46824604D09D
:10473000072E05D0082E17D102E00E20BDE8F08725
:1047400095B1082D10D8504600F01BFA60B14FF01B
:1047500000093146504602F024FB041E25D0E068D3
:10476000A84213D24F460AE04FF00700E6E7207C4C
:104770003844C1B22B4800F0FAFB7F1CFFB2E0685E
:10478000B842F4D8204602F035FB0EE017D9EFB25C
:1047900007E0207C3844C1B2224800F0E8FB7F1CCF
:1047A000FFB2E068B842F4D84CB95746FF214FF643
:1047B000FF7002F0F6FA041E05D00780A670207C78
:1047C000FF2802D00CE01120B8E72946154800F078
:1047D0006CFB014620462174FF2913D04FF00109DC
:1047E000E560217C0F4800F0AEFB02000DD0ABB2BB
:1047F0003146404600F052FAB9F1000F10D0082EB1
:1048000005D00DE002F0F6FADDE7032096E7B8F8F0
:1048100000006FF0050101EB8000D8F804108880DB
:1048200000208BE7AC27002070B5002402F0B9FA15
:1048300005000BD0686820B100F0BCF9040000D07E
:104840000324284602F0E6FA204670BD052070BD1C
:104850007CB50D460646072903D0082D01D0072058
:104860007CBD0020009001908DF802502946304612
:1048700002F097FA040004D0607CC00703D0002047
:104880007CBD05207CBD217C204800F05CFB020043
:1048900022D029466846E36800F094F9684602F0A1
:1048A0006EFA04F1080369463046626800F00AF9BE
:1048B0000146627C1648530704D5930702D5436826
:1048C0005B1E436051B111290DD0042915D0072971
:1048D00000D0032108467CBD03207CBD22F00600E9
:1048E00040F0010010E04168491C416022F00200E4
:1048F00040F0040060740021ECE743685B1C4360F7
:1049000022F0040040F002006074E3E7AC270020CE
:10491000AC2100207CB50D46072903D0082D01D01D
:1049200007207CBD002602F03CFA040002D060683B
:1049300010B11CE005207CBD217C0F4800F003FB7A
:1049400002004FF00000009001908DF8025010D04E
:1049500029466846E36800F035F9684602F00FFA28
:10496000211D684600F00FF90646092801D030469F
:104970007CBD03207CBD0000AC27002001490968F4
:10498000084700001871020030B587B01748FDF7DE
:10499000FDF910B1032007B030BDFDF741F908B1B2
:1049A0000420F8E700F0CCF9002002904CF2070454
:1049B00003900EE0694604A8FDF7B6F900988088D8
:1049C000A0F5404085B204A8FDF770F9284600F034
:1049D00073F902AA04A92046FDF78DF90028E9D051
:1049E0000349012008700020D5E70000991A020051
:1049F000A021002000F086B900F08AB970B5054604
:104A000086B014460E4600F5404080B20E4A694614
:104A1000FDF771F920B903A96846FDF785F910B1D2
:104A2000002006B070BDA5700398408820800498CF
:104A3000606003988088A0F5404030806846FDF7AC
:104A400035F90120EDE70000A421002002480021F3
:104A50004160816070470000A0210020F0B587B060
:104A60001D46144607460E46FF280AD8084600F0A1
:104A700005F930B103AA3146384600F0E7F840B9ED
:104A800002E0072007B0F0BD01A903A8FDF74CF92B
:104A900008B10520F6E7A67001984088208055B13E
:104AA00082002868904204D802996068FAF7C4FC32
:104AB00003E00420E6E70298606003A8FDF7F6F83B
:104AC0000020DFE77FB588B01E460D460446FF286C
:104AD0002ED8A87800F0D2F850B3686806902888DD
:104AE000ADF81C0004F54040ADF80000A87803AA1A
:104AF00000F54040ADF8020006A801900120ADF895
:104B00000800A978204600F0A1F8052812D00AA8CC
:104B1000FDF768F9694603A8FDF726F9B8B107283B
:104B20001ED008281AD00E2818D003200CB070BD53
:104B30000720FBE70A9828B10AAA694603A8FDF7EF
:104B40001EF9EBE7694603A8FDF715F9E6E71EB184
:104B5000314603A8FDF7DFF80020E7E71120E5E77D
:104B60000420E3E74FF6FF7000F0A6B810B5FF2869
:104B700001D9072010BD00F0A5F800F027F80020AB
:104B800010BD00F0F1B870B504460D46807800F015
:104B900075F858B121882846FDF70AF9002804D095
:104BA000072805D0092800D0032070BD072070BD5C
:104BB000042070BD01B56846FDF714F9002800D047
:104BC000032008BD9BB200F069B80000F0B589B0C1
:104BD00000264FF6FF7704963846059603E02046F8
:104BE00000F082F8204600F08DF80446B84208D064
:104BF00004F5404080B204AA06A9FDF784F80A280B
:104C0000EDD0114DA87800281AD1BC4218D0012748
:104C100004F54040AF7080B2FCF7BAFF082811D00D
:104C200000280DD0AE7009218DF80010CDE902608A
:104C3000FF21ADF802408DF804106846FFF79EFE94
:104C400009B0F0BD6F70FBE7A02100207CB50546E0
:104C500016460C46084600F011F80020009005F5B5
:104C60004045019004F54044A8B2A1B26B463246DB
:104C7000FDF73AF8002800D005207CBD07280BD0AE
:104C8000012809D0082807D0052805D0062803D018
:104C9000042801D0002070470120704710B503EBB5
:104CA00083034FF6FF7404EA03138170DB1C990839
:104CB0004260018010BD00000149FCF79FBC00006C
:104CC0005C28002010B50446A0F57F40FF3807D0CF
:104CD00004492046FCF792FCA04201D1012010BDFE
:104CE000002010BD7C28002010B50446044900F0C7
:104CF00003FF03492046BDE81040203100F0FCBE10
:104D00005C2800200149FEF725BC00007C2800201B
:104D100070B50A49FEF71EFC04464FF6FF7507E022
:104D200000F02CF838B105492046FEF713FC044684
:104D3000AC42F5D170BD204670BD00005C2800205B
:104D400010B508484021FAF790FB4FF480742146D3
:104D5000044800F017FA21460248BDE81040203010
:104D600000F010BA5C280020FF2803D80146024852
:104D700000F037BA002070475C280020FF2803D8D5
:104D80000146024800F02DBA002070477C28002020
:104D900010B50C46FDF7BCFBFF2804D0024900EB20
:104DA000400021F8204010BDBC2400201CB5044662
