:10000000020336908226EBF0A3EAF0A3E9F0A3ED19
:10001000F012157890818E7401F0908229E0FF7EB5
:1000200000788A7C807D01908226E0FBA3E0FAA321
:10003000E0F931367B017A80798A90822E7440F023
:100040007F01A1A87F0802093B222202087D7F6070
:0A005000020F5EEF2411FF020FCE35
:03005B00021FB6CB
:10006300021BF9E709F608DFFA8046E709F208DF21
:10007300FA803E88828C83E709F0A3DFFA8032E3BB
:1000830009F608DFFA8078E309F208DFFA8070885E
:10009300828C83E309F0A3DFFA806489828A83E098
:1000A300A3F608DFFA805889828A83E0A3F208DF87
:1000B300FA804C80D280FA80C680D4806980F28036
:1000C30033801080A680EA809A80A880DA80E2805C
:1000D300CA803389828A83ECFAE493A3C8C582C8B1
:1000E300CCC583CCF0A3C8C582C8CCC583CCDFE91B
:1000F300DEE7800D89828A83E493A3F608DFF9ECB7
:10010300FAA9F0EDFB2289828A83ECFAE0A3C8C541
:1001130082C8CCC583CCF0A3C8C582C8CCC583CC68
:10012300DFEADEE880DB89828A83E493A3F208DFD7
:10013300F980CC88F0EF60010E4E60C388F0ED24A7
:1001430002B4040050B9F582EB2402B4040050AFAA
:1001530023234582239000B673BB010689828A83D9
:10016300E0225002E722BBFE02E32289828A83E473
:100173009322BB010CE58229F582E5833AF583E0FE
:10018300225006E92582F8E622BBFE06E92582F81D
:10019300E222E58229F582E5833AF583E49322BBE3
:1001A300010689828A83F0225002F722BBFE01F303
:1001B30022F8BB010DE58229F582E5833AF583E850
:1001C300F0225006E92582C8F622BBFE05E9258206
:1001D300C8F222C5F0F8A3E028F0C5F0F8E58215CF
:1001E3008270021583E038F022BB011A89828A8368
:1001F300D0F0D0E0F8D0E0F9D0E0FAD0E0FBE8C0EE
:10020300E0C0F002030F5016E9F8D083D082D0E0AB
:10021300F9D0E0FAD0E0FBC082C0830202FDBBFE4E
:1002230016E9F8D083D082D0E0F9D0E0FAD0E0FB31
:10023300C082C08302032122BB010DE58229F5821E
:10024300E5833AF5830203065007E92582F80202A3
:10025300F4BBFE07E92582F8020318E58229F5823B
:10026300E5833AF58302032AD083D082F8E49370BE
:1002730012740193700DA3A393F8740193F582880C
:1002830083E4737402936860EFA3A3A380DF8A837C
:100293008982E473E5092582F582E5083583F583D0
:1002A300B508048582092210AF06858209F5082264
:1002B300858209F508D2AF22E5092582F582E50892
:1002C3003583F58322EF4E6012EF60010EEDBB0123
:1002D3000B89828A83F0A3DFFCDEFA2289F05007C0
:1002E300F709DFFCA9F022BBFEFCF309DFFCA9F050
:1002F30022E6FB08E6FA08E6F922EBF608EAF60836
:10030300E9F622E0FBA3E0FAA3E0F922EBF0A3EA8B
:10031300F0A3E9F022E2FB08E2FA08E2F922EBF2A9
:1003230008EAF208E9F222E493FB740193FA7402F7
:1003330093F922787FE4F6D8FD750A00750888756D
:100343000900750B0075810B0203890204EDE49328
:10035300A3F8E493A34003F68001F208DFF48029B5
:10036300E493A3F85407240CC8C333C4540F4420A4
:10037300C8834004F456800146F6DFE4800B010293
:100383000408102040809003CEE47E019360BCA358
:10039300FF543F30E509541FFEE493A360010ECFE1
:1003A30054C025E060A840B8E493A3FAE493A3F80B
:1003B300E493A3C8C582C8CAC583CAF0A3C8C582CB
:1003C300C8CAC583CADFE9DEE780BE418089004130
:1003D300818E004181CF0041816D0041814A0041FE
:1003E30080050041800600418003004180270041D1
:1003F30080040041816C00418002004181D20041B0
:10040300814B004180481E418001024181D000415F
:1004130080001E4181D10000120100020000002073
:1004230015197B000001010200010600FF0900A16C
:1004330001150025FF750895400900810209009107
:1004430002C0FF045EFF042D180902290001010008
:10045300803209040000020300000009211001009A
:10046300012218000705810340000107050203204C
:1004730000012A034E006F007200640069006300EC
:100483002000530065006D00690063006F006E007B
:1004930064007500630074006F00720048034E002F
:1004A3006F00720064006900630020005300650060
:1004B3006D00690063006F006E00640075006300E7
:1004C30074006F00720020005500530042002000AA
:1004D3005200460020004100640061007000740077
:1004E30065007200FF0475FF049F75E6107594EFB5
:1004F300D292D2AFF14B120E4A121FA5BF04FA904B
:10050300816DE0B401F3908005E064016002A1977E
:10051300A3E0603B7B017A81790A7D401103E4907B
:100523008006F0FE7F40FD7B017A81790A51C8E4A1
:1005330090816DF0908027E060157B017A8179AF1F
:1005430090822A7420F07F02D13AE4908027F090C1
:100553008003E060A47B017A8079497D401103E444
:10056300908003F0FE7F40FD7B017A80794951C87A
:10057300E490816DF0908004E0700281FC7B017A4D
:1005830081798F90822A7420F07F03D13AE490809E
:1005930004F081FC7B017A8079077D401103E490AC
:1005A300816DF081FC90822BEBF0A3EAF0A3E9F0DC
:1005B30090822AEFF0547F75F080A4FFC374009FEC
:1005C300F974C795F0AF01908230F0A3EFF09082F9
:1005D3002AE0547F75F002A424B5F974C735F0AF4F
:1005E30001908232F0A3EFF0E490822FF090822EFC
:1005F300E0FFA3E0FEC39F502B90822BE0FBA3E020
:10060300FAA3E0F98E827583003175FF908230E0A2
:10061300FCA3E02EF582E43CF583EFF090822FE01B
:1006230004F080C990822EE0FF908232E0FCA3E0C8
:10063300F5828C83EFF022EF44A8FF90822AE090AA
:10064300822FF090822CEBF0A3EAF0A3E9F09082E2
:100653002CE0FDC2918FE5C2C0ED7028A3A3E0900A
:100663008231F0908231E0F8E6FEE004F030C0FD24
:10067300908230E5E5F08EE5C2C090822FE014F061
:1006830070E1E13FED6401704290822CA3E0FBA393
:10069300E0908231CBF0A3EBF0908231E0FEA3E057
:1006A300F5828E83E0FE908232E004F07006908241
:1006B30031E004F030C0FD908230E5E5F08EE5C214
:1006C300C090822FE014F070D08071ED64FE702B27
:1006D30090822CA3A3E0908231F0908231E0F8E283
:1006E300FEE004F030C0FD908230E5E5F08EE5C217
:1006F300C090822FE014F070E1804190822CE0F9E9
:10070300A3E0FAA3E0908231C9F0A3EAF0A3E9F0F1
:10071300908231E0FBA3E0FAA3E0F9315CFE908222
:1007230032E475F00131D630C0FD908230E5E5F05A
:100733008EE5C2C090822FE014F070D430C0FD90DB
:100743008230E5E5F0D2912290822A74FFF0A374FF
:1007530000F0A3744AF0A374FFF0A37400F0A37431
:1007630049F0A374FFF0A37415F0A37444F07BFF66
:100773007A11795F7F011217097A15795D7D407FC0
:1007830081F1907BFF7A1179117D407F029082265F
:10079300EBF0A3EAF0A3E9F0AC07EC547FFF14FEFF
:1007A3007401A807088002C333D8FC908229F0ECB7
:1007B30030E759908226E0FBA3E0FAA3E0F9EE7557
:1007C300F003A424D8F582E43481F583EBF0A3EAA3
:1007D300F0A3E9F0908226E0FBA3E0FAA3E04A4B02
:1007E30090C7AC6014E0FF908229E0FEEF4E90C703
:1007F300ACF090C7DEE04EF022E0FF908229E0F4F7
:10080300FEEF5E90C7ACF090C7DE806A908226E070
:10081300FBA3E0FAA3E0F9EE75F003A424E7F58265
:10082300E43481F583EBF0A3EAF0A3E9F0908226A8
:10083300E0FBA3E0FAA3E04A4B90C7AD6027E0FFDB
:10084300908229E0FEEF4E90C7ADF090C7DFE04EF7
:10085300F0EC75F002A424C5F974C735F08982F56C
:100863008374FFF022E0FF908229E0F4FEEF5E90B4
:10087300C7ADF090C7DFE05EF022C0E0C0F0C083F8
:10088300C082C0D075D000C000C001C002C003C088
:1008930004C005C006C00712161DEF24F06014241F
:1008A300D0601E242070769081CFE4F090814A04BA
:1008B300F0806A1216ED9081CFE4F090814AF080C7
:1008C3005CF1F7EF7057712EEF640270237B017AAE
:1008D30081796E12004490816EE0FF6402600D9096
:1008E30080057401F0EF14FD7F0280267F028028CB
:1008F300712EBF03CC7B017A81794C120044908125
:100903004CE0FF6403600F9080057401F0EF14FD69
:100913007F03713C80AB7F0312100080A4D007D00B
:1009230006D005D004D003D002D001D000D0D0D05F
:1009330082D083D0F0D0E03290821BEBF0A3EAF0B8
:10094300A3E9F090821AEFF09082227401F0908272
:100953001BE0908220F0EF14600C24FB600824FE5F
:10096300601824087033F1EE90821EEFF0A3F0C2FA
:100973009190821AE0240AFF801A712E90821AEF56
:10098300F0C39407501312004E90821EEFF0A3F0B1
:10099300C2917F611216F68009E490821FF0908263
:1009A3001EF0908220E0FF704A90821BA3A3E09088
:1009B3008223F0E4F5E5C2C0908222E070119082B8
:1009C30021E0FE908223E0F8A606E004F08005E42F
:1009D300908222F030C0FD908221E5E5F090821EE6
:1009E300E014F070CE908221E0FE908223E0F8A61E
:1009F30006611FEF6401706890821BA3E0FAA3E015
:100A0300FF908223EAF0A3EFF0E4F5E5C2C0908201
:100A130022E07022908221E0FF908223E0FCA3E099
:100A2300F5828C83EFF0908224E004F070069082CC
:100A330023E004F08005E4908222F030C0FD908230
:100A430021E5E5F090821EE014F070BD908221E074
:100A5300FF908223E0FCA3E0F5828C83EFF0611F1B
:100A6300908220E064FE704A90821BA3A3E09082F0
:100A730023F0E4F5E5C2C0908222E0701190822158
:100A8300E0FF908223E0F8EFF2E004F08005E490C9
:100A93008222F030C0FD908221E5E5F090821EE0D5
:100AA30014F070CE908221E0FF908223E0F8EFF201
:100AB300806A90821BE0F9A3E0FAA3E0908223C945
:100AC300F0A3EAF0A3E9F0E4F5E5C2C0908222E0E6
:100AD3007020908221E0FF908223E0FBA3E0FAA341
:100AE300E0F9EF1201A2908224E475F0011201D61D
:100AF3008005E4908222F030C0FD908221E5E5F08C
:100B030090821EE014F070BF908221E0FF90822358
:100B1300E0FBA3E0FAA3E0F9EF1201A2D2919082E5
:100B23001AE0FE90821FE0FDEDFF22121700EF5442
:100B33000EFFE4C313EF13FF2290821AEFF09081AC
:100B43006CE060036D6004AF05F11F90821AE064EE
:100B5300026002815B908002E004F090816FE0FF0D
:100B630090821BF0908002E0FEEF6E6002810AE04B
:100B7300FF14FE908000E0FDEE8DF0A49081D0F094
:100B830090814BE0FEEF6E601A90821F7401F0A318
:100B93007481F0A3746EF09081D0E0908222F0A370
:100BA300ED813D90821F7401F0A37481F0A3746EF4
:100BB300F09081D0E0908222F09081D1E090822366
:100BC300F07B017A81790AB16F7B017A81790A908E
:100BD30081D1E02470F582E43481D102BF01147B1A
:100BE300017A81790AB1D490816D7401F090800605
:100BF300F0805FE4908006F0FE7F40FD7B017A8108
:100C0300790A1202C8804BE4908006F090821BE0C0
:100C1300B401309080027401F0908000E0FEE48E15
:100C2300F0A4FF9081D0F090821F7401F0A374812F
:100C3300F0A3746EF0A3EFF0A3EEF07B017A817959
:100C43000AA1587E007F407D007B017A81790A12D8
:100C530002C8E4908002F02290821AE064036002EA
:100C6300A16E9081D2E004F090814DE0FF90821B51
:100C7300F09081D2E0FEEF6E6002A11EE0FF14FE51
:100C8300908000E0FDEE8DF0A49081D0F090814B38
:100C9300E0FEEF6E602190821F7401F0A37481F077
:100CA300A3744CF09081D0E0908222F0A3EDF07B0E
:100CB300017A807949A15890821F7401F0A374814D
:100CC300F0A3744CF09081D0E0908222F09081D117
:100CD300E0908223F07B017A807949B16F7B017ABE
:100CE3008079499081D1E0244EF582E43481D102A8
:100CF300BF01147B017A807949B1D490816D74016D
:100D0300F0908003F0805FE4908003F0FE7F40FD6D
:100D13007B017A8079491202C8804BE4908003F00A
:100D230090821BE0B401309081D27401F090800076
:100D3300E0FEE48EF0A4FF9081D0F090821F740156
:100D4300F0A37481F0A3744CF0A3EFF0A3EEF07B57
:100D5300017A80794980157E007F407D007B017A8E
:100D63008079491202C8E49081D2F02290821CEB70
:100D7300F0A3EAF0A3E9F0E4908224F0F090822358
:100D8300E0FFA3E0FEC39F5047EEFF908001E02FFA
:100D9300FFE433FE90821FE0FBA3E0FAA3E0F98FA8
:100DA300828E83120175FF908224E0FD908222E0FF
:100DB3002DFDE433FC90821CE0FBA3E0FAA3E0F9F1
:100DC3008D828C83EF1201B4908224E004F080AD15
:100DD3002290821CEBF0A3EAF0A3E9F090816CE08F
:100DE300FFEFC39440501790821CE0FBA3E0FAA3EB
:100DF300E0F98F82758300E41201B40F80E322F5DA
:100E030083E0FD90821CEBF0A3EAF0A3E9F0A3EDED
:100E1300F0E4FFFE90816CE0FDEEC39D50189082DC
:100E23001CE0FBA3E0FAA3E0F98E827583001201B4
:100E3300756FFF0E80DE90821FE0FEB50706EE6041
:100E4300037F01227F0022D2B97F0112158E7FFF1B
:100E5300F1767D017F02D1957D207F021200537DC3
:100E6300017F03D1957D207F031200537F63121608
:100E7300297F0112163E7F021215DC7F011216BF75
:100E83007F0112168F7FFF1216817F011215B5D2D3
:100E93009022908226EFF0A3EDF07F02F15E908224
:100EA30028EFF07F01F15E908229EFF0908226E037
:100EB300FF24FA50062407603C80537401A80708F6
:100EC3008002C333D8FCFD908228E04DF090822746
:100ED300E06008908229E04DF08033908226E0FFA5
:100EE3007401A807088002C333D8FCF4FF90822959
:100EF300E05FF08019908228743FF0908227E060D1
:100F030008908229743FF08005E4908229F0908252
:100F130028F1CA908229E0FD7F01E1CE90816CEF38
:100F2300F0908048E0FEEF8EF08490814BF0EF8EDE
:100F3300F084E5F06003E004F090814BE014FF904F
:100F43008000E0FEEF8EF0A4FF90816CE0C39F90E1
:100F530081D1F022908226EFF0E4FFC2918FE5C2A7
:100F6300C030C0FDAFE5E4F5E5C2C030C0FDAFE57C
:100F7300D29122908226EFF07F02F15E908227EFDA
:100F8300F07F01F15E908228EFF0908226E0FF244B
:100F9300FA50062407601B80207401A8070880020A
:100FA300C333D8FCF4FD908227E05DF0A3E05DF04D
:100FB3008007E4908227F0A3F0908227F1CA908201
:100FC30028E0FD7F018004E0FD7F02C291EF242031
:100FD300F5E5C2C030C0FDAFE5AE058EE5C2C03059
:100FE300C0FD908249E5E5F0D291227F03F15EEFE7
:100FF3002402FF227F17F15EEF5401FF2290821A31
:10100300EFF0E4A3F0FE7F40FD7B017A80790712C5
:1010130002C890821AE0FFB4022BE4A3F090821B73
:10102300E0FE246EF582E43481F583E0FD74072E3F
:10103300F582E43480F583EDF090821BE004F0E068
:10104300B420DA802FEFB4032BE490821BF090825C
:101053001BE0FF244CF582E43481F583E0FE740742
:101063002FF582E43480F583EEF090821BE004F0E8
:10107300E0B420DA90816D7401F022908227EBF0C6
:10108300A3EAF0A3E9F0908226EFF0E4FEEF640216
:1010930070397F20FD7B017A8179AF1202C8E4FEAB
:1010A300908227E0FBA3E0FAA3E0F98E8275830028
:1010B300120175FF74AF2EF582E43481F583EFF0EE
:1010C3000EEEB420DB9080277401F0908226E0645A
:1010D30003703AFE7F20FD7B017A81798F1202C86B
:1010E300E4FE908227E0FBA3E0FAA3E0F98E827589
:1010F3008300120175FF748F2EF582E43481F5832A
:10110300EFF00EEEB420DB9080047401F02290FF28
:10111300FD120297EBF0A3EAF0A3E9F090000312AB
:1011230002BBE0FBA3E0FAA3E0F912015CFF7E003F
:10113300850883850982E0FBA3E0FAA3E0F978CA76
:101143007C807D011201369080CBE0FF7B017A80A9
:1011530079CA117E7FFF90000602029790FFFD126D
:101163000297EBF0A3EAF0A3E9F090FFFF120297D6
:101173007B01850883850982A982AA8390FFFD12DA
:101183000297EBF0A3EAF0A3E9F090000A1202BB86
:10119300E0FBA3E0FAA3E0F990FFFD120297EBF066
:1011A300A3EAF0A3E9F090000A1202BBE0FBA3E07C
:1011B300FAA3E0F990FFFD120297EBF0A3EAF0A384
:1011C300E9F090000A1202BBE0FBA3E0FAA3E0F906
:1011D30031EABF010A850883850982E0FF80027F27
:1011E3000090000A02029790FFFD120297EBF0A312
:1011F300EAF0A3E9F090FFFF1202978508838509BF
:1012030082E4F090000A1202BBE0FBA3E0FAA3E041
:10121300F9E41201A2850883850982A3E0FBA3E018
:10122300FAA3E0F990000112017564066002614DB2
:1012330090000212017524DF700241CC146002A1F8
:10124300368508838509827401F0A3E0FBA3E0FAE5
:10125300A3E0F990000412017575F007A42448F582
:1012630082E5F03404F583E493FB740193FA74028A
:1012730093F9C003C002C0019000041202BBE0FB5B
:10128300A3E0FAA3E0F91201EC850883850982A3A0
:10129300E0FBA3E0FAA3E0F990000412017575F0F6
:1012A30007A4244BF582E5F03404F583E493FF7E31
:1012B30000900005120175FD7C00C3EF9DEE9C506C
:1012C300028076AE04AF0580708508838509827439
:1012D30001F0A3E0FBA3E0FAA3E0F99000041201FC
:1012E3007575F007A42445F582E5F03404F583E42D
:1012F30093FB740193FA740293F9C003C002C00113
:101303009000041202BBE0FBA3E0FAA3E0F9120190
:10131300EC850883850982A3E0FBA3E0FAA3E0F947
:10132300900005120175FF7E00C374099FE49E506F
:10133300087C007D097F0980009000071202BBE052
:10134300FBA3E0FAA3E0F9EF8166850883850982B0
:10135300A3E0FBA3E0FAA3E0F912015C20E502A1FC
:101363003690000112017524FE605A14700261FD6B
:1013730024FA700281DF146066147002817B240AF0
:101383006002A1368508838509827401F0E49082A6
:1013930041F0908240F07B017A827940C003C00221
:1013A300C0019000041202BBE0FBA3E0FAA3E0F942
:1013B3001201EC9000071202BBE0FBA3E0FAA3E0EA
:1013C300F9740381668508838509827401F09000AE
:1013D3000A1202BBE0FBA3E0FAA3E0F9E4A1118542
:1013E30008838509827401F090000A1202BBE0FBB6
:1013F300A3E0FAA3E0F97404A111850883850982A7
:101403007401F0A3E0FBA3E0FAA3E0F99000041257
:101413000175FF74017E00A807088005C333CE332E
:10142300CED8F9FF908248E0FDEF5D7F0060027F38
:1014330001908240EFF07B017A827940C003C002C1
:10144300C0019000041202BBE0FBA3E0FAA3E0F9A1
:101453001201EC9000071202BBE0FBA3E0FAA3E049
:10146300F974011201A290000A1202BBE0FBA3E08F
:10147300FAA3E0F97404A111850883850982740134
:10148300F0A3E0FBA3E0FAA3E0F9900003120175D7
:10149300B4011A908248E0FF900004120175FE74B3
:1014A30001A806088002C333D8FC4F8019908248F4
:1014B300E0FF900004120175FE7401A80608800283
:1014C300C333D8FCF45F908248F090000A1202BB49
:1014D300E0FBA3E0FAA3E0F9740580328508838575
:1014E3000982A3E0FBA3E0FAA3E0F9900002120152
:1014F30075FFB4031E8508838509827401F090008B
:101503000A1202BBE0FBA3E0FAA3E0F9740512019F
:10151300A28020EFB4021C90000A1202BBE0FBA3DE
:10152300E0FAA3E0F974051201A285088385098214
:101533007401F0850883850982E0FF90000D0202A3
:101543009790FFFF120297EFF075D9018508838505
:101553000982E4F090000102029790FFFD120297C6
:10156300EBF0A3EAF0A3E9F0E490818EF07F6090C2
:1015730000060202977F507EC3EF1FAC0670011E68
:101583004C600790818EE070F02222120F579082F8
:1015930027EFF0908226E0B40107A3E04401F08036
:1015A30007908227E054FEF0908227E0FDE4FF02DB
:1015B3000FCE120F57908227EFF0908226E0B401EE
:1015C30007A3E04402F08007908227E054FDF090E7
:1015D3008227E0FDE4FF020FCE120F57908227EF20
:1015E300F0908226E014601014601A240270219097
:1015F3008227E054F7F08018908227E04408F0E057
:1016030054FBF0800B908227E04408F0E04404F0A0
:10161300908227E0FDE4FF020FCE7D707F07120F5B
:10162300CEEF5470FF22E4908226F0EF547FFFE068
:1016330054804FF0E0FD7F05020FCE908226EFF03D
:101643007F06120F5E908227EFF0908226E0600CF7
:1016530024FE7015908227E044208006908227E0C4
:1016630054DFF0E054F7F0800B908227E054DFF072
:10167300E04408F0908227E0FD7F06020FCEEF548E
:101683003F908226F0E0FD7F1C020FCE908226EF72
:10169300F07F1D120F5E908227EFF0908226E07F8D
:1016A3000060027F01EF540125E025E0FF908227CF
:1016B300E054FB4FF0E0FD7F1D020FCE908226EF3A
:1016C300F07F1D120F5E908227EFF0908226E07F5D
:1016D3000060027F01EF540125E0FF908227E05470
:1016E300FD4FF0E0FD7F1D020FCEC2917FE1D1F6E9
:1016F300D291228FE5C2C030C0FDAFE522C2917FF7
:10170300FFD1F6D29122908227EBF0A3EAF0A3E96E
:10171300F09081F674FFF0A37404F0A3741BF090AF
:1017230081F974FFF0A37404F0A3744CF09081FC6E
:1017330074FFF0A37404F0A374E7F09081FF7404C2
:10174300F0A314F0A37409F0A37404F09082067458
:1017530002F0E4908203F0908219F0908204F0A3E7
:10176300F0908227E0F9A3E0FAA3E0908207C9F0A2
:10177300A3EAF0A3E9F090822AE0F9A3E0FAA3E058
:1017830090820AC9F0A3EAF0A3E9F090822DE0F970
:10179300A3E0FAA3E090820DC9F0A3EAF0A3E9F075
:1017A300908230E0F9A3E0FAA3E0908210C9F0A39D
:1017B300EAF0A3E9F0EF601290C7D6E04408F07FA7
:1017C300327E00122059E054F7F0D2BBD2BC90C74E
:1017D300AE741DF090C7AC7401F090C7A9741FF0EC
:1017E30090C7AD7401F090C7AA741FF090C78174BD
:1017F30010F0A37420F0A37430F0A37440F0A3742A
:1018030050F090C78874C0F0A37410F0A37420F054
:10181300A37430F0A37440F0A37450F090C7DE7447
:1018230001F0A3F0E4A3F0A3F022EF547F1425E02A
:10183300FEEF30E70BEE7E0024B6F9EE34C7800BE3
:10184300AF067E0074C62FF9EE34C7AF0190823C19
:10185300F0A3EFF0ED90823CB4010CE0FEA3E0F5C1
:10186300828E837401F022E0FEA3E0F5828E83E48E
:10187300F02290C7E8E0908213F090C7E9E09082ED
:1018830014F090C7EAE0908216F090C7EBE09082E4
:1018930015F090C7ECE0908217F090C7EEE09082CD
:1018A30018F090C7EFE0D39400400690821874FFBD
:1018B300F0908213E05460600221AFA3E0B40B0008
:1018C300400221AD9018CEF82828730218F10218AF
:1018D300F30219AD0218F30219AD0219400218EF11
:1018E3000219AD02194C02196902199E415AC1CF5E
:1018F300908213E024FE60232402703F908216E05E
:10190300B40116908214E0908203B40106E054FD02
:10191300F08068E04402F0806221CD908216E0708E
:1019230018908214E0908217B40106E0FFE4FD8072
:1019330004E0FF7D01112D804221CD21CD9082064F
:101943007403F0E4908204F022908206E024FC60A9
:101953000E047010E490C700F090C7B504F0229015
:101963008204803A8064908216E014601504702922
:101973009082067403F0E4908204F090C7B474027A
:10198300F0229082067404F0908203E04401F0A3F5
:101993007401F090C7B404F022802F908205E09088
:1019A300C700F090C7B57401F022801E908213E047
:1019B300FF5460FEBE2013908218E0600BEF20E717
:1019C3000790C7C574FFF022800790C7B47411F065
:1019D300227B017A82793F90FFFD120297EBF0A3FD
:1019E300EAF0A3E9F07B017A82793C90FFFD1202D1
:1019F30097EBF0A3EAF0A3E9F07B017A827913C0B5
:101A030002908207A3E0FAA3E0F5828A83D0021250
:101A13000295EF14602C14603014603A24FE6022A7
:101A230004702D90823CE0FBA3E0FAA3E0F9A3E06D
:101A3300FF908218E0FEC39FAD075002AD06714BC5
:101A4300616F90C7B47402F02290C7C574FFF0228F
:101A530090C7B47411F022908215E024FE602A141A
:101A6300604224FA40026142240860026149908185
:101A7300F6E0FBA3E0FAA3E0F9908218E0FFC39439
:101A8300127D125002AD07613E9081F9E0FBA3E0A5
:101A9300FAA3E0F9908218E0FFC394297D2950024C
:101AA300AD07613E908216E0FC70167B017A817966
:101AB300FF908218E0FFC394047D045002AD0780B9
:101AC3007AEC14C3940250779081FCE0FBA3E0FA14
:101AD300A3E0F9908216E0FF75F003A424FDF582DC
:101AE300E5F034FFF58312023BC003C002C001904E
:101AF30081FCE0FBA3E0FAA3E0F9EF14FF75F00328
:101B0300A4F58285F08312023B12015CFE908218D9
:101B1300E0FDC39E5002801D9081FCE0FBA3E0FA30
:101B2300A3E0F975F003EFA4F58285F08312023B7D
:101B330012015CFFFDD001D002D003714B802D90C8
:101B4300C7B47411F02221D49081D3EBF0A3EAF04F
:101B5300A3E9F0A3EDF09081F6E0FBA3E0FAA3E0A4
:101B6300F99000071201759081D7F0229081D6E099
:101B7300FD7021908219E0B4010890C7B4E04410CD
:101B8300F0229082197401F0E490C7B5F090C7B4C5
:101B93007402F0229081D7E0FFEDC39F500790813C
:101BA300D6E0FF8000E4FEEEC39F50239081D3E094
:101BB300FBA3E0FAA3E0F98E82758300120175FDA1
:101BC30074002EF582E434C7F583EDF00E80D890CF
:101BD30081D7E0FEEFC39E50069082197401F09006
:101BE300C7B5EFF0FD9081D4E48DF01201D690815A
:101BF300D6E0C39FF022C0E0C0F0C083C082C0D053
:101C030075D000C000C001C002C003C004C005C03D
:101C130006C00790C7A8E012026B1C54001C5E04A8
:101C23001C66081C7F0C1C89101C93181C9D1C1C13
:101C3300AC201D53241CAC281D532C1CAC301D534D
:101C4300341CAC381D533C1CAC401D534400001ED7
:101C53001990C7AB7401F01175C11990C7AB740229
:101C6300F0C11990C7AB7404F09081D3E4F0A3F0F2
:101C7300A3F0A3F0A3F0908219F0C11990C7AB743D
:101C830008F0D191C11990C7AB7410F0D134C119C8
:101C930090C7A97401F0716FC11990C7AA7401F0BC
:101CA3009081D6E4F031D4C11990C7A8E024E81399
:101CB3001313541F908234F0E0FF7401A8070880C7
:101CC30002C333D8FC90C7A9F0EF547F75F002A488
:101CD30024B4F974C735F0AF01908236F0A3EFF066
:101CE300908234E0547F75F080A4FFC374009FF9A1
:101CF30074C795F0AF01908238F0A3EFF09082346F
:101D0300E0547F75F002A424B5F974C735F0AF0130
:101D130090823AF0A3EFF090823AE0FEA3E0AA06A5
:101D2300F97B0190FFFD120297EBF0A3EAF0A3E920
:101D3300F0908238E0FEA3E0AA06F97B01C002908E
:101D43008234E075F003A424D5F582E43481A1F450
:101D530090C7A8E024E4131313541F908234F0E0D7
:101D6300FF7401A807088002C333D8FC90C7AAF008
:101D7300EF547F75F002A424C4F974C735F0AF01A2
:101D8300908236F0A3EFF0908234E075F080A4FFE8
:101D9300C374C09FF974C695F0AF01908238F0A365
:101DA300EFF0908234E075F002A424C5F974C735CE
:101DB300F0AF0190823AF0A3EFF090823AE0FEA3F5
:101DC300E0AA06F97B0190FFFD120297EBF0A3EA6C
:101DD300F0A3E9F0908238E0FEA3E0AA06F97B01C4
:101DE300C002908234E075F003A424E4F582E43465
:101DF30081F583A3E0FAA3E0F5828A83D00212027D
:101E030095908235EFF0A3E0FCA3E0FD90823AE0E9
:101E1300FAA3E0FBD160D007D006D005D004D003ED
:101E2300D002D001D000D0D0D082D083D0F0D0E087
:101E3300329082067402F0E4908204F0A3F0908260
:101E430003F090820AE0FBA3E0FAA3E04A4B600CA4
:101E530090820AA3E0FAA3E0F912029122A9078B68
:101E6300828A83E9B4FF0474FFF022E930E7088D26
:101E7300828C837401F022E95460FFBF60088D8275
:101E83008C837402F022E97002F022E9F022E4FD6F
:101E9300908203E054FBF0908206E0B40408908241
:101EA30003E030E1010D9082067405F0908210E0AA
:101EB300FBA3E0FAA3E04A4B6011AF05908210A3A5
:101EC300E0FAA3E0F5828A8312029522908206E06B
:101ED30064037026908217E06002E19E9081F9E02E
:101EE300FBA3E0FAA3E0F99000071201755440C484
:101EF3001313540390C701F0E191908206E0640448
:101F03006002E19E90C701F0908213E0247F603F5E
:101F130014603F24026002E19C908203E030E108F8
:101F230090C7007402F08005E490C700F090C700EA
:101F3300E0FF9081F9E0FBA3E0FAA3E0F99000074A
:101F43001201755440C413135403FEEF4E803FE453
:101F5300803C908217E030E70D547F75F002A42493
:101F6300B4F974C7800F908217E0547F75F002A410
:101F730024C4F974C735F0AF0190823CF0A3EFF0AD
:101F830090823CE0FEA3E0F5828E83E0540190C78B
:101F930000F090C7B57402F022800090C7B47411AA
:101FA300F022D310AF01C3C0D0908206E0FFD0D09F
:101FB30092AF22C0E0C0F0C083C082C0D075D00011
:101FC300C000C001C002C003C004C005C006C007F2
:101FD30090C7D6E030E7267480F0908203E030E1CA
:101FE3002390C7D6E04402F00000E054FD4401F022
:101FF3007F077E00122059E054FEF0800790820391
:10200300E04404F0908203E090820630E00574041B
:10201300F080037402F090820DA3E0FAA3E0F912BA
:102023000291D007D006D005D004D003D002D0014E
:10203300D000D0D0D082D083D0F0D0E0327FFA7EEF
:1020430000114A7FFA7E000000000000EF1F7001BC
:102053001E144E70F222AD07AC0611401140ED1D67
:0820630070011C144C70F32203
:00000001FF
