:10000000020336908226EBF0A3EAF0A3E9F0A3ED19
:10001000F0F1AC90818E7401F0908229E0FF7E00B7
:10002000788A7C807D01908226E0FBA3E0FAA3E041
:10003000F931367B017A80798A90822E7440F07F84
:0A00400001A1B97F08020B3E222245
:10004B00E1C2120FEEEF540EFFE4C313EF13FF22C6
:10005B000220257F60020F70021C75E709F608DF8E
:10006B00FA8046E709F208DFFA803E88828C83E744
:10007B0009F0A3DFFA8032E309F608DFFA8078E3B0
:10008B0009F208DFFA807088828C83E309F0A3DF22
:10009B00FA806489828A83E0A3F608DFFA805889A4
:1000AB00828A83E0A3F208DFFA804C80D280FA8048
:1000BB00C680D4806980F28033801080A680EA806D
:1000CB009A80A880DA80E280CA803389828A83ECA6
:1000DB00FAE493A3C8C582C8CCC583CCF0A3C8C52A
:1000EB0082C8CCC583CCDFE9DEE7800D89828A83A9
:1000FB00E493A3F608DFF9ECFAA9F0EDFB22898271
:10010B008A83ECFAE0A3C8C582C8CCC583CCF0A324
:10011B00C8C582C8CCC583CCDFEADEE880DB898228
:10012B008A83E493A3F208DFF980CC88F0EF6001B7
:10013B000E4E60C388F0ED2402B4040050B9F58272
:10014B00EB2402B4040050AF23234582239000B666
:10015B0073BB010689828A83E0225002E722BBFE31
:10016B0002E32289828A83E49322BB010CE5822974
:10017B00F582E5833AF583E0225006E92582F8E61D
:10018B0022BBFE06E92582F8E222E58229F582E50B
:10019B00833AF583E49322BB010689828A83F0229A
:1001AB005002F722BBFE01F322F8BB010DE58229B9
:1001BB00F582E5833AF583E8F0225006E92582C8FB
:1001CB00F622BBFE05E92582C8F222C5F0F8A3E0B2
:1001DB0028F0C5F0F8E582158270021583E038F03F
:1001EB0022BB011A89828A83D0F0D0E0F8D0E0F9E3
:1001FB00D0E0FAD0E0FBE8C0E0C0F002030F5016ED
:10020B00E9F8D083D082D0E0F9D0E0FAD0E0FBC09F
:10021B0082C0830202FDBBFE16E9F8D083D082D0E8
:10022B00E0F9D0E0FAD0E0FBC082C08302032122C8
:10023B00BB010DE58229F582E5833AF583020306BE
:10024B005007E92582F80202F4BBFE07E92582F884
:10025B00020318E58229F582E5833AF58302032A26
:10026B00D083D082F8E4937012740193700DA3A322
:10027B0093F8740193F5828883E473740293686036
:10028B00EFA3A3A380DF8A838982E473E509258228
:10029B00F582E5083583F583B508048582092210BC
:1002AB00AF06858209F50822858209F508D2AF22AF
:1002BB00E5092582F582E5083583F58322EF4E604B
:1002CB0012EF60010EEDBB010B89828A83F0A3DF75
:1002DB00FCDEFA2289F05007F709DFFCA9F022BBFC
:1002EB00FEFCF309DFFCA9F022E6FB08E6FA08E6C0
:1002FB00F922EBF608EAF608E9F622E0FBA3E0FAAE
:10030B00A3E0F922EBF0A3EAF0A3E9F022E2FB0869
:10031B00E2FA08E2F922EBF208EAF208E9F222E447
:10032B0093FB740193FA740293F922787FE4F6D865
:10033B00FD750A00750888750900750B0075810B32
:10034B000203890204EDE493A3F8E493A34003F6BC
:10035B008001F208DFF48029E493A3F85407240CFE
:10036B00C8C333C4540F4420C8834004F4568001DF
:10037B0046F6DFE4800B0102040810204080900356
:10038B00CEE47E019360BCA3FF543F30E509541FBC
:10039B00FEE493A360010ECF54C025E060A840B8E3
:1003AB00E493A3FAE493A3F8E493A3C8C582C8CA61
:1003BB00C583CAF0A3C8C582C8CAC583CADFE9DE34
:1003CB00E780BE4180890041818E004181CF004191
:1003DB00816D0041814A004180050041800600414A
:1003EB00800300418027004180040041816C004163
:1003FB008002004181D20041814B004180481E4167
:10040B008001024181D0004180001E4181D100005A
:10041B00120100020000002015197B0000010102EF
:10042B0000010600FF0900A101150025FF750895C5
:10043B00400900810209009102C0FF045EFF042DF8
:10044B00180902290001010080320904000002038F
:10045B00000000092110010001221800070581038B
:10046B00400001070502032000012A034E006F0024
:10047B0072006400690063002000530065006D008A
:10048B00690063006F006E00640075006300740008
:10049B006F00720048034E006F0072006400690029
:1004AB0063002000530065006D00690063006F005E
:1004BB006E0064007500630074006F007200200012
:1004CB00550053004200200052004600200041001E
:1004DB00640061007000740065007200FF0475FF1A
:1004EB00049F75E6107594EFD292D2AF120D3112B4
:1004FB000F88F15CEF64046002A1AC90816DE0B4F5
:10050B0001F0908005E064016002A19BA3E0603BD9
:10051B007B017A81790A7D401103E4908006F0FE1D
:10052B007F40FD7B017A81790A51C8E490816DF09F
:10053B00908027E060157B017A8179AF90822A74D5
:10054B0020F07F02D14BE4908027F0908003E06095
:10055B00A17B017A8079497D401103E4908003F0FF
:10056B00FE7F40FD7B017A80794951C8E490816D13
:10057B00F0908004E0700281FD7B017A81798F908D
:10058B00822A7420F07F03D14BE4908004F081FD2C
:10059B007B017A8079077D401103E490816DF081B6
:1005AB00FDF15CEF6405600281FDF16D81FD9082D0
:1005BB002BEBF0A3EAF0A3E9F090822AEFF0547F43
:1005CB0075F080A4FFC374009FF974C795F0AF0159
:1005DB00908230F0A3EFF090822AE0547F75F00206
:1005EB00A424B5F974C735F0AF01908232F0A3EFB4
:1005FB00F0E490822FF090822EE0FFA3E0FEC39FE9
:10060B00502B90822BE0FBA3E0FAA3E0F98E8275CE
:10061B0083003175FF908230E0FCA3E02EF582E47D
:10062B003CF583EFF090822FE004F080C990822E8E
:10063B00E0FF908232E0FCA3E0F5828C83EFF022A6
:10064B00EF44A8FF90822AE090822FF090822CEB4F
:10065B00F0A3EAF0A3E9F090822CE0FDC2918FE5C4
:10066B00C2C0ED7028A3A3E0908231F0908231E0FC
:10067B00F8E6FEE004F030C0FD908230E5E5F08E48
:10068B00E5C2C090822FE014F070E1E150ED6401FF
:10069B00704290822CA3E0FBA3E0908231CBF0A3BD
:1006AB00EBF0908231E0FEA3E0F5828E83E0FE90CA
:1006BB008232E004F07006908231E004F030C0FD2D
:1006CB00908230E5E5F08EE5C2C090822FE014F009
:1006DB0070D08071ED64FE702B90822CA3A3E09000
:1006EB008231F0908231E0F8E2FEE004F030C0FDA0
:1006FB00908230E5E5F08EE5C2C090822FE014F0D9
:10070B0070E1804190822CE0F9A3E0FAA3E09082A3
:10071B0031C9F0A3EAF0A3E9F0908231E0FBA3E04A
:10072B00FAA3E0F9315CFE908232E475F00131D628
:10073B0030C0FD908230E5E5F08EE5C2C090822F8F
:10074B00E014F070D430C0FD908230E5E5F0D2912A
:10075B0022D310AF01C3C0D0908206E0FFD0D0925D
:10076B00AF22908203E030E10C75A0407F017E0048
:10077B00F181E4F5A022AD07AC06F193F193ED1DE9
:10078B0070011C144C70F3227FFA7E00F19D7FFAEE
:10079B007E000000000000EF1F70011E144E70F26F
:1007AB00227F507EC3EF1FAC0670011E4C6007907A
:1007BB00818EE070F02222C0E0C0F0C083C082C006
:1007CB00D075D000C000C001C002C003C004C0057A
:1007DB00C006C007121655EF24F0601824D0602213
:1007EB00242060030208939081CFE4F090814A04A7
:1007FB00F0020893120FDB9081CFE4F090814AF066
:10080B000193F160EF704712004DBF021C7B017A20
:10081B0081796E12004390816EE0640260069080D5
:10082B00057401F0908006802012004DBF03D37B2E
:10083B00017A81794C12004390814CE0640360068D
:10084B009080057401F09080037401F080B4908067
:10085B0005E07014A3E060047F02D1D9908003E01F
:10086B0060267F03D1D98020908006E0600A9081BA
:10087B006EE014FD7F0211AE908003E0600A908160
:10088B004CE014FD7F0311AED007D006D005D00489
:10089B00D003D002D001D000D0D0D082D083D0F002
:1008AB00D0E03290821AEFF090816CE060036D60C3
:1008BB0004AF05F1F790821AE06402600221C9903F
:1008CB008002E004F090816FE0FF90821BF090803B
:1008DB0002E0FEEF6E60022178E0FF14FE908000D4
:1008EB00E0FDEE8DF0A49081D0F090814BE0FEEF17
:1008FB006E601A90821F7401F0A37481F0A3746E62
:10090B00F09081D0E0908222F0A3ED21AB90821F7A
:10091B007401F0A37481F0A3746EF09081D0E09019
:10092B008222F09081D1E0908223F07B017A817951
:10093B000A51D97B017A81790A9081D1E02470F533
:10094B0082E43481D191BF01107B017A81790AD184
:10095B006390816D7401F0805FE4908006F0FE7F00
:10096B0040FD7B017A81790A1202C8804BE49080AA
:10097B0006F090821BE0B401309080027401F0907D
:10098B008000E0FEE48EF0A4FF9081D0F090821FF7
:10099B007401F0A37481F0A3746EF0A3EFF0A3EED7
:1009AB00F07B017A81790A41C27E007F407D007B1A
:1009BB00017A81790A1202C8E4908002F0229082B7
:1009CB001AE06403600241D89081D2E004F0908178
:1009DB004DE0FF90821BF09081D2E0FEEF6E600243
:1009EB004188E0FF14FE908000E0FDEE8DF0A490B6
:1009FB0081D0F090814BE0FEEF6E602190821F74EE
:100A0B0001F0A37481F0A3744CF09081D0E090823C
:100A1B0022F0A3EDF07B017A80794941C290821FCD
:100A2B007401F0A37481F0A3744CF09081D0E0902A
:100A3B008222F09081D1E0908223F07B017A807941
:100A4B004951D97B017A8079499081D1E0244EF5C7
:100A5B0082E43481D191BF01107B017A807949D135
:100A6B006390816D7401F0805FE4908003F0FE7FF2
:100A7B0040FD7B017A8079491202C8804BE490805B
:100A8B0003F090821BE0B401309081D27401F0909E
:100A9B008000E0FEE48EF0A4FF9081D0F090821FE6
:100AAB007401F0A37481F0A3744CF0A3EFF0A3EEE8
:100ABB00F07B017A80794980157E007F407D007B39
:100ACB00017A8079491202C8E49081D2F022908297
:100ADB001CEBF0A3EAF0A3E9F0E4908224F0F09091
:100AEB008223E0FFA3E0FEC39F5047EEFF908001FF
:100AFB00E02FFFE433FE90821FE0FBA3E0FAA3E0BC
:100B0B00F98F828E83120175FF908224E0FD908213
:100B1B0022E02DFDE433FC90821CE0FBA3E0FAA362
:100B2B00E0F98D828C83EF1201B4908224E004F003
:100B3B0080AD2290821BEBF0A3EAF0A3E9F0908248
:100B4B001AEFF09082227401F090821BE0908220C9
:100B5B00F0EF14600C24FB600824FE60182408706E
:100B6B0033F15790821EEFF0A3F0C29190821AE0FE
:100B7B00240AFF801B12004D90821AEFF0C39407DA
:100B8B00501212005E90821EEFF0A3F0C2917F61B3
:100B9B00F1E48009E490821FF090821EF090822095
:100BAB00E0FF704A90821BA3A3E0908223F0E4F550
:100BBB00E5C2C0908222E07011908221E0FE90820B
:100BCB0023E0F8A606E004F08005E4908222F030E2
:100BDB00C0FD908221E5E5F090821EE014F070CE0E
:100BEB00908221E0FE908223E0F8A606A122EF641A
:100BFB0001706890821BA3E0FAA3E0FF908223EAC6
:100C0B00F0A3EFF0E4F5E5C2C0908222E0702290F1
:100C1B008221E0FF908223E0FCA3E0F5828C83EF3E
:100C2B00F0908224E004F07006908223E004F080C0
:100C3B0005E4908222F030C0FD908221E5E5F09032
:100C4B00821EE014F070BD908221E0FF908223E0C1
:100C5B00FCA3E0F5828C83EFF0A122908220E0646C
:100C6B00FE704A90821BA3A3E0908223F0E4F5E58B
:100C7B00C2C0908222E07011908221E0FF9082230B
:100C8B00E0F8EFF2E004F08005E4908222F030C04F
:100C9B00FD908221E5E5F090821EE014F070CE907D
:100CAB008221E0FF908223E0F8EFF2806A90821BB2
:100CBB00E0F9A3E0FAA3E0908223C9F0A3EAF0A342
:100CCB00E9F0E4F5E5C2C0908222E0702090822129
:100CDB00E0FF908223E0FBA3E0FAA3E0F9EF12011F
:100CEB00A2908224E475F0011201D68005E4908273
:100CFB0022F030C0FD908221E5E5F090821EE014D9
:100D0B00F070BF908221E0FF908223E0FBA3E0FA1A
:100D1B00A3E0F9EF1201A2D29190821AE0FE908229
:100D2B001FE0FDEDFF2290822A74FFF0A37400F008
:100D3B00A37449F0A374FFF0A37400F0A37448F0FC
:100D4B00A374FFF0A37414F0A374F5F07BFF7A1176
:100D5B0079107F011217857A15790E7D407F81B14D
:100D6B00767BFF7A1079C27D407F02908226EBF072
:100D7B00A3EAF0A3E9F0AC07EC547FFF14FE740177
:100D8B00A807088002C333D8FC908229F0EC30E727
:100D9B0059908226E0FBA3E0FAA3E0F9EE75F0038D
:100DAB00A424D8F582E43481F583EBF0A3EAF0A315
:100DBB00E9F0908226E0FBA3E0FAA3E04A4B90C750
:100DCB00AC6014E0FF908229E0FEEF4E90C7ACF0D0
:100DDB0090C7DEE04EF022E0FF908229E0F4FEEFB8
:100DEB005E90C7ACF090C7DE806A908226E0FBA3D2
:100DFB00E0FAA3E0F9EE75F003A424E7F582E434FE
:100E0B0081F583EBF0A3EAF0A3E9F0908226E0FBF7
:100E1B00A3E0FAA3E04A4B90C7AD6027E0FF9082B6
:100E2B0029E0FEEF4E90C7ADF090C7DFE04EF0EC3F
:100E3B0075F002A424C5F974C735F08982F5837463
:100E4B00FFF022E0FF908229E0F4FEEF5E90C7AD49
:100E5B00F090C7DFE05EF02290821CEBF0A3EAF08B
:100E6B00A3E9F090816CE0FFEFC3944050179082A0
:100E7B001CE0FBA3E0FAA3E0F98F82758300E41278
:100E8B0001B40F80E322F583E0FD90821CEBF0A30D
:100E9B00EAF0A3E9F0A3EDF0E4FFFE90816CE0FD36
:100EAB00EEC39D501890821CE0FBA3E0FAA3E0F97F
:100EBB008E827583001201756FFF0E80DE90821F8C
:100ECB00E0FEB50706EE60037F01227F00229082D1
:100EDB001AEFF0E4A3F0FE7F40FD7B017A807907E7
:100EEB001202C890821AE0FFB4022BE4A3F09082A6
:100EFB001BE0FE246EF582E43481F583E0FD74077C
:100F0B002EF582E43480F583EDF090821BE004F043
:100F1B00E0B420DA802FEFB4032BE490821BF09027
:100F2B00821BE0FF244CF582E43481F583E0FE74F0
:100F3B00072FF582E43480F583EEF090821BE004FA
:100F4B00F0E0B420DA90816D7401F0227F03F17030
:100F5B00EF2402FF227F17F170EF5401FF229082E2
:100F6B0026EFF0E4FFC2918FE5C2C030C0FDAFE5C4
:100F7B00E4F5E5C2C030C0FDAFE5D29122D2B97F16
:100F8B00011215297FFF1215FF7D017F02121573C8
:100F9B007D207F02F1D47D017F031215737D207FAD
:100FAB0003F1D47F6312166D7F011217437F021278
:100FBB0017037F011216A77F011216D47FFF12169B
:100FCB00607F01121681D29022EF2411FF0215537C
:100FDB00C2917FE1F1E4D291228FE5C2C030C0FD16
:100FEB00AFE522C2917FFFF1E4D2912290816CEFA9
:100FFB00F0908048E0FEEF8EF08490814BF0EF8E06
:10100B00F084E5F06003E004F090814BE014FF9076
:10101B008000E0FEEF8EF0A4FF90816CE0C39F9008
:10102B0081D1F022908227EBF0A3EAF0A3E9F090B4
:10103B008226EFF0E4FEEF640270397F20FD7B0126
:10104B007A8179AF1202C8E4FE908227E0FBA3E01D
:10105B00FAA3E0F98E82758300120175FF74AF2E2F
:10106B00F582E43481F583EFF00EEEB420DB908053
:10107B00277401F0908226E06403703AFE7F20FD16
:10108B007B017A81798F1202C8E4FE908227E0FB04
:10109B00A3E0FAA3E0F98E82758300120175FF7449
:1010AB008F2EF582E43481F583EFF00EEEB420DB66
:1010BB009080047401F02290FFFD120297EBF0A3D5
:1010CB00EAF0A3E9F09000031202BBE0FBA3E0FA05
:1010DB00A3E0F912015CFF7E00850883850982E09D
:1010EB00FBA3E0FAA3E0F978CA7C807D01120136FC
:1010FB009080CBE0FF7B017A8079CA112F7FFF9024
:10110B00000602029790FFFD120297EBF0A3EAF0A4
:10111B00A3E9F090FFFF1202977B018508838509F5
:10112B0082A982AA8390FFFD120297EBF0A3EAF04B
:10113B00A3E9F090000A1202BBE0FBA3E0FAA3E0E4
:10114B00F990FFFD120297EBF0A3EAF0A3E9F09000
:10115B00000A1202BBE0FBA3E0FAA3E0F990FFFD4B
:10116B00120297EBF0A3EAF0A3E9F090000A120247
:10117B00BBE0FBA3E0FAA3E0F9319BBF010A8508B2
:10118B0083850982E0FF80027F0090000A020297AC
:10119B0090FFFD120297EBF0A3EAF0A3E9F090FFAA
:1011AB00FF120297850883850982E4F090000A12EA
:1011BB0002BBE0FBA3E0FAA3E0F9E41201A285086D
:1011CB0083850982A3E0FBA3E0FAA3E0F990000179
:1011DB001201756406600241FE9000021201752433
:1011EB00DF7002417D14600281E7850883850982E7
:1011FB007401F0A3E0FBA3E0FAA3E0F99000041262
:10120B00017575F007A42448F582E5F03404F583E5
:10121B00E493FB740193FA740293F9C003C002C008
:10122B00019000041202BBE0FBA3E0FAA3E0F91269
:10123B0001EC850883850982A3E0FBA3E0FAA3E018
:10124B00F990000412017575F007A4244BF582E5A3
:10125B00F03404F583E493FF7E00900005120175D2
:10126B00FD7C00C3EF9DEE9C50028076AE04AF0573
:10127B0080708508838509827401F0A3E0FBA3E0ED
:10128B00FAA3E0F990000412017575F007A4244548
:10129B00F582E5F03404F583E493FB740193FA745F
:1012AB000293F9C003C002C0019000041202BBE01C
:1012BB00FBA3E0FAA3E0F91201EC85088385098210
:1012CB00A3E0FBA3E0FAA3E0F9900005120175FF80
:1012DB007E00C374099FE49E50087C007D097F0942
:1012EB0080009000071202BBE0FBA3E0FAA3E0F939
:1012FB00EF8117850883850982A3E0FBA3E0FAA39E
:10130B00E0F912015C20E50281E790000112017502
:10131B0024FE605A14700261AE24FA70028190149C
:10132B006066147002812C240A600281E7850883B1
:10133B008509827401F0E4908241F0908240F07B49
:10134B00017A827940C003C002C0019000041202EE
:10135B00BBE0FBA3E0FAA3E0F91201EC900007124B
:10136B0002BBE0FBA3E0FAA3E0F974038117850845
:10137B00838509827401F090000A1202BBE0FBA383
:10138B00E0FAA3E0F9E481C2850883850982740140
:10139B00F090000A1202BBE0FBA3E0FAA3E0F974A1
:1013AB000481C28508838509827401F0A3E0FBA345
:1013BB00E0FAA3E0F9900004120175FF74017E00BE
:1013CB00A807088005C333CE33CED8F9FF908248E7
:1013DB00E0FDEF5D7F0060027F01908240EFF07BCC
:1013EB00017A827940C003C002C00190000412024E
:1013FB00BBE0FBA3E0FAA3E0F91201EC90000712AB
:10140B0002BBE0FBA3E0FAA3E0F974011201A29086
:10141B00000A1202BBE0FBA3E0FAA3E0F97404811B
:10142B00C28508838509827401F0A3E0FBA3E0FA6F
:10143B00A3E0F9900003120175B4011A908248E001
:10144B00FF900004120175FE7401A806088002C308
:10145B0033D8FC4F8019908248E0FF9000041201B2
:10146B0075FE7401A806088002C333D8FCF45F90A4
:10147B008248F090000A1202BBE0FBA3E0FAA3E063
:10148B00F974058032850883850982A3E0FBA3E00C
:10149B00FAA3E0F9900002120175FFB4031E850850
:1014AB00838509827401F090000A1202BBE0FBA352
:1014BB00E0FAA3E0F974051201A28020EFB4021C3C
:1014CB0090000A1202BBE0FBA3E0FAA3E0F974055B
:1014DB001201A28508838509827401F08508838532
:1014EB000982E0FF90000D02029790FFFF12029716
:1014FB00EFF075D901850883850982E4F09000012E
:10150B0002029790FFFD120297EBF0A3EAF0A3E91A
:10151B00F0E490818EF07F60900006020297120F2C
:10152B0069908227EFF0908226E0B40107A3E04494
:10153B0001F08007908227E054FEF0908227E0FDB7
:10154B00E4FF8004E0FD7F02C291EF2420F5E5C2A9
:10155B00C030C0FDAFE5AE058EE5C2C030C0FD901A
:10156B008249E5E5F0D29122908226EFF0A3EDF0CF
:10157B007F02120F70908228EFF07F01120F709094
:10158B008229EFF0908226E0FF24FA5006240760B0
:10159B003C80537401A807088002C333D8FCFD902C
:1015AB008228E04DF0908227E06008908229E04D80
:1015BB00F08033908226E0FF7401A807088002C3F5
:1015CB0033D8FCF4FF908229E05FF08019908228D9
:1015DB00743FF0908227E06008908229743FF0807E
:1015EB0005E4908229F0908228B14F908229E0FD8A
:1015FB007F01A153908226EFF07F02120F70908231
:10160B0027EFF07F01120F70908228EFF090822667
:10161B00E0FF24FA50062407601B80207401A80702
:10162B00088002C333D8FCF4FD908227E05DF0A361
:10163B00E05DF08007E4908227F0A3F0908227B161
:10164B004F908228E0FD7F01A1537D707F07B1533E
:10165B00EF5470FF22EF543F908226F0E0FD7F1C89
:10166B00A153E4908226F0EF547FFFE054804FF0BB
:10167B00E0FD7F05A153120F69908227EFF0908256
:10168B0026E0B40107A3E04402F08007908227E034
:10169B0054FDF0908227E0FDE4FFA153908226EFEA
:1016AB00F07F1D120F70908227EFF0908226E07F63
:1016BB000060027F01EF540125E0FF908227E05488
:1016CB00FD4FF0E0FD7F1DA153908226EFF07F1DB3
:1016DB00120F70908227EFF0908226E07F0060025D
:1016EB007F01EF540125E025E0FF908227E054FBBA
:1016FB004FF0E0FD7F1DA153120F69908227EFF091
:10170B00908226E014601014601A240270219082DB
:10171B0027E054F7F08018908227E04408F0E0545B
:10172B00FBF0800B908227E04408F0E04404F0903B
:10173B008227E0FDE4FFA153908226EFF07F061293
:10174B000F70908227EFF0908226E0600C24FE70E1
:10175B0015908227E044208006908227E054DFF02A
:10176B00E054F7F0800B908227E054DFF0E0440860
:10177B00F0908227E0FD7F06A153908227EBF0A328
:10178B00EAF0A3E9F09081F674FFF0A37404F0A3E0
:10179B00741BF09081F974FFF0A37404F0A3744CE4
:1017AB00F09081FC74FFF0A37404F0A374E7F09045
:1017BB0081FF7404F0A314F0A37409F0A37404F074
:1017CB009082067402F0E4908203F0908219F090FC
:1017DB008204F0A3F0908227E0F9A3E0FAA3E09053
:1017EB008207C9F0A3EAF0A3E9F090822AE0F9A3FB
:1017FB00E0FAA3E090820AC9F0A3EAF0A3E9F09023
:10180B00822DE0F9A3E0FAA3E090820DC9F0A3EAE0
:10181B00F0A3E9F0908230E0F9A3E0FAA3E0908224
:10182B0010C9F0A3EAF0A3E9F0EF601290C7D6E07D
:10183B004408F07F327E00120781E054F7F0D2BBF0
:10184B00D2BC90C7AE741DF090C7AC7401F090C7BA
:10185B00A9741FF090C7AD7401F090C7AA741FF064
:10186B0090C7817410F0A37420F0A37430F0A374AC
:10187B0040F0A37450F090C78874C0F0A37410F0BC
:10188B00A37420F0A37430F0A37440F0A37450F051
:10189B0090C7DE7401F0A3F0E4A3F0A3F022EF54A1
:1018AB007F1425E0FEEF30E70BEE7E0024B6F9EE59
:1018BB0034C7800BAF067E0074C62FF9EE34C7AF6A
:1018CB000190823CF0A3EFF0ED90823CB4010CE070
:1018DB00FEA3E0F5828E837401F022E0FEA3E0F517
:1018EB00828E83E4F02290C7E8E0908213F090C7D9
:1018FB00E9E0908214F090C7EAE0908216F090C76E
:10190B00EBE0908215F090C7ECE0908217F090C757
:10191B00EEE0908218F090C7EFE0D3940040069071
:10192B00821874FFF0908213E054606002412BA385
:10193B00E0B40B004002412990194AF828287302A1
:10194B00196D02196F021A2902196F021A2902194D
:10195B00BC02196B021A290219C80219E5021A1ADC
:10196B0041D6E14B908213E024FE60232402703FAA
:10197B00908216E0B40116908214E0908203B401B9
:10198B0006E054FDF08068E04402F080624149902B
:10199B008216E07018908214E0908217B40106E072
:1019AB00FFE4FD8004E0FF7D0111A9804241494124
:1019BB00499082067403F0E4908204F02290820630
:1019CB00E024FC600E047010E490C700F090C7B5E3
:1019DB0004F022908204803A8064908216E01460B6
:1019EB00150470299082067403F0E4908204F09041
:1019FB00C7B47402F0229082067404F0908203E064
:101A0B004401F0A37401F090C7B404F022802F902E
:101A1B008205E090C700F090C7B57401F022801EDC
:101A2B00908213E0FF5460FEBE2013908218E0609A
:101A3B000BEF20E70790C7C574FFF022800790C714
:101A4B00B47411F0227B017A82793F90FFFD120270
:101A5B0097EBF0A3EAF0A3E9F07B017A82793C9053
:101A6B00FFFD120297EBF0A3EAF0A3E9F07B017AFA
:101A7B00827913C002908207A3E0FAA3E0F5828A71
:101A8B0083D002120295EF14602C14603014603A6C
:101A9B0024FE602204702D90823CE0FBA3E0FAA3AD
:101AAB00E0F9A3E0FF908218E0FEC39FAD07500260
:101ABB00AD0671C761EB90C7B47402F02290C7C535
:101ACB0074FFF02290C7B47411F022908215E024B9
:101ADB00FE602A14604224FA400261BE24086002B0
:101AEB0061C59081F6E0FBA3E0FAA3E0F9908218C0
:101AFB00E0FFC394127D125002AD0761BA9081F9D9
:101B0B00E0FBA3E0FAA3E0F9908218E0FFC394296D
:101B1B007D295002AD0761BA908216E0FC70167BEE
:101B2B00017A8179FF908218E0FFC394047D045001
:101B3B0002AD07807AEC14C3940250779081FCE0DD
:101B4B00FBA3E0FAA3E0F9908216E0FF75F003A483
:101B5B0024FDF582E5F034FFF58312023BC003C090
:101B6B0002C0019081FCE0FBA3E0FAA3E0F9EF14C3
:101B7B00FF75F003A4F58285F08312023B12015C22
:101B8B00FE908218E0FDC39E5002801D9081FCE008
:101B9B00FBA3E0FAA3E0F975F003EFA4F58285F05F
:101BAB008312023B12015CFFFDD001D002D0037106
:101BBB00C7802D90C7B47411F02241509081D3EBA4
:101BCB00F0A3EAF0A3E9F0A3EDF09081F6E0FBA31C
:101BDB00E0FAA3E0F99000071201759081D7F0228B
:101BEB009081D6E0FD7021908219E0B4010890C776
:101BFB00B4E04410F0229082197401F0E490C7B560
:101C0B00F090C7B47402F0229081D7E0FFEDC39F30
:101C1B0050079081D6E0FF8000E4FEEEC39F502377
:101C2B009081D3E0FBA3E0FAA3E0F98E82758300E9
:101C3B00120175FD74002EF582E434C7F583EDF0C7
:101C4B000E80D89081D7E0FEEFC39E50069082198C
:101C5B007401F090C7B5EFF0FD9081D4E48DF012D4
:101C6B0001D69081D6E0C39FF022C0E0C0F0C083C4
:101C7B00C082C0D075D000C000C001C002C003C07C
:101C8B0004C005C006C00790C7A8E012026B1CD0A9
:101C9B00001CDA041CE2081CFB0C1D05101D0F18A0
:101CAB001D191C1D28201DCF241D28281DCF2C1DC0
:101CBB0028301DCF341D28381DCF3C1D28401DCF8B
:101CCB004400001E9590C7AB7401F011F1C19590C3
:101CDB00C7AB7402F0C19590C7AB7404F09081D37D
:101CEB00E4F0A3F0A3F0A3F0A3F0908219F0C19558
:101CFB0090C7AB7408F0F10DC19590C7AB7410F0A1
:101D0B00D1B0C19590C7A97401F071EBC19590C783
:101D1B00AA7401F09081D6E4F05150C19590C7A8F8
:101D2B00E024E8131313541F908234F0E0FF740186
:101D3B00A807088002C333D8FC90C7A9F0EF547FE3
:101D4B0075F002A424B4F974C735F0AF0190823654
:101D5B00F0A3EFF0908234E0547F75F080A4FFC3C2
:101D6B0074009FF974C795F0AF01908238F0A3EF20
:101D7B00F0908234E0547F75F002A424B5F974C757
:101D8B0035F0AF0190823AF0A3EFF090823AE0FE8B
:101D9B00A3E0AA06F97B0190FFFD120297EBF0A3DB
:101DAB00EAF0A3E9F0908238E0FEA3E0AA06F97B03
:101DBB0001C002908234E075F003A424D5F582E4CF
:101DCB003481C17090C7A8E024E4131313541F90FF
:101DDB008234F0E0FF7401A807088002C333D8FCFB
:101DEB0090C7AAF0EF547F75F002A424C4F974C70E
:101DFB0035F0AF01908236F0A3EFF0908234E075AE
:101E0B00F080A4FFC374C09FF974C695F0AF019026
:101E1B008238F0A3EFF0908234E075F002A424C571
:101E2B00F974C735F0AF0190823AF0A3EFF09082CE
:101E3B003AE0FEA3E0AA06F97B0190FFFD120297A0
:101E4B00EBF0A3EAF0A3E9F0908238E0FEA3E0AA5E
:101E5B0006F97B01C002908234E075F003A424E400
:101E6B00F582E43481F583A3E0FAA3E0F5828A835B
:101E7B00D002120295908235EFF0A3E0FCA3E0FDB7
:101E8B0090823AE0FAA3E0FBD1DCD007D006D00574
:101E9B00D004D003D002D001D000D0D0D082D083D8
:101EAB00D0F0D0E0329082067402F0E4908204F01D
:101EBB00A3F0908203F090820AE0FBA3E0FAA3E088
:101ECB004A4B600C90820AA3E0FAA3E0F91202914C
:101EDB0022A9078B828A83E9B4FF0474FFF022E9FD
:101EEB0030E7088D828C837401F022E95460FFBFC8
:101EFB0060088D828C837402F022E97002F022E973
:101F0B00F022E4FD908203E054FBF0908206E0B4F3
:101F1B000408908203E030E1010D9082067405F015
:101F2B00908210E0FBA3E0FAA3E04A4B6011AF05EF
:101F3B00908210A3E0FAA3E0F5828A831202952225
:101F4B00908206E064037028908217E06003022001
:101F5B001E9081F9E0FBA3E0FAA3E0F990000712D1
:101F6B0001755440C41313540390C701F0022011A0
:101F7B00908206E06404600302201E90C701F0907B
:101F8B008213E0247F60401460402402600302202F
:101F9B001C908203E030E10890C7007402F08005CA
:101FAB00E490C700F090C700E0FF9081F9E0FBA33D
:101FBB00E0FAA3E0F99000071201755440C4131323
:101FCB005403FEEF4E803FE4803C908217E030E7F5
:101FDB000D547F75F002A424B4F974C7800F90825E
:101FEB0017E0547F75F002A424C4F974C735F0AF21
:101FFB000190823CF0A3EFF090823CE0FEA3E0F571
:10200B00828E83E0540190C700F090C7B57402F044
:10201B0022800090C7B47411F022C0E0C0F0C083DE
:10202B00C082C0D075D000C000C001C002C003C0C8
:10203B0004C005C006C00790C7D6E030E726748001
:10204B00F0908203E030E12390C7D6E04402F00029
:10205B0000E054FD4401F07F077E00120781E0543D
:10206B00FEF08007908203E04404F0908203E0903E
:10207B00820630E0057404F080037402F090820D48
:10208B00A3E0FAA3E0F9120291D007D006D005D055
:10209B0004D003D002D001D000D0D0D082D083D0D6
:0420AB00F0D0E0325F
:00000001FF
