:100000000203144180AA004180FE004180FF0041AC
:1000100080FD004180ED004180FC014280A8FFFF8F
:10002000428100010100EF543F908155F0E0FD7FD7
:100030001CE1DED310AF01C3C0D0908135E0FFD00A
:0A004000D092AF227F08A1582222BF
:0E004B0081E1F1DAEF5470FF227F60020F13A3
:03005B000211B2DD
:100063000216E0E709F608DFFA8046E709F208DF3F
:10007300FA803E88828C83E709F0A3DFFA8032E3BB
:1000830009F608DFFA8078E309F208DFFA8070885E
:10009300828C83E309F0A3DFFA806489828A83E098
:1000A300A3F608DFFA805889828A83E0A3F208DF87
:1000B300FA804C80D280FA80C680D4806980F28036
:1000C30033801080A680EA809A80A880DA80E2805C
:1000D300CA803389828A83ECFAE493A3C8C582C8B1
:1000E300CCC583CCF0A3C8C582C8CCC583CCDFE91B
:1000F300DEE7800D89828A83E493A3F608DFF9ECB7
:10010300FAA9F0EDFB2289828A83ECFAE0A3C8C541
:1001130082C8CCC583CCF0A3C8C582C8CCC583CC68
:10012300DFEADEE880DB89828A83E493A3F208DFD7
:10013300F980CC88F0EF60010E4E60C388F0ED24A7
:1001430002B4040050B9F582EB2402B4040050AFAA
:1001530023234582239000B673BB010689828A83D9
:10016300E0225002E722BBFE02E32289828A83E473
:100173009322BB010CE58229F582E5833AF583E0FE
:10018300225006E92582F8E622BBFE06E92582F81D
:10019300E222E58229F582E5833AF583E49322BBE3
:1001A300010689828A83F0225002F722BBFE01F303
:1001B30022C5F0F8A3E028F0C5F0F8E582158270B7
:1001C300021583E038F022BB011A89828A83D0F0BA
:1001D300D0E0F8D0E0F9D0E0FAD0E0FBE8C0E0C02E
:1001E300F00202ED5016E9F8D083D082D0E0F9D0C6
:1001F300E0FAD0E0FBC082C0830202DBBBFE16E95B
:10020300F8D083D082D0E0F9D0E0FAD0E0FBC0820E
:10021300C0830202FF22BB010DE58229F582E5833B
:100223003AF5830202E45007E92582F80202D2BBC1
:10023300FE07E92582F80202F6E58229F582E583C5
:100243003AF583020308D083D082F8E493701274E2
:100253000193700DA3A393F8740193F5828883E44B
:10026300737402936860EFA3A3A380DF8A838982F8
:10027300E473E5092582F582E5083583F583B5083E
:10028300048582092210AF06858209F5082285823A
:1002930009F508D2AF22E5092582F582E508358301
:1002A300F58322EF4E6012EF60010EEDBB010B8967
:1002B300828A83F0A3DFFCDEFA2289F05007F70974
:1002C300DFFCA9F022BBFEFCF309DFFCA9F022E668
:1002D300FB08E6FA08E6F922EBF608EAF608E9F67F
:1002E30022E0FBA3E0FAA3E0F922EBF0A3EAF0A3F8
:1002F300E9F022E2FB08E2FA08E2F922EBF208EA6B
:10030300F208E9F222E493FB740193FA740293F97D
:1003130022787FE4F6D8FD750A0075088875090010
:10032300750B0075810B02036702047EE493A3F847
:10033300E493A34003F68001F208DFF48029E493F9
:10034300A3F85407240CC8C333C4540F4420C883F0
:100353004004F456800146F6DFE4800B01020408F2
:1003630010204080900003E47E019360BCA3FF54FF
:100373003F30E509541FFEE493A360010ECF54C040
:1003830025E060A840B8E493A3FAE493A3F8E493C8
:10039300A3C8C582C8CAC583CAF0A3C8C582C8CAD0
:1003A300C583CADFE9DEE780BE1201000200000058
:1003B3002015197B000001010200010600FF09005E
:1003C300A101150025FF7508953409008102090074
:1003D3009102C0FF03EFFF03BE18090229000101C8
:1003E300008032090400000203000000092110010B
:1003F30000012218000705810334000107050203E9
:100403000E00012A034E006F00720064006900634E
:10041300002000530065006D00690063006F006EEB
:100423000064007500630074006F00720048034E9F
:10043300006F0072006400690063002000530065D0
:10044300006D00690063006F006E00640075006357
:100453000074006F0072002000550053004200201A
:1004630000520046002000410064006100700074E7
:100473000065007200FF0406FF043075E6107594F2
:10048300EFD292D2AFF14891B61133BF04FB908003
:10049300FDE0B401F49080FCE0B40105120E9D80F0
:1004A300E87B017A8079007D20120C5EE49080FD68
:1004B300F080D6D2B97F01120EE67F04F1C67F0128
:1004C300120FF67F02120FB67F01120F5A7F01122D
:1004D3000F877FFF11267F01120F34D29022C0E0D5
:1004E300C0F0C083C082C0D075D000C000C001C0BE
:1004F30002C003C004C005C006C007114DEF24F0BD
:10050300601424D0601E242070309080FFE4F090AB
:1005130080ED04F080241210589080FFE4F0908066
:10052300EDF08016120F2BEF700A7B017A807900B1
:10053300114480F09080FD7401F0D007D006D005FF
:10054300D004D003D002D001D000D0D0D082D08349
:10055300D0F0D0E03290814AEBF0A3EAF0A3E9F0C7
:10056300908149EFF09081517401F090814AE090BD
:10057300814FF0EF14600C24FB600824FE60182404
:10058300087033F1BC90814DEFF0A3F0C2919081DC
:1005930049E0240AFF801A121038908149EFF0C312
:1005A30094075012115490814DEFF0A3F0C2917F44
:1005B3006112104E8009E490814EF090814DF090CD
:1005C300814FE0FF704A90814AA3A3E0908152F0EB
:1005D300E4F5E5C2C0908151E07011908150E0FED6
:1005E300908152E0F8A606E004F08005E490815182
:1005F300F030C0FD908150E5E5F090814DE014F0BE
:1006030070CE908150E0FE908152E0F8A606E13969
:10061300EF6401706890814AA3E0FAA3E0FF908140
:1006230052EAF0A3EFF0E4F5E5C2C0908151E07027
:1006330022908150E0FF908152E0FCA3E0F5828C90
:1006430083EFF0908153E004F07006908152E00450
:10065300F08005E4908151F030C0FD908150E5E5D4
:10066300F090814DE014F070BD908150E0FF9081D7
:1006730052E0FCA3E0F5828C83EFF0E13990814FE7
:10068300E064FE704A90814AA3A3E0908152F0E4B3
:10069300F5E5C2C0908151E07011908150E0FF9068
:1006A3008152E0F8EFF2E004F08005E4908151F02C
:1006B30030C0FD908150E5E5F090814DE014F0707D
:1006C300CE908150E0FF908152E0F8EFF280679086
:1006D300814AE0F9A3E0FAA3E0908152C9F0A3EACA
:1006E300F0A3E9F0E4F5E5C2C0908151E0701E90FB
:1006F3008150E0FF908152E0FBA3E0FAA3E0F9EF21
:1007030031A2908153E475F00131B48005E4908106
:1007130051F030C0FD908150E5E5F090814DE0143B
:10072300F070C1908150E0FF908152E0FBA3E0FAAA
:10073300A3E0F9EF31A2D291908149E0FE90814E7E
:10074300E0FDEDFF22E4FF90815974FFF0A37400F4
:10075300F0A37449F0A374FFF0A37400F0A37448EA
:10076300F0A374FFF0A3740BF0A374E3F07BFF7AA0
:100773000779FE0F1210617BFF7A0B79FC7D347FC2
:10078300811219557BFF7A0C79177D347F02121978
:10079300557E007F347D007B017A80794051A67EAF
:1007A300007F347D007B017A80797451A67F0E909F
:1007B30080EE7401F0A3DFFC227F03120F13EF24FA
:1007C30002FF22E4908155F0EF547FFFE054804F05
:1007D300F0E0FD7F0580047D707F07C291EF242048
:1007E300F5E5C2C030C0FDAFE5AE058EE5C2C03051
:1007F300C0FD908179E5E5F0D2912290FFFD1202D0
:1008030075EBF0A3EAF0A3E9F090FFFF1202757B0A
:1008130001850883850982A982AA8390FFFD1202BC
:1008230075EBF0A3EAF0A3E9F090000A120299E055
:10083300FBA3E0FAA3E0F990FFFD120275EBF0A32E
:10084300EAF0A3E9F090000A120299E0FBA3E0FAB0
:10085300A3E0F990FFFD120275EBF0A3EAF0A3E920
:10086300F090000A120299E0FBA3E0FAA3E0F91169
:1008730089BF010A850883850982E0FF80027F0022
:1008830090000A02027590FFFD120275EBF0A3EAD5
:10089300F0A3E9F090FFFF120275850883850982B2
:1008A300E4F090000A120299E0FBA3E0FAA3E0F956
:1008B300E41201A2850883850982A3E0FBA3E0FA81
:1008C300A3E0F99000011201756406600221EC9027
:1008D300000212017524DF7002216B14600261D5DE
:1008E3008508838509827401F0A3E0FBA3E0FAA3E2
:1008F300E0F990000412017575F007A424D9F5827C
:10090300E5F03403F583E493FB740193FA740293E3
:10091300F9C003C002C001900004120299E0FBA3D6
:10092300E0FAA3E0F91201CA850883850982A3E0EE
:10093300FBA3E0FAA3E0F990000412017575F00738
:10094300A424DCF582E5F03403F583E493FF7E0011
:10095300900005120175FD7C00C3EF9DEE9C5002D3
:100963008076AE04AF0580708508838509827401A3
:10097300F0A3E0FBA3E0FAA3E0F9900004120175F1
:1009830075F007A424D6F582E5F03403F583E493E8
:10099300FB740193FA740293F9C003C002C001907F
:1009A3000004120299E0FBA3E0FAA3E0F91201CAE2
:1009B300850883850982A3E0FBA3E0FAA3E0F9900D
:1009C3000005120175FF7E00C374099FE49E500861
:1009D3007C007D097F098000900007120299E0FBEB
:1009E300A3E0FAA3E0F9EF6105850883850982A3F3
:1009F300E0FBA3E0FAA3E0F912015C20E50261D574
:100A030090000112017524FE605A147002419C2467
:100A1300FA7002617E146066147002611A240A601F
:100A23000261D58508838509827401F0E4908171A0
:100A3300F0908170F07B017A817970C003C002C0AD
:100A430001900004120299E0FBA3E0FAA3E0F9127B
:100A530001CA900007120299E0FBA3E0FAA3E0F9B0
:100A6300740361058508838509827401F090000A87
:100A7300120299E0FBA3E0FAA3E0F9E461B0850870
:100A8300838509827401F090000A120299E0FBA3A6
:100A9300E0FAA3E0F9740461B085088385098274E0
:100AA30001F0A3E0FBA3E0FAA3E0F9900004120134
:100AB30075FF74017E00A807088005C333CE33CECB
:100AC300D8F9FF908178E0FDEF5D7F0060027F0140
:100AD300908170EFF07B017A817970C003C002C00E
:100AE30001900004120299E0FBA3E0FAA3E0F912DB
:100AF30001CA900007120299E0FBA3E0FAA3E0F910
:100B030074011201A290000A120299E0FBA3E0FA19
:100B1300A3E0F9740461B08508838509827401F048
:100B2300A3E0FBA3E0FAA3E0F9900003120175B47C
:100B3300011A908178E0FF900004120175FE7401A0
:100B4300A806088002C333D8FC4F8019908178E04F
:100B5300FF900004120175FE7401A806088002C309
:100B630033D8FCF45F908178F090000A120299E088
:100B7300FBA3E0FAA3E0F9740580328508838509B5
:100B830082A3E0FBA3E0FAA3E0F99000021201754F
:100B9300FFB4031E8508838509827401F090000A5F
:100BA300120299E0FBA3E0FAA3E0F974051201A293
:100BB3008020EFB4021C90000A120299E0FBA3E02C
:100BC300FAA3E0F974051201A285088385098274EA
:100BD30001F0850883850982E0FF90000D0202750C
:100BE30090FFFF120275EFF075D90185088385091F
:100BF30082E4F090000102027590FFFD120275EB92
:100C0300F0A3EAF0A3E9F0E49080FEF07F609000A7
:100C13000602027590FFFD120275EBF0A3EAF0A342
:100C2300E9F0900003120299E0FBA3E0FAA3E0F9D4
:100C330012015CFF7E00850883850982E0FBA3E047
:100C4300FAA3E0F978DF7C807D011201369080AA57
:100C53007401F07FFF900006020275908156EBF05D
:100C6300A3EAF0A3E9F0A3EDF0D1879080FE74012D
:100C7300F0908159E0FF7E0078AB7C807D0190810C
:100C830056E0FBA3E0FAA3E0F91201367B017A8078
:100C930079AB90815E7434F07F0190815BEBF0A3BC
:100CA300EAF0A3E9F090815AEFF0547F75F080A445
:100CB300FFC374009FF974C795F0AF01908160F092
:100CC300A3EFF090815AE0547F75F002A424B5F9A4
:100CD30074C735F0AF01908162F0A3EFF0E4908127
:100CE3005FF090815EE0FFA3E0FEC39F502C9081F4
:100CF3005BE0FBA3E0FAA3E0F98E827583001201A7
:100D030075FF908160E0FCA3E02EF582E43CF5835F
:100D1300EFF090815FE004F080C890815EE0FF9087
:100D23008162E0FCA3E0F5828C83EFF02290815591
:100D3300EFF0E0FF2400F582E43481F583E0FE90D8
:100D43008001E06E6039EF75F034A42440F97480BB
:100D530035F0A801FC7D017B007A0079007E007FDD
:100D630034120136908155E0FD2400F582E434818C
:100D7300F5837401F0908001E06401707D8013902D
:100D83008155E0FD2400F582E43481F583E06402BB
:100D930060167F01D103908155E02400F582E4348D
:100DA30081F583E004F08052908155E0FDE4FFD1AA
:100DB30003908155E075F034A42440F9748035F034
:100DC300FA7B017D34915E7E007F34C006C0077DCF
:100DD30000908155E075F034A42440F9748035F017
:100DE300FA7B01D007D0061202A6908155E02400B9
:100DF300F582E43481F5837401F0E49080FDF02200
:100E0300A90774002DF582E43481F583E01475F0AD
:100E13001DA4FFE4FEE96401702F74032EF582E440
:100E23003480F583E0FCEF2EFBED75F034A4244011
:100E3300F582E43480F583E5822BF582E43583F58E
:100E430083ECF00EEEB41ED222E97037FEC3743485
:100E53009FFCEEC39C502C74032EF582E43480F582
:100E630083E0FCEF2EFBED75F034A42440F582E41F
:100E73003480F583E5822BF582E43583F583ECF04A
:100E83000E80CA227F507EC3EF1FAC0670011E4C3A
:100E930060079080FEE070F02222908000E06434CE
:100EA30070409080A8E0B4FF0A908002E09080A890
:100EB300F0800F9080A9E0B4FF08908002E090805A
:100EC300A9F09080A8E0FF908002E0B50704E4FF5A
:100ED300800E9080A9E0FF908002E0B507047F01B7
:100EE300B13022F10C908156EFF0908155E0B401BE
:100EF30007A3E04401F08007908156E054FEF09090
:100F03008156E0FDE4FF0207DE908155EFF0E4FF38
:100F1300C2918FE5C2C030C0FDAFE5E4F5E5C2C0C4
:100F230030C0FDAFE5D291227F17F113EF5401FFDB
:100F330022F10C908156EFF0908155E0B40107A3A4
:100F4300E04402F08007908156E054FDF090815612
:100F5300E0FDE4FF0207DE908155EFF07F1DF11302
:100F6300908156EFF0908155E07F0060027F01EFA2
:100F7300540125E0FF908156E054FD4FF0E0FD7FE2
:100F83001D0207DE908155EFF07F1DF1139081560E
:100F9300EFF0908155E07F0060027F01EF5401255F
:100FA300E025E0FF908156E054FB4FF0E0FD7F1D0C
:100FB3000207DEF10C908156EFF0908155E014604A
:100FC3001014601A24027021908156E054F7F080C7
:100FD30018908156E04408F0E054FBF0800B9081B8
:100FE30056E04408F0E04404F0908156E0FDE4FF4D
:100FF3000207DE908155EFF07F06F113908156EFE3
:10100300F0908155E0600C24FE7015908156E04409
:10101300208006908156E054DFF0E054F7F0800B17
:10102300908156E054DFF0E04408F0908156E0FDF3
:101033007F060207DE1145EF540EFFE4C313EF13DF
:10104300FF22C2917FFF114ED291228FE5C2C030A1
:10105300C0FDAFE522C2917FE1114ED29122908172
:1010630056EBF0A3EAF0A3E9F090812574FFF0A317
:101073007403F0A374ACF090812874FFF0A374039D
:10108300F0A374DDF090812B74FFF0A37404F0A33C
:101093007478F090812E7404F0A314F0A37409F013
:1010A300A37404F09081357402F0E4908132F090DF
:1010B3008148F0908133F0A3F0908156E0F9A3E0EA
:1010C300FAA3E0908136C9F0A3EAF0A3E9F0908196
:1010D30059E0F9A3E0FAA3E0908139C9F0A3EAF05B
:1010E300A3E9F090815CE0F9A3E0FAA3E090813CEE
:1010F300C9F0A3EAF0A3E9F090815FE0F9A3E0FA75
:10110300A3E090813FC9F0A3EAF0A3E9F0EF6014F4
:1011130090C7D6E04408F07F327E00318790C7D66F
:10112300E054F7F0D2BBD2BC90C7AE741DF090C7A9
:10113300AC7401F090C7A9741FF090C7AD7401F0AF
:1011430090C7AA741FF090C7817410F0A37420F0A5
:10115300A37430F0A37440F0A37450F090C7887464
:10116300C0F0A37410F0A37420F0A37430F0A37440
:1011730040F0A37450F090C7DE7401F0A3F0E4A331
:10118300F0A3F022AD07AC0631993199ED1D700142
:101193001C144C70F3227FFA7E0031A37FFA7E0089
:1011A3000000000000EF1F70011E144E70F222C0F9
:1011B300E0C0F0C083C082C0D075D000C000C001C1
:1011C300C002C003C004C005C006C00790C7D6E074
:1011D30030E7287480F0908132E030E12590C7D663
:1011E300E04402F00000E054FD4401F07F077E007C
:1011F300318790C7D6E054FEF08007908132E044F7
:1012030004F0908132E090813530E0057404F08081
:10121300037402F090813CA3E0FAA3E0F912026F99
:10122300D007D006D005D004D003D002D001D0001F
:10123300D0D0D082D083D0F0D0E032EF547F1425C9
:10124300E0FEEF30E70BEE7E0024B6F9EE34C78004
:101253000BAF067E0074C62FF9EE34C7AF01908141
:101263006CF0A3EFF0ED90816CB4010CE0FEA3E011
:10127300F5828E837401F022E0FEA3E0F5828E8373
:10128300E4F02290C7E8E0908142F090C7E9E09053
:101293008143F090C7EAE0908145F090C7EBE0907E
:1012A3008144F090C7ECE0908146F090C7EEE09067
:1012B3008147F090C7EFE0D39400400690814774D4
:1012C300FFF0908142E05460600261C0A3E0B40B80
:1012D30000400261BE9012DFF82828730213020255
:1012E30013040213BE0213040213BE0213510213AA
:1012F300000213BE02135D02137A0213AF816BC1A6
:101303000A908142E024FE60232402703F908145CD
:10131300E0B40116908143E0908132B40106E054B9
:10132300FDF08068E04402F0806261DE908145E078
:101333007018908143E0908146B40106E0FFE4FD1C
:101343008004E0FF7D01513E804261DE61DE9081D9
:10135300357403F0E4908133F022908135E024FC6E
:10136300600E047010E490C700F090C7B504F0223B
:10137300908133803A8064908145E0146015047055
:10138300299081357403F0E4908133F090C7B474ED
:1013930002F0229081357404F0908132E04401F030
:1013A300A37401F090C7B404F022802F908134E03D
:1013B30090C700F090C7B57401F022801E9081425F
:1013C300E0FF5460FEBE2013908147E0600BEF20E6
:1013D300E70790C7C574FFF022800790C7B4741164
:1013E300F0227B017A81796F90FFFD120275EBF099
:1013F300A3EAF0A3E9F07B017A81796C90FFFD12F7
:101403000275EBF0A3EAF0A3E9F07B017A8179425C
:10141300C002908136A3E0FAA3E0F5828A83D0026A
:10142300120273EF14602C14603014603A24FE60CF
:101433002204702D90816CE0FBA3E0FAA3E0F9A3F2
:10144300E0FF908147E0FEC39FAD075002AD06B1B8
:101453005CA18090C7B47402F02290C7C574FFF0FA
:101463002290C7B47411F022908144E024FE602AD4
:1014730014604224FA4002A15324086002A15A9046
:101483008125E0FBA3E0FAA3E0F9908147E0FFC3E5
:1014930094127D125002AD07A14F908128E0FBA367
:1014A300E0FAA3E0F9908147E0FFC394297D295036
:1014B30002AD07A14F908145E0FC70167B017A8154
:1014C300792E908147E0FFC394047D045002AD0759
:1014D300807AEC14C39402507790812BE0FBA3E055
:1014E300FAA3E0F9908145E0FF75F003A424FDF52C
:1014F30082E5F034FFF583120219C003C002C00174
:1015030090812BE0FBA3E0FAA3E0F9EF14FF75F061
:1015130003A4F58285F08312021912015CFE908107
:1015230047E0FDC39E5002801D90812BE0FBA3E0AA
:10153300FAA3E0F975F003EFA4F58285F0831202B4
:101543001912015CFFFDD001D002D003B15C802DE4
:1015530090C7B47411F02261E5908102EBF0A3EA25
:10156300F0A3E9F0A3EDF0908125E0FBA3E0FAA35B
:10157300E0F9900007120175908106F02290810531
:10158300E0FD7021908148E0B4010890C7B4E044C5
:1015930010F0229081487401F0E490C7B5F090C731
:1015A300B47402F022908106E0FFEDC39F500790D0
:1015B3008105E0FF8000E4FEEEC39F50239081028B
:1015C300E0FBA3E0FAA3E0F98E82758300120175B4
:1015D300FD74002EF582E434C7F583EDF00E80D858
:1015E300908106E0FEEFC39E50069081487401F09F
:1015F30090C7B5EFF0FD908103E48DF01201B49034
:101603008105E0C39FF022908135E064037026904A
:101613008146E06002C1D9908128E0FBA3E0FAA3F0
:10162300E0F99000071201755440C413135403905A
:10163300C701F0C1CC908135E064046002C1D99048
:10164300C701F0908142E0247F603F14603F240291
:101653006002C1D7908132E030E10890C700740284
:10166300F08005E490C700F090C700E0FF90812868
:10167300E0FBA3E0FAA3E0F99000071201755440E0
:10168300C413135403FEEF4E803FE4803C90814625
:10169300E030E70D547F75F002A424B4F974C780D9
:1016A3000F908146E0547F75F002A424C4F974C7F7
:1016B30035F0AF0190816CF0A3EFF090816CE0FE08
:1016C300A3E0F5828E83E0540190C700F090C7B584
:1016D3007402F022800090C7B47411F022C0E0C0FD
:1016E300F0C083C082C0D075D000C000C001C0026A
:1016F300C003C004C005C006C00790C7A8E012021B
:1017030049173B00174604174F0817690C17751044
:10171300178118178C1C179C20184324179C281812
:10172300432C179C30184334179C3818433C179CA0
:10173300401843440000190990C7AB7401F0518667
:1017430002190990C7AB7402F002190990C7AB7470
:1017530004F0908102E4F0A3F0A3F0A3F0A3F090CF
:101763008148F002190990C7AB7408F0121A4202BB
:10177300190990C7AB7410F0121A8002190990C7A7
:10178300A97401F0B18002190990C7AA7401F090FD
:101793008105E4F071E502190990C7A8E024E81374
:1017A3001313541F908164F0E0FF7401A8070880AD
:1017B30002C333D8FC90C7A9F0EF547F75F002A49D
:1017C30024B4F974C735F0AF01908166F0A3EFF04C
:1017D300908164E0547F75F080A4FFC374009FF987
:1017E30074C795F0AF01908168F0A3EFF090816426
:1017F300E0547F75F002A424B5F974C735F0AF0146
:1018030090816AF0A3EFF090816AE0FEA3E0AA065C
:10181300F97B0190FFFD120275EBF0A3EAF0A3E957
:10182300F0908168E0FEA3E0AA06F97B01C0029074
:101833008164E075F003A42404F582E4348101E4B7
:1018430090C7A8E024E4131313541F908164F0E0BD
:10185300FF7401A807088002C333D8FC90C7AAF01D
:10186300EF547F75F002A424C4F974C735F0AF01B7
:10187300908166F0A3EFF0908164E075F080A4FF9F
:10188300C374C09FF974C695F0AF01908168F0A34B
:10189300EFF0908164E075F002A424C5F974C735B4
:1018A300F0AF0190816AF0A3EFF090816AE0FEA3AC
:1018B300E0AA06F97B0190FFFD120275EBF0A3EAA3
:1018C300F0A3E9F0908168E0FEA3E0AA06F97B01AA
:1018D300C002908164E075F003A42413F582E4341C
:1018E30081F583A3E0FAA3E0F5828A83D002120292
:1018F30073908165EFF0A3E0FCA3E0FD90816AE0C3
:10190300FAA3E0FB3124D007D006D005D004D003DE
:10191300D002D001D000D0D0D082D083D0F0D0E09C
:1019230032A9078B828A83E9B4FF0474FFF022E9AA
:1019330030E7088D828C837401F022E95460FFBF85
:1019430060088D828C837402F022E97002F022E930
:10195300F022908155EBF0A3EAF0A3E9F0AC07EC99
:10196300547FFF14FE7401A807088002C333D8FC18
:10197300908158F0EC30E759908155E0FBA3E0FAF1
:10198300A3E0F9EE75F003A42407F582E43481F5AE
:1019930083EBF0A3EAF0A3E9F0908155E0FBA3E029
:1019A300FAA3E04A4B90C7AC6014E0FF908158E083
:1019B300FEEF4E90C7ACF090C7DEE04EF022E0FFA2
:1019C300908158E0F4FEEF5E90C7ACF090C7DE80E4
:1019D3006A908155E0FBA3E0FAA3E0F9EE75F0030A
:1019E300A42416F582E43481F583EBF0A3EAF0A393
:1019F300E9F0908155E0FBA3E0FAA3E04A4B90C7DE
:101A0300AD6027E0FF908158E0FEEF4E90C7ADF048
:101A130090C7DFE04EF0EC75F002A424C5F974C75B
:101A230035F08982F58374FFF022E0FF908158E05E
:101A3300F4FEEF5E90C7ADF090C7DFE05EF022E406
:101A4300FD908132E054FBF0908135E0B4040890BE
:101A53008132E030E1010D9081357405F090813FD2
:101A6300E0FBA3E0FAA3E04A4B6011AF0590813F8E
:101A7300A3E0FAA3E0F5828A8312027322908135F0
:101A83007402F0E4908133F0A3F0908132F09081FE
:101A930039E0FBA3E0FAA3E04A4B600C908139A341
:091AA300E0FAA3E0F912026F223F
:00000001FF
