:020000040000FA
:10000000402F0020150400001D0400001F04000004
:10001000210400002304000025040000000000006B
:1000200000000000000000000000000027040000A5
:1000300029040000000000002B0400002D04000033
:100040002F040000E1050000ED0900002F0400006E
:10005000E90600002F0400002F0400002F04000018
:100060002F0400002F0400002F0400002F040000C4
:100070002F0400002F0400002F0400002F040000B4
:100080002F0400002F0400002F0400002F040000A4
:10009000F90600002F0400002F0400002F040000C8
:1000A0002F0400002F0400002F0400002F04000084
:1000B0002F0400002F0400000000000000000000DA
:1000C0002F0400002F0400002F0400002F04000064
:1000D0002F0400002F0400002F0400000000000087
:1000E0000000000000000000000000000000000010
:1000F0000000000000000000000000000000000000
:1001000000000000000000000000000000000000EF
:1001100000000000000000000000000000000000DF
:10040000DFF80CD000F07EF800480047251200000D
:10041000402F00200648804706480047FEE7FEE7D9
:10042000FEE7FEE7FEE7FEE7FEE7FEE7FEE7FEE7A4
:10043000510700000104000040EA01039B0703D0BC
:1004400009E008C9121F08C0042AFAD203E011F813
:10045000013B00F8013B521EF9D27047D2B201E0D5
:1004600000F8012B491EFBD270470022F6E710B5B9
:1004700013460A4604461946FFF7F0FF204610BD12
:10048000421C10F8011B0029FBD1801A704703465B
:1004900011F8012B00F8012B002AF9D118467047FA
:1004A0002DE9F05F0546002092469B4688460646A9
:1004B000814640241BE0284641464746224600F03C
:1004C00042F853465A46C01A914110D31146184675
:1004D000224600F029F82D1A67EB01084F46224604
:1004E0000120002100F020F817EB00094E41201EEA
:1004F000A4F10104DFDC484631462A464346BDE804
:10050000F09F0000064C074D06E0E06840F0010354
:1005100094E8070098471034AC42F6D3FFF774FF15
:10052000D42C0000F42C0000202A04DB203A00FA2E
:1005300002F1002070479140C2F1200320FA03F33A
:10054000194390407047202A04DB203A21FA02F038
:100550000021704721FA02F3D040C2F120029140FD
:1005600008431946704700F01F02012191404009DD
:10057000800000F1E020C0F88012704700F01F02F8
:10058000012191404009800000F1E020C0F8801175
:10059000704700F01F02012191404009800000F1E6
:1005A000E020C0F80011704700F01F0201219140C7
:1005B0004009800000F1E020C0F8001270474907B0
:1005C000090E002806DA00F00F0000F1E02080F8A4
:1005D000141D704700F1E02080F8001470470000FF
:1005E00070B5144CD4F80001002628B1D4F80403E7
:1005F000C00701D0C4F80061D4F80C010E4D40B121
:10060000D4F80403000704D5C4F80C61E86800B10D
:100610008047D4F8100100280BD0D4F80403C0069A
:1006200007D5C4F81061A868002802D0BDE8704062
:10063000004770BD00100040180000202DE9F04771
:10064000114F0446DDF8209038781D46164688463E
:1006500008B900F0D9F93869A04211D90A4904EB68
:10066000440001EBC00134B1C1F81880C1E907654D
:100670000020886248620020C1F82C90BDE8F08715
:100680004FF0FF30FAE70000C80E002070B50E46AC
:10069000144900EB400001EBC0051446E86A183528
:1006A00020B101280FD0022805D113E0284600F020
:1006B000DFF9A04201D2002411E02246314628464B
:1006C00000F00EFA0BE0284600F0D2F9A042F4D276
:1006D0000446F2E73146284600F0D5F904462046A4
:1006E00070BD0000C80E002002494FF0402001F00C
:1006F0005FBF0000540200207CB5144C206A0190BA
:100700002078002821D00120FFF738FF65680026F7
:1007100066600120FFF73DFFA169002915D0E807B9
:1007200003D08DF8006068468847A80705D50120EA
:100730008DF80000A16968468847680705D5022042
:100740008DF80000A169684688477CBD180000202C
:10075000F0B598480023021D01780125101D4FF0C7
:100760008056062907D11478240704D10478C4F3ED
:100770000314032C02D0062904D00FE08F4F8E4CB7
:100780007C670EE01478240708D10478C4F30314BE
:10079000032C06D0042C04D0052C02D0062907D047
:1007A0000EE0D6F84442864FC4F342343C6002E087
:1007B0001478240704D10478C4F30314032C02D062
:1007C000062906D011E07F4C276827F08077276044
:1007D0000EE01478240708D10478C4F30314032C22
:1007E00006D0042C04D0052C02D006290AD011E032
:1007F0004FF08044C4F80C31C4F81031704C241F01
:10080000236002E01478240704D10478C4F30314AD
:10081000032C02D0062905D00CE0694F032464376D
:100820003C600AE01478240704D10478C4F303146C
:10083000032C02D006290DD014E0634F05243C6040
:10084000614C78342560604C083423603F243F1DA0
:100850003C6002E01478240704D10478C4F3031444
:10086000052C02D0062957D068E058490968584A33
:1008700011605649091D0968121D1160534908315C
:100880000968121D116051490C310968121D11606F
:100890004E4910310968121D11604C491431096824
:1008A000121D1160494918310968494A2032116006
:1008B00046491C310968121D1160444920310968FC
:1008C000121D1160414924310968121D11603F4910
:1008D00028310968121D11603C492C310968121D2C
:1008E00011603A4930310968394A4032116037495C
:1008F00034310968121D1160344938310968121DFC
:10090000116032493C310968121D11602F49403194
:100910000968121D116002E0117809070ED10078F4
:10092000C0F30310032803D0042801D0052805D103
:10093000D6F85802274900F04F0008602148743863
:10094000016841F470010160BFF34F8FBFF36F8FF7
:100950004FF01021D1F80002002803DBD1F8040287
:10096000002822DA1C4A15601C480468002CFCD0C0
:100970001524C1F800420568002DFCD0C1F80442DE
:1009800001680029FCD0136001680029FCD0BFF386
:100990004F8F0C48F0380168114A01F4E0611143AF
:1009A0000160BFF34F8F00BFFDE70F490D4808609E
:1009B000F0BD0000E00F00F00DF0ADBA00C0074040
:1009C0003C050040FCED00E010560040040400101F
:1009D00020C50040E40E004004E5014000E4014071
:1009E0000400FA050090D003540000200448017F61
:1009F00004480029024901D002F01BB801F08ABF67
:100A0000340200200020004010B5124C022020616A
:100A1000606111A0A061A4F58260E0614FF4806084
:100A200020620020A06260620BA1A164E062A4F1D8
:100A30001001E16410212165A0656065E06509A1F0
:100A4000E01DFFF724FD08A12046FFF720FD202030
:100A5000A07110BDC80E00205465726D696E616C86
:100A600000000000525454005345474745520000CF
:100A70000269C1688A4203D88068401A104400E0C5
:100A8000501A401E70472DE9F047C4681746894642
:100A900006464FF000083069A04201D9051B02E06C
:100AA000B168201A0D1AB0686D1E001BA84200D84C
:100AB0000546BD4200D33D4670682A46204449465B
:100AC000FFF7BAFCB0687F1B2C44A844A944A0429D
:100AD00000D10024F460002FDDD14046BDE8F0874E
:100AE0002DE9F041C6680446174688468068851B94
:100AF0006068BD4206D93044FFF79EFCF019E06003
:100B0000BDE8F0812A463044FFF796FC7E1B08EBD7
:100B1000050132466068FFF78FFCE660F0E70000F1
:100B20000FB4084B10B504A902AA039800F01CF8F2
:100B3000044602A9002000F048FA204610BC5DF8E7
:100B400014FB0000CB0F000002E008C8121F08C110
:100B5000002AFAD170477047002001E001C1121F3E
:100B6000002AFBD1704700002DE9FF4F8DB00F46E2
:100B70000546002606E025280BD0DDE90F12904738
:100B80006D1C761C28780028F5D111B03046BDE8E0
:100B9000F08F0024A246A1460122EC4900E0044364
:100BA00015F8013F203B02FA03F00842F7D12878FC
:100BB0002A2810D06FF02F022878A0F130010929DF
:100BC00014D80AEB8A0102EB410144F0020400EB65
:100BD000010A6D1CF0E701CF5FEA000A03D544F477
:100BE0000054CAF1000A44F002046D1C28782E2833
:100BF00017D115F8010F44F004042A280ED06FF025
:100C00002F022878A0F1300109290AD809EB8901BF
:100C100002EB410100EB01096D1CF2E757F8049B60
:100C20006D1C28786C280FD006DC4C2817D068285B
:100C30000DD06A2814D104E0742810D07A280FD17E
:100C40000DE044F400140AE044F4801401E044F49C
:100C500040146978814202D104F580146D1C6D1C2A
:100C60002A786E2A1FD00CDC632A31D004DC002ADB
:100C70008BD0582A11D1A3E0642A68D0692A0CD1FC
:100C800065E0732A2ED004DC6F2A73D0702A04D159
:100C90009BE0752A6FD0782A6ED01046DDE90F12DE
:100CA0009047761C50E1C4F30250022806D0032876
:100CB00009D0042801CF09D0066045E101CFF11722
:100CC000C0E9006140E101CF06803DE106703BE1F3
:100CD00017F8040B8DF8000000208DF80100EB469A
:100CE000012003E057F804BB4FF0FF3061074FF0DD
:100CF000000102D40DE008F10101884649450FDAF0
:100D00008045F8DB1BF808100029F4D108E008F151
:100D1000010188468142FADB1BF808100029F6D150
:100D2000DDE90F23AAEB08008146214600F036F9E1
:100D3000304400EB080604E0DDE90F121BF8010B5C
:100D40009047B8F10108F7D221464846F7E00A215A
:100D5000C4F302534FF0000B0891022B04D001CFD3
:100D6000C117032B09D00AE0FF1D27F00707F7E89A
:100D7000020108E032E01FE020E000B2C117042BBE
:100D800001D140B2C117031E71F1000307DA4FF021
:100D9000000CD0EB0C006CEB01012D2302E02305CD
:100DA00004D52B238DF82430012303E0E30701D081
:100DB0002023F7E7984658E00A2110E010210EE0C2
:100DC00010204FF0000B08900CE010214FF0000BAA
:100DD00044F004044FF00809089103E008214FF0A3
:100DE000000B0891C4F30253022B04D001CF002161
:100DF000032B06D006E0FF1D27F00707F7E80201E6
:100E000003E080B2042B00D1C0B24FF000082307EA
:100E10002BD5702A07D0DDF820C08CF0100C5CEACE
:100E20000B0C05D00EE040238DF82430012308E0A0
:100E300050EA010306D030238DF824308DF82520A8
:100E400002239846DDF820C08CF0080C5CEA0B0CFD
:100E50000BD150EA010301D1630706D530238DF889
:100E600024304FF00108A9F10109582A04D038A212
:100E70000B9208AA0A920BE03AA2F9E75B46089A9D
:100E8000FFF70EFB0B9B9B5C0A9A521E0A92137093
:100E900050EA0102F2D10A98ADEB000000F1200BFC
:100EA000600702D524F4803401E04FF00109D945F0
:100EB00002DDA9EB0B0000E0002000EB0B01414438
:100EC0000890AAEB010AE00306D4DDE90F232146CE
:100ED000504600F063F806444FF0000908E009A905
:100EE00011F80900DDE90F12904709F10109761C9C
:100EF000C145F4DBE0030CD5DDE90F232146504664
:100F000000F04CF8064404E0DDE90F123020904771
:100F1000761C0899481E08900029F5DC08E00A981C
:100F20000A990078491C0A91DDE90F129047761C56
:100F3000BBF10001ABF1010BF1DC21465046DDE9CC
:100F40000F2300F019F806446D1C1BE60928010068
:100F5000303132333435363738396162636465662F
:100F600000000000303132333435363738394142F1
:100F700043444546000000002DE9F04104460025A9
:100F80001E461746880404D405E039462020B047A1
:100F90006D1C641EF9D52846BDE8F0812DE9F041AD
:100FA000044600251E469046C80301D5302700E0C0
:100FB0002027880404D505E041463846B0476D1C1B
:100FC000641EF9D52846BDE8F0810A68531C0B6001
:100FD00010707047006890FAA0F000BA00BA70472D
:100FE0000BA1012000F05EFF00F0B6FE00F0B8FE9D
:100FF0000028FBD100BEBFF34F8F0B4801680B4A9E
:1010000001F4E06111430160BFF34F8F00BFFDE7C2
:101010004150505F4552524F523A4552524F523A08
:10102000466174616C0D0A000CED00E00400FA05E5
:101030000EB500210091CDE901106A4644F201008D
:10104000FFF7CEFF0EBD00F003B800F009B80000B6
:1010500072B602480168491C016070470C0000200C
:1010600003490868401E086000D162B6704700005E
:101070000C000020002901DA0020704702681144AA
:1010800001600120704700002DE9F041461C012558
:101090000020FFF7D8FF1149741CD1E900208F68A8
:1010A000101A3B1A5B1C9C420FD963B10C480D4BC4
:1010B0003A4000681B6801EB820263F39F20D06016
:1010C0000868401C0860002501E0901908600020B5
:1010D000FFF7BBFF2846BDE8F08100006C0300204D
:1010E000A42C000014000020034803C8814201D151
:1010F00001207047002070476C030020006890FAC0
:10110000A0F000BA704700004FF080400021C0F806
:1011100000110121C0F80010D0F800110029FBD007
:101120007047000030B525A08BB00068089024A05F
:1011300024A100680990D1E90001CDE90601234806
:101140000024202544700570182221496846FFF7C5
:1011500073F901208DF800004FF41671ADF80C10F2
:10116000ADF80E008DF808001A48019002208DF8A5
:1011700001408DF809008DF814408DF81350684631
:1011800000F006FB002817D108A800F0CDFB0028CE
:1011900012D109A800F0DAFB00280DD1082106A819
:1011A00000F0E6FB002807D1022000F005FC002833
:1011B00002D1042000F010FC0BB030BDE7E7E7E7F8
:1011C000C2C2C2C2E7C2C3C4C5C6C7C85800002055
:1011D0008C2C00003D16000070B508240F25204619
:1011E00000F08FFC641CAC42F9D900245FF00105CB
:1011F00005FA04F010F4F01F02D0204600F081FC44
:10120000641C202CF4D370BD10B54FF480710348DA
:10121000FFF72BF902490020488110BD140100207E
:101220000000002008B5FFF7D7FF002000F010FFF6
:1012300008B1FFF7FDFEFFF767FFFFF773FF18B177
:101240004FF4B37100F0C4F901F080F900240125D6
:1012500005FA04F010F4F01F02D0204600F051FC13
:10126000641C202CF4D30FA1042000F01BFE0025E9
:101270001C4C6426A5701C4B202203F164011B4802
:10128000009600F09FF818B1FFF7D2FE00E020BFF3
:10129000A0780028FBD000BF00F062FD0028FBD141
:1012A000E8E700004150503A44454255473A456E00
:1012B00068616E6365642053686F636B4275727317
:1012C00074205472616E736D697474657220457810
:1012D000616D706C652072756E6E696E672E0D0A99
:1012E0000000000000000020A20000206C2C000084
:1012F00000283ED01F49204A096800BF00BF00BF38
:1013000000BF00BF00BF00BF00BF91422FD000BF91
:1013100000BF00BF00BF00BF00BF00BF00BF00BFD5
:1013200000BF00BF00BF00BF00BF00BF00BF00BFC5
:1013300000BF00BF00BF00BF00BF00BF00BF00BFB5
:1013400000BF00BF00BF00BF00BF00BF00BF00BFA5
:1013500000BF00BF00BF00BF00BF00BF00BF00BF95
:1013600000BF00BF00BF00BF00BF00BF00BF401EE6
:10137000C3D17047540000200024F4004907090E2F
:10138000002806DA00F00F0202F1E02282F8141DB4
:1013900003E000F1E02282F8001400F01F020121B6
:1013A00091404009800000F1E020C0F88012C0F8B0
:1013B000001170470121B1EB507F01D1012070472E
:1013C000002070472DE9F04706460F46007919497D
:1013D00000EB4000DDF820901D00904601EBC004BA
:1013E00014D09FB13846FFF7E5FF88B12846FFF7D4
:1013F000E1FF68B1607D68B1012818D0022809D0EA
:10140000032807D003252846BDE8F0870E20FBE718
:101410001020F9E7C4E90375C4F80080C4F804900B
:10142000002501222146306801F04CF9EBE7082540
:10143000E9E70000540200202DE9FC5F074600792F
:101440000D4600EB40014F483C6800EBC10A934653
:101450009AF8140010B10820BDE8FC9F287C0328EE
:1014600001D90720F8E7BBF1000F10D0286800264B
:101470004FF0FF38FF280CD0E97CCDE9001600239F
:101480001A46194600F02CFBD5F8009002E00E2019
:10149000E2E7C1466868FF2808D0002300961A4694
:1014A0001946019600F01CFBD5F8048000960196C1
:1014B0000022AB7C1146E86800F012FB0023009686
:1014C00001961A461946A86800F00AFBD5E90223DE
:1014D000C4F80825C4F81085C4F80C95C4F8143570
:1014E000C4F83465C4F83865C4F84465C4F8486580
:1014F000297C687C00B10120012904D0022905D093
:10150000032908D105E040F0020004E040F00400A7
:1015100001E040F00600C4F85405287DC4F85C05DD
:10152000687DC4F8C0054FF48271204600F0A7FD25
:101530004FF49471204600F0A2FDD4F8000240F070
:101540000400C4F80002387900EB40010D4800EBBC
:10155000C1014E753A7902EB420200EBC200C0F8BD
:1015600008B040F20240C4F80403A97D97F90500D1
:10157000FFF704FF01218AF814100220C4F80005C7
:10158000002069E7540200200D4910B54FF4705057
:1015900008600C490020487000F08AFE24210A48A7
:1015A000FEF763FF084809210A38FEF75EFF1420A2
:1015B000FEF7E4FF05490320C1F80002002010BD3A
:1015C00008F5014018000020920A00200010004099
:1015D00003460A4608A1012000F0B8FCBFF34F8F74
:1015E00014480168144A01F4E06111430160BFF33B
:1015F0004F8F00BFFDE700004150503A4552524F17
:10160000523A417070206661696C65642061742093
:101610006C696E6520256420776974682065727234
:101620006F7220636F64653A203078253038780D0A
:101630000A0000000CED00E00400FA057CB5064647
:101640000078234D20B1012807D0022836D112E0BE
:1016500020A1042000F026FC08E02A7A26A104201C
:1016600000F046FC00F07CF800F0CAF9287A28B3B4
:1016700000F046FF22E0284800F01AF9F0B9264CA5
:101680002078D8B125A1042000F00CFC2878A8B956
:101690002022611D04F29710FEF7CEFE217AE07938
:1016A000CDE90001A379627924A1032000F084FC34
:1016B000012028702021601DFEF7D7FE27494FF436
:1016C0007040086030790007000C091F08607CBD7D
:1016D000000000204150503A44454255473A455396
:1016E00042205458205355434345535320455645B3
:1016F0004E540D0A000000004150503A44454255F6
:10170000473A455342205458204641494C454420CD
:101710004556454E540D0A007D0000204150503A78
:1017200044454255473A525820524543454956454B
:1017300044205041594C4F41440D0A004150503A09
:10174000494E464F3A7278206D656E6720256420B9
:101750002564202564202564200D0A000C05005016
:10176000094810B5007860B10120FEF707FF07486F
:1017700000218162016241620120FEF70AFF002020
:1017800010BD082010BD000018000020C408002073
:1017900070B5050076D03C4C207818B1FFF7F4FE08
:1017A00000286DD16868A061182229463748FEF7E5
:1017B00043FE0025656024213548FEF756FE344877
:1017C00009210A38FEF751FE01F0D4F900F070FD4E
:1017D0002E490020183101F5947200BF00EB800300
:1017E00003EB40130B4442F82030401C0828F5DB83
:1017F0002849002001F5947200EB800303EB4013AD
:101800000B4442F82030401C0828F5DB2249042014
:101810000860214808380560204840F20221C0F8DD
:101820000012204A1E491160111D08601C48001D4D
:10183000091D08601948001D091D0860091D1A4886
:1018400008601748F038091D08601748001D091D79
:101850000860091D154808600C4E707C00F00301FB
:101860000120FEF7ACFEB07C00F003011420FEF76F
:10187000A6FE1420FEF78DFE65700120207000206A
:1018800070BDFFE70E20FBE7180000208407002052
:10189000920A0020F008002010A5004000A000409F
:1018A0000011004060F5014040A1004000100040E0
:1018B00070B505461A48007860B36DB3194CA06A3C
:1018C00060B30120FEF75AFE606A54F820100A78CF
:1018D0002A7054F820104978697054F820108978DB
:1018E000A97054F820100979297154F82010681D46
:1018F000491DFEF7A1FD606A401C6062082801D303
:1019000000206062A06A401EA0620120FEF741FE36
:10191000002070BD082070BD0E2070BD052070BD78
:1019200018000020180A0020074910B54A780AB1AB
:10193000112010BD30B100688862012001F0F2F87A
:10194000002010BD0E2010BD18000020074910B562
:101950004A780AB1112010BD30B10068C862022077
:1019600001F0E0F8002010BD0E2010BD180000208E
:1019700010B50C460F49497809B1112010BD18B1B6
:10198000092C03D3072010BD0E2010BD01460948C5
:1019900022463030FEF750FD0648C4F108022830D8
:1019A000FF210474D1408174042001F0BBF80020B1
:1019B00010BD0000180000200649497809B1112027
:1019C00070477D2801D90720704702492831C87423
:1019D0000020704718000020074910B5497809B168
:1019E000112010BD05498A7A824202D0887201F026
:1019F00007F9002010BD0000180000208407002017
:101A0000074810B5407808B1112010BD0548806A1C
:101A100018B100F0A5FE002010BD4FF4807010BD7D
:101A200018000020C40800202DE9F041284F064688
:101A3000387840B156B1307868B120280BD8254DA0
:101A4000297829B109E00820BDE8F0810E20FBE7E4
:101A5000E97C884201D90920F6E71F4CA06A0828D2
:101A600001D30420F0E7687818B9F07808B1287D30
:101A700018B30120FEF782FD206A2522314654F872
:101A80002000FEF7D9FC72781448815C491C01F0F3
:101A900003018154206A54F82020401C0828117149
:101AA000206201D300202062A06A401CA0620120B5
:101AB000FEF76FFD687810B107E00620C4E7287CC8
:101AC00018B9787808B900F04BFE0020BCE7000098
:101AD0001800002084070020C4080020880A002085
:101AE00030B541EA4201DDE9034541EA8301800066
:101AF00041EA042100F1A04041EA0541C0F8001785
:101B000030BD0321800000F1A040C0F800177047ED
:101B100000487047591B0000F8B50B4C054620786B
:101B200020B16078854201D10020F8BD0126330242
:101B3000064A07A100200096FEF780FD08B10820A4
:101B4000F8BD26706570EFE7100000206C020020E1
:101B50004E6F726D616C00002DE9F04FC1B008004E
:101B60009046DDF82CB14D994FF000021C460BEB6E
:101B70000109409201D00A2500E000256F46ACB96A
:101B8000394640AA00F076FE002866D04046FEF7AF
:101B900077FCC22800D9C220064640983246384415
:101BA0004146FEF749FC4098304440904FF0200AEF
:101BB0004098421931320DEB02016844002202E0E4
:101BC00000F801AB521CAA42FAD300274C4508D3B7
:101BD00000F801AB00F801AB00F801AB01F801AB74
:101BE00026E05C4502D24A9A125D03E04C9AA4EBCF
:101BF0000B03D25C84460126B30022FA03F808F0F6
:101C00000F03092B01D9373300E03033C6F1010847
:101C1000761E0CF80830EFD20CF10200A2F120037E
:101C200000F801AB5E2B00D92E2201F8012B641CB9
:101C30007F1C102FCAD30D220A700A224A7080F826
:101C400000A04098411943316846409100F0A8FB3C
:101C500018B1002040904C45AAD341B02046BDE8C1
:101C6000F08F2DE9F041C6B090460846002504AE3D
:101C70001C464C9F314644AA449500F0FBFD0028C9
:101C80002ED0072F22D2DFE807F00412192E384495
:101C900051004046FEF7F4FB449905460844FF28EE
:101CA00014D870182A464146FEF7C6FB0EE0449849
:101CB000226830444146FEF733FF06E0D4E90023B2
:101CC000449841463044FEF72BFF0546294644A878
:101CD000FFF7D0F918B14499B1F5807F33D90020CE
:101CE00046B0BDE8F081A0680090D4E90023449894
:101CF00041463044FEF714FFE7E7D4E90201CDE99D
:101D00000001D4E90023449841463044FEF708FF1F
:101D1000DBE704F1080007C88DE80700D4E90023D9
:101D2000449841463044FEF7FBFECEE704F108003C
:101D30000FC88DE80F00D4E9002344984146304491
:101D4000FEF7EEFEC1E704A800F02AFBC8E700009A
:101D500000487047631C00000120FFF7DDBE000053
:101D60002DE9F04F87B0FFF7BFF918B1002007B099
:101D7000BDE8F08F454ED6E9014704EA070006EBBF
:101D80008000A146641CC5680CE000BFC5F3891043
:101D900000EB9550044404EA070006EB8000A146DE
:101DA000C568641CA807F1D005F003004FF0000BD4
:101DB000022805D0AA0A01A8C5F38313002153E025
:101DC00004EA070006EB800004F1010A0AEA0704AE
:101DD000C268381B80004FEA9558001DC5F389136F
:101DE000804521D929490C3138B106EB840400F033
:101DF000FF0CA8EB00000C3404E00C46002108F0B6
:101E0000FF0C0846C0B2CDE90210CDE9004CD6F86F
:101E10001444C5F3C2005946A047404511D108F10A
:101E200003080AEB98042AE0002106EB84000C303A
:101E30000090CDE901810391C5F3C200D6F81444A6
:101E4000EAE760F38F1509EA070006EB8000C5603A
:101E500016E000BF04EA070C06EB8C0C491CDCF80A
:101E60000CC040F804CB641C9942F3D3C5F3C20004
:101E70000093D6F8105401AB5946A84700B17460DE
:101E8000FFF732F980F0010071E700006C030020D9
:101E9000034AFF23936000231360536000F0D0B81F
:101EA0006C0300202DE9F047DFF83C800446002653
:101EB00089463046D8F80870D8F80050FFF7E4F8A3
:101EC00000280ED0094800213D40406861F382009F
:101ED00064F3C50066F3891008EB850169F39F2060
:101EE000C860BDE8F08700006C030020A42C00004F
:101EF0002DE9F047DFF84C800546012792468946D8
:101F00003846D8F80860D8F80040FFF7BDF8002838
:101F100015D00D48002104EA06028068641C61F3B4
:101F2000820065F3C50067F3891008EB8202344034
:101F300069F39F2008EB8401D060C1F80CA0BDE8D4
:101F4000F08700006C030020A42C00002DE9F05F56
:101F5000DFF85C80064602279B4692468946384653
:101F6000D8F80850D8F80040FFF78EF800281CD0A9
:101F70001048002104EA0502C06808EB820261F300
:101F8000820066F3C50067F3891069F39F20641C23
:101F9000D06004EA0502641C08EB82022C4008EBC6
:101FA0008401C2F80CA0C1F80CB0BDE8F09F00009D
:101FB0006C030020A42C00002DE9F05FDFF878808E
:101FC000064604279A46934689463846D8F808506C
:101FD000D8F80040FFF758F800282AD01748002109
:101FE00004EA0502406908EB820261F3820066F3AD
:101FF000C50067F3891069F39F20641CD06004EA70
:10200000050208EB8202641CC2F80CB004EA050267
:1020100008EB8202641CC2F80CA004EA050208EB7B
:102020008202641C0A982C40D06008EB84010B9853
:10203000C860BDE8F09F00006C030020A42C0000E5
:10204000024A02F5826203C2704700006C0300205E
:1020500070B506460020FFF75FFD040008D1FFF7CA
:1020600057FD0546FFF774FE32462946FFF710FF7D
:10207000204670BD4058002800D00120704708B5A8
:10208000002242504058009008BD4058002800D01F
:102090000120704708B5002242504058009008BD0A
:1020A000D0F80403084000D00120704740580028B1
:1020B00000D00120704708B50022425040580090DF
:1020C00008BD000070B5164A40F21310C2F80002B5
:1020D000144C606A14490860144B091D98898238B1
:1020E00008601348012140F80C1F0021C0F834118A
:1020F000C0F838110F4D4FF4E050286050142D1DDA
:102100002860C2F80C11187810B92169002088479E
:102110000A49094808600A48A0600320607070BD41
:10212000001000401800002040A500408407002057
:1021300000A0004004F50140660A0020041500409C
:102140008121000010B50C4C606840F00100606017
:1021500000F0C6FB0948806A30B11420FEF724FA6B
:10216000BDE8104000F0FCBA00206070BDE81040EF
:102170001420FEF719BA000018000020C40800203F
:102180002DE9F04740494FF4E05008603F4AD2F84B
:102190000C31DFF8FC9000273E4CB9F80E004E14CD
:1021A000DFF8F4800125DBB33C4B1B68C3B36560EB
:1021B0000E60D8F8041041F00101C8F80410D8F8F6
:1021C0001C10401A401CC8F8200000F089FB99F848
:1021D000000080B109F2E220007860B13048006868
:1021E0000021C0B200F098F828B1D8F8040040F0FF
:1021F0000400C8F804002B48806A50B199F8100018
:10220000012806D01420FEF7CFF9BDE8F04700F012
:10221000A7BA88F80170BDE8F0471420FEF7C4B9EA
:10222000D8F81CC0BCF1010CC8F81CC00BD265600A
:102230000E60401CC8F82000D8F8040040F00200EE
:10224000C8F80400E5E740F21B111746C2F8001277
:10225000D8F81400D8F810100078884710491248B0
:10226000283908601148C8F80800022088F80100E1
:1022700025600548001F0660D4F84401002800D0FE
:102280003D60BDE8F087000008F501400010004007
:102290008407002000A00040180000200014004027
:1022A0002C150040C4080020440A0020C52000006E
:1022B0000549002008624862886201F5AA71086237
:1022C0004862886270470000C408002070B5054667
:1022D000C87D0C4600284FF4847128460AD0FFF7C9
:1022E000D9FED5F81805627EE1688854607E401CEE
:1022F000607670BDFFF7CEFED5F8180570BD1FB52E
:1023000001238DF800308DF808100192D0E90012F9
:10231000684690471FBD00002DE9F0411E4C07465E
:102320000E46A06A082835D2A4F5257220461378F7
:102330000025006A02F2E221012B03D0537843B159
:10234000D27C02E00A78202A24D854F820301A706F
:1023500002E054F82020157054F82000891C10F871
:10236000052BFEF769F8206A54F820104F700B49CE
:10237000096854F82020917054F82010401C082857
:102380000E71206200D32562A06A401CA062012069
:10239000BDE8F0810020FBE7180A00204815004046
:1023A0002DE9F041002507464FF001080C460A26AA
:1023B000791922460020FEF769F90544241A08B964
:1023C000761E01D0002CF3D14046BDE8F08100001C
:1023D0002DE9FC41C0B2012858D1344CCAB234A115
:1023E000E2700320FFF784FDE07800270126202813
:1023F00003D831E06420FEF77BFFE0786189C0F507
:1024000080708842F6D3E0790028F3D13048007814
:102410006072A67100F088F9A771207A68B9254624
:102420002672E0781E21B0FBF1F201FB1202B0FB34
:10243000F1F002B1401C2871667100F061F8A670DD
:1024400064212348FEF711F8207808B1607828B19C
:10245000607802281CD014E02671EDE71D496670F3
:102460002022A1F58770FDF7E7FF19486430C27894
:102470008178CDE900124378027817A10320FFF795
:102480009BFD6078012801D102206070BDE8FC81CD
:102490006770277020210F48FDF7E7FFBDE8FC417A
:1024A0000B4820216430FDF7E0BF00000000002051
:1024B0004150503A494E464F3A73706973207278D2
:1024C000206C656E6774683A2025640D0A00000070
:1024D000A2000020140200204150503A494E464FBD
:1024E0003A73706973207478206461746120697331
:1024F0002025642025642025642025640D0A000021
:1025000070B5104C104D207901280CD000F08CF8DB
:102510000020E8700C48FFF787FA6079217988423B
:102520000DD2401C0CE00849E2784A31681DFDF7E5
:1025300083FF054864214A30FDF797FFE8E7012053
:10254000607170BD000000205800002000B587B009
:10255000FEF75AFE182212496846FDF76DFF1D204E
:1025600003901C2000901E2001901B2002900C481C
:102570000C4A69460838FEF75FFF08B1FEF758FDC0
:1025800064210948FDF771FF074820216430FDF7F9
:102590006CFF20210548FDF768FF07B000BD000073
:1025A000742C0000D1230000A2000020140200209F
:1025B00070B50D464FF4947604463146FFF75AFD48
:1025C000D8B131462046FFF75AFD687D012814D165
:1025D000E9682868C4F84415C0B2C4F848052969F8
:1025E0006868C4F83415C0B2C4F838050120A06288
:1025F00002222946204600F065F84FF482763146E3
:102600002046FFF737FD00280DD031462046FFF762
:1026100036FD687D022806D129462046BDE8704077
:10262000032200F04FB870BDF0B589B02021684694
:10263000FDF71BFF214CE2788DF8002061798DF8C1
:102640000110607A8DF80200012909D0C1EB011058
:1026500040001F38C3B200206D46194ED21A0BE05D
:102660000020F7E71F1805EB000C401CF75DC0B217
:102670008CF803701D2801D28242F3DC207981425C
:1026800003D012E06420FEF733FEA0790028F9D1D0
:102690000120E0716089E178401A0104090C618130
:1026A0004FF00000E07100D12072054820226946F9
:1026B000B738FDF7C1FE09B0F0BD000000000020F2
:1026C000140100204A75AFF300802DE9F0414A7DE6
:1026D0000D460121012A0ED0022A0FD0032A0BD168
:1026E00061F30704D0F83C15D0F84C05CEB2C7B260
:1026F000A86890B90EE04162BDE8F0810026A868A4
:1027000066F3070410B90020FEF792FC324611462A
:10271000AB6805E00020FEF78BFCAB683A4631461B
:102720002046BDE8F0411847F0B50B49CA784B89FF
:10273000C2F5807098420DD3084C002004F1720558
:1027400003E0275C1E18401CAF5516469042F8DB8C
:1027500098194881F0BD000000000020A200002070
:102760002DE9F05F3D4C4FF00109C4F820903C4842
:10277000DFF8F0B0A0F5A076416A3B4D4FF0110AAA
:1027800050F821106161307806F5307810B10128D9
:1027900041D110E0087821698847616908F1020099
:1027A0000A7988F80020002288F8012011F8052B0A
:1027B000FDF742FE15E0C87800B3307DF0B1002788
:1027C0000A7888F800200A7987F0010343EA420278
:1027D00088F8012011F8052B08F10200FDF72CFE06
:1027E00077B140F21B10C5F80002C5F804A3F089C8
:1027F000E0610220C4F808B060700CE00127DFE758
:1028000040F21310C5F800021020C5F80403174861
:10281000A06084F801906069154A417811604078A1
:102820004C4609FA00F0111D08600C481049283088
:102830002439C07C0860091FC1F800800120FDF721
:1028400092FE0120FDF7A5FE0020C5F80401C5F8A1
:102850000801C5F810012C60BDE8F09F18000020A9
:10286000C4080020C52000000010004045210000E1
:102870002C15004010B5144602004FF001000AD09C
:102880000846126805A1FEF74BF901462046BDE84F
:102890001040FEF7EFBB0021216010BD5B253038F2
:1028A000645D000070B50C4605464FF48E71FFF76D
:1028B000F1FBA18AA068415CA08A401CA082C5F8F7
:1028C0001C1570BD1FB500228DF800208DF8081072
:1028D000816801918275D0E90012684690471FBD5A
:1028E00010B50B4CA06A002811D00120FDF746FE60
:1028F000A06A401EA062606A401C6062082801D382
:1029000000206062BDE810400120FDF742BE10BD0E
:10291000C40800202DE9FF470C4605464FF400711E
:10292000FFF7BEFB01274FF40178002618B34FF4E0
:10293000927949462846FFF7A8FBE0B14946284668
:10294000FFF7A8FBC5F80883A07E00B96F600220DE
:102950008DF80000D5F88004C5F880040390E07D70
:102960008DF80800E0680190E6752676D4E900123B
:102970006846904727E004212846FFF791FB10B3F3
:102980004FF484712846FFF780FBE0B121462846CA
:10299000FFF79CFCE07D617E884214D1207E38B137
:1029A000617EE268E0752069E0602676667607E081
:1029B000A07E00B96F60C5F80883E675617EE268A5
:1029C0002046FFF79CFC4FF48E7841462846FFF7DF
:1029D0005CFB88B1A08AA17D884204D221462846AA
:1029E000FFF760FF08E041462846FFF753FBA17D53
:1029F00011B12046FFF766FF4FF4A2784146284602
:102A0000FFF743FB002812D041462846FFF742FB60
:102A1000A07E00B12F60E07D002808D0E675617EC1
:102A2000E26804B02046BDE8F047FFF768BCBDE8A7
:102A3000FF872DE9FF410C464FF492770546394652
:102A4000FFF734FB0026C0B139462846FFF733FBB9
:102A500002208DF80000D5F88004C5F880040390AA
:102A6000D5F83C058DF80800E0680190E6752676FB
:102A7000D4E900126846904724E04FF4887739463D
:102A80002846FFF713FBE8B139462846FFF713FB4A
:102A9000D5F83C05C1B2E07D884213D1207E60B1FB
:102AA000E268D5F8000220F02000C5F80002207E80
:102AB000E0752069E060267601E0E675E268204670
:102AC000FFF71DFC4FF4A27739462846FFF7EEFAD0
:102AD00068B139462846FFF7EEFAE07D38B1E67571
:102AE000D5F83C05E268C1B22046FFF708FC4FF478
:102AF000907631462846FFF7D9FA00280FD03146A4
:102B00002846FFF7D8FAA07D002808D0D5F84C0554
:102B100004B0C1B22046BDE8F041FFF7D3BEBDE826
:102B2000FF81000010B50446C00704D00F48FEF72F
:102B300051FA0F490860A00706D50C48001DFEF7A2
:102B400049FA0B49091D086060070DD50748083090
:102B5000FEF7D4FA06490831086004480C30FEF745
:102B6000CDFA03490C31086010BD00004000002080
:102B70001C15004010B500F043F81B481B49027AB1
:102B80000A601B4940235AB1012A04D0022A04D00A
:102B9000032A06D104E0302200E0FA224A6200E073
:102BA0004B6202781AB1012A03D1124A00E0124A9C
:102BB0000A610E4B427A24331A600C4B2C331C1FD3
:102BC000022A02D0012A05D009E04FF6FF721A60EE
:102BD0000A4A03E0FF221A6040F207122260C07C1A
:102BE0000969BDE81040084784070020101500401F
:102BF00018000020412C0000152C000021100100BD
:102C000002480349807A086070470000840700206A
:102C10000C150040084A074911600849497C491EC3
:102C2000090441EA0021014341F08070111D086050
:102C30007047000000010100141500404000002012
:102C400007490648086007480749407C401E41EA9A
:102C500000400349091D086070470000060003009A
:102C600014150040400000202000000100400040FA
:102C700000040000FF000000FF000000FF00000053
:102C8000FF00000000000000FFFF06000100000040
:102C90000000000001020000FA0001000001022013
:102CA00000000000290000000100000001000000F9
:102CB0000100000001000000010000000100000010
:102CC00001000000020000004F766572666C6F77AD
:102CD0000D0A0000F42C0000000000205800000045
:102CE000480B00004C2D000058000020E82E00008A
:102CF000580B000000000000000000000000000071
:102D00000000000000000000C82C000000000000CF
:102D100000000000000000000000000000000000B3
:102D200000000000000000000000000000000000A3
:102D300000000000E7E7E7E7C2C2C2C2E7C2C3C4BF
:0C2D4000C5C6C7C80805FF020090D003FC
:0400000500000401F2
:00000001FF
