:020000040001F9
:10F000003053002015F401001DF401001FF401002D
:10F0100021F4010023F4010025F4010000000000A8
:10F0200000000000000000000000000027F40100C4
:10F0300029F40100000000002BF401002DF4010070
:10F04000A1F701002FF40100E1FA01002FF4010003
:10F050002FF401002FF40100C5F501002FF4010089
:10F060002FF401002FF401002FF401002FF4010010
:10F070002FF401002FF401002FF401002FF4010000
:10F080002FF40100F9F701002FF401002FF4010023
:10F090001DF801002FF4010021F801002FF40100F8
:10F0A0002FF401002FF401002FF401002FF40100D0
:10F0B0002FF401002FF40100000000000000000008
:10F0C0002FF401002FF401002FF401002FF40100B0
:10F0D0002FF401002FF401002FF4010000000000C4
:10F0E0000000000000000000000000000000000020
:10F0F0000000000000000000000000000000000010
:10F1000000000000000000000000000000000000FF
:10F1100000000000000000000000000000000000EF
:10F40000DFF80CD000F082F8004800479D3302007E
:10F41000305300200648804706480047FEE7FEE7D5
:10F42000FEE7FEE7FEE7FEE7FEE7FEE7FEE7FEE7B4
:10F4300045F8010001F4010040EA01039B0703D0F5
:10F4400009E008C9121F08C0042AFAD203E011F823
:10F45000013B00F8013B521EF9D27047D2B201E0E5
:10F4600000F8012B491EFBD270470022F6E710B5C9
:10F4700013460A4604461946FFF7F0FF204610BD22
:10F48000421C10F8011B0029FBD1801A704730B5CF
:10F4900004460020034600E05B1C934203D2E05C7C
:10F4A000CD5C401BF8D030BD2DE9F05F0546002053
:10F4B00092469B4688460646814640241BE02846E5
:10F4C00041464746224600F042F853465A46C01A83
:10F4D000914110D311461846224600F029F82D1A02
:10F4E00067EB01084F4622460120002100F020F87A
:10F4F00017EB00094E41201EA4F10104DFDC484651
:10F5000031462A464346BDE8F09F0000064C074DB1
:10F5100006E0E06840F0010394E8070098471034E3
:10F52000AC42F6D3FFF770FFFC7A02001C7B0200AE
:10F53000202A04DB203A00FA02F1002070479140B3
:10F54000C2F1200320FA03F3194390407047202AA8
:10F5500004DB203A21FA02F00021704721FA02F37D
:10F56000D040C2F12002914008431946704770B55F
:10F570008C1810F8015B15F0070301D110F8013B5E
:10F580002A1106D110F8012B03E010F8016B01F8E5
:10F59000016B5B1EF9D12B0705D40023521E0DD43D
:10F5A00001F8013BFAE710F8013BCB1A921C03E08B
:10F5B00013F8015B01F8015B521EF9D5A142D8D3C3
:10F5C000002070BD2DE9FC5F0025DFF83891A846CA
:10F5D0004FF4807601242F46304604F093FD38B175
:10F5E000D9F80403204203D0304604F081FD2543BE
:10F5F000361D64007F1CB6B2082FEDD34FF4BE74E5
:10F60000204604F07FFD38B1204604F071FD3E48ED
:10F6100045F00045D0F800803C4E15F0FF0F15D0A6
:10F62000012700242F420DD009EB8401D1F81005E9
:10F63000D1F81015C0F3042056F82420C1F301417D
:10F6400002B190477F00641C082CEBD3002D56DAE2
:10F6500000200190401E4CE0701910F8501F90F9E6
:10F66000000021F0C004401C38D0012000FA04FA48
:10F670001AEA090F32D04FEA911B204601F0BEFF73
:10F6800056F82000009010B9BBF1030F26D1514667
:10F69000BBF1030F02D1019808430190A00000F1D3
:10F6A000A040D0F800071AEA080FC0F3014002D0CA
:10F6B000022802D012E0032810D1BBF1030F07D1BA
:10F6C00002281AD00221204604F004FD7F1CFFB25C
:10F6D000009818B1009A5946204690476D1C042D99
:10F6E000BAD3002F0BD008480068404507D08046A9
:10F6F0000198002781463D46AEE70321E3E7BDE8D8
:10F70000FC9F00000060004010050050EC2B002022
:10F7100000F01F02012191404009800000F1E0202B
:10F72000C0F88012704700F01F020121914040098B
:10F73000800000F1E020C0F88011704700F01F0247
:10F74000012191404009800000F1E020C0F8001143
:10F75000704700F01F02012191404009800000F134
:10F76000E020C0F80011704700F01F020121914015
:10F770004009800000F1E020C0F8001270474907FE
:10F78000090E002806DA00F00F0000F1E02080F8F2
:10F79000141D704700F1E02080F80014704700004D
:10F7A0002DE9F0414FF48077384603F0F5FF01244E
:10F7B000104EA50748B1384603F0F5FF0120C5F803
:10F7C00008037470002001F059FF4FF48277384627
:10F7D00003F0E2FF00280BD0384603F0E4FF0220DC
:10F7E000C5F80803B470BDE8F041012001F046BF40
:10F7F000BDE8F081D82B002007480021C0F8401157
:10F80000C0F84411C0F84811C0F84C11C0F80011FC
:10F81000C0F8041107F080BC0010014007F0F4BBF1
:10F82000074810B5406830B18047002807D0BDE8D0
:10F83000104000F095BDBDE8104003F04BBA10BD7C
:10F8400050220020F0B598480023021D01780125C0
:10F85000101D4FF08056062907D11478240704D1D3
:10F860000478C4F30314032C02D0062904D00FE05B
:10F870008F4F8E4C7C670EE01478240708D10478F3
:10F88000C4F30314032C06D0042C04D0052C02D09E
:10F89000062907D00EE0D6F84442864FC4F342341E
:10F8A0003C6002E01478240704D10478C4F3031404
:10F8B000032C02D0062906D011E07F4C276827F0E0
:10F8C000807727600EE01478240708D10478C4F309
:10F8D0000314032C06D0042C04D0052C02D00629D6
:10F8E0000AD011E04FF08044C4F80C31C4F8103154
:10F8F000704C241F236002E01478240704D104789C
:10F90000C4F30314032C02D0062905D00CE0694F80
:10F91000032464373C600AE01478240704D1047897
:10F92000C4F30314032C02D006290DD014E0634F56
:10F9300005243C60614C78342560604C08342360B9
:10F940003F243F1D3C6002E01478240704D1047872
:10F95000C4F30314052C02D0062957D068E0584997
:10F960000968584A11605649091D0968121D11603D
:10F97000534908310968121D116051490C31096859
:10F98000121D11604E4910310968121D11604C4959
:10F9900014310968121D1160494918310968494A32
:10F9A0002032116046491C310968121D116044491A
:10F9B00020310968121D1160414924310968121D66
:10F9C00011603F4928310968121D11603C492C31F2
:10F9D0000968121D11603A4930310968394A4032CC
:10F9E0001160374934310968121D116034493831CA
:10F9F0000968121D116032493C310968121D1160FD
:10FA00002F4940310968121D116002E01178090781
:10FA10000ED10078C0F30310032803D0042801D0CE
:10FA2000052805D1D6F85802274900F04F00086094
:10FA300021487438016841F470010160BFF34F8FB1
:10FA4000BFF36F8F4FF01021D1F80002002803DBC5
:10FA5000D1F80402002822DA1C4A15601C48046808
:10FA6000002CFCD01524C1F800420568002DFCD004
:10FA7000C1F8044201680029FCD013600168002924
:10FA8000FCD0BFF34F8F0C48F0380168114A01F4E5
:10FA9000E06111430160BFF34F8F00BFFDE70F49E5
:10FAA0000D480860F0BD0000E00F00F00DF0ADBAA9
:10FAB00000C007403C050040FCED00E0105600404F
:10FAC0000404001020C50040E40E004004E501409D
:10FAD00000E401400400FA050090D00364220020F5
:10FAE0000448017F04480029024901D007F023BCE3
:10FAF00007F092BB442C0020002000400FB4084BBC
:10FB000010B504A902AA039800F02EF8044602A931
:10FB1000002000F05AFA204610BC5DF814FB0000EB
:10FB2000CBFF010002E008C8121F08C1002AFAD169
:10FB300070477047002001E001C1121F002AFBD16D
:10FB4000704700000121202803DA81400548014068
:10FB500003E0402802DA2038814009B101207047D3
:10FB600000207047FC06FFBC2DE9FF4F8DB00F460B
:10FB70000546002606E025280BD0DDE90F12904748
:10FB80006D1C761C28780028F5D111B03046BDE8F0
:10FB9000F08F0024A246A1460122EC4900E0044374
:10FBA00015F8013F203B02FA03F00842F7D128780C
:10FBB0002A2810D06FF02F022878A0F130010929EF
:10FBC00014D80AEB8A0102EB410144F0020400EB75
:10FBD000010A6D1CF0E701CF5FEA000A03D544F487
:10FBE0000054CAF1000A44F002046D1C28782E2843
:10FBF00017D115F8010F44F004042A280ED06FF035
:10FC00002F022878A0F1300109290AD809EB8901CF
:10FC100002EB410100EB01096D1CF2E757F8049B70
:10FC20006D1C28786C280FD006DC4C2817D068286B
:10FC30000DD06A2814D104E0742810D07A280FD18E
:10FC40000DE044F400140AE044F4801401E044F4AC
:10FC500040146978814202D104F580146D1C6D1C3A
:10FC60002A786E2A1FD00CDC632A31D004DC002AEB
:10FC70008BD0582A11D1A3E0642A68D0692A0CD10C
:10FC800065E0732A2ED004DC6F2A73D0702A04D169
:10FC90009BE0752A6FD0782A6ED01046DDE90F12EE
:10FCA0009047761C50E1C4F30250022806D0032886
:10FCB00009D0042801CF09D0066045E101CFF11732
:10FCC000C0E9006140E101CF06803DE106703BE103
:10FCD00017F8040B8DF8000000208DF80100EB46AA
:10FCE000012003E057F804BB4FF0FF3061074FF0ED
:10FCF000000102D40DE008F10101884649450FDA00
:10FD00008045F8DB1BF808100029F4D108E008F161
:10FD1000010188468142FADB1BF808100029F6D160
:10FD2000DDE90F23AAEB08008146214600F036F9F1
:10FD3000304400EB080604E0DDE90F121BF8010B6C
:10FD40009047B8F10108F7D221464846F7E00A216A
:10FD5000C4F302534FF0000B0891022B04D001CFE3
:10FD6000C117032B09D00AE0FF1D27F00707F7E8AA
:10FD7000020108E032E01FE020E000B2C117042BCE
:10FD800001D140B2C117031E71F1000307DA4FF031
:10FD9000000CD0EB0C006CEB01012D2302E02305DD
:10FDA00004D52B238DF82430012303E0E30701D091
:10FDB0002023F7E7984658E00A2110E010210EE0D2
:10FDC00010204FF0000B08900CE010214FF0000BBA
:10FDD00044F004044FF00809089103E008214FF0B3
:10FDE000000B0891C4F30253022B04D001CF002171
:10FDF000032B06D006E0FF1D27F00707F7E80201F6
:10FE000003E080B2042B00D1C0B24FF000082307FA
:10FE10002BD5702A07D0DDF820C08CF0100C5CEADE
:10FE20000B0C05D00EE040238DF82430012308E0B0
:10FE300050EA010306D030238DF824308DF82520B8
:10FE400002239846DDF820C08CF0080C5CEA0B0C0D
:10FE50000BD150EA010301D1630706D530238DF899
:10FE600024304FF00108A9F10109582A04D038A222
:10FE70000B9208AA0A920BE03AA2F9E75B46089AAD
:10FE8000FFF712FB0B9B9B5C0A9A521E0A9213709F
:10FE900050EA0102F2D10A98ADEB000000F1200B0C
:10FEA000600702D524F4803401E04FF00109D94500
:10FEB00002DDA9EB0B0000E0002000EB0B01414448
:10FEC0000890AAEB010AE00306D4DDE90F232146DE
:10FED000504600F063F806444FF0000908E009A915
:10FEE00011F80900DDE90F12904709F10109761CAC
:10FEF000C145F4DBE0030CD5DDE90F232146504674
:10FF000000F04CF8064404E0DDE90F123020904781
:10FF1000761C0899481E08900029F5DC08E00A982C
:10FF20000A990078491C0A91DDE90F129047761C66
:10FF3000BBF10001ABF1010BF1DC21465046DDE9DC
:10FF40000F2300F019F806446D1C1BE60928010078
:10FF5000303132333435363738396162636465663F
:10FF60000000000030313233343536373839414201
:10FF700043444546000000002DE9F04104460025B9
:10FF80001E461746880404D405E039462020B047B1
:10FF90006D1C641EF9D52846BDE8F0812DE9F041BD
:10FFA000044600251E469046C80301D5302700E0D0
:10FFB0002027880404D505E041463846B0476D1C2B
:10FFC000641EF9D52846BDE8F0810A68531C0B6011
:10FFD0001070704710B560B159B102780B785208B3
:10FFE000B2EB530F05D10622401C491CFFF74FFA14
:10FFF00008B1002010BD012010BD2DE9FC470025EF
:020000040002F8
:1000000017880646158090F82D001446894630B1B1
:100010003A462146484600F043FE050009D1B07833
:100020004FF00C0A18B32088C846001DB84202D908
:100030005046BDE8FC87684679DF0028F9D1208862
:10004000032108F8001020881921401C80B220806C
:1000500008F800102088401C80B2208000EB0801C6
:10006000BDF8000007F0DFF9218808442080F0780F
:100070000222C8B1218896F9033001F1030C4846E9
:10008000BC45D5D8425421884FF0010C491C89B297
:10009000218000F801C02188491C89B2218009F81B
:1000A00001302088401C20807068B8B1218890F908
:1000B000003001F1030C4846BC45B9D842542188B0
:1000C0000A22491C89B2218042542188491C89B2E4
:1000D000218009F801302088401C2080308950B1EF
:1000E000CDE900474B460622022106F1080007F041
:1000F000F3F905009DD1308A50B1CDE900474B4658
:100100000722032106F1100007F0E6F9050090D15F
:10011000308B50B1CDE900474B461522142106F132
:10012000180007F0D9F9050083D1306A30B13B4699
:100130002246494601F00CFB0500DBD1706A30B164
:100140003B462246494603F063FA0500D2D196F8B1
:100150002C0038B13B4622464946304606F098FB13
:100160000500C7D1307838B13B4622464946304673
:1001700003F080FA0500BDD128465AE7134A002152
:10018000535C0BB1012203E0491C0629F8D300227D
:100190000F49012806D0022809D003280CD00428D2
:1001A00012D10DE0487810B10AB10120704788786B
:1001B00010B10AB102207047C87808B10320704717
:1001C000087908B104207047002070478121002081
:1001D0004424002010B501220221002000F0E2FF9B
:1001E00008B1072810D107220221012000F0DAFF10
:1001F00008B1072808D100210A22084600F0D2FFE2
:1002000008B1072800D1002010BD70B58CB015468C
:100210000E4600236C46C3F10F01415CE1545B1CA8
:10022000102BF8D30D2104F11000FFF71EF9002068
:10023000C0F10F02315C2244401C11740328F7D333
:10024000684643DF0020C0F10F01214491F82010DF
:100250002954401C0328F6D30CB070BD0648006832
:100260004FF40021044A8143121D1160111D00F456
:1002700000200860704700000405005070B500249D
:10028000064D06E06868012110F8340003F006FD11
:10029000641C28788442F5D3002070BDF021002032
:1002A000F8B515460C460646052A01D20720F8BDCA
:1002B00003F0DAFD18B903F0A9FD0028F7D11049C1
:1002C00000204E600C70C1E902500E4D08610DE037
:1002D00006EBC4006968009181788DF80110007800
:1002E000094A694603F02CFD0028E0D1641EE4B2FF
:1002F000EED2BDE8F840054A0021024800F03CB8C3
:10030000F0210020C0790200D1260200111902005C
:100310000BA1012004F0EEF804F046F804F048F8D0
:100320000028FBD1BFF34F8F0B4801680B4A01F443
:10033000E06111430160BFF34F8F00BFFDE7000094
:100340004150505F4552524F523A4552524F523AE5
:10035000466174616C0D0A000CED00E00400FA05C2
:100360000EB500210091CDE901106A4644F201006A
:10037000FFF7CEFF0EBD0000074B5B6823B12AB12B
:1003800020B10068037C1BB108207047072070472C
:100390004174426100207047142200202DE9F0478B
:1003A000074698461446894690074FF0000526D127
:1003B0002CB305F063FF134E06F11000C6F80C8055
:1003C0000570457080F802904460756035707570F6
:1003D0001420FFF79DF906211420FFF7D0F914200F
:1003E000FFF7ACF90848076006211120FFF7C7F9AD
:1003F0000548001F0068B0600020BDE8F0870720B6
:10040000FBE7000004220020081501402DE9FC470D
:10041000DFF87890D9F8043073B368B3052902D2B5
:100420000720BDE8FC87436933B3437C012B25D00B
:10043000002704460025884616468DF80050684679
:1004400000F038F801A807F02FF8C8B101210170B9
:100450000F4944600968C0E90218C0E904769DF8B4
:10046000040089F801009DF8000000F047F814200E
:10047000FFF77AF92846D4E70820D2E70F46D8E7F5
:1004800004259DF8000000F039F8F3E7142200205D
:10049000041501400649496839B130B1416921B1BB
:1004A00000210174022106F013BE082070470000ED
:1004B0001422002030B5EFF3108172B60D4A946813
:1004C000012324B10370002900D162B630BD9360CE
:1004D0004FF0E023D3F88051074C25401560C3F856
:1004E0008041D3F8844154605A17C3F88421002214
:1004F0000270E8E7842C0020FC06FFBC0B498A68E8
:10050000002A11D000280FD1EFF3108072B60B68CB
:100510004FF0E022C2F800314B68C2F804310022EB
:100520008A60002800D162B670470000842C002049
:100530002DE9F04105460878214F012606FA00F022
:100540000C463860086803F0BBFD0021606803F0CA
:10055000AEFD28791B4901EB4010A169007F0028FE
:100560002868C0F8241519D0607D217D2A680843C9
:10057000C2F86C0518E00021A06803F098FD207B0C
:1005800086403E60E06803F09BFDD4E902122868D3
:10059000C0F80825C0F81015BDE8F081607D227D07
:1005A00029681043C1F86C05D4E900122868C0F826
:1005B0000C15C0F81425207D0128DCD0ECE70000E4
:1005C00008050050442C00202DE9F043044687B074
:1005D000008800F001FB8146208802F0EDFA214FEF
:1005E0008046667A208800223978A56800F042FBB0
:1005F000B9F1000F33D06079400711D5072140468B
:1006000004F0B2FCA0B108218DF80C1021880590EF
:10061000ADF80E10ADF8108003A801F077FA07E0EE
:100620002088B97800F012FB10B1404602F0B0FA11
:1006300003208DF800002088ADF802006079C0F337
:1006400080008DF80400A079C0F380008DF80500CB
:100650008DF806508DF80760684601F057FA07B02C
:10066000BDE8F083C4210020F0B50C4693B01F21F3
:100670000726ADF80010ADF80410002750B1C1787E
:1006800049070DD56A4602A9FFF7B7FC002808D133
:1006900002AD02E00025ADF800706CB1E07810B159
:1006A000304613B0F0BD01AA0AA92046FFF7A5FC09
:1006B0000028F6D10AAA02E00022ADF80470BDF8C5
:1006C0000400C3B2BDF80000C1B2284672DFE8E7FB
:1006D0002DE9F0471F46DDF82080134689460400C7
:1006E00042D0EBB3404D012000262870EE7020224E
:1006F00019463E48FEF7A0FEC5E904784FF6FF70A4
:100700002881AE613948AE83AE7738212030FEF7BC
:10071000ACFE3648217820300170A1788170E178F4
:10072000C170617841703149D4E90423C1E90C23D7
:10073000D4E90223C1E90A23D4E90623C1E90E233F
:10074000616AE1B100F1380100F1440241628A605E
:10075000636A1B880B80616A436A8988998000E01C
:1007600002E00021436A07E00E20BDE8F087656AD9
:10077000AD686D5C5554491C9D888D42F7D8A16ABF
:10078000D9B11A4A9032A2F10C018A608162A36A3F
:100790009B888B80A16A836A098819800021836AFB
:1007A00004E0A56AAD686D5C5554491C9D888D4276
:1007B000F7D894F82C1080F82C10216A49B10A4916
:1007C0000A310162226A52884A80216A026A0988D3
:1007D0001180616801B141604946BDE8F0470348B6
:1007E0002030FFF741BF0000682100204424002092
:1007F00010B50188144C102918D011291CD01B29C0
:1008000019D1007A002816D1E0780521401CB0FBF0
:10081000F1F201FB120000BF00F050F800280AD0EE
:100820006169002907D0BDE810400847C17B012954
:1008300001D18088208110BD0021617180882189CB
:100840008842F8D10120E7E76821002010B502288E
:1008500001D0032810D1094C607800280CD000206A
:100860006070E07800F02AF8002805D0616900295E
:1008700002D0BDE81040084710BD000068210020EC
:1008800010B574DF0B4C01200B4960710020E07142
:100890000620C87000210848FFF7E6FE002807D1AF
:1008A000E07800F00BF810B1616901B188470020D1
:1008B00010BD000068210020642400202DE9F041D3
:1008C0003D4C804686B0207848B184F8038004A867
:1008D00001F044FC0498012628B1667067E0082006
:1008E00006B0BDE8F0810025A561344FA583A5774A
:1008F000787810B1E078012806D0B87858B1E0785F
:10090000012801D0022806D1216919B126710820D9
:10091000884700E025714046FFF730FCE070216910
:1009200039B1032801D0042803D1387808B160799F
:1009300090B1A57100950295019503958DF8005031
:100940008DF808501C48E1781830052925D2DFE8D9
:1009500001F03008111D2100E571A67107208847BC
:10096000E8E7A67001908DF80060ADF80C50ADF886
:100970000A5014E00221A17001908DF80060B8893E
:10098000ADF80C003889ADF80A0008E0684605F0BB
:10099000C3FF02E0684605F0E3FFE07818B168465F
:1009A00073DF00289CD1216909B1A0788847002015
:1009B00096E7A570F7E70000682100204424002096
:1009C00070B5054601461C220F48FEF735FD0F4C59
:1009D00000262670286830B1016861604068A06018
:1009E000201D7ADF02E00948001D7BDF00280AD1C4
:1009F0004FF6FF7060806670BDE87040044A0021C9
:100A00000448FFF7B9BC70BDF42300205421002036
:100A1000317402001C79020070B51E4C0688002358
:100A20001B49E289102E15D01B4D112E1CD0122E01
:100A300029D0502E17D130F8061F914213D1418989
:100A4000022910D10C3000F07FFA88B1BDE8704067
:100A500000F0C4BE84884C800469CC6040690861A1
:100A60004B70002AF2D070BD4FF6FF7048804B707B
:100A70002868FFF70FFD0028F5D0A1690029F2D002
:100A8000BDE8704008478268CA60C0680861DDE759
:100A900054210020F42300201C79020002490A7D21
:100AA000091D05F021BD0000102400200246024867
:100AB000C17D001D05F005BD10240020024602483E
:100AC000017E001D05F0FDBC102400202DE9F0473B
:100AD000044603883F4801228CB000F1150A102B10
:100AE00009D0112B55D01A2B71D1217AB2EB111FDD
:100AF00054D2012353E0027D417D05468A43011D06
:100B000006A805F0F1FC142206A901A8FEF794FC42
:100B1000DFF8C0900026374609F114090DF10408EA
:100B20000AE000BF08EB46001D2283884946281DC5
:100B3000009705F08BFC761C0198B042F2D8287D16
:100B4000A688C043C0B205F0A3FCA0F57F41FF39E1
:100B500017D005EB40000123868032465146281D00
:100B600005F0E7FC012332464946281D05F0E1FC6B
:100B7000E07B02280BD000231649A2881631281DDD
:100B800020E00CB00420BDE8F047FFF7E9BB0123EB
:100B9000F2E70023A2885146001D13E000230D490F
:100BA0000546A2881731001D05F0C3FC207A0221FA
:100BB000B1EB101F01D2012300E000230549A288F8
:100BC0001831281D0CB0BDE8F04705F0B2BC0CB0E0
:100BD000BDE8F0871024002070B50A4E05460024B9
:100BE000317D2A46301D05F06CFC40B1B17D2A46AE
:100BF000301D05F066FC08B1022400E00124204607
:100C000070BD00001024002010B50024204606F01E
:100C10003FFC28B1641CE4B2182CF7D3182010BD97
:100C200003480122A240016811430160204610BD23
:100C30001024002010B5044606F02AFC002802D03B
:100C400001482044407E10BD1024002070B50546A8
:100C50000C46084606F01CFC002808D004482A462A
:100C60000119001D497EBDE8704005F02ABC70BD29
:100C70001024002070B5064615460C46084606F0BE
:100C800007FC002809D005482B4601193246BDE86B
:100C90007040001D193105F04CBC70BD10240020BF
:100CA0007CB5054608880C460930904201D90C20D5
:100CB0007CBD68466DDF0028FAD121880820685481
:100CC00020881B21401C80B2208029542088401C91
:100CD00080B220802844DDF801100160BDF80510C5
:100CE00081802088801D80B220809DF800104908F6
:100CF00000D0012129542088401C208000207CBD88
:100D00000878002809D0012805D0022801D005A1C3
:100D100004E00EA102E019A100E024A1032003F0E9
:100D2000E9BB00004150503A494E464F3A556E6B70
:100D30006E6F776E206576656E742066726F6D20BB
:100D4000626C655F6466750D0A0000004150503AA0
:100D5000494E464F3A496E6469636174696F6E200B
:100D6000666F7220424C455F44465520697320648B
:100D7000697361626C65640D0A0000004150503A6D
:100D8000494E464F3A496E6469636174696F6E20DB
:100D9000666F7220424C455F44465520697320655A
:100DA0006E61626C65640D0A000000004150503AAB
:100DB000494E464F3A4465766963652069732065FC
:100DC0006E746572696E6720626F6F746C6F6164B8
:100DD0006572206D6F6465210D0A000030B51A4BF5
:100DE0000D4604000FCB85B08DE80F002AD04DB31F
:100DF0001648214604604FF6FF70A08028682061E5
:100E000000202075A073684663DF002818D1207881
:100E10008DF812000120ADF81000A21C04A9A0DF7B
:100E200000280DD12946204605F05FFA002807D199
:100E3000012002F071FD002802D102F0C9FD00205E
:100E400005B030BD0E20FBE720790200882100208C
:100E500038B5002824D0002922D00A88102A1DD0B5
:100E6000112A1ED0502A33D0512A19D18A8883885A
:100E70009A4215D111F8062F022A11D14A88C38847
:100E80009A420DD10A7A042A0AD0062A08D0052AE5
:100E900006D0BDE83840891C03F0D2BC8988818027
:100EA00038BD828889888A42FAD14FF6FF718180E5
:100EB000007D0028F4D0BFF34F8F13480168134A18
:100EC00001F4E06111430160BFF34F8F00BFFDE704
:100ED000044631F8060F62899042E1D14889022820
:100EE000DED101F10C0000F02FF8A0732269002A76
:100EF000D6D008B1012000E002208DF8000069463C
:100F00002046904738BD00000CED00E00400FA05D3
:100F100010B50446FFF7DAFD204604F045FD2046F3
:100F2000FFF77AFD204600F06FF8204603F0F0FB53
:100F30002046FFF75DFC2146BDE810400148FFF761
:100F400087BF000050230020007800F001007047A8
:100F500000B5164889B00023006807905022144954
:100F600007A806F005F808B1FFF7FAF96A4601216B
:100F7000002005F0E7FF08B1FFF7F2F91720ADF800
:100F80001000684605F070FF08B1FFF7E9F909485D
:100F900005F060FF08B1FFF7E3F9074806F020F815
:100FA000002801D0FFF7DCF909B000BDDC780200B1
:100FB00000230020110F0200F56F02007CB5114ED6
:100FC0000C004FF00005306015D06946002000F09D
:100FD000B1F8002815D101A9012000F0ABF80028D4
:100FE0000FD19DF8041009B1022003E09DF8001014
:100FF00001B10B202070706810B9FFF7EBF80546BF
:1010000028467CBD4C21002010B51A4C0188606830
:1010100010290ED011292BD1401E606028D1FFF776
:10102000D9F8002824D02168002921D0BDE810403B
:101030000847D0B900210122084600F0B3F808B1F2
:1010400007280FD107220221012000F0ABF808B1D8
:10105000072807D104220221002000F0A3F820B1C4
:10106000072802D0216801B188476068401C606091
:1010700010BD00004C21002010B5032000F024FA20
:1010800008B1062800D1002010BD00002DE9F0476E
:1010900007460024244802E0641C042C41D250F886
:1010A0002420BA42F8D1042C3BD21F48DFF87C90B0
:1010B0001F4E0C38A9F1140841B301290FD00229A1
:1010C0002FD104EB440030444578002D29D0D8F8C6
:1010D0001010002925D02846BDE8F047084704EB4A
:1010E0004401755C0E44717861B1D8F804100F4A60
:1010F00001EB81014900133A8068FFF787F908B9CD
:1011000088F80170B17809F80410DEE78068FFF70D
:10111000C1F904EB4401314419F804008D78A84268
:10112000D3D0BDE8F0870000EC7802004821002011
:10113000A823002004280CD2074A1268074B13F892
:10114000203001209840904300D0012008700020FA
:1011500070470020FAE7000010050050EC7802000C
:1011600001460F4810B50088042907D007290ED082
:101170000A2914D1BDE8104005F014BC132176DF14
:101180000BE000280BD0BDE81040FFF7E9B8A0F550
:101190007F41FF3903D1FFF773FB0828F1D110BD60
:1011A0002821002070B50023042810D20D4D00EB3B
:1011B0004004012A02D101290CD00022094E00EB83
:1011C0004000304461B1012906D0022906D007232E
:1011D000184670BD0D30C2B22A55F9E74270F7E7E4
:1011E0008270F5E7A8230020044A01460020127A05
:1011F000D20702D0084600F055B8704734210020CD
:1012000070B50E462149054600200A61C1E9016515
:10121000A9071BD50024012211462046FFF7C2FF73
:10122000641C042C02D20028F5D00FE070B97208BB
:1012300004211748FFF734F840B9FFF71FF828B921
:101240001348144A00211438FFF796F8E9070AD02A
:10125000114A4FF4F01111600F4B00221B1D1A6050
:101260000D4A1032116000280FD109480B4A0021A5
:101270001C38FFF781F8002807D1BDE8704004480A
:101280000121074A1838FFF777B870BD34210020D4
:10129000FC7802009115020008050050012E0200A2
:1012A0005D0202002DE9F84F854EDFF810A24FF4E1
:1012B000E01CF16807462CEA010C009100207168DF
:1012C0000AF10404251D7F4B4FF400324FF4802BAC
:1012D00001EB810E8146182F16D2DFE807F00C17BC
:1012E000173A4E607083868F868FEAA0A0A0A0A0D8
:1012F000CAD1D8E1EAEA009A4FF4F0119143216093
:10130000C5F8009086F80090BDE8F88FC4F800C0DA
:101310004846C5F80090DAF800C08CF4F01C5FEA8B
:101320008C3C09D522602860022F02D14FF4E16085
:1013300008E04FF47A6005E02A602060022F3CD07C
:101340004FF4C8706422B0FBF2F0414337700022C2
:101350005EE0C4F800C04846C5F80090DAF800C066
:101360008CF4F01C5FEA8C3C04D5226028604FF4BA
:101370004870E7E72A6020601FE0C4F800C04846D4
:10138000C5F80090DAF800C08CF4F01C5FEA8C3CE1
:1013900002D522602860CCE72A602060D0E7C4F83C
:1013A00000C04846C5F80090DAF800C08CF4F01C84
:1013B0005FEA8C3CDED522602860C820C2E7C4F812
:1013C00000C04846C5F80090DAF800C08CF4F01C64
:1013D0005FEA8C3C02D52260286001E02A60206030
:1013E000377014E0C4F800C04DE0DAF800002BEAD2
:1013F0000002226000F48020286008E0DAF8000093
:101400002BEA0001216000F4802028607146002250
:101410001868BDE8F84FFEF7F9BF21602EE0984646
:101420005868FFF737F8D7F1110100D040B1F168E3
:1014300001F4F0112160C5F80090C6F80C9063E744
:101440004FF40022F26001290CD9C82011FB00F1F1
:101450006420B1FBF0F1706800224143D8F8040029
:10146000FEF7D4FFF16801F4F0112960C4F8009090
:101470004AE74FF4F0112160C5F80090377043E758
:101480004FF4E01121604946C5F8009006E04FF4A2
:10149000D01121604946C5F800905A462A60BCE741
:1014A0004FF4C01121604946C5F800904FF4C022A6
:1014B000F4E74FF4F01129604946AEE70405005007
:1014C00034210020E078020070B500210C4D012489
:1014D00055F82120920002F1A042D2F8006704FAE8
:1014E00001F3034000D0032326F4403646EA0343C9
:1014F000C2F80037491C0429EAD3002070BD00005F
:10150000EC780200002901DA0020704702681144DB
:101510000160012070470000F8B5461C00208DF8DE
:10152000000001256846FEF7C5FF1149741CD1E98A
:1015300000208F68101A3B1A5B1C9C420FD963B1C4
:101540000C480D4B3A4000681B6801EB820263F3C4
:101550009F20D0600868401C0860002501E09019B9
:1015600008609DF80000FEF7C9FF2846F8BD00009E
:10157000142F0020FC7902004C220020034803C8ED
:10158000814201D10120704700207047142F0020B4
:1015900000780221FFF77ABD05494FF0FF32082895
:1015A00041F8202002D3084480F84820704700000A
:1015B000EC2B0020F0B54FF0FF3512B100230826C8
:1015C00001E008230C260C4C05E000BF54F8237002
:1015D0007F1C04D05B1CB342F8D32846F0BD26180C
:1015E0005DB286F8305044F82310002AF5D1E11896
:1015F00081F84800F1E70000EC2B00200249084484
:1016000090F9300070470000EC2B002038B10549FC
:10161000814204D80449814201D901207047002049
:10162000704700006822002088220020044A0168D8
:10163000914201D0083101E0014938390160704719
:101640006C2D002070B504464FF6FF750A462846FB
:10165000AC4208D14FF480742146104604F060F982
:10166000A04209D070BDFF2CFCD82146104604F0E2
:101670004AF908B1204670BD284670BD70B5084CC7
:10168000050009D010342168002907D008682060BF
:10169000496828468847F6E70834F4E770BD00003B
:1016A000D82B00202DE9F05F26484168F1B3DFF820
:1016B00098B00E688146DBF8004087688078E11BAF
:1016C00021F07F45ED1CB0B9DFF880804FF4803009
:1016D000C8F84403C8F804031120FEF719F81120D4
:1016E000FEF72CF84FF0010AC8F800A02F2002F0F6
:1016F00063F889F802A0B54200D23546124BE819CA
:101700003C3320F07F401860DBF800105A46091B7C
:1017100021F07F41001B20F07F40C91C81420FD97E
:10172000106818602F2002F047F800E004E0BDE8E0
:10173000F05F1120FEF718B8BDE8F05F04F09EBD21
:10174000BDE8F09F04220020041501400010014074
:101750002DE9F04117880646B81D14460D469842FB
:1017600002D90C20BDE8F0813188072206290AD36E
:101770004FF4486C4FF6FF73614501D9994202D18D
:101780007088062801D21046ECE7604501D99842DE
:10179000F9D1994203D0984201D08142F3D8052073
:1017A000E85520881221401C80B2208029542088CE
:1017B000401C80B220804119308805F034FE218819
:1017C000084480B220804119708805F02CFE2188E1
:1017D000084420800020C5E7FEF7C2BDF8B51348D5
:1017E00001F0F0FA114D0026114C0C3D30B1616949
:1017F000B9B101208DF80000684611E0287820B1C9
:10180000616971B18DF80060F6E7687858B1A16838
:10181000084800220068FEF7F9FD10B1A16901B186
:1018200088472E70F8BD6168F2E700006021002053
:10183000F42300201C790200F0B54FF0FF3622B1EE
:101840001268D24300230A4D0DE03246FAE7C45C29
:1018500062400824D70700D037462F4087EA52025B
:10186000641EF7D15B1C8B42F1D3D043F0BD000066
:101870002083B8ED2DE9FF410C4618B1012004B0DA
:10188000BDE8F08120790027DFF87C80012638B19F
:1018900041F61D5501281ED0022829D00F20EEE761
:1018A00002970397E0680190694601A804F020FCC4
:1018B00068B102988188E18000882081029804F054
:1018C0008BFCBDF8002008EB02118E7300E00A20AB
:1018D00002212171D3E70D4B6A460021A01D04F0BF
:1018E000C3FB38B1094908398F60CF600A28C6D1D7
:1018F0002846C4E7019804F06FFC04498A8808EB85
:1019000002118E73F2E700007C2D00202C220020B3
:101910002DE9F04100260125144C22E0606822697F
:1019200000EBC607387805FA00F1114217D08A4358
:10193000226102F061FA02463878E36805FA00F1A4
:10194000194002FA00F3994209D17978012901D0AE
:10195000012100E0002151407A6802B19047761CD5
:10196000F6B220788642D9D3BDE8F081F02100207C
:10197000044A09B9002313705268002A00D01047A6
:1019800070470000E82100200E4910B50A784C7815
:101990000023A24212D0521CD2B20A70022A00D1F5
:1019A0000B70084A0B78183252F8232002608868BE
:1019B000104420F07F408860012010BD03600020AB
:1019C00010BD0000042200203EB5094D38CD8DE841
:1019D0003800ADF8041007498DF80620ADF8020074
:1019E00000220978FFF746F9684600F08FF83EBDFF
:1019F0009C790200C421002010B503780022072B37
:101A000006D2DFE803F00504060C1C252B000A7043
:101A100010BD01220A7002898A81828814E00222A4
:101A20000A7002898A818288CA81C2688A60007CC1
:101A3000062802D00020087410BD0120FBE7032215
:101A40000A70C2888A810289CA81C068886010BD14
:101A500004230B70C0888881CA8110BD05200870DE
:101A600010BD000070B5064D0646002455F8241040
:101A700009B130468847641C082CF7D370BD0000BC
:101A80009C2C00200EB5002911D011290FD0002266
:101A900000920292ADF8020001910D2908D00429AC
:101AA00008D009208DF80000684600F03DF80EBD12
:101AB0000B20F7E70A20F5E701490968084700000D
:101AC0009421002070B5054D06460024304655F897
:101AD00024108847641C022CF8D370BD487902009A
:101AE0002DE9F04107460024064E074D05E000BFF2
:101AF00056F8241038468847641CE8788442F7DB9F
:101B0000BDE8F081A4250020B421002070B5054D6A
:101B100006460024304655F824108847641C022CE1
:101B2000F8D370BD647902000149096808470000D4
:101B3000A87902007FB50446406858B100200390A0
:101B400020780026384D06285DD2DFE800F05C05DD
:101B5000052641690120F2E7A08900F0B3F918B920
:101B6000E08904F04BFB80B3A089A0F54040ADF8BC
:101B70000200A07B8DF8040020780128606806D060
:101B800048B104208DF80000606803901AE0002836
:101B9000F8D00320F6E70120F4E7A08900F092F9DD
:101BA00018B9E08904F02AFB78B1A089A0F540407B
:101BB000ADF80200A07B8DF80400606830B105200C
:101BC0008DF80000A06802901AE01CE00220F7E700
:101BD000A08900F077F9B0B1E089A0B9A089FF2110
:101BE000A0F5404080B2ADF802008DF804106168A5
:101BF00081B107208DF800006E70AE7003F072FBAB
:101C0000684603F047FA6878002802D06E7003F047
:101C100069FB7FBD06218DF8001003F0F1FBEBE7B7
:101C200008208DF80000EBE7A821002000B511493D
:101C300087B00978890702D4022007B000BDA0F55B
:101C40007F41FF3911D005218DF8001001218DF859
:101C50000410ADF8060000221146684602F07AFE34
:101C600028B104F0DBF90020E7E70420E5E70820CD
:101C7000E3E700002422002000B50E4887B000787A
:101C8000800702D4022007B000BD06208DF80000B6
:101C900000221146684602F05DFE40B10648017818
:101CA00009B10121017304F0B9F90020EBE7082024
:101CB000E9E70000242200209C2D002000B58DB013
:101CC00014216846FDF7D1FB1E480078810703D533
:101CD0006846FFF7C7FE33E0C00731D1012000F0AE
:101CE00015F900F0E3F902F0D1FE70B106280FD02B
:101CF00001218DF814100C281BD2DFE800F01A1017
:101D00001A101A181A181A1216120B200DB000BD4C
:101D1000022000F0FBF8012000F0DEF8D8E70020F8
:101D200000E003208DF8180003E00220FAE78DF8A8
:101D300018100022114605A802F00CFE04F06EF9FE
:101D40000020E3E72422002038B5040011D06946C2
:101D500004F0CEF988B10A48BDF8001000EB01107C
:101D6000818941B1A27A32B1491E81810020A072DD
:101D700038BD052038BD062038BD0A2038BD00001A
:101D80007C2D00201FB501A9684604F06DF904B050
:101D900010BD07B513460A466946002004F064F9F1
:101DA0000EBD07B513460A460021684604F05CF9EB
:101DB0000EBD20B119B100680860002070470520F1
:101DC0007047000038B50D46040015D0A5B169462E
:101DD00004F08EF990B10A49BDF80020606801EB6B
:101DE00002129189491C9181286060680C306860FA
:101DF0000120A072002038BD052038BD0A2038BD62
:101E00007C2D002018B10323002205F02DBC0520F5
:101E100070470223002205F027BC12B1022305F00F
:101E200023BC052070470000064A5178082906D0D7
:101E3000054B43F82100491C5170002070470C20CD
:101E400070470000242200209C2C002038B5044656
:101E50000A480D460078800701D4022038BD54B1ED
:101E60006946284605F010FD0028F7D1BDF800109E
:101E70002180658038BD052038BD00002422002067
:101E800010B504460D480078800701D4022010BD2B
:101E900084B1218802290FD8094800EB011042893A
:101EA0006088121A032A07D405F0E4FC0020208081
:101EB000608010BD052010BD042010BD242200202C
:101EC0007C2D002043F6FE71A0F54040884201D8E9
:101ED000012070470020704702490A7882430A7047
:101EE000704700002422002010B50446007818280E
:101EF00002D1FEF789FE207010BD10B504460078AF
:101F0000182802D1FEF780FE207010BD02490A7821
:101F100002430A70704700002422002070B5134667
:101F2000002206461546042905D0112901D019B111
:101F300070BD012500E001220D4C73B16179FEF7FF
:101F400099FE2A4621793046FEF794FE00226178F8
:101F50003046FEF78FFE002203E06178FEF78AFE2E
:101F60002A4621783046BDE87040FEF783BE000067
:101F7000C821002010B5080003D0BDE81040FEF7CE
:101F8000EFB9074807A1826D032002F0D9FA104C7F
:101F900013212068808876DF21680120087510BD34
:101FA0007C2A00203A494E464F3A4F627461696E6E
:101FB00065642073657474696E67732C20656E7434
:101FC0006572206466752069732025640A0000002C
:101FD00088210020F8B506461A481F4615460078A5
:101FE0000C46C00708D03046FFF710FB30B13CB1BB
:101FF000200507D00620F8BD0120F8BD0220F8BD5D
:102000000320F8BD3068A04204D8716804EB0530A5
:10201000884201D90520F8BD7DB1684603F04CFF28
:1020200068B100980221C0E900670172210B81812B
:10203000058204F003F80020F8BD0420F8BD072055
:10204000F8BD00003C220020084603F051BF00000C
:1020500070B50E4C06460D00206820F0010020608F
:102060000FD00BA1032002F045FA206840F00200D7
:1020700020607268002A07D029463046BDE87040CB
:10208000104720F00200F3E770BD0000302100206F
:102090003A494E464F3A47656E65726174696E679C
:1020A000206661696C7572650D0A00002DE9F047C4
:1020B0002748284C4FF01021001B0209496910469F
:1020C0004B1C03D14FF0805149690903DFF888A008
:1020D0009AF80070FB0702D00020BDE8F0870023CB
:1020E000A14607E009EB0314256815B1646804B143
:1020F000401E5B1C9342F5D3002422E0002504F02F
:10210000FF0C2B4613E000BF09EB0316D6F8008046
:10211000B8F1000F04D0D6F80480B8F1000F05D153
:10212000767BAE4202D9354603F0FF0C5B1C93422E
:10213000EAD309EB0C13641C59601D7BA1EB05313C
:1021400019608442DAD347F001018AF80010C3E72E
:1021500088220020682200203C22002020B1034970
:10216000496E01600020704703207047AC2D0020AD
:102170002DE9F84307461D48DDF820801E4600780B
:1021800015460C46C0070CD03846FFF73FFA50B151
:102190005DB154B145EA0400800708D00620BDE8CF
:1021A000F8830120FBE70220F9E70320F7E738680E
:1021B000A04204D8786804EB8601884201D2052049
:1021C000EDE77EB1684603F077FE68B10098012123
:1021D000C0E900780172C0E90354868203F02EFF43
:1021E0000020DCE70420DAE70720D8E73C220020C3
:1021F00070B5174A17490446106E0B7800EB400083
:1022000002EBC0009D0715D5022C02D0032C1BD178
:1022100002E002F075FB17E04A78521CD2B24A7015
:10222000032A11D900224A70082104F057FA03F05A
:102230002DFE09E0580707D523F004000870526E00
:1022400012B140F002000870BDE8704003F0AEBE6D
:10225000AC2D00203C22002070B508B1012070BDDB
:10226000184C0025207B08B1257301E000F0A2F88E
:102270002078082824D2DFE800F02304080C10237B
:10228000141EBDE8704000F01FB8BDE8704000F0BB
:102290007FB8BDE8704000F061B8BDE8704000F064
:1022A00037B808496088203901EB00104068BDE864
:1022B000704002F0CBBB6560BDE8704002F0D4BB5B
:1022C0000F2070BD9C2D00201049F0B48A1C002006
:1022D0000346A1F120050C18A67A3EB1A37205EBC6
:1022E0000014A68916B9A47B012C0AD0401C80B228
:1022F0000228F0D30B704B804B60F0BC41F61D50B0
:1023000070471080F0BC00F043B800009C2D002006
:1023100010B50F4CA4F12001608801EB00108189F9
:1023200061B1052020700B480221002381800168E3
:10233000BDE8104001220848FFF74CBE4168002369
:1023400001220548FFF746FE0421217010BD000060
:102350009C2D0020342200207822002038B50A4924
:10236000084803240B684268898803EB810153887D
:1023700004700020DB1C00909BB20448FFF7F8FEBD
:1023800038BD00009C2D002034220020782200203F
:10239000074910B54888091D03F0F8FE18B1BDE8DB
:1023A0001040FFF7DBBFBDE81040FFF7B1BF0000F2
:1023B0009C2D0020F0B51D481D49012506780224FA
:1023C0008B88A0F12002082E18D2DFE806F004174F
:1023D000171A212C2C160189491C018100214180EA
:1023E00080F80C1002EB01131B7843B10023441852
:1023F000491C89B2A3720229F4D30570F0BD0123F0
:10240000F5E742685288D21C1A448A800470F0BDF5
:1024100046880D6802EB061256680E6055601381FF
:102420008C80062100E007210170F0BD9C2D00206A
:1024300034220020F0B504460088384D8DB0502875
:102440001ED0522802D0542828D103E0A08800F0E2
:1024500015FF23E006208DF81400A08800F0ACFBE7
:10246000ADF81600A188ADF8181000F05DF9A0884D
:102470000022E978FEF7FEFB05A8FFF71DFB0DE043
:10248000207B01280AD1A07A012807D12089A0F554
:102490002451023902D1A08800F02AFFA878FEF763
:1024A000C9FBC8B108A8FEF7F9FA142208A96846C2
:1024B000FCF7C2FF00246E460BE000BF06EB4407AA
:1024C000A978B888FEF7C2FB10B1B88800F0D6FE34
:1024D000641C0098A042F1D86878FEF7ABFBC8B145
:1024E00008A8FEF7DBFA142208A96846FCF7A4FF47
:1024F00000246E460BE000BF06EB44076978B888FD
:10250000FEF7A4FB10B1B88800F0F2FE641C00983E
:10251000A042F1D804F024F90DB0F0BD8C210020C8
:102520003EB504464088ADF802002078A8B10128E5
:102530001FD0022810D1207900280DD0608800F02B
:102540007BFAA0F57F41FF3906D00F490122C978F7
:10255000FEF790FB04F004F93EBD00208DF800006A
:102560006846FFF7A9FA608800F066FA00F086FE78
:102570003EBD01208DF80000A088ADF8040068463B
:10258000FFF79AFA3EBD00008C21002010B50446EA
:10259000007801280FD1608800F070FE608800F09C
:1025A00089F9002807D0044960880122C978BDE86C
:1025B0001040FEF75FBB10BD8C21002010B5104C01
:1025C00000202070FEF720FB6070FEF71DFBA0705E
:1025D000FEF71AFBE070FEF717FB207161781829EF
:1025E0000BD0A178182908D0E178182905D018282F
:1025F00003D001202070002010BD032010BD00007A
:102600008C2100202DE9F04186B000F0A5F8684645
:10261000FEF744FA00246D464FF6FF77DFF834806A
:102620000FE000BF05EB4406B08800F0C5FAB842E1
:1026300005D1B088012298F80310FEF71BFB641C3B
:10264000A4B20098A042EDD804F08AF806B0BDE824
:10265000F08100008C2100200178072902D14088F8
:1026600000F046BE7047000010B504460A484178A5
:102670002046FEF7EBFA68B10848002101EB410261
:1026800000EB82025288A24201D1C8B210BD491C9F
:102690000829F3D3FF2010BDA4210020F42400203A
:1026A00070B5094D094E002404EB440005EB800091
:1026B00071784088FEF7CAFA20B1641C082CF3D365
:1026C000FF2070BDE0B270BDF4240020A4210020E2
:1026D0002DE9F041124E07460125BD403068FDF757
:1026E000D9FE00280DD10F4C2069284207D1384669
:1026F00001F082FB0028E06805D0284304E0A843ED
:102700002061BDE8F081A843E06020692843206192
:10271000A1683068BDE8F0410022FDF777BE0000F7
:10272000C0790200F02100201CB5054AD2E902124E
:10273000CDE900120022694602F079FB1CBD0000C1
:102740003479020003484FF6FF7181800121017046
:10275000002070479821002010B54FF6FF7002F05E
:102760009DFA03498880BDE8104004F025B80000B8
:10277000982100202DE9FC41804600F01DFA00243C
:1027800003250127A0F57F412646FF3908D06A4678
:10279000082102F027FB18B90198841D8688056876
:1027A00032462B4621464046A9DF042804D008289B
:1027B00004D00B2808D002E0112000E00020002FF8
:1027C00000D10B20BDE8FC810027A80701D5012519
:1027D000E6E73443F5D0002426460325E0E72DE95B
:1027E000FC41804600F0E8F90746A0F57F40FF383D
:1027F0000ED001252A466D1C0026ADB26B4608217D
:10280000384602F019FB040006D0072C24D024E03F
:1028100043F20200BDE8FC81019903230A1D0B600D
:102820004046891DAADF040004D00C2C08D0052CDA
:1028300008D008E00821384602F096FB04460CE078
:10284000012600E000240821384602F079FB00B19F
:102850000324002ECED100E00C242046DAE700004D
:102860001FB504460078012815D12079012812D11E
:10287000608802AA012102F0B5FA60B902208DF841
:1028800000006088ADF80200094901208DF80400BD
:10289000096868468847064808388088A0F57F415F
:1028A000FF3903D0BDE81F4003F086BF1FBD000005
:1028B000A02100201CB500F07FF96A46012102F03A
:1028C00091FA08B100201CBD019800781CBD0000E1
:1028D0002DE9F041084C07464FF6FF7643F2030519
:1028E000324661883846A7DFA84203D16088401C81
:1028F0006080F5E7BDE8F081982100208188A1F58E
:102900007F42FF3A03D0008808B1012070470020C1
:1029100070473EB5027802230C46B3EB520F17D135
:10292000B0F80110ADF80010C1788DF80210818860
:10293000ADF8041080798DF8060002AA01A920469E
:10294000FDF763FC032202A96846FCF7A0FD08B16D
:1029500000203EBD01203EBD10B50C46FFF784FEB1
:10296000FF280CD0074900EB400001EB80004168D4
:1029700021600189A180807AA071002010BD05200E
:1029800010BD0000F424002070B5018890B010291B
:102990004FD1011D34226846FCF74EFD9DF804001E
:1029A0004FF6FF76032134466D46B1EB500F2AD027
:1029B00002F0D8FB9DF8040040080ED001280CD08E
:1029C000022820D118E00F99281D1131FDF702FBD4
:1029D00018B100BFBDF8344015E00EAA0DA90720BC
:1029E00002F098FB0028EED10DE00F99281D491C3C
:1029F000FFF78FFF0028EDD10EAA0DA9072002F0E6
:102A000089FB0028F1D1BDF80000291D00F080FEEF
:102A1000B4420ED0BDF80000214600F07EF8BDF8AB
:102A20000000ADF8360001208DF834000DA8FFF746
:102A300049F810B070BD0000094A002101EB4103C4
:102A400032F82330834205D101EB410002EB8000D4
:102A500040887047491C0829F0D34FF6FF70704733
:102A6000F424002010B50D4C18200D4A6070002091
:102A70004FF6FF7100EB400302EB8303401C5980CB
:102A80000828F7D3FEF7C0F86070182803D001209B
:102A90002070002010BD032010BD0000A4210020E4
:102AA000F424002070B504460D46401C00F098F94F
:102AB00000280ED01022691C601CFCF7E8FC48B10D
:102AC0005FF0000605F1110104F11100FDF782FA33
:102AD000304370BD0126F5E7018811B9421892789C
:102AE0000AB101207047491C0829F7D3002070471C
:102AF00010B50C460346FFF7EFFF00280AD01888F0
:102B00002188884205D10822A11C981CFCF7BFFC33
:102B100008B1002010BD012010BD02F0C5BC10B5E9
:102B20000446007888B0002828D12079072825D1CC
:102B3000608801AA072102F055F900281ED102F091
:102B400011FB1DE06088BDF80010884218D0049980
:102B50000298FFF7A7FF98B16088FFF76DFFADF807
:102B6000160000208DF814006088ADF81800BDF83C
:102B70000000ADF81A0005A8FEF7A4FF08B010BDCC
:102B800003AA6946072002F0C5FA0028DAD1F5E762
:102B900070B50446FFF750FF0546204602F025F9C0
:102BA0004FF6FF7104468D4203D014B9284602F057
:102BB0007BFC204670BD000010B5FFF755FDFF28D7
:102BC00005D0044900EB400031F8200010BD4FF65D
:102BD000FF7010BDF42400203EB5044602F0C2FA96
:102BE0000EE0019920464631FFF782FF28B901998E
:102BF00020462A31FFF77CFF10B1BDF808003EBD2A
:102C00006A4602A9072002F085FA0028E9D14FF6AA
:102C1000FF703EBD2DE9F0410F4628B10120FFF7BE
:102C20005BF90120BDE8F081397961B10026264DBC
:102C300001290DD0254C4FF002080229206822D02E
:102C400003293CD128E001F00FFF0121397134E064
:102C50005FF0000005EB0011097802290CD0401C40
:102C600080B20228F6D30220FFF750F90120FFF7C7
:102C700033F941F61D50D5E705EB0014606801F00B
:102C8000E5FE267019E00146002301221048FFF7F7
:102C9000A1F9A4F804800FE001F0D8FE0A492268E7
:102CA0002031498805EB01114B6823604A60A288F6
:102CB0000A81A4F804800E703E710028B2D0012071
:102CC000FFF70AF90E20ADE77C2D0020342200200A
:102CD00078220020F8B51C4C2078002832D0E0681B
:102CE000002658B10025607800282BD1684648DFBF
:102CF000052805D030B1FDF733FB0AE00125F2E7E6
:102D0000012606E0009800F099FF216909B10098BA
:102D100088479DB96078002814D16088ADF800001C
:102D20006946A06861DF052803D020B1FDF718FBD4
:102D300004E0012502E0D4E902018847002ED2D048
:102D4000002DE6D0F8BD00005022002070B50E46E0
:102D50000446007918494FF4A27501EB4010017F39
:102D60002068A1B14FF4887101F0BAFC4FF4907162
:102D7000206801F0B5FC4FF49271206801F0B0FCBE
:102D80002946206801F0ACFC0C49206809E04FF4AA
:102D90008E7101F094FC2946206801F090FC0849EE
:102DA0002068C0F80413206800F074FF3146BDE8C5
:102DB000704000F053BF0000442C002010030200BC
:102DC00080000200054940880A88904204D349885F
:102DD000884201D801207047002070475821002008
:102DE0000021425C0AB101207047491C1029F8D328
:102DF00000207047800701D00020704701207047F5
:102E00000348017AC90702D00078FEF74BBA704731
:102E1000342100202DE9F047234D81461F46287AB2
:102E20000E469046084302D026B1002104E005205A
:102E3000BDE8F0871C491031484603F00FFF0446F7
:102E4000014600224846FFF769F81FB1214648466F
:102E5000FEF718FE0D2C0DD005DC5CB1042C17D04C
:102E6000082C06D106E0112C06D0A4F540500238FB
:102E700000D003242046DBE73246E9784846FDF7D8
:102E8000F9FE4246A9784846FDF7F4FE0024F1E732
:102E90003246E9784846FDF7EDFE4246A9784846B5
:102EA000FDF7E8FEE6E70000C82100202DE9FC411F
:102EB00017460C00064604D02078C00705D0012034
:102EC00004E000217EDFBDE8FC8102208DF80400D3
:102ED0003046FFF771FE0546A0F57F40FF3808D069
:102EE00001A800902B463A462146304600F021F8D2
:102EF00006E020782146C007304603D000F07DF878
:102F000004460BE07EDF04004FF00000009007D085
:102F1000002201232946304603F0A6FB14B106E047
:102F20000122F6E79DF80410304603F0C7FB204667
:102F3000C9E72DE9F04F85B09046894683460025C4
:102F40009A462E4601AA072118460E9F01F04AFF15
:102F5000040008D1029D95F84400183510F00106D0
:102F600001D0029D343558EA04004FF000080FD11B
:102F700075B126B905F11200FFF7AEFD40B12A4642
:102F800005F11201584685DF044687F8008021E0EC
:102F90000CB1052C1ED199F80000C0070DD003AB71
:102FA00001220721504601F047FF04000AD1072102
:102FB000504602F03BF8040004D1494658467EDFF3
:102FC000040007D00721504601F0BAFF10B10528D0
:102FD00000D00324CDF80080387808B1012300E048
:102FE000002344B100225146584603F03DFB05B092
:102FF0002046BDE8F08F0122F5E7FEB50F460646F4
:1030000001F0E6FE0546A0F57F40FF381ED001AB7B
:1030100001220721284601F00FFF04000AD10721F1
:10302000284602F003F8040004D1394630467EDF1A
:10303000040007D00721284601F082FF10B10528BF
:1030400000D00324012000905CB102E003240020A2
:103050000090002201232946304603F005FB20465C
:10306000FEBD0122F6E700002DE9F041134D0F46A9
:10307000164680462978FDF7E9FD00281BD040461A
:10308000FFF79AFD0446A0F57F40FF3813D069781A
:103090004046FDF7DBFD38B133463A46214640460F
:1030A000BDE8F04101F06EBD324639464046BDE80C
:1030B000F041FEF789BCBDE8F0810000C42100208A
:1030C0002DE9F04385B08146FDF7B4FD002820D0FE
:1030D0006846FDF7E3FC00246E4617E006EB440566
:1030E0004946A888FDF7B2FD78B10B4FA888B9789A
:1030F000FDF7ACFD8046A888F978FDF7A7FD0146ED
:10310000A88801234246FFF785FE641C0098A04270
:10311000E4D805B0BDE8F083C82100202DE9F043D4
:10312000264CA4F110092278D9F8048099F80350AC
:10313000404694F801C0D9F8086031E002EB420340
:103140006168521C01EBC301A378D2B2934200D153
:1031500000220B78022B02D0032B21D11DE0034665
:103160004F68194603E0B94203D00B46C969B9B1AB
:10317000F9E7A9B18B4205D1C06918B9104E0125F4
:10318000B56000260F68C969D96149B10B683B4435
:103190000B6005E00174C06900E000210028F9D14E
:1031A0009445CBD1C9E9010689F80350404502D0C6
:1031B0000120BDE8F0830020FBE70000142200207E
:1031C000001001402DE9F0412A4F0446002607F186
:1031D0001005D7F804803EE002D02046E4691DE0E7
:1031E0002878696800EB4002401CC0B201EBC201C4
:1031F0002870AA78904200D12E700A784868012A77
:103200002BD1027C4ABB8A684260CA6882600A6924
:10321000C26049698161F97801B146604368BA6862
:10322000DFF854C0991A21F07F41614502D28268CB
:10323000114406E0D11A826821F07F418A4202D906
:10324000511A016000E00660466001218660017449
:10325000C66103F01FFF002CBED128786978884230
:10326000BED17968414502D00120BDE8F08100203F
:10327000FBE7000004220020FFFF7F00FEB50446AC
:103280000026A0F57F40FF382FD02046FFF772FAC6
:10329000050013D00B2D15D0112D11D0A5F54050E0
:1032A00002381CD009208DF800002046FFF784FC6E
:1032B000ADF80200ADF8044002950DE0022002E0F6
:1032C00001260CE003208DF800002046FFF774FC77
:1032D000ADF80200ADF804406846FEF7EDFB034888
:1032E000324681782046FDF7C5FCFEBD8C210020CA
:1032F000FEB504460026FFF772FA05460C281AD0E0
:1033000003DCA5B1042D06D129E0112D11D0A5F5BE
:10331000405002381CD009208DF800002046FFF7ED
:103320004BFCADF80200ADF8044002950DE0012021
:1033300002E001260CE007208DF80000ADF8044003
:103340002046FFF739FCADF802006846FEF7B4FBF3
:103350000448324641782046FDF78CFCFEBD08202B
:10336000EAE700008C210020F8B5054600780C46FD
:10337000002620420FD100208DF800006846FDF79E
:1033800099F82878204202D12043287001269DF820
:103390000000FDF7B3F83046F8BD000098B00020FB
:1033A00001F076F908B1FCF7DBFF0023614A052143
:1033B0001846FCF7F3FF08B1FCF7D2FF5E4A40F66F
:1033C000CD410320FDF71CFF08B1FCF7C9FF69469A
:1033D0000020FDF7F3FD08B1FCF7C2FF9DF80000E7
:1033E00002287DD05FF00004FDF7B2FD204602F018
:1033F00069F81CB151A1042001F07CF89DF8080087
:1034000055A120F00F00401C20F0F00010308DF886
:1034100008000A2202A87CDF08B1FCF7A1FF002403
:1034200000945020ADF80000A0200194ADF80200F7
:10343000ADF804404FF4C870ADF8060068467ADF76
:1034400008B1FCF78DFF382101A8FCF70EF8022027
:103450008DF8040001258DF8065006208DF8070030
:1034600040480690ADF8145020210FA8FBF7FDFF4F
:103470004FF496708DF83F501390B4200094149040
:10348000394B0FAA002101A8FDF722F908B1FCF77A
:1034900067FF3648CDE9000404208DF804008DF85C
:1034A000050024486946C830FDF798FC08B1FCF7D0
:1034B00057FF2FA1042001F01DF81C216846FBF7DF
:1034C000D4FF4FF42030CDE900404FF4702002903B
:1034D00003208DF80C00ADF80E408DF8104000E090
:1034E00026E02D4805902D4806906846FDF768FABD
:1034F00008B1FCF735FF2AA1042000F0FBFF32A140
:10350000042000F0F7FF0320FDF7D8F908B1FCF71D
:1035100027FF36A1042000F0EDFF00BF00F048FFB8
:103520000028FBD13EDF0028F8D0FCF719FFF5E7B3
:10353000012459E788220020611102004150503ACD
:1035400044454255473A426F6E6473206572617319
:103550006564210D0A0000004E6F726469635F4468
:10356000465500002A210020ED460200010D020010
:103570004150503A44454255473A53657276696323
:1035800065732061726520696E697469616C697A1E
:1035900065640D0A0000000025480200D9170200EA
:1035A0004150503A44454255473A636F6E6E207021
:1035B0006172616D732061726520696E6974696101
:1035C0006C697A65640D0A004150503A4445425591
:1035D000473A6170702074696D657273206172651D
:1035E00020737461727465640D0A00004150503A92
:1035F00044454255473A6164766572746973696EF1
:103600006720697320737461727465640D0A000029
:1036100070B5144682880E4605462088111D014467
:10362000921C994201D8FE2A01D90C2070BD521C6F
:1036300032542088FF21401C80B2208031542088E1
:10364000401C80B220808119288803F0ECFE21887C
:10365000084480B22080AA8842B1A96841B13044B0
:10366000FBF7EAFE2088A98808442080002070BD6E
:10367000072070BDF8B50E460178144605460129AD
:1036800001D1687830B12088821C9A422DD8012956
:1036900002D006E00720F8BD69780144891C9942F0
:1036A00023D8181A801E87B2ADF800702188B01C8C
:1036B000084469467DDF0028EDD12878022805D12D
:1036C000BDF80010B94201D809210AE008210128FB
:1036D00005D16878B84202D8ADF8000001E0ADF835
:1036E0000070BDF80000FE2801D90C20F8BD22882A
:1036F000401CB0542088401C80B220803154208867
:10370000401C2080BDF80010084420800020F8BD37
:1037100070B505460C004FF0FF0020D04FF6FF7645
:10372000B5421CD00E48012241782846FDF7A2FA86
:103730002846FEF799FFFF2803D1FEF7B1FFFF28C7
:103740000DD0084B00EB400203EB82014D8023F8C3
:10375000226022684A60A2880A81A2798A7270BDBA
:10376000A4210020F424002070B54FF6FF750E460A
:10377000A84201D1002000E0401C84B208E02146AC
:10378000304602F0E8F808B1204670BD641CA4B2CF
:10379000FF2CF4D9284670BD00F180400068002855
:1037A00000D00120704708B500F180400021016081
:1037B0000068009008BD000000283ED01F49204A44
:1037C000096800BF00BF00BF00BF00BF00BF00BF4F
:1037D00000BF91422FD000BF00BF00BF00BF00BF9D
:1037E00000BF00BF00BF00BF00BF00BF00BF00BFE1
:1037F00000BF00BF00BF00BF00BF00BF00BF00BFD1
:1038000000BF00BF00BF00BF00BF00BF00BF00BFC0
:1038100000BF00BF00BF00BF00BF00BF00BF00BFB0
:1038200000BF00BF00BF00BF00BF00BF00BF00BFA0
:1038300000BF00BF00BF401EC3D1704764220020FC
:103840000024F4002DE9F04190460E4607460B4651
:103850000246002515A1032000F0A0FE1C4C2068A4
:10386000410720D5810706D51AA1032000F042FEAA
:103870000A20BDE8F08140F001002060B2B243466A
:1038800039461D48FEF7A6FB050008D002461BA1DD
:10389000032000F055FE206820F0010002E02068BF
:1038A00040F0010020602846E3E700003A494E4618
:1038B0004F3A45726173696E673A20307825303827
:1038C000782C206E756D3A2025640D0A00000000EA
:1038D000302100203A494E464F3A45726173653AAD
:1038E000204661696C7572652073696E6365206C32
:1038F0006173740D0A000000682200203A494E46A8
:103900004F3A4572617365206661696C65643A205F
:1039100025640D0A00000000024904200860002010
:103920007047000030210020F8B5134C06460025F2
:10393000206847071DD5850705D510A1032000F095
:10394000D9FD0A20F8BD40F001002060009393B239
:103950000A4631461248FEF70BFC050005D0024628
:1039600010A1032000F0ECFD03E0206840F001000E
:1039700020602846F8BD0000302100203A494E461C
:103980004F3A466C6173683A204661696C7572659E
:103990002073696E6365206C6173740D0A0000000A
:1039A000682200203A494E464F3A466C6173683AA5
:1039B000206661696C65642025640D0A00000000C2
:1039C000002258210148FDF737BF0000802A00205F
:1039D00070B513A1032000F08DFD1B4900204FF4AA
:1039E000AE7508702A4619491948FBF725FD184C91
:1039F0002068401C04D0FFF7E3FF216881420ED00D
:103A00001449032000F076FD29461148FBF72DFDEF
:103A100001206060BDE87040002000F01DB870BD5E
:103A20003A494E464F3A72756E6E696E67206E72F5
:103A3000665F6466755F73657474696E67735F69EA
:103A40006E69740D0A000000E821002000F00700F4
:103A50007C2A0020647A020070B505461D4A1EA12A
:103A6000032000F06DFD264C207808B125A125E04B
:103A7000012020700146002216486560FFF7E2FE33
:103A8000002510B125702BA118E0FFF799FF3449EC
:103A90005722086033A1032000F052FD30494FF453
:103AA000AE72A1F5AE70FBF7C7FC364B5722364914
:103AB0000848FFF739FF30B1257034A1032000F02A
:103AC00019FD112070BD3CA1032000F013FD002062
:103AD00070BD000000F007003A494E464F3A45726B
:103AE0006173696E67206F6C642073657474696EAE
:103AF00067732061743A203078253038780D0A00D9
:103B0000E82100203A494E464F3A436F756C6420D5
:103B10006E6F742071756575652077726974696E52
:103B200067206F66204446552053657474696E673C
:103B3000730D0A003A494E464F3A4661696C656416
:103B400020746F20657261736520626F6F746C6F93
:103B5000616465722073657474696E67730D0A0021
:103B60007C2A00203A494E464F3A57726974696E72
:103B7000672030782530387820776F7264730D0AAB
:103B80000000000071190200202900203A494E4629
:103B90004F3A4661696C656420746F20777269746E
:103BA0006520626F6F746C6F6164657220736574F9
:103BB00074696E67730D0A003A494E464F3A577260
:103BC0006974696E672073657474696E67732E2EED
:103BD0002E0D0A0010B50B4C207808B1852010BDC1
:103BE0000020A06060602061E060062100F036F8EF
:103BF00003F0F0F9012108B90348016021700020A9
:103C000010BD0000D82B00201805004038B500205A
:103C10008DF800006846FCF74DFC074C207808B989
:103C2000FFF7D8FFE068401CE0600120A0709DF81D
:103C30000000FCF763FC38BDD82B0020002801D120
:103C4000FDF71CBD704700F01F02012191404009A3
:103C5000800000F1E020C0F8801170474907090E8C
:103C6000002806DA00F00F0202F1E02282F8141DAB
:103C700003E000F1E02282F8001400F01F020121AD
:103C800091404009800000F1E020C0F88012C0F8A7
:103C900000117047000B40B2704700002DE9F0475B
:103CA0008846814601F04CFC0124224E00284846FB
:103CB00018D0FDF7A3FC304490F848008009032891
:103CC00002D0012806D007E01B48006804FA09F476
:103CD000204201D1022100E003214846BDE8F0471F
:103CE00000F0F8B901F038FC002820D04846FDF774
:103CF00085FC0546114F4FF4807007EB850100EB02
:103D00008500D1F8102580B242F00102C1F81025DB
:103D100000F0EEF9B8F1000F09D04846FDF76EFC4F
:103D200056F82000002802D0AC40C7F80443BDE894
:103D3000F0870000EC2B00201005005000600040D0
:103D40002DE9FC41DFF8A480044608EB04000027BD
:103D500090F930001346C0170E46401C01D00827CA
:103D600040E0F27819462046FDF724FC0546401C49
:103D700037D0B07848B1A00000F1A040D0F80017CB
:103D800021F00201C0F8001707E0002173782046F7
:103D900000910A46019100F05FF9F078C0B1144833
:103DA000317800EB8500D0F81025124B1A40C0F88E
:103DB00010254FF4F8524FF4403302EA042203EA8C
:103DC00001410A43D0F810150A43C0F8102509E054
:103DD00008EB0500327810F8481F41EA82110170A3
:103DE00000E004273846BDE8FC810000EC2B0020F1
:103DF00000600040FFE0FCFF03490968C14011F08A
:103E0000010000D0012070471005005070B5144D1E
:103E100095F8540008B1082070BD0020411E2A18F2
:103E2000401CC0B282F830102028F8D3002420466D
:103E3000FDF7B2FB641CE4B20C2CF8D30621084653
:103E4000FFF70CFF4FF4BE7000F052F905494FF038
:103E50000040C1F80403012085F85400002070BD23
:103E6000EC2B002000600040034890F8540000282C
:103E700000D0012070470000EC2B00202DE9F0411C
:103E800005460079164F904607EB40140E46E07E3B
:103E900010B10820BDE8F081707F20772846FCF73C
:103EA00047FB5FEA080060603169216003D0317F21
:103EB0002846FEF74BFF287907EB4010007F0028CB
:103EC000286801D0082100E00421C0F80015002076
:103ED000E0752076A0750121E176A076DAE7000092
:103EE000442C00202DE9F047054600793E4C0E4653
:103EF00004EB4013187F38B14FF40050B0EB164F6D
:103F000002D01020BDE8F087284600F06FF808B115
:103F10001120F7E79A7500279E609F8228794FF05D
:103F2000010804EB40143E46207F0028286825D075
:103F30004FF49079494600F0D3FB4FF4AC7A5146E8
:103F4000286800F0CDFB2868A17DA268C0F8442550
:103F5000C0F848152868C0F808806068F0B949467C
:103F6000286800F0B8FB80465146286800F0B3FB93
:103F700058EA0001F3D058BBA7750FE04FF48E7AD2
:103F8000514600F09CFB2868C0F80880214628684C
:103F900003F01CF961684FF4807089B13046B1E7D5
:103FA0005146286800F086FB10B9A08A4845F7D131
:103FB000A08A484505D02146286803F007F900E0AB
:103FC0008146A08AA17D8842EAD3A08A484501D1D2
:103FD0000F26D1E75146286800F06CFB0028F9D085
:103FE0002868C0F80C80C7E7442C002000790449F9
:103FF00001EB4010807D002800D0012070470000B8
:10400000442C002070B5044600791149002601EBCC
:10401000401520682A7FC0F80065686888B120795B
:1040200001EB4010007F0028206801D0094901E021
:1040300008498C39C0F808132068FFF72BFEFFF7FA
:1040400002FE204601F094FAEE766E6070BD00002C
:10405000442C00201003020030B541EA4201DDE9A2
:10406000034541EA8301800041EA042100F1A040B8
:1040700041EA0541C0F8001730BD30B541EA4201C0
:10408000DDE9034541EA8301800041EA042100F1B2
:10409000A04041EA0541C0F8001730BD1CB5002121
:1040A00000910B4601220191FFF7E7FF1CBD1CB5F3
:1040B00000220B46009211460192FFF7DEFF1CBD65
:1040C0001CB5002100910B46012201911146FFF71A
:1040D000D4FF1CBD800000F5E06000F1A040026844
:1040E00022F440320260026842EA014101607047F6
:1040F000034908B50844002101600068009008BD2C
:104100000060004002494058012800D0002070475C
:1041100000600040004870478D41020030B5184CE7
:10412000054689B0207828B16078854202D1002008
:1041300009B030BD202213496846FBF77DF9002005
:104140008DF81400062000900820019005200390AF
:10415000072002904FF0EB7006900948001DFFF712
:1041600051FF0DB1002200E0074A05486946001DD5
:10417000FFF784FE0028DBD1012020706570D6E7B0
:1041800040220020DC790200097202002DE9F04F84
:10419000C1B00D00DDF82CB14D984FF000011C4668
:1041A00090460BEB000A409101D00A2600E0002661
:1041B00002F0BAFA002873D16F46BCB9409840AA01
:1041C0003918284602F0EAFF002869D04046FBF77C
:1041D00057F9C22800D9C220054640982A463844DB
:1041E0004146FBF729F94098284440904FF02009B8
:1041F0004098821931320DEB02016844002202E03E
:1042000000F8019B521CB242FAD30027544508D350
:1042100000F8019B00F8019B00F8019B01F8019B4D
:1042200026E05C4502D24A9A125D03E04C9AA4EB68
:104230000B03D25C84460125AB0022FA03F808F098
:104240000F03092B01D9373300E03033C5F10108E2
:104250006D1E0CF80830EFD20CF10200A2F1200321
:1042600000F8019B5E2B00D92E2201F8012B641C63
:104270007F1C102FCAD30D220A700A224A7080F8C0
:1042800000904098811943316846409102F052FAFB
:1042900030B102F049FA18B9002040905445A7D334
:1042A00041B02046BDE8F08F2DE9F043C5B00025B0
:1042B0001C46904689464C9F449502F035FAB0BBA7
:1042C000449804AE311844AA484602F067FF00281B
:1042D0002ED0072F22D2DFE807F00412192E38441F
:1042E00051004046FBF7CCF8054644982918FF29B1
:1042F00014D830442A464146FBF79EF80EE0449815
:10430000226830444146FBF7F9FB06E0D4E900237C
:10431000449841463044FBF7F1FB0546294644A842
:10432000FDF7F0F818B14499B1F5807F33D900203A
:1043300045B0BDE8F083A0680090D4E9002344981C
:1043400041463044FBF7DAFBE7E7D4E90201CDE967
:104350000001D4E90023449841463044FBF7CEFBEA
:10436000DBE704F1080007C88DE80700D4E9002363
:10437000449841463044FBF7C1FBCEE704F1080006
:104380000FC88DE80F00D4E900234498414630441B
:10439000FBF7B4FBC1E704A802F0CCF9C8E70000C2
:1043A00000487047A94202000120FFF7B7BE000095
:1043B0002DE9F04F87B0FDF7E1F818B1002007B004
:1043C000BDE8F08F454ED6E9014704EA070006EB49
:1043D0008000A146641CC5680CE000BFC5F38910CD
:1043E00000EB9550044404EA070006EB8000A14668
:1043F000C568641CA807F1D005F003004FF0000B5E
:10440000022805D0AA0A01A8C5F38313002153E0AE
:1044100004EA070006EB800004F1010A0AEA070437
:10442000C268381B80004FEA9558001DC5F38913F8
:10443000804521D929490C3138B106EB840400F0BC
:10444000FF0CA8EB00000C3404E00C46002108F03F
:10445000FF0C0846C0B2CDE90210CDE9004CD6F8F9
:104460001444C5F3C2005946A047404511D108F194
:1044700003080AEB98042AE0002106EB84000C30C4
:104480000090CDE901810391C5F3C200D6F8144430
:10449000EAE760F38F1509EA070006EB8000C560C4
:1044A00016E000BF04EA070C06EB8C0C491CDCF894
:1044B0000CC040F804CB641C9942F3D3C5F3C2008E
:1044C0000093D6F8105401AB5946A84700B1746068
:1044D000FDF754F880F0010071E70000142F002070
:1044E000034AFF23936000231360536000F0C8B8B1
:1044F000142F00202DE9F047DFF83C800446002609
:1045000089463046D8F80870D8F80050FDF704F80E
:1045100000280ED0094800213D40406861F3820028
:1045200064F3C50066F3891008EB850169F39F20E9
:10453000C860BDE8F0870000142F0020FC7902005D
:104540002DE9F047DFF84C80054601279246894661
:104550003846D8F80860D8F80040FCF7DDFF00289E
:1045600015D00D48002104EA06028068641C61F33E
:10457000820065F3C50067F3891008EB82023440BE
:1045800069F39F2008EB8401D060C1F80CA0BDE85E
:10459000F0870000142F0020FC7902002DE9F05F65
:1045A000DFF85C80064602279B46924689463846DD
:1045B000D8F80850D8F80040FCF7AEFF00281CD00F
:1045C0001048002104EA0502C06808EB820261F38A
:1045D000820066F3C50067F3891069F39F20641CAD
:1045E000D06004EA0502641C08EB82022C4008EB50
:1045F0008401C2F80CA0C1F80CB0BDE8F09F000027
:10460000142F0020FC7902002DE9F05FDFF86880AC
:10461000064603279B46924689463846D8F80850F6
:10462000D8F80040FCF778FF002823D01348002179
:1046300004EA0502006908EB820261F3820066F376
:10464000C50067F3891069F39F20641CD06004EAF9
:10465000050208EB8202641CC2F80CA004EA050201
:1046600008EB8202641C2C40C2F80CB008EB8401F9
:104670000A98C860BDE8F09F142F0020FC79020062
:10468000024A02F5826203C270470000142F002024
:1046900070B506460020FFF741FD040008D1FFF782
:1046A00039FD0546FFF77CFE32462946FFF718FF25
:1046B000204670BD4058002800D00120704708B542
:1046C000002242504058009008BDD0F80403084032
:1046D00000D0012070474058002800D001207047CA
:1046E00008B5002242504058009008BD10B550B1A6
:1046F00003280CD10220FCF777FD002807D0BDE885
:104700001040FBF72DBEBDE8104002F04BB910BDC4
:1047100010B50446008888B03B2823D009DC022865
:104720002ED0102813D011281AD10020FCF75CFDE0
:104730001FE0512828D055284AD0562810D126A14C
:104740000420FFF7D7FEA088132176DF11E00720B1
:10475000FCF74AFD08B1FBF703FE2849A088088052
:1047600008B010BD26A10420FFF7C4FEA0881321C5
:1047700076DF0028F4D008B0BDE81040FBF7F0BDAC
:10478000A088002167DFF4E71022A11D04A8FAF732
:1047900053FE9DF810100029E2D09DF8180004285F
:1047A00003D0062801D00528DAD102290ED0012035
:1047B0008DF800004FF4C170ADF80400A088694680
:1047C000A8DF0028CCD0FBF7CBFDC9E70220EFE73C
:1047D000A0881721ADDFCCE74150503A44454255FF
:1047E000473A4741545420536572766572205469A4
:1047F0006D656F75742E0D0A0000000028210020E1
:104800004150503A44454255473A47415454204359
:104810006C69656E742054696D656F75742E0D0A30
:10482000000000000078002807D104483B210088E0
:1048300076DF002801D0FBF793BD704728210020C8
:10484000F0B58DB000260446059602200696079620
:1048500008968DF81400A07B8E46012720B18DF8B4
:104860001A70ADF8186003E040F2FD10ADF81800C2
:10487000A08805A9A8DF1128FAD0BDF818000028E3
:1048800036D19EF80C00012834D00225029603216F
:10489000ADF83010019620218DF82C108DF82D00E8
:1048A000039604968DF82E50E088ADF804000CA80D
:1048B00003900BA88DF80670ADF808600490A088EE
:1048C00001A9A6DF012D13D19EF80C0001280FD1FC
:1048D000226920461AB18DF8006069469047064863
:1048E00087650648FFF7B8F8002801D0FBF738FDC8
:1048F0000DB0F0BD0125C9E77C2A0020751F02001C
:10490000134A10B500215170017A012912D00229F1
:104910001DD18189491C8181C189491C89B2C1810C
:10492000028A914213D1002101F0D8FEBDE8104067
:1049300001F0ACBA838AC28A4FF480619C1A8C421F
:1049400000DAA1B2114489B2C1829942EBD010BD04
:104950003C220020F8B51E4D17460E4601466A6FF0
:104960000020032A33D805F17804C6F1080C636CE3
:1049700063452CD895F87000104400F00300C0EB9C
:10498000C00005EB80001C22FAF756FD686F401C42
:104990006867DEB194F8440094F84010002308449E
:1049A00000F0070004EBC00000900AE007EBC30230
:1049B0000098D2E90012C0E900126846FCF736FE02
:1049C0005B1CB342F2D3606C304460640120F8BDDC
:1049D000BC2C00200389CA1C1A4402814289511A46
:1049E000C91E4181704700002DE9F04700F5805550
:1049F000002700F10804022090460E460880DFF8E8
:104A0000489012E02046FDF779FFD0B1A068D9F8B0
:104A10000420904201D9C9F804006088318804EB71
:104A200080040844C01C30800C34AC4202D22068A0
:104A3000401CE7D1B8F1000F01D088F80070BDE844
:104A4000F0870127E9E700002422002008B50021B3
:104A5000009101460223024A0248FDF789FB08BD86
:104A6000D47902007822002008B500200090044884
:104A70000223044A01680448FDF77AFB08BD0000E0
:104A800034220020CC790200782200202DE9F05F4A
:104A90000025374FDFF8DC80DFF8DC90DFF8DCB092
:104AA0002C46AA462E46386800EB0630026842457E
:104AB00005D1334A4168891830D001290DD0002131
:104AC0004FF4806250F821305B1C33D009EB0411A5
:104AD00003200870641CA4B219E0BAF1000F09D0D9
:104AE000022209EB0411641C0A70DBF800304B60F1
:104AF0000A81A4B200220BF10401CBF80000FFF7F9
:104B000073FFBBF80400022830D008200543761C50
:104B1000B6B2032EC7D3E8B2BDE8F09F09EB04118B
:104B2000002201F8042B01C18A1DFFF75DFF45F04B
:104B30000205CFE7491C9142C4D3DBF80020594657
:104B40005AB109EB041102220A7048600A480A812E
:104B500020304480641CA4B205E008600220ABF859
:104B600004004FF0010A45F00105D0E70420CDE72D
:104B700078220020DEC0ADDE7C2D00203422002013
:104B800002FEE10E70B5184D0E46044623CD86B0E8
:104B90008DE82300154DADF80420ADF802408DF8E6
:104BA0000630A9782046FCF751F818B13046FDF7D9
:104BB000EFFF0FE00721304600F0C2F950B10528A1
:104BC00008D109218DF80C100490ADF80E4003A80F
:104BD000FCF79CFF002229782046FCF74BF868463A
:104BE000FCF794FF06B070BD90790200C42100204C
:104BF000F0B585B00746FCF71DF8002814D06846CC
:104C0000FBF74CFF00246D460BE000BF05EB4406AC
:104C10003946B088FCF71AF810B1B08802F0BCF839
:104C2000641C0098A042F1D805B0F0BD70B5054DE8
:104C300006460024304655F824108847641C052C8D
:104C4000F8D370BDAC7902003EB5104D002400BF12
:104C500004EB840005EB800002F0E0FC641C082CEF
:104C6000F6D30124502008210094CDE90110094910
:104C7000C200074B01F5207000F0D1FC08B1032001
:104C80003EBD0348447000203EBD00008028002047
:104C9000E0210020F025002000F038BA00F038BAFA
:104CA0002DE9FF41002604460096019602960396E0
:104CB0004088ADF8020020798DF80400374621794C
:104CC000608802F082FC21783F4D0A2947D2DFE854
:104CD00001F005053319193537393F4468B1417C76
:104CE000C9070AD002F0AAFC8DF8007020780128CC
:104CF00000D000208DF808001AE001208DF8000097
:104D0000A06823E078B18168A26891420BD1417C10
:104D1000CA0708D06A6821F00101521C41F0040161
:104D20006A6041741BE002208DF80000E068039087
:104D30006846FFF77BFF12E003200BE0042002E04F
:104D4000052007E006208DF80000E0680290EFE7FC
:104D5000012607208DF80000EAE7E0680290686805
:104D6000002826D0194C002505EB850704EB8700A9
:104D7000417C4A0703D4C1F3400131421FD08178FE
:104D800034F8270000F0F0F8C8B105EB85010428DD
:104D900034F82110ADF8021004EB870189788DF802
:104DA000041008D009218DF8001002906846FFF722
